:10000000C80F0020DD100000DB100000DB10000036
:1000100000000000000000000000000000000000E0
:10002000000000000000000000000000DB100000E5
:100030000000000000000000DB100000DB100000EA
:10004000DB100000DB100000DB100000DB10000004
:10005000DB100000DB100000B90B0000DB1000001B
:1000600065100000D90600003D0E0000DB10000006
:10007000BD0C0000DB100000DB100000DB100000F6
:10008000DB100000DB100000DB100000DB100000C4
:10009000DB100000DB100000DB100000DB100000B4
:1000A000DB100000DB100000DB100000DB100000A4
:1000B000DB10000091090000DB100000DB100000E5
:1000C00010B5064C2378002B07D1054B002B02D02E
:1000D000044800E000BF0123237010BD5804002035
:1000E00000000000B082000008B5084B002B03D0D0
:1000F0000748084900E000BF07480368002B00D10B
:1001000008BD064B002BFBD09847F9E70000000024
:10011000B08200005C0400205404002000000000B5
:10012000164B002B00D1144B9D46402292029A1A86
:10013000924600218B460F461348144A121A06F0C5
:10014000EDFE0F4B002B00D098470E4B002B00D03C
:1001500098470020002104000D000D48002802D01F
:100160000C4807F021F806F077FE2000290001F086
:100170000FFF06F061FEC0460000080000100020DE
:10018000000000000000000058040020C409002006
:10019000A9710000B97100000123011C30B51D1CBC
:1001A00008318D408340044C181C2268AA43131C5C
:1001B0000343236030BDC046340000500138C0B254
:1001C00070B50A1C822803D81A4B8100CC5800E075
:1001D000194C2406194B640FE418A401822803D893
:1001E000144B8000C55800E0134D0121ED066D0F42
:1001F000EEB2A940C82A03D10D1C201C002204E045
:10020000C92A0BD10D1C201CC73A01F045F96168C1
:10021000301C29436160FFF7BFFF09E0201C01F09B
:100220003BF902235B42AB401D1C61680D406560D9
:1002300070BDC0466073000098420050000140014C
:100240000D4B0E4A1868C0B2434243411068C0B219
:100250004242504140001843094B1B68DBB25A42EE
:1002600053419B001843074B1B68DBB25A42534172
:10027000DB0018437047C046684200506C42005093
:1002800070420050744200507047000008B50748A3
:1002900010210222002306F045FA00F081FA00F056
:1002A000F3FB034800F00EF908BDC04674040020BB
:1002B000D462000001231840014B18607047C0460B
:1002C0008C4200500123064A434010B513600028B9
:1002D00005D1041C00F02CF9201C00F01BF910BD06
:1002E000404200500123011C0B4A19401160420892
:1002F0000A491A400A60820809491A400A60C2087D
:1003000008491A400A60020907491A400A60400970
:10031000064A034013607047804200504C42005030
:10032000484200507C4200507842005050420050F9
:1003300008B50020FFF7D6FF0020FFF7C3FF00201D
:10034000FFF7B8FF18200321FFF738FF162003211D
:10035000FFF734FF15200321FFF730FF0E200321A4
:10036000FFF72CFF0D200321FFF728FF17200321A3
:10037000FFF724FF08200321FFF720FF09200321B6
:10038000FFF71CFF0A200321FFF718FF0B200321B2
:10039000FFF714FF13200321FFF710FF0C200321A8
:1003A000FFF70CFF14200321FFF708FF2C20032187
:1003B000FFF704FF1A200321FFF700FF1420032199
:1003C000FFF7FCFE1B200321FFF7F8FE08BD08B570
:1003D000002803D02D20C821FFF7F0FE08BD000043
:1003E00008B5024806F012FA08BDC04674040020A1
:1003F00072B6034B18780130C0B218707047C0460F
:10040000BC060020044A1378013BDBB21370002BBA
:1004100000D162B67047C046BC06002010B5FFF799
:10042000E7FF034B1C68FFF7EDFF2412A0B210BDDD
:100430007C04002038B5041C0D1CFFF7D9FF0022F6
:10044000074B1A80074BA54200D9074A1A601A6861
:1004500012021A600122054B1A70FFF7D3FF38BD54
:100460007A0400207C040020F87F00008004002033
:100470000F4B10B5041E9C420BD80E4B984209D866
:10048000142000F085FB00220B4B1A201A60211C5F
:100490000AE01C1C1A2000F07BFB01221420074BF1
:1004A0001A60074BE11889B200F058FB10BDC04636
:1004B000F4BF0000F87F0000444200505842005052
:1004C0000880FFFF0A4B10B5011C984200D9191C87
:1004D00089B2002001F0D7FA064B041C984200D9DB
:1004E0001C1CFFF785FF044B1C80FFF78BFF10BD22
:1004F000D4620000F87F00008204002010B5041CC4
:10050000FFF776FF024B1C80FFF77CFF10BDC04653
:100510007A04002010B5041E02D0002000F008F874
:1005200001235C40014B1C6010BDC04624420050BA
:1005300038B5051E02D00020FFF7ECFF0024FFF7BE
:1005400057FF104B1A201C7000F022FB0E4B14209A
:100550001C6000F01DFB0D4B1C60FFF753FF0123D7
:100560000B4A6B401360A5420AD0062001F016F931
:10057000051C201C01F012F9011C281CFFF75AFF72
:1005800038BDC0468004002058420050444200500C
:100590005C42005010B5164C2378002B26D000206A
:1005A00001F002F9134B1B88984205D30020FFF796
:1005B000BFFF0023237019E0022001F0F5F80E4B75
:1005C0001A880E4B101A19688000081818601A68EB
:1005D000002A01DA00221A601968094A914200D9FA
:1005E0001A601868001280B2FFF742FF10BDC046C3
:1005F00080040020820400207A0400207C04002073
:1006000000F4BF0008B5011C142000F0A7FA08BDD3
:10061000044A1378013BDBB21370002B00D162B6A1
:100620007047C046BC060020FF210A4A0138536AC1
:10063000C0B28B43191C822803D8074B8000C358D3
:1006400000E0064B0120DB065B0F9840031C0B43C8
:100650005362704700000E406C75000098420050D5
:10066000C0B20123011C064A1940116042088008EB
:100670001A4018400349044B0A6018607047C0468E
:1006800094420050904200505442005008B5002857
:1006900017DB0C4BC0B2187072B60B4A06201378E9
:1006A00001331370FFF7DCFF084A094B11680B4058
:1006B0001360FFF7ADFF8021064AC90513680B439D
:1006C000136008BD84040020BC06002034000050E4
:1006D000FEFEFFFF20000140012208B5084B9A6092
:1006E00072B6084A137801331370074B187840B27A
:1006F000FFF7B6FF0020FFF74FFDFFF789FF08BDAA
:1007000020000140BC0600208404002010210022AB
:1007100008B5074B1B780133DBB299425241524274
:100720001340044A9B009856FFF7B0FF08BDC0462F
:100730008D0400207877000010B5FFF7E7FF114B1C
:10074000114A1B789B00D3189978104A5C78117075
:1007500000220F49201C0A700E490A60FFF764FF4F
:100760000D4A0E4B516A402C04D9A41124020B40AF
:10077000234300E00B4080215362136A09010B43BD
:10078000136210BD8D0400207877000095040020CE
:100790008C0400208804002000000E40FFFCFFFFB6
:1007A000F8B51D200321FFF709FD1C200321FFF7E9
:1007B00005FD19200321FFF701FD2E20C821FFF7B9
:1007C000FDFC0120C821FFF7F9FC2F20C821FFF70D
:1007D000F5FC0220C821FFF7F1FC0320C821FFF738
:1007E000EDFCC9212B20FFF7E9FC0025A022012701
:1007F0002A4BD2051D60D369294C3B43D361201C91
:1008000000F0D0FC8021201C264C2A1C890100F01D
:1008100099FC291C201C244A00F00AFE802223682F
:100820009205134323608023C222204E9B00336035
:100830009200B3581E491F4C0B40802109020B4304
:10084000B350201C00F0AEFCC022291C201C9202D8
:1008500000F078FC0422184C291C131C201C00F00A
:1008600087FD236A391CBB40FB402362236A201C9E
:100870003B432362276300F08DFD8023C7229B0545
:1008800033609200B3580A490B40802109020B43A0
:10089000B3500A4B1D70FFF74FFFF8BD20420050C8
:1008A0000300C02E2000014050C3000000E100E022
:1008B000FF00FFFF1CFE232600000E408D040020D9
:1008C00038B503F0AFFA104CE08302F0AFFC0F4BE9
:1008D00020841B78002B16D003F0A4FA46250C4C7C
:1008E0006843E36BC018E06302F0A0FC4543236C4F
:1008F000ED18084B25641B88012B02D1A3689B08C7
:10090000A36001F047F938BDE807002094040020F7
:10091000D00600204007002010B5164B1A68191C9D
:100920001307FAD480230A685B001A4002D0124BE6
:100930001B68F7E71021114C23780133DBB2994291
:10094000524152421340237008D1FFF7B9FF0C4BBC
:100950001B885A1E93410B4ADBB21370FFF7ECFE63
:100960002378094A9B00D318DB78002B01D0FFF7CE
:1009700011FE10BD30000E4000000E408D0400201E
:1009800040070020940400207877000070470000A2
:1009900038B51B4B1B4C1B68DB052ED522681A4B48
:1009A00092B21A60194A191C1078012804D9184803
:1009B0001B680568EB18036013780133DBB2137012
:1009C000472BE6D9226A134B13481340236202785F
:1009D0000B6812491B019BB252005352104B1B78FB
:1009E000002B08D00A4B0F491B6802781B019200AC
:1009F0005058C3185350FFF78FFF0123236338BDAE
:100A000030000E4000000E40900400208C040020B6
:100A100088040020FFF7FFFF95040020E80700206E
:100A200094040020D006002038B5114D114B124C13
:100A30001B682A682A21D3182B60104B1B68226878
:100A4000D3182360286806F075F80D4B2A2118602A
:100A5000206806F06FF80B4B2A211860286806F012
:100A6000EFF8296020682A2106F0EAF8216038BDF5
:100A7000A004002098040020A40400209C0400206E
:100A80001C0004402800144070B5294D294C281C36
:100A900000F088FB201C00F085FB8021FA26281C32
:100AA0008905002200F04EFB80210022201C00F06E
:100AB00049FB214C214800F0EDFD214DF601214874
:100AC00000F0E8FD321C201C0121002300F0F8FC9E
:100AD000321C0023281C022100F0F2FC201C022101
:100AE00000F0BFFD281C042100F0BBFD02214023C3
:100AF000C120154A2164800013601658134B3340FF
:100B00008026F60333431350114B124A18681060C5
:100B1000114806681660C322920002601A60201C09
:100B200000F08AFD281C042100F086FD70BDC0463F
:100B30001400C02717006066000004401400000481
:100B4000000014401500000400E100E0FFFF00FF7A
:100B500024001440A804002018000440142807D1E1
:100B6000094BA02219608021D205936B890008E00F
:100B70001A2808D1054BA02219608021D205936B59
:100B8000C9010B4393637047980400209C04002024
:100B9000142804D1A022D205916B054B05E01A2838
:100BA00005D1A022D205916B024B0B409363704795
:100BB000FFFDFFFFFFBFFFFF08B5FFF735FF02484E
:100BC000012100F052FD08BD0000044010B5094CA1
:100BD000201C00F0E7FA0021201C0A1C00F0B2FAE9
:100BE000A022D205D16B044B0B4002210B43D363EF
:100BF00010BDC046103D8027FDFDFFFF08B5002356
:100C00000E4A011C13800E4A400813800D4BC01879
:100C100005F090FFC02303229B05023818430A4BBE
:100C20000A495862DA60013A5A60C322FF209200F2
:100C30008B5883433F3803438B5008BDAE040020DC
:100C4000AC0400200024F4000000054000E100E0B6
:100C50000A4A10B513880133DBB2094909888B426F
:100C6000FBD01188074C6054BFF35F8F1380802244
:100C7000054B5201BFF35F8F1A6010BDAC0400201A
:100C8000AE040020B004002000E100E0054B1A880B
:100C9000054B1B889A42F9D1044B9B69DB00FBD5BD
:100CA0007047C046AE040020AC04002000000540A0
:100CB0000022014B5A60704700000540104A114B5A
:100CC00030B51D881488111C0F48A54214D18369C2
:100CD000DB0014D480220D4B5201DA670FE01C8830
:100CE0000A8894420BD01A88094CA45C064A146006
:100CF0001A880132D2B21A8082691202EFD530BD51
:100D0000AC040020AE0400200000054004E100E037
:100D1000B004002010B50C4C201C00F043FA8021D8
:100D2000201C8902002200F00DFAC221074B890025
:100D30005858074A02405A508022D2001A60054A89
:100D4000054B1A6010BDC0460400002F00E100E012
:100D5000FFFF00FF28420050B4060020164A38B5B5
:100D60001168164B164C0B40051C1360201C042107
:100D7000012200F091FB072280216368090593435B
:100D80006360104C2A1C201C00F052FB8022236858
:100D900092051343012223600B4B1B681A6000234A
:100DA0000A4A13800A4A13800A4A13808022236861
:100DB000D2051343236038BD34000050FBFBFFFF16
:100DC0004040005000001140B4060020B80600204A
:100DD000BA060020B0050020074A10B51388013379
:100DE000DBB2064909888B42FBD01188044C605461
:100DF000BFF35F8F138010BDBA060020B806002035
:100E0000B2050020034B1A88034B1B889A42F9D184
:100E10007047C046B8060020BA060020044B054AB9
:100E200019680A401A601968034A0A401A60704734
:100E300000001140FFFFFFBFFFFFFFDF114B1A88CB
:100E4000002A09D0104A18881168012202400A605D
:100E50001A8852081A8011E00C490D4A0888128835
:100E600090420BD00A880B48825C802052008000A0
:100E700012181A800B880133DBB20B800122064B5B
:100E80009A607047B0050020B4060020B806002024
:100E9000BA060020B205002000001140002382B0F5
:100EA0000193019B834204D2C046C046019B01339B
:100EB000F6E702B070470000A22108B5034B090114
:100EC000584305F037FEFFF7E9FF08BD1027000083
:100ED000002238B50C4B1A700C4C6568012D06D0F9
:100EE00059236360433B636072336360F4E7281CFB
:100EF00000F050F9281C00F067F9054800F014FADA
:100F00000023636038BDC046BC060020FC000050D2
:100F100080F0FA02FFB58023C505400A40029B001D
:100F2000C618031CFFB00192ED0D1F6802AC241A15
:100F3000E7500433B342F8D10023019A934205DA13
:100F400002AAAF18CA5CFA540133F6E72222104B0A
:100F5000DA60213A58601A61BFF36F8F19690C4A41
:100F60000029FBD1156840310D4200D011602121CC
:100F70002258D96058609A6001221A61BFF36F8FBE
:100F80001A69002AFCD10430B042F0D17FB0FFBD15
:100F900000C00050F8B5061C0F1C141C134B5A68F7
:100FA000012A06D059225A60433A5A6072325A6076
:100FB000F4E700F067FB002C11DD8022F305DB0D68
:100FC00019199200251C914200DDD51A301C391CDC
:100FD0002A1CFFF79FFF76197F19641BEBE700F0CF
:100FE00049FB0023014A5360F8BDC046FC00005095
:100FF0000F4B10B51A1C333332321B7812781B0298
:1010000013430C4C0C490D4A012B08D10C4B2360A7
:101010000C4B0B600C4B1360FFF7F0FD07E00B4B24
:1010200023600B4B0B600B4B1360FFF797FE10BD5B
:1010300029080020C4060020C8060020C0060020A1
:10104000510C00008D0C0000B10C0000D90D000007
:10105000050E00001D0E000008B5FFF7B7FDFFF7F5
:1010600059FE08BD012208B5024B9A6004F0F8FE53
:1010700008BDC0460000014010B5144C201C00F013
:1010800091F88021201C8900002200F05BF880216B
:10109000FA220F4C0905201CD20000F0C9F9802269
:1010A00023689205134323608023C221FF20094A4D
:1010B0005B0013608900535883437F3803435350C8
:1010C00080222368D2051343236010BD0200802EC6
:1010D0000000014000E100E0FEE7FEE7002208B565
:1010E0000A4B0B49D3188B4204D20A49895804325F
:1010F0001960F5E7084B094A934202D2002204C363
:10110000F9E700F02DFBFFF70BF808BD0000002009
:1011100058040020B882000058040020C4090020B0
:1011200010B50724064A1369A343184310610F2022
:10113000936983431943916100F0C0FA10BDC04622
:101140000002005070B5C400240F0BD0C601F60E8B
:10115000B4400E4D43009B0F5B199B001D68A543D7
:1011600029431960810AC9B200290DD00303800503
:10117000C00E8140064C9B0F1B199B001C68081C6D
:10118000211C81430A431A6070BDC04684000014CC
:1011900086000014024A1368184310607047C04666
:1011A00000020050074AC30F9B18011C1F22114068
:1011B0001E3A8A40101C10B59B001C682043186022
:1011C00010BDC04682000014044A054BDB68034092
:1011D000834202D0013A002AF7D1704791D0030030
:1011E00000020050F0B5414C85B0002805D1226ABC
:1011F0003F4B134023623F4B05E08022236A1203DA
:10120000134323623C4B01933C4BCA183C4B9A421C
:101210003BD93C4BCA183C4B9A4202D849000125A5
:1012200034E03A4BCA183A4B9A4202D88900032557
:101230002CE0002801D1374B00E0374B236204201B
:1012400003ADFFF7C1FF0422281C344905F028FE36
:10125000A022236AD2020020134244D11A0301D4EF
:10126000244800E024489A033DD4DA05D20D023226
:10127000800850431A04920F9B04A95CDB0E0233D2
:10128000594305F057FC80002DE00025081C244937
:1012900005F050FC2249071C019805F04BFC061C88
:1012A0003B1C3343DB0706D4022E04D0022F02D0AE
:1012B00076087F08F4E7236AAA031B0C1B04134378
:1012C000BA1E1343B21E520213432362226A154B05
:1012D000042013402362FFF777FF0198691C7843CD
:1012E000714305F027FC05B0F0BDC0460002005078
:1012F000FFFFF7FF0024F40000805101FF1E0AFAEF
:10130000FFE0F5057F0F05FD7FF0FA02C08782FE42
:1013100040787D012EC200006FD60000BC7700002F
:1013200040420F00FFFFFAFF0D4B10B5011E99421E
:1013300004D80C4B984202D80B4900E0191C0B4B07
:1013400000201B68DB0701D480200003FFF74AFF61
:10135000041C00210220FFF7E3FE201C10BDC04644
:1013600080F0FA023F787D0140787D010002005054
:1013700030B5064C0648256A284002430A43FF213F
:101380002262626A8A431343636230BD00000E40EA
:10139000F3FBFFFFCB0704D50220094A136A03437E
:1013A00013620220014203D0054A936A0343936209
:1013B0004B0704D50221024AD36A0B43D36270471C
:1013C00000000E4070B588B06946134B6A4670CB7A
:1013D00070C170CB70C130CB30C11049104B884206
:1013E00002D15B695B050CE00E49884202D15B6962
:1013F0005B0406E00C495B69884201D15B0300E0B5
:101400005B025B0F022B02D1084B186801E09B00C6
:10141000D05808B070BDC046C07700000000014041
:101420000002005020000140000011400400002094
:10143000F7B5061C0191171CFFF7C4FF4508AF4222
:1014400018D8124B984202D9C50807240BE0104B5C
:10145000984202D98508032405E00E4B01249842E6
:1014600001D8051C0024391C281C05F063FB011C55
:10147000281C01E000240221019B23430134336036
:101480007160614305F056FBFEBDC046FFFFFF03E0
:10149000FFFFFF01FFFFFF0070B500240123A34001
:1014A000194209D0032663009E400568B543161C07
:1014B0009E40331C2B4303600134082CEED170BDD9
:1014C000F0B59DB00593574B07AF9C4600923B1C6F
:1014D0006246041C0D1C43CA43C3614612681031A6
:1014E0001A600BA8442205F0DBFC4F4A4F4B022048
:1014F000944208D1C02189050A1C284082405B69BA
:101500001C301A4006E030210A1C28408240DB696A
:1015100004301A40131CC340022B0FD100F0CEF848
:10152000434B1B6802930099029805F003FBFF23CD
:101530000193FE3B071C0526009302E09B00FB582D
:10154000F0E7381C009905F0F5FA80235B04984217
:1015500015D8384BC3181B0CDBB2191C022B00D258
:101560000221CBB2191C019305F0E4FA80235B023F
:10157000984204D8071E012F09D087B207E0009BCC
:10158000013E5900CBB20093002EDAD1294F7B1EC9
:101590009BB20393009B9A000BABD658236804932D
:1015A0006B089C46D800019B591EFF231A1C8240E1
:1015B000C9B28140101C049A334082430720114372
:1015C0002160A90088408B406268614682431343D2
:1015D0008022D2058A406360A368E9009343A36038
:1015E00008238B40A268261C1343A3600C235D4391
:1015F000039B6421581C059B0C344343181C05F0C5
:1016000099FA1036039BAE1901382D1930600099F4
:101610002B60019B02985943794305F08BFA1DB06A
:10162000F0BDC046E077000000000440000200501A
:1016300004000020FFFF000001230B408A0702D5B1
:101640008022520013434A0702D5802252021343DC
:101650000A0702D580225204134382681343836031
:101660007047C36F1943C167704701238B404364C0
:10167000704700000121024A13688B4313607047D2
:1016800000C000500121024A13680B4313607047E9
:1016900000C00050030E084A9B009B180122000264
:1016A000000A82401968101C0A1C02431A601A685A
:1016B00082431A607047C04608000050072373B584
:1016C0001D4D01AE2C690422301C1C491C4005F044
:1016D000E7FBA0222B6AD2020020134215D11A0385
:1016E00001D4174800E017489A030ED4DA05D20D4A
:1016F0000232800850431A04920F9B04B15CDB0E47
:101700000233594305F016FA80000F4B1860022C83
:1017100002D00E4BA400E0580F23A96919400131F3
:1017200005F008FA0A4B0B4918600B4BC01805F07E
:1017300001FA0A4B186073BD0002005034780000B3
:101740000024F400008051010800002038780000D7
:101750000400002040420F0020A1070000000020EC
:101760007047000072B6034B18780130C0B2187091
:101770007047C046BC060020044A1378013BDBB228
:101780001370002B00D162B67047C046BC06002023
:10179000014B4000185A70471E070020014B4000C3
:1017A000185A70474407002010B5041CFFF7DAFFF1
:1017B000034B6400E45AA4B2FFF7DEFF201C10BD07
:1017C000E8070020014B1878C0B27047E0070020FE
:1017D000014B18887047C046CC060020014B188882
:1017E0007047C0461C070020014B18887047C04650
:1017F00016070020014B4000185A70478E07002042
:1018000010B5102901D8012A06D900230122C3707E
:1018100082700270437014E0490051180231094A85
:10182000890089188B788C1CC978A2780902194321
:10183000E37801701B021343090A83701B0A41708D
:10184000C37010BD00F0010008B510280CD80129A4
:101850000AD8400008180230044B8000C018111C40
:1018600002300422FFF796FB08BDC04600F00100DD
:1018700073B50024144D2B1FDA78997812020A43AD
:1018800019785B7801AE1B020B43201C728000218B
:10189000321C3380FFF7D8FFEB78AA781B02134382
:1018A0006A78297812020A43201C0134328001210F
:1018B000321CE4B273800835FFF7C6FF112CDAD171
:1018C000012000F0D5FB73BDDC720000034B588D86
:1018D000133843425841C0B27047C0464407002005
:1018E000014B188D7047C04644070020014B988C6F
:1018F0007047C04644070020014BD88D7047C04652
:101900004407002008B5064B00201A8D022A05D98D
:10191000DB8D022B02D9033001F010FA08BDC0465E
:101920008E07002008B5FFF71DFF0023002207499E
:10193000980001334250112BF8D16421044B1980D7
:10194000044B1A70FFF718FF08BDC046D0060020F0
:1019500040070020D807002008B5FFF703FF002349
:10196000074A1380074A1360074A1360074A136047
:1019700004F093FA064B1880FFF7FEFE08BDC04640
:10198000420700200C080020DC070020E4070020AC
:101990001407002008B5FFF7DFFF0023024A138079
:1019A000024A138008BDC046160700201C0700200D
:1019B00000230021024A995202334A2BF9D1704781
:1019C0008E07002008B5FFF7CDFE0123044A1380DF
:1019D000044A1370FFF7ECFFFFF7CEFE08BDC046C8
:1019E00040070020D807002038B5FFF7EBFF054B74
:1019F0001C1C1D882388AB4203D10A2004F06CFA1A
:101A0000F8E738BDCC060020002008B5024B18705E
:101A1000FEF758FC08BDC046E007002010B50120C5
:101A2000FFF7C2FE041C0020FFF7BEFE0022844226
:101A300001D9201A82B2FA239B009342804140428E
:101A400010BD002273B591421BD0041C01AE0D1CC9
:101A50006846211CFFF7D4FE211C0122301CFFF731
:101A6000CFFE6B4670885C88198833886D1A001B1E
:101A7000591A684305F0EEF80019C343DB17184004
:101A800082B2101C76BD002273B591421BD0041C9B
:101A900001AE0D1C6846211CFFF7B2FE211C01227D
:101AA000301CFFF7ADFE6B4630881C885988738860
:101AB0006D1A001B591A684305F0CCF80019C3438E
:101AC000DB17184082B2101C76BD0000831EDBB20B
:101AD0000120182B01D8014AD05C704758780000CB
:101AE00010B50D4B132805D1588D1338434258417A
:101AF000C0B210E042009C5AFFF7E8FF002804D073
:101B0000012807D19620800000E03220A0428041C9
:101B1000404200E0012010BD4407002010B5002421
:101B2000201C1F30C0B2FFF7DBFF002803D00134B8
:101B3000E4B2062CF4D1201C10BD000038B5041C02
:101B40000D1CFFF7C3FF044B6400011C6AB2E05A8E
:101B500004F0BAFC38BDC0464407002010B5FFF7BA
:101B600001FE054B1C68FFF707FE201C7D2104F0D9
:101B7000E1FF000A80B210BD18070020034A044BA1
:101B80001168DB8D5B1813607047C0461807002092
:101B900044070020044A1388002B03D01388013B1C
:101BA0009BB213807047C04640070020094A40009E
:101BB000835A10B58B4201D95B1A00E0CB1A9BB255
:101BC000054C062B01D9002301E0235A013323528F
:101BD000115210BD440700208E07002010B50024CC
:101BE000FFF7C0FD0C4B1C60FFF7C6FDFFF7EAFED8
:101BF000FFF7D0FE211C1920FFF7D8FF211C1B2066
:101C0000FFF7D4FF211C1C20FFF7D0FF1D20211C53
:101C1000FFF7CCFF10BDC0461807002010B5002408
:101C2000054B1C80FFF7DAFF231C0021034A995261
:101C300002334A2BF9D110BDCC0600204407002006
:101C400010B5074C2378002B08D10120FEF73AFB92
:101C5000FFF7E4FF01232370FFF7C6FE10BDC04667
:101C6000E007002008B5FFF7D9FF08BDF8B52C4BF9
:101C70001C8804F012F92B4B001B80B298424ED9FD
:101C8000FFF770FD284B1C88284B5C43284B240928
:101C90001F68284B1D68284B1E68FFF76DFDFFF776
:101CA0005BFE264A281C1388211C0133138004F094
:101CB00041FF211C051C381C04F03CFF81B20020B0
:101CC000FFF7BFFEA9B2071C0120FFF7BAFE0025EF
:101CD000874201D93D1AADB2194B1F8FBD4203D3C4
:101CE0001C20291CFFF762FFE91B89B21B20FFF7AC
:101CF0005DFF211C301C04F01DFF81B20720FFF79F
:101D0000A0FE104B19881880411A89B2490089B287
:101D10001D20FFF74BFFA1B21E20FFF747FFF8BDC4
:101D2000140700203075000042070020581B0000F7
:101D30000C080020DC070020E40700201607002024
:101D4000440700201C070020F7B5464D00242B88CF
:101D50006888984201D21C1AA4B21220211CFFF7F5
:101D600025FF288A6A8AAB8A0021824201D9101A8B
:101D700081B20026934201D99B1A9EB21F20FFF721
:101D800015FF311C2020FFF711FF0026301C7300C7
:101D9000EB182130C0B2D98A0136FFF707FF042EB5
:101DA000F4D1FFF7BBFE0023071C1E1C834209D0A1
:101DB0001A1C1F32D2B25200AA5A0133B618B6B258
:101DC000DBB2F3E71320311CFFF7F0FE002E0BD03F
:101DD000A31BB44200D8331B234A9BB2934207D8BB
:101DE0001323341C019306E01223371C019302E0F5
:101DF0001223002701931420211CFFF7D7FEB9B24C
:101E00001620FFF7D3FE6B4615209988FFF7CEFE0C
:101E1000FFF7A4FE071C01F0F9F9061E01D0EE88B9
:101E200004E001F0EFFF002800D0AE88311C17203D
:101E3000FFF7BCFE391C1920FFF7B8FE301C0B4918
:101E4000604304F077FE81B21820FFF7AFFE201C3C
:101E50000649784304F06EFE81B21A20FFF7A6FE11
:101E6000F7BDC04644070020B80B00001027000053
:101E700070B5FFF777FC214B1C88A4B2FFF77CFC00
:101E8000002C39D11E4B1C78E4B2002C32D11D4AF3
:101E90001D4D1388013313801C4A2B6811681B09E0
:101EA0005B1813601A4A6B6811681B095B18136092
:101EB000184AEB6911681B095B181360164A1388EE
:101EC00001331380FFF7D2FEA300E858134904F052
:101ED00031FE134B81B26200E6B2D152301CFFF7E3
:101EE000B0FD0134011C301CFFF760FE112CEBD15A
:101EF000FFF72AFFFFF716FD70BDC0464007002020
:101F0000D8070020CC060020D00600200C080020B6
:101F1000DC070020E407002042070020581B0000D7
:101F20001E07002008B5034B1B78002B01D0FFF7DC
:101F30009FFF08BDE007002008B50748002102F018
:101F4000B2FD002806DB02D102F0D0FD02E001382C
:101F500002F014FF08BDC0461008002008B5FEF7C7
:101F6000E7F9FEF7B5FFFEF791F9FFF785F801F005
:101F7000E3FF01F0D5F9FFF775FEFFF76DF800F00C
:101F80002DFA03F0A8FA03F083FB00F018F908BD5E
:101F900008B5FFF7E3FFFFF7CFFFFCE710B5054CEF
:101FA0000549201C03F064F9044B2360A3791E3318
:101FB000A37110BD10080020887800008078000010
:101FC00008B583791E3BDBB2994202D203F04AF98D
:101FD00005E0C81A00F040FC0E2104F003F908BD2A
:101FE00073B56B469D1D061C2980002A03D0291C51
:101FF0000222FEF7CFFF0524013CE4B2002C07D0FB
:1020000032882B889A4205D0642003F059FFF3E709
:10201000012000E0002076BD70B5041C0C4B221A94
:1020200092B28A4211D222785340082201265D10D2
:102030001E40ABB2002E02D0064B5D40ABB2013A5F
:10204000D2B2002AF2D10134E9E7181C70BDC046B3
:10205000FFFF000001A0FFFF70B5051C0C1C161C43
:10206000FFF7DAFF321C011C2819FFF7B9FF70BD1A
:1020700008B5021C024888210A30FFF7EDFF08BDB1
:1020800000F00100C32108B5021C03488900943008
:10209000FFF7E2FF08BDC04600F0010008B5021CD2
:1020A000034B04483A21C018FFF7D6FF08BDC046CD
:1020B000A203000000F00100F7B5071C01242C4D1D
:1020C00027402C493A1C061C281CFFF789FF2A4987
:1020D00001903A1CA81CFFF783FF002800D1019C47
:1020E000B207281DD20F0921FFF77AFF002802D07E
:1020F00002231C43E4B27207A81DD20F0221FFF78E
:102100006FFF002802D004231C43E4B2281C3207CE
:102110000830D20F0721FFF763FF002802D0082301
:102120001C43E4B2F30601D5FFF7A2FB0020FFF742
:102130009FFF002802D010231C43E4B2B30601D550
:1021400000F048FC0020FFF79DFF002802D020236C
:102150001C43E4B2730601D500F06EF90020FFF7CE
:102160009DFF002802D040231C43E4B2201CFEBD8A
:1021700000F00100636800006C69000038B5041CC1
:1021800003F044FA051E18D00223E20700D51C43D1
:102190001C4201D014231C43630701D528231C4390
:1021A000230701D540231C4303F04CFA201CFFF702
:1021B00083FF011C201C03F04DFA281C38BD08B514
:1021C0000020FFF779FF0123002802D0FFF7D6FF98
:1021D000031C181C08BD08B50020FFF76DFF012384
:1021E0001843C0B2FFF7CAFF08BD000038B501258B
:1021F00003F060F90A4B0B4A0B4C1A600B4B0C486E
:102200001D700023237000F0EAF9022800D1257028
:1022100000F06EFF013843425841C0B238BDC0469D
:10222000A4080020047A0000A10800209F080020D4
:1022300063080020012008B5011C00F09DFE024A41
:10224000024B1A6008BDC0461C7A0000A40800209A
:10225000012008B5011C00F08FFE024A024B1A60F3
:1022600008BDC046347A0000A408002008B502204A
:10227000002100F081FE024A024B1A6008BDC046F0
:10228000F8790000A408002010B50024194B1A4A60
:102290009B7E1370194B1C70072823D804F040FC58
:1022A000040C1113161B191F154800F098F900288B
:1022B00004D1FFF7CDFF19E001221A70FFF7BAFF32
:1022C00014E0104A08E0FFF7D1FF0FE00523137078
:1022D000F4E701221A700C4A0C4B1A6006E000F079
:1022E000EFFB05E003F03EF9201C01E000F000FFE9
:1022F00010BDC04629080020A0080020A108002029
:1023000063080020EC790000287A0000A40800206F
:1023100070B5051C02F0FCF9002825D0134C144BB5
:10232000257000251D600323124E337004F0B8FAA7
:10233000FFF786FCFFF75AFFA8420FD00123337046
:1023400001F0BEF903F0B6F80B4B04201D7003F04A
:102350007FFC2078FFF798FF01F0F6F9FFF754FBB8
:1023600004F0B6FA03F0B6F870BDC04628080020A5
:1023700024080020200800209F080020031C313082
:1023800030331A7803781B021343024A9B00D0585B
:102390007047C046D478000008B502493A2204F0DC
:1023A0007FFD08BD98780000437D027D1B0213432A
:1023B000052B03D90523037500234375704710B51A
:1023C000041C01F062F9E079A37900021843431E6E
:1023D0009841C0B2FDF7FBFF10BD000030B53A25B3
:1023E000094B0A4991B0C9182A1C01A804F058FDEC
:1023F000074C01A92A1C201C04F052FD201CFFF7E9
:10240000DEFF11B030BDC046A203000000F00100A5
:102410002908002010B5064C3A22211C0548FEF779
:10242000B9FD0120FFF73AFE201CFFF7C8FF10BDE1
:1024300029080020A2F3010008B50348FFF7ACFF0C
:10244000FFF7E8FF08BDC0462908002010B5041CAE
:1024500094B0211C01A802F0D5FC01A802F0EAFC0E
:1024600016213A226944201C04F01AFDFFF7D2FF1E
:10247000201CFFF7A4FF14B010BD07B5011C0422F7
:1024800001A804F00DFD019B984707BD37B5011C5D
:10249000002401A804220D1D04F002FD019B002B65
:1024A00003D00134E4B2291CF3E7201C3EBD70B513
:1024B000041C05200E1C151CFFF770F9031EB34207
:1024C00003D200230120237004E00020AB4201D995
:1024D0000130207070BD01230138C0B2FF2803D045
:1024E0000A2253439BB2F7E7181C704701230028C8
:1024F00000DAFE3358B2704710B5002800D1013021
:10250000002401340A21E4B204F014FB0028F8D1BD
:10251000201C10BD08B5FFF7EFFF08BD0388591850
:1025200002D50023038004E0914201DD028000E037
:102530000180704703885918002902DC01230380B9
:1025400004E0914201DD028000E001807047F7B5B0
:102550001C1C058808AB1B78061C281C0F1C00924D
:102560000193FFF7C9FF002C07D10134A04204D921
:102570000238C0B2FFF7AFFF04B2281C211C04F0E0
:102580004FFC88B2002806D0002F02DD241A24B2A6
:1025900003E00CB208E0002F06DD009B00981B1B37
:1025A0002C199D4207DB07E06A46019B90881B19A6
:1025B0009D4201DD2C1BA0B23080F7BD642307B51E
:1025C00000930023FFF7C3FF07BD08B503F0C2FC6B
:1025D0000028FBD103F0BEFC0028FBD008BD4378E7
:1025E00002781B0213430320092B09D01A1F01385C
:1025F000042A05D9013B01389BB298429B415842BD
:10260000704738B5051C0C1C92B203F045FD281C20
:10261000211C3A2203F00CFD38BD0000031C73B5E9
:102620000C3301936B46051CDC1C0E2323706B7866
:1026300000781B02144A03439B00D65801A8CAB273
:10264000211CFFF7DEFF321C01A8211C03F002FD54
:1026500001A8211C202203F0EBFCEA78AB781202DF
:102660001A4301A8211C03F017FD01A8211C2F22E9
:1026700003F0DEFC6A7A2B7A12021A4301A8211CAD
:1026800003F00AFD73BDC0466079000007B56B46D4
:102690000A1CD91C0E230C300190D2B201A80B7079
:1026A000FFF7AFFF07BD000010B51A2460430749CC
:1026B00088B00918221C943101A804F0F1FB01A98B
:1026C000221C034804F0ECFB08B010BD00F0010030
:1026D000630800201A22504308B5034B0349181819
:1026E0009430FEF757FC08BD00F00100630800209D
:1026F000437802781B02134305225343C918024B47
:102700004900585A7047C0468879000043780278DB
:102710001B02134305225343C918054B49005A5A5B
:10272000037A407A00021843504380B27047C04693
:102730008879000008B58278C07809490002031C36
:10274000C87F13438A7F000210435843642104F07A
:10275000F1F9044B984200D9181C80B208BDC0465C
:1027600029080020E8FD00004278037812021A438D
:10277000012A03D1094B1A7C5B7C05E00023022A65
:1027800004D1064B9A7BDB7B1B021343027A407A0F
:1027900000021043434318B27047C0462908002086
:1027A0000C2208B541780378090219435143024BC2
:1027B000591804F075FB08BDE878000008B50178E9
:1027C000014803F0F6FC08BD6079000010B54178BF
:1027D00003780902041C194305D1FFF797FF07216D
:1027E00003F0BFFE11E00021FFF790FF052103F089
:1027F000B8FE2F2003F084FC607A237A000218438D
:1028000003F0B6FC432003F07BFC10BD08B5037950
:10281000407906210002184303F09DFE08BD08B56B
:102820008379C07906210002184303F094FE08BDA5
:1028300008B58378C07800021843054B984203D14D
:10284000044803F0A5FC02E0072103F07EFE08BD6A
:10285000E8FD0000548200001A235843014B181869
:10286000A030704700F0010010B5041C8CB00A1CA9
:102870006846211C02F086F9684602F0DDF9122153
:10288000201C69441A2204F00BFB0CB010BD08B5E3
:10289000437802781B021343CB189BB2092B02D852
:1028A00003701B0A06E00023994201DD037001E07A
:1028B000092202704370FFF773FF08BD08B50221BB
:1028C000FFF724FF011C044804F034F9034B98423D
:1028D00000D9181C80B208BD80F0FA0288130000ED
:1028E00008B50221FFF712FF011C054804F022F988
:1028F000FA239B00984200D9181C80B208BDC0463C
:10290000404B4C0038B50D1C041CFFF7D7FF291CA9
:10291000021C201DFFF752FE38BD38B50D1C041CEB
:10292000FFF7DEFF291C021CA01DFFF747FE38BD84
:1029300008B5437802781B0213430A225343044A22
:102940000448D318598804F085F980B208BDC04600
:1029500088790000D462000037B5051C0C1CFFF715
:10296000E7FF6B7829781B020B4359424B41322118
:10297000021C281C5B420B40313900910830211C9D
:10298000FFF7E5FD37BD10B5041CFFF7D1FF637AF3
:10299000227A1B021343834202D92072000A60721A
:1029A000201CFFF78BFF637922791B0213438342BC
:1029B00002D92071000A6071201CFFF791FFE379B2
:1029C000A2791B021343834202D9A071000AE0716D
:1029D00010BD000070B50D490D4C48310C22201C73
:1029E00004F05EFA201CFFF7CEFF00256E1C201CB1
:1029F000311CFFF74BFE281CFFF76CFE351E1E2D09
:102A0000F4D10120FFF73EFB70BDC046E87800001E
:102A100063080020642373B5041C00930230002374
:102A20000C4AFFF794FDE578A3782D021D432E0A8A
:102A300025716671201CFFF7D2FD012803D1AB0878
:102A400023711B0A6371A571E671201CFFF79BFFC0
:102A500073BDC046E8FD000008B5837AC07A000265
:102A60001843FA239B00984201D1044803E0032154
:102A700003F002FD024803F08BFB08BD5482000006
:102A80009682000007B50123FA2200930A309200D3
:102A90000023FFF75CFD07BD08B5064AD07D937D96
:102AA0000002184300F01CFD034A044B1A6000F0BA
:102AB0001FFB08BD29080020107A0000A408002090
:102AC00038B50123134D144C2B7000232370134B86
:102AD00021781A7D5B7D1B0213435B00013B994209
:102AE00001D100232B700020CB0700D40330FFF767
:102AF000CBFB01280DD12B78002B0AD02378013392
:102B0000237000F0C3FDFFF769F8FFF7C5FF012848
:102B1000DDD038BD9F0800207D0800202908002056
:102B200010B50A4B01201C78002C0DD1FEF74AFE8F
:102B3000002809D0FEF74CFE054B1B88C01A022363
:102B400080B283426441E0B210BDC0469E080020BE
:102B50008A08002008B51F30C0B2FEF71FFE08BD6E
:102B600070B50024251C084E084B1B78A34209D9D8
:102B7000201CFFF7EFFF864201D9061C251C0134FB
:102B8000E4B2F1E7281C70BDFFFF00009A080020A6
:102B900038B50C4B1B78002B02D1FFF7DBFF0FE0A1
:102BA000094B0A4D1B784400002B08D0FFF7D2FFD9
:102BB000074A2B5B125B9B1AC01880B200E0285BAF
:102BC00038BDC0469E0800209B0800207E080020DB
:102BD0008E08002070B500252C1C114E114B1B785F
:102BE0009D420EDAE8B2FFF7D3FF83B2021CA34284
:102BF00000D2221C94B2B34200D9301C86B20135F7
:102C0000ECE7094BA41B1A1C2B332A321B781278D1
:102C10001B02134301209C4200DC0020C0B270BDA7
:102C2000FFFF00009A0800202908002038B50B4B50
:102C3000051C1A781C1C002A05D0002803D1FEF7B9
:102C4000C7FD074B18802570FEF7B2FE054B1B78B9
:102C5000002B02D1281CFDF745FB38BD9E08002043
:102C60008A0800209C08002038B50120FDF70CFBE5
:102C70001620FEF793FD0F4B00241D1C18702B78B7
:102C80009C4209DAE0B2FFF765FF0B4A63009852F5
:102C90000A4A01349852F2E70024094B201C1C70A8
:102CA000084B1C70FFF7C2FFFF22074B1C80074B2D
:102CB0001A7038BD9A0800208E0800207E08002077
:102CC0009E0800209C0800208A0800209D08002003
:102CD00008B50020FFF7AAFF0122014B1A7008BDBA
:102CE0009C08002008B5FFF7F3FF0020FDF7CCFAA1
:102CF00008BD00000020F8B50E4B1B785AB2824286
:102D000016DBD8B2FFF744FF0024071C0126251C60
:102D1000094B1B78A3420AD9201CFFF739FFB842A0
:102D200000D9354376000134F6B2E4B2F0E7281C4E
:102D3000F8BDC0469D0800209A08002038B5051C43
:102D40000024094B1B78A34209D9201C1F30C0B2B4
:102D5000FEF750FDA84204D30134E4B2F1E70120AC
:102D600000E0002038BDC0469A080020F8B50620D3
:102D7000FFF7E4FF00283BD0FEF7C4FD002837D062
:102D80001C4C23787F2B02D9FFF7EAFE20702078B5
:102D9000FFF7E0FE0221061C1748FFF7A9FC0024FC
:102DA000071C0125154B1B789C4211DAE0B2FFF796
:102DB000D1FEB8420BD3002386425B41104A5B42EE
:102DC0001D40630098520F4A01349852EAE70125EA
:102DD00000220D4B1A7003F06AF80C4B1880002D7E
:102DE00002D0FFF775FF03E0FFF784FFFFF71EFF38
:102DF000F8BDC0469D080020630800209A08002006
:102E00007E0800208E0800209B0800208C080020EF
:102E10000A4B10B51C78002C0ED101221A70084BF9
:102E20001B78A34208D9201CFFF794FE054B6200D3
:102E30000134D052E4B2F2E710BDC0469B08002036
:102E40009A0800208E080020034B10B51C8803F060
:102E50002EF8001B80B210BD8C08002008B50E4B68
:102E60001B78002B02D1FFF781FF08E0FFF7D0FFAE
:102E7000FFF7EAFF0F2802D90020FFF7D7FEFFF780
:102E80004FFE031C0220002B04D1044B1878434250
:102E90005841013008BDC0469E0800209C08002013
:102EA00038B5051C0024084B1B78A34207D9201C09
:102EB000FFF76EFEA84204D20134E4B2F3E700202B
:102EC00000E0012038BDC0469A08002038B5051C36
:102ED0000024084B1B78A34207D9201CFFF758FE9B
:102EE000A84204D90134E4B2F3E7002000E0012055
:102EF00038BDC0469A08002008B5054B1978002354
:102F0000994202D003F0A6FE83B2181C08BDC04649
:102F10009A08002008B500F0DDFF0120011C00F038
:102F20002BF8012000F074FD024B188800F0AEFF72
:102F300008BDC046AC08002008B5012000F0E2FF43
:102F400008BD08B5FEF7DEFC002803D000F070FFD6
:102F500000F0F8FD08BD0000054B1A7F5B7F1B02E7
:102F60001343021C984200D21A1C024B1A8070476D
:102F700029080020AC080020F7B5071C224C01915D
:102F8000201C391CFFF7C2FB204D019B2880204EDE
:102F9000002B0CD0637922791B0213433380012F5D
:102FA00011D1201CFFF71BFB022815D00BE0E379A1
:102FB000A2791B0213433380022F04D1201CFFF798
:102FC0000EFB02280DD0134B3088197803F042FE17
:102FD00080B2FFF7C1FFF7BD0F4BDA1CD17F04337E
:102FE00003E00D4B5A1DD17F0633DB7F1B020B43E1
:102FF0001B041A14637A217A1B020B4353432A8859
:103000009B182B80DFE7C04663080020AA08002039
:10301000A8080020A00800202908002008B5024BBD
:103020001868FFF72AFA08BDA408002008B5034B6A
:1030300018680430FFF721FA08BDC046A408002034
:1030400008B5FFF7F3FF00F07FFB02F0E9FF08BDD2
:1030500010B502F02CFF041C02F029FF001B80B207
:10306000B42801D9FEF7D0FC02F074FF0028F3D099
:10307000082002F0EDFD10BD08B5FFF7E1FF02F0FA
:1030800059FA052002F0E4FDFFF7E2FF08BD08B59C
:10309000FFF7D6FFFEF7B8FC02F054FA062002F064
:1030A000D7FDFFF7D5FF08BD07B5054B042219680A
:1030B00001A8083103F0F4FE019B98470EBDC046FD
:1030C000A408002038B5051E03D1FFF7E0FF2C1C33
:1030D0000AE00124A04207D1044B1C78002C02D145
:1030E000FFF7CAFF00E00024201C38BD9F08002025
:1030F000F8B50026174F02253E700124FFF78EFF1A
:1031000002F028FF387002F055FA002C0CD000F0C5
:1031100045FB051CFFF7D6FF041E05D0FEF758FB44
:10312000864209D1002C03D10B4B1C78002C0DD109
:103130003B78012BE4D109E0FEF74AFB061CFFF7C0
:10314000B3FF051CFFF7BEFF041CEBE7FFF76EFFA4
:10315000281CF8BD7A0900209F08002008B501202E
:1031600000F0CCF8FFF7BEFD08BD000008B500F088
:10317000B5F8FFF779FD074B0020DA1D0833DB7F38
:10318000D27F1B0213435A1E9341034A137000F06F
:103190003FFC08BD29080020AE08002038B50A4BC6
:1031A0001D88281CFFF7A8FEFFF790FE041CFFF700
:1031B000B7FC002806D1002C04D1FEF791FB854214
:1031C0006441E4B2201C38BDAA08002038B5FFF7DE
:1031D000E5FF041C00F030F80B4B051C1B78201C8D
:1031E000002B02D0291C00F057FC002804D001203D
:1031F00000F084F8012006E0291C201C00F04AFDA4
:1032000000F056F8022038BDAE080020024B1878B6
:1032100043425841C0B27047B2080020024B1888A0
:10322000431E9841C0B27047B4080020014B188873
:103230007047C046B4080020014B18887047C0464C
:10324000B008002013B50F4A1379527912021A43BD
:10325000111C6B46F539DC1DFF3989B2201CFFF7C4
:1032600026F90020237883420BD1FEF73FFB011C97
:10327000054803F05FFCFA239B00984200D9181C14
:1032800080B216BD29080020404B4C00064A08B504
:10329000031C904200D9131C044A98B21380FDF716
:1032A000B1F9FEF78FFB08BDF87F0000B4080020DD
:1032B00010B5041CFFF7C6FF031CA04200D9231C55
:1032C000054A99B21088884205D010201380FEF775
:1032D000DAFBFFF7DBFF10BDB008002010B5064C8D
:1032E0002378002B07D00020FFF7D0FF0120FDF747
:1032F00011F90023237010BDB208002070B5074DEE
:10330000061C2C78002C08D1002806D0201CFFF7C2
:10331000BDFF201CFDF7FEF82E7070BDB208002026
:1033200008B50020FFF7B2FF0120FFF7E7FF08BD57
:10333000072208B5044B1A70053A5A7002F080FC57
:103340000322024B1A7008BD78090020B60800203D
:10335000F8B51220FEF7C4FB01253F4B68401C78EE
:10336000C5B2002C0FD0FEF7D9FB3C4B1B7A1E1ABE
:10337000721E964144424441F6B2E4B2012B03D19D
:10338000002C01D00024261CFEF7A0FA002811D042
:103390001220FEF703FA071C1320FEF7FFF98742FD
:1033A00001D9381A00E0C01BFA2380B25B009842B2
:1033B00000D901252A4B0722002E00D003221A70C3
:1033C000002C02D01A78023A1A70002D02D01A7816
:1033D000013A1A70002E03D1002C01D1002D05D026
:1033E000012002F035FC002C06D103E0082002F099
:1033F0002FFC0BE0002E09D01A4B01241A1C293394
:1034000028321B7812781B02134300D10024134B7F
:103410001A785B781B02134305D1134B1B785A1E95
:1034200093415B421D4002F065FD104E002800D123
:103430003070002C08D1002D06D102F05BFD082869
:1034400002D13378013333703378023B5842434121
:103450000220C01AF8BDC046A10800206308002061
:10346000780900202908002028080020B60800203C
:10347000FF2208B5024B08201A7002F0E9FB08BDD4
:10348000780900200022014B1A707047BC08002008
:1034900008B502F00CFD014B188008BDBA080020E9
:1034A000094B10B51C8802F002FD084A031B118865
:1034B0009BB2074A0120994202D31070001801E024
:1034C0000023137010BDC046BA080020B8080020C1
:1034D000BC080020014B18787047C046BC0800208B
:1034E0003C235843014B18807047C046B808002061
:1034F00008B5FFF7B9FB00F0EDFC012000F088FAF9
:1035000008BD08B5012000F0FDFCFFF7EBFB08BD8E
:1035100038B50A4B1D88281CFFF7EEFCFFF7C0FCEE
:10352000041CFFF7FDFA002806D1002C04D1FEF799
:10353000D7F9A8426441E4B2201C38BDAA08002093
:1035400038B5FFF7E5FF051C00F072FC041C281CD1
:10355000211C00F0A1FA002804D0012000F0D2FCC8
:10356000012006E0211C281C00F094FB00F08EFCDA
:10357000022038BD064B10B51C88064B1B78002B6B
:1035800003D002F094FC041BA4B2201C10BDC04662
:10359000D0080020CC080020FA2108B5034B890090
:1035A000186803F0C7FA80B208BDC046C8080020FA
:1035B000FA2108B5034B8900186803F0BBFA80B202
:1035C00008BDC046C008002070B5134C0121201C66
:1035D000FFF79CF80421051C201CFFF797F8061C38
:1035E0001420FEF7DBF86323A84213D20023B04275
:1035F00010D9801B84B2A81B642180B203F09AFA10
:1036000081B2201C03F096FA80B2031C632800D913
:103610006323DBB2181C70BD6308002038B5FFF7C8
:10362000D3FF0A4B1A7882420ED2094D18702C88AB
:10363000FFF7A0FF041BFFF79DFF064BA4B21A88FB
:103640002880A24200D21C8038BDC046C708002096
:10365000C4080020D208002008B5FFF7DFFF074BA1
:103660001A786923002A00D1053B054A1078054ADB
:103670001B1A1088434398B208BDC046C6080020F4
:10368000C7080020D20800207047704708B5FFF730
:103690009BFF064B064A187000231380054A1380CF
:1036A000054A1360054A136008BDC046C7080020DC
:1036B000C4080020D2080020C8080020C00800204C
:1036C000962110B589000020FEF7DDF9154B012188
:1036D00018801548FFF71AF8144BC018144B80B225
:1036E000041C984200D91C1CA4B2201CFCF7EAFE62
:1036F0000020211CFEF7C7F90E4A0F4B904201D85B
:10370000188000E01A80FEF7E1F80C4B187002F008
:10371000CEFB0B4B1880FFF7B9FF0122094B1A7043
:1037200010BDC046CE08002063080020B80B000082
:10373000D4620000F87F0000BE080020C608002008
:10374000D0080020CC08002008B5FFF713FF0022A6
:10375000024B1880024B1A7008BDC046D0080020EA
:10376000CC08002008B500F055FB00280CD1FFF76D
:1037700055FD002808D1FFF7D3F9002809D0054AE4
:1037800013687033136004E0034A136870331360E6
:10379000F1E708BDC8080020C00800203C4B70B508
:1037A0001B78002B01D1022070E00520FDF7F6FF09
:1037B000384C637922791B021343F533FF33364AC1
:1037C00098420FDC0020FDF7EFFF344B1B8883424B
:1037D00007D9334B1B88834208D9FFF717FD002810
:1037E00004D0304A304B00201A604FE02F4B1D7838
:1037F000FEF76CF82E4A8542F4D12E4B1D88FA2331
:103800009B00ED18FEF778F8ADB22B4A8542E9D35C
:103810000620FDF7C3FF631CDA7FA31CDB7F1B02BE
:103820001343264A9842DDD31920FDF7B7FF244DF4
:10383000061C281CFEF77EFF224B984202D0224A2B
:10384000B0420FD9AB7AED7A2D021D431F4B9D423A
:103850000CD81F4B1F49186803F06CF980B28542E1
:1038600004D81D4A104B01201A600FE0E379A279B9
:103870001B02134397D00720FDF790FF637A227A4B
:103880001B021343154A83428DD2ABE770BDC0467D
:10389000CC0800202908002030810000BE0800204C
:1038A000CE080020E280000024080020C608002086
:1038B00076800000A808002013820000BE7E000071
:1038C00063080020E8FD000003800000E70300001B
:1038D000C008002060EA000093810000A97F00007A
:1038E00008B5FFF70EFEFFF739FCFFF7FBF908BD3F
:1038F000114A38B51378151C002B04D0012B08D1C0
:10390000FFF764FC01E0FFF71BFE041E012C10D141
:1039100007E0FFF7A3FA041E022C0AD0FFF7E0FF2E
:1039200007E0064B1B78002B03D001342C70FFF707
:103930009BF9201C38BDC046D4080020A1080020F7
:1039400038B5FFF791F903200121FFF715FB114B63
:103950001D88114B1C78002C05D1FDF7C1FF854255
:103960006441E1B205E0281CFFF7C6FAFFF7AEFAA2
:10397000011C0A4C002903D0FFF7BAFD002307E021
:103980000320FFF7F9FAFFF7F1FB0123044A137054
:10399000237038BDAA0800209A080020D40800200F
:1039A000AE080020034B00201B78012B01D1024BF5
:1039B000188870471E090020AC08002008B50C23A9
:1039C0005843034B0830181800F0C6FA08BDC0462B
:1039D000D608002008B50248083000F0BDFA08BD3E
:1039E0002209002013B51220FDF7D8FE01AC20807B
:1039F0001420FDF7D3FE0022A35E181A20801720A2
:103A0000FDF7CCFE6080201C00F0A6FA16BD000079
:103A1000F7B50122174B061C1A70FDF761FF164C13
:103A2000164D2288011C2B881548009600F0A5FA37
:103A30002088FFF761FA0024071C124B1B78A34271
:103A40000FD9201CFFF7A4F8011C0C2060430E4B7B
:103A50003A1C181801342B88009600F08EFAE4B254
:103A6000EBE70023094A1370094A1370094A1380CF
:103A7000F7BDC0461E090020AA080020AC0800209F
:103A8000220900209A080020D6080020D50800202E
:103A90001F09002020090020234B70B51B78041C4F
:103AA0000D1C002B29D0214E002806D03378002B86
:103AB00003D1FFF70DF9012333703378002B01D0C8
:103AC000052B1AD11A4B1A88131C9F2A00D8A02341
:103AD0009BB2AB4202D20022164B1A70FFF7BEF91E
:103AE000154A031C10700020012B1BD1FFF772F840
:103AF000002802D0FF22114B1A70FFF753FF104B22
:103B000085420DD8002C0BD0084A1278052A07D11F
:103B10001878421C1A70092383428041404201E018
:103B20000020187070BDC046A1080020D5080020F4
:103B3000AC0800209C0800201E0900209D080020E1
:103B40001F09002038B5051CFDF7CAFE2A1C011C00
:103B50000B4800F085FA00240A4B1B78A3420DD9CC
:103B6000201CFFF715F8011C0C206043064B2A1C93
:103B70001818013400F074FAE4B2EDE738BDC0461D
:103B8000220900209A080020D6080020F8B5114C20
:103B90001148218800F012FA061C2088FFF7ACF9C2
:103BA0000024071C0D4B1B78A34211D90C2565433B
:103BB0000B4B391C5D19281C00F000FA864204D317
:103BC000281C391C00F0FAF9061C0134E4B2E9E7BC
:103BD000301CF8BDAA080020220900209A08002005
:103BE000D608002038B5164B0C1C1B88051C9842C3
:103BF00000D91D1CFFF7D6FEAAB281B2031C914268
:103C000000D22B1C9BB2221E9A4217D00D4A12786A
:103C1000052A0ED1A3420CD383420AD90A4A11883D
:103C2000221CA1420AD30949088809490988884207
:103C300004D0074A1188054A11801A1C101C38BD8F
:103C4000A8080020D5080020AC0800202E0900207C
:103C50008A08002038B5051CFDF742FE00240A4BF7
:103C600018805D80094B1B78A3420BD9201CFEF7FE
:103C70008FFF0C236343064A01349852D3185D80AA
:103C8000E4B2EFE738BDC046220900209A080020C0
:103C9000D608002070B5061C0D1CFDF733FE224C23
:103CA000002804D1002E3CD02388002B39D0FEF709
:103CB00037FF002835D1281CFFF744FF281CFFF7E9
:103CC000C9FFFFF763FFA84201D2401940102080CE
:103CD000291C2088FFF786FF144B208018781D1CB4
:103CE00004281CD802F01CFF030910121600002E35
:103CF00017D0FEF7EDFF01230FE0002E11D00323B4
:103D00002B70002323800CE0002306E00023238097
:103D1000043302E0002E04D005232B7001E00522BD
:103D20001A70208870BDC04620090020D5080020E8
:103D300008B5FFF7EFF808BD70B5FFF702F9FDF71A
:103D4000CFFD051CFDF7D8FDFA21264C8900E37C48
:103D5000A27C1B021343584302F0ECFE224E2D1AA4
:103D60000221301CADB2FEF7D1FCA84203D21F4B9A
:103D7000188800F08BF8FDF7C5FD002808D01C4B13
:103D80001B88AB4204D21B4A1B4B01201A6027E060
:103D9000FDF72AFD012814D9637B227B1B02134304
:103DA0000AD01B20FDF7FAFC051C301CFEF7DCFCDA
:103DB0002DB2124A8542E7DBE379A2791B02134355
:103DC00001D102200CE01D20FDF7E8FCE37AA27A85
:103DD0001B02134300B21BB2094A9842F1DDD3E73C
:103DE00070BDC0462908002063080020A8080020F4
:103DF000AA080020938000002408002072800000A0
:103E00004C810000024B187843425841C0B27047C1
:103E100032090020024B1888431E9841C0B27047F7
:103E200034090020014B18887047C046340900202F
:103E3000014B18887047C0463009002008B5FDF7CF
:103E400055FD011C044802F075FE044B984200D950
:103E5000181C80B208BDC04680F0FA02881300002A
:103E6000074A08B5031C904201D9064B1B88064A35
:103E700098B21380FCF742FBFDF7A4FD08BDC046D5
:103E800060EA0000407A00003409002010B5041CEC
:103E9000FFF7D4FF011CA04200D9211C0C4A89B2B3
:103EA0001388994205D2581A8C2808DD191C8C39C0
:103EB00004E0C81A8C2802DD191C8C3189B28B42AF
:103EC00005D00F201180FDF7DEFDFFF7C9FF10BD03
:103ED0003009002038B5084D2B78002B0BD000247A
:103EE000064B201C1C80064B1C80FFF7B9FF0120ED
:103EF000FCF71EFB2C7038BD32090020340900206D
:103F00003009002070B5094D061C2C78002C0CD10E
:103F100000280AD0201CFFF7A3FF054B201C1C80A3
:103F2000044B1C80FCF704FB2E7070BD320900208E
:103F30003409002030090020002008B5044B188007
:103F4000044B1880FFF78CFF0120FFF7DBFF08BD53
:103F5000340900203009002008B5418800290AD022
:103F60000023C05EC317C0185840FA239B00584373
:103F700002F0E0FD81B2081C08BD30B503AC247826
:103F80000D1C002C07D0914200D9151CADB20C1CA1
:103F9000914208D206E0914200D2151CADB20C1C31
:103FA000914200D9141C0021A2B2521BC580058089
:103FB000418081804381028130BD000070B50B4C8F
:103FC0000289C6884589231C002A0CD0281C891B1D
:103FD000484311B202F03EFE231CA04203DC002342
:103FE000984200DB83B2181C70BDC046FFFF000082
:103FF000F8B54388D41A9A4200D89C1A8588A4B28E
:104000006D08AC4219D905889A4204D9D31A4D1BC0
:104010009CB2ADB203E06D1A9B1AADB29CB2061C05
:1040200028B2FEF763FA071C0823F05EFEF75EFA7B
:10403000874202D1B48035817481F8BD38B5041C43
:104040000D1C0821435E61895343181C02F002FED7
:10405000854202DA0023E38001E02D1AE58038BDB5
:1040600070B5061C0D1C141CFFF7C2FF301C291C68
:10407000221CFFF7E3FF70BD043A38B5541EA2417D
:104080000124051C5242144301F038FFAB7C034A63
:1040900044435B00995A6018985238BD4407002089
:1040A00000787047043A70B5541EA2410124524270
:1040B0000D1C061C144301F021FF44437069401994
:1040C000FFF7EEFF024A4000835AE418845270BDA5
:1040D0004407002010B5041C01F098FDFF230028C0
:1040E00000D0237858B210BD13B50020FDF750FB67
:1040F00001AC20800120FDF74BFB2388181A20809B
:104100001320FDF74BFB221C608001210020FDF7EE
:104110009BFB0120221C011CFDF796FB13BD37B54C
:10412000041C0920FDF734FB6B4618800820FDF7BE
:1041300035FB6B4604190A205C80FDF729FB6B46B2
:1041400001AC208020205D88FDF728FB0121451966
:104150006A4608206580FDF777FB092001216A4641
:10416000FDF772FB2020FDF7BBFC002804D00A20DD
:104170000121221CFDF768FB37BD37B5051C0A205D
:10418000FDF706FB01AC20800920FDF707FB0121AC
:104190004519221C0A206580FDF756FB37BD00003B
:1041A000F8B5114C071C1149201C01F0A2F900269A
:1041B0001220FDF795FC051E0ED01F20FDF790FC88
:1041C000B8420ED0002E07D10949201C002F00D183
:1041D000084801F08EF9012601F0BCFE0128E7D164
:1041E0000025281CF8BDC0464D800000D57F00008A
:1041F00085800000FD7E000013B501AC2280638045
:104200001F2803D1181CFFF78AFF0AE0202803D1DA
:10421000181CFFF7B2FF04E0081C221C0121FDF767
:1042200013FB13BDF8B50D1C061C0320141C01F074
:104230000FFD281CFDF7B2FA071C201CFDF7A8FA99
:104240003B1C021C211C281CFFF7D6FF0122044B3B
:104250001A70FDF7C9FB002E01D0FFF745FFF8BD2E
:10426000E0070020F0B501208BB0FFF799FF002890
:1042700035D003AC201C1B4900F0FAFFFF230922B4
:104280002374194B22760393184B63610193201C0E
:10429000012100F008FC051E21DB019B1818FFF727
:1042A000FFFE061C062DF2DCFDF71AFC0028EED0FE
:1042B000FDF79AFB00230E4FE9B2201C3B7000F083
:1042C00085FA002808D00B484019FFF7E9FE311C99
:1042D000021C0120FFF7A6FF01233B70D7E70BB0BC
:1042E000F0BDC046C87A0000507A0000847A000011
:1042F000E0070020287B00000023F0B58BB003AC62
:104300001B4D201C1B492B7000F0B2FFFF2307221E
:104310002374194B22760393184B00956361019324
:10432000201C012100F0BFFB051E1CDB019B18189F
:10433000FFF7B6FE061CFDF7D3FB0028F0D00027E0
:10434000FDF752FB0E4BE9B2201C1F7000F03EFA45
:10435000B84204D0381C311C321CFFF763FF012324
:10436000074A1370DCE70123009A13700BB0F0BD0D
:104370000D000020F07A0000507A00008D7A0000D5
:10438000E007002008B50F2803D1081CFFF768FDDF
:1043900002E0081CFEF77AFF08BDF7B5141F621E85
:1043A00094410126051C01F0A9FD64423443EF8AC3
:1043B000444301F0A3FD031C281C3A1C1BB20096C9
:1043C000211C1430FEF7C3F8A87CA98AFFF7DAFF96
:1043D000F7BD0000F0B58DB002900020019103926E
:1043E000FFF7DEFE00285ED0029B002B09D0FFF70E
:1043F00071FD2E48FCF766F802230F2600932C4D22
:1044000005E0FEF76BFF032310262A4D009306AC50
:10441000201C294900F02CFFFF232374274BA6748E
:1044200006936B461B79E582E37406AD05ACA97C67
:10443000EA7C201CFDF7E4F92388281C0121AB82CB
:1044400000F031FB071E25DB0028EED1A98A301CC5
:10445000FFF798FF281C391C00F0B8F9002814D089
:10446000FDF7C2FA6B469B8901996380AB8A221CD7
:10447000301C2380FDF7E8F90098FDF789F90199D0
:104480002080221C0098FDF7DFF9301C0021FFF787
:1044900079FFCAE7029B0120002B02D0FFF732FD13
:1044A00001E0FEF72BFF0DB0F0BDC046D462000066
:1044B00060EA0000F87F0000B07A0000607A000037
:1044C000F0B5051C87B00E1C02A8291C00F0D0FE18
:1044D00002A8002100F0E7FA041E11DB6B46410040
:1044E0009F1D7118381C022202F0DAFC05483A8838
:1044F000281A43425841E1B2C0B2FFF76BFFE7E729
:1045000007B0F0BD187B000073B5051C0E1CFDF74D
:104510003FF901AC2080281CFDF740F9311C608078
:10452000221C281CFDF790F973BD0000F0B587B080
:1045300001AC061C0F1C201C0F4900F099FEFF2344
:1045400023740E4BA67401930121201C00F0ABFADA
:10455000011E0FDB0028F7D1094D2870201C00F048
:1045600035F9002803D0301C391CFFF7CDFF01239B
:104570002B70E9E707B0F0BD787A0000707A000090
:10458000E00700201FB5041C0749684600F070FED4
:104590006846002100F087FA002804DBC1B2201C25
:1045A000FFF7C4FFF4E71FBDBC7A00001FB51A492E
:1045B000684600F05DFE6846002100F074FA041EB3
:1045C00026DB02F06DF9FDF73BFB052C18D8201C0B
:1045D00002F0A6FA0306090E1014FFF743FE0FE0DF
:1045E0000E480F4901E00F480F49FFF769FF07E048
:1045F000072000E00520FFF7C5FF01E0FFF77CFE84
:104600000120FDF735FDFDF7FFF902F061F9D2E772
:104610000022064B1A701FBD947A0000187B000020
:10462000247B00000C7B0000087B00002008002099
:1046300010B5041C101CFDF704FAA208A1180023F1
:10464000884205DAA41A0122844200DB1A1CD3B284
:10465000181C10BDFA2108B589000020FDF713FAD7
:1046600019235843002281B20148FFF7E1FF08BD3A
:10467000D4620000FA2110B58900041CFDF703FA8A
:1046800005235843221C81B20148FFF7D1FF10BD1A
:104690008813000010B56421041CFDF7F4F903230E
:1046A000584381B29620221C4000FFF7C1FF10BD85
:1046B00010B5FDF784FD041E22D0FFF7CBFF041ECA
:1046C00003D1104800F0DAFF1AE00F20FFF7D2FF05
:1046D000002804D00220FFF7CDFF002804D10A48AB
:1046E00000F0CCFF00240BE01020FFF7D3FF0028E0
:1046F00004D00320FFF7CEFF041E01D10348EFE7EB
:10470000201C10BD717F0000D87E0000377F0000A4
:1047100008B5FFF7CDFF08BD38B5051C0C1C00F02F
:10472000A1FD281C1030FFF7D5FCA04206D06B6914
:104730001819FFF7B5FC297EFDF700FA38BD000017
:1047400038B5041C12200D1CFDF7CAF900280AD147
:104750001048114900F0CDFEA37C102B19D1012087
:10476000FEF7CCFD15E0201C291C00F07BFD201C71
:104770001030FFF7AFFCA8420BD0002D04D1A08A67
:10478000052101F079FE04E0FDF7B6F8072101F0FC
:10479000E2FE38BD4D800000D57F000038B5051C15
:1047A0000C1C00F05FFD281C1030FFF793FCA042AA
:1047B0000BD0A87C002C03D10721FDF7BFF904E042
:1047C000FCF7E6FF072101F057FE38BDF8B50023DE
:1047D000041C0E1CCDB2437401330574C37101F087
:1047E000B9FB0227831EBB43DBB2021C002B09D19D
:1047F0002368201C5B68311C98470123257467746B
:10480000E37103E0012813D0082811D0201C1030D8
:1048100001F007FA002801D00123E371E379002BAE
:1048200002D0201C00F0EBF8637C01336374D6E700
:10483000083A101CFF23424250412374FE3BC0B291
:104840002372E371F8BD10B5041C01F0DDFBA06814
:1048500001F09EFC01F0DEFB2179206801F074FC80
:1048600010BD837B1E2B02D80133837302E0437B90
:10487000013343737047837B002B02D0013B83736A
:1048800002E0437B013B43737047F8B50026477B4A
:10489000F1B200200C01002501F0ACFB3C19E4B2A0
:1048A0006019C0B2013501F02BFC102DF8D1012E9A
:1048B00001D00126ECE7F8BD38B5041C154801F01D
:1048C00011FFFF23657BAB4203D0201CFFF7DDFF08
:1048D000657B0F20A17B0840090901F08BFB01F0EB
:1048E00039FB022809D0042802D0012809D110E0A0
:1048F000201CFFF7B6FF2B1CE4E7201CFFF7BBFFD3
:10490000F9E70828F7D1A07B637B227B2168C318D5
:104910008B5438BD74040020027183602022002370
:1049200001600373427383737047000038B51E4DF6
:10493000041C281C01F0D6FE01F072FB201CFFF7BE
:1049400082FF207B012101F055FB01F003FB0228CF
:104950000FD0042806D0012811D1281C01F0B8FE80
:1049600000201FE02279237B013A9342E9DA0133E8
:1049700003E0237B002BE4D0013B2373E1E708280D
:10498000DFD1063801F024FB012807D9032001F00C
:104990005FF9281C01F09CFE012003E0201CFFF7BA
:1049A0008BFFC9E738BDC046740400207047000083
:1049B000044B817103600023037143710133C371A0
:1049C00003727047387B00000279002A02D101236C
:1049D000037107E0437981799A1801398A4201DA33
:1049E0000133437170470379002B02D0013B0371FF
:1049F00004E04379002B01D0013B4371704738B587
:104A0000041C0025291C002001F0F4FA202001F0EC
:104A100077FB617923686918C9B21B68201C984725
:104A200001F08DFB012D01D00125EBE7217900205C
:104A300001F0E0FA3E2001F063FB21790F2001F044
:104A4000D9FA3C2001F05CFB0023E37138BD70B55E
:104A5000041C01F07FFA051C01F0E4FE002803D0DD
:104A600001237F25E3711CE066792379F618F6B2FD
:104A7000022D05D0042D06D1201CFFF7A5FF02E072
:104A8000201CFFF7B0FF62792379D318DBB29E4276
:104A900001D00123E371E379002B02D0201CFFF742
:104AA000AEFF281C70BD38B50123041C0D1CC3715A
:104AB000201CFFF7CCFF002800D12072237A002BA6
:104AC00008D1082806D10133237260792379C018F0
:104AD000C0B208E0002D01D00122E2710128E7D127
:104AE000002BE5D1FE3040B238BD00001FB50E49A5
:104AF000684600F0BDFB68460021FFF7D4FF01289F
:104B000007D0022808D0002809D10848FDF79EFCEC
:104B1000F1E7FFF74BFDEEE7FDF75DFBEBE7002864
:104B2000E9DA05B000BDC046407B0000290800203E
:104B3000043A08B5031C081C511E8A410121524247
:104B4000114305281CD8123301F0EAFF03070B0FAD
:104B50001317181CFDF79BFE12E0181CFDF7FCFE56
:104B60000EE0181CFDF756FF0AE0181CFDF7CAFE00
:104B700006E0181CFDF7D1FE02E0181CFDF782FFCD
:104B800008BD000070B5041C0E1C0949151C00F07E
:104B90006FFBFF23201C2374064B311C083323605A
:104BA0001A22123002F07CF9E562201C70BDC0466A
:104BB000507B0000787B00001FB5011C041C1E31D7
:104BC0000E22054B6846FFF7A7FE6846FFF7AEFECC
:104BD0000123E3711FBDC0462581000010B5041CF0
:104BE00001F01EFA01F010FA074801F0D1FA01F0C5
:104BF00011FA201C0E211E3001F0A6FAFDF7E5FC8B
:104C0000032001F025F810BD987F000010B5041CAA
:104C1000E36A1230591CFDF701FD201CFFF7DEFF8F
:104C200010BD10B5041CE36A1230591CFDF72EFDAF
:104C3000201CFFF7D3FF10BD70B5051C88B0281CE1
:104C40000021FFF730FF041E2BDB072807D00828C0
:104C500009D006280BD1281CFFF7D8FFEFE7281C46
:104C6000FFF7AAFFEBE7281CFFF7DBFFE7E72E1CA7
:104C70001236311C01A81A2202F012F9E1B2281CE6
:104C8000FFF7A4FD002805D1301C01A91A2202F06B
:104C900007F9D4E7032000F0DBFF301CFDF773FEBB
:104CA000CDE708B070BD38B5041C0D1C00F0DAFA71
:104CB000201C103000F0AAFFFF23002800D0237C26
:104CC0005BB2AB4220D0052D1ED8231C281C12330A
:104CD00001F026FF03070B0F1317181CFDF76EFDDD
:104CE00012E0181CFDF772FD0EE0181CFDF7A0FD88
:104CF0000AE0181CFDF78AFD06E0181CFDF78FFD81
:104D000002E0181CFDF7A8FE38BD000008B5C36816
:104D10000248595C01F04DFA08BDC046B07B000066
:104D200038B50D1C041C00216B5C4A1CD1B2082B49
:104D3000FAD1201CFFF73CFE024BE560201C2360EB
:104D400038BDC046907B000008B50748FDF747FC1A
:104D5000064B032806D0064B022803D0054B00283B
:104D600000D0054B181C08BD63080020680900200E
:104D700048090020380900205809002038B5051CD2
:104D8000FDF792FCFFF7E0FF041C201C0021FFF759
:104D90008AFE002811DBE368185C08280AD1291C68
:104DA0000648FDF761FD281CFDF794FC0120FDF786
:104DB00069F9E7E7FDF7ACFAE7E738BD63080020DB
:104DC00008B508490848FFF7ABFF08490848FFF74E
:104DD000A7FF08490848FFF7A3FF08480849FFF75D
:104DE0009FFF08BD9C7B000048090020987B0000C5
:104DF00038090020A97B000068090020580900201C
:104E0000A47B000038B5041C0D1C084900F030FAE2
:104E1000FF23201C2374064B291C083323603A22ED
:104E2000123002F03DF8201C38BDC046D87B00008F
:104E3000487C000070B5061C90B0301C0021FFF7C4
:104E400032FE051E25DB341C1234172806D1201C27
:104E5000FDF7A2FA032000F0FBFEEEE7211C01A8FB
:104E60003A2202F01DF8E9B2301CFFF7AFFC00282F
:104E700005D1201C01A93A2202F012F805E0032016
:104E800000F0E6FE201CFDF78FFA201CFDF797FAD4
:104E9000D3E710B070BD08B5642101F04BFE0321CB
:104EA00080B201F0E9FA432001F02AF908BDFA21A5
:104EB00008B5890001F03EFE032180B201F0DCFA62
:104EC000562001F01DF908BD10B56421041C01F045
:104ED00031FE032180B201F0CFFA2E2001F010F94B
:104EE000201C642101F0ACFE88B20A2101F022FEF0
:104EF000C0B201F09FF9024801F04AF910BDC04666
:104F00006580000010B5041C01221830FDF706FB77
:104F1000238B002B05D0A31DDB8F002B01D1023486
:104F2000E38710BD10B5041C04224030FDF7F6FAEB
:104F3000A31CDB8F002B04D0A31DDB8F002B00D123
:104F4000238310BD08B50230C18F0248C9B201F0F9
:104F500030F908BD587C000008B50630C18F024802
:104F6000C9B201F026F908BD3C7C000008B512303A
:104F7000FDF704FA642101F0DDFD052180B201F0A6
:104F80007BFA302001F0BCF8302001F0B9F808BD00
:104F9000642251430388C91889B2632900D8111CBF
:104FA000034A0B1C914200D9131C03807047C04672
:104FB000AC2600000A2251430388C91889B2092986
:104FC00000D8111CFA220B1C9200914200D9131C2C
:104FD00003807047FA239B0059430388C918064B86
:104FE00089B2994200D80549054A0B1C914200D963
:104FF000131C03807047C046571B0000581B00005D
:10500000307500000388591889B20323022903D997
:105010000B1CC82900D9C82303807047838E5918F8
:105020000B1C09B2233101DA034B1B881AB2232A65
:1050300000DD232383867047D47B0000C38E074A9C
:1050400059180B1C09B2914200DA131C044A19B218
:10505000914200DD131CC3867047C04619FCFFFF58
:10506000E7030000038859180B1C09B2143101DA58
:10507000044B1B8819B24A1E0A43D21713400380FF
:105080007047C046D67B0000043A08B50B1C511E81
:105090008A41012152421143162B68D81A1C031C65
:1050A000101C01F03DFD0C0E12171C1E2025292D91
:1050B0003335393D41464A4E5052575B5F001633F7
:1050C00004E0181CFFF71EFF51E01A33181CFFF70D
:1050D0005FFF4CE01C33181CFFF76CFF47E01E33EA
:1050E00041E0203300E02233181CFFF7BBFF3EE015
:1050F0002433181CFF2238E02633181C052202E056
:105100002833181C6322FDF715FA30E02A332AE011
:105110002C33181C3222F6E72E33181CC822F2E773
:105120003033181CFA22EEE73233181CFFF752FF17
:105130001DE0181CFFF772FF19E0181CFFF77EFF37
:1051400015E038330FE03A330DE03C33181CFFF71D
:1051500059FF0CE0181CFFF7E5FE08E04233181C6D
:10516000042202E04433181C0122FDF7D7F908BDE0
:1051700038B5041C0D1C00F075F8201C103000F030
:1051800045FDFF23002800D0237C5BB2AB4268D0F2
:10519000162D66D8281C01F0C3FC0C0E1014181C28
:1051A0001F22272A3234393E43474A4E5053595D15
:1051B0006100E08A02E0207E08E0608BFFF76BFE72
:1051C0004FE0A08BFFF780FE4BE0A07F00F0FCFFDC
:1051D00047E02023E05E2CE02223E05E29E0A08C63
:1051E000082101F0C4F93CE0E08C03210BE0208DA4
:1051F000042101F041F96D2000F082FF31E0608D63
:105200001CE00221A08D01F037F92AE0E08D052194
:1052100001F0A1F925E0208E052101F03CF920E004
:10522000608EFFF744FE1CE03423E05E0AE0362384
:10523000E05E062107E0208F00E0608FC0B2C5E786
:105240003C23E05E052101F031F90AE0201CFFF764
:1052500079FE06E0201CFFF789FE02E0201CFFF724
:105260007BFE38BD08B5C06800F0A3FF08BD000094
:1052700038B5041C081C0D1CFDF708F9011C201C86
:10528000FFF796FB024BE5600833201C236038BD16
:10529000707C000008B5012902D1FDF779FC01E01E
:1052A000FEF78CFB08BD000038B5051C1F30C0B2EE
:1052B0000C1CFCF715FC002808D0211C281CFFF74B
:1052C000E9FF211C062201F0FFF802E0014800F08E
:1052D0005FFF38BD807C0000F7B5041C0F1C00F098
:1052E00093FEFDF71DFC002807D10330FDF726FDD6
:1052F0002023002807D14D3305E0334B1A78422391
:10530000002A00D12033314A11780192002902D1BC
:10531000181C00F0F5FE019B1B78002B23D0002603
:1053200001252B4B1878864219D22A4B00201B7876
:105330005BB29E4208D0019B01301B782B4203D008
:10534000254B5B781840400000F0DAFE802D02D03B
:105350006D00EDB200E000250136F6B2E1E708236A
:10536000181AC0B200E00720661CF6B200F0D6FEA4
:10537000301C00F05FFF3A2000F0C2FE391C201CF8
:10538000FFF792FF00F0DBFE00F044FE052E18D878
:10539000A51CEDB2281C00F04DFF3A2000F0B0FE35
:1053A000301C391CFFF780FF062D0AD00334E0B211
:1053B00000F040FF3A2000F0A3FE281C391CFFF744
:1053C00073FF00F0BCFEF7BD9B0800209E08002084
:1053D0009A0800209D0800207809002008B50020C8
:1053E0000121FFF779FF08BD08B503200121FFF770
:1053F00073FF08BD08B500200621FFF76DFF08BD4B
:1054000008B503200621FFF767FF08BD0E4B10B556
:105410001C78033C63425C410C4BE4031B78002B7B
:1054200003D08023DB01E418A4B20948FDF7D7F8C4
:1054300080235B008340E418064B187801238340E7
:10544000E01880B210BDC04620080020C608002029
:10545000630800202808002038B5041C0134FFF739
:10546000D5FFE3B200240949E2008A181168D58803
:105470009288024201D0054205D00134E4B2002BEB
:10548000F1D1081C38BD013BDBB2F6E7887C000097
:1054900008B500F0A7FB054A537801335370044B5D
:1054A0001878FFF7D9FF804708BDC046780900206B
:1054B0007B09002008B502210023044A13705170B3
:1054C000034A137000F080FB08BDC0467809002035
:1054D0007B090020704708B501F050F808BD10B5F1
:1054E000041C00F09DFD00F08FFD201C00F050FE1C
:1054F00010BD10B50C1CFFF7F2FF00F08BFD201C57
:1055000000F046FE10BD000010B5041C00F07CFD4C
:10551000201C00F03DFEFEF72DF800F096FF00F095
:1055200079FD034B186800F033FE00F008FE10BD53
:105530002408002008B50248FFF7E6FF08BDC04672
:10554000107D000008B50248FFF7DEFF08BDC04629
:105550001B7D000008B50248FFF7C1FF08BDC0462B
:10556000267D000008B5FFF7F5FFFDF72EF808BD12
:1055700008B50248FFF7B3FF08BDC0462A7D00000A
:1055800010B500240F20001B0121C0B200F032FD35
:10559000FF2000F0B5FD201C002100F02BFD0134A0
:1055A000FF2000F0ADFDE4B20A2000F095FC102CC5
:1055B000E8D110BD38B501F035F9002801D1FFF769
:1055C00067FF104C2378042B07D10F4D287801304A
:1055D000C0B2FFF741FF00280CD12378022B0FD176
:1055E000094C2378002B0BD0FFF7CAFF2378013B2F
:1055F000237005E0FFF7C4FF2B7801332B70ECE735
:1056000038BDC0467A0900207B09002010B5041C73
:1056100000F006FD00F0F8FC084800F0B9FDA0B26B
:1056200000F0A6FD00F0F6FC054800F0B1FDFCF727
:10563000CCFF083843425841C0B210BD487D00003D
:10564000567D000008B50248FFF749FF08BDC04677
:10565000667D000010B50C1E06D00648FFF73FFF20
:10566000A0B200F085FD04E00348FFF738FFFCF727
:10567000ACFF10BD777D00008C7D000008B5011CDB
:105680000248FFF736FFFCF7A0FF08BD9D7D000034
:1056900008B50448FFF723FFFA20800000F010FC53
:1056A00008BDC046AE7D0000FF22014B1A70704756
:1056B0007809002008B51920FCF770F8082100F0DF
:1056C00044FF00F037FD08BD10B5FEF79BFB4324F7
:1056D000002810D1FDF79AFD002806D0FEF792FBB6
:1056E0004523444244411C1B05E0FDF719FA4E24B2
:1056F000002800D00C3CFDF7EDFE002800D0572418
:10570000201C00F0FDFC00F015FDFDF733FF00F05C
:105710009CFE00F00FFD10BD08B51B20FCF73EF805
:10572000052100B200F0ADFE6D2000F0E9FC56202E
:1057300000F0E6FC00F003FD08BD000008B50E4BCC
:105740009A79DB791B0213430FD01D20FCF726F852
:105750000A235843052100B200F093FE6D2000F0AB
:10576000CFFC432000F0CCFC02E0044800F010FD28
:1057700000F0E5FC08BDC04629080020E97D0000D6
:1057800008B500F041FCFFF795FF07211720FCF753
:10579000D5F900F0D4FC00F03DFCFFF795FF142094
:1057A0000721FCF7CBF900F0CAFC08BD08B500F0F2
:1057B0002BFC0E48FCF7BEFF082100F0C6FE00F0EF
:1057C000B9FC0B4B0721188800F0C5FE00F0B7FCB0
:1057D00000F020FC074800F0DBFC074B072118888D
:1057E00000F0BFFE00F0ABFC08BDC046630800201F
:1057F000A8080020F17D0000AA08002008B500F0EC
:1058000003FC00F097FC0D48FDF726F9022000F09C
:1058100085FCFDF7AFFE00F018FE00F0FBFB08482A
:1058200000F0B6FCFDF7B8FE00F00FFE022000F01D
:1058300075FCFDF7BDFE00F008FE08BD6308002002
:10584000FA7D000008B500F0DFFB0D4800F0A0FC79
:10585000FEF7C0F8082100F08AFE00F070FC00F0AE
:10586000D9FB084B1B78002B07D0074800F090FCB1
:10587000FEF7B8F8082100F07AFE00F060FC08BDE1
:10588000FD7D0000C6080020067E000008B500F07F
:10589000BBFB0E4800F07CFC07210620FCF74EF90C
:1058A00000F04DFC00F0B6FB094800F071FC094B1C
:1058B00001215A1C0233D87FD27F000210430722F5
:1058C00000F002FE00F03BFC08BDC0460F7E000069
:1058D000177E00002908002008B500F095FB0F484E
:1058E00000F056FC0E4B9A79DB791B02134304D06F
:1058F00007200521FCF722F902E00A4800F048FCE5
:1059000000F01DFC00F086FB074800F041FC05207C
:10591000011CFCF713F900F012FC08BD2D7E0000FD
:10592000290800205B7E0000337E000008B500F0EF
:105930006BFBFFF7BFFEFFF701FF00F06BFBFFF70C
:10594000C3FEFFF7E9FE08BD08B500F05DFB08489F
:1059500000F01EFC07211C20FCF7F0F800F0EFFB24
:1059600000F058FB034800F013FCFFF7D5FE08BD1C
:10597000397E0000427E000008B500F045FB0E486D
:1059800000F006FC0D4B9A79DB791B02134305D01E
:10599000FBF724FF092100F0D2FD02E0084800F0E7
:1059A000F7FB00F0CCFB00F035FB064800F0F0FB05
:1059B000FFF7C4FE08BDC0462D7E00002908002068
:1059C000267D00004C7E000038B5274B5C78E4064D
:1059D000E40F00F019FB002C0ED0FFF76BFE07213F
:1059E0001720FCF7ABF800F0AAFB00F013FBFFF761
:1059F0006BFE00F09FFB14E008211820FCF79EF8D6
:105A000000F098FB07211720FCF798F800F097FBAF
:105A100000F000FB1A200821FCF790F8022000F0AB
:105A20007DFBFDF7D1FD051C002C12D0FEF7EAF935
:105A300000280ED0622D0CD80C4B1B88142B04D9D7
:105A4000FDF70AFE00F001FD0CE0094800F0A0FBA4
:105A500008E0A8B2042100F00FFD064800F098FB12
:105A600000F06DFB38BDC04678090020D208002048
:105A7000567E00005D7E000038B5054D4400285D6F
:105A80002C1900F03DFB607800F03AFB38BDC046B1
:105A90005F7E000070B500F0B7FA294CFF25201C8E
:105AA000FCF78CFE00F046FB201CFCF78FFE00F09C
:105AB00041FB244B1878FFF7DFFF00F0ABFAFDF74E
:105AC00083FD022180B200F0D7FC1F4800F060FB8C
:105AD0001E4E301C00F09AF8002800D03578EDB248
