:100000000C94D6020C94FE020C94FE020C94FE0298
:100010000C941E050C94FE020C94FE020C94FE023D
:100020000C94FE020C9482050C944E050C94590518
:100030000C94FE020C94FF050C9434060C94FE0202
:100040000C94FA040C94FE020C94FE020C94FE0232
:100050000C94FE02FD17FF17011805180518031868
:1000600009180718FF0000000A000504000000043A
:10007000090000FF0101000A040505000004040A4C
:100080000000FF02020000020506000002040B004F
:1000900000FF03030000060507000006040C000033
:1000A000FF0000000A010511020001040D0000FF1D
:1000B0000101000A050511040005040E00000305F6
:1000C000110100FF020200000705110800D1000025
:1000D000006F7074696F6E730046000300881370C0
:1000E000170100320010273200881310270000008B
:1000F0000003000000000080250000004B0000000D
:1001000096000000E1000000C201000100010001B2
:100110000001000100B0040807520300005203B0C0
:10012000040807E8030000E803D0079209D6060098
:10013000006C07E40C100ED007E40CB80B100E0492
:1001400010C409A60EAC0D740E6810B80B0A0F8906
:100150000C740ECC10B80B0A0F890C740EFE10B87C
:100160000B0A0F890C40066C071405400678050140
:1001700000A00FD007010001000100A00F01000145
:100180000001007D0473046E04690464045F045A72
:1001900004550450044B0478044704ED04DE04D6EF
:1001A00004CC04C004B804A9049E048F0482040093
:1001B00009000304070809000307080900010203F6
:1001C000040809000102030405060809093C04FFAC
:1001D0007F49002F030100000064003404FF7F0208
:1001E00000C702010000000400290401004400339C
:1001F0000364005802AC261E04FF7F4403350364E9
:10020000005802AC261804FF7F4D003703010000A0
:100210000001001004FF7F40003903FD7F0100F45E
:10022000010804FF7F40003B03FF7F01001027000F
:1002300004FF7F40003D03FD7F0100F401F803FF50
:100240007F40003F03FF7F01008813EC03FF7F41E5
:10025000034103E803581B3075E103FF7F4D004362
:1002600003010000000100DB03FF7F0200B902016F
:100270000000000400D30302000100B502010000E9
:10028000000400CC03FF7F0200AD0201000000016A
:1002900000C603FF7F000000000000000000000017
:1002A00000000000000000000000000000B1024B50
:1002B0000378036F03F7004703BD024503BD03B690
:1002C00003B003A7039E03CB023103BD0397038F43
:1002D0000387037F03636865616C692D63686172DE
:1002E0006765720A76312E39395F323031363033F4
:1002F0003231005245564552534520504F4C4152E1
:1003000049545900010101020A1E010318478E01D8
:10031000190C03010101E803011D05E803001B0599
:10032000640000190564000016056400001405E867
:1003300003011105E803010F050100000D05E803A5
:10034000011B05010000060564000009050100000D
:10035000070501000007050100000000010000047E
:1003600005141719181A0705061F202122232461D6
:100370006476616E6365640073696D706C650054CA
:100380002D70726F67720054656D706572610070D8
:10039000726F6772616D00616C7761797300657867
:1003A000742E20416463006578742E2064656200B9
:1003B0006465627567006E6F726D616C006469736D
:1003C00061626C6564007265736574006D656E755D
:1003D000733A007C73706565643A00554152543A33
:1003E00000616463206E6F6973653A00696E7075B1
:1003F00074206C6F773A20006D61782049643A0070
:100400006D696E2049643A006D61782049633A0055
:100410006D696E2049633A00626565703A006469EF
:10042000736368206F66663A007C66616E205420B4
:100430006F6E3A0066616E206F6E3A006261636BA8
:100440006C696768743A004C4544004E695A6E0006
:100450004C343335004C343330004C69706F004CF1
:10046000696C6F004C6966650050622020004E691F
:100470004D48004E69436400556E6B6E004E6F6EC2
:1004800065006564697420626174746572790063E3
:100490006170616369747920636865636B00443ED1
:1004A0004320666F726D61740073746F726167656B
:1004B0002B62616C616E630073746F7261676500BB
:1004C0006661737420636861726765006469736351
:1004D00068617267650062616C616E636500636884
:1004E000617267652B62616C616E63650063686150
:1004F000726765006E6F6C696D697400206E6F00C5
:10050000796573005500006D00432F6D002500F4E0
:10051000004168004300576800570056004100083A
:10052000090A0B0C0D0E000197058D058305790551
:100530006F0565055B05510547053E0500007365C0
:100540007474696E677300562D5F70696E3A20206F
:1005500000562B5F70696E3A2020005662365F703D
:10056000696E3A20005662355F70696E3A20005617
:1005700062345F70696E3A20005662335F70696E54
:100580003A20005662325F70696E3A20005662313E
:100590005F70696E3A20005662305F70696E3A2073
:1005A000000093036A071C0D6715581611241FBE1F
:1005B000CFE5D8E0DEBFCDBF10E0A0E6B0E0ECE4D0
:1005C000F0E402C005900D92AE3AB107D9F724E0ED
:1005D000AEEAB0E001C01D92A935B207E1F715E01F
:1005E000CCEAD5E004C02297FE010E94A81FC23ABF
:1005F000D107C9F70E94150D0C9424200C9400001B
:1006000020E042E060E18EEA90E00E946F1C0E94D0
:100610007E050E94F3050C949703CF92DF92EF9230
:10062000FF92482F282F30E0A0E0BDE70E94AC1FCA
:100630006B017C01A4E6B0E0A41BB10924E630E024
:100640000E94BB1F6C0D7D1D8E1D9F1D24E630E09A
:1006500040E050E00E94651FB9018DE0FF90EF90EF
:10066000DF90CF900C94DD05882311F0909A0895C7
:1006700090980895811102C0969A089596980895C9
:10068000811102C0929A089592980895811106C02E
:10069000939A0E943A0380E00C9440039398089543
:1006A000BC018EE00C94DD05BC018EE00C94DD05F0
:1006B00080FF02C0C09A01C0C09881FF02C0C19AE9
:1006C00001C0C19882FF02C0C29A01C0C29883FFD4
:1006D00002C0C39A01C0C39884FF02C0DE9A01C061
:1006E000DE9885FF02C0DF9A0895DF98089580E0C4
:1006F0000E94460380E00E94340380E00E94690566
:1007000080E00E9458038C9A8B9A889A8F9AB89AA4
:10071000B99ABA9ABB9AD69AD79A8D9A8E9A8D9A86
:100720008A9A089508958EEA90E00C94C41CD59896
:10073000D498DD98DC98BF9ABE9ABD9A8EEA86B9A5
:10074000369A089534B145B1E091BF00E13131F1FD
:100750002FB7F894832F90E0942BF0E0DF01AA0FDD
:10076000BB1FA554BD4F11969C938E933091B7003B
:10077000332391F0EE0FFF1FEE0FFF1FE352FD4FEB
:100780004081518162817381480F591F611D711D24
:1007900040835183628373832FBF08952091C000EB
:1007A0003091B40047FD02C0232B02C020952323C3
:1007B0002093B40008950E9468129093DA02809307
:1007C000D9020E9416119093DC028093DB02809183
:1007D000B700882309F481C00E9468124091190370
:1007E00050911A0360911B0370911C03480F591F0D
:1007F000611D711D4093190350931A0360931B03ED
:1008000070931C030E94161140911D0350911E030A
:1008100060911F0370912003480F591F611D711DC6
:1008200040931D0350931E0360931F037093200396
:100830008091210390912203019709F04CC080918F
:10084000E5029091E602A091E702B091E802B69528
:10085000A795979587958093E5029093E602A093DC
:10086000E702B093E8028091DD029091DE02A09150
:10087000DF02B091E002B695A79597958795809392
:10088000DD029093DE02A093DF02B093E00280913C
:10089000E1029091E202A091E302B091E402B695E8
:1008A000A795979587958093E1029093E202A09394
:1008B000E302B093E4028091E9029091EA02A091F0
:1008C000EB02B091EC028093E9029093EA02A093CC
:1008D000EB02B093EC020C942C0A08958091430330
:1008E00090914403892BE9F04091BC004423C9F066
:1008F00081E090E00090B90002C0880F991F0A942F
:10090000E2F720912103309122032F703FB7F89432
:100910005BB39BB3982B9BBB240F2A95F1F75BBB72
:100920003FBF08958091B6008F5F853108F080E069
:100930008093B60085E0E8EBF0E0ADEBB0E001902D
:100940000D928A95E1F76091B6006F5F653108F00E
:1009500060E085E0689FB00111246C597F4F45E04D
:1009600050E088EB90E00E94CD1F8091B60081118D
:100970000CC00E94DB03809121039091220321E0AF
:10098000892B09F420E02093B70008950E94A20368
:100990008091B50091E0980F9093B5008730D9F021
:1009A00018F4882331F008958830B9F08930D1F0F7
:1009B00008958091B80087FD19C03FB7F89428B317
:1009C0008091B80040E2849FC00111242F71282B30
:1009D00028BB3FBF08950C946E048091B9008062DB
:1009E00087B908951092B5000C94920408958091EF
:1009F000B40008951F920F920FB60F9211242F93F7
:100A00003F934F935F936F937F938F939F93AF9396
:100A1000BF93EF93FF930E94C604FF91EF91BF91A4
:100A2000AF919F918F917F916F915F914F913F9186
:100A30002F910F900FBE0F901F9018951F920F923D
:100A40000FB60F9211242F933F934F935F936F93A1
:100A50007F938F939F93AF93BF93EF93FF930E94E6
:100A60003B18FF91EF91BF91AF919F918F917F9133
:100A70006F915F914F913F912F910F900FBE0F900B
:100A80001F90189588E085BD85B5846085BD14BC30
:100A90008CE783BD89B7806889BF08951F920F9244
:100AA0000FB60F921124979A0F900FBE0F901F90C0
:100AB00018951F920F920FB60F9211248F9397984B
:100AC0008091C20082BF8F910F900FBE0F901F9038
:100AD0001895811104C013BE12BE9798089590E036
:100AE0009595879528E7280F2093C20088589E4F38
:100AF000959587958CBF8CE483BF089589B78360F3
:100B000089BF08951F920F920FB60F9211242F9351
:100B10003F938F939F932091C9003091CA00809199
:100B2000C5009091C600820F931F9093C6008093DA
:100B3000C5002091C7003091C8008091C3009091FA
:100B4000C400820F931F9093C4008093C3002FB7FB
:100B5000F8948091C5009091C60035E096958795F0
:100B60003A95E1F79BBD8ABD8091C3009091C40086
:100B700035E0969587953A95E1F799BD88BD2FBFE9
:100B80008091C5009091C6008F7199279093C600FF
:100B90008093C5008091C3009091C4008F71992704
:100BA0009093C4008093C3009F918F913F912F91A8
:100BB0000F900FBE0F901F9018959FB7F8948E302E
:100BC00039F47093CA006093C9008FB5806808C07B
:100BD0008D3039F47093C8006093C7008FB5806280
:100BE0008FBD9FBF089580E094E097BD86BD82E0F1
:100BF0008FBD89E18EBD89B7846089BF08951F923A
:100C00000F920FB60F9211242F933F934F938F9310
:100C10009F93EF93FF935A991AC04CB18091E101D1
:100C20009091E201019699272091E3013091E4012E
:100C30008217930769F0E091E101F091E201EF5131
:100C4000FF4F40839093E2018093E10101C08CB19A
:100C5000FF91EF919F918F914F913F912F910F9025
:100C60000FBE0F901F9018951F920F920FB60F9204
:100C700011242F933F938F939F93EF93FF93209192
:100C8000E1013091E2018091E3019091E4012817A4
:100C9000390711F4559812C0E091E301F091E40195
:100CA000EF51FF4F20818091E3019091E401019683
:100CB00099279093E4018093E3012CB9FF91EF9180
:100CC0009F918F913F912F910F900FBE0F901F908A
:100CD0001895CF92DF92EF92FF92CF93DF93EC01C2
:100CE0006A017B01411581EE580761057105F9F034
:100CF000E885F98581E090E00C8802C0880F991F93
:100D00000A94E2F7808360E079E08DE390E0A70148
:100D100096010E94651F21503109410951095695DC
:100D2000479537952795211580E1380798F0E88594
:100D3000F985108260E874E88EE190E0A7019601E1
:100D40000E94651F21503109410951095695479567
:100D500037952795EC81FD813083EE81FF812083DB
:100D60001D8AEA85FB85408181E090E09C0109882D
:100D700002C0220F331F0A94E2F7422B4083EA8518
:100D8000FB8540819C010A8802C0220F331F0A9410
:100D9000E2F7422B4083EA85FB8520810B8802C065
:100DA000880F991F0A94E2F7809582238083DF9150
:100DB000CF91FF90EF90DF90CF900895CF93DF9386
:100DC000FC0182819381DC01B395EC01CE5FDE4FA3
:100DD0004D915C9111972881398142175307C1F7D2
:100DE000A285B3854C9181E090E09C01018802C00E
:100DF000220F331F0A94E2F7209524232C93A28517
:100E0000B3854C919C01028802C0220F331F0A94C3
:100E1000E2F7209524232C93A285B3852C91038897
:100E200002C0880F991F0A94E2F7809582238C9361
:100E300080819181FC01EE5FFE4F208131813297EC
:100E400031832083DF91CF910895FC018589882328
:100E500029F0A085B1858C9186FFFBCF158A089576
:100E6000CF93DF93FC0122813381D901B3958D911A
:100E70009C91119701969927E901CE5FDE4F488139
:100E8000598184179507D9F30D90BC91A02DA20F1D
:100E9000B31F6C93A281B381B39511969C938E93EB
:100EA000A285B3852C9181E090E0038802C0880F71
:100EB000991F0A94E2F7282B2C9381E0858B0084FC
:100EC000F185E02D80818064808381E090E0DF9176
:100ED000CF91089581EE90E09093CC008093CB0069
:100EE0009093CE008093CD0080E490E09093D0006A
:100EF0008093CF0029E230E03093D2002093D100DC
:100F00002BE230E03093D4002093D3002AE230E08B
:100F10003093D6002093D5009093D8008093D700CB
:100F20008CE290E09093DA008093D90084E0809383
:100F3000DB0083E08093DC0087E08093DD0085E0C8
:100F40008093DE0081E08093DF000895CF93DF93EC
:100F50001F92CDB7DEB7E0915504F091560430975B
:100F600011F4E9E5F4E0CE0101962EEB8E179F0710
:100F700010F02193FBCF0F90DF91CF910895CF9385
:100F8000DF9300D0CDB7DEB72091550430915604E1
:100F90002115310511F429E534E0CE010196821BBB
:100FA000930B0F900F90DF91CF910895CF93DF9324
:100FB0001F92CDB7DEB7209155043091560421150C
:100FC000310511F429E534E0F901AE014F5F5F4FBF
:100FD000CF01821B930B4E175F0728F060816E3B99
:100FE00011F43196F5CF0F90DF91CF9108950097CE
:100FF00041F0EFE9FFE03197F1F700C00000019701
:10100000F6CF08958436910538F064E670E00E94CA
:10101000511FCB010C94F707009731F025E32A9577
:10102000F1F700000197F8CF08956AE070E00E94A0
:10103000511FCB010C940208E82FF0E0EE0FFF1FC8
:10104000E756FD4F808191810895E82FF0E0EE0F83
:10105000FF1FE15BFD4F8081918108952FB7F894C8
:10106000E82FF0E0EE0FFF1FE554FD4F80819181E6
:101070002FBF0895809124030895809103029091D9
:1010800004020895262F613110F4423040F021E02F
:1010900030E0FC013383228331832083089550E0C4
:1010A000BA01620F711D620F711D660F771F660F07
:1010B000771F625F7F4F44E050E00C94DF1F2FB733
:1010C000F89480E090E0FC01EE0FFF1FEE0FFF1F91
:1010D000E352FD4F108211821282138201968131F8
:1010E000910589F784E690E0909322038093210391
:1010F000109223032FBF0895CF93CFB7F894109287
:101100000202109201021092FD011092FE01109253
:10111000FF01109200021092F9011092FA01109250
:10112000FB011092FC011092F5011092F601109251
:10113000F7011092F8010E9463189093F0018093D8
:10114000EF01CFBFCF9108950E947C081092F40167
:101150001092F3011092F2011092F1010895E5E06E
:10116000F2E01192119282E0EF34F807D1F708957E
:10117000CF93CFB7F89481E090E0909322038093CF
:101180002103809323030E94AF08CFBFCF9108951E
:10119000CF93DF930E94B808C0910302D09104025C
:1011A0008091030290910402C817D90729F48AE0BC
:1011B00090E00E948918F4CFDF91CF9108951092AA
:1011C000240380E00C944603CF93DF9381E00E94D8
:1011D0002E08EC0180E00E942E088C179D0718F461
:1011E000C81BD90B02C0C0E0D0E081E0C93ED340AB
:1011F00008F480E0DF91CF9108958F929F92AF9293
:10120000BF92CF92DF92EF92FF92CF93DF93CDB751
:10121000DEB728970FB6F894DEBF0FBECDBFF82E0D
:101220005B016115710509F445C040E0682FCE01EE
:1012300005960E94420841E06F2DCE0101960E9462
:1012400042082B813C8140E050E0CF80D884E12CE3
:10125000F12C2C193D094E095F09B50180E090E0A1
:101260008D809E80A12CB12C681979098A099B096F
:101270000E94411F29813A8140E050E02819390934
:101280004A095B090E94871F2C0D3D1D4E1D5F1DE5
:1012900057FD0BC02115310581E04807510544F089
:1012A0002FEF3FEF40E050E003C020E030E0A90125
:1012B000C90102C080E090E028960FB6F894DEBF26
:1012C0000FBECDBFDF91CF91FF90EF90DF90CF9019
:1012D000BF90AF909F908F9008958250893130F4E5
:1012E000E82FF0E0E459FF4F8081089581E00895F0
:1012F000CF93C82F833149F481E020917902309156
:101300007A022331310581F412C00E946D098130C7
:1013100069F4EC2FF0E0EE0FFF1FE15BFD4F208141
:1013200031812139314018F480E001C081E0CF9152
:101330000895EF92FF920F931F93CF93DF931F9225
:10134000CDB7DEB79FE101E010E0E12CF12C892F51
:1013500099830E9478099981882311F0E02AF12A63
:10136000000F111F9F5F953291F7C7010F90DF911A
:10137000CF911F910F91FF90EF9008952FB7F894A0
:101380006091EA017091EB018091EC019091ED0187
:101390002FBF20E03DE740E050E00E94651FC901FB
:1013A00008952FB7F8946091E6017091E70180915C
:1013B000E8019091E9012FBF9695879577956795FC
:1013C00020E03DE740E050E00E94651FC90108951C
:1013D00040917D0250917E028091EA019091EB0153
:1013E000A091EC01B091ED01840F951FA11DB11DDD
:1013F0008093EA019093EB01A093EC01B093ED018F
:101400008091E501815019F08093E501089582E310
:101410008093E5012091730230917402DA010E94F9
:10142000AC1F24E630E040E050E00E94651F809150
:10143000E6019091E701A091E801B091E901820FE6
:10144000931FA41FB51F8093E6019093E701A0931B
:10145000E801B093E901089580912103909122035E
:10146000892B49F080912103909122030197909359
:10147000220380932103089590E0880F991FFC01B7
:10148000E15BFD4F208131816217730718F4261B41
:10149000370B04C0AB01421B530B9A01FC01EB5FFD
:1014A000FD4F2730310518F01182108206C02081CF
:1014B00031812F5F3F4F31832083FC01E15BFD4F82
:1014C0007183608308958FB7F8941092EA011092A7
:1014D000EB011092EC011092ED011092E6011092D6
:1014E000E7011092E8011092E90192E39093E5017F
:1014F0008FBF0E94B8080E94A40860E070E089E1F4
:101500000E943C0A60E070E08BE10E943C0A60E0CF
:1015100070E08CE10E943C0A60E070E08DE10C9488
:101520003C0A10920402109203020C94630A9091F8
:10153000240391110BC00E9446030E94910A81E08E
:1015400080932403809360000C94C80808950C9441
:10155000910ACF92DF92EF92FF920F931F93CF9356
:10156000DF931F92CDB7DEB700914F02109150026A
:1015700080915102909152028017910718F4081B34
:10158000190B02C000E010E0B80182E10E943C0AA1
:1015900041E6E42E42E0F42E9FE1F7016191719162
:1015A0007F01892F99830E943C0A99819F5F953220
:1015B000A1F70E9499097C01EDE8F2E080E090E05B
:1015C000C12CD12C41E050E09A01082E02C0220F1C
:1015D000331F0A94E2F72E213F21232B21F0208193
:1015E0003181C20ED31E019632968630910561F785
:1015F000B60183E10E943C0AC114D10481F0C016F7
:10160000D10620F4C8018C199D0903C0C601801BB6
:10161000910B893B9B4018F4860193E103C092E152
:10162000E12CF12CB80184E199830E943C0AB701B6
:1016300086E10E943C0A9981692F70E085E10E9451
:101640003C0A0E940A11882329F0E0905502F0908C
:1016500056020BC00E945C12882329F0E0905302CE
:10166000F090540202C0E12CF12C9701D8010E94A5
:10167000AC1F20E137E240E050E00E94651FB90155
:1016800088E10E943C0AB70187E10E943C0A0E945F
:10169000BE09BC0189E10E943C0A0E94D109BC013B
:1016A0008AE10F90DF91CF911F910F91FF90EF9002
:1016B000DF90CF900C943C0A1F93CF93DF93182FA9
:1016C000C82FD0E0FE01EE0FFF1FEE0FFF1FE35209
:1016D000FD4F608171818281938128EE33E040E08B
:1016E00050E00E94651FFE01EE0FFF1FE756FD4F01
:1016F00031832083B901812F0E94FD08BC01812F15
:10170000DF91CF911F910C943C0A4F925F926F92A0
:101710007F928F929F92AF92BF92CF92DF92EF9281
:10172000FF92CF93DF93CDB7DEB728970FB6F8942B
:10173000DEBF0FBECDBF0E9463182091EF01309134
:10174000F001821B930B8133954708F4A4C04FB777
:10175000F8942091010230910202A8EEB3E00E94B9
:10176000AC1F6B017C01F694E794D794C79440902A
:10177000FD015090FE016090FF01709000026091A9
:10178000F9017091FA018091FB019091FC01809028
:10179000F5019090F601A090F701B090F8014FBFCD
:1017A0006D837E838F8398870E947C082091F3014C
:1017B0003091F4012F5F3F4F3093F4012093F301F8
:1017C0006D817E818F819885A70196010E94651F9A
:1017D00029833A834B835C83C301B201A70196013D
:1017E0000E94651FB90180E00E94FD083C016981EB
:1017F0007A8181E00E94FD088615970518F4681A21
:10180000790A02C0612C712C4090870250908802A6
:101810006414750420F48091EE01811104C0B301B9
:101820008CE10E943C0AB301641975098BE10E94A6
:101830003C0AC501B401A70196010E94651FB901C8
:1018400087E00E94FD082091F1013091F201909310
:10185000F2018093F101BC01621B730B660F771FCD
:101860008DE10E943C0AB6018EE128960FB6F894ED
:10187000DEBF0FBECDBFDF91CF91FF90EF90DF9025
:10188000CF90BF90AF909F908F907F906F905F9020
:101890004F900C943C0A28960FB6F894DEBF0FBE0A
:1018A000CDBFDF91CF91FF90EF90DF90CF90BF90B1
:1018B000AF909F908F907F906F905F904F90089522
:1018C000CF932FB7F89480912103909122032FBFDB
:1018D000892B09F091C08091230381118AC08091E6
:1018E0002403882309F47EC08091030290910402AE
:1018F000019690930402809303024091DD0250917F
:10190000DE026091DF027091E0027695679557954F
:1019100047958091FD019091FE01A091FF01B0914A
:101920000002840F951FA61FB71F8093FD0190939F
:10193000FE01A093FF01B09300024091E10250919B
:10194000E2026091E3027091E40276956795579503
:1019500047958091F9019091FA01A091FB01B09116
:10196000FC01840F951FA61FB71F8093F901909368
:10197000FA01A093FB01B093FC014091F902509150
:10198000FA026091FB027091FC027695679557957B
:1019900047958091F5019091F601A091F701B091E2
:1019A000F801840F951FA61FB71F8093F501909330
:1019B000F601A093F701B093F80180910102909194
:1019C0000202019690930202809301020E94850B0D
:1019D000C0E08C2F0E945C0BCF5FC131D1F70E9419
:1019E000A90A07C080916000882319F085E00E9451
:1019F0005C0BCF910C945F08CF9108950C94600C10
:101A00000E94770378940E9400030E9442050E947E
:101A100091120E943B110E94A70A0E94A6070E94F1
:101A2000FD0D0E9437160C9450160E94000D0E9466
:101A30003F1F80E090E008956DEC70E085E293E058
:101A40000E941F1689E890E0909326038093250357
:101A5000E9E2F3E080818C5E80830895FC012481BB
:101A60002451621710F40C941A16862F821B0C94C2
:101A70002110FF920F931F93CF93DF93EC018B0103
:101A800041110E941E2085E0F82EFA9459F0CE01F3
:101A90000E94F71F8017910739F084E690E00E94BA
:101AA0007518F3CF81E001C080E0DF91CF911F91E5
:101AB0000F91FF900895EF92FF920F931F93CF9392
:101AC000DF937B018C01E80EF91ECFEFDFEF0E15DF
:101AD0001F05A9F0C8010E94EF1FC82728E0CE010A
:101AE000969587953C2FEC0130FF04C031E0C32769
:101AF00030EAD327215099F70F5F1F4FE8CFCE016F
:101B0000DF91CF911F910F91FF90EF900895EF9289
:101B1000FF920F931F93CF93DF931F92CDB7DEB742
:101B20008C017B0149830E945B0D4981BC01C80186
:101B30008E0D9F1D0F90DF91CF911F910F91FF9000
:101B4000EF900C94390D482F6EE170E08AEB93E032
:101B50000C94870DDC015896ED91FC915997EE0F8E
:101B6000FF1FEE0FFF1FE950FF4F659175918591A3
:101B7000949108954EE150E069ED70E00C94CD1F12
:101B80008091390390913A0320913B0330913C03BB
:101B90002817390720F490933C0380933B038091EE
:101BA0003B0390913C038131974230F080E197E212
:101BB00090933C0380933B0380913D0390913E03BF
:101BC00020913F03309140032817390720F4909368
:101BD000400380933F0380913F03909140038938F5
:101BE000934130F088E893E19093400380933F0362
:101BF0000895FC0180810C940D034EE150E06AEBE6
:101C000073E08FE293E00E94DF1F8FE293E00C9479
:101C1000F90D4EE150E06AEB73E08FE293E00E9431
:101C2000FD1F81E00E94A30D8FE293E00C94F90D5B
:101C3000009761F09C0180E0F901459154912E5F7D
:101C40003F4F452B11F08F5FF7CF089580E0089547
:101C5000282F81E090E03AE0215038F0AC01349F29
:101C6000C001359F900D1124F7CF0895CF92DF92D8
:101C7000EF92FF92CF9397FF08C090958095709553
:101C800061957F4F8F4F9F4F07C06115710581058B
:101C9000910511F0C0E001C0C1E05AE0C52ED12C81
:101CA000E12CF12C611571058105910541F0CF5FA3
:101CB000A70196010E94871FCA01B901F3CF8C2F9B
:101CC000CF91FF90EF90DF90CF900895CF92DF9269
:101CD000EF92FF920F931F93CF93DF93EC017B0161
:101CE0006A01E881F981CF01B8010E94511F009774
:101CF00031F01E141F049CF4081B190B03C01E14A2
:101D00001F0474F4C901801B910BE817F90718F43C
:101D10000E0F1F1F01C08901198308830DC08C019C
:101D2000C8018C0D9D1D8E179F0718F4E01BF10B49
:101D300001C0F601F983E883DF91CF911F910F91E4
:101D4000FF90EF90DF90CF900895AF92BF92CF9227
:101D5000DF92EF92FF920F931F93CF93DF93EC01EB
:101D60007B016A0159016881798180E090E00E94DD
:101D7000360E823020F082500E94280E02C081E090
:101D800090E08C019501A601B701CE010E94660E7C
:101D9000DF91CF911F910F91FF90EF90DF90CF9047
:101DA000BF90AF90089520914D0330914E0395E080
:101DB000929FF001939FF00D1124E80FF11DEE0F9B
:101DC000FF1FE55FFE4F8591949108951F93CF9378
:101DD000DF93182FC0915103D09152030E94D30E6C
:101DE0009C01123061F480914D0390914E03029753
:101DF00031F4C730D10518F0219720EB34E02C9F47
:101E0000C0012D9F900D3C9F900D1124DF91CF912B
:101E10001F9108951F93CF93DF93182FC091510303
:101E2000D09152030E94D30E113029F480915703B0
:101E3000909158030DC0123029F48091590390916C
:101E40005A0306C0133021F480916B0390916C0308
:101E50009C012C9FC0012D9F900D3C9F900D112443
:101E6000DF91CF911F91089582E00E94E60EBC01A0
:101E700080E29EE40E94641020913B0330913C0379
:101E80002817390708F4C901089582E00E94E60E78
:101E9000BC0184EC99E00E94641020913F033091D2
:101EA00040032817390708F4C901089580914D03AC
:101EB00090914E030A97029750F081E00E94D30E52
:101EC000BC0188E799E60E94511FCB01089581E08B
:101ED00090E0089580914F039091500384369105CE
:101EE00030F484E690E09093500380934F03809108
:101EF0004F0390915003893E9D4F30F088EE9DEF47
:101F00009093500380934F0380915F0390916003FF
:101F1000893E934030F088EE93E090936003809385
:101F20005F030E94560F2091510330915203821794
:101F3000930720F4909352038093510380915103AF
:101F400090915203892B31F481E090E090935203F9
:101F5000809351030E94340F209153033091540316
:101F60008217930720F49093540380935303809136
:101F700053039091540320915B0330915C038217CB
:101F8000930720F490935C0380935B030E94450FBA
:101F900020915503309156038217930720F49093B4
:101FA0005603809355032091550330915603809139
:101FB0005D0390915E032817390720F430935E0388
:101FC00020935D038091390390913A03409153032C
:101FD000509154034817590720F490935403809369
:101FE000530340915B0350915C034817590720F459
:101FF00090935C0380935B0380913D0390913E033B
:102000002817390720F490935603809355032091A5
:102010005D0330915E032817390720F490935E0327
:1020200080935D03089598E2899FB001112468565A
:102030007F4F48E250E08DE493E00E94DF1F0C9454
:102040006A0FCF93C82F0E94131020914D03309137
:102050004E03232B21F00E949A160E94DA19209138
:102060004D0330914E032A30310571F02B3031058C
:1020700069F0232BC1F48C2F90E001960E947A190D
:102080008AE3CF910C94511989E00AC065E08091F0
:102090005303909154030E94691B0E94DA1984E053
:1020A000CF910C945C1667E080914F0390915003A0
:1020B0000E94661B8FE20E945119809151039091FA
:1020C0005203CF910C947A19AB019C01A8EEB3E0B6
:1020D0000E94AC1F9A0140E050E00E94651FA8EEEC
:1020E000B3E00E94C21F24E630E040E050E00E94CE
:1020F000651F2115310581E04807510520F02FEFBC
:102100003FEF40E050E0C901089580919003909125
:102110009103892B99F40E943A08882381F00E9448
:102120003D082091750330917603821B930B9C012F
:1021300081E02330310518F080E0089581E00895B2
:10214000815E0C942508CF93DF93EC01809190037E
:1021500090919103892B41F0209731F40E943D0822
:102160009093760380937503D0939103C09390036B
:102170000E94AF0880918F03811105C08C2FDF91E1
:10218000CF910C945803DF91CF910895FF920F9354
:102190001F93CF93DF9381E00E9492030E949909DD
:1021A000909394038093930303E813E0C7E7D3E08D
:1021B000F12C8F2D0E94A010F801819391938F0133
:1021C00089939993F394F6E0FF12F3CF1092910361
:1021D0001092900310928F0380E090E00E94A31071
:1021E00010927603109275038FEF80939203DF9124
:1021F000CF911F910F91FF90089580E090E00E9491
:10220000A31081E080938F0308950E94FD1080E069
:102210000C94920380919903089581E02091970393
:1022200030919803232B09F480E00895809197035F
:10223000909198030895813020E8920710F080E093
:1022400090E890939803809397030E9454030C9412
:10225000B80880919903882369F080E090E00E949B
:102260001B11109296031092950380E00E94400388
:1022700010929903089581E0809399030C94291199
:102280008091A2039091A3032091A503222341F002
:102290000E946B182091A2033091A303821B930B21
:1022A00008950F931F93CF93DF9381E00E940A0F4D
:1022B0008C0184E00E940A0FEC0184E10E94250851
:1022C00080179107B8F4C817D907B0F49C012C1BEC
:1022D0003D0BC8018C1B9D0B64E670E00E94511FF2
:1022E000C9010E94511F6436710510F063E670E069
:1022F000862F03C083E601C080E0DF91CF911F915C
:102300000F910895CF93DF930E9451119091A403F0
:102310009817E0F48093A4030E9440112091A70332
:102320003091A803EC01C21BD30B0E944011909383
:10233000A8038093A7038091A9039091AA038C1707
:102340009D0720F4D093AA03C093A903DF91CF91F6
:1023500008950E9482118091A603882311F089E6D6
:1023600001C084E690E02091A403821B9109209192
:10237000A9033091AA03AC01429FC001439F900D75
:10238000529F900D11240895209131033091320312
:102390002130310511F481E026C02115310511F4F9
:1023A00080E021C02430310529F48091A5038111FA
:1023B0000AC0F6CF2230310519F48091A50313C06D
:1023C0002330310581F485E00E94250820913303F4
:1023D00030913403A90152508417950708F3281748
:1023E0003907C8F208950C9434030E945F128111DA
:1023F0001DC00E940D11811119C00E9485108823F3
:1024000051F180919E0390919F03A091A003B09100
:10241000A10380599F4FAF4FBF4F80939E0390936E
:102420009F03A093A003B093A103089580919A0302
:1024300090919B03A0919C03B0919D0380599F4F65
:10244000AF4FBF4F80939A0390939B03A0939C033D
:10245000B0939D03D2CF08952CE0829FC001112438
:102460008D549C4F0C94A2128BEF93E00C94A2120B
:10247000CF93DF9300D000D0CDB7DEB782E10E94CA
:1024800025089A83898384E10E94250829813A815D
:10249000281B390B3A83298387E10E9425089C83F6
:1024A0008B83CE0101960E94A2120F900F900F9085
:1024B0000F90DF91CF91089580910304089581E0FA
:1024C0002091010430910204232B09F480E0089547
:1024D00080910104909102040895813020E89207D0
:1024E00010F080E090E890930204809301040E9431
:1024F00050030C94B80880910304882389F080E08D
:1025000090E00E946D121092020410920104109249
:1025100000041092FF0380E00E943A03109203042B
:102520000895109202041092010410920004109277
:10253000FF0380E090E00E946D1281E0809303042D
:102540000C947B12FC01428153814115510591F09D
:10255000A081B181B7FF03C0B195A195B10928EE63
:1025600033E00E94BB1F9A0140E050E00E94651FCB
:10257000C901089580E090E00895CF93DF93DC01D6
:102580001B96CD91DC911C9790E080E0FE012EE03F
:10259000829FE00DF11D1124329625913491211571
:1025A000310599F01D964D915C911E9737FF03C040
:1025B00057FF09C0305824233523232B21F06623ED
:1025C00029F061509F5F8F5FE1CF892FDF91CF911D
:1025D0000895EF92FF920F931F93CF93DF93EC0137
:1025E000F62E0E94BD129EE0899F80011124EB858A
:1025F000FC85E00FF11F859194910E949A19E82EB5
:10260000CE0109960E941E17882311F0298501C06A
:102610002FEF332727FD30956F2D70E026173707F2
:10262000E1F06FE06E19EB85FC85E00FF11F359648
:10263000F490FF2029F0862F8F190E94D6196F2D54
:102640008B859C85800F911F0496DF91CF911F9100
:102650000F91FF90EF900C94A016DF91CF911F91F6
:102660000F91FF90EF900895CF93DF93EC010E94BC
:10267000BD122B853C859EE0899F200D311D1124C4
:10268000F901369645915491CA01F9013496249185
:102690002150223030F4FA014591559165917491A1
:1026A000CB01DF91CF910895FF920F931F93CF93AA
:1026B000DF93EC018B016A818B81680FCE010E9450
:1026C000BD12F82E1E870D876FEFCE010E94BD123E
:1026D0008C8310E08C81181760F4612FCE010E946A
:1026E000BD128F1104C08A81181B1B8302C01F5F9B
:1026F000F1CFDF91CF911F910F91FF9008959F929D
:10270000AF92BF92CF92DF92EF92FF920F931F93FF
:10271000CF93DF93CDB7DEB72E970FB6F894DEBF19
:102720000FBECDBF7C01D62E942E0E9434138C0197
:102730006D2DC7010E94BD12D7011B966D917C9132
:102740001C97BEE08B9F600D711D1124685F7F4F49
:1027500046E050E0CE0107960E94CD1F86E0FE01C4
:102760003796DE01119601900D928A95E1F7A981C5
:10277000BA81CB80DC80AD80BE80E2E09E1619F08D
:1027800061E070E002C06FEF7FEFAF3FFFE7BF0790
:1027900031F49501A601C8010E94A50E33C0AE3FD9
:1027A0008FE7B80721F4CB01F60109952BC0AD3FA7
:1027B000FFE7BF0741F46D877E870E949F18A82F0F
:1027C000B0E07E856D856A9FC0016B9F900D7A9FFA
:1027D000900D1124D8012D913C911197820F931FD8
:1027E0008C159D051CF08D939C9303C0F801D1823C
:1027F000C082D8018D919C911197A816B90614F446
:10280000AD92BC92D7011F96ED91FC9150973097F5
:1028100019F0B801C70109952E960FB6F894DEBFDE
:102820000FBECDBFDF91CF911F910F91FF90EF9021
:10283000DF90CF90BF90AF909F900895EF92FF925E
:102840000F931F93CF93DF93EC018B819A81890FB4
:1028500089871A8681E08D8382E0E82EFF24F39435
:102860008E01075F1F4F0E94A618482F823011F07B
:10287000843089F4E881F9816B818A81680F028054
:10288000F381E02DCE0109958B819A81890F89878B
:10289000EA86FD8204C0813089F0883079F0C80171
:1028A0000E9429178111FD828D81882319F0CE01A4
:1028B0000E94A5148A858F5F8A87D5CF8FEF89877D
:1028C00081E08E838D83483009F080E0DF91CF91E5
:1028D0001F910F91FF90EF9008950895FC0187E9F3
:1028E00090E09183808312821382648381E08583E8
:1028F00086830895FC018481823010F022E001C0BB
:10290000282F9281492F50E030E0215031094217A1
:1029100053071CF49F5F928308952381420F511D3A
:1029200090E001974817590714F42F5F2383089507
:10293000FC018281882319F081508283089583816C
:10294000882311F0815083830895FF920F931F9382
:10295000CF93DF93EC0100E010E0F02E602F80E0D9
:102960000E943F198A81081302C08EE301C080E2F1
:102970000E9451196B819801260F311D8C8190E0C6
:102980002817390744F4E881F9816F0D0190F0812F
:10299000E02DCE0109950E94DD190F5F1F4F023017
:1029A0001105D9F61D82DF91CF911F910F91FF90F4
:1029B00008950F931F93CF93DF93EC010E94A61805
:1029C000182F0E94CB1C882321F081E08D838FE794
:1029D0001CC00B818A81080F123031F0143039F499
:1029E000CE010E947A1403C0CE010E9498148B81FC
:1029F0009A81890F081711F081E08D838D818823DA
:102A000019F0CE010E94A514812FDF91CF911F9163
:102A10000F910895EF92FF921F93CF93DF931F9230
:102A2000CDB7DEB77C0181E0F701858311E0C701F6
:102A300069830E94D9146981811102C0F70116824D
:102A4000F7019681911108C0883031F481E08683C6
:102A500083819281890F09C0662311F0F7011583E4
:102A6000813029F79111E3CF8FEF0F90DF91CF9154
:102A70001F91FF90EF900895DC011796ED91FC9166
:102A80001897E60FF11D64918BE991E00C94B2194F
:102A90000F931F93CF93DF93EC018B0180E061E0F4
:102AA000680FF801E80FF11DE491E93011F0862F6D
:102AB000F6CFCE010E946E148DE990E09983888351
:102AC00018870F83DF91CF911F910F9108956CECC0
:102AD00071E081E394E00E94481563EC71E088E2C4
:102AE00094E00E94481567EB71E08FE194E00E944A
:102AF00048156CEB71E086E194E00E94481561EBAB
:102B000071E08DE094E00E9448156FEA71E084E086
:102B100094E00C944815809131039091320303970F
:102B2000029718F48FEF9FE702C08EEF9FE7209186
:102B3000450330914603232B09F402970895CF9360
:102B4000DF93EC010E948B15BC01CE010E9454134F
:102B5000DF91CF910C94C00D1F93CF93DF93CDB72E
:102B6000DEB7AF970FB6F894DEBF0FBECDBF60E003
:102B700070E0CE014F960E941F168FEF88A78FE856
:102B800090E098A38F8F8DEC91E09BA78AA78FEFA1
:102B90009FE79DA78CA78FE995E19FA78EA71EE1D0
:102BA0000E948B15BC01CE014F960E94541360E029
:102BB000CE014F960E940A1587FD30C0682FCE01C6
:102BC0004F960E943413892B41F48FE293E00E94C8
:102BD000BA0D83E00E943F17E3CFEFE2F3E0DE019E
:102BE0001196812F01900D928A95E1F7CE014F96B3
:102BF0000E941E1481110AC0FE013196AFE2B3E0BB
:102C0000812F01900D928A95E1F703C083E00E9425
:102C10003F178FE293E00E94F90DC2CF0E94090E88
:102C2000AF960FB6F894DEBF0FBECDBFDF91CF9148
:102C30001F910895FC01878190850C94B2190F9320
:102C40001F93CF93DF93EC018B01CB010E94180EF1
:102C5000682FCE010E946E1483EA90E099838883E6
:102C600018870F83DF91CF911F910F9108950C94D6
:102C70006F1BCF93DF9300D0CDB7DEB789839A83E4
:102C80000E944D190E94451989819A810F900F90D9
:102C9000DF91CF910C949A1983EF92E00C9439163E
:102CA00085ED92E00E94391688EE93E00C94751839
:102CB0008FEF80933A040895FF920F931F93CF9361
:102CC000DF93F82E80E00E94E60E8C0120914D03E8
:102CD00030914E032A5031092230310558F481E0F9
:102CE0000E940A0F6F2DDF91CF911F910F91FF90DE
:102CF0000C946C1BC0915103D0915203CA3010F454
:102D000088E001C089E0F81A8F2D0E94D61965E08D
:102D1000C8010E946C1B8FE20E945119CE019927B5
:102D20000E947A1983E4DF91CF911F910F91FF9058
:102D30000C94511960914D0383E891E00C94B21901
:102D4000CF92DF92EF92FF920F931F93CF93C62FF4
:102D5000FC014591559165917491FB01433049F413
:102D60008C2FCF911F910F91FF90EF90DF90CF901C
:102D7000099446FF0DC04F736C2F80819181CF91D4
:102D80001F910F91FF90EF90DF90CF900C94E31A7A
:102D9000413011F1423009F049C0C590D590E5901D
:102DA000F490D701ED91FC91EE0FFF1FEC0DFD1D8E
:102DB000859194910E94D61FC81B8C2F0E94D61912
:102DC000F7016081C601CF911F910F91FF90EF90A5
:102DD000DF90CF900C94B219459155916591749103
:102DE000FB010190F081E02DEE0FFF1FEE0FFF1FA2
:102DF000E40FF51F6591759185919491C25024E679
:102E000030E040E050E00E94651F6C2FC9010E9435
:102E1000DD1A80E30E94511980E3CF911F910F9139
:102E2000FF90EF90DF90CF900C945119CF911F91AC
:102E30000F91FF90EF90DF90CF900895FC012081DB
:102E400027FD05C0818186958F5F8170089580E0A0
:102E50000895FC01208127FD09C081819FEF980F13
:102E60009695282F269581E0921301C080E0089561
:102E70000E9467189093400480933F040895209126
:102E8000370330913803232B09F488E090913C04F8
:102E9000981741F080933C040E94381782E390E039
:102EA0000C948918089590913C04983011F40C9476
:102EB0003F1708959C01462F50E0FA01EE0FFF1FC7
:102EC000E217F30764F04217530724F4862F880FA4
:102ED000821B08951216130614F4822F089580E0C1
:102EE0000895969587958531910518F46AE00C94BC
:102EF0005A1788E080933C0480E008951F93CF9395
:102F0000DF93EC01D695C795D695C795C93CD105F9
:102F10002CF088E080933C0480E00BC06AE0CE0196
:102F20000E945A17182F6AE0CE0188970E945A17FC
:102F3000810FDF91CF911F91089560ED77E00E949E
:102F4000511F6AE00C945A176AE070E00E94511F0A
:102F5000CB016D38710518F464E10C945A1788E0C0
:102F600080933C0480E008956AE070E00E94511F65
:102F7000CB01683B21E0720738F468E270E00E9400
:102F8000511F64E10C945A1788E080933C0480E060
:102F900008956AE070E00E94511FCB016135710510
:102FA00038F468E270E00E94511F64E10C945A17F3
:102FB00088E080933C0480E008956AE070E00E941D
:102FC000511FCB01683B21E0720738F468E270E0E2
:102FD0000E94511F64E10C945A1788E080933C04CE
:102FE00080E0089540913C0450E04830510598F449
:102FF000FA01E65DFF4F0C94A61F0C9471170C9418
:103000009D170C94A4170C94B4170C947E170C9471
:10301000C9170C94DD1780E008950E94671820916D
:103020003F0430914004821B930B0E94F217282F1B
:1030300030E040913D0450913E042417350731F0B3
:1030400030933E0420933D040C94690508952FB7F6
:10305000F8946091410470914204809143049091EE
:1030600044042FBF08950E94C4110E948D1E0E9427
:103070000D180C94FE0C8091410490914204A09193
:103080004304B09144040196A11DB11D80934104F5
:1030900090934204A0934304B09344048091610050
:1030A000815019F080936100089581EE8093610052
:1030B0000E94E8090C94F5110E94271896958795AF
:1030C0007795679508950E945C18CB0108950E943A
:1030D0002718CB0108950E945C1828EE33E040E0E9
:1030E00050E00E94651FC90108950F931F93CF936D
:1030F000DF93EC010E945C188B010E945C18601B3E
:10310000710B6C177D07C8F3DF91CF911F910F9161
:1031100008950F931F93CF93DF93EC010E945C18E7
:103120008B010E9433180E945C18601B710B6C1796
:103130007D07B8F3DF91CF911F910F910895E09132
:103140004504F0E0EC5FFC4F849108950F931F93CA
:10315000CF93DF93E0914504F0E0E05FFC4F1491E2
:10316000D0E003E087E090E00E9489180E94F70415
:10317000C82F90914804809147049C1779F08111E1
:103180000BC0C09348041092450410924604CC230F
:1031900041F10E94531725C0815001C08F5F809379
:1031A000470480914704843018F000934704DF5FA0
:1031B0001D17C0F690914504953098F4CC2389F002
:1031C000809146048F5F80934604E92FF0E0E65F2C
:1031D000FC4FE4918E1728F09F5F90934504109266
:1031E00046048C2FDF91CF911F910F9108958F92FC
:1031F0009F92AF92BF92CF92DF92EF92FF920F9386
:103200001F93CF93DF936B017C01EA0197FF0BC003
:103210008DE28883F094E094D094C094C11CD11CBA
:10322000E11CF11C2196C701B6010E94360EC80FA1
:10323000D11D18828E018AE0882E912CA12CB12CF0
:10324000C701B601A50194010E94871F605DF801C6
:1032500062938F0169017A01C114D104E104F10480
:1032600079F7CE01DF91CF911F910F91FF90EF90F1
:10327000DF90CF90BF90AF909F908F900895462F92
:10328000682F8EEA90E00C94061C60E080E00C94BD
:103290003F1961E080E00C943F198EEA90E00C94B5
:1032A000FF1B8A3011F40C944919682F8EEA90E0C4
:1032B0000C94C61CFF920F931F93CF93DF93EC01E6
:1032C000F12C009781F0062F112707FD10952F2D67
:1032D00030E0201731073CF4F3948991882319F0EA
:1032E0000E945119F4CF8F2DDF91CF911F910F9133
:1032F000FF900895CF93DF93CDB7DEB72B970FB62E
:10330000F894DEBF0FBECDBFBC0180E090E0AE01FF
:103310004F5F5F4F0E94F7186BE0CE0101960E944D
:103320005A192B960FB6F894DEBF0FBECDBFDF91B2
:10333000CF9108951F93CF93DF93009771F0182FCB
:10334000FC018E2F811B9491EF012196992331F07E
:10335000892F0E945119FE01F4CF80E0DF91CF91B7
:103360001F910895860F911D860F911DFC01859177
:1033700094910C949A190F931F93CF93DF931F92FC
:10338000CDB7DEB7082F10E016173CF4802F698305
:103390000E9451191F5F6981F7CF862F67FD80E07A
:1033A0000F90DF91CF911F910F910895682F80E2C8
:1033B0000C94BB1981E00C94D61980E10C94D619B9
:1033C0000F931F93CF93DF931F92CDB7DEB78C017E
:1033D000FC0101900020E9F73197E81BF90B862FDB
:1033E0008E1B69830E94D6196981C8010F90DF91F5
:1033F000CF911F910F910C945A191F93CF93DF9384
:10340000CDB7DEB72B970FB6F894DEBF0FBECDBF9A
:10341000142FAE014F5F5F4F0E94F718612FCE014E
:1034200001960E94E0192B960FB6F894DEBF0FBEEE
:10343000CDBFDF91CF911F9108954F925F926F9210
:103440007F928F929F92AF92BF92CF92DF92EF9234
:10345000FF920F931F93CF93DF93CDB7DEB72C97D7
:103460000FB6F894DEBF0FBECDBF4C01162F5A0128
:10347000222379F19C01A8EEB3E00E94AC1F6A01FF
:10348000E12CF12CA70196010E94871F69017A01A6
:10349000002341F0F094E094D094C094C11CD11C5E
:1034A000E11CF11CC701B6010E94360E8F5F90E04F
:1034B000212F332727FD30952817390754F04FEF78
:1034C000410FC701B6010E94FD198DE60E945119F6
:1034D0004DC0C401B5010E94511F80E090E09E01E3
:1034E0002F5F3F4F7901002331F02DE22983AE0198
:1034F0004E5F5F4F01C0A9010E94F7186C0132E0D6
:10350000A316B10478F1812F992787FD9095019733
:1035100096012E193F092817390724F5C401B50172
:103520000E94511F2501612C712CA3019201280FCB
:10353000391F411D511D85E6A816B10418F4A4E6F3
:10354000B0E002C0A8EEB3E00E94C21FA301920146
:103550000E94871FCA01B901A6010E94F7188EE2D6
:10356000F6018083612FC7010E94E0192C960FB6E7
:10357000F894DEBF0FBECDBFDF91CF911F910F91A9
:10358000FF90EF90DF90CF90BF90AF909F908F9083
:103590007F906F905F904F900895CF93C82F8DEFDD
:1035A000860F0E94D619C11103C08CEF94E002C0AF
:1035B00080E095E0CF910C949A19462FBC0180E0F1
:1035C00090E00C94FD19AF92BF92CF92DF92EF92F0
:1035D000FF920F93CF93DF9300D0CDB7DEB75C019E
:1035E0004D3069F40F900F90DF91CF910F91FF90C4
:1035F000EF90DF90CF90BF90AF900C94CD1A4C30ED
:1036000031F488EEA81683E0B80670F006C04530A5
:1036100059F4883EEDEF9E0738F089EF860F0E943F
:10362000D61984EF94E039C0C42ED12C85E0489F90
:10363000F0011124E75EFC4FE590F490C7014A8346
:1036400069830E94D61F6981681B4A81161694F50A
:10365000483039F4B7FE05C0B194A194B10801E037
:1036600001C000E085E08C9DF0018D9DF00D1124DE
:10367000E85EFC4F849195E09C9DF0019D9DF00DCE
:103680001124EA5EFC4F4591549121E0811101C063
:1036900020E0C5010E941D1AC7010F900F90DF9115
:1036A000CF910F91FF90EF90DF90CF90BF90AF90B0
:1036B0000C949A190F900F90DF91CF910F91FF907A
:1036C000EF90DF90CF90BF90AF90089545E00C94BD
:1036D000E31A40E00C94E31A41E00C94E31AFF92E1
:1036E0000F931F93CF93DF93CDB7DEB728970FB615
:1036F000F894DEBF0FBECDBF9EE0F92EF9821FE128
:103700001A8301E10B830C830D830E830F831887CB
:10371000AE014F5F5F4F60E08EEA90E00E943B1C7D
:10372000F9821A830B830C831D831E831F831887E2
:10373000AE014F5F5F4F61E08EEA90E00E943B1C5C
:10374000F9821A831B831C831D831E831F831887A2
:10375000AE014F5F5F4F62E08EEA90E00E943B1C3B
:1037600028960FB6F894DEBF0FBECDBFDF91CF9184
:103770001F910F91FF900895AC9881E090E00E9416
:103780001508AC9A81E090E00E941508AC9884E698
:1037900090E00C94150860FF02C0AB9A01C0AB9892
:1037A00061FF02C0AA9A01C0AA9862FF02C0A99A4A
:1037B00001C0A99863FF02C0A89A01C0A8980C9400
:1037C000BC1B1F93CF93DF93EC01162F442311F002
:1037D000AD9A01C0AD98612F70E084E07595679552
:1037E0008A95E1F7CE010E94CB1B612FCE01DF91BC
:1037F000CF911F910C94CB1B40E00C94E11B61E036
:103800000E94FC1B80ED97E00C941508CF93DF938A
:10381000CDB7DEB728970FB6F894DEBF0FBECDBF89
:1038200028E0E4E6F0E0DE01119601900D922A9581
:10383000E1F7FC012481421710F04FEF420FFE0127
:103840003196E40FF11DE40FF11D2081260F206851
:10385000622F28960FB6F894DEBF0FBECDBFDF9162
:10386000CF910C94FC1BFC016181262F24602183E5
:103870006C600C94FC1BCF92DF92EF92FF920F933F
:103880001F93CF93DF9300D0CDB7DEB77C01677075
:1038900088E0689FB00111246064C70149835A839E
:1038A0000E94FC1B4981C42E5A81D52E00E010E0F5
:1038B000F60161916F0141E0C7010E94E11B0F5FBA
:1038C0001F4F08301105A1F70F900F90DF91CF9196
:1038D0001F910F91FF90EF90DF90CF900895CF93BD
:1038E000DF93EC01423018F08881886088834C8334
:1038F0001D82222329F0413019F488818460888355
:10390000A39AA29AA19AA09A80E593EC0E94150826
:10391000AD98AC9863E0CE010E94CB1B84E991E1A5
:103920000E94150863E0CE010E94CB1B84E991E15F
:103930000E94150863E0CE010E94CB1B86E990E04F
:103940000E94150862E0CE010E94CB1B6881606274
:10395000CE010E94FC1B84E08983CE010E94331CAF
:10396000CE010E94FF1B82E08A8366E0CE01DF91D8
:10397000CF910C94FC1BA59AA49AFC01108220E024
:1039800041E060E10C946F1C0C94BB1C41E00E9470
:10399000E11B81E00895CF9380916200882391F02C
:1039A0000E94E408C82F882349F0809149048111BE
:1039B00002C00E944C1687E00E943F17C093490442
:1039C0008C2F01C080E0CF91089508958FE293E09D
:1039D0000E94AA0DAB01BC018BEC90E00C9469062F
:1039E0008BEC90E00E9425078BEC90E00C94DE06B7
:1039F000CF93C82F682F8BEC90E00E9430079091F6
:103A00004C049C2790934C04CF91089580916300BF
:103A1000813059F48091450390914603892B29F018
:103A20000E94E61C82E08093630008958091630009
:103A3000813029F00E94F01C81E08093630008959A
:103A40008BE30C94F81CCF93DF93EC0189918823CE
:103A500019F00E94F81CFACFDF91CF910895CF930F
:103A6000DF93CDB7DEB72F970FB6F894DEBF0FBE4A
:103A7000CDBFAE014F5F5F4F0E94F718CE01019698
:103A80000E94231D2F960FB6F894DEBF0FBECDBF48
:103A9000DF91CF910895CF93DF93EC0110924C0406
:103AA00084E20E94F81CBE0180E090E00E942F1D7D
:103AB0000E94201D60912E0370E06F5F7F4F88276A
:103AC00077FD8095982F0E942F1D0E94201D6091E8
:103AD0004D0470914E0480914F049091500428EE53
:103AE00033E040E050E00E94651F44275527CA019B
:103AF000B9010E942F1D8EE20E94F81C60914D04B6
:103B000070914E0480914F049091500424E630E06F
:103B100040E050E00E94651FCA01B9012AE030E090
:103B200040E050E00E94651F0E942F1DDF91CF9161
:103B30000C94201D8DE00E94F81C8AE00C94F81C67
:103B400060914C0470E080E090E00E942F1D0C9486
:103B50009A1DCF93DF9381E090E00E944B1DC1E658
:103B6000D3E0FE0184910E942508BC0180E090E032
:103B70000E942F1D0E94201D2196F3E0CF36DF0703
:103B800081F7C0E08C2F0E942C12BC0180E090E0F5
:103B90000E942F1D0E94201DCF5FC63099F70E9402
:103BA0003412BC0180E090E00E942F1D0E94201D75
:103BB0000E943812BC0180E090E00E942F1D0E94FC
:103BC000201D0E945111682F70E080E090E00E945B
:103BD0002F1D0E94201D0E94A911BC0180E090E0D1
:103BE0000E942F1D0E94201DDF91CF910C94A01DDB
:103BF000CF93DF93D82F82E090E00E944B1DC0E06E
:103C00008C2FDD2319F00E941C0802C00E94250899
:103C1000BC0180E090E00E942F1D0E94201DCF5F1C
:103C2000C53271F7609190037091910380E090E04C
:103C30000E942F1D0E94201D60E070E0CB010E94B9
:103C40002F1D0E94201DDF91CF910C94A01D83E0B9
:103C500090E00E944B1D0E94D607BC0180E090E0DE
:103C60000E942F1D0E94201D0E94BF07BC0180E002
:103C700090E00E942F1D0E94201D0C94A01DCF9348
:103C8000DF93C0914503D09146030E94A91DC23025
:103C9000D1056CF081E0C430D1050CF480E00E94C5
:103CA000F81D229721F0DF91CF910C94271EDF9110
:103CB000CF9108950F931F9380916300813051F14C
:103CC0000E945C1820916300223051F460935104EB
:103CD00070935204809353049093540410926300A1
:103CE00000915104109152042091530430915404D6
:103CF000DC01CB01801B910BA20BB30B80934D0415
:103D000090934E04A0934F04B09350041F910F91D1
:103D10000C943F1E1F910F9108950E943A08811143
:103D200005C010924B0410924A040FC00E943D0837
:103D300020914A0430914B042817390731F09093B1
:103D40004B0480934A040E945A1E0C94E51CEF9287
:103D5000FF920F931F93CF93DF931F92CDB7DEB7E0
:103D60008C017B010E941A16D8011996ED91FC91E5
:103D70001A97EE0DFF1D8491B9E0EB16F10418F5CA
:103D8000F801638569830E942E0869810E94DD1A0B
:103D9000E114F104C1F0F1E0EF1AF1088091900311
:103DA0009091910302C096958795EA94E2F780FF7F
:103DB0000AC08AE20F90DF91CF911F910F91FF907F
:103DC000EF900C9451190F90DF91CF911F910F91AB
:103DD000FF90EF900895CF93DF93CDB7DEB72C9788
:103DE0000FB6F894DEBF0FBECDBF0E94061D81E066
:103DF0000E94970A0E94C61068E275E0CE01019603
:103E00000E941F1689EA90E09A8389838FE195E0EA
:103E10009B878A8785E08C8701E010E061E0CE0116
:103E200001960E940A15992787FD90951816190684
:103E3000ACF7873091058CF40197980102C0220FEE
:103E4000331F8A95E2F7C9012091900330919103C5
:103E5000822793270E94A310E1CF0997F9F60E94C9
:103E600005110E94DF080E94161D0E94AC150E94D9
:103E7000061D81E00E94970A0E94C610CFCF0C94C5
:103E8000EB1EDB018F939F930E94C21FBF91AF91E6
:103E9000A29F800D911DA39F900DB29F900D1124A4
:103EA0000895AA1BBB1B51E107C0AA1FBB1FA61781
:103EB000B70710F0A61BB70B881F991F5A95A9F7D3
:103EC00080959095BC01CD010895A1E21A2EAA1B00
:103ED000BB1BFD010DC0AA1FBB1FEE1FFF1FA217BA
:103EE000B307E407F50720F0A21BB30BE40BF50BB7
:103EF000661F771F881F991F1A9469F76095709540
:103F0000809590959B01AC01BD01CF010895052ED0
:103F100097FB1EF400940E949E1F57FD07D00E943D
:103F2000651F07FC03D04EF40C949E1F50954095DE
:103F3000309521953F4F4F4F5F4F08959095809555
:103F4000709561957F4F8F4F9F4F0895EE0FFF1F24
:103F50000590F491E02D0994A29FB001B39FC00198
:103F6000A39F700D811D1124911DB29F700D811DA5
:103F70001124911D08950E94AC1FB7FF0895821B64
:103F8000930B08950E94AC1FA59F900DB49F900DB8
:103F9000A49F800D911D11240895FB01DC0102C036
:103FA00005900D9241505040D8F70895FC010590BE
:103FB0000020E9F7809590958E0F9F1F0895DC01F2
:103FC000CB01FC01E199FECF06C0FFBBEEBBE09A3E
:103FD00031960DB20D9241505040B8F70895E199D5
:103FE000FECF9FBB8EBBE09A99278DB30895A8E1C1
:103FF000B0E042E050E00C94E11FDC01A40FB51FDB
:104000004150504048F0CB01840F951F2E910E94E3
:104010000E2041505040D0F70895262FE199FECF51
:104020009FBB8EBBE09A01970DB2021631F02DBBFB
:104030000FB6F894E29AE19A0FBE08950196272FE1
:0C4040000E940E200C940D20F894FFCF7D
:10404C0001E10101000040001400540000000104D3
:10405C000104010101010101010000010101010143
:10406C000100020103000000002E0D00000000E919
:10407C00127F13000000006D14000000003C1500BE
:0E408C000000001A16000000001A16A71E0001
:00000001FF
