:100000000C94A9060C94D1060C94D1060C94D1063C
:100010000C9429090C94D1060C94D1060C94D106A9
:100020000C94D1060C9459090C94D1060C94D10669
:100030000C94D1060C94E8090C941D0A0C94D1067A
:100040000C9405090C94D1060C94D1060C94D1069D
:100050000C94D10661136D137113741376137B1313
:10006000781374136113563458345A345E345E3442
:100070005C34623460340000000080C64E5A0000D8
:1000800000007C6B0831000133000028D00780019C
:1000900033004023E80300000000C0AE4E5AFC537A
:1000A00050143FA0540B0000000000BBC436801861
:1000B0006009DC377017000000000000000000003D
:1000C000000044C4FA0E0000000000C4FB0E000053
:1000D000000068C4FD0E00000000AAC5160F000055
:1000E000000040C6190F0000000040C72D0F00009F
:1000F000000040C6190F0000000040C72D0FB000DF
:1001000032006001E8034F0132009E022C01FF0023
:1001100000000A00050400000004090000FF0101BE
:10012000000A040505000004040A0000FF020200A2
:1001300000020506000002040B0000FF030300009C
:10014000060507000006040C0000FF0000000A017D
:100150000513020001040D0000FF0101000A05055E
:1001600013040005040E0000FF0202000003051343
:10017000010003040F0000FF03030000070513083C
:100180000007041000008A0100006F7074696F6E30
:100190007300460003008813701701003200581BDB
:1001A0003200881310270000000003000000000048
:1001B00080250000004B00000096000000E10000D8
:1001C00000C2010001000100010001000100B004B3
:1001D0000807520300005203B0040807E8030000B8
:1001E000E803D0079209D60600006C07E40C100E55
:1001F000D007E40CB80B100E0410C409A60EAC0D09
:10020000740E6810B80B0A0F890C740ECC10B80B62
:100210000A0F890C740EFE10B80B0A0F890C4006E9
:100220006C071405400678050100A00FD0070100F7
:1002300001000100A00F0100010001000400000105
:100240000202020202030405120C080C030CFE0B4E
:10025000F90BF40BEF0BEA0BE50BE00B0D0CDC0BD1
:1002600060199F19C51A551B601B6B1B531C4F1C33
:10027000831C3E1D4A1D4F1DE61DE31DED1D141E72
:100280001B1E3E1E8E205E2064202D23601B2F230C
:100290000507660902004400630201000000102700
:1002A0006109FF7F4900B5020000000000009609C7
:1002B000040049006A040100000001000000000081
:1002C0000000000000000000000066090200440079
:1002D00067020100000010276109FF7F4900B90291
:1002E0000000000000009609040049006A040100B3
:1002F00000000100000000000000000000000000FD
:10030000000000015A0902004100590201000000EA
:10031000CC8D5209020041005B0201000000CC8D2F
:100320009609040049006A04010000000100000071
:10033000000000000000000000000000D50982005D
:1003400041006502010000003075D00982004100C3
:100350009B02010000008813CB09820041009D022E
:10036000010000008813C609820041009F020100BD
:1003700000008813C10982004100A10201000000B1
:100380008813BC0982004100A30201000000881309
:10039000B70982004100A502010000008813B209DC
:1003A00082004100A702010000008813AD0982000D
:1003B0004100A902010000008813A709FF7F410046
:1003C0008302000000000000A109FF7F41008102BC
:1003D0000000000000009609040049006A040100C2
:1003E000000001000000000000000000000000000C
:1003F000000006090A0B0C0D0E0F10062122232403
:100400002526272874096C0900006400E8036400AD
:10041000E80383097C090000900989090000160A95
:100420000D0A010AF509E909DA0900002F0C250C6B
:10043000170C0000FB0AFF7F0200AE050100000060
:100440000B00F80A0F0003009331FE7F962B00008B
:10045000F40A0E8041007C03010000008813F40AB6
:10046000100041007C0332000000CC8DE70A0180BF
:1004700041007C030100B004D007E70A20004100DE
:100480007C03FF7F0100CC8DF00A048041009003C3
:10049000010000008813EC0A0F8041007E03010078
:1004A00000008813EC0A100041007E0332000000B7
:1004B000CC8DE20A1F0045007403FF7F6400F47EC8
:1004C000DE0A3F0040007803FF7F0100581BD70A77
:1004D0001E8040008003FF7F0100581BD30A1F00CD
:1004E00040007A03FF7F01008813CC0A1F80400080
:1004F0008203FF7F01008813C20A0C804800920328
:1005000001000300C800B90A01004D00900301007A
:1005100000000100B40A0002480092030100ECFF51
:100520000000A80A00024B009403010001000A0029
:100530009F0A1F004D008603010000000100970A7A
:1005400000044A0696030A000A0084038B0A00018D
:100550004403880364005802AC26850A3F004C001F
:100560008403FF7F0000E8037B0A1F0047008E031F
:1005700001000100FA006F0A03004900980301001E
:1005800000000500650A1F804B008C03010001007C
:1005900063005A0A1F804D008A0301000000010019
:1005A0000000000000000000000000000000480201
:1005B0007203A30C940C8C0C820C760C6E0C5F0CEA
:1005C000540C450C380C000900030407080900030B
:1005D00007080900010203040809000102030405D9
:1005E00006080909D10BFF7F4900540301000000F0
:1005F0006400C90BFF7F0200DE060100000004005A
:10060000BE0B01004400580364005802AC26B30B33
:10061000FF7F44035A0364005802AC26AD0BFF7FF2
:100620004D005C03010000000100A50BFF7F4000AE
:100630005E0301000100F4019D0BFF7F4000600399
:10064000FF7F0100581B950BFF7F400062030100F4
:100650000100F4018D0BFF7F40006403FF7F010068
:100660008813810BFF7F41036603E803581B307535
:10067000760BFF7F4D006803010000000100700B46
:10068000FF7F0200D006010000000400680B02009A
:100690000100CC06010000000400610BFF7F020096
:1006A000C4060100000001005B0BFF7F000000009A
:1006B000000000000000000000000000000000003A
:1006C00000000000C80670030D0B040BB0016C03A2
:1006D000D4066A03520B4B0B450B3C0B330BE20663
:1006E0005603520B2C0B240B1C0B140B20202D2D0E
:1006F000202000636865616C692D636861726765BD
:10070000720A76312E39395F32303136303130333A
:100710000063616C69626174696F6E206572726FEB
:100720007200706C656173652063616C69627261EF
:10073000746500656570726F6D2072657365740A0B
:100740006572726F723A2000726573657474696EB7
:100750006720656570726F6D0020202020202020AA
:10076000202020202079657300656570726F6D20F0
:1007700072657365743A0052455645525345205090
:100780004F4C4152495459006572726F723A2020A1
:10079000202000636F6D706C6574653A2000D7315E
:1007A0000000004000000000BE32004000000000D9
:1007B00000406830FFFFFF7F040000405C31FFFF16
:1007C000FF7F040000401C310002000008000040D0
:1007D000283100020000080000403C310002000007
:1007E00000000040592E00000060000000005D2E57
:1007F0000000006000000000612E000000600000AA
:100800000000652E0000002004000040692E00005A
:100810000020040000406D2E000000200400004075
:10082000BF30FFFFFF7F040000409D30FFFFFF7FD0
:1008300000000040F930FFFFFF7F000000003B3266
:1008400080010000000000407C30FFFFFF7F0400BB
:100850000000DD30FFFFFF7F000000000000FFFF11
:10086000FF7F00000000250064656C746120543D2A
:1008700020004E2F4100546578743D0064656C740F
:100880006120563D20006D6178566F75743D0054AF
:10089000696E743D002D00546578743D00206C69CC
:1008A0006D69743D0056696E7075743D00776972AC
:1008B000657320523D00626174742E20523D0062C7
:1008C00020004C696D6974733A20006E6F20645487
:1008D0002F740025200043684342426C446946431C
:1008E00053745342435943430001010308141E014A
:1008F00004FA7D3C1E0A01E80301450DE8030043AC
:100900000D640000410D6400003E0D6400003C0DCC
:10091000E80301390DE80301370D010000350DE84A
:100920000301430D0100002E0D640000310D010094
:10093000002F0D0100002F0D01000000000100003C
:100940002C0D16191B1A1C07050621222324252607
:100950002728566D696E75733A0056706C75733A38
:10096000006164633A0074656D703A00496F757494
:100970003A20200076616C75653A200031303030C5
:100980006D41003130306D4100313030306D41000B
:100990003130306D410063616C69622E20702E3AF7
:1009A00000566F75743A0056312D383A0056623849
:1009B0003A005662373A005662363A005662353A85
:1009C000005662343A005662333A005662323A00B8
:1009D0005662313A0056696E3A00657870657274F5
:1009E0002044414E474552210074656D7020696E68
:1009F0007465726E0074656D702065787465726ED2
:100A00000049206469736368617267650049206307
:100A1000686172676500766F6C746167650062611A
:100A20006C616E636520706F727421006261747412
:100A30006572792100646973636F6E6E656374001B
:100A4000636F6E6E6563740064542F6474002D646C
:100A5000560056206C696D69740061646170742081
:100A60006469733A00442F4320726573743A0044FA
:100A70002F43206379636C65733A00636170204390
:100A80004F66663A0074696D653A007C65787472E9
:100A90006E2054434F3A007C64542F64743A0065CE
:100AA0007874726E20543A007C69676E72206672A8
:100AB00073743A007C64563A00656E616220645635
:100AC0003A0062616C2E206572723A006D696E495F
:100AD000643A0049643A006D696E49633A004963BB
:100AE0003A004361703A0056636F3A0056643A0028
:100AF00056733A0056633A00563A00626174746560
:100B000072793A00616476616E6365640073696D41
:100B1000706C6500542D70726F67720054656D7053
:100B20006572610070726F6772616D00616C7761F0
:100B30007973006578742E20416463006578742EA3
:100B400020646562006465627567006E6F726D6136
:100B50006C0064697361626C6564007265736574CE
:100B6000006D656E75733A007C73706565643A005C
:100B7000554152543A00616463206E6F6973653A5F
:100B800000696E707574206C6F773A20006D617823
:100B90002049643A006D696E2049643A006D6178BD
:100BA0002049633A006D696E2049633A00626565C9
:100BB000703A006469736368206F66663A007C6609
:100BC000616E2054206F6E3A0066616E206F6E3A3F
:100BD000006261636B6C696768743A004C4544005D
:100BE0004E695A6E004C343335004C343330004C6F
:100BF00069706F004C696C6F004C696665005062EB
:100C00002020004E694D48004E69436400556E6BCC
:100C10006E004E6F6E650072657365742064656664
:100C200061756C740063616C6962726174650073F4
:100C3000657474696E6773006564697420626174B9
:100C400074657279006361706163697479206368A7
:100C500065636B00443E4320666F726D6174007380
:100C6000746F726167652B62616C616E630073748F
:100C70006F72616765006661737420636861726793
:100C800065006469736368617267650062616C61C5
:100C90006E6365006368617267652B62616C616E8B
:100CA000636500636861726765006578742E7465BA
:100CB0006D702E6375746F66660074696D65206C67
:100CC000696D69740063617061636974792063752B
:100CD000746F666600696E707574205620746F209C
:100CE0006C6F77004857206661696C7572650062A9
:100CF000616C616E63657220646973632E00696E56
:100D0000742E74656D702E6375746F666600626113
:100D1000747465727920646973632E006E6F6C69F8
:100D20006D697400206E6F00796573005500006D69
:100D300000432F6D002500F4004168004300576810
:100D400000570056004100009A07540BE911DB2CB4
:100D5000043011241FBECFE5D8E0DEBFCDBF10E0C8
:100D6000A0E6B0E0ECE4F8E702C005900D92A43BE9
:100D7000B107D9F714E0A4EBB0E001C01D92AB3E7F
:100D8000B107E1F71DE0C2E5DDE004C02297FE01F6
:100D90000E94C93BC834D107C9F70E94E2110C94E4
:100DA000243C0C94000020E042E060E185EB90E000
:100DB0000E94F4380E94DC090C949E07CF92DF92C7
:100DC000EF92FF92482F282F30E0A0E0BDE70E946D
:100DD000353B6B017C01A4E6B0E0A41BB10924E61D
:100DE00030E00E94443B6C0D7D1D8E1D9F1D24E64E
:100DF00030E040E050E00E94863BB9018DE0FF907A
:100E0000EF90DF90CF900C94C609882311F0909A50
:100E10000895909808958091BB00882331F08091C7
:100E2000B4008F5F8093B40002C01092B400809130
:100E3000BB008A3010F480E001C084E09091BB00D8
:100E4000943108F082E09091BB009E3108F081E07F
:100E50009091B400982311F0979A08959798089567
:100E60008093BB000895811102C0969A08959698C8
:100E70000895811102C0929A08959298089581115F
:100E800007C0939AC4980E94330780E00C943907F6
:100E90009398C49A0895BC018EE00C94C609BC01D5
:100EA0008EE00C94C60980FF02C0C09A01C0C098B1
:100EB00081FF02C0C19A01C0C19882FF02C0C29ADC
:100EC00001C0C29883FF02C0C39A01C0C39884FFC7
:100ED00002C0DE9A01C0DE9885FF02C0DF9A01C021
:100EE000DF9886FF02C0AE9A01C0AE9887FF02C0AD
:100EF000AF9A0895AF98089580E00E943F0780E080
:100F00000E9405071092BB0080E00E9453078C9A54
:100F10008B9A889A8F9AB89AB99ABA9ABB9AD69AA3
:100F2000D79AA69AA79ABC9A8D9A8E9A8D9A8A9ADF
:100F30000895089585EB90E00C944939D598D4989C
:100F4000DD98DC98BF9ABE9ABD9A8EEA86B9369A29
:100F5000089534B145B1E091C700E33131F12FB7C5
:100F6000F894832F90E0942BF0E0DF01AA0FBB1FD1
:100F7000AF52BD4F11969C938E933091BF00332397
:100F800091F0EE0FFF1FEE0FFF1FE950FD4F408164
:100F9000518162817381480F591F611D711D40830A
:100FA0005183628373832FBF08952091C8003091CD
:100FB000BC0047FD02C0232B02C0209523232093B1
:100FC000BC0008950E949C239093F4028093F30246
:100FD0000E94B11C9093F6028093F5028091BF00AD
:100FE000882309F485C00E949C2340913B035091C3
:100FF0003C0360913D0370913E03480F591F611DF2
:10100000711D40933B0350933C0360933D037093E9
:101010003E030E94B11C40913F03509140036091F8
:10102000410370914203480F591F611D711D409388
:101030003F035093400360934103709342038091B8
:10104000430390914403019709F050C08091FF023F
:1010500090910003A0910103B0910203B695A7956A
:10106000979587958093FF0290930003A0930103C7
:10107000B09302038091F7029091F802A091F902D7
:10108000B091FA02B695A795979587958093F70248
:101090009093F802A093F902B093FA028091FB02B8
:1010A0009091FC02A091FD02B091FE02B695A79529
:1010B000979587958093FB029093FC02A093FD0285
:1010C000B093FE028091030390910403A091050365
:1010D000B0910603B695A7959795879580930303DE
:1010E00090930403A0930503B09306030C94ED0EB4
:1010F00008958091680390916903892BE9F04091EC
:10110000C4004423C9F081E090E00090C10002C017
:10111000880F991F0A94E2F720914303309144030A
:101120002F703FB7F8945BB39BB3982B9BBB240FF6
:101130002A95F1F75BBB3FBF08958091BE008F5F9A
:10114000883108F080E08093BE0085E0E0ECF0E0BC
:10115000A5ECB0E001900D928A95E1F76091BE0098
:101160006F5F683108F060E085E0689FB00111248E
:10117000625F7E4F45E050E080EC90E00E94CD3B06
:101180008091BE0081110CC00E94E2078091430350
:101190009091440321E0892B09F420E02093BF00C3
:1011A00008950E94A9078091BD0091E0980F909347
:1011B000BD008730D9F018F4882331F008958830C5
:1011C000B9F08930D1F008958091C00087FD19C031
:1011D0003FB7F89428B38091C00040E2849FC001DB
:1011E00011242F71282B28BB3FBF08950C94790838
:1011F0008091C100806287B908951092BD000C945F
:101200009D0808958091BC0008951F920F920FB61B
:101210000F9211242F933F934F935F936F937F937C
:101220008F939F93AF93BF93EF93FF930E94D10847
:10123000FF91EF91BF91AF919F918F917F916F91AE
:101240005F914F913F912F910F900FBE0F901F9084
:1012500018951F920F920FB60F9211242F933F9360
:101260004F935F936F937F938F939F93AF93BF93AE
:10127000EF93FF930E949434FF91EF91BF91AF9150
:101280009F918F917F916F915F914F913F912F919E
:101290000F900FBE0F901F90189588E085BD85B503
:1012A000846085BD14BC8CE783BD89B7806889BF25
:1012B00008951F920F920FB60F9211242F933F9310
:1012C0004F935F936F937F938F939F93AF93BF934E
:1012D000EF93FF932091D0003091D1008091CC000A
:1012E0009091CD00820F931F9093CD008093CC00FE
:1012F0002091CE003091CF008091CA009091CB0018
:10130000820F931F9093CB008093CA002FB7F8945D
:101310008091CC009091CD0035E0969587953A95D7
:10132000E1F79BBD8ABD8091CA009091CB0045E05A
:10133000969587954A95E1F799BD88BD2FBF809115
:10134000CC009091CD008F7199279093CD00809320
:10135000CC008091CA009091CB008F719927909317
:10136000CB008093CA000E940B07FF91EF91BF91C1
:10137000AF919F918F917F916F915F914F913F912D
:101380002F910F900FBE0F901F9018959FB7F89454
:101390008E3039F47093D1006093D0008FB580689F
:1013A00008C08D3039F47093CF006093CE008FB5B4
:1013B00080628FBD9FBF089580E094E097BD86BD99
:1013C00082E08FBD89E18EBD89B7846089BF0895B1
:1013D0001F920F920FB60F9211242F933F934F93AA
:1013E0008F939F93EF93FF935A991AC04CB18091BA
:1013F000E8019091E901019699272091EA01309145
:10140000EB018217930769F0E091E801F091E9019F
:10141000E851FF4F40839093E9018093E80101C0B8
:101420008CB1FF91EF919F918F914F913F912F91AF
:101430000F900FBE0F901F9018951F920F920FB62E
:101440000F9211242F933F938F939F93EF93FF93CA
:101450002091E8013091E9018091EA019091EB013E
:101460002817390711F4559812C0E091EA01F0915C
:10147000EB01E851FF4F20818091EA019091EB014F
:10148000019699279093EB018093EA012CB9FF9183
:10149000EF919F918F913F912F910F900FBE0F90E1
:1014A0001F901895CF92DF92EF92FF92CF93DF9328
:1014B000EC016A017B01411581EE58076105710558
:1014C000F9F0E885F98581E090E00C8802C0880F8A
:1014D000991F0A94E2F7808360E079E08DE390E061
:1014E000A70196010E94863B21503109410951090B
:1014F0005695479537952795211580E1380798F03F
:10150000E885F985108260E874E88EE190E0A70133
:1015100096010E94863B2150310941095109569597
:10152000479537952795EC81FD813083EE81FF81CA
:1015300020831D8AEA85FB85408181E090E09C0143
:10154000098802C0220F331F0A94E2F7422B40831E
:10155000EA85FB8540819C010A8802C0220F331F67
:101560000A94E2F7422B4083EA85FB8520810B88B1
:1015700002C0880F991F0A94E2F780958223808326
:10158000DF91CF91FF90EF90DF90CF900895CF93B0
:10159000DF93FC0182819381DC01B395EC01CE5F86
:1015A000DE4F4D915C911197288139814217530785
:1015B000C1F7A285B3854C9181E090E09C01018840
:1015C00002C0220F331F0A94E2F7209524232C93A4
:1015D000A285B3854C919C01028802C0220F331F63
:1015E0000A94E2F7209524232C93A285B3852C91AD
:1015F000038802C0880F991F0A94E2F7809582231E
:101600008C9380819181FC01EE5FFE4F20813181BE
:10161000FC01F39531832083DF91CF910895FC0184
:101620008589882329F0A085B1858C9186FFFBCF21
:10163000158A0895CF93DF93FC0122813381D9016C
:10164000B3958D919C91119701969927E901CE5FF1
:10165000DE4F4881598184179507D9F30D90BC91CD
:10166000A02DA20FB31F6C93A281B381B3951196E5
:101670009C938E93A285B3852C9181E090E00388A2
:1016800002C0880F991F0A94E2F7282B2C9381E05F
:10169000858B0084F185E02D80818064808381E0EA
:1016A00090E0DF91CF91089588EE90E09093D30081
:1016B0008093D2009093D5008093D40080E490E092
:1016C0009093D7008093D60029E230E03093D90080
:1016D0002093D8002BE230E03093DB002093DA0037
:1016E0002AE230E03093DD002093DC009093DF00AD
:1016F0008093DE008CE290E09093E1008093E00024
:1017000084E08093E20083E08093E30087E08093AD
:10171000E40085E08093E50081E08093E600089591
:10172000CF93DF931F92CDB7DEB7E091E704F0913E
:10173000E804309711F4EBEEF4E0CE0101962EEBC5
:101740008E179F0710F02193FBCF0F90DF91CF9161
:101750000895CF93DF9300D0CDB7DEB72091E70493
:101760003091E8042115310511F42BEE34E0CE015F
:101770000196821B930B0F900F90DF91CF910895EC
:10178000CF93DF931F92CDB7DEB72091E70430915E
:10179000E8042115310511F42BEE34E0F901AE0116
:1017A0004F5F5F4FCF01821B930B4E175F0728F0EF
:1017B00060816E3B11F43196F5CF0F90DF91CF91A0
:1017C0000895009741F0EFE9FFE03197F1F700C08D
:1017D00000000197F6CF08958436910538F064E64D
:1017E00070E00E94723BCB010C94E10B019728F052
:1017F00025E32A95F1F70000F9CF08956AE070E03B
:101800000E94723BCB010C94EC0BE82FF0E0EE0F42
:10181000FF1FE555FD4F808191810895E82FF0E08D
:10182000EE0FFF1FE75AFD4F8081918108952FB77A
:10183000F894E82FF0E0EE0FFF1FEF52FD4F80818C
:1018400091812FBF089580914603089580910502EC
:101850009091060208958091F3019091F40108950A
:101860008091F5019091F60108958093F00108951B
:10187000E82FF0E0EE0FFF1FE95FFD4F80819181BF
:101880000895262F633110F4423040F021E030E01B
:10189000FC013383228331832083089550E0BA0111
:1018A000620F711D620F711D660F771F660F771F24
:1018B000645F7F4F44E050E00C94DF3B282FCA0167
:1018C000233188F4623078F470E0620F711D620F8A
:1018D000711D660F771F660F771F645F7F4F44E0AF
:1018E00050E00C94FD3B0895FF920F931F93CF930C
:1018F000DF9300D000D0CDB7DEB706E710E0F12CC3
:10190000F801459155916591749149835A836B8390
:101910007C83AE014F5F5F4F60E08F2D0E945E0CB5
:10192000F8013496459155916591749149835A8394
:101930006B837C83AE014F5F5F4F61E08F2D0E9410
:101940005E0CF394085F1F4F83E1F812D9CF81E05A
:101950000E9470120F900F900F900F90DF91CF9117
:101960001F910F91FF90089581E02091870230919F
:1019700088022531310509F080E0089580918502C3
:10198000909186020895809181029091820208953B
:1019900080918B0290918C020895809133029091F6
:1019A0003402039750F08091390290913A020397E4
:1019B00020F083E090E00C94D91980E008952FB7CF
:1019C000F89480E090E0FC01EE0FFF1FEE0FFF1F88
:1019D000E950FD4F108211821282138201968331E9
:1019E000910589F784E690E0909344038093430344
:1019F000109245032FBF0895CF93CFB7F89410925C
:101A00000402109203021092FF0110920002109241
:101A10000102109202021092FB011092FC0110923E
:101A2000FD011092FE011092F7011092F801109240
:101A3000F9011092FA010E94BC349093F201809354
:101A4000F101CFBFCF9108950E94FC0C1092F601D6
:101A50001092F5011092F4011092F3010895E7E05D
:101A6000F2E01192119282E0E935F807D1F708957A
:101A7000CF93CFB7F89481E090E0909344038093A4
:101A8000430381E0809345030E942F0DCFBFCF9188
:101A90000895CF93DF930E94380DC0910502D09135
:101AA00006028091050290910602C817D90729F411
:101AB0008AE090E00E94E234F4CFDF91CF91089564
:101AC0001092460380E00C943F07CF93DF9381E0B0
:101AD0000E94170CEC0180E00E94170C8C179D07E8
:101AE00018F4C81BD90B02C0C0E0D0E081E0C93EA9
:101AF000D34008F480E0DF91CF9108958F929F92B8
:101B0000AF92BF92CF92DF92EF92FF92CF93DF938B
:101B1000CDB7DEB728970FB6F894DEBF0FBECDBFA6
:101B2000F82E5B0161157105D1F140E0682FCE01FF
:101B300005960E94410C41E06F2DCE0101960E9456
:101B4000410C2B813C8140E050E0CF80D884E12CD7
:101B5000F12C2C193D094E095F09B50180E090E098
:101B60008D809E80A12CB12C681979098A099B0966
:101B70000E94563B29813A8140E050E028193909FA
:101B80004A095B090E94A83B2C0D3D1D4E1D5F1D9F
:101B900057FF03C020E030E0A901C90102C080E086
:101BA00090E028960FB6F894DEBF0FBECDBFDF9150
:101BB000CF91FF90EF90DF90CF90BF90AF909F902C
:101BC0008F9008958F929F92AF92BF92CF92DF92A3
:101BD000EF92FF92CF93DF93CDB7DEB728970FB682
:101BE000F894DEBF0FBECDBFF82E5B016115710505
:101BF000D1F140E0682FCE0105960E94410C41E0F2
:101C00006F2DCE0101960E94410C29813A8140E05E
:101C100050E0CD80DE80E12CF12C2C193D094E09DD
:101C20005F09B50180E090E08F809884A12CB12CF1
:101C3000681979098A099B090E94563B2B813C81CE
:101C400040E050E0281939094A095B090E94A83B85
:101C50002C0D3D1D4E1D5F1D57FF03C020E030E0E1
:101C6000A901C90102C080E090E028960FB6F8945F
:101C7000DEBF0FBECDBFDF91CF91FF90EF90DF9021
:101C8000CF90BF90AF909F908F90089582508B31EE
:101C900030F4E82FF0E0EF58FF4F8081089581E0A5
:101CA0000895CF93DF93853149F481E02091870235
:101CB0003091880225313105C1F41AC0E82FF0E0D7
:101CC000EE0FFF1FE75AFD4FC081D1810E94460EE3
:101CD000882319F0813029F00AC081E0E39740F4AD
:101CE00004C081E0C935D24018F480E001C081E031
:101CF000DF91CF910895EF92FF920F931F93CF93AF
:101D0000DF931F92CDB7DEB791E201E010E0E12C46
:101D1000F12C892F99830E94510E9981882311F00B
:101D2000E02AF12A000F111F9F5F993291F7C70136
:101D30000F90DF91CF911F910F91FF90EF90089539
:101D40000E947B0E0C94A7141F93CF93DF931F92D6
:101D5000CDB7DEB7182F69830E94460EE12FF0E061
:101D6000EE0FFF1FE75AFD4F482F69818081918157
:101D70000F90DF91CF911F910C9466372FB7F89495
:101D80006091EC017091ED018091EE019091EF0175
:101D90002FBF2DE730E040E050E00E94863BBB279C
:101DA000A52F942F832F089520918B0230918C02C0
:101DB0008091EC019091ED01A091EE01B091EF01C5
:101DC000820F931FA11DB11D8093EC019093ED0133
:101DD000A093EE01B093EF01089580914303909199
:101DE0004403892B49F08091430390914403019768
:101DF0009093440380934303089590E0880F991FC4
:101E0000FC01E75AFD4F208131816217730718F4F6
:101E1000261B370B04C0AB01421B530B9A01FC017C
:101E2000E95FFD4F2730310518F01182108206C09E
:101E3000208131812F5F3F4F31832083FC01E75A9E
:101E4000FD4F7183608308958FB7F8941092EC0171
:101E50001092ED011092EE011092EF018FBF0E94DF
:101E6000380D0E94240D60E070E08BE10E94FD0EB1
:101E700060E070E08DE10E94FD0E60E070E08EE1B8
:101E80000E94FD0E60E070E08FE10C94FD0E109258
:101E90000602109205020C94240F909146039111B2
:101EA00009C00E943F070E94470F81E080934603CC
:101EB0000C94490D08950C94470FAF92BF92CF92A6
:101EC000DF92EF92FF920F931F93CF93DF931F92B6
:101ED000CDB7DEB7A0905902B0905A0280915B0254
:101EE00090915C028A159B0518F4A81AB90A02C0E1
:101EF000A12CB12CB50184E10E94FD0E0BE612E08D
:101F000091E2F801619171918F01892F99830E946B
:101F1000FD0E99819F5F9932A1F70E947B0E7C0193
:101F2000EBE9F2E080E090E000E010E041E050E01A
:101F30009A01082E02C0220F331F0A94E2F72E21C5
:101F40003F21232B21F020813181020F131F0196A5
:101F500032968830910561F7B80185E10E94FD0E47
:101F60000115110581F00A151B0520F4C501801B20
:101F7000910B03C0C8018A199B09893B9B4018F447
:101F8000580115E103C014E1E12CF12CB50186E103
:101F90000E94FD0EB70188E10E94FD0E612F70E0E6
:101FA00087E10E94FD0E0E94BE0E8C010E94A51CBE
:101FB000882329F0E0905F02F09060020BC00E943D
:101FC0009023882329F0E0905D02F0905E0202C029
:101FD000E12CF12CB70189E10E94FD0EB8018BE1E3
:101FE0000E94FD0E9701D5010E94353BF0E1CF2EF6
:101FF000F7E2DF2EE12CF12CA70196010E94863B2F
:10200000B9018AE10E94FD0E9801D5010E94353B7D
:10201000A70196010E94863BB9018CE10F90DF91E8
:10202000CF911F910F91FF90EF90DF90CF90BF90D5
:10203000AF900C94FD0E1F93CF93DF93182FC82FF2
:10204000D0E0FE01EE0FFF1FEE0FFF1FE950FD4F26
:10205000608171818281938128EE33E040E050E01D
:102060000E94863BFE01EE0FFF1FE555FD4F3183B9
:102070002083B901812F0E947E0DBC01812FDF9149
:10208000CF911F910C94FD0E4F925F926F927F92B1
:102090008F929F92AF92BF92CF92DF92EF92FF9278
:1020A000CF93DF93CDB7DEB728970FB6F894DEBF96
:1020B0000FBECDBF0E94BC342091F1013091F201DE
:1020C000821B930B8133954708F4A4C04FB7F89453
:1020D0002091030230910402A8EEB3E00E94353B48
:1020E0006B017C01F694E794D794C7944090FF016C
:1020F0005090000260900102709002026091FB011A
:102100007091FC018091FD019091FE018090F7019A
:102110009090F801A090F901B090FA014FBF6D8343
:102120007E838F8398870E94FC0C2091F50130916B
:10213000F6012F5F3F4F3093F6012093F5016D813B
:102140007E818F819885A70196010E94863B298315
:102150003A834B835C83C301B201A70196010E94BD
:10216000863BB90180E00E947E0D3C0169817A8145
:1021700081E00E947E0D8615970518F4681A790A89
:1021800002C0612C712C409095025090960264140C
:10219000750420F48091F001811104C0B3018EE137
:1021A0000E94FD0EB301641975098DE10E94FD0EB8
:1021B000C501B401A70196010E94863BB90187E0E1
:1021C0000E947E0D2091F3013091F4019093F4016F
:1021D0008093F301BC01621B730B660F771F8FE1C5
:1021E0000E94FD0EB60180E228960FB6F894DEBF7D
:1021F0000FBECDBFDF91CF91FF90EF90DF90CF90DA
:10220000BF90AF909F908F907F906F905F904F9016
:102210000C94FD0E28960FB6F894DEBF0FBECDBF0E
:10222000DF91CF91FF90EF90DF90CF90BF90AF9074
:102230009F908F907F906F905F904F900895CF9375
:102240002FB7F89480914303909144032FBF892BBB
:1022500009F08DC080914503811186C080914603AD
:10226000882309F47EC080910502909106020196B0
:1022700090930602809305024091F7025091F80274
:102280006091F9027091FA02769567955795479596
:102290008091FF0190910002A0910102B091020291
:1022A000840F951FA61FB71F8093FF019093000214
:1022B000A0930102B09302024091FB025091FC02F4
:1022C0006091FD027091FE0276956795579547954E
:1022D0008091FB019091FC01A091FD01B091FE0164
:1022E000840F951FA61FB71F8093FB019093FC01DD
:1022F000A093FD01B093FE0140911303509114038C
:1023000060911503709116037695679557954795DB
:102310008091F7019091F801A091F901B091FA0133
:10232000840F951FA61FB71F8093F7019093F801A4
:10233000A093F901B093FA018091030290910402F5
:10234000019690930402809303020E944410C0E01F
:102350008C2F0E941B10CF5FC331D1F70E945D0FFD
:1023600003C085E00E941B10CF910C94DF0CCF912D
:1023700008950C941F1160E087E493E00E94352BD0
:1023800087FD0AC0811102C00C94672B992787FD35
:10239000909501970C94B62C08950E947C07789430
:1023A0000E94D3060E944D090E942A240E94391DD2
:1023B0000E945B0F0E94900B0E9438140E94272FEE
:1023C0000C94FC2F0E94CD110E94FC120E94BB11A4
:1023D000FDCF66E871E087E493E00E94932D80E9E9
:1023E00090E09093480380934703EBE4F3E080810F
:1023F0008C5E80830895FC0124812451621710F4BF
:102400000C948E2D862F821B0C94DA17FF920F935B
:102410001F93CF93DF93EC018B0141110E941E3C6F
:1024200085E0F82EFA9459F0CE010E94F73B801710
:10243000910739F084E690E00E94CE34F3CF81E03A
:1024400001C080E0DF91CF911F910F91FF9008951F
:10245000EF92FF920F931F93CF93DF937B018C0139
:10246000E80EF91ECFEFDFEF0E151F05A9F0C8012A
:102470000E94EF3BC82728E0CE01969587953C2F18
:10248000EC0130FF04C031E0C32730EAD3272150EC
:1024900099F70F5F1F4FE8CFCE01DF91CF911F91CA
:1024A0000F91FF90EF900895EF92FF920F931F937B
:1024B000CF93DF931F92CDB7DEB78C017B014983A9
:1024C0000E9428124981BC01C8018E0D9F1D0F90EA
:1024D000DF91CF911F910F91FF90EF900C94061216
:1024E000482F68E970E08CE090E00C945412482F7B
:1024F00060E273E086EA90E00C945412482F6EE19B
:1025000070E088EC93E00C9454120F931F93CF93D8
:10251000DF93D82F182F1170412F63E678E680E003
:1025200090E00E940612C82F412F6CE679E682E007
:1025300090E00E9406128111C1E0412F62E070E13B
:1025400084E090E00E9406128111C1E0D1FB0027D7
:1025500000F9402F69E070E086E090E00E940612EA
:102560008111C260D2FB112710F9412F63E070E0A6
:1025700088E090E00E9406128111C460D3FBDD2741
:10258000D0F94D2F6BE070E08AE090E00E940612D7
:102590008111C86001110E94740C80E00E947012C9
:1025A0008111C26011110E94C81780E00E94771249
:1025B0008111C460D1110E94531480E00E947E12E8
:1025C0008111C8608C2FDF91CF911F910F910895D9
:1025D000CF93C82F0E94BA2FC0FDC260C1FDC46056
:1025E000C2FDC8600E94D42F8C2F0E948512682FD4
:1025F0008C2FCF910C94D82F80E00E9485128823D5
:1026000021F00E94E81280E0089581E0089580E0C2
:102610000E94851281600C94E812CF930E941D2FB6
:1026200082E792E09093CF038093CE03C1E0C09302
:10263000CD031092C6030E94C315823011F4C093DB
:10264000C6030E940E1C91E0813009F090E0892FB2
:10265000CF91089561E081E00E94861B8EE792E0B1
:102660009093CF038093CE03089561E081E00E94B0
:10267000861B8AE892E09093CF038093CE0308955F
:1026800060E082E00E94861B8CE692E09093CF038C
:102690008093CE03089561E081E00E94861B86E668
:1026A00092E09093CF038093CE0308951092C603D7
:1026B00090E08930910528F5FC01E65DFF4F0C9410
:1026C000C73B0E94C315811102C00C9435130E94B0
:1026D000C315853059F40C944B1381E08093C603E5
:1026E00005C080E692E009C00C9440130C942A13B4
:1026F00081E08093C60384E892E09093CF038093B7
:10270000CE0308950E942F1F0C94240FCF93C82F3F
:102710000E9482138C2F0E945613C73029F0C830B4
:1027200059F463E081E005C060919803660F615041
:1027300080E0CF910C942B18CF910C940E1C0E942A
:10274000141D80916403909165030E94F51C84E63A
:1027500090E00E94E2340C94271DCF93C82F0E9472
:102760009F28882381F10E949F13C09353038C2FCD
:102770000E945613109251031092500383E08093ED
:1027800052030E948B3981E00E944D0F0E940D136D
:10279000882391F081E0809352030E944C1F0E9495
:1027A0001D2F1092CD0384E00E9498338091530333
:1027B0000E9486130E947E1F0E94600D0E949B391A
:1027C000CF910C94262FCF910895DC015896ED916E
:1027D000FC915997EE0FFF1FEE0FFF1FE055FE4FC4
:1027E000659175918591949108954EE150E062E96B
:1027F00071E00C94CD3B80915E0390915F0320913A
:102800006003309161032817390720F49093610326
:1028100080936003809160039091610389359B41AF
:1028200030F088E59BE19093610380936003809191
:10283000620390916303209164033091650328172C
:10284000390720F4909365038093640380916403B7
:10285000909165038938934130F088E893E1909333
:102860006503809364030895FC0180810C94DE0667
:102870004EE150E068EC73E084E593E00E94DF3BBA
:1028800084E593E00C9434144EE150E068EC73E07E
:1028900084E593E00E94FD3B81E00E947E1284E586
:1028A00093E00C94341484E593E00E94F5130C94A7
:1028B0004414FC010994FC01859194910C945914E1
:1028C000009761F09C0180E0F901459154912E5FE1
:1028D0003F4F452B11F08F5FF7CF089580E00895AB
:1028E000EF92FF920F931F93CF93DF93EC017B0145
:1028F0008A0185E00E940E0C8E159F0518F418823F
:1029000081E007C00817190718F481E0888301C027
:1029100080E0DF91CF911F910F91FF90EF9008958C
:10292000282F81E090E03AE0215038F0AC01349F4C
:10293000C001359F900D1124F7CF0895009719F02D
:1029400024F081E0089580E008958FEF089530E14C
:1029500020E080FD2F5F969587953150D1F7822F2B
:102960000895CF92DF92EF92FF92CF9397FF08C026
:1029700090958095709561957F4F8F4F9F4F07C0C1
:10298000611571058105910511F0C0E001C0C1E03C
:102990005AE0C52ED12CE12CF12C61157105810571
:1029A000910541F0CF5FA70196010E94A83BCA01A3
:1029B000B901F3CF8C2FCF91FF90EF90DF90CF90A4
:1029C0000895BC0180E090E00C94B114CF92DF92A6
:1029D000EF92FF920F931F93CF93DF93EC017B0154
:1029E0006A01E881F981CF01B8010E94723B00972A
:1029F00031F01E141F049CF4081B190B03C01E1495
:102A00001F0474F4C901801B910BE817F90718F42F
:102A10000E0F1F1F01C08901198308830DC08C018F
:102A2000C8018C0D9D1D8E179F0718F4E01BF10B3C
:102A300001C0F601F983E883DF91CF911F910F91D7
:102A4000FF90EF90DF90CF900895AF92BF92CF921A
:102A5000DF92EF92FF920F931F93CF93DF93EC01DE
:102A60007B016A0159016881798180E090E00E94D0
:102A7000B114823020F082500E94901402C081E094
:102A800090E08C019501A601B701CE010E94E614E9
:102A9000DF91CF911F910F91FF90EF90DF90CF903A
:102AA000BF90AF9008952FEF3FEF40E050E00C94BF
:102AB00025150E94FB348111FCCF0E94FB34882332
:102AC000E1F30895209172033091730395E0929F92
:102AD000F001939FF00D1124E80FF11DEE0FFF1F81
:102AE000EC53FE4F8591949108951F93CF93DF93FC
:102AF000182FC0917603D09177030E9462159C0134
:102B0000123061F48091720390917303029731F453
:102B1000C730D10518F0219720EB34E02C9FC0017D
:102B20002D9F900D3C9F900D1124DF91CF911F910F
:102B300008951F93CF93DF93182FC0917603D09100
:102B400077030E946215113029F480917C039091E3
:102B50007D030DC0123029F480917E0390917F0394
:102B600006C0133021F480919003909191039C0151
:102B70002C9FC0012D9F900D3C9F900D1124DF9143
:102B8000CF911F910895E0917203F0917303E45C7B
:102B9000FD4F84910895CF93DF9300D000D0CDB73F
:102BA000DEB7A0917403B091750320918E0330912C
:102BB0008F030E94353B24E630E040E050E00E9465
:102BC000863B293E8DEF38074105510550F4298396
:102BD0003A834B835C830E94C31529813A818530F7
:102BE00021F428EE3DEF40E050E0C9010F900F9036
:102BF0000F900F90DF91CF91089520919203309123
:102C000093038091760390917703AC01249FC001D8
:102C1000259F900D349F900D1124089582E00E940D
:102C20007515BC0188E99AE30E945218209160034F
:102C3000309161032817390708F4C901089582E02B
:102C40000E947515BC0184EF91E00E9452182091FA
:102C50006403309165032817390708F4C901089502
:102C600080917203909173030A97029750F081E06C
:102C70000E946215BC018CEC9DE80E94723BCB0166
:102C8000089581E090E00895809174039091750318
:102C90008436910530F484E690E090937503809338
:102CA00074038091740390917503893E9D4F30F0B9
:102CB00088EE9DEF90937503809374038091840355
:102CC00090918503893E934030F088EE93E0909395
:102CD0008503809384030E943016209176033091FF
:102CE00077038217930720F49093770380937603FA
:102CF0008091760390917703892B31F481E090E005
:102D000090937703809376030E940E1620917803A8
:102D1000309179038217930720F49093790380937D
:102D2000780380917803909179032091800330910A
:102D300081038217930720F490938103809380038B
:102D40000E941F1620917A0330917B03821793070C
:102D500020F490937B0380937A0320917A0330913F
:102D60007B0380918203909183032817390720F415
:102D7000309383032093820380915E0390915F03DD
:102D800040917803509179034817590720F49093A4
:102D90007903809378034091800350918103481711
:102DA000590720F4909381038093800380916203FC
:102DB000909163032817390720F490937B03809345
:102DC0007A0320918203309183032817390720F476
:102DD0009093830380938203089598E2899FB001C2
:102DE00011246A557F4F48E250E082E793E00E9449
:102DF000DF3B0C94441698E2899FB00111246A5578
:102E00007F4F48E250E082E793E00E94FD3B81E083
:102E10000C9477120E944416809178039091790364
:102E20006AE070E00E94723B7093810360938003BC
:102E300008950E94441680917A0390917B036AE082
:102E400070E00E94723B7093830360938203089545
:102E50000E944416809174039091750390937903B6
:102E600080937803209172033091730323303105EE
:102E700041F49695879596958795909379038093DD
:102E800078030E940A1780917403909175039093C0
:102E90007B0380937A030C941917CF93DF9381E01F
:102EA0000E94621590937D0380937C0382E00E94D0
:102EB000621590937F0380937E03C0917203D0913B
:102EC0007303209761F580ED97E0909375038093ED
:102ED000740383E090E0909377038093760388EE09
:102EE00093E090938503809384031092870310925C
:102EF000860380E797E1909389038093880310927B
:102F00008B0310928A038EE190E090938D0380935F
:102F10008C0388E790E090938F0380938E030E9448
:102F2000C315811124C081E090E0909391038093B8
:102F30009003229719F48BEF9FEF02C081EF9FEF70
:102F4000909393038093920383E090E09093950392
:102F50008093940384E690E0909397038093960384
:102F600085E090E090939903809398030DC088E0EA
:102F700090E0909393038093920383E00E94621504
:102F80009093910380939003DF91CF910C94281735
:102F9000CF9310927303109272030E944D17C0E0FA
:102FA0008C2F0E94FB16CF5FC431D1F781E0CF9107
:102FB0000C947712CF93C82F0E94ED1620917203C4
:102FC00030917303232B21F00E94D1310E942036CF
:102FD00020917203309173032A30310571F02B3048
:102FE000310569F0232BC1F48C2F90E001960E94EB
:102FF000C0358AE3CF910C94973589E00AC065E02B
:1030000080917803909179030E94EB370E942036DB
:1030100084E0CF910C94933167E080917403909198
:1030200075030E94E8378FE20E94973580917603FE
:1030300090917703CF910C94C03580918C0390913F
:103040008D030E94081E88E792E09093CF0380933F
:10305000CE030C940E1CCF93C62F91E09093CD031A
:1030600080939A0380919A038C1302C01092CD032F
:1030700080FF02C080E001C083E00E94861381309F
:1030800079F49091CD03992359F080919A038F5F41
:1030900080939A030E9482130E941D18813011F3BD
:1030A000CF910895AB019C01A8EEB3E00E94353B9F
:1030B0009A0140E050E00E94863BA8EEB3E00E94F7
:1030C0004B3B24E630E040E050E00E94863B211577
:1030D000310581E04807510520F02FEF3FEF40E038
:1030E00050E0C90108958091C1039091C203892BDA
:1030F00099F40E94230C882381F00E94260C2091D1
:103100009B0330919C03821B930B9C0181E0233035
:10311000310518F080E0089581E008958091C4039E
:103120009091C5030C94A7148F5D0C940E0CDF9244
:10313000EF92FF920F931F93CF93DF93C0E0D0E005
:103140000FEF1FEFDD24DA94EE24E394F12C9701C6
:103150008C2F0C2E02C0220F331F0A94E2F74091ED
:10316000C4035091C50324233523232B39F00E9437
:1031700094188017910710F4DC2E8C012196C8302A
:10318000D10529F78D2DDF91CF911F910F91FF90E0
:10319000EF90DF900895CF93DF932091C10330919A
:1031A000C203232B21F4DF91CF910C9494189091BA
:1031B0009F03C82FD0E0992391F00E949418CC0F60
:1031C000DD1FFE01E056FC4FC055DC4F20813181F0
:1031D00048815981241B350B280F391F07C0FE0178
:1031E000EE0FFF1FE056FC4F20813181C901DF91B6
:1031F000CF910895CF92DF92EF92FF920F931F939A
:10320000CF93DF93C0E0D0E0E12CF12C0FEF1FEF64
:10321000CC24C394D12CC6010C2E02C0880F991F58
:103220000A94E2F72091C4033091C50382239323CB
:10323000892B59F08C2F0E94CB18E816F90608F458
:103240007C018017910708F48C012196C830D105C4
:1032500011F7E01AF10A81E0209192033091930373
:103260002E153F0508F080E0DF91CF911F910F915F
:10327000FF90EF90DF90CF900895CF93DF93EC0114
:103280008091C1039091C203892B41F0209731F4C2
:103290000E94260C90939C0380939B03D093C203BF
:1032A000C093C1030E942F0D8091C003811105C0FE
:1032B0008C2FDF91CF910C945307DF91CF9108951C
:1032C000FF920F931F93CF93DF9381E00E949907A2
:1032D0000E947B0E9093C5038093C40300EB13E020
:1032E000C0EAD3E0F12C8F2D0E949418F80181934D
:1032F00091938F0189939993F394F8E0FF12F3CFA0
:103300001092C2031092C1031092C00380E090E0BB
:103310000E943D1910929C0310929B038FEF8093A3
:10332000C303DF91CF911F910F91FF90089580E02B
:1033300090E00E943D1981E08093C00308950E94AF
:10334000971980E00C949907DF92EF92FF920F9308
:103350001F93CF93DF938091C30387FD20C00E940A
:10336000CB187C01D12C01E010E0C0E0D0E020912E
:10337000C4033091C50320233123232B41F08D2D2D
:103380000E94CB18E816F90610F4C02BD12B000FC1
:10339000111FD39488E0D812EACFCE0102C080E09A
:1033A00090E0DF91CF911F910F91FF90EF90DF9010
:1033B0000895EF92FF920F931F93CF93DF938C01A9
:1033C000C0E0D0E0EE24E394F12C97010C2E02C073
:1033D000220F331F0A94E2F78091C4039091C50332
:1033E00028233923232B31F42196C830D10569F7DE
:1033F00081E008C08C2F8F5D0E94380C80179107E8
:1034000098F780E0DF91CF911F910F91FF90EF909F
:1034100008957F928F929F92AF92BF92CF92DF9248
:10342000EF92FF920F931F93CF93DF9386E090E08C
:103430000E94D919882309F478C00E94CD0C8823F2
:1034400009F473C08091C30387FF04C00E949718DA
:103450008093C3038091C3030E9494186C01A090D1
:103460007E03B0907F0360EAE62E63E0F62E00EB69
:1034700013E0C0E0D0E07724739488248394912CE7
:10348000C4010C2E02C0880F991F0A94E2F7209104
:10349000C4033091C50382239323892B81F08C2FA1
:1034A0000E9494188A159B05A0F0C816D90608F446
:1034B000712CF70191838083F80191838083219699
:1034C000F2E0EF0EF11C0E5F1F4FC830D105C1F6C0
:1034D00002C07724739410929F030E94C434909387
:1034E0009E0380939D03772079F0DF91CF911F9108
:1034F0000F91FF90EF90DF90CF90BF90AF909F9093
:103500008F907F900C9497190E94A419DF91CF910E
:103510001F910F91FF90EF90DF90CF90BF90AF90F1
:103520009F908F907F900C943D19DF91CF911F91C8
:103530000F91FF90EF90DF90CF90BF90AF909F9052
:103540008F907F9008951F93CF93DF9380919F0377
:1035500081110EC081E080939F03C0EBD3E010E0A7
:10356000812F0E949418899399931F5F1830C1F797
:10357000DF91CF911F9108950E94C43420919D0343
:1035800030919E03821B930B08958091C10390910B
:10359000C203892B19F40E94091A0AC00E94A31AB7
:1035A0000E94BC1A409720F080E090E00E943D19F4
:1035B0000E947318882311F082E008958091C0035F
:1035C0008823D1F381E00895EF92FF920F931F9328
:1035D000CF93DF938C01C0E0D0E0EE24E394F12C94
:1035E00097010C2E02C0220F331F0A94E2F780913C
:1035F000C4039091C50328233923232B31F421964A
:10360000C830D10569F780E007C08C2F0E94CB1825
:1036100080179107A0F381E0DF91CF911F910F9167
:10362000FF90EF900895EF92FF920F931F93CF9327
:10363000DF938C01C0E0D0E0EE24E394F12C9701FD
:103640000C2E02C0220F331F0A94E2F78091C403AC
:103650009091C50328233923232B31F42196C830B8
:10366000D10569F780E007C08C2F0E94CB1808179E
:103670001907A0F381E0DF91CF911F910F91FF9087
:10368000EF900895CF93DF93EC010E948E1888236A
:1036900039F0682F70E0CE010E94723BCB0102C06E
:1036A00080E090E0DF91CF9108950E94FD2381E0BA
:1036B0000E94FA208091C7039091C8030C94C823FC
:1036C0000C9414240E94CD0C882321F00E94A12385
:1036D0000C94AF2108950E94621B0E94BE0C2091A1
:1036E000CB033091CC032817390740F482E59AE0E8
:1036F000909351038093500380E008958091C90313
:103700009091CA030E94C82382E00895CF93DF936B
:103710001F92CDB7DEB769830E9499159093CC03B1
:103720008093CB036981662369F08091780390913F
:1037300079039093CA038093C90380918003909189
:1037400081030CC080917A0390917B039093CA030C
:103750008093C90380918203909183039093C8035F
:103760008093C7030F90DF91CF9108958091CE038E
:103770009091CF030C945B148091CE039091CF0372
:1037800002960C945B140E94BC1B0E947E1F0C943A
:103790009335CF93DF930E94C434EC010E94C4346C
:1037A0008C1B9D0B853B910510F00E94600D0E94C3
:1037B000FB34882399F3DF91CF910C948D330E94D1
:1037C000C31B0E94672F85E00E9498330C94C91B8D
:1037D0000E94C31B0E94600D0E946B2F86E00E9416
:1037E00098330C94C91BE091CE03F091CF0334962B
:1037F00085919491FC010994811103C00E94E81BFA
:103800000BC0813039F48091CD03811105C00E9435
:10381000DF1B02C081E0089580E008950F931F939D
:10382000CF93DF931092A2040E94B61B02E0C0E087
:10383000D0E011E00E94FB348093A2040E94902FFC
:10384000112379F00E94BE1F082F0E94FC1B182F25
:10385000882339F00E94260CC817D90771F411117A
:1038600007C08091CD03882311F0011110C010E032
:103870008091A2048130F1F60AC00E94260CEC016E
:103880000E94F31B082F0E94FC1B182FE8CF0E94F8
:10389000BC1B802FDF91CF911F910F9108950E9443
:1038A000271D0C949F190E94141D0E94601921E08D
:1038B00080918A0390918B03892B09F420E0209357
:1038C000D00380E00C94FA201F93CF93DF93C09134
:1038D000CB03D091CC03CE010E94421B0E94131B4C
:1038E000182F0E947318811109C0111107C00E947E
:1038F000BE0C11E0C817D90708F410E0812FDF9142
:10390000CF911F9108951F93CF93DF930E94641C62
:10391000182F0E94B61CEC018091D003882329F057
:10392000BE01812F0E945E2101C0812F811108C03C
:10393000BE01812F0E94BF220E94F51C82E001C0BF
:1039400081E0DF91CF911F9108958091D503089573
:1039500081E02091D3033091D403232B09F480E03C
:1039600008958091D3039091D40308958091D10359
:103970009091D2030895CF93DF931F92CDB7DEB716
:1039800040915A0350915B03BA017250CE010196E7
:103990000E9470148981811114C00E94C30C009789
:1039A00011F481E090E0BC0184EF91E00E94521894
:1039B00020916403309165032817390720F4C90169
:1039C00002C080E090E00F90DF91CF9108958130A8
:1039D00020E8920710F080E090E89093D403809361
:1039E000D3030E944F070C94380DCF93DF93EC0163
:1039F0000E94BB1CBC01C817D90708F4BE01809106
:103A0000D1039091D2038617970759F07093D20390
:103A10006093D10382E10E94E20DDF91CF910C947B
:103A2000E71CDF91CF9108958091D50381110EC0DD
:103A300080E090E00E94E71C1092D2031092D10324
:103A400081E00E94390781E08093D5030895809139
:103A5000D503882369F080E090E00E94E71C109273
:103A6000D2031092D10380E00E9439071092D5034F
:103A7000089581E08093D5030C94271D87E08093FF
:103A8000A40482E08093A5040E94913383E0809394
:103A9000D60308958FEF8093A4040C948D33EF9296
:103AA000FF920F931F93CF93DF9384E10E94510EF7
:103AB00020917203309173032A503109223031056D
:103AC00018F011E0182701C010E00E94A00EE82EA7
:103AD0008091C603882371F080917603FF24F394CC
:103AE0008E1101C0F12C01E0E11000E0813021F4E1
:103AF000002311F000E0F12C0E94B40C8823A9F0FF
:103B000085E10E940E0CEC0184E10E940E0CC817A6
:103B1000D90728F49C012C1B3D0BE90102C0C81BEE
:103B2000D90BC53FD14008F011E0F11002C087E089
:103B300001C083E08093A404002329F08091A404B1
:103B400082508093A404112329F08091A404815011
:103B50008093A404F11004C0011102C0112331F0BC
:103B600081E00E949833011106C003C00E948D338A
:103B700004C0FF2011F0E11002C0C0E001C0C1E0AC
:103B80000E94F834811102C01092D603C11106C000
:103B9000111104C00E94F834883041F08091D6039E
:103BA000823011F481E008C082E006C08091D60323
:103BB0008F5F8093D603F2CFDF91CF911F910F914A
:103BC000FF90EF9008951092DB0308950E94C43493
:103BD0009093DA038093D90308950E94C43420910E
:103BE000D9033091DA03821B930B2091D7033091D4
:103BF000D8032817390728F081E08093DB0382E09F
:103C000008951092DB0381E008958091DB0308950D
:103C10002CE3AC01249FC001259F900D11249093AB
:103C2000D8038093D70308950E9460190E94FD2352
:103C300081E00C94FA200E9414240C949F191F9385
:103C4000CF93DF93C091CB03D091CC03CE010E94E0
:103C5000421B0E94E41A182F0E947318811109C098
:103C6000111107C00E94BE0C11E08C179D0708F4CB
:103C700010E0812FDF91CF911F9108951F93CF9373
:103C8000DF930E941F1E182F0E94A123EC01BC018C
:103C9000812F0E945E21811108C0BE01812F0E94E8
:103CA000BF220E94C82382E001C081E0DF91CF9152
:103CB0001F9108958091E8039091E9032091EB030F
:103CC000222341F00E94C4342091E8033091E9039B
:103CD000821B930B08956091E4037091E50380913A
:103CE000E6039091E70328EE33E040E050E00E94C5
:103CF000863BC90108956091E0037091E1038091D2
:103D0000E2039091E30328EE33E040E050E00E94AC
:103D1000863BC90108950F931F93CF93DF9381E0F2
:103D20000E9499158C0184E00E949915EC0186E1AE
:103D30000E940E0C80179107B8F4C817D907B0F489
:103D40009C012C1B3D0BC8018C1B9D0B64E670E095
:103D50000E94723BC9010E94723B6436710510F0EB
:103D600063E670E0862F03C083E601C080E0DF9148
:103D7000CF911F910F910895CF93DF930E948B1ED7
:103D80009091EA039817E0F48093EA030E945A1E88
:103D90002091ED033091EE03EC01C21BD30B0E9486
:103DA0005A1E9093EE038093ED038091EF03909160
:103DB000F0038C179D0720F4D093F003C093EF031A
:103DC000DF91CF9108950E94BC1E8091EC0388235F
:103DD00011F089E601C084E690E02091EA03821B9D
:103DE00091092091EF033091F003AC01429FC00193
:103DF000439F900D529F900D1124089520915603DA
:103E0000309157032130310511F481E026C021158E
:103E1000310511F480E021C02430310529F480916E
:103E2000EB0381110AC0F6CF2230310519F48091DD
:103E3000EB0313C02330310581F485E00E940E0CA2
:103E40002091580330915903A901525084179507C6
:103E500008F328173907C8F208950C9405070E9443
:103E60008B1E8093EA031092EE031092ED031092E2
:103E7000F0031092EF031092E4031092E503109206
:103E8000E6031092E7031092E0031092E103109210
:103E9000E2031092E303089568E572E080E00E9477
:103EA000E20D9093DF038093DE0381E00E94991579
:103EB000BC016854744F6D3C2DE8720710F06CEC37
:103EC0007DE880E00E94E20D813C2FEF920710F028
:103ED00080EC9FEF9093DD038093DC030E94B40C91
:103EE0008093EC030E94C4349093E9038093E80329
:103EF0000E942F1F81E08093EB0308950E945A1EB9
:103F00009093E9038093E8031092EB0308950E94D5
:103F1000932381111DC00E94A81C811119C00E9409
:103F20007318882351F18091E4039091E503A091E7
:103F3000E603B091E70380599F4FAF4FBF4F809387
:103F4000E4039093E503A093E603B093E703089599
:103F50008091E0039091E103A091E203B091E3032B
:103F600080599F4FAF4FBF4F8093E0039093E10381
:103F7000A093E203B093E303D2CF0895CF93DF93EE
:103F80008091EB03811102C082E095C085E00E9420
:103F90000E0C20915A0330915B033E5F28173907BE
:103FA00018F48EEF9CE017C080E00E94170C20915F
:103FB000DC033091DD038217930758F42091DE0370
:103FC0003091DF038217930760F40E94A51C8823B9
:103FD00041F08EE09DE0909351038093500380E088
:103FE0006AC0C091EC030E94B40CC81719F08FEEA0
:103FF0009CE0F1CFC091C903D091CA03C851DC4FF6
:104000000E94C80CC817D90718F484EE9CE0E3CFCF
:1040100086E00E940E0C20916603309167038217A0
:10402000930718F485ED9CE0D6CF8BE10E940E0C2F
:10403000EC010E94CB15883E2DEF920731F0C81796
:10404000D90718F085EC9CE01BC0C0918403D09187
:104050008503C83E83E0D807C8F46091E0037091FF
:10406000E1038091E2039091E30320E63AEE40E021
:1040700050E00E94863B2C173D0740F08AEB9CE005
:10408000909351038093500381E015C08091860383
:1040900090918703892B09F477CF87E00E940E0C5B
:1040A00020918803309189032817390708F06CCFD5
:1040B0008AEA9CE090CFDF91CF9108950E941B1E69
:1040C0000E944F1C0C949F19CF93DF931F92CDB782
:1040D000DEB78091F103882329F0813031F40E940A
:1040E000831C0CC00E943E1E09C00E94C51A82306B
:1040F00089F089830E945E2089810CC0813051F44F
:104100009091C603992331F082E08093F1030E94DD
:10411000601982E00F90DF91CF910895CF93DF93E4
:104120000E94601961E083E00E94861BC091CB036E
:10413000D091CC030E948E18811106C00E94BE0C43
:10414000C817D90740F40CC0CE010E94421B0E9440
:10415000131B882329F00E94141E1092F1030BC038
:1041600060E083E00E94861B0E94531C81E08093E4
:10417000D0038093F103DF91CF9108958091F203F2
:10418000813029F48091C7039091C803089580E09D
:1041900090E008952CE0829FC001112482509C4F32
:1041A0000C943B248EE594E00C943B24CF93DF9356
:1041B00000D000D0CDB7DEB784E10E940E0C9A8308
:1041C000898386E10E940E0C29813A81281B390BD4
:1041D0003A83298389E10E940E0C9C838B83CE0154
:1041E00001960E943B240F900F900F900F90DF914B
:1041F000CF910895AF92BF92CF92DF92EF92FF924C
:104200000F931F93CF93DF93182F81E08093F203D6
:104210000E94BE0CBC012091C7033091C80340919D
:10422000CB035091CC03012F86E594E00E945624E5
:104230008091CB039091CC030E94421B6C0186EFCE
:10424000E82E83E0F82EC0E0D0E0AA24A394B12C9D
:1042500095010C2E02C0220F331F0A94E2F78091C1
:10426000C4039091C50328233923232B69F08C2F95
:104270000E94CB18BC012091C7033091C803012FC5
:10428000A601C7010E94562421968CE0E80EF11C7D
:10429000C830D105E9F6109264041092F50310922B
:1042A000630410926204DF91CF911F910F91FF90F0
:1042B000EF90DF90CF90BF90AF9008951F93CF9372
:1042C000DF93182FEB018091C603882361F111233E
:1042D00049F080916404811105C00E94971981E022
:1042E0008093640480916404882311F08530D9F4AC
:1042F0002091C7033091C803203A310510F420EA19
:1043000030E02C173D0710F41092C0030E94C51A2C
:104310008093F2038130F1F40E94FA18882319F097
:104320008FEF8093C3030E94BE208C179D0780F0FF
:10433000112371F080916404853051F49091F5035C
:1043400081E0890F8093F50381E09A3020F402C068
:104350001092F50380E0DF91CF911F910895CF92E5
:10436000DF92EF92FF920F931F93CF93DF937C0125
:104370000E94BE0CA701BC0186E594E00E940F25B7
:1043800006EF13E0C0E0D0E0CC24C394D12C96011A
:104390000C2E02C0220F331F0A94E2F78091C4034F
:1043A0009091C50328233923232B41F08C2F0E94A1
:1043B000CB18A701BC01C8010E940F252196045FFC
:1043C0001F4FC830D10519F7DF91CF911F910F9181
:1043D000FF90EF90DF90CF900895AF92BF92CF9271
:1043E000DF92EF92FF920F931F93CF93DF93609131
:1043F000CB037091CC0386E594E00E947B247C0182
:104400008091CB039091CC030E94421B6C0106EF7C
:1044100013E0C0E0D0E0AA24A394B12C95010C2EA7
:1044200002C0220F331F0A94E2F78091C4039091D7
:10443000C50328233923232B61F0B601C8010E944C
:104440007B24E816F90628F0B601C8010E947B24F7
:104450007C012196045F1F4FC830D105F9F6C701D2
:10446000DF91CF911F910F91FF90EF90DF90CF9050
:10447000BF90AF9008950F931F93CF93DF93EB01FD
:104480002091C9033091CA038C012817390708F419
:1044900089010E94BE209C018017910708F49801B1
:1044A000C217D307E1F0409164044530D1F42C17D2
:1044B0003D07B8F082179307A0F48091C70390914D
:1044C000C8038C179D0758F04091F3035091F403F3
:1044D00080919B0390919C034817590711F4CE01DA
:1044E00009C080919B0390919C039093F403809367
:1044F000F303C901DF91CF911F910F910895CF92DE
:10450000DF92EF92FF920F931F93CF93DF937C0183
:104510000E94BE0C9093570480935604F092590465
:10452000E092580406EF13E0C0E0D0E0CC24C3943E
:10453000D12C96010C2E02C0220F331F0A94E2F7F1
:104540008091C4039091C50328233923232B41F084
:104550008C2F0E94CB18F80191838083F382E28232
:104560002196045F1F4FC830D10519F7DF91CF9115
:104570001F910F91FF90EF90DF90CF9008951F93C0
:10458000CF93DF93182FEB010E94CD0C811108C04F
:104590001123E1F12091620430916304232BB1F1E6
:1045A0000E947318811132C0CE010E94AF21CE014A
:1045B0000E947F220E94ED218C179D0708F048C0C1
:1045C0009C012C0F3D1F3695279530936304209353
:1045D0006204BE0180916204909163040E943B22B8
:1045E000909363048093620490916404923009F183
:1045F000A8F49923C1F0913039F5112339F083E003
:1046000080936404109263041092620480916204A7
:1046100090916304DF91CF911F910895933061F0E1
:10462000943081F011C0112389F30E94971981E021
:104630000CC010926404EACF1092630410926204DA
:1046400084E003C0112311F385E080936404DECF7E
:104650009093630480936204BCCF0C94551BCF935A
:10466000DF930E94621B0E94BE0CEC0182E00E945C
:1046700099158C179D0730F48091C9039091CA0356
:104680000E94C8238091CB039091CC038C179D0787
:1046900018F482E59AE03AC00E94300C0297E0F1EB
:1046A0008091860390918703892B69F08FE10E94A6
:1046B0000E0C2091960330919703281739071CF4AC
:1046C00088E49AE023C00E94300C2091940330913A
:1046D0009503220F331FC1E08217930708F4C0E04F
:1046E0008C2F0E94350CCC23B9F0809190039091CF
:1046F0009103892B89F08DE10E940E0CEC010E9440
:10470000FD15C817D90744F48EE49AE0909351033D
:104710008093500381E001C082E0DF91CF91089542
:1047200080916904089581E02091670430916804C4
:10473000232B09F480E00895809167049091680428
:104740000895809165049091660408950E94C30CB9
:10475000009711F481E090E0BC0188E99AE30E949F
:10476000521820916003309161032817390708F42B
:10477000C9010895813020E8920710F080E090E8A8
:1047800090936804809367040E944B070C94380D43
:10479000CF93DF93EC010E94A623BC01C817D90771
:1047A00008F4BE018091650490916604681779074A
:1047B00050F49C01261B370B2D38310568F0BC01E5
:1047C0006C58710909C09B01281B390B2D38310524
:1047D00018F0BC0164577F4F8617970759F0709304
:1047E00066046093650481E10E94E20DDF91CF9140
:1047F0000C94BA23DF91CF910895809169048111BF
:1048000012C010926804109267041092660410920D
:10481000650480E090E00E94BA2381E00E943307A3
:1048200081E080936904089580916904882389F068
:1048300080E090E00E94BA2310926804109267040E
:10484000109266041092650480E00E943307109273
:104850006904089510926804109267041092660427
:104860001092650480E090E00E94BA2381E080937A
:1048700069040C941424FC014281538141155105B3
:1048800091F0A081B181B7FF03C0B195A195B109A5
:1048900028EE33E00E94443B9A0140E050E00E9441
:1048A000863BC901089580E090E008950F93FC01D4
:1048B000CB01002341F04617570708F4CA016417DB
:1048C000750748F407C06417750708F4CA0146174E
:1048D000570708F4BA0197838683918380831382F4
:1048E00012821582148233872287681B790B7187A5
:1048F00060870F910895FC0186819781A285B38519
:104900000084F185E02D3097D1F09B0140E050E02C
:10491000281B390B410951090E944B3B9F01442739
:1049200037FD4095542F0E94A83B2115310581E0A9
:104930004807510524F457FD05C0C90108958FEFBC
:104940009FEF089580E090E00895DF92EF92FF924C
:104950000F931F93CF93DF93EC012A813B812417A0
:10496000350720F4FA01E21BF30B03C0F901E41B45
:10497000F50B8C819D81969587958E179F0710F575
:10498000E880F9802417350740F48A01021B130BD5
:10499000CB018E199F097C0105C0E61AF70A89012F
:1049A000041B150BC7010E949E14D82E888599857B
:1049B0000E949E14D81206C01D830C83F986E886D7
:1049C0001B870A87DF91CF911F910F91FF90EF9086
:1049D000DF9008950F931F93CF93DF93EC018B012A
:1049E0009A01A885B9850E94443B2A853B8540E011
:1049F00050E00E94A83BC801A0E0B0E082179307F6
:104A0000A407B5071CF41F821E8204C0021B130BEF
:104A10001F830E83DF91CF911F910F910895EF9225
:104A2000FF920F931F93CF93DF93EC018B017A01D9
:104A30000E94A524A701B801CE01DF91CF911F915B
:104A40000F91FF90EF900C94EA240F931F93CF9354
:104A5000DF9300D000D0CDB7DEB780E00E94050C18
:104A60009A83898381E00E94050C29813A81281B61
:104A7000390B3A83298385E10E940E0C9C838B833A
:104A80000AE614E0AE014F5F5F4FF801608180E0FD
:104A90000E945E0CAE014F5F5F4FF801608181E0C4
:104AA0000E945E0C0F900F900F900F90DF91CF91AE
:104AB0001F910F910895CF93DF93D82F6CE27AE086
:104AC00080E49AE00E943C2FC0E084E10E94510EF5
:104AD0008823B1F00E94A00E91E0811101C090E006
:104AE000D917A1F0C1110CC06EE17AE0DD2319F0F5
:104AF00080E49AE002C085E39AE00E943C2FC1E086
:104B00000E94FB34813009F780E001C081E0DF9131
:104B1000CF910895CF93DF9300D000D0CDB7DEB70B
:104B2000862F5A8349833C832B83AE014F5F5F4FAF
:104B300060916A040E945E0C0F900F900F900F908E
:104B4000DF91CF910895FF920F931F93CF93DF933F
:104B5000F82E162F042F83E00E949833812F0E9495
:104B60000E0CEC010E94A539802F0E94050CAC01AF
:104B70009E01602F812F0E948A25FF2049F081E04D
:104B8000809346030E94490D0E94A5390E94252565
:104B900081E0DF91CF911F910F91FF900C947012E3
:104BA000AF92BF92CF92DF92EF92FF920F931F933B
:104BB000CF93DF93CDB7DEB762970FB6F894DEBF21
:104BC0000FBECDBF8C017B016A0160E070E0CE01B9
:104BD00001962A8B0E94932D8FEF8A878EE990E0B1
:104BE0009A8389831D870C878FEF9FE79F878E8726
:104BF000198A188A2A89211109C08091700390911D
:104C00007103019719F06BEF7FE702C06FEF7FE749
:104C1000CE0101960E948C2961E0CE0101960E948E
:104C2000352B082F87FD34C0682FCE0101960E94D6
:104C30007A29B82E80FDF0CF81FF25C0112707FD0E
:104C40001095F701E00FF11FA4908A2D0E94510EDC
:104C5000882311F30E94490D10924603CE0101965C
:104C60000E94492A882359F0F601E00FF11F449170
:104C70006A2D8B2D881F8827881F0E94A32581E01D
:104C800080934603C9CFCE0101960E94492AC4CF22
:104C900062960FB6F894DEBF0FBECDBFDF91CF9105
:104CA0001F910F91FF90EF90DF90CF90BF90AF904A
:104CB000089581E090E090936B0480936A040E94D1
:104CC0009F1381E00E944D0F81E00E945B258823A5
:104CD00049F020E042EF53E06BEF73E08CE393E0A8
:104CE0000E94D0250C94600D81E090E090936B04BD
:104CF00080936A040E949F1380E00E944D0F1092DF
:104D0000670020E042E053E0BA0184E093E00E94B3
:104D1000D02581E0809367000C94600D813119F4F7
:104D2000CB010C94BA23CB010C94E71C0F931F9377
:104D3000CF93DF93EC01443019F06FEF7FEF02C0A7
:104D400061E070E02F85388901E010E041E050E03B
:104D5000CE010D960E94E6146D857E858B85DF91D0
:104D6000CF911F910F910C948E26CF92DF92EF92EC
:104D7000FF920F931F93CF93DF93CDB7DEB7699761
:104D80000FB6F894DEBF0FBECDBFC82EE62E8A0147
:104D90000E949F1381E00E944D0F80E00E945B25DE
:104DA000882309F472C0CC2039F00E94FD2322E050
:104DB000D22E31E1F32E06C00E94141D83E0D82EBE
:104DC00092E1F92E4E2D6F2DCE0146960E94410C98
:104DD0004E2D6D2DCE0142960E94410C64E074E090
:104DE000CE0101960E94932D8FEF8A8726E930E04D
:104DF0003A832983FC86ED8620E030E8398B288BC6
:104E00002E893F893F872E8761E0CE0101960E945F
:104E1000352B87FD22C08111F3CF6E857F858F2DC5
:104E20000E948E26CE0101960E94492A882379F09D
:104E30000E94490D198F088F2E853F853F8B2E8B41
:104E40001D8B0C8B8D2D0E94050C9B8B8A8B60E03B
:104E500070E08F2D0E948E26D3CFCC2019F00E94B7
:104E6000142402C00E94271DAE014A5E5F4F6E2DC2
:104E70008F2D0E945E0CAE014E5E5F4F6E2D8D2D0C
:104E80000E945E0C81E00E9470120E94600D699683
:104E90000FB6F894DEBF0FBECDBFDF91CF911F914B
:104EA0000F91FF90EF90DF90CF900895EF92FF92D7
:104EB0000F931F93CF93DF93CDB7DEB729970FB62C
:104EC000F894DEBF0FBECDBF8C017B01BC01CE01CB
:104ED00001960E94932D60E0CE0101960E94352B31
:104EE000682F87FD10C0E82FEE0FFF0BEE0DFF1DA2
:104EF0004591549181E094E00831190709F080E070
:104F00000E94B526E8CF29960FB6F894DEBF0FBEF3
:104F1000CDBFDF91CF911F910F91FF90EF9008953A
:104F200010926B0410926A040E949B3981E090E019
:104F3000909387038093860380E00E944D0F21E0C9
:104F400041E952E0BA018AEC92E00E94D0250E9429
:104F5000600D0C948B3910926B0410926A0480E0FF
:104F60000E944D0F21E040E952E0BA0182E992E04F
:104F70000E94D0250C94600DCF93DF93CDB7DEB7A0
:104F80002A970FB6F894DEBF0FBECDBF6EE174E076
:104F9000CE0101960E94932D60E0CE0101960E9401
:104FA000352B87FD2EC010928703109286038A87C7
:104FB0000E948B398A858230A9F04CF4882379F0DD
:104FC0008130E1F46EE074E088E194E00FC0843059
:104FD00099F07CF0853091F40E9474260FC00E94F5
:104FE00059260CC06AE074E082E194E00E945627E2
:104FF00005C00E94902702C00E94AB270E949B39E7
:10500000CBCF109252032A960FB6F894DEBF0FBE94
:10501000CDBFDF91CF910895CF93DF93EC01842F23
:105020000E947E0D9E0136952795A9014C0F5D1FAC
:105030008417950730F4C21BD30B21E0C817D9079A
:1050400008F020E0822FDF91CF91089568EE73E0A1
:1050500080E00E94E20D24E2289FB001299F700D9C
:10506000112440E08CEC9DE80C940C281F93CF9306
:10507000DF93182F68EE73E00E94E20D9C01C0914F
:105080006003D0916103DE010E94353B28EE33E0DE
:1050900040E050E00E94863BCA01B901412FCE0199
:1050A000DF91CF911F910C940C28CF93DF931F9227
:1050B000CDB7DEB7482F64E670E049830E94E20D69
:1050C0002AE0289FB001299F700D1124498188EEA4
:1050D00093E00F90DF91CF910C940C28CF930E9416
:1050E000FC12C82F882341F10E942628C82F811165
:1050F00005C086E19AE00E94F52F1EC081E10E9462
:105100003628882329F082E00E943628811106C0C3
:105110008DE09AE00E94F52FC0E00EC082E10E946F
:105120005528882331F083E00E945528C82F81112B
:1051300003C081E09AE0EECF8C2FCF9108950C94BC
:105140006E281F93CF93DF93EC01162F84E10E940A
:10515000510E81110EC06CE27AE080E49AE00E9468
:105160003C2F8B85823161F5DF91CF911F910C949B
:10517000271D612FCE010E948E2DCE0109960E941F
:105180007333882311F0298501C02FEF332727FDC2
:105190003095812F90E02817390791F0111108C040
:1051A00065E08D859E85DF91CF911F910C945837D6
:1051B0000E94C80C67E0DF91CF911F910C94EB37F0
:1051C000DF91CF911F910895CF93DF93DC011B9660
:1051D000CD91DC911C9790E080E0FE012EE0829F53
:1051E000E00DF11D112432962591349121153105E0
:1051F00099F01D964D915C911E9737FF03C057FFA4
:1052000009C0305824233523232B21F0662329F0AD
:1052100061509F5F8F5FE1CF892FDF91CF9108951C
:10522000EF92FF920F931F93CF93DF93EC01F62E33
:105230000E94E4289EE0899F80011124EB85FC8573
:10524000E00FF11F859194910E94E035E82ECE0188
:1052500009960E947333882311F0298501C02FEF2E
:10526000332727FD30956F2D70E026173707E1F0C3
:105270006FE06E19EB85FC85E00FF11F3596F49019
:10528000FF2029F0862F8F190E941C366F2D8B85E9
:105290009C85800F911F0496DF91CF911F910F91F4
:1052A000FF90EF900C94F532DF91CF911F910F9109
:1052B000FF90EF900895CF93DF93EC010E94E428D4
:1052C0002B853C859EE0899F200D311D1124F9011D
:1052D000369685919491F90134962491215022308B
:1052E00030F4FC014591559165917491CB01DF91AA
:1052F000CF910895CF93DF93EC010E94E428EB85D2
:10530000FC859EE0899FE00DF11D11243296859168
:105310009491DF91CF910895EF92FF920F931F9395
:10532000CF93DF93EC018B01FA806B816F0D0E94AC
:10533000E428E82E1E870D876FEFCE010E94E42837
:10534000082F8C8310E0101759F0612FCE010E94B6
:10535000E4288E1103C01F191B8302C01F5FF3CF07
:10536000DF91CF911F910F91FF90EF9008959F9241
:10537000AF92BF92CF92DF92EF92FF920F931F9363
:10538000CF93DF93CDB7DEB72C970FB6F894DEBF7F
:105390000FBECDBF7C01D62E942E0E945B298C01BE
:1053A0006D2DC7010E94E428D7011B966D917C9159
:1053B0001C97BEE08B9F600D711D1124685F7F4FAD
:1053C00046E050E0CE0107960E94CD3B86E0FE010C
:1053D0003796DE01119601900D928A95E1F72981A9
:1053E0003A81CB80DC80AD80BE80E2E09E1619F071
:1053F00081E090E002C08FEF9FEF2F3FFFE73F0774
:1054000029F4BC01C8010E94531516C02E3F4FE776
:10541000340719F4F601099520C0829FA001839FEB
:10542000500D929F500D1124D8018D919C91119790
:10543000840F951F8D939C93F801808191818C1529
:105440009D0514F4D182C082D8018D919C91119751
:10545000A816B90614F4AD92BC92D7011F96ED912F
:10546000FC915097309719F0B801C70109952C9617
:105470000FB6F894DEBF0FBECDBFDF91CF911F9165
:105480000F91FF90EF90DF90CF90BF90AF909F90E3
:105490000895EF92FF920F931F93CF93DF93EC0148
:1054A0008B819A81890F89871A8681E08D8382E0BA
:1054B000E82EFF24F3948E01075F1F4F0E94FB34F8
:1054C000482F823011F0843089F4E881F9816B81B2
:1054D0008A81680F0280F381E02DCE0109958B81CE
:1054E0009A81890F8987EA86FD8204C0813089F01C
:1054F000883079F0C8010E947E338111FD828D8150
:10550000882319F0CE010E94D02A8A858F5F8A876E
:10551000D5CF8FEF898781E08E838D83483009F066
:1055200080E0DF91CF911F910F91FF90EF90089550
:105530000895FC0186EA90E09183808312821382B1
:10554000648381E0858386830895FC0184818230B1
:1055500010F022E001C0282F9281492F50E030E066
:1055600021503109421753071CF49F5F928308951D
:105570002381420F511D90E001974817590714F4F9
:105580002F5F23830895FC018281882319F08150C5
:10559000828308958381882311F081508383089545
:1055A000FF920F931F93CF93DF93EC0100E010E085
:1055B000F02E602F80E00E9485358A81081302C09A
:1055C0008EE301C080E20E9497356B819801260F1F
:1055D000311D8C8190E02817390744F4E881F98166
:1055E0006F0D0190F081E02DCE0109950E942336C8
:1055F0000F5F1F4F02301105D9F61D82DF91CF9149
:105600001F910F91FF9008950F931F93CF93DF93F6
:10561000EC010E94FB34182F0E945039882321F09E
:1056200081E08D838FE71CC00B818A81080F1230C7
:1056300031F0143039F4CE010E94A52A03C0CE0106
:105640000E94C32A8B819A81890F081711F081E08B
:105650008D838D81882319F0CE010E94D02A812F5D
:10566000DF91CF911F910F910895EF92FF921F93B9
:10567000CF93DF931F92CDB7DEB77C0181E0F701B6
:10568000858311E0C70169830E94042B6981811120
:1056900002C0F7011682F7019681911108C0883087
:1056A00031F481E0868383819281890F09C066236A
:1056B00011F0F7011583813029F79111E3CF8FEFB6
:1056C0000F90DF91CF911F91FF90EF900895CF93AE
:1056D000DF93CDB7DEB729970FB6F894DEBF0FBEC4
:1056E000CDBF6CE274E0CE0101960E94932D60E084
:1056F000CE0101960E94352B813039F0823041F085
:10570000811109C00E94202DF2CF0E94BC27EFCF4B
:105710000E940713ECCF87FFEACF29960FB6F894C3
:10572000DEBF0FBECDBFDF91CF9108950F931F93C2
:10573000CF93DF93EC010E94301601E010E09C0152
:1057400041E050E0BE0186E793E00E94E614DF915D
:10575000CF911F910F910895CF93DF9380917203A2
:1057600090917303892B51F10E94C315C1E0D0E0E1
:1057700002C0CC0FDD1F8A95E2F7809186039091DD
:105780008703892B11F4D05C07C00E94C3158823BE
:1057900011F0DF5B01C0DB5B0E94C315811106C005
:1057A0008091900390919103892B59F4809170031B
:1057B00090917103892B39F0D05805C0C0E0D0E436
:1057C00002C0DE5FF3CFCE01DF91CF910895CF937A
:1057D000DF93EC0183E06237780719F40E944D17DC
:1057E00013C083E06437780719F40E9428170CC0AF
:1057F00083E06837780719F40E940A1705C06A57D2
:10580000734011F40E9419170E9444160E94AC2B99
:10581000BC01CE01DF91CF910C948C291F93CF93C3
:10582000DF93CDB7DEB7E9970FB6F894DEBF0FBEB2
:10583000CDBF60E070E0CE0189960E94932D8FEF7E
:105840008AAB8EE990E09AA789A784E394E09DABA8
:105850008CAB8FEF9FE79FAB8EAB87EE9BE299AF50
:1058600088AF18E20E94AC2BBC01CE0189960E9441
:105870008C2960E0CE0189960E94352B87FD1FC0E0
:10588000E2E7F3E0DE011196812F01900D928A95F7
:10589000E1F7CE0189960E94492A81110AC0FE01D2
:1058A0003196A2E7B3E0812F01900D928A95E1F73E
:1058B000D9CF83E00E9498330E944416D3CFE99653
:1058C0000FB6F894DEBF0FBECDBFDF91CF911F9111
:1058D0000895DC011796ED91FC911897E60FF11DE4
:1058E000649182EB95E00C94F8350F931F93CF935E
:1058F000DF93EC018B0180E061E0680FF801E80FB5
:10590000F11DE491E93011F0862FF6CFCE010E940F
:10591000992A8CEA90E09983888318870F83DF9116
:10592000CF911F910F9108950E94C315209172038A
:1059300030917303232B59F0833061F0823069F08A
:10594000882371F0853079F48CE694E0089589E934
:1059500094E008958EE794E0089580E994E0089536
:1059600087E894E0089585E794E008951F93CF9326
:10597000DF93182F0E94ED160E94942CEC0160E03A
:10598000CE010E94352B87FD12C0EF81F885E80F0C
:10599000F11D87FDFA958491893031F40E940E2C17
:1059A000812F0E94FB16E8CF0E94AD13E8CFDF9154
:1059B000CF911F91089563EE75E089E994E00E940C
:1059C000752C6AED75E080E994E00E94752C6EEC10
:1059D00075E087E894E00E94752C63ED75E08EE732
:1059E00094E00E94752C68EC75E085E794E00E94D5
:1059F000752C66EC75E08CE694E00C94752C809127
:105A00005603909157030397029718F48FEF9FE77F
:105A100002C08EEF9FE720916A0330916B03232B26
:105A200009F402970895CF93DF93EC010E94FF2CB5
:105A3000BC01CE010E948C29DF91CF910C94FB1305
:105A40001F93CF93DF93CDB7DEB7AF970FB6F89420
:105A5000DEBF0FBECDBF60E070E0CE014F960E946A
:105A6000932D8FEF88A78EE990E098A38F8F84EE17
:105A700095E09BA78AA78FEF9FE79DA78CA783E15F
:105A80009DE29FA78EA71EE10E94FF2CBC01CE01C4
:105A90004F960E948C2960E0CE014F960E94352BD4
:105AA00087FD30C0682FCE014F960E945B29892B5D
:105AB00041F484E593E00E94F51383E00E9498335B
:105AC000E3CFE4E5F3E0DE011196812F01900D9222
:105AD0008A95E1F7CE014F960E94492A81110AC0AA
