:100000000C94D6040C94FE040C94FE040C94FE0490
:100010000C9453080C94FE040C94FE040C94FE04FF
:100020000C94FE040C9483080C94FE040C94FE04BF
:100030000C94FE040C941D090C9452090C94FE04BB
:100040000C942F080C94FE040C94FE040C94FE04F3
:100050000C94FE048F1298129C12A312A612AF12D7
:10006000AC12B212962D9A2D9F2DA42DA72DA92D3D
:10007000AE2DB12DB42DBA2DBD2DC02DC32DC62D45
:10008000CB2DCF2DD32DD62DD92DDE2DE12DE52D48
:10009000122E142E1B2E222E282E2C2E342E3C2EC9
:1000A000402E4B2E4D2E552E5D2E652E6C2E702E15
:1000B000742E762E782E7C2E7E2E842E4734493454
:1000C0004B344F344F344D3453345134C638A83840
:1000D000B138AA38B338A338AF3800000000006741
:1000E000582F00000000F567E630C80232002F2CC0
:1000F000E80310093200802F2C01000000000000EE
:1001000000000000000000000000000000002ECAF7
:100110007E3BC24CA40B0C4970170000000043BF8B
:10012000A80E0000000080D566100000000080D0FE
:10013000841F0000000031D5611000000000C0D60F
:1001400065100000000080D465100000000080D41D
:100150006510C60232002E2CE80304013200D205DD
:100160002C0100060800FF01010A01060900FF0337
:10017000020002060A00FF00000A06060E00FF0346
:10018000020005060D00FF02030004060C00FF0339
:10019000020003060B00FF04060007060700FF032A
:1001A0000200A60100006F7074696F6E73008025F5
:1001B0000000004B00000096000000E1000000C2BB
:1001C00001004600881370170000701764000100DA
:1001D000FBFFF1FF000005001E0001000A003200D5
:1001E0007800102700000000000001000800000057
:1001F000000003000000000000000000A808A308A1
:100200009E08990894088F088A08850880087B084A
:100210000000980898086C071027580201009808F9
:10022000F4016C070100E00102009808F4016C077A
:100230000100E00103009808DC006C070600E00103
:100240000400980898086C070300780005009808D7
:1002500098086C07030078000600980898086C0757
:10026000030078000700980898086C0703007800DE
:100270000800980898086C0703007800090098089F
:1002800098086C07030078000100010001000100DC
:100290000100B0041C07520300005203B004080719
:1002A000E8030000E803D0079209D60600006C07B7
:1002B000E40C100ED007E40CB80B100E0410C409A7
:1002C000A60EAC0D740E6810B80B0A0F890C740ED4
:1002D000CC10B80B0A0F890C740EFE10B80B0A0F65
:1002E000890C40066C07140540067805EA172C189F
:1002F0001A19A81AA31AD71A811B231C8D1B2C1C90
:10030000291C331C5A1C611C841CAA1E7A1E801EC8
:10031000CD209519CF2008090A00010706FF05F72F
:1003200005EF05E705000016060F06000026061D6E
:1003300006000037062F06000064002C016400E868
:100340000345063F06000052064B06000006090A58
:100350000B0C0D0E061F2021222324131288068267
:10036000067C06760670066A0664065E0658060077
:1003700000BE06B506A9069D068E060000D408CA72
:1003800008BC0800003E07390734072F072A072357
:100390000717070D070207000039092A0922091863
:1003A000090C090409F508EA08DD08000304070838
:1003B000000307080001020304080001020304050A
:1003C000060884077D0777076E0765076B086008D6
:1003D00059084D0844083B08340828081E0812082C
:1003E0000508FB07F107E607DC07D307C707BB07CC
:1003F000B107A5079E0796078D07000020202D2D29
:10040000202000636865616C692D636861726765AF
:10041000720A76302E39395F32303135303130332F
:100420000063616C69626174696F6E206572726FDE
:100430007200706C656173652063616C69627261E2
:10044000746500656570726F6D2072657365740AFE
:100450006572726F723A2000726573657474696EAA
:100460006720656570726F6D00206E6F2020202000
:10047000202020202079657300656570726F6D20E3
:1004800072657365743A0052455645525345205083
:100490004F4C4152495459004E2F41006572726FC2
:1004A000723A2020202000636F6D706C6574653A8D
:1004B00020009832008000004031FFFF0480293284
:1004C000FFFF0480E93100010880F5310001088058
:1004D000093200010080492F00C000004D2F00C0EC
:1004E0000000512F00400480552F004004809431BB
:1004F000FFFF04807831FFFF0080B231FFFF000072
:10050000CE31FFFF0000F532800000805431FFFF44
:1005100024800000FFFF00002500202D2D3A2D2D06
:10052000002020002000200064656C746120543D90
:1005300020004E2F4100546578743D0064656C7452
:100540006120563D20006D6178566F75743D002D19
:1005500000546578743D00206C696D69743D0056E7
:10056000696E7075743D00776972657320523D0045
:10057000626174742E20523D0020200062200074BD
:10058000696D653A2020202020004C696D697473E4
:100590003A20006E6F2064542F74002520004368B9
:1005A0004342426C446946435374534243590001E9
:1005B0000001000100010001000A006400010003C5
:1005C00000080009000A000B000C000100020004F2
:1005D00000060008000A000C00141719181A070575
:1005E000061F2021222324566D696E75733A00562A
:1005F000706C75733A200056623270696E3A00561C
:10060000623170696E3A0056623070696E3A0076F7
:10061000616C75653A0074656D703A2000706F69A1
:100620006E7420322E00706F696E7420312E004976
:100630006F75743A20200076616C75653A2000333E
:1006400030306D41003130306D4100313030306D2F
:1006500041003130306D4100566F75743A005631AB
:100660002D363A005662363A20005662353A20005E
:100670005662343A20005662333A20005662323ACB
:1006800020005662313A200056696E3A20006578A3
:10069000706572742044414E474552210074656D67
:1006A000702065787465726E0049206469736368B0
:1006B0006172676500492063686172676500766FE3
:1006C0006C746167650062616C616E636520706F58
:1006D00072742100626174746572792100646973B7
:1006E000636F6E6E65637400636F6E6E6563740036
:1006F00064542F6474002D64560056206C696D6933
:1007000074005265736574206E616D65004564699F
:1007100074206E616D6500437265617465206E6161
:100720006D6500546C696D3A200049643A200049B7
:10073000633A200043683A2000563A202000426184
:10074000743A2020004E616D653A0045646974205A
:100750006E616D653A006D5600206E6F00796573AD
:1007600000496E66006578742E20416463006578E8
:10077000742E20646562006465627567006E6F7236
:100780006D616C0064697361626C65640020202097
:1007900072657365740073706565643A2000554135
:1007A00052543A2000616463206E6F6973653A2089
:1007B0000062616C2E206572723A00666F7263652A
:1007C0002062616C3A20006469732061677265730E
:1007D0003A20006F2E64697363683A006F2E636875
:1007E000617267653A00696E707574206C6F773A54
:1007F0000063617020434F66663A006D696E204960
:100800006F75743A006D696E20496F75743A2049AE
:100810002F00626565703A20202020202000442FA0
:100820004320726573743A00442F43206379636CEC
:1008300065733A0052776972653A004E69436420E5
:1008400064563A004E694D482064563A00656E6120
:10085000622064563A2020200064542F64743A00C9
:10086000657874726E2054434F3A00657874726EE6
:1008700020543A20202000432F6D004E695A6E000C
:100880004C343335004C343330004C69706F004CBD
:10089000696C6F004C6966650050622020004E69EB
:1008A0004D48004E69436400556E6B6E006D696E75
:1008B0002E00756E6C696D69746564007265736590
:1008C000742064656661756C740063616C69627242
:1008D0006174650073657474696E6773006564693B
:1008E00074206261747465727900443E4320666FBF
:1008F000726D61740073746F726167652B62616CF5
:10090000616E630073746F72616765006661737412
:100910002063686172676500646973636861726708
:10092000650062616C616E63650063686172676532
:100930002B62616C616E636500636861726765005C
:100940006578742E74656D702E6375746F666600BD
:1009500074696D65206C696D6974006361706163B1
:10096000697479206375746F666600696E7075745A
:10097000205620746F206C6F77004857206661699D
:100980006C7572650062616C616E6365722064698A
:1009900073632E0062617474657279206469736395
:1009A0002E009905890A2B11E92BD93011241FBE7D
:1009B000CFE5D8E0DEBFCDBF10E0A0E6B0E0E8E1D3
:1009C000FAE702C005900D92AA3CB107D9F714E0EE
:1009D000AAECB0E001C01D92AE3BB107E1F719E00F
:1009E000CCEAD9E004C02297FE010E94A03CC23AA2
:1009F000D107C9F70E9426110C940A3D0C940000FF
:100A000086B380958170B19B02C090E001C092E0F6
:100A1000892BB29B02C090E001C094E0892BB39B6C
:100A200002C090E001C098E0892B0895882339F036
:100A3000A69AA79AD59A889A8A9A8F9A0895A6987C
:100A4000A798D59888988A988F98089520E042E0D2
:100A500060E18BEC90E00E94F2390E9406090E944E
:100A6000D80684ED92E60C9405068091D100882387
:100A700031F08091CA008F5F8093CA0002C010924B
:100A8000CA008091D1008A3010F480E001C088E073
:100A90009091D100943108F084E09091D1009E3182
:100AA00008F082E09091CA00982311F0C49A08954A
:100AB000C49808958093D1000895811106C0939A37
:100AC0000E942E0680E00C9425069398089580FFDE
:100AD00002C0AE9A01C0AE9881FF02C0AF9A01C0B9
:100AE000AF9882FF02C0DD9A01C0DD9883FF02C08B
:100AF000909A01C0909884FF02C0929A01C0929887
:100B000085FF02C0979A08959798089580E00E9403
:100B1000670580E00E945D051092D10087B18F7358
:100B200087B98B9A8D9AD79ABC9A8C9A8D9A8E9AFD
:100B300008958BEC90E00C94473A2FB7F89480918D
:100B4000D3009091D400A091D500B091D6002FBFD2
:100B5000892F9A2FAB2FBB27A7FDBA9508952FB7E2
:100B6000F8941092DA001092D9008617970768F46B
:100B700080E090E4A0E0B0E08093D3009093D400B4
:100B8000A093D500B093D60008C01092D300109265
:100B9000D4001092D5001092D6008091D30090918D
:100BA000D400A091D500B091D600BA2FA92F982FCC
:100BB00088278093D3009093D400A093D500B0935E
:100BC000D60081E08093D2002FBF0895CF93DF93AA
:100BD000EC01C13080E6D80758F4C13080E4D80772
:100BE00048F48EE00E9412099598BE018DE009C07C
:100BF000C0E0D0E68DE00E941209949ABE017054C4
:100C00008EE0DF91CF910C94F008853D22E69207AB
:100C100010F084ED92E6BC0180E00E94140D813C4E
:100C20002FEF920710F080EC9FEF2FB7F89490937E
:100C3000D8008093D7002FBF08952FB7F8949093D2
:100C4000DA008093D9002FBF0895882329F080E02F
:100C50000E942E06DF980895DF9A0895CF93DF93C0
:100C6000C82F882319F080E00E942506DFB7F8948A
:100C70008DE00E94120994988EE00E9412099598C6
:100C80001092D200DFBFC11104C0969ADF91CF91BC
:100C90000895969880E00E94430BEC0186E00E9444
:100CA000430BBE01DF91CF910C94AF050F931F93BF
:100CB0008091D200882309F474C080E00E944C0B1C
:100CC0002091D7003091D8008217930730F080E050
:100CD0000E942E061092D20064C082E00E944C0B4B
:100CE0004091D9005091DA0060E070E00091D300AB
:100CF0001091D4002091D5003091D600481B590B9B
:100D000061097109E2E0440F551F661F771FEA95DC
:100D1000D1F7040F151F261F371F0093D300109320
:100D2000D4002093D5003093D6008091D3009091C9
:100D3000D400A091D500B091D600B7FF08C01092A2
:100D4000D3001092D4001092D5001092D60080915A
:100D5000D3009091D400A091D500B091D600019716
:100D6000A046B10560F080E090E0A0E6B0E080939E
:100D7000D3009093D400A093D500B093D600809177
:100D8000D3009091D400A091D500B091D600892FC6
:100D90009A2FAB2FBB27A7FDBA951F910F910C94EB
:100DA000E6051F910F910895BC018EE00C94F008A8
:100DB000DE98D698BD9ABE9ABF9A8EEA86B9369AC0
:100DC000089584B135B1E091E4002FB7F89490E034
:100DD000932BF0E0DF01AA0FBB1FA852BD4F119665
:100DE0009C938E933091DD00332391F0EE0FFF1F23
:100DF000EE0FFF1FE650FD4F4081518162817381EC
:100E0000480F591F611D711D408351836283738395
:100E10002FBF0895CF930E9447219093F7028093AC
:100E2000F6020E940B1B9093F9028093F8028091C6
:100E3000DD00882309F459C00E9447214091360300
:100E4000509137036091380370913903CAE09C01D7
:100E5000C29FC001C39F900D1124480F591F611DEF
:100E6000711D40933603509337036093380370939A
:100E700039030E940B1B40913A0350913B03609150
:100E80003C0370913D039C01C29FC001C39F900D24
:100E90001124480F591F611D711D40933A0350934F
:100EA0003B0360933C0370933D0380913E0390911C
:100EB0003F030197B9F48091020390910303A0913D
:100EC0000403B091050352E0B695A79597958795D1
:100ED0005A95D1F78093020390930303A0930403E0
:100EE000B0930503CF910C94060ECF910895089509
:100EF00080917B0390917C03892BE9F04091E10084
:100F00004423C9F081E090E00090DF0002C0880F28
:100F1000991F0A94E2F720913E0330913F032F700E
:100F20003FB7F8945BB39BB3982B9BBB240F2A95D8
:100F3000F1F75BBB3FBF08958091DC008F5F80318C
:100F400008F080E08093DC008091DE009091DF006B
:100F5000A091E000B091E1008093E2009093E30063
:100F6000A093E400B093E500E091DC00EF5FE03196
:100F700008F0E0E084E0E89FF0011124EE59FE4F14
:100F800085919591A591B4918093DE009093DF00B7
:100F9000A093E000B093E10080917D0390917E03E7
:100FA000892B39F08091DE00873019F486E0809338
:100FB000DE008091DC0081110CC00E940A07809144
:100FC0003E0390913F0321E0892B09F420E0209318
:100FD000DD0008950E94E1068091DB0091E0980F0A
:100FE0009093DB00873079F128F4882341F0813039
:100FF000A9F00895883049F1893061F10895809110
:10100000DE0087FD05C088B38F71806C88BBD69ADF
:101010008091E400823011F50C9456068091DE0038
:1010200087FD1CC04FB7F8943AB33F7B28B380913B
:10103000DE0050E28502C00111242F71282B28BB4D
:101040003ABB4FBF08950C9478078091DF0080620F
:1010500087B908951092DB000C949C0708951F92A5
:101060000F920FB60F9211242F933F934F935F93DC
:101070006F937F938F939F93AF93BF93EF93FF9360
:101080000E94EA07FF91EF91BF91AF919F918F91DD
:101090007F916F915F914F913F912F910F900FBE74
:1010A0000F901F9018951F920F920FB60F92112458
:1010B0002F933F934F935F936F937F938F939F9360
:1010C000AF93BF93EF93FF930E948534FF91EF910D
:1010D000BF91AF919F918F917F916F915F914F9150
:1010E0003F912F910F900FBE0F901F90189588E0A1
:1010F00085BD85B5846085BD14BC8CE783BD89B78B
:10110000806889BF08951F920F920FB60F92112425
:101110002F933F934F935F936F937F938F939F93FF
:10112000AF93BF93EF93FF932091EC003091ED00CC
:101130008091E8009091E900820F931F9093E9005D
:101140008093E8002091EA003091EB008091E60066
:101150009091E700820F931F9093E7008093E60041
:101160002FB7F8948091E8009091E90035E09695CA
:1011700087953A95E1F79BBD8ABD8091E6009091F5
:10118000E70045E0969587954A95E1F799BD88BDBA
:101190002FBF8091E8009091E9008F71992790937B
:1011A000E9008093E8008091E6009091E7008F715C
:1011B00099279093E7008093E6000E943505FF9100
:1011C000EF91BF91AF919F918F917F916F915F91BF
:1011D0004F913F912F910F900FBE0F901F90189538
:1011E0009FB7F8948E3039F47093ED006093EC0063
:1011F0008FB5806808C08D3039F47093EB00609330
:10120000EA008FB580628FBD9FBF089580E092E0B5
:1012100097BD86BD82E08FBD89E18EBD89B78460B0
:1012200089BF08958E3019F48FB58F7704C08D3043
:1012300019F48FB58F7D8FBD08951F920F920FB651
:101240000F9211242F933F934F938F939F93EF937C
:10125000FF935A991AC04CB18091040290910502F3
:101260000196992720910602309107028217930771
:1012700069F0E0910402F0910502EC5FFE4F4083BB
:10128000909305028093040201C08CB1FF91EF910D
:101290009F918F914F913F912F910F900FBE0F9083
:1012A0001F9018951F920F920FB60F9211242F9333
:1012B0003F938F939F93EF93FF932091040230917C
:1012C000050280910602909107022817390711F450
:1012D000559812C0E0910602F0910702EC5FFE4FB4
:1012E00020818091060290910702019699279093A0
:1012F0000702809306022CB9FF91EF919F918F9185
:101300003F912F910F900FBE0F901F901895CF9285
:10131000DF92EF92FF92CF93DF93EC016A017B01A2
:10132000411581EE580761057105F9F0E885F985E9
:1013300081E090E00C8802C0880F991F0A94E2F7C0
:10134000808360E079E08DE390E0A70196010E9440
:101350005D3C215031094109510956954795379512
:101360002795211580E1380798F0E885F9851082E6
:1013700060E874E88EE190E0A70196010E945D3C70
:1013800021503109410951095695479537952795BF
:10139000EC81FD813083EE81FF8120831D8AEA8507
:1013A000FB85408181E090E09C01098802C0220F0A
:1013B000331F0A94E2F7422B4083EA85FB85408184
:1013C0009C010A8802C0220F331F0A94E2F7422BC5
:1013D0004083EA85FB8520810B8802C0880F991F16
:1013E0000A94E2F7809582238083DF91CF91FF906A
:1013F000EF90DF90CF900895CF93DF93FC0182812F
:101400009381DC01B395EC01CE5FDE4F4D915C9191
:1014100011972881398142175307C1F7A285B385F7
:101420004C9181E090E09C01018802C0220F331FA3
:101430000A94E2F7209524232C93A285B3854C913E
:101440009C01028802C0220F331F0A94E2F7209504
:1014500024232C93A285B3852C91038802C0880F86
:10146000991F0A94E2F7809582238C938081918161
:10147000FC01EE5FFE4F20813181FC01F395318349
:101480002083DF91CF910895FC018589882329F07D
:10149000A085B1858C9186FFFBCF158A0895CF93E7
:1014A000DF93FC0122813381D901B3958D919C9109
:1014B000119701969927E901CE5FDE4F4881598146
:1014C00084179507D9F30D90BC91A02DA20FB31FDF
:1014D0006C93A281B381B39511969C938E93A28550
:1014E000B3852C9181E090E0038802C0880F991F9A
:1014F0000A94E2F7282B2C9381E0858B0084F185F8
:10150000E02D80818064808381E090E0DF91CF9145
:10151000089584E091E09093EF008093EE00909323
:10152000F1008093F00080E490E09093F3008093CA
:10153000F20029E230E03093F5002093F4002BE232
:1015400030E03093F7002093F6002AE230E0309349
:10155000F9002093F8009093FB008093FA008CE24E
:1015600090E09093FD008093FC0084E08093FE0067
:1015700083E08093FF0087E08093000185E0809303
:10158000010181E0809302010895CF93DF931F92C0
:10159000CDB7DEB7E091BA04F091BB04309711F4F7
:1015A000EEEBF4E0CE0101962EEB8E179F0710F0C4
:1015B0002193FBCF0F90DF91CF910895CF93DF93CD
:1015C00000D0CDB7DEB72091BA043091BB0421150D
:1015D000310511F42EEB34E0CE010196821B930B02
:1015E0000F900F90DF91CF910895CF93DF931F92CB
:1015F000CDB7DEB72091BA043091BB042115310577
:1016000011F42EEB34E0F901AE014F5F5F4FCF01D3
:10161000821B930B4E175F0728F060816E3B11F41D
:101620003196F5CF0F90DF91CF910895009741F05B
:10163000EFE9FFE03197F1F700C000000197F6CF26
:1016400008958436910538F064E670E00E94493CC4
:10165000CB010C94160B019728F025E32A95F1F79E
:101660000000F9CF08956AE070E00E94493CCB0188
:101670000C94210BE82FF0E0EE0FFF1FEA54FD4F12
:10168000808191810895E82FF0E0EE0FFF1FE4596B
:10169000FD4F8081918108952FB7F894E82FF0E0F5
:1016A000EE0FFF1FE852FD4F808191812FBF0895FB
:1016B0008091410308958091200290912102089524
:1016C00080910E0290910F020895809110029091E6
:1016D00011020895E82FF0E0EE0FFF1FEE5DFD4FC1
:1016E000808191810895262F613110F4423040F0BD
:1016F00021E030E0FC01338322833183208308958D
:1017000050E0BA01620F711D620F711D660F771FE5
:10171000660F771F665F7F4F44E050E00C94C53C36
:10172000282FCA01213188F4623078F470E0620F0A
:10173000711D620F711D660F771F660F771F665F41
:101740007F4F44E050E00C94E33C0895FF920F93E8
:101750001F93CF93DF9300D000D0CDB7DEB70AED53
:1017600010E0F12CF80145915591659174914983F0
:101770005A836B837C83AE014F5F5F4F60E08F2D98
:101780000E94900BF80134964591559165917491A2
:1017900049835A836B837C83AE014F5F5F4F61E067
:1017A0008F2D0E94900BF394085F1F4F81E1F81278
:1017B000D9CF81E00E94B7110F900F900F900F903A
:1017C000DF91CF911F910F91FF90089581E02091BB
:1017D0009602309197022331310509F080E0089597
:1017E0008091940290919502089580919002909139
:1017F0009102089580919A0290919B0208958091A0
:101800004A0290914B02039750F0809150029091C0
:101810005102039720F083E090E00C94661880E07A
:1018200008952FB7F89480E090E0FC01EE0FFF1FC1
:10183000EE0FFF1FE650FD4F1082118212821382BD
:1018400001968131910589F784E690E090933F03FA
:1018500080933E03109240032FBF0895CF93CFB7DC
:10186000F89410921F0210921E0210921A02109207
:101870001B0210921C0210921D021092160210926E
:10188000170210921802109219021092120210926E
:10189000130210921402109215020E94AD3490931C
:1018A0000D0280930C02CFBFCF9108950E942E0CA1
:1018B000109211021092100210920F0210920E025A
:1018C0000895E2E2F2E01192119282E0EC36F8071C
:1018D000D1F70895CF93CFB7F89481E090E090933B
:1018E0003F0380933E0381E0809340030E94610C9C
:1018F000CFBFCF910895CF93DF930E946A0CC09120
:101900002002D09121028091200290912102C817DB
:10191000D90729F48AE090E00E94D334F4CFDF9114
:10192000CF9108951092410380E00C945D05CF9310
:10193000DF9381E00E944C0BEC0180E00E944C0B95
:101940008C179D0718F4C81BD90B02C0C0E0D0E06B
:1019500081E0C93ED34008F480E0DF91CF91089543
:101960008F929F92AF92BF92CF92DF92EF92FF92AF
:10197000CF93DF93CDB7DEB728970FB6F894DEBFCD
:101980000FBECDBFF82E5B0161157105D1F140E0AE
:10199000682FCE0105960E94730B41E06F2DCE019A
:1019A00001960E94730B2B813C8140E050E0CF8078
:1019B000D884E12CF12C2C193D094E095F09B501A1
:1019C00080E090E08D809E80A12CB12C681979096F
:1019D0008A099B090E942D3C29813A8140E050E010
:1019E000281939094A095B090E947F3C2C0D3D1DCD
:1019F0004E1D5F1D57FF03C020E030E0A901C90163
:101A000002C080E090E028960FB6F894DEBF0FBECB
:101A1000CDBFDF91CF91FF90EF90DF90CF90BF903F
:101A2000AF909F908F9008958F929F92AF92BF92A8
:101A3000CF92DF92EF92FF92CF93DF93CDB7DEB7D5
:101A400028970FB6F894DEBF0FBECDBFF82E5B010E
:101A500061157105D1F140E0682FCE0105960E9415
:101A6000730B41E06F2DCE0101960E94730B29810B
:101A70003A8140E050E0CD80DE80E12CF12C2C1941
:101A80003D094E095F09B50180E090E08F809884A0
:101A9000A12CB12C681979098A099B090E942D3C57
:101AA0002B813C8140E050E0281939094A095B0943
:101AB0000E947F3C2C0D3D1D4E1D5F1D57FF03C036
:101AC00020E030E0A901C90102C080E090E0289642
:101AD0000FB6F894DEBF0FBECDBFDF91CF91FF9060
:101AE000EF90DF90CF90BF90AF909F908F90089530
:101AF0008250893130F4E82FF0E0EF58FF4F8081B9
:101B0000089581E00895CF93DF93833149F481E014
:101B1000209196023091970223313105C1F41AC009
:101B2000E82FF0E0EE0FFF1FE459FD4FC081D18197
:101B30000E94780D882319F0813029F00AC081E0D5
:101B4000E39740F404C081E0C935D24018F480E046
:101B500001C081E0DF91CF910895CF93C0E08FE184
:101B60008C0F0E94830D882329F0CF5FC630B9F710
:101B700086E001C08C2FCF9108951F93CF93DF9300
:101B80001F92CDB7DEB7182F69830E94780DE12F21
:101B9000F0E0EE0FFF1FE459FD4F4981682F80816F
:101BA00091810F90DF91CF911F910C9493382FB7B3
:101BB000F894609108027091090280910A02909154
:101BC0000B022FBF2DE730E040E050E00E945D3C6B
:101BD000BB27A52F942F832F089520919A0230912F
:101BE0009B028091080290910902A0910A02B09193
:101BF0000B02820F931FA11DB11D809308029093C9
:101C00000902A0930A02B0930B02089580913E034B
:101C100090913F03892B49F080913E0390913F03BF
:101C2000019790933F0380933E03089590E0880FBF
:101C3000991FFC01E459FD4F208131816217730720
:101C400018F4261B370B04C0AB01421B530B9A013F
:101C5000FC01EE5DFD4F2730310518F01182108236
:101C600006C0208131812F5F3F4F31832083FC01EB
:101C7000E459FD4F7183608308958FB7F8941092F3
:101C800008021092090210920A0210920B028FBFF2
:101C90000E946A0C0E94560C60E070E089E10E948C
:101CA000160E60E070E08BE10E94160E60E070E0BE
:101CB0008CE10E94160E60E070E08DE10C94160E2F
:101CC00010922102109220020E943D0EECE6F2E0FA
:101CD0001192119282E0E63BF807D1F708958091C6
:101CE000410381110AC081E00E945D050E94600EDF
:101CF00081E0809341030C947B0C08950C94600E5A
:101D0000AF92BF92CF92DF92EF92FF920F931F9309
:101D1000CF93DF931F92CDB7DEB7A0906C02B09047
:101D20006D0280916E0290916F028A159B0518F4E6
:101D3000A81AB90A02C0A12CB12CB50182E10E94F7
:101D4000160E20917C0230917D0280917E0290914E
:101D50007F0200918002109181022817390720F438
:101D6000BC01621B730B02C060E070E0801791073A
:101D700018F4081B190B02C000E010E08FE10E946C
:101D8000160EB80180E20E94160E02E812E091E2FF
:101D9000F801619171918F01892F99830E94160E2C
:101DA00099819F5F9532A1F70E94AD0DF82E80E0DA
:101DB00000E010E08F1569F0EFE1E80FF0E0EE0FC2
:101DC000FF1FE459FD4F20813181020F131F8F5FE8
:101DD000F1CFB80183E10E94160E0115110581F0C3
:101DE0000A151B0520F49501201B310B03C0980137
:101DF0002A193B09293B3B4018F4580113E102C062
:101E000012E1F12CB50184E10E94160E6F2D70E0F5
:101E100086E10E94160E612F70E085E10E94160E89
:101E20000E94D70D8C010E94FC1A882329F0E090B3
:101E30007202F09073020BC00E943821882329F0AF
:101E4000E0907002F090710202C0E12CF12CB70119
:101E500087E10E94160EB80189E10E94160E9701D3
:101E6000D5010E940C3C30E1C32E37E2D32EE12C89
:101E7000F12CA70196010E945D3CB90188E10E9406
:101E8000160E9801D5010E940C3CA70196010E94F4
:101E90005D3CB9018AE10F90DF91CF911F910F91C5
:101EA000FF90EF90DF90CF90BF90AF900C94160E04
:101EB0004F925F926F927F928F929F92AF92BF925A
:101EC000CF92DF92EF92FF92CF93DF93CDB7DEB741
:101ED00028970FB6F894DEBF0FBECDBF0E94AD3479
:101EE00020910C0230910D02821B930B8133954798
:101EF00008F4A0C04FB7F89420911E0230911F0241
:101F0000A8EEB3E00E940C3C6B017C01F694E794D0
:101F1000D794C79440901A0250901B0260901C0204
:101F200070901D0260911602709117028091180244
:101F3000909119028090120290901302A0901402C6
:101F4000B09015024FBF6D837E838F8398870E9468
:101F50002E0C20911002309111022F5F3F4F3093D1
:101F60001102209310026D817E818F819885A701D7
:101F700096010E945D3C29833A834B835C83C301B5
:101F8000B201A70196010E945D3CB90180E00E9468
:101F9000B00C3C0169817A8181E00E94B00C861509
:101FA000970518F4681A790A02C0612C712C4090C8
:101FB000A4025090A5026414750420F0B3018CE1D2
:101FC0000E94160EB301641975098BE10E94160E6A
:101FD000C501B401A70196010E945D3CB90187E0EB
:101FE0000E94B00C20910E0230910F0290930F02CC
:101FF00080930E02BC01621B730B660F771F8DE18D
:102000000E94160EB6018EE128960FB6F894DEBF38
:102010000FBECDBFDF91CF91FF90EF90DF90CF90BB
:10202000BF90AF909F908F907F906F905F904F90F8
:102030000C94160E28960FB6F894DEBF0FBECDBFD7
:10204000DF91CF91FF90EF90DF90CF90BF90AF9056
:102050009F908F907F906F905F904F900895CF9258
:10206000DF92EF92FF920F931F93CF93DF932FB7DF
:10207000F89480913E0390913F032FBF892B09F084
:10208000ADC08091400381119FC08091200290914A
:102090002102019690932102809320024091FA023E
:1020A0005091FB026091FC027091FD02769567955C
:1020B0005795479580911A0290911B02A0911C029E
:1020C000B0911D02840F951FA61FB71F80931A029F
:1020D00090931B02A0931C02B0931D024091FE023C
:1020E0005091FF026091000370910103769567950E
:1020F000579547958091160290911702A09118026A
:10210000B0911902840F951FA61FB71F8093160266
:1021100090931702A0931802B093190240911603EE
:102120005091170360911803709119037695679584
:10213000579547958091120290911302A091140235
:10214000B0911502840F951FA61FB71F809312022E
:1021500090931302A0931402B093150280911E0273
:1021600090911F02019690931F0280931E020E947D
:10217000580F06EB12E0C0E0D0E0B8EECB2EB3E093
:10218000DB2EE12CF12CFE01EE0FFF1FEE0FFF1FE7
:10219000E650FD4F6081718182819381A701960194
:1021A0000E945D3CF801219331938F01B9018C2F7E
:1021B0000E94B00CBC018C2F0E94160E2196C131DA
:1021C000D10509F70E94800EDF91CF911F910F91E9
:1021D000FF90EF90DF90CF900C94110CDF91CF9196
:1021E0001F910F91FF90EF90DF90CF900895809115
:1021F000410381110C942F10089560E082E493E074
:102200000E94BD2987FD0AC0811102C00C94EF29EC
:10221000992787FD909501970C94B92B08950E94FA
:10222000860578940E9426050E9477080E94DC218A
:102230000E947A1B0E947E0E0E94C50A0E94FC1218
:102240000E94F12F0E94D1300C943D120E940F1178
:102250000E94FD10FDCF62EA71E082E493E00E94EB
:10226000932E8EE890E09093430380934203E6E43C
:10227000F3E08081825E80830895FC0124812E51E9
:10228000621710F40C948E2E862F90E0821B910919
:102290000E94B6156EE00C94D736FF920F931F93F1
:1022A000CF93DF93EC018B0141110E94043D85E047
:1022B000F82EFA9459F0CE010E94DD3C8017910768
:1022C00039F084E690E00E94BF34F3CF81E001C092
:1022D00080E0DF91CF911F910F91FF900895EF92D1
:1022E000FF920F931F93CF93DF937B018C01E80E36
:1022F000F91ECFEFDFEF0E151F05A9F0C8010E94F0
:10230000D53CC82728E0CE01969587953C2FEC0157
:1023100030FF04C031E0C32730EAD327215099F7BA
:102320000F5F1F4FE8CFCE01DF91CF911F910F912B
:10233000FF90EF900895EF92FF920F931F93CF932A
:10234000DF931F92CDB7DEB78C017B0149830E94DA
:102350006F114981BC01C8018E0D9F1D0F90DF9147
:10236000CF911F910F91FF90EF900C944D11482F3A
:1023700068E870E08AE090E00C949B11482F6CE0D4
:1023800073E084E990E00C949B11482F6AE370E0BD
:1023900082EA93E00C949B111F93CF93DF93D82F85
:1023A000182F1170412F63E678E680E090E00E94DC
:1023B0004D11C82F412F6CE679E682E090E00E9433
:1023C0004D118111C1E0D1FB442740F969E070E073
:1023D00084E090E00E944D118111C260D2FB44273D
:1023E00040F962E070E086E090E00E944D118111BA
:1023F000C460D3FB442740F967E070E088E090E0D8
:102400000E944D118111C860D4FD0E94A60B80E08E
:102410000E94B7118111C061D5FD0E94E51680E0D0
:102420000E94BE118111C062D6FD0E94191380E086
:102430000E94C5118111C0648C2FDF91CF911F9133
:102440000895CF93C82F0E948C30882399F0C0FD47
:10245000C260C1FDC461C2FDC862C3FDC0640E9408
:10246000A9308C2F0E94CC11682F8C2F0E94AD3088
:1024700081E001C080E0CF91089580E00E94CC11FE
:1024800081110C94211281E0089580E00E94CC110A
:1024900081600C942112CF930E94E72F88EF92E085
:1024A0009093CF038093CE03C1E0C093CD031092ED
:1024B000C50389E893E00E943F14823011F4C09371
:1024C000C5030E94641A91E0813009F090E0892FE1
:1024D000CF91089561E081E00E94AE1984E093E01D
:1024E0009093CF038093CE03089560E082E00E9432
:1024F000AE1982EF92E09093CF038093CE030895BC
:10250000909169039093C6031092C50390E08830C0
:10251000910560F5FC01E65DFF4F0C949E3C89E857
:1025200093E00E943F14811114C080E193E006C043
:1025300081E08093C5030DC08CEE92E09093CF03B1
:102540008093CE0311C00E9475120EC085E0809367
:10255000C6030E946A1208C081E08093C5038AE026
:1025600093E0ECCF0C9437170C94641A0E943D3022
:1025700080E00895CF93C82F0E948627882351F1C9
:10258000C0934E0310924C0310924B0383E0809350
:102590004D030E94883A0E946F0E0E944B128823BE
:1025A00091F081E080934D030E946A1D0E94E72F05
:1025B0001092CD0384E00E948B3380914E030E94E1
:1025C00080120E94A61D0E94920C0E94983ACF9100
:1025D0000C94F02FCF910895DC01D096ED91FC91F1
:1025E000D197EE0FFF1FEE0FFF1FE255FE4F6591D3
:1025F00075918591949108954AE350E062EA73E001
:102600008FE493E00E94C53C0C944C1D4AE350E0DB
:1026100062EA73E08FE493E00E94E33C81E00E9471
:10262000C5110C944C1D4AE350E062EC71E00C942F
:10263000A43C8FE493E00E9413130C940613FC0156
:10264000248935892630310520F025E030E0358BAE
:10265000248B08950C944C1D0F931F93CF93DF93FD
:10266000CDB7DEB7C554D1090FB6F894DEBF0FBEA3
:10267000CDBF8C01BC01CE0101960E94012CCE0180
:1026800001960E941E2C8AE3FE013C96D80101901F
:102690000D928A95E1F70E9406130E944C1DCB5BB8
:1026A000DF4F0FB6F894DEBF0FBECDBFDF91CF91E5
:1026B0001F910F910895FC0125913491F90109941E
:1026C00040E0FC01259134910296232B11F04F5FDD
:1026D000F8CF842F0895282F81E090E03AE0215030
:1026E00038F0AC01349FC001359F900D1124F7CF15
:1026F000089597FD02C081E008958FEF0895CF926D
:10270000DF92EF92FF92CF936115710581059105DC
:1027100021F461E070E080E090E0C0E02AE0C22EA9
:10272000D12CE12CF12CCF5FA70196010E945D3CDA
:10273000CA01B9012115310541055105A1F78C2FB9
:10274000CF91FF90EF90DF90CF900895FC01208112
:102750003181260F371F37FF03C011821082089581
:1027600050E0421753071CF451834083089531838E
:1027700020830895FC0120813181260F371F121616
:1027800013062CF081E090E091838083089550E05F
:10279000421753071CF451834083089531832083EB
:1027A00008958F929F92AF92BF92CF92DF92EF9255
:1027B000FF920F931F93CF93DF936C015B014A014C
:1027C000E901FC01E080F180B70180E090E00E9427
:1027D0007F13209749F4823028F082500E946B13B7
:1027E000EC0102C0C1E0D0E0C701BE010E94493C3B
:1027F000009741F01A141B041CF4C81BD90B05C028
:10280000EC0111C01A141B0474F4C4018C1B9D0B41
:10281000E816F90618F4CE0DDF1D01C0E401F6013B
:10282000D183C0830EC010E0C8018C0F9D1F8E1590
:102830009F0518F4EC1AFD0A01C07801F601F18237
:10284000E082DF91CF911F910F91FF90EF90DF9089
:10285000CF90BF90AF909F908F9008950F9304E614
:1028600020E030E00E94D1130F9108950E941535A9
:102870008111FCCF0E9415358823E1F30895FC01F6
:10288000808191818930910579F09C012450310932
:102890002530310558F09C012150310981E022306A
:1028A000310528F480E0089583E0089582E00895DA
:1028B0000F931F93CF93DF93EC018B0150E00E94A5
:1028C000DE354AE3B801CE01DF91CF911F910F9120
:1028D0000C948A35EF92FF920F931F93CF93DF935F
:1028E00000D01F92CDB7DEB78C01462F0C969A838D
:1028F00089838EE08B83D801ED91FC91EE0FFF1F51
:10290000E450FE4FE590F490BE016D5F7F4FCE0125
:1029100001960E945814A701BE016D5F7F4FCE0142
:1029200001960E94A53540E2BE016D5F7F4FCE014A
:1029300001960E948A35F80142815381BE016D5F84
:102940007F4FCE0101960E94DE354FE2BE016D5FE2
:102950007F4FCE0101960E948A35D80118964D917D
:102960005C911997BE016D5F7F4FCE0101960E9469
:10297000DE350F900F900F90DF91CF911F910F9147
:10298000FF90EF900895CF93DF9300D01F92CDB7C3
:10299000DEB7462F2EE02B830C969A838983BE01E7
:1029A0006D5F7F4FCE0101960E9458140F900F90DB
:1029B0000F90DF91CF9108952AE1289FB001299FC0
:1029C000700D11246C567F4F4AE150E089E893E086
:1029D0000C94C53C2AE1289FB001299F700D112459
:1029E0006C567F4F4AE150E089E893E00C94E33C59
:1029F000FC018081918125E0289FF001299FF00D45
:102A00001124E60FF11DEE0FFF1FE857FD4F8591D2
:102A100094910895DC018D919C91119725E0289F58
:102A2000F001299FF00D1124E60FF11DEE0FFF1F9D
:102A3000E857FD4F8591949118962D913C911997E7
:102A4000AC01429FC001439F900D529F900D1124F5
:102A50000895FC01A281B38120916D0330916E0332
:102A60000E940C3C24E630E040E050E00E945D3CD7
:102A7000293EFDEF3F074105510520F028EE3DEFCF
:102A800040E050E0C9010895FC01208131812130EE
:102A9000310529F420915F03309160030AC0223090
:102AA000310529F420915D0330915E0302C020E0DE
:102AB00030E0FC0180859185AC01249FC001259FF9
:102AC000900D349F900D11240895FC0120813181D7
:102AD0004CE0429FB001439F700D1124605F7D4F19
:102AE0004CE050E00C94A43CFC0160818CEF91E040
:102AF0000C94B136CF93DF93EC018881998160E02B
:102B0000892B41F4CE010E940A1567E0DF91CF9135
:102B10000C94DB38CE010E940A1565E00E94DB3878
:102B20008FE20E943336888599850E946F3683E450
:102B3000DF91CF910C94333666E0FC01848195815E
:102B40000C94D73866E0FC01868197810C94D738C5
:102B5000FC0182819381883EFDEF9F0721F482EB87
:102B600098E00C94993667E00C94D3382AE1AC01D4
:102B7000249FC001259F900D112480569F4F0895DA
:102B80000F931F93CF93DF93CDB7DEB7A7970FB601
:102B9000F894DEBF0FBECDBF8C01AB01BC01CE01EE
:102BA00001960E94482ACE0101960E94CD2A8AE110
:102BB000FE013C96D80101900D928A95E1F7A79607
:102BC0000FB6F894DEBF0FBECDBFDF91CF911F913E
:102BD0000F910895FC0120813181260F371F2A3083
:102BE000310550F01616170624F4FC0111821082EC
:102BF00005C029E030E0FC01318320830C94651589
:102C000062E00E940A159C0140E050E060E870EF2D
:102C10008AEF92E00E945D3C293883E13807410544
:102C2000510520F028E833E140E050E0C901089563
:102C300062E00E940A159C0140E050E060E47BE401
:102C40008CE490E00E945D3C293E83E0380741051A
:102C5000510520F028EE33E040E050E0C90108952E
:102C60000F931F93CF93DF9300D0CDB7DEB78C01C6
:102C700069837A830E940016AC0169817A81C80158
:102C800004960F900F90DF91CF911F910F910C94AC
:102C90002E140F931F93CF93DF9300D0CDB7DEB7E1
:102CA0008C0169837A830E941816AC0169817A814C
:102CB000C80106960F900F90DF91CF911F910F9151
:102CC0000C942E14FC01808191812AE0289FF00150
:102CD000299FF00D1124E657FD4F6591749184ED05
:102CE00092E60E94493CCB010895EF92FF920F9328
:102CF000CF93DF9300D0CDB7DEB77C0169837A83B1
:102D00000E946216F7012081318169817A81232B2B
:102D100019F422E330E002C020E030E001E0AC0131
:102D2000C70108960E94D1130F900F90DF91CF91A9
:102D30000F91FF90EF900895CF93DF93EC010E94E5
:102D40006216288539858217930710F4998788873A
:102D5000CE010E9400162C813D818217930710F44A
:102D60009D838C83CE010E9418162E813F8182178D
:102D7000930710F49F838E83DF91CF9108950F9373
:102D80001F93CF93DF93EC0104E620E030E048EEA0
:102D90005DEF02960E94D1130A811B811D830C8373
:102DA000CE010E943F14813039F4C8019695879571
:102DB000969587959D838C831F830E83CE01DF912B
:102DC000CF911F910F910C949C160F931F93CF934B
:102DD000DF934CE050E068E572E089E893E00E9400
:102DE000A43C89E893E00E949C16C0E0D0E08E01EC
:102DF0000F5F1F4FB80189E893E00E94C314CE0112
:102E00000E94EA140E31110511F0E801F0CF81E0C3
:102E1000DF91CF911F910F910C94BE11FC0182851F
:102E20009385883EF3E09F0719F482EB98E004C095
:102E30000E946F368DEA98E00C9499360F9301E06A
:102E400020E030E048EE53E00A960E94D1130F9143
:102E5000089580916503909166030E944E1C8EEF49
:102E600092E09093CF038093CE030C94641A81E098
:102E70008093CD031092A3034091A303242F30E04D
:102E80008091630390916403880F991F019728171D
:102E9000390711F41092CD0340FF02C080E001C059
:102EA00083E00E948012813089F49091CD039923B0
:102EB00069F08091A3038F5F8093A3030E944D1D4F
:102EC0000E943D0E0E9429178130B1F20895809131
:102ED000C203811113C00E94580B882381F00E9405
:102EE0005B0B2091A4033091A503821B930B9C01E3
:102EF00081E02530310518F080E0089581E00895E3
:102F0000815E0C94430B0F931F93CF93DF9310E0DC
:102F1000CFEFDFEF00E08091C403181760F4812F3A
:102F20000E9480178C179D0710F0CE0101C0012F61
:102F30001F5FEC01F0CF802FDF91CF911F910F9198
:102F40000895CF93DF939091C203911104C0DF9154
:102F5000CF910C9480179091A803C82FD0E09923AB
:102F600091F00E948017CC0FDD1FFE01E755FC4F4A
:102F7000CB54DC4F2081318148815981241B350B92
:102F8000280F391F07C0FE01EE0FFF1FE755FC4F4A
:102F900020813181C901DF91CF910895CF93C82F4E
:102FA0008091C203882341F0C11106C00E945B0BCF
:102FB0009093A5038093A403C093C2030E94610C65
:102FC0008091C103811104C08C2FCF910C946705AF
:102FD000CF910895EF92FF920F931F93CF93DF93BA
:102FE00081E00E94160586E10E94430B8093C40392
:102FF00005EB13E039EAE32E33E0F32EC0E0D0E036
:103000008091C40390E0C817D9076CF48C2F0E94FC
:103010008017F801819391938F01F7018193919328
:103020007F012196EDCF1092C2031092C10380E080
:103030000E94CE171092A5031092A403DF91CF91A6
:103040001F910F91FF90EF90089580E00E94CE179E
:1030500081E08093C10308950E94251880E00C94BC
:103060001605FF920F931F93CF93DF938091C303B5
:103070000E94A117EC01F12C01E010E08091C40343
:10308000F816E8F48F2D0E94A117AC018091C203BD
:10309000802321F0C417D50778F40DC0209179035F
:1030A00030917A032F5F3F4F369527952C0F3D1FA8
:1030B0002417350708F4102B000FF394DFCF812F6E
:1030C000DF91CF911F910F91FF9008951F93CF93A0
:1030D000DF93EC0110E08091C403181748F48FE1EE
:1030E000810F0E946A0B8C179D0720F01F5FF3CFA2
:1030F00081E001C080E0DF91CF911F910895BF92E0
:10310000CF92DF92EF92FF920F931F93CF93DF93B3
:103110008AE090E00E946618882309F45CC00E944F
:1031200083178093C3030E9480178C0162E089E8B3
:1031300093E00E94F8140817190748F179EAE72E7E
:1031400073E0F72EE5EBCE2EE3E0DE2EC0E0D0E01C
:10315000BB24B3948091C40390E0C817D907CCF482
:103160008C2F0E948017F701819391937F01F601C4
:10317000819391936F01801B910B20917903309182
:103180007A032817390708F4B12C2196E3CFBB2422
:10319000B3941092A8030E94B5349093A703809330
:1031A000A603BB2059F0DF91CF911F910F91FF90A3
:1031B000EF90DF90CF90BF900C9425180E943118AB
:1031C000DF91CF911F910F91FF90EF90DF90CF9003
:1031D000BF900C94CE17DF91CF911F910F91FF906C
:1031E000EF90DF90CF90BF900895CF938091A80388
:1031F000811115C081E08093A803C0E08091C403D1
:10320000C81768F48C2F0E948017EC2FF0E0EE0FA7
:10321000FF1FEB54FC4F91838083CF5FEFCFCF91A3
:1032200008950E94B5342091A6033091A703821B14
:10323000930B089583E090E00E946618882391F034
:103240008091C203811103C00E947F180BC00E94AD
:10325000F5180E9431180E9411194F9718F080E05C
:103260000E94CE170E946717882311F082E008950C
:103270008091C1038823D1F381E008951F93CF93F8
:10328000DF93EC0110E08091C403181780F4812FC4
:103290000E9480178C179D0710F081E009C0812FD4
:1032A0000E94A1178C179D07C0F71F5FECCF80E02D
:1032B000DF91CF911F9108951F93CF93DF93EC017E
:1032C00010E08091C403181780F4812F0E948017AA
:1032D000C817D90710F081E009C0812F0E94A117FB
:1032E000C817D907C0F71F5FECCF80E0DF91CF91FF
:1032F0001F9108956091C403662329F070E00E9435
:10330000493CCB01089580E090E008950E94AB21F4
:1033100061E081E00E94AE1981E00E94161F809159
:10332000C7039091C8030C94762181E00C94C121CD
:103330000E94FF0B882321F00E944C210C949F1FB8
:10334000089520916B0330916C038217930708F462
:10335000C9019093C8038093C7030895CF93DF9367
:10336000C82FD62F682F89E893E00E940A15909302
:10337000CC038093CB03DD2389F020918D03309122
:103380008E033093CA032093C903C130B9F489E88E
:1033900093E00E943F148230F9F010C020918F0317
:1033A000309190033093CA032093C903C23031F4A3
:1033B00089E893E00E943F14823099F06091C6033F
:1033C00070E08091C9039091CA030E94493CCB01EF
:1033D000DF91CF910C94A119409171035091720328
:1033E00004C04091730350917403809191039091B4
:1033F0009203489F9001499F300D589F300D112432
:103400008091CB039091CC03820F931F9093CC03B8
:103410008093CB03D3CF8091CE039091CF030C94B4
:103420005B138091CE039091CF0302960C945B13B3
:103430000E94111A0E94A61D0C948635CF93DF932B
:103440000E94B534EC010E94B5348C1B9D0B853B6A
:10345000910510F00E94920C0E941535882399F373
:1034600088E0DF91CF910C948B330E94181A0E9450
:10347000313085E00E948B330C941E1A0E94181A7A
:103480000E94920C0E94353086E00E948B330C948F
:103490001E1AE091CE03F091CF033496859194915A
:1034A000FC010994811103C00E943E1A0BC08130B7
:1034B00039F48091CD03811105C00E94351A02C0F4
:1034C00081E0089580E008950F931F93CF93DF93D9
:1034D000109276040E940B1A02E0C0E0D0E011E0E6
:1034E0000E941535809376040E946230112379F092
:1034F0000E94E61D082F0E94521A182F882339F0C7
:103500000E945B0BC817D90761F4111105C08091A7
:10351000CD03811110C010E080917604813001F755
:103520000AC00E945B0BEC010E94491A082F0E94FE
:10353000521A182FEACF0E94111A802FDF91CF91D3
:103540001F910F91089581E00E94671B0C942C1825
:103550000E94591B0E94EA1721E080917503909107
:103560007603892B09F420E02093D00380E00C94AB
:10357000161F0F931F93CF93DF93C091CB03D0916E
:10358000CC03CE010E947A198C010E94F00BC8175F
:10359000D90738F4C801DF91CF911F910F910C9496
:1035A0005C1981E0DF91CF911F910F9108951F93D6
:1035B000CF93DF930E94B91A182F0E94101BEC01C1
:1035C0008091D003882329F0BE01812F0E94601FC3
:1035D00001C0812F882329F081E00E94671B81E0D0
:1035E00007C0BE01812F0E946A200E943A1B82E020
:1035F000DF91CF911F91089581E09091D5039111B2
:1036000080E0089581E02091D3033091D403232BEF
:1036100009F480E008958091D3039091D403089534
:103620008091D1039091D20308950E94F50B9C01E3
:1036300040E050E060E47BE48CE490E00E945D3C7C
:10364000293E83E038074105510520F028EE33E09C
:1036500040E050E0C9010895813020E4920710F065
:1036600080E090E49093D4038093D3030E94D40627
:103670000C946A0CCF93DF93EC010E94151BBC01E4
:10368000C817D90708F4BE018091D1039091D203E5
:103690008617970759F07093D2036093D10380E1A6
:1036A0000E94140DDF91CF910C942C1BDF91CF91D0
:1036B00008958091D503882349F080E090E00E942E
:1036C0002C1B81E00E9425061092D5030895CF930C
:1036D000C82F8091D50381110BC0CC2349F080E025
:1036E00090E00E942C1B80E00E942506C093D50329
:1036F000CF91089580E090E00E942C1B81E00C9413
:10370000671B87E08093780482E0809379040E94AD
:10371000843383E08093D6030895FF920F931F9321
:10372000CF93DF9382E10E94830D11E018278091EF
:10373000C503882381F00E94AD0D90919103FF2471
:10374000F394981301C0F12C01E0811100E0913055
:1037500021F4002311F000E0F12C0E94E60B8823F5
:10376000A9F083E10E94430BEC0182E10E94430B2C
:10377000C817D90728F49C012C1B3D0BE90102C096
:10378000C81BD90BC53FD14008F011E0F11002C0B1
:1037900087E001C083E080937804002329F08091C2
:1037A0007804825080937804112329F08091780462
:1037B000815080937804F11004C0011102C01123DC
:1037C00031F081E00E948B33011107C004C088E012
:1037D0000E948B3308C0FF2031F020917703309195
:1037E0007803232B11F4C0E001C0C1E020918903CC
:1037F00030918A03232B29F480914E03811101C05B
:1038000010E00E94E934811102C01092D603C11168
:1038100006C0111104C00E94E934883041F0809143
:10382000D603823011F481E008C082E006C08091A6
:10383000D6038F5F8093D603F2CFDF91CF911F9194
:103840000F91FF9008958FEF8093780488E00C9497
:103850008B331092DB0308950E94B5349093DA0302
:103860008093D90308950E94B5342091D9033091F3
:10387000DA03821B930B2091D7033091D8032817CA
:10388000390728F081E08093DB0382E008951092ED
:10389000DB0381E008958091DB0308952CE3AC0104
:1038A000249FC001259F900D11249093D8038093ED
:1038B000D70308950E94EA170E94AB2181E00C947F
:1038C000161F81E00E94C1210C942C180F931F93A6
:1038D000CF93DF93C091CB03D091CC03CE010E9454
:1038E0007A198C010E94F00B8C179D0738F4C801DF
:1038F000DF91CF911F910F910C943E1981E0DF91E0
:10390000CF911F910F9108951F93CF93DF930E9442
:10391000661C182F0E944C21EC01BC01812F0E94D3
:10392000601F882329F081E00E94C12181E007C047
:10393000BE01812F0E946A200E94762182E0DF91E1
:10394000CF911F9108958091E8039091E903209110
:10395000EB03222341F00E94B5342091E80330911B
:10396000E903821B930B08956091E4037091E503D2
:103970008091E6039091E70328EE33E040E050E0C9
:103980000E945D3CC90108956091E0037091E103DC
:103990008091E2039091E30328EE33E040E050E0B1
:1039A0000E945D3CC90108950F931F93CF93DF934D
:1039B00061E089E893E00E940A158C0164E089E8DF
:1039C00093E00E940A15EC0184E10E94430B8017EA
:1039D0009107B8F4C817D907B0F49C012C1B3D0B14
:1039E000C8018C1B9D0B64E670E00E94493CC90134
:1039F0000E94493C6436710510F063E670E0862F42
:103A000003C083E601C080E0DF91CF911F910F9149
:103A10000895CF93DF930E94D41C9091EA039817E6
:103A2000E0F48093EA030E94A31C2091ED033091FF
:103A3000EE03EC01C21BD30B0E94A31C9093EE0378
:103A40008093ED038091EF039091F0038C179D0715
:103A500020F4D093F003C093EF03DF91CF9108954A
:103A60000E94091D8091EC03882311F089E601C0B2
:103A700084E690E02091EA03821B91092091EF03F4
:103A80003091F003AC01429FC001439F900D529FC3
:103A9000900D11240895089508950E94D41C8093D8
:103AA000EA031092EE031092ED031092F0031092CD
:103AB000EF031092E4031092E5031092E6031092D4
:103AC000E7031092E0031092E1031092E2031092D8
:103AD000E3030895CF93DF9368E572E080E00E94EE
:103AE000140D9093DF038093DE0361E089E893E097
:103AF0000E940A15EC01C854D44FC53D22E6D207F6
:103B000010F0C4EDD2E6CE010E940506BE0180E0B1
:103B10000E94140D813C2FEF920710F080EC9FEF74
:103B20009093DD038093DC030E94E60B8093EC030B
:103B30000E94B5349093E9038093E8030E944D1DE1
:103B400081E08093EB03DF91CF9108950E94A31C45
:103B50009093E9038093E8031092EB0308950E9489
:103B60003E2181111DC00E94021B811119C00E94BB
:103B70006717882351F18091E4039091E503A091A8
:103B8000E603B091E70380599F4FAF4FBF4F80933B
:103B9000E4039093E503A093E603B093E70308954D
:103BA0008091E0039091E103A091E203B091E303DF
:103BB00080599F4FAF4FBF4F8093E0039093E10335
:103BC000A093E203B093E303D2CF0895CF93DF93A2
:103BD0008091EB03811102C082E089C080E00E94E5
:103BE0004C0B2091DC033091DD038217930758F4CE
:103BF0002091DE033091DF038217930760F40E9467
:103C0000FC1A882341F084E999E090934C03809357
:103C10004B0380E06CC0C091EC030E94E60BC81718
:103C200019F085E899E0F1CFC091C903D091CA039A
:103C3000C851DC4F0E94FA0BC817D90718F48AE75D
:103C400099E0E3CF86E00E94430B20916F0330910F
:103C500070038217930718F48BE699E0D6CF89E1B9
:103C60000E94430BEC0189E893E00E942915883EED
:103C70002DEF920731F0C817D90718F08BE599E0BE
:103C80001BC0C0919303D0919403C83E83E0D80732
:103C9000C8F46091E0037091E1038091E203909198
:103CA000E30320E63AEE40E050E00E945D3C2C1732
:103CB0003D0740F080E599E090934C0380934B03DF
:103CC00081E015C08091550390915603892B09F42A
:103CD00083CF87E00E94430B209157033091580314
:103CE0002817390708F078CF80E499E08ECFDF916C
:103CF000CF9108950E94611C0E94A31A0C942C1865
:103D0000CF93DF931F92CDB7DEB78091F103882365
:103D100029F0813031F40E94D71A0CC00E94841C13
:103D200009C00E941A19823089F089830E947A1E84
:103D300089810CC0813051F49091C503992331F0F1
:103D400082E08093F1030E94EA1782E00F90DF91F6
:103D5000CF910895CF93DF930E94EA1761E083E04B
:103D60000E94AE19C091CB03D091CC038091C403C3
:103D7000811106C00E94F00BC817D90740F40CC08F
:103D8000CE010E947A190E945C19882329F00E94B2
:103D90005A1C1092F1030BC060E083E00E94AE1940
:103DA0000E94A81A81E08093D0038093F103DF91F1
:103DB000CF9108958091F203813029F48091C70357
:103DC0009091C803089580E090E008952CE0829FD0
:103DD000C001112482509C4F0C94EB2186E494E0A6
:103DE0000C94EB21CF93DF9300D000D0CDB7DEB79A
:103DF00082E10E94430B9A83898384E10E94430BF2
:103E000029813A81281B390B3A83298387E10E9453
:103E1000430B9C838B83CE0101960E94EB210F9074
:103E20000F900F900F90DF91CF910895EF92FF9236
:103E30000F931F93CF93DF93F82E81E08093F203CB
:103E40000E94F00BBC012091C7033091C803409140
:103E5000CB035091CC030F2D8EE394E00E940622F9
:103E60008091CB039091CC030E947A19EC0110E071
:103E70008CE0E82E8091C403181798F4812F0E94DB
:103E8000A117BC012091C7033091C803E19EC00176
:103E900011240F2DAE018A509C4F0E9406221F5FF5
:103EA000E9CF10924C041092F50310924B0410923B
:103EB0004A04DF91CF911F910F91FF90EF900895E9
:103EC0001F93CF93DF93182FEB018091C5038823B5
:103ED000B1F02091C7033091C803203A310510F4A6
:103EE00020EA30E02C173D0710F41092C1039091A6
:103EF0004C049B7F21F40E941A198093F203809155
:103F0000F2038130B9F40E94DA1E8C179D0780F00D
:103F1000112371F080914C04843051F49091F50399
:103F200081E0890F8093F50381E09A3020F402C08C
:103F30001092F50380E0DF91CF911F9108950F93C8
:103F40001F93CF93DF93EC010E94F00BAE01BC01F5
:103F50008EE394E00E94BF2210E00CE08091C40345
:103F6000181770F4812F0E94A117BC01019FC00196
:103F70001124AE018A509C4F0E94BF221F5FEECFDA
:103F8000DF91CF911F910F910895CF92DF92EF9221
:103F9000FF920F931F93CF93DF936091CB037091A8
:103FA000CC038EE394E00E942B228C018091CB0302
:103FB0009091CC030E947A197C01D12C9CE0C92EEF
:103FC0008091C403D81698F4CD9CE0011124CA5006
:103FD000DC4FB701CE010E942B220817190728F0E9
:103FE000B701CE010E942B228C01D394E9CFC801E6
:103FF000DF91CF911F910F91FF90EF90DF90CF90C5
:1040000008950F931F93CF93DF93EB012091C90382
:104010003091CA038C012817390708F489010E94DE
:10402000DA1E9C018017910708F49801C217D30784
:1040300019F180914C048430A9F42C173D0790F0BD
:104040008091C7039091C8038C179D07A8F04091F9
:10405000F3035091F4038091A4039091A5034817B2
:10406000590751F08091A4039091A5039093F40314
:104070008093F303C90101C0CE01DF91CF911F915D
:104080000F9108950F931F93CF93DF93EC010E943C
:10409000F00B90933F0480933E04D0934104C0936F
:1040A000400410E00CE08091C403181770F4812FD5
:1040B0000E94A117019FF0011124EA50FC4F918347
:1040C0008083D383C2831F5FEECFDF91CF911F9197
:1040D0000F9108951F93CF93DF93182FEB010E9448
:1040E000FF0B811102C0112359F10E946717811142
:1040F00027C0CE010E949F1FCE010E9442200E9435
:10410000C51F8C179D0708F043C09C012C0F3D1F55
:104110003695279530934B0420934A04BE01809135
:104120004A0490914B040E94012090934B04809389
:104130004A0490914C04913001F150F411110DC0DA
:1041400080914A0490914B04DF91CF911F91089583
:104150009230B1F09330B1F017C08091C50388233D
:1041600021F00E9425181092C10382E080934C0434
:1041700010924B0410924A04E3CF10924C04E0CF0B
:1041800083E003C01123E1F284E080934C04D8CF94
:1041900090934B0480934A04C1CF0C948619CF931B
:1041A000DF930E9498190E94F00BEC010E94FA0B19
:1041B000A0916103B09162039C010E940C3C28EE27
:1041C00033E040E050E00E945D3CC21BD30B62E054
:1041D00089E893E00E940A158C179D0730F48091BE
:1041E0008D0390918E030E9476210E94FF0B8823FD
:1041F00081F061E089E893E00E940A158C179D0721
:1042000040F48AEF96E090934C0380934B0381E057
:104210002CC00E94650B029738F180915B0390914E
:104220005C03892B71F08BE10E94430BEC0189E860
:1042300093E00E944415C817D9071CF486EF96E056
:10424000E2CF8091550390915603892B69F08DE15F
:104250000E94430B2091590330915A0328173907C4
:104260001CF480EF96E0CFCF82E0DF91CF910895EC
:1042700081E090915104911180E0089581E02091B6
:104280004F0430915004232B09F480E0089580916D
:104290004F0490915004089580914D0490914E04E4
:1042A00008950E94F50B9C0140E050E060E870EF3B
:1042B0008AEF92E00E945D3C293883E1380741058E
:1042C000510520F028E833E140E050E0C9010895AD
:1042D000893E2DEF920710F088EE9DEF90935004E9
:1042E00080934F040E941D060C946A0CCF93DF93B9
:1042F000EC010E945121BC01C817D90708F4BE0186
:1043000080914D0490914E046817790750F49C01F8
:10431000261B370B2D38310568F0BC016C5871092C
:1043200009C09B01281B390B2D38310518F0BC0141
:1043300064577F4F8617970759F070934E04609328
:104340004D048FE00E94140DDF91CF910C946821F1
:10435000DF91CF91089580915104882389F01092C4
:10436000500410924F0410924E0410924D0480E0BD
:1043700090E00E94682181E00E942E061092510474
:104380000895CF93C82F80915104811113C0CC237D
:1043900089F080E090E00E94682110925004109211
:1043A0004F0410924E0410924D0480E00E942E069D
:1043B000C0935104CF9108951092500410924F046D
:1043C00010924E0410924D0480E090E00E9468210B
:1043D00081E00C94C121FC014281538141155105BA
:1043E00091F0A081B181B7FF03C0B195A195B1094A
:1043F00028EE33E00E941B3C9A0140E050E00E940E
:104400005D3CC901089580E090E008950F93FC01A0
:10441000CB01002341F04617570708F4CA0164177F
:10442000750748F407C06417750708F4CA014617F2
:10443000570708F4BA019783868391838083138298
:1044400012821582148233872287681B790B718749
:1044500060870F910895FC0186819781A285B385BD
:104460000084F185E02D3097D1F09B0140E050E0D1
:10447000281B390B410951090E94223C9F01442706
:1044800037FD4095542F0E947F3C2115310581E076
:104490004807510524F457FD05C0C90108958FEF61
:1044A0009FEF089580E090E00895DF92EF92FF92F1
:1044B0000F931F93CF93DF93EC012A813B81241745
:1044C000350720F4FA01E21BF30B03C0F901E41BEA
:1044D000F50B8C819D81969587958E179F0710F51A
:1044E000E880F9802417350740F48A01021B130B7A
:1044F000CB018E199F097C0105C0E61AF70A8901D4
:10450000041B150BC7010E947913D82E8885998545
:104510000E947913D81206C01D830C83F986E886A1
:104520001B870A87DF91CF911F910F91FF90EF902A
:10453000DF9008950F931F93CF93DF93EC018B01CE
:104540009A01A885B9850E941B3C2A853B8540E0DD
:1045500050E00E947F3CC801A0E0B0E082179307C2
:10456000A407B5071CF41F821E8204C0021B130B94
:104570001F830E83DF91CF911F910F910895EF92CA
:10458000FF920F931F93CF93DF93EC018B017A017E
:104590000E945522A701B801CE01DF91CF911F9152
:1045A0000F91FF90EF900C949A220F931F93CF934B
:1045B000DF938C01443019F0CFEFDFEF02C0C1E090
:1045C000D0E00E94EB34D8011B96EC91F0E0EE0FA6
:1045D000FF1FE459FD4F9C01C29FC001C39F900D76
:1045E000D29F900D112420813181820F931F9183DE
:1045F0008083DF91CF911F910F910895EF92FF92E9
:104600000F931F93CF93DF931F92CDB7DEB78C012B
:10461000443021F0EE24EA94FE2C03C0EE24E3940F
:10462000F12C69830E94EB34D8011B96ED91FC912B
:104630001C976981E60FF11DE491F0E0EE0FFF1F7A
:10464000E459FD4F9C01E29EC001E39E900DF29E55
:10465000900D112420813181280F391F318320834F
:104660000F90DF91CF911F910F91FF90EF900895E0
:10467000CF93DF93EC010E946A33882311F0888185
:1046800001C08FEFDF91CF910895CF93DF9300D0DA
:1046900000D0CDB7DEB780E00E943A0B9A838983C1
:1046A00081E00E943A0B29813A81281B390B3A8319
:1046B000298383E10E94430B9C838B83AE014F5F70
:1046C0005F4F61E080E00E94900BAE014F5F5F4F53
:1046D00061E081E00E94900B0F900F900F900F907F
:1046E000DF91CF9108950F931F93CF93DF93CDB7B1
:1046F000DEB728970FB6F894DEBF0FBECDBF8C0192
:1047000089E00E943A0B9E838D8388E00E94430BD0
:10471000800F911F98878F838AE00E943A0B9A83BB
:1047200089830F81188580E20E94430B800F911FBF
:104730009C838B83AE014B5F5F4F61E088E00E94FA
:10474000900BAE014B5F5F4F61E089E00E94900BE0
:10475000AE014F5F5F4F61E08AE00E94900B2896A8
:104760000FB6F894DEBF0FBECDBFDF91CF911F9182
:104770000F9108950F931F93CF93DF9300D000D034
:10478000CDB7DEB78C018AE00E943A0B9A83898309
:1047900089E00E94430B800F911F9C838B83AE01A5
:1047A0004F5F5F4F61E08AE00E94900B0F900F9087
:1047B0000F900F90DF91CF911F910F910895CF939C
:1047C000DF93D82F64ED76E088EE96E00E94063005
:1047D000C0E082E10E94830D882391F00E94E60BE5
:1047E0008D17A1F0C1110CC066EC76E0DD2319F045
:1047F00088EE96E002C08DED96E00E940630C1E0A2
:104800000E941535813029F780E001C081E0DF91F9
:10481000CF910895CF93DF9300D000D0CDB7DEB70E
:10482000962F5A8349833C832B838F3121F4C9010E
:104830000E9473230DC0803221F4C9010E94BA2363
:1048400007C0AE014F5F5F4F61E0892F0E94900B60
:104850000F900F900F900F90DF91CF910895FF92DE
:104860000F931F93CF93DF93F82E162F042F83E01F
:104870000E948B33812F0E94430BEC01802F0E94FA
:104880003A0BAC019E01602F812F0E940A2481E027
:10489000809341030E947B0CFF2039F0DF91CF9180
:1048A0001F910F91FF900C944523DF91CF911F91A1
:1048B0000F91FF900895EF92FF920F931F93CF9364
:1048C000DF93CDB7DEB72E970FB6F894DEBF0FBEDD
:1048D000CDBF81E00E94DF23882309F441C06DE54C
:1048E00073E0CE0101960E94932E8FEF8A8784E9B0
:1048F00090E09A83898384E593E09D878C8789E0A3
:104900008E8761E0CE0101960E94BD29F82E87FDB9
:1049100027C0082F112707FD1095F801EC5AFC4F0E
:10492000E49086E08F156CF38E2D0E94830D882312
:1049300041F30E947B0C109241036F2DCE01019632
:104940000E941228882341F0F801E35BFC4F449158
:104950006E2D81E00E942F2481E080934103D1CF0E
:104960002E960FB6F894DEBF0FBECDBFDF91CF916C
:104970001F910F91FF90EF9008950F931F93CF9386
:10498000DF93CDB7DEB72E970FB6F894DEBF0FBE1C
:10499000CDBF109267006BE173E0CE0101960E94DB
:1049A000932E8FEF8A8784E990E09A83898386E14A
:1049B00093E09D878C8787E08E8761E0CE0101962A
:1049C0000E94BD29082F87FD20C0E82FFF27E7FDA3
:1049D000F095EA5EFC4F1491812F0E94830D88238D
:1049E00061F30E947B0C10924103602FCE0101966F
:1049F0000E941228882329F0412F612F80E00E9415
:104A00002F2481E080934103D8CF81E08093670019
:104A10002E960FB6F894DEBF0FBECDBFDF91CF91BB
:104A20001F910F9108958F3019F4CB010C946821D8
:104A3000CB010C942C1BEF92FF920F931F93CF93FB
:104A4000DF93EC01443019F00FEF1FEF02C001E0DB
:104A500010E00E94EB34089F7001099FF00C189F32
:104A6000F00C11240E94EB344F85588901E09C0121
:104A7000B701CE010D960E94D1136D857E858B8581
:104A8000DF91CF911F910F91FF90EF900C94132520
:104A9000AF92BF92CF92DF92EF92FF920F931F934C
:104AA000CF93DF93CDB7DEB765970FB6F894DEBF2F
:104AB0000FBECDBFA82EB62E7A0180E00E94DF2364
:104AC000882309F46FC0AA2069F00E94AB2184ED0D
:104AD00092E60E940506E2E0CE2EFFE0DF2E08EE11
:104AE0001DEF08C00E94591B63E0C62E70E1D72E4F
:104AF00000E010E463E373E0CE0101960E94932E80
:104B00008FEF8A872CE930E03A832983DC86BD86E3
:104B1000198B088B4D856C85CE0142960E94730BD4
:104B20002A893B893F872E8761E0CE0101960E944A
:104B3000BD2987FD2FC08111EDCF6E857F858D2D1D
:104B40000E94132560E0CE0101960E94122888235E
:104B5000D9F00E947B0CFD8AEC8A2E853F853B8B29
:104B60002A8BAE014E5E5F4F6B2D8D2D0E94900BF8
:104B70008C2D0E943A0B9B8B8A8BAE014E5E5F4F51
:104B80006B2D8C2D0E94900B60E070E08D2D0E94AB
:104B90001325C0CF81E0AA2019F00E94C12102C0D4
:104BA0000E94671B65960FB6F894DEBF0FBECDBF9F
:104BB000DF91CF911F910F91FF90EF90DF90CF90F9
:104BC000BF90AF900895EF92FF920F931F93CF93F2
:104BD000DF93CDB7DEB729970FB6F894DEBF0FBECF
:104BE000CDBF8C017B01BC01CE0101960E94932EAA
:104BF00060E0CE0101960E94BD29682F87FD10C09C
:104C0000E82FEE0FFF0BEE0DFF1D4591549181E053
:104C100093E00734190709F080E00E944825E8CFA7
:104C200029960FB6F894DEBF0FBECDBFDF91CF91AE
:104C30001F910F91FF90EF9008951F93CF93DF93F3
:104C400000D000D01F92CDB7DEB7182F6D830E9421
:104C50003A0B9A838983812F0E94430B9C838B8319
:104C6000AE014F5F5F4F6D81812F0E94900B0F90BF
:104C70000F900F900F900F90DF91CF911F9108959B
:104C80000F931F93CF93DF93CDB7DEB72C970FB65B
:104C9000F894DEBF0FBECDBF182F062F67E273E07A
:104CA000CE0101960E94932E8FEF8A8724EA30E08E
:104CB0003A8329831C8761E0CE0101960E94BD29B9
:104CC00087FD13C08111F7CF1092410360E0CE0140
:104CD00001960E941228882321F0602F812F0E94C4
:104CE0001D2681E080934103E6CF2C960FB6F89401
:104CF000DEBF0FBECDBFDF91CF911F910F91089501
:104D00001F93CF93DF93CDB7DEB729970FB6F894F3
:104D1000DEBF0FBECDBF182F6DE273E0CE0101964E
:104D20000E94932E60E0CE0101960E94BD29682F5B
:104D300087FD04C0812F0E944026F4CF29960FB62C
:104D4000F894DEBF0FBECDBFDF91CF911F910895C4
:104D5000CF93DF93CDB7DEB72A970FB6F894DEBFB7
:104D60000FBECDBF61E773E0CE0101960E94932E86
:104D700060E0CE0101960E94BD2987FD2EC08A8782
:104D80000E94883A0E946F0E8A858230A1F04CF40E
:104D9000882371F08130C9F46DE373E087E493E018
:104DA0000EC0833079F0843081F40E94BD240DC0A0
:104DB0000E945B240AC069E373E081E493E00E94EF
:104DC000E32503C087E00E94802681E00E94B7119E
:104DD0000E94920C0E94983ACBCF10924D032A96D3
:104DE0000FB6F894DEBF0FBECDBFDF91CF9108950F
:104DF000CF93DF93EC01842F0E94B00C9E01369577
:104E0000279536952795A9014C0F5D1F84179507A7
:104E100030F4C21BD30B21E0C817D90708F020E0FB
:104E2000822FDF91CF91089568EE73E080E00E94B9
:104E3000140D29E1289FB001299F700D112440E035
:104E400084ED92E60C94F826CF93DF931F92CDB7B2
:104E5000DEB7482F68EE73E049830E94140D25E009
:104E6000289FB001299F700D1124498188E893E1A2
:104E70000F90DF91CF910C94F826CF93DF931F9280
:104E8000CDB7DEB7482F64E670E049830E94140D69
:104E9000BC01660F771F680F791F49818CE291E092
:104EA0000F90DF91CF910C94F826CF930E943D1282
:104EB000C82F882341F10E941427C82F811105C0F3
:104EC0008EEB96E00E94CA301EC08FE00E9424271D
:104ED000882329F082E00E942427811106C085EBF7
:104EE00096E00E94CA30C0E00EC080E10E943D27DB
:104EF000882331F083E00E943D27C82F811103C031
:104F000089EA96E0EECF8C2FCF9108950C94552727
:104F10001F93CF93DF93EC01162F0E948E2ECE01AC
:104F200009960E943823992787FD9095612F70E09C
:104F30008617970759F0EB85FC85E60FF71F8491DC
:104F40006D85DF91CF911F910C94BD0DDF91CF91B5
:104F50001F9108951F93CF93DF93EC01162F82E1E9
:104F60000E94830D81110FC064ED76E088EE96E01B
:104F70000E9406308B85803141F581E0DF91CF9131
:104F80001F910C94671B612FCE010E948E2ECE01C3
:104F900009960E943823992787FD9095212F30E0AC
:104FA0008217930791F0111108C065E08D859E85E9
:104FB000DF91CF911F910C9472380E94FA0B67E039
:104FC000DF91CF911F910C94D738DF91CF911F9132
:104FD00008951F93CF93DF93EC01162F0E948E2E1E
:104FE000CE0109960E943823992787FD9095212F9D
:104FF00030E08217930791F0111107C067E08B85AD
:10500000DF91CF911F910C94BD0D8B850E943A0BBF
:1050100067E0DF91CF911F910C947238DF91CF91AF
:105020001F910895DF92EF92FF920F931F93CF93FA
:10503000DF93EC01F62E69871A8681E08D8382E08A
:10504000D82EEE24E3948E01075F1F4F0E94153582
:10505000482F823011F0843061F4E881F9810280B8
:10506000F381E02D6F2DCE010995F986DA86ED8268
:1050700004C0813089F0883079F0C8010E9475330E
:105080008111ED828D81882319F0CE010E945F2964
:105090008A858F5F8A87DACF8FEF898781E08E8359
:1050A0008D83483009F080E0DF91CF911F910F91FF
:1050B000FF90EF90DF900895CF93DF93EC010E9473
:1050C0007E358B819C810E9499360E9482356A814F
:1050D00088819981DF91CF910C944E36FC018781B4
:1050E0008F3118F48F5F8783089586818F5F868361
:1050F0000895FC018781882319F0815087830895E2
:1051000086818150868308950F931F93CF93DF93F9
:10511000FC01C681D0E06D2F80E00E94783510E15F
:105120001C0F01E00C0F8C2F0E943336011711F079
:10513000C02FF7CFDF5FD23011F0C12FECCFDF915E
:10514000CF911F910F9108951F93CF93DF93EC019F
:105150008BEC90E00E94B6391FEF8E81181721F07A
:10516000CE010E9484281E818F81682F70E094E018
:10517000759567959A95E1F78F700E9478350E9432
:105180001535823049F0843019F0813049F413C06C
:10519000CE010E946E28E1CFCE010E947928DDCF9A
:1051A0008830D9F68D81E881F981E80FF11D8F8172
:1051B0009E81890F8083DF91CF911F910895FC011B
:1051C00071836083428334832383158280E28683E4
:1051D00017820895CF93DF93EC018BEC90E00E944F
:1051E000B6390E948635CE010E945C2861E08D812F
:1051F0000E9478350E9415358230B1F0843041F03C
:105200008130C1F48BEC90E00E94AF3980E026C081
:105210004D81242F30E08A8190E0019728173907CB
:105220002CF74F5F4D83E2CF8D818823F9F28150B7
:105230008D83DCCF8830D1F682E00E9467358230E2
:1052400048F083E00E948B338BEC90E00E94AF39F2
:1052500081E004C0CE010E94A428C3CFDF91CF918A
:1052600008950895FC018CEA90E091838083128276
:105270001382648381E0858386830895FC01228103
:10528000211103C081E082830895438130E0240F1F
:10529000311D848190E001972817390714F44F5F7E
:1052A00043830895FC018281882319F08150828311
:1052B00008958381882311F08150838308951F937B
:1052C000CF93DF93EC0110E0612F80E00E947835EE
:1052D00080E20E943336E881F9816B81610F019091
:1052E000F081E02DCE0109950E944B361F5F1230F0
:1052F00059F76A8180E00E9478358EE30E94333648
:105300006A818FE00E9478358CE30E9433361D82DB
:10531000DF91CF911F9108950F931F93CF93DF9348
:10532000EC010E941535182F0E944E3A882321F077
:1053300081E08D838FE71CC00B818A81080F1230BA
:1053400031F0143039F4CE010E943E2903C0CE0161
:105350000E9452298B819A81890F081711F081E0F0
:105360008D838D81882319F0CE010E945F29812FC2
:10537000DF91CF911F910F910895EF92FF921F93AC
:10538000CF93DF931F92CDB7DEB77C0181E0F701A9
:10539000858311E0C70169830E948C29698181118D
:1053A00002C0F7011682F7019681911108C088307A
:1053B00031F481E0868383819281890F09C066235D
:1053C00011F0F7011583813029F79111E3CF8FEFA9
:1053D0000F90DF91CF911F91FF90EF900895CF93A1
:1053E000DF93CDB7DEB729970FB6F894DEBF0FBEB7
:1053F000CDBF6DE773E0CE0101960E94932E60E071
:10540000CE0101960E94BD29813049F0823051F0D1
:1054100081110BC08FE493E00E942C13F0CF0E9407
:10542000A826EDCF0E944512EACF87FFE8CF299644
:105430000FB6F894DEBF0FBECDBFDF91CF910895B8
:10544000262F443019F06FEF7FEF02C061E070E06B
:10545000223091F028F4222349F0213051F00895B0
:10546000243081F060F0253081F008950B960C9483
:10547000EA150B960C9475160B960C94BF160B96AA
:105480000C9430160B960C9449160B960C941E1720
:10549000EF92FF920F931F93CF93DF93EC018B0159
:1054A0007A0165E873E00E94932E8FEF898782EB83
:1054B00090E0998388838AE1F801DE011B960190D0
:1054C0000D928A95E1F7FEA2EDA2DF91CF911F9197
:1054D0000F91FF90EF9008950F931F93CF93DF9359
:1054E000CDB7DEB728970FB6F894DEBF0FBECDBF9D
:1054F0008C01BC01695E7F4F2BE437E04EE050E049
:10550000CE0101960E94DF28CE0101960E94EA2872
:1055100081E0F801858328960FB6F894DEBF0FBEB0
:10552000CDBFDF91CF911F910F910895CF93DF935E
:10553000EC010E9486350E947E3585E497E00E944A
:1055400099360E9482356EE0CE0147960E944E3613
:105550000E94361483E0DF91CF910C948B33CF936C
:10556000DF93EC016DA17EA16F5F7F4F0B960E94D0
:105570006A14CE01DF91CF910C94962ACF93DF93DA
:10558000EC016DA17EA16F5F7F4F0B960E94C3144B
:10559000CE01DF91CF910C94962ADF92EF92FF9289
:1055A0000F931F93CF93DF93CDB7DEB76A970FB6F4
:1055B000F894DEBF0FBECDBF8C018AE1D82EC801A2
:1055C0000B967C0160E0C8010E94BD2987FD30C0B8
:1055D000873041F0883051F0863061F4C8010E9474
:1055E000AF2AF0CFC8010E946C2AECCFC8010E94FC
:1055F000BE2AE8CFF701DE0111969D2D01900D9294
:105600009A95E1F7682FC8010E941228811109C0FC
:10561000FE013196D7018D2D01900D928A95E1F70B
:10562000D1CF83E00E948B33C7010E949C16CACF62
:105630006A960FB6F894DEBF0FBECDBFDF91CF9153
:105640001F910F91FF90EF90DF9008951F93CF93DC
:10565000DF93EC01162F0E948E2ECE0109960E9438
:105660006A33882311F0298501C02FEF332727FDE6
:105670003095812F90E028173907B1F11230F9F0F9
:1056800058F41123A9F0113079F5CE010B96DF9172
:10569000CF911F910C947A151430F9F0B8F01530B1
:1056A00019F5CE010B96DF91CF911F910C940E1737
:1056B000CE010B96DF91CF911F910C947415CE0102
:1056C0000B96DF91CF911F910C94A815CE010B96EC
:1056D000DF91CF911F910C949C15CE010B96DF9119
:1056E000CF911F910C94A215DF91CF911F91089536
:1056F000DC011796ED91FC911897E60FF11D64916E
:1057000089E993E00C94B1360F931F93CF93DF9305
:10571000EC018B0180E061E0680FF801E80FF11DFA
:10572000E491E83011F0862FF6CFCE010E943229A5
:105730008AEB90E09983888318870F83DF91CF915C
:105740001F910F91089589E893E00E943F148330E0
:1057500039F0823041F0811109C084E694E0089567
:105760008BE594E008958DE694E0089582E594E059
:1057700008950F931F93CF93DF93EC010E94DC14E5
:105780000E94A32B8C0160E0C8010E94BD2987FD07
:105790001BC0D8011796ED91FC911897E80FF11DE9
:1057A00087FDFA958491883061F4BE0189E893E021
:1057B0000E94C015CE010E94EA1481E00E94BE1131
:1057C000DFCF0E94BA12DFCFDF91CF911F910F91EF
:1057D00008956AEB73E08DE694E00E94842B60EB01
:1057E00073E084E694E00E94842B64EB73E08BE525
:1057F00094E00E94842B6BEA73E082E594E00C94C1
:10580000842B0F931F93CF93DF93EC018B016CECF0
:1058100073E00E94932E8FEF898780EC90E099834C
:1058200088838AE3F801DE011B9601900D928A9528
:10583000E1F7DF91CF911F910F910895DF92EF92E1
:10584000FF920F931F93CF93DF93CDB7DEB7EA9705
:105850000FB6F894DEBF0FBECDBF7C018C01055F93
:105860001F4F8AE3D82E60E0C7010E94BD2987FD43
:105870002AC0863139F4C8010E94131383E00E94C4
:105880008B33F1CFF801DE0111969D2D01900D9221
:105890009A95E1F7682FC7010E941228811109C06B
:1058A000FE013196D8018D2D01900D928A95E1F778
:1058B00006C083E00E948B33C8010E941F13C801F9
:1058C0000E942A13D0CFEA960FB6F894DEBF0FBE1F
:1058D000CDBFDF91CF911F910F91FF90EF90DF909F
:1058E000089564E670E00E94493CCB0163E00E94A9
:1058F000723883E40C94333668EE73E00E94493CBE
:10590000CB0163E00E94723886E50C943336CF9366
:10591000DF9364E670E00E94493C9B01EC0163E088
:10592000C9010E9472388EE20E943336CE016AE0CD
:1059300070E00E94493C862F0E94F23687E798E08B
:10594000DF91CF910C94993641E041960C94A613C7
:1059500044E0C9960C94A613FC0161AD82EC93E07F
:105960000C94B1360B960E94EC1224E630E040E035
:1059700050E00E945D3C65E0C9010E94723880E3FE
:105980000E94333680E30C943336FC0124E6269FD4
:10599000C001279F900D112420813181820F931F18
:1059A0008436910510F484E690E0918380838081B1
:1059B00091818D3A964220F08CEA96E29183808321
:1059C0000895FC012AE0269FC001279F900D112415
:1059D00020813181820F931F8A30910510F48AE073
:1059E00090E09183808380819181893E934020F073
:1059F00088EE93E0918380830895FC0128EE33E0E4
:105A0000629FC001639F900D729F900D11242081B1
:105A10003181820F931F88352BE1920710F488E5BE
:105A20009BE191838083808191818133954720F030
:105A300080E395E7918380830895FC0180819181C3
:105A4000680F791F6330710518F07183608304C09B
:105A500083E090E09183808380819181893C9105EE
:105A600020F088EC90E0918380830895FC0185A567
:105A700096A5680F791F6D3D8FEF78071CF076A70C
:105A800065A704C08DED9FEF96A785A785A596A570
:105A9000849724F083E290E096A785A70895FC01FF
:105AA00087A590A9680F791F69312CEF72071CF048
:105AB00070AB67A704C089E19CEF90AB87A787A56F
:105AC00090A9883E934024F087EE93E090AB87A79F
:105AD0000895FC0180819181680F791F6C3E8FEFE2
