:100000000C94C4040C94EC040C94EC040C94EC04D8
:100010000C9412080C94EC040C94EC040C94EC0476
:100020000C94EC040C944E080C94CA070C94EC0449
:100030000C94EC040C94E8080C941D090C94EC044A
:100040000C94EE070C94EC040C94EC040C94EC046B
:100050000C94EC042E1237123B12421245124E122F
:100060004B125112C42CC82CCD2CD22CD52CD72CF1
:10007000DC2CDF2CE22CE82CEB2CEE2CF12CF42CDD
:10008000F92CFD2C012D042D072D0C2D102D3D2DAF
:100090003F2D462D4D2D532D572D5F2D672D6B2D4B
:1000A000762D782D802D882D902D972D9B2D9F2D91
:1000B000A12DA32DA72DAD2D78337A337C3380333A
:1000C00080337E3384338233EE37D037D937D2371B
:1000D000DB37CB37D737000000003A65C52E00006C
:1000E00000003A65C52EF80132007C2BE80380043D
:1000F0003200001F2C010000000000000000000082
:100100000000000000000000000080A6CA30C24CC1
:100110002A010C4958020000000043BFA80E00004D
:10012000000071D8681000000000AFD9681000000E
:1001300000004067D007000000000FD668100000E4
:100140000000C8D86810000000008AD86810F801C4
:1001500032007B2BE8039A0132007A0B2C01000657
:10016000080001FF010100000106090001FF030270
:10017000010002060A0001FF0000000006060E0052
:1001800000FF0302010005060D0000FF020300004E
:1001900004060C0000FF0302010003060B0000FF31
:1001A000040600000706070000FF03020100B20179
:1001B00000006F7074696F6E730080250000004B43
:1001C00000000096000000E1000000C201004600AF
:1001D000881370170000701764000100FBFFF1FF27
:1001E000000005001E0001000A0032007800102700
:1001F00000000000000001000800000003000000F3
:1002000000000000000083087E08790874086F0869
:100210006A08650860085B08560800009808980896
:100220006C071027580201009808F4016C070100C0
:10023000E00102009808F4016C070100E0010300EE
:100240009808DC006C070600E00104009808980894
:100250006C07030078000500980898086C070300F5
:1002600078000600980898086C07030078000700DB
:10027000980898086C070300780008009808980808
:100280006C07030078000900980898086C070300C1
:10029000780001000100010001000100B0041C070A
:1002A000520300005203B0040807E8030000E8030B
:1002B000D0079209D60600006C07E40C100ED00798
:1002C000E40CB80B100E0410C409A60EAC0D740E8D
:1002D0006810B80B0A0F890C740ECC10B80B0A0FFB
:1002E000890C740EFE10B80B0A0F890C40066C07BF
:1002F0001405400678058E17D017BE184C1A471AF9
:100300007B1A251BC71B311BD01BCD1BD71BFE1B0C
:10031000051C281C4E1E1E1E241E71203919732018
:100320000001EE05E6050000FD05F60500000D06DE
:10033000040600001E061606000064002C0164007E
:10034000E8032C06260600003906320600000609DE
:100350000A0B0C0D0E061F202122232413126F06F8
:10036000690663065D06570651064B0645063F06BD
:100370000000A5069C069006840675060000AF08DE
:10038000A50897080000250720071B071607110777
:100390000A07FE06F406E906000014090509FD082F
:1003A000F308E708DF08D008C508B8080003040709
:1003B0000800030708000102030408000102030407
:1003C0000506086B0764075E0755074C0746083BA0
:1003D00008340828081F0816080F080308F907ED55
:1003E00007E007D607CC07C107B707AE07A20796F5
:1003F000078C0785077D077407000020202D2D201E
:100400002000636865616C692D636861726765725D
:100410000A76302E39395F32303134313232390098
:1004200063616C69626174696F6E206572726F726C
:1004300000706C656173652063616C6962726174E0
:100440006500656570726F6D2072657365740A650D
:1004500072726F723A2000726573657474696E67A8
:1004600020656570726F6D00206E6F202020202047
:100470002020202079657300656570726F6D207291
:10048000657365743A005245564552534520504FA6
:100490004C4152495459004E2F41006572726F729F
:1004A0003A2020202000636F6D706C6574653A20DF
:1004B00000C931008000007130FFFF04805A31FF15
:1004C000FF04801A31000108802631000108803ABB
:1004D00031000100807A2E00C000007E2E00C00096
:1004E00000822E00400480862E00400480C530FF2C
:1004F000FF0480A930FFFF0080E330FFFF0000FF12
:1005000030FFFF00002632800000808530FFFF248E
:10051000800000FFFF00002500202D2D3A2D2D002A
:100520002020002000200064656C746120543D2070
:10053000004E2F4100546578743D0064656C746111
:1005400020563D20006D6178566F75743D002D007A
:10055000546578743D00206C696D69743D0056697E
:100560006E7075743D00776972657320523D00624C
:100570006174742E20523D002020006220007469B6
:100580006D653A2020202020004C696D6974733A13
:1005900020006E6F2064542F7400252000436843B0
:1005A00042426C446946435374534243590001002C
:1005B00001000100010001000A00640001000300C5
:1005C000080009000A000B000C00010002000400F2
:1005D000060008000A000C00141719181A0705066F
:1005E0001F2021222324566D696E75733A005670C0
:1005F0006C75733A200076616C75653A0074656DB0
:10060000703A2000706F696E7420322E00706F692E
:100610006E7420312E00496F75743A202000766187
:100620006C75653A20003330306D41003130306DEB
:100630004100313030306D41003130306D41005675
:100640006F75743A0056312D363A005662363A20AC
:10065000005662353A20005662343A200056623322
:100660003A20005662323A20005662313A20005653
:10067000696E3A20006578706572742044414E4777
:100680004552210074656D702065787465726E0046
:100690004920646973636861726765004920636813
:1006A0006172676500766F6C746167650062616C8A
:1006B000616E636520706F7274210062617474658D
:1006C00072792100646973636F6E6E656374006391
:1006D0006F6E6E6563740064542F6474002D6456ED
:1006E0000056206C696D6974005265736574206EE4
:1006F000616D650045646974206E616D65004372CB
:1007000065617465206E616D6500546C696D3A2099
:100710000049643A200049633A200043683A2000C7
:10072000563A2020004261743A2020004E616D65E7
:100730003A0045646974206E616D653A006D56003B
:10074000206E6F0079657300496E66006578742EBF
:1007500020416463006578742E20646562006465DE
:10076000627567006E6F726D616C006469736162BF
:100770006C65640020202072657365740073706579
:1007800065643A2000554152543A200062616C2E53
:10079000206572723A00666F7263652062616C3A1E
:1007A00020006469732061677265733A20006F2EC0
:1007B00064697363683A006F2E6368617267653AB3
:1007C00000696E707574206C6F773A0063617020F9
:1007D000434F66663A006D696E20496F75743A0042
:1007E0006D696E20496F75743A20492F0062656506
:1007F000703A20202020202000442F43207265736F
:10080000743A00442F43206379636C65733A005255
:10081000776972653A004E6943642064563A004E27
:10082000694D482064563A00656E61622064563A0C
:100830002020200064542F64743A00657874726E2E
:100840002054434F3A00657874726E20543A202049
:100850002000432F6D004E695A6E004C3433350032
:100860004C343330004C69706F004C696C6F004C35
:100870006966650050622020004E694D48004E694F
:10088000436400556E6B6E006D696E2E00756E6C64
:10089000696D69746564007265736574206465666A
:1008A00061756C740063616C696272617465007378
:1008B000657474696E67730065646974206261743D
:1008C0007465727900443E4320666F726D617400F6
:1008D00073746F726167652B62616C616E63007324
:1008E000746F72616765006661737420636861721A
:1008F0006765006469736368617267650062616C53
:10090000616E6365006368617267652B62616C612B
:100910006E636500636861726765006578742E7444
:10092000656D702E6375746F66660074696D652001
:100930006C696D69740063617061636974792063C7
:1009400075746F666600696E707574205620746FDA
:10095000206C6F77004857206661696C757265007E
:1009600062616C616E63657220646973632E0062FC
:1009700061747465727920646973632E0000870561
:10098000540ACA10102B0A3011241FBECFE5D8E03C
:10099000DEBFCDBF10E0A0E6B0E0E6E6F8E702C0BB
:1009A00005900D92AA3CB107D9F714E0AAECB0E08B
:1009B00001C01D92A33BB107E1F719E0C8E8D9E0F7
:1009C00004C02297FE010E94C73BCE37D107C9F76A
:1009D0000E94C5100C94313C0C94000086B38095A5
:1009E0008170B19B02C090E001C092E0892BB29B64
:1009F00002C090E001C094E0892BB39B02C090E05C
:100A000001C098E0892B0895882339F0A69AA79A07
:100A1000D59A889A8A9A8F9A0895A698A798D59871
:100A200088988A988F98089520E042E060E18BECE6
:100A300090E00E941A390E94D1080E94C60688E7F9
:100A400099E60C94F3058091D100882331F08091D0
:100A5000CA008F5F8093CA0002C01092CA008091C2
:100A6000D1008A3010F480E001C088E09091D1007C
:100A7000943108F084E09091D1009E3108F082E03A
:100A80009091CA00982311F0C49A0895C4980895CB
:100A90008093D1000895811106C0939A0E941C068C
:100AA00080E00C9413069398089580FF02C0AE9ADC
:100AB00001C0AE9881FF02C0AF9A01C0AF9882FF1B
:100AC00002C0DD9A01C0DD9883FF02C0909A01C088
:100AD000909884FF02C0929A01C0929885FF02C04C
:100AE000979A08959798089580E00E94550580E0B0
:100AF0000E944B051092D10087B18F7387B98B9AF2
:100B00008D9AD79ABC9A8C9A8D9A8E9A08958BEC6E
:100B100090E00C946F392FB7F8948091D3009091A6
:100B2000D400A091D500B091D6002FBF892F9A2F65
:100B3000AB2FBB27A7FDBA9508952FB7F894109255
:100B4000DA001092D9008617970768F480E090E4E5
:100B5000A0E0B0E08093D3009093D400A093D500A0
:100B6000B093D60008C01092D3001092D400109217
:100B7000D5001092D6008091D3009091D400A0911E
:100B8000D500B091D600BA2FA92F982F882780932F
:100B9000D3009093D400A093D500B093D60081E009
:100BA0008093D2002FBF0895CF93DF93EC01C13023
:100BB00080E6D80758F4C13080E4D80748F48EE0C6
:100BC0000E94DD089598BE018DE009C0C0E0D0E626
:100BD0008DE00E94DD08949ABE0170548EE0DF9192
:100BE000CF910C94BB08893729E6920710F088E76B
:100BF00099E6BC0180E00E94DF0C813C2FEF920758
:100C000010F080EC9FEF2FB7F8949093D80080936A
:100C1000D7002FBF08952FB7F8949093DA008093F0
:100C2000D9002FBF0895882329F080E00E941C0678
:100C3000DF980895DF9A0895CF93DF93C82F882314
:100C400019F080E00E941306DFB7F8948DE00E944F
:100C5000DD0894988EE00E94DD0895981092D200ED
:100C6000DFBFC11104C0969ADF91CF910895969885
:100C700080E00E940E0BEC0186E00E940E0BBE018C
:100C8000DF91CF910C949D050F931F938091D2001B
:100C9000882309F474C080E00E94170B2091D700CC
:100CA0003091D8008217930730F080E00E941C0634
:100CB0001092D20064C082E00E94170B4091D900CC
:100CC0005091DA0060E070E00091D3001091D40000
:100CD0002091D5003091D600481B590B610971094C
:100CE000E2E0440F551F661F771FEA95D1F7040F06
:100CF000151F261F371F0093D3001093D400209395
:100D0000D5003093D6008091D3009091D400A0916B
:100D1000D500B091D600B7FF08C01092D300109252
:100D2000D4001092D5001092D6008091D3009091FB
:100D3000D400A091D500B091D6000197A046B1058E
:100D400060F080E090E0A0E6B0E08093D300909364
:100D5000D400A093D500B093D6008091D300909199
:100D6000D400A091D500B091D600892F9A2FAB2F37
:100D7000BB27A7FDBA951F910F910C94D4051F9125
:100D80000F910895BC018EE00C94BB08DE98D698B4
:100D9000BD9ABE9ABF9A80B7806680BF8FEA86B937
:100DA0001092DC000C944208CF9387FD15C0C8B3A5
:100DB00020E28202C0011124CF71C82B88B38F7149
:100DC000806C88BBD69A8AE090E00E94FE0A8FB7BA
:100DD000F894C8BBD6988FBFCF91089584B125B140
:100DE000E091DC0095E0E99FF0011124E05AFE4F0C
:100DF000E4913FB7F89490E0922BAC0160E070E092
:100E0000F0E0DF01AA0FBB1FA153BD4F11969C93C9
:100E10008E938091DB00811102C03FBF0895EE0FD9
:100E2000FF1FEE0FFF1FEF50FD4F80819181A281C8
:100E3000B381840F951FA61FB71F80839183A28360
:100E4000B383EBCF0E94EB209093EE028093ED02F0
:100E50000E94AF1A9093F0028093EF028091DB0022
:100E6000882309F44BC00E94EB2040912D03509140
:100E70002E0360912F0370913003480F591F611D9D
:100E8000711D40932D0350932E0360932F03709395
:100E900030030E94AF1A40913103509132036091A8
:100EA000330370913403480F591F611D711D409326
:100EB0003103509332036093330370933403809172
:100EC0003503909136030197B9F48091F90290911E
:100ED000FA02A091FB02B091FC0232E0B695A79510
:100EE000979587953A95D1F78093F9029093FA02F6
:100EF000A093FB02B093FC020C94D10D0895E091F5
:100F0000DC00EF5FE03108F0E0E085E0E89FF00111
:100F10001124E25AFE4F84912091720330917303A1
:100F2000232B19F0873009F486E00C94D406CF9374
:100F3000C091DC008C2F0E94EE06E1E0EC0FE03166
:100F400008F0E0E0E093DC0095E09E9FF0011124C2
:100F5000E15AFE4F8491806287B9E091DC009E9F48
:100F6000F0011124EF59FE4FE491E1110E94440673
:100F70008091DC0081110CC00E9422078091350312
:100F80009091360321E0892B09F420E02093DB00C7
:100F9000CF9108951F920F920FB60F9211242F93A5
:100FA0003F934F935F936F937F938F939F93AF93F1
:100FB000BF93EF93FF930E947F07FF91EF91BF9143
:100FC000AF919F918F917F916F915F914F913F91E1
:100FD0002F910F900FBE0F901F9018951F920F9298
:100FE0000FB60F9211242F933F934F935F936F93FC
:100FF0007F938F939F93AF93BF93EF93FF930E9441
:101000009707FF91EF91BF91AF919F918F917F9142
:101010006F915F914F913F912F910F900FBE0F9065
:101020001F9018951F920F920FB60F9211242F93B5
:101030003F934F935F936F937F938F939F93AF9360
:10104000BF93EF93FF930E94B633FF91EF91BF914F
:10105000AF919F918F917F916F915F914F913F9150
:101060002F910F900FBE0F901F90189588E085BDAF
:1010700085B5846085BD14BC8CE783BD89B7806865
:1010800089BF089512BE83E68CBF88E083BF83B713
:10109000836083BF89B7826089BF08951F920F92D2
:1010A0000FB60F9211242F933F934F935F936F933B
:1010B0007F938F939F93AF93BF93EF93FF93209171
:1010C000E3003091E4008091DF009091E000820F16
:1010D000931F9093E0008093DF002091E100309116
:1010E000E2008091DD009091DE00820F931F9093CB
:1010F000DE008093DD002FB7F8948091DF0090919F
:10110000E00035E0969587953A95E1F79BBD8ABD5D
:101110008091DD009091DE0045E0969587954A9597
:10112000E1F799BD88BD2FBF8091DF009091E0006D
:101130008F7199279093E0008093DF008091DD000C
:101140009091DE008F7199279093DE008093DD00EF
:101150000E942305FF91EF91BF91AF919F918F91D5
:101160007F916F915F914F913F912F910F900FBEA3
:101170000F901F9018959FB7F8948E3039F47093A4
:10118000E4006093E3008FB5806808C08D3039F4C7
:101190007093E2006093E1008FB580628FBD9FBFC6
:1011A000089580E092E097BD86BD82E08FBD89E121
:1011B0008EBD89B7846089BF08958E3019F48FB5CC
:1011C0008F7704C08D3019F48FB58F7D8FBD089552
:1011D0001F920F920FB60F9211242F933F934F93AC
:1011E0008F939F93EF93FF935A991AC04CB18091BC
:1011F000FB019091FC01019699272091FD0130910E
:10120000FE018217930769F0E091FB01F091FC0168
:10121000E550FF4F40839093FC018093FB0101C098
:101220008CB1FF91EF919F918F914F913F912F91B1
:101230000F900FBE0F901F9018951F920F920FB630
:101240000F9211242F933F938F939F93EF93FF93CC
:101250002091FB013091FC018091FD019091FE01F4
:101260002817390711F4559812C0E091FD01F0914B
:10127000FE01E550FF4F20818091FD019091FE011C
:10128000019699279093FE018093FD012CB9FF915F
:10129000EF919F918F913F912F910F900FBE0F90E3
:1012A0001F901895CF92DF92EF92FF92CF93DF932A
:1012B000EC016A017B01411581EE5807610571055A
:1012C000F9F0E885F98581E090E00C8802C0880F8C
:1012D000991F0A94E2F7808360E079E08DE390E063
:1012E000A70196010E94843B21503109410951090F
:1012F0005695479537952795211580E1380798F041
:10130000E885F985108260E874E88EE190E0A70135
:1013100096010E94843B215031094109510956959B
:10132000479537952795EC81FD813083EE81FF81CC
:1013300020831D8AEA85FB85408181E090E09C0145
:10134000098802C0220F331F0A94E2F7422B408320
:10135000EA85FB8540819C010A8802C0220F331F69
:101360000A94E2F7422B4083EA85FB8520810B88B3
:1013700002C0880F991F0A94E2F780958223808328
:10138000DF91CF91FF90EF90DF90CF900895CF93B2
:10139000DF93FC0182819381DC01B395EC01CE5F88
:1013A000DE4F4D915C911197288139814217530787
:1013B000C1F7A285B3854C9181E090E09C01018842
:1013C00002C0220F331F0A94E2F7209524232C93A6
:1013D000A285B3854C919C01028802C0220F331F65
:1013E0000A94E2F7209524232C93A285B3852C91AF
:1013F000038802C0880F991F0A94E2F78095822320
:101400008C9380819181FC01EE5FFE4F20813181C0
:10141000FC01F39531832083DF91CF910895FC0186
:101420008589882329F0A085B1858C9186FFFBCF23
:10143000158A0895CF93DF93FC0122813381D9016E
:10144000B3958D919C91119701969927E901CE5FF3
:10145000DE4F4881598184179507D9F30D90BC91CF
:10146000A02DA20FB31F6C93A281B381B3951196E7
:101470009C938E93A285B3852C9181E090E00388A4
:1014800002C0880F991F0A94E2F7282B2C9381E061
:10149000858B0084F185E02D80818064808381E0EC
:1014A00090E0DF91CF9108958BEF90E09093E6006C
:1014B0008093E5009093E8008093E70080E490E05B
:1014C0009093EA008093E90029E230E03093EC0049
:1014D0002093EB002BE230E03093EE002093ED0000
:1014E0002AE230E03093F0002093EF009093F20076
:1014F0008093F1008CE290E09093F4008093F300ED
:1015000084E08093F50083E08093F60087E0809389
:10151000F70085E08093F80081E08093F90008955A
:10152000CF93DF931F92CDB7DEB7E091AF04F09178
:10153000B004309711F4E3EBF4E0CE0101962EEB0A
:101540008E179F0710F02193FBCF0F90DF91CF9163
:101550000895CF93DF9300D0CDB7DEB72091AF04CD
:101560003091B0042115310511F423EB34E0CE01A4
:101570000196821B930B0F900F90DF91CF910895EE
:10158000CF93DF931F92CDB7DEB72091AF04309198
:10159000B0042115310511F423EB34E0F901AE015B
:1015A0004F5F5F4FCF01821B930B4E175F0728F0F1
:1015B00060816E3B11F43196F5CF0F90DF91CF91A2
:1015C0000895009741F0EFE9FFE03197F1F700C08F
:1015D00000000197F6CF08958436910538F064E64F
:1015E00070E00E94703BCB010C94E10A019728F057
:1015F00025E32A95F1F70000F9CF08956AE070E03D
:101600000E94703BCB010C94EC0AE82FF0E0EE0F47
:10161000FF1FE355FD4F808191810895E82FF0E091
:10162000EE0FFF1FED59FD4F8081918108952FB777
:10163000F894E82FF0E0EE0FFF1FE153FD4F80819B
:1016400091812FBF089580913803089580911702EA
:1016500090911802089580910502909106020895D4
:1016600080910702909108020895E82FF0E0EE0FB4
:10167000FF1FE75EFD4F808191810895262F613124
:1016800010F4423040F021E030E0FC01338322834B
:1016900031832083089550E0BA01620F711D620FFB
:1016A000711D660F771F660F771F665F7F4F44E0DF
:1016B00050E00C94EC3B282FCA01213188F46230B1
:1016C00078F470E0620F711D620F711D660F771F55
:1016D000660F771F665F7F4F44E050E00C940A3C32
:1016E0000895FF920F931F93CF93DF9300D000D004
:1016F000CDB7DEB706ED10E0F12CF801459155911C
:101700006591749149835A836B837C83AE014F5FEB
:101710005F4F60E08F2D0E945B0BF801349645917E
:1017200055916591749149835A836B837C83AE0193
:101730004F5F5F4F61E08F2D0E945B0BF394085F5A
:101740001F4F81E1F812D9CF81E00E9456110F900E
:101750000F900F900F90DF91CF911F910F91FF90FD
:10176000089581E020918D0230918E022331310560
:1017700009F080E0089580918B0290918C02089589
:1017800080918702909188020895809191029091B2
:10179000920208958091410290914202039750F085
:1017A0008091470290914802039720F083E090E0F7
:1017B0000C940A1880E008952FB7F89480E090E028
:1017C000FC01EE0FFF1FEE0FFF1FEF50FD4F1082C9
:1017D00011821282138201968131910589F784E684
:1017E00090E09093360380933503109237032FBF18
:1017F0000895CF93CFB7F894109216021092150265
:1018000010921102109212021092130210921402FE
:1018100010920D0210920E0210920F0210921002FE
:101820001092090210920A0210920B0210920C02FE
:101830000E94DE339093040280930302CFBFCF91C6
:1018400008950E94F90B109208021092070210925C
:101850000602109205020895E9E1F2E01192119258
:1018600082E0E336F807D1F70895CF93CFB7F89425
:1018700081E090E0909336038093350381E080937C
:1018800037030E942C0CCFBFCF910895CF93DF93E5
:101890000E94350CC0911702D09118028091170256
:1018A00090911802C817D90729F48AE090E00E94A5
:1018B0000434F4CFDF91CF9108951092380380E083
:1018C0000C944B05CF93DF9381E00E94170BEC0142
:1018D00080E00E94170B8C179D0718F4C81BD90BCA
:1018E00002C0C0E0D0E081E0C93ED34008F480E00F
:1018F000DF91CF9108958F929F92AF92BF92CF9236
:10190000DF92EF92FF92CF93DF93CDB7DEB72897A8
:101910000FB6F894DEBF0FBECDBFF82E5B01611588
:101920007105D1F140E0682FCE0105960E943E0B73
:1019300041E06F2DCE0101960E943E0B2B813C8130
:1019400040E050E0CF80D884E12CF12C2C193D09E7
:101950004E095F09B50180E090E08D809E80A12C4A
:10196000B12C681979098A099B090E94543B298185
:101970003A8140E050E0281939094A095B090E9480
:10198000A63B2C0D3D1D4E1D5F1D57FF03C020E0E3
:1019900030E0A901C90102C080E090E028960FB6AE
:1019A000F894DEBF0FBECDBFDF91CF91FF90EF90D7
:1019B000DF90CF90BF90AF909F908F9008958F92BF
:1019C0009F92AF92BF92CF92DF92EF92FF92CF930E
:1019D000DF93CDB7DEB728970FB6F894DEBF0FBE02
:1019E000CDBFF82E5B0161157105D1F140E0682F84
:1019F000CE0105960E943E0B41E06F2DCE0101966F
:101A00000E943E0B29813A8140E050E0CD80DE808B
:101A1000E12CF12C2C193D094E095F09B50180E03C
:101A200090E08F809884A12CB12C681979098A09DB
:101A30009B090E94543B2B813C8140E050E02819D7
:101A400039094A095B090E94A63B2C0D3D1D4E1D1C
:101A50005F1D57FF03C020E030E0A901C90102C0AB
:101A600080E090E028960FB6F894DEBF0FBECDBFA1
:101A7000DF91CF91FF90EF90DF90CF90BF90AF902C
:101A80009F908F9008958250893130F4E82FF0E0D4
:101A9000EF58FF4F8081089581E00895CF93DF9341
:101AA000833149F481E020918D0230918E022331FF
:101AB0003105C1F41AC0E82FF0E0EE0FFF1FED5919
:101AC000FD4FC081D1810E94430D882319F08130E0
:101AD00029F00AC081E0E39740F404C081E0C935F1
:101AE000D24018F480E001C081E0DF91CF910895E9
:101AF000CF93C0E08FE18C0F0E944E0D882329F018
:101B0000CF5FC630B9F786E001C08C2FCF91089522
:101B10001F93CF93DF931F92CDB7DEB7182F698342
:101B20000E94430DE12FF0E0EE0FFF1FED59FD4F36
:101B30004981682F808191810F90DF91CF911F9112
:101B40000C94BB372FB7F8946091FF01709100029D
:101B500080910102909102022FBF2DE730E040E01A
:101B600050E00E94843BBB27A52F942F832F08951C
:101B700020919102309192028091FF019091000298
:101B8000A0910102B0910202820F931FA11DB11D0D
:101B90008093FF0190930002A0930102B093020290
:101BA00008958091350390913603892B49F08091F7
:101BB0003503909136030197909336038093350354
:101BC000089590E0880F991FFC01ED59FD4F208189
:101BD00031816217730718F4261B370B04C0AB0161
:101BE000421B530B9A01FC01E75EFD4F2730310584
:101BF00018F01182108206C0208131812F5F3F4F83
:101C000031832083FC01ED59FD4F7183608308957A
:101C10008FB7F8941092FF01109200021092010207
:101C2000109202028FBF0E94350C0E94210C60E0CE
:101C300070E089E10E94E10D60E070E08BE10E94BC
:101C4000E10D60E070E08CE10E94E10D60E070E089
:101C50008DE10C94E10D10921802109217020E946F
:101C6000080EE3E6F2E01192119282E0ED3AF807F5
:101C7000D1F708958091380381110AC081E00E9454
:101C80004B050E942B0E81E0809338030C94460C88
:101C900008950C942B0EAF92BF92CF92DF92EF92E9
:101CA000FF920F931F93CF93DF931F92CDB7DEB7B1
:101CB000A0906302B09064028091650290916602E8
:101CC0008A159B0518F4A81AB90A02C0A12CB12CD8
:101CD000B50182E10E94E10D05E712E09FE1F80104
:101CE000619171918F01892F99830E94E10D9981F2
:101CF0009F5F9532A1F70E94780DF82E80E000E0FA
:101D000010E08F1569F0EFE1E80FF0E0EE0FFF1F34
:101D1000ED59FD4F20813181020F131F8F5FF1CFED
:101D2000B80183E10E94E10D0115110581F00A154A
:101D30001B0520F49501201B310B03C098012A19C3
:101D40003B09293B3B4018F4580113E102C012E162
:101D5000F12CB50184E10E94E10D6F2D70E086E168
:101D60000E94E10D612F70E085E10E94E10D0E946B
:101D7000A20D8C010E94A01A882329F0E09069022C
:101D8000F0906A020BC00E94DC20882329F0E090CA
:101D90006702F090680202C0E12CF12CB70187E1E4
:101DA0000E94E10DB80189E10E94E10D9701D50182
:101DB0000E94333B30E1C32E37E2D32EE12CF12CCD
:101DC000A70196010E94843BB90188E10E94E10DC0
:101DD0009801D5010E94333BA70196010E94843BE4
:101DE000B9018AE10F90DF91CF911F910F91FF9080
:101DF000EF90DF90CF90BF90AF900C94E10D4F9299
:101E00005F926F927F928F929F92AF92BF92CF928A
:101E1000DF92EF92FF920F931F93CF93DF93CDB793
:101E2000DEB728970FB6F894DEBF0FBECDBF0E9475
:101E3000DE332091030230910402821B930B813325
:101E4000954708F4A1C02FB7F8948091150290919E
:101E5000160234E6389F8001399F100D1124680165
:101E6000E12CF12C4090110250901202609013026C
:101E70007090140260910D0270910E0280910F0219
:101E8000909110028090090290900A02A0900B029B
:101E9000B0900C022FBF6D837E838F8398870E9442
:101EA000F90B20910702309108022F5F3F4F3093CA
:101EB0000802209307026D817E818F819885A7019A
:101EC00096010E94843B29833A834B835C83C30140
:101ED000B201A70196010E94843BB90180E00E94F3
:101EE0007B0C3C0169817A8181E00E947B0C861524
:101EF000970518F4681A790A02C0612C712C409079
:101F00009B0250909C026414750420F0B3018CE194
:101F10000E94E10DB301641975098BE10E94E10D86
:101F2000C501B401A70196010E94843BB90187E075
:101F30000E947B0C209105023091060290930602CC
:101F400080930502BC01621B730B660F771F8DE146
:101F50000E94E10DB8018EE128960FB6F894DEBF1D
:101F60000FBECDBFDF91CF911F910F91FF90EF90EA
:101F7000DF90CF90BF90AF909F908F907F906F90A9
:101F80005F904F900C94E10D28960FB6F894DEBF49
:101F90000FBECDBFDF91CF911F910F91FF90EF90BA
:101FA000DF90CF90BF90AF909F908F907F906F9079
:101FB0005F904F900895CF92DF92EF92FF920F9330
:101FC0001F93CF93DF932FB7F894809135039091AF
:101FD00036032FBF892B09F0A0C0809137038111F0
:101FE00092C0809117029091180201969093180266
:101FF000809317024091F1025091F2026091F30236
:102000007091F4028091110290911202A09113023A
:10201000B0911402840F951FA61FB71F8093110261
:1020200090931202A0931302B09314024091F50210
:102030005091F6026091F7027091F80280910D02C2
:1020400090910E02A0910F02B0911002840F951F83
:10205000A61FB71F80930D0290930E02A0930F024C
:10206000B093100240910D0350910E0360910F0345
:10207000709110038091090290910A02A0910B02C5
:10208000B0910C02840F951FA61FB71F8093090201
:1020900090930A02A0930B02B0930C028091150258
:1020A00090911602019690931602809315020E9459
:1020B000FF0E0DEA12E0C0E0D0E074E6C72ED12C8E
:1020C000E12CF12CFE01EE0FFF1FEE0FFF1FEF5072
:1020D000FD4F6081718182819381A70196010E94E9
:1020E000843BF801219331938F01B9018C2F0E9419
:1020F0007B0CBC018C2F0E94E10D2196C131D105D2
:1021000009F70E944B0EDF91CF911F910F91FF9025
:10211000EF90DF90CF900C94DC0BDF91CF911F916B
:102120000F91FF90EF90DF90CF900895809138034A
:1021300081110C94DB0F089560E089E393E00E9425
:10214000DF2887FD0AC0811102C00C94112999274C
:1021500087FD909501970C94E02A08950E947405DC
:1021600078940E9414050E9436080E9480210E94E3
:102170001E1B0E94490E0E94900A0E949B120E9400
:10218000222F0E9402300C94DC110E94AE100E949B
:102190009C10FDCF6EEA71E089E393E00E94C42DAC
:1021A0008EE890E090933A0380933903EDE3F3E0F7
:1021B0008081825E80830895FC0124812E51621704
:1021C00010F40C94B72D862F90E0821B91090E9489
:1021D0005A156EE00C94FF35FF920F931F93CF9327
:1021E000DF93EC018B0141110E942B3C85E0F82E1E
:1021F000FA9459F0CE010E94043C8017910739F0FF
:1022000084E690E00E94F033F3CF81E001C080E0EB
:10221000DF91CF911F910F91FF900895EF92FF9260
:102220000F931F93CF93DF937B018C01E80EF91E70
:10223000CFEFDFEF0E151F05A9F0C8010E94FC3B90
:10224000C82728E0CE01969587953C2FEC0130FFFA
:1022500004C031E0C32730EAD327215099F70F5F3C
:102260001F4FE8CFCE01DF91CF911F910F91FF90CB
:10227000EF900895EF92FF920F931F93CF93DF9308
:102280001F92CDB7DEB78C017B0149830E940E11EE
:102290004981BC01C8018E0D9F1D0F90DF91CF9128
:1022A0001F910F91FF90EF900C94EC10482F68E86D
:1022B00070E08AE090E00C943A11482F6CE073E0F3
:1022C00084E990E00C943A11482F68E370E082EAC8
:1022D00093E00C943A111F93CF93DF93D82F182FCC
:1022E0001170412F63E678E680E090E00E94EC10E8
:1022F000C82F412F6CE679E682E090E00E94EC1056
:102300008111C1E0D1FB442740F969E070E084E02D
:1023100090E00E94EC108111C260D2FB442740F98A
:1023200062E070E086E090E00E94EC108111C460F1
:10233000D3FB442740F966E070E088E090E00E941B
:10234000EC108111C860D4FD0E94710B80E00E94E6
:1023500056118111C061D5FD0E94891680E00E944E
:102360005D118111C062D6FD0E94B81280E00E940A
:1023700064118111C0648C2FDF91CF911F9108955A
:10238000CF93C82F0E94BD2F882399F0C0FDC26053
:10239000C1FDC461C2FDC862C3FDC0640E94DA2FE2
:1023A0008C2F0E946B11682F8C2F0E94DE2F81E0F2
:1023B00001C080E0CF91089580E00E946B118111EF
:1023C0000C94C01181E0089580E00E946B1181603F
:1023D0000C94C011CF930E94182F82E093E0909349
:1023E000C4038093C303C1E0C093C2031092BA0335
:1023F0008EE793E00E94DE13823011F4C093BA039B
:102400000E94081A91E0813009F090E0892FCF9165
:10241000089561E081E00E9452198EE093E090936C
:10242000C4038093C303089560E082E00E945219C0
:102430008CEF92E09093C4038093C303089590912E
:1024400060039093BB031092BA0390E0883091052B
:1024500060F5FC01E65DFF4F0C94C53B8EE793E011
:102460000E94DE13811114C08AE193E006C081E06E
:102470008093BA030DC086EF92E09093C4038093DB
:10248000C30311C00E9414120EC085E08093BB03E9
:102490000E94091208C081E08093BA0384E193E0AE
:1024A000ECCF0C94DB160C94081A0E946E2F80E07F
:1024B0000895CF93C82F0E94A826882351F1C09376
:1024C0004503109243031092420383E08093440338
:1024D0000E94B0390E943A0E0E94EA11882391F0BE
:1024E00081E0809344030E940E1D0E94182F1092D9
:1024F000C20384E00E94BC32809145030E941F12F7
:102500000E944A1D0E945D0C0E94C039CF910C941C
:10251000212FCF910895DC019E96ED91FC919F971C
:10252000EE0FFF1FEE0FFF1FE654FE4F65917591F2
:1025300085919491089548E350E062EA73E086E45F
:1025400093E00E94EC3B0C94F01C48E350E062EAFC
:1025500073E086E493E00E940A3C81E00E946411EB
:102560000C94F01C48E350E06EEC71E00C94CB3B13
:1025700086E493E00E94B2120C94A512FC01248917
:1025800035892630310520F025E030E0358B248B6D
:1025900008950C94F01C0F931F93CF93DF93CDB746
:1025A000DEB7C354D1090FB6F894DEBF0FBECDBF5E
:1025B0008C01BC01CE0101960E94282BCE01019610
:1025C0000E94452B88E3FE013C96D80101900D92B4
:1025D0008A95E1F70E94A5120E94F01CCD5BDF4FA7
:1025E0000FB6F894DEBF0FBECDBFDF91CF911F9124
:1025F0000F910895FC0125913491F901099440E06F
:10260000FC01259134910296232B11F04F5FF8CFF6
:10261000842F0895282F81E090E03AE0215038F08F
:10262000AC01349FC001359F900D1124F7CF089560
:1026300097FD02C081E008958FEF0895CF92DF9259
:10264000EF92FF92CF93611571058105910521F4F9
:1026500061E070E080E090E0C0E02AE0C22ED12C82
:10266000E12CF12CCF5FA70196010E94843BCA01A7
:10267000B9012115310541055105A1F78C2FCF91E5
:10268000FF90EF90DF90CF900895FC012081318181
:10269000260F371F37FF03C011821082089550E0C4
:1026A000421753071CF451834083089531832083DC
:1026B0000895FC0120813181260F371F1216130661
:1026C0002CF081E090E091838083089550E04217E0
:1026D00053071CF451834083089531832083089568
:1026E0008F929F92AF92BF92CF92DF92EF92FF9222
:1026F0000F931F93CF93DF936C015B014A01E901B4
:10270000FC01E080F180B70180E090E00E941E13A0
:10271000209749F4823028F082500E940A13EC017D
:1027200002C0C1E0D0E0C701BE010E94703B00972B
:1027300041F01A141B041CF4C81BD90B05C0EC0192
:1027400011C01A141B0474F4C4018C1B9D0BE816F1
:10275000F90618F4CE0DDF1D01C0E401F601D183A6
:10276000C0830EC010E0C8018C0F9D1F8E159F0501
:1027700018F4EC1AFD0A01C07801F601F182E0823A
:10278000DF91CF911F910F91FF90EF90DF90CF904D
:10279000BF90AF909F908F9008950F9304E620E034
:1027A00030E00E9470130F9108950E944634811109
:1027B000FCCF0E9446348823E1F30895FC01808118
:1027C00091818930910579F09C012450310925309F
:1027D000310558F09C012150310981E0223031054A
:1027E00028F480E0089583E0089582E008950F932F
:1027F0001F93CF93DF93EC018B0150E00E940F35C4
:102800004AE3B801CE01DF91CF911F910F910C9453
:10281000BB34EF92FF920F931F93CF93DF9300D0BF
:102820001F92CDB7DEB78C01462F0C969A83898311
:102830008EE08B83D801ED91FC91EE0FFF1FEA5FD4
:10284000FD4FE590F490BE016D5F7F4FCE01019684
:102850000E94F713A701BE016D5F7F4FCE01019665
:102860000E94D63440E2BE016D5F7F4FCE010196DB
:102870000E94BB34F80142815381BE016D5F7F4FDE
:10288000CE0101960E940F354FE2BE016D5F7F4F72
:10289000CE0101960E94BB34D80118964D915C91EF
:1028A0001997BE016D5F7F4FCE0101960E940F35D3
:1028B0000F900F900F90DF91CF911F910F91FF908C
:1028C000EF900895CF93DF9300D01F92CDB7DEB77E
:1028D000462F2EE02B830C969A838983BE016D5F71
:1028E0007F4FCE0101960E94F7130F900F900F902B
:1028F000DF91CF9108952AE1289FB001299F700DA3
:1029000011246C567F4F4AE150E08EE793E00C941F
:10291000EC3B2AE1289FB001299F700D11246C56D1
:102920007F4F4AE150E08EE793E00C940A3CFC01B3
:102930008081918125E0289FF001299FF00D1124CD
:10294000E60FF11DEE0FFF1FEE56FD4F859194919E
:102950000895DC018D919C91119725E0289FF0014D
:10296000299FF00D1124E60FF11DEE0FFF1FEE560B
:10297000FD4F8591949118962D913C911997AC013A
:10298000429FC001439F900D529F900D11240895C6
:10299000FC01A281B38120916403309165030E9400
:1029A000333B24E630E040E050E00E94843B293E87
:1029B000FDEF3F074105510520F028EE3DEF40E0D7
:1029C00050E0C9010895FC01208131812130310599
:1029D00029F420915603309157030AC02230310563
:1029E00029F4209154033091550302C020E030E0D7
:1029F000FC0180859185AC01249FC001259F900D2D
:102A0000349F900D11240895FC01208131814CE008
:102A1000429FB001439F700D1124665E7D4F4CE0D4
:102A200050E00C94CB3BDC01ED91FC91EE0FFF1FCD
:102A3000EA5FFD4F859194910C94CA35CF93DF9353
:102A4000EC018881998160E0892B41F4CE010E94DC
:102A5000A91467E0DF91CF910C940338CE010E9456
:102A6000A91465E00E9403388FE20E9464358885CE
:102A700099850E94A03583E4DF91CF910C94643551
:102A800066E0FC01848195810C94FF3766E0FC01CF
:102A9000868197810C94FF37FC0182819381883E67
:102AA000FDEF9F0721F48DE898E00C94CA3567E0AC
:102AB0000C94FB372AE1AC01249FC001259F900DA7
:102AC000112480569F4F08950F931F93CF93DF9348
:102AD000CDB7DEB7A7970FB6F894DEBF0FBECDBF58
:102AE0008C01AB01BC01CE0101960E946A29CE0186
:102AF00001960E94EF298AE1FE013C96D8010190DF
:102B00000D928A95E1F7A7960FB6F894DEBF0FBE37
:102B1000CDBFDF91CF911F910F910895FC012081CE
:102B20003181260F371F2A30310550F0161617064F
:102B300024F4FC011182108205C029E030E0FC0180
:102B4000318320830C94041562E00E94A9149C0137
:102B500040E050E060E074EB84EC94E00E94843B41
:102B6000213787E138074105510520F020E737E19B
:102B700040E050E0C901089562E00E94A9149C0160
:102B800040E050E060E876E988E990E00E94843B0C
:102B9000213D87E038074105510520F020ED37E061
:102BA00040E050E0C90108950F931F93CF93DF9346
:102BB00000D0CDB7DEB78C0169837A830E94A4155B
:102BC000AC0169817A81C80104960F900F90DF9162
:102BD000CF911F910F910C94CD130F931F93CF930F
:102BE000DF9300D0CDB7DEB78C0169837A830E9472
:102BF000BC15AC0169817A81C80106960F900F90CF
:102C0000DF91CF911F910F910C94CD13FC01808126
:102C100091812AE0289FF001299FF00D1124EC56A4
:102C2000FD4F6591749188E799E60E94703BCB0156
:102C30000895EF92FF920F93CF93DF9300D0CDB71B
:102C4000DEB77C0169837A830E940616F701208132
:102C5000318169817A81232B19F422E330E002C0AB
:102C600020E030E001E0AC01C70108960E9470133B
:102C70000F900F90DF91CF910F91FF90EF900895FB
:102C8000CF93DF93EC010E940616288539858217C1
:102C9000930710F499878887CE010E94A4152C8190
:102CA0003D818217930710F49D838C83CE010E948F
:102CB000BC152E813F818217930710F49F838E836A
:102CC000DF91CF9108950F931F93CF93DF93EC0182
:102CD00004E620E030E048EE5DEF02960E947013BB
:102CE0000A811B811D830C83CE010E94DE1381307B
:102CF00039F4C80196958795969587959D838C8321
:102D00001F830E83CE01DF91CF911F910F910C9401
:102D100040160F931F93CF93DF934CE050E062E691
:102D200072E08EE793E00E94CB3B8EE793E00E9437
:102D30004016C0E0D0E08E010F5F1F4FB8018EE754
:102D400093E00E946214CE010E9489140E31110595
:102D500011F0E801F0CF81E0DF91CF911F910F9149
:102D60000C945D11FC0182859385883EF3E09F07FA
:102D700019F48DE898E004C00E94A03588E898E036
:102D80000C94CA350F9301E020E030E048EE53E0A8
:102D90000A960E9470130F91089580915C039091A0
:102DA0005D030E94F21B88E093E09093C40380933C
:102DB000C3030C94081A81E08093C2031092980315
:102DC00040919803242F30E080915A0390915B0347
:102DD000880F991F01972817390711F41092C20321
:102DE00040FF02C080E001C083E00E941F128130DA
:102DF00089F49091C203992369F0809198038F5FC1
:102E0000809398030E94F11C0E94080E0E94CD1628
:102E10008130B1F208958091B703811113C00E94EF
:102E2000230B882381F00E94260B20919903309177
:102E30009A03821B930B9C0181E02530310518F029
:102E400080E0089581E00895815E0C940E0B0F934D
:102E50001F93CF93DF9310E0CFEFDFEF00E080917F
:102E6000B903181760F4812F0E9424178C179D074F
:102E700010F0CE0101C0012F1F5FEC01F0CF802FB9
:102E8000DF91CF911F910F910895CF93DF93909190
:102E9000B703911104C0DF91CF910C942417909146
:102EA0009D03C82FD0E0992391F00E942417CC0FE6
:102EB000DD1FFE01E256FC4FC655DC4F20813181FB
:102EC00048815981241B350B280F391F07C0FE018B
:102ED000EE0FFF1FE256FC4F20813181C901DF91C7
:102EE000CF910895CF93C82F8091B703882341F0E5
:102EF000C11106C00E94260B90939A0380939903F8
:102F0000C093B7030E942C0C8091B603811104C0BA
:102F10008C2FCF910C945505CF910895EF92FF928D
:102F20000F931F93CF93DF9381E00E94040586E106
:102F30000E940E0B8093B9030AEA13E03EE9E32EE8
:102F400033E0F32EC0E0D0E08091B90390E0C817E1
:102F5000D9076CF48C2F0E942417F8018193919368
:102F60008F01F701819391937F012196EDCF10920C
:102F7000B7031092B60380E00E94721710929A0372
:102F800010929903DF91CF911F910F91FF90EF90D5
:102F9000089580E00E94721781E08093B60308953F
:102FA0000E94C91780E00C940405FF920F931F93B1
:102FB000CF93DF938091B8030E944517EC01F12C69
:102FC00001E010E08091B903F816E8F48F2D0E941B
:102FD0004517AC018091B703802321F0C417D507B2
:102FE00078F40DC020917003309171032F5F3F4F33
:102FF000369527952C0F3D1F2417350708F4102B05
:10300000000FF394DFCF812FDF91CF911F910F91AC
:10301000FF9008951F93CF93DF93EC0110E0809110
:10302000B903181748F48FE1810F0E94350B8C17F4
:103030009D0720F01F5FF3CF81E001C080E0DF91AA
:10304000CF911F910895BF92CF92DF92EF92FF929E
:103050000F931F93CF93DF938AE090E00E940A18AA
:10306000882309F45CC00E9427178093B8030E944C
:1030700024178C0162E08EE793E00E9497140817F2
:10308000190748F17EE9E72E73E0F72EEAEACE2E23
:10309000E3E0DE2EC0E0D0E0BB24B3948091B9031E
:1030A00090E0C817D907CCF48C2F0E942417F701A1
:1030B000819391937F01F601819391936F01801B1E
:1030C000910B20917003309171032817390708F490
:1030D000B12C2196E3CFBB24B39410929D030E94A0
:1030E000E63390939C0380939B03BB2059F0DF91C0
:1030F000CF911F910F91FF90EF90DF90CF90BF90F5
:103100000C94C9170E94D517DF91CF911F910F9191
:10311000FF90EF90DF90CF90BF900C947217DF91EB
:10312000CF911F910F91FF90EF90DF90CF90BF90C4
:103130000895CF9380919D03811115C081E0809304
:103140009D03C0E08091B903C81768F48C2F0E94DA
:103150002417EC2FF0E0EE0FFF1FE655FC4F918394
:103160008083CF5FEFCFCF9108950E94E633209107
:103170009B0330919C03821B930B089583E090E0A6
:103180000E940A18882391F08091B703811103C02F
:103190000E9423180BC00E9499180E94D5170E9404
:1031A000B5184F9718F080E00E9472170E940B1715
:1031B000882311F082E008958091B6038823D1F32B
:1031C00081E008951F93CF93DF93EC0110E080918D
:1031D000B903181780F4812F0E9424178C179D07BC
:1031E00010F081E009C0812F0E9445178C179D07C0
:1031F000C0F71F5FECCF80E0DF91CF911F91089562
:103200001F93CF93DF93EC0110E08091B90318175F
:1032100080F4812F0E942417C817D90710F081E08D
:1032200009C0812F0E944517C817D907C0F71F5F33
:10323000ECCF80E0DF91CF911F9108956091B903A9
:10324000662329F070E00E94703BCB01089580E076
:1032500090E008950E944F2161E081E00E945219A0
:1032600081E00E94BA1E8091BC039091BD030C9432
:103270001A2181E00C9465210E94CA0B882321F059
:103280000E94F0200C94431F089520916203309116
:1032900063038217930708F4C9019093BD038093D9
:1032A000BC030895CF93DF93C82FD62F682F8EE7E6
:1032B00093E00E94A9149093C1038093C003DD237F
:1032C00089F020918203309183033093BF032093D0
:1032D000BE03C130B9F48EE793E00E94DE13823062
:1032E000F9F010C020918403309185033093BF031F
:1032F0002093BE03C23031F48EE793E00E94DE13C8
:10330000823099F06091BB0370E08091BE03909190
:10331000BF030E94703BCB01DF91CF910C94451904
:10332000409168035091690304C040916A03509131
:103330006B038091860390918703489F9001499F7A
:10334000300D589F300D11248091C0039091C1031E
:10335000820F931F9093C1038093C003D3CF8091BA
:10336000C3039091C4030C94FA128091C30390910B
:10337000C40302960C94FA120E94B5190E944A1DC9
:103380000C94B734CF93DF930E94E633EC010E9494
:10339000E6338C1B9D0B853B910510F00E945D0C64
:1033A0000E944634882399F388E0DF91CF910C94F2
:1033B000BC320E94BC190E94622F85E00E94BC3280
:1033C0000C94C2190E94BC190E945D0C0E94662FC9
:1033D00086E00E94BC320C94C219E091C303F091C4
:1033E000C403349685919491FC010994811103C022
:1033F0000E94E2190BC0813039F48091C20381111F
:1034000005C00E94D91902C081E0089580E00895A6
:103410000F931F93CF93DF9310926B040E94AF1909
:1034200002E0C0E0D0E011E00E94463480936B04DB
:103430000E94932F112379F00E948A1D082F0E9469
:10344000F619182F882339F00E94260BC817D907C0
:1034500061F4111105C08091C203811110C010E008
:1034600080916B04813001F70AC00E94260BEC01A9
:103470000E94ED19082F0E94F619182FEACF0E941A
:10348000B519802FDF91CF911F910F91089581E0A1
:103490000E940B1B0C94D0170E94FD1A0E948E17DD
:1034A00021E080916C0390916D03892B09F420E059
:1034B0002093C50380E00C94BA1E0F931F93CF9303
:1034C000DF93C091C003D091C103CE010E941E19A9
:1034D0008C010E94BB0BC817D90738F4C801DF91D3
:1034E000CF911F910F910C94001981E0DF91CF9142
:1034F0001F910F9108951F93CF93DF930E945D1A40
:10350000182F0E94B41AEC018091C503882329F07A
:10351000BE01812F0E94041F01C0812F882329F042
:1035200081E00E940B1B81E007C0BE01812F0E9439
:103530000E200E94DE1A82E0DF91CF911F91089544
:1035400081E09091CA03911180E0089581E020917B
:10355000C8033091C903232B09F480E008958091BA
:10356000C8039091C90308958091C6039091C70341
:1035700008950E94C00B9C0140E050E060E876E9AD
:1035800088E990E00E94843B213D87E038074105AF
:10359000510520F020ED37E040E050E0C9010895EA
:1035A000813020E4920710F080E090E49093C9030A
:1035B0008093C8030E94C2060C94350CCF93DF930E
:1035C000EC010E94B91ABC01C817D90708F4BE0162
:1035D0008091C6039091C7038617970759F070939F
:1035E000C7036093C60380E10E94DF0CDF91CF9197
:1035F0000C94D01ADF91CF9108958091CA0388234B
:1036000049F080E090E00E94D01A81E00E94130609
:103610001092CA030895CF93C82F8091CA038111D5
:103620000BC0CC2349F080E090E00E94D01A80E0EB
:103630000E941306C093CA03CF91089580E090E0E2
:103640000E94D01A81E00C940B1B87E080936D04DC
:1036500082E080936E040E94B53283E08093CB03B6
:103660000895FF920F931F93CF93DF9382E10E94FF
:103670004E0D11E018278091BA03882381F00E9433
:10368000780D90918603FF24F394981301C0F12CD8
:1036900001E0811100E0913021F4002311F000E0FD
:1036A000F12C0E94B10B8823A9F083E10E940E0B3C
:1036B000EC0182E10E940E0BC817D90728F49C0187
:1036C0002C1B3D0BE90102C0C81BD90BC53FD140E3
:1036D00008F011E0F11002C087E001C083E08093A0
:1036E0006D04002329F080916D04825080936D0455
:1036F000112329F080916D04815080936D04F110A5
:1037000004C0011102C0112331F081E00E94BC32DB
:10371000011107C004C088E00E94BC3208C0FF202D
:1037200031F020916E0330916F03232B11F4C0E030
:1037300001C0C1E020917E0330917F03232B29F447
:1037400080914503811101C010E00E941A3481115B
:1037500002C01092CB03C11106C0111104C00E9417
:103760001A34883041F08091CB03823011F481E02B
:1037700008C082E006C08091CB038F5F8093CB03AB
:10378000F2CFDF91CF911F910F91FF9008958FEFAE
:1037900080936D0488E00C94BC321092D00308959D
:1037A0000E94E6339093CF038093CE0308950E9446
:1037B000E6332091CE033091CF03821B930B2091EF
:1037C000CC033091CD032817390728F081E080938E
:1037D000D00382E008951092D00381E00895809193
:1037E000D00308952CE3AC01249FC001259F900DC8
:1037F00011249093CD038093CC0308950E948E17DB
:103800000E944F2181E00C94BA1E81E00E94652144
:103810000C94D0170F931F93CF93DF93C091C003E5
:10382000D091C103CE010E941E198C010E94BB0BD6
:103830008C179D0738F4C801DF91CF911F910F912C
:103840000C94E21881E0DF91CF911F910F910895C0
:103850001F93CF93DF930E940A1C182F0E94F02021
:10386000EC01BC01812F0E94041F882329F081E014
:103870000E94652181E007C0BE01812F0E940E20B9
:103880000E941A2182E0DF91CF911F9108958091CB
:10389000DD039091DE032091E003222341F00E949A
:1038A000E6332091DD033091DE03821B930B0895F4
:1038B0006091D9037091DA038091DB039091DC036E
:1038C00028EE33E040E050E00E94843BC9010895B7
:1038D0006091D5037091D6038091D7039091D8035E
:1038E00028EE33E040E050E00E94843BC901089597
:1038F0000F931F93CF93DF9361E08EE793E00E94D5
:10390000A9148C0164E08EE793E00E94A914EC01F5
:1039100084E10E940E0B80179107B8F4C817D907ED
:10392000B0F49C012C1B3D0BC8018C1B9D0B64E665
:1039300070E00E94703BC9010E94703B64367105C3
:1039400010F063E670E0862F03C083E601C080E0DC
:10395000DF91CF911F910F910895CF93DF930E9434
:10396000781C9091DF039817E0F48093DF030E94A6
:10397000471C2091E2033091E303EC01C21BD30BFF
:103980000E94471C9093E3038093E2038091E40339
:103990009091E5038C179D0720F4D093E503C09325
:1039A000E403DF91CF9108950E94AD1C8091E10363
:1039B000882311F089E601C084E690E02091DF03BE
:1039C000821B91092091E4033091E503AC01429FF1
:1039D000C001439F900D529F900D112408950895AA
:1039E00008950E94781C8093DF031092E3031092E5
:1039F000E2031092E5031092E4031092D9031092AF
:103A0000DA031092DB031092DC031092D5031092BC
:103A1000D6031092D7031092D8030895CF93DF9363
:103A200068E572E080E00E94DF0C9093D4038093FD
:103A3000D30361E08EE793E00E94A914EC01C8541F
:103A4000D44FC93729E6D20710F0C8E7D9E6CE012E
:103A50000E94F305BE0180E00E94DF0C813C2FEF45
:103A6000920710F080EC9FEF9093D2038093D103E4
:103A70000E94B10B8093E1030E94E6339093DE0332
:103A80008093DD030E94F11C81E08093E003DF91CD
:103A9000CF9108950E94471C9093DE038093DD032D
:103AA0001092E00308950E94E22081111DC00E943F
:103AB000A61A811119C00E940B17882351F1809119
:103AC000D9039091DA03A091DB03B091DC03805914
:103AD0009F4FAF4FBF4F8093D9039093DA03A093CA
:103AE000DB03B093DC0308958091D5039091D60356
:103AF000A091D703B091D80380599F4FAF4FBF4FCC
:103B00008093D5039093D603A093D703B093D803A3
:103B1000D2CF0895CF93DF938091E003811102C04B
:103B200082E089C080E00E94170B2091D103309180
:103B3000D2038217930758F42091D3033091D40312
:103B40008217930760F40E94A01A882341F08FE641
:103B500099E0909343038093420380E06CC0C0914E
:103B6000E1030E94B10BC81719F080E699E0F1CF8C
:103B7000C091BE03D091BF03C851DC4F0E94C50B5A
:103B8000C817D90718F485E599E0E3CF86E00E94CD
:103B90000E0B20916603309167038217930718F488
:103BA00086E499E0D6CF89E10E940E0BEC018EE706
:103BB00093E00E94C814883E2DEF920731F0C81799
:103BC000D90718F086E399E01BC0C0918803D09113
:103BD0008903C83E83E0D807C8F46091D50370918B
:103BE000D6038091D7039091D80320E63AEE40E0C7
:103BF00050E00E94843B2C173D0740F08BE299E097
:103C0000909343038093420381E015C080914C035D
:103C100090914D03892B09F483CF87E00E940E0B0E
:103C200020914E0330914F032817390708F078CFC1
:103C30008BE199E08ECFDF91CF9108950E94051C12
:103C40000E94471A0C94D017CF93DF931F92CDB7E1
:103C5000DEB78091E603882329F0813031F40E9499
:103C60007B1A0CC00E94281C09C00E94BE1882301A
:103C700089F089830E941E1E89810CC0813051F415
:103C80009091BA03992331F082E08093E6030E9479
:103C90008E1782E00F90DF91CF910895CF93DF933D
:103CA0000E948E1761E083E00E945219C091C00308
:103CB000D091C1038091B903811106C00E94BB0B52
:103CC000C817D90740F40CC0CE010E941E190E94EB
:103CD0000019882329F00E94FE1B1092E6030BC0F6
:103CE00060E083E00E9452190E944C1A81E08093A8
:103CF000C5038093E603DF91CF9108958091E70398
:103D0000813029F48091BC039091BD03089580E037
:103D100090E008952CE0829FC00111248D509C4FAB
:103D20000C948F218BE394E00C948F21CF93DF933D
:103D300000D000D0CDB7DEB782E10E940E0B9A838F
:103D4000898384E10E940E0B29813A81281B390B5B
:103D50003A83298387E10E940E0B9C838B83CE01DB
:103D600001960E948F210F900F900F900F90DF917E
:103D7000CF910895EF92FF920F931F93CF93DF930C
:103D8000F82E81E08093E7030E94BB0BBC012091D9
:103D9000BC033091BD034091C0035091C1030F2D6E
:103DA00083E394E00E94AA218091C0039091C10313
:103DB0000E941E19EC0110E08CE0E82E8091B903FE
:103DC000181798F4812F0E944517BC012091BC035D
:103DD0003091BD03E19EC00111240F2DAE0185512C
:103DE0009C4F0E94AA211F5FE9CF109241041092BC
:103DF000EA031092400410923F04DF91CF911F918B
:103E00000F91FF90EF9008951F93CF93DF93182F9A
:103E1000EB018091BA038823B1F02091BC0330916B
:103E2000BD03203A310510F420EA30E02C173D079D
:103E300010F41092B603909141049B7F21F40E94EC
:103E4000BE188093E7038091E7038130B9F40E94A4
:103E50007E1E8C179D0780F0112371F08091410424
:103E6000843051F49091EA0381E0890F8093EA0352
:103E700081E09A3020F402C01092EA0380E0DF91E2
:103E8000CF911F9108950F931F93CF93DF93EC0170
:103E90000E94BB0BAE01BC0183E394E00E9463224D
:103EA00010E00CE08091B903181770F4812F0E9484
:103EB0004517BC01019FC0011124AE0185519C4FE3
:103EC0000E9463221F5FEECFDF91CF911F910F9170
:103ED0000895CF92DF92EF92FF920F931F93CF93AB
:103EE000DF936091C0037091C10383E394E00E946B
:103EF000CF218C018091C0039091C1030E941E19B3
:103F00007C01D12C9CE0C92E8091B903D81698F47D
:103F1000CD9CE0011124C551DC4FB701CE010E94B8
:103F2000CF210817190728F0B701CE010E94CF2131
:103F30008C01D394E9CFC801DF91CF911F910F91EC
:103F4000FF90EF90DF90CF9008950F931F93CF9342
:103F5000DF93EB012091BE033091BF038C01281742
:103F6000390708F489010E947E1E9C018017910781
:103F700008F49801C217D30719F1809141048430E5
:103F8000A9F42C173D0790F08091BC039091BD03DC
:103F90008C179D07A8F04091E8035091E9038091A8
:103FA000990390919A034817590751F0809199030A
:103FB00090919A039093E9038093E803C90101C0AB
:103FC000CE01DF91CF911F910F9108950F931F9311
:103FD000CF93DF93EC010E94BB0B9093340480934A
:103FE0003304D0933604C093350410E00CE0809184
:103FF000B903181770F4812F0E944517019FF00133
:104000001124E551FC4F91838083D383C2831F5FCA
:10401000EECFDF91CF911F910F9108951F93CF9312
:10402000DF93182FEB010E94CA0B811102C01123EC
:1040300059F10E940B17811127C0CE010E94431F26
:10404000CE010E94E61F0E94691F8C179D0708F091
:1040500043C09C012C0F3D1F36952795309340049B
:1040600020933F04BE0180913F04909140040E9440
:10407000A51F9093400480933F0490914104913098
:1040800001F150F411110DC080913F049091400452
:10409000DF91CF911F9108959230B1F09330B1F03C
:1040A00017C08091BA03882321F00E94C91710928B
:1040B000B60382E0809341041092400410923F04C2
:1040C000E3CF10924104E0CF83E003C01123E1F27B
:1040D00084E080934104D8CF9093400480933F04C0
:1040E000C1CF0C942A19CF93DF930E943C190E94F0
:1040F000BB0BEC010E94C50BA0915803B091590372
:104100009C010E94333B28EE33E040E050E00E94E7
:10411000843BC21BD30B62E08EE793E00E94A9149C
:104120008C179D0730F480918203909183030E9445
:104130001A210E94CA0B882381F061E08EE793E088
:104140000E94A9148C179D0740F481EE96E090938D
:1041500043038093420381E02CC00E94300B0297FE
:1041600038F18091520390915303892B71F08BE1C8
:104170000E940E0BEC018EE793E00E94E314C81737
:10418000D9071CF48DED96E0E2CF80914C0390911D
:104190004D03892B69F08DE10E940E0B2091500395
:1041A00030915103281739071CF487ED96E0CFCFE3
:1041B00082E0DF91CF91089581E0909146049111C2
:1041C00080E0089581E02091440430914504232B40
:1041D00009F480E008958091440490914504089585
:1041E000809142049091430408950E94C00B9C0169
:1041F00040E050E060E074EB84EC94E00E94843B8B
:10420000213787E138074105510520F020E737E1E4
:1042100040E050E0C9010895893E2DEF920710F06B
:1042200088EE9DEF90934504809344040E940B0612
:104230000C94350CCF93DF93EC010E94F520BC0168
:10424000C817D90708F4BE01809142049091430435
:104250006817790750F49C01261B370B2D38310560
:1042600068F0BC016C58710909C09B01281B390B0F
:104270002D38310518F0BC0164577F4F861797071A
:1042800059F070934304609342048FE00E94DF0C66
:10429000DF91CF910C940C21DF91CF910895809103
:1042A0004604882389F01092450410924404109229
:1042B00043041092420480E090E00E940C2181E0CF
:1042C0000E941C06109246040895CF93C82F809137
:1042D0004604811113C0CC2389F080E090E00E9455
:1042E0000C21109245041092440410924304109241
:1042F000420480E00E941C06C0934604CF910895BA
:104300001092450410924404109243041092420407
:1043100080E090E00E940C2181E00C946521FC017A
:10432000428153814115510591F0A081B181B7FFC0
:1043300003C0B195A195B10928EE33E00E94423B3C
:104340009A0140E050E00E94843BC901089580E05A
:1043500090E008950F93FC01CB01002341F0461734
:10436000570708F4CA016417750748F407C06417B3
:10437000750708F4CA014617570708F4BA0197836E
:1043800086839183808313821282158214823387FD
:104390002287681B790B718760870F910895FC0154
:1043A00086819781A285B3850084F185E02D3097C1
:1043B000D1F09B0140E050E0281B390B4109510925
:1043C0000E94493B9F01442737FD4095542F0E948E
:1043D000A63B2115310581E04807510524F457FD1E
:1043E00005C0C90108958FEF9FEF089580E090E028
:1043F0000895DF92EF92FF920F931F93CF93DF9375
:10440000EC012A813B812417350720F4FA01E21BD5
:10441000F30B03C0F901E41BF50B8C819D8196958C
:1044200087958E179F0710F5E880F98024173507C8
:1044300040F48A01021B130BCB018E199F097C01EA
:1044400005C0E61AF70A8901041B150BC7010E9473
:104450001813D82E888599850E941813D81206C083
:104460001D830C83F986E8861B870A87DF91CF912D
:104470001F910F91FF90EF90DF9008950F931F937E
:10448000CF93DF93EC018B019A01A885B9850E9437
:10449000423B2A853B8540E050E00E94A63BC80194
:1044A000A0E0B0E082179307A407B5071CF41F82B1
:1044B0001E8204C0021B130B1F830E83DF91CF915A
:1044C0001F910F910895EF92FF920F931F93CF9337
:1044D000DF93EC018B017A010E94F921A701B80159
:1044E000CE01DF91CF911F910F91FF90EF900C942F
:1044F0003E220F931F93CF93DF938C01443019F02A
:10450000CFEFDFEF02C0C1E0D0E00E941C34D80141
:104510001B96EC91F0E0EE0FFF1FED59FD4F9C0153
:10452000C29FC001C39F900DD29F900D1124208186
:104530003181820F931F91838083DF91CF911F91EF
:104540000F910895EF92FF920F931F93CF93DF93F4
:104550001F92CDB7DEB78C01443021F0EE24EA94EF
:10456000FE2C03C0EE24E394F12C69830E941C34DA
:10457000D8011B96ED91FC911C976981E60FF11D06
:10458000E491F0E0EE0FFF1FED59FD4F9C01E29E1C
:10459000C001E39E900DF29E900D11242081318187
:1045A000280F391F318320830F90DF91CF911F9106
:1045B0000F91FF90EF900895CF93DF93EC010E944D
:1045C0009B32882311F0888101C08FEFDF91CF915A
:1045D0000895CF93DF9300D000D0CDB7DEB780E051
:1045E0000E94050B9A83898383E10E940E0B9C83B2
:1045F0008B83AE014F5F5F4F61E080E00E945B0BF9
:10460000AE014F5F5F4F61E081E00E945B0B0F9056
:104610000F900F900F90DF91CF910895CF93DF937C
:10462000D82F6BEB76E08FEC96E00E94372FC0E03E
:1046300082E10E944E0D882391F00E94B10B8D17EC
:10464000A1F0C1110CC06DEA76E0DD2319F08FEC0A
:1046500096E002C084EC96E00E94372FC1E00E94F1
:104660004634813029F780E001C081E0DF91CF91AD
:104670000895CF93DF9300D000D0CDB7DEB7862F5B
:104680005A8349833C832B83AE014F5F5F4F61E0C8
:104690000E945B0B0F900F900F900F90DF91CF91C6
:1046A0000895FF920F931F93CF93DF93F82E162F49
:1046B000042F83E00E94BC32812F0E940E0BEC017C
:1046C000802F0E94050BAC019E01602F812F0E945C
:1046D000392381E0809338030E94460CFF2039F093
:1046E000DF91CF911F910F91FF900C94E922DF9100
:1046F000CF911F910F91FF900895EF92FF920F932A
:104700001F93CF93DF93CDB7DEB72E970FB6F894F4
:10471000DEBF0FBECDBF81E00E940E23882309F4C7
:1047200041C06EE573E0CE0101960E94C42D8FEF6B
:104730008A8784E990E09A83898385E593E09D8761
:104740008C8789E08E8761E0CE0101960E94DF2888
:10475000F82E87FD27C0082F112707FD1095F801B7
:10476000EB5AFC4FE49086E08F156CF38E2D0E947F
:104770004E0D882341F30E94460C109238036F2D92
:10478000CE0101960E943427882341F0F801E25BB4
:10479000FC4F44916E2D81E00E94512381E0809373
:1047A0003803D1CF2E960FB6F894DEBF0FBECDBF23
:1047B000DF91CF911F910F91FF90EF9008950F938C
:1047C0001F93CF93DF93CDB7DEB72E970FB6F89434
:1047D000DEBF0FBECDBF1092670062E273E0CE0174
:1047E00001960E94C42D8FEF8A8784E990E09A8316
:1047F000898380E293E09D878C8787E08E8761E0E4
:10480000CE0101960E94DF28082F87FD20C0E82FE7
:10481000FF27E7FDF095E05EFC4F1491812F0E9489
:104820004E0D882361F30E94460C10923803602FCE
:10483000CE0101960E943427882329F0412F612F51
:1048400080E00E94512381E080933803D8CF81E03B
:10485000809367002E960FB6F894DEBF0FBECDBFD3
:10486000DF91CF911F910F9108958F3019F4CB01F3
:104870000C940C21CB010C94D01AEF92FF920F9361
:104880001F93CF93DF93EC01443019F00FEF1FEF2C
:1048900002C001E010E00E941C34089F7001099FD3
:1048A000F00C189FF00C11240E941C344F8558897D
:1048B00001E09C01B701CE010D960E9470136D8539
:1048C0007E858B85DF91CF911F910F91FF90EF90A7
:1048D0000C943524AF92BF92CF92DF92EF92FF9269
:1048E0000F931F93CF93DF93CDB7DEB765970FB6C6
:1048F000F894DEBF0FBECDBFA82EB62E7A0180E0A1
:104900000E940E23882309F46FC0AA2069F00E9438
:104910004F2188E799E60E94F305E2E0CE2EFFE002
:10492000DF2E08EE1DEF08C00E94FD1A63E0C62EC0
:1049300070E1D72E00E010E464E373E0CE0101964D
:104940000E94C42D8FEF8A872CE930E03A832983B7
:10495000DC86BD86198B088B4D856C85CE01429611
:104960000E943E0B2A893B893F872E8761E0CE015A
:1049700001960E94DF2887FD2FC08111EDCF6E8543
:104980007F858D2D0E94352460E0CE0101960E9426
:1049900034278823D9F00E94460CFD8AEC8A2E85A4
:1049A0003F853B8B2A8BAE014E5E5F4F6B2D8D2D6D
:1049B0000E945B0B8C2D0E94050B9B8B8A8BAE019A
:1049C0004E5E5F4F6B2D8C2D0E945B0B60E070E0A4
:1049D0008D2D0E943524C0CF81E0AA2019F00E94BD
:1049E000652102C00E940B1B65960FB6F894DEBFCE
:1049F0000FBECDBFDF91CF911F910F91FF90EF9030
:104A0000DF90CF90BF90AF900895EF92FF920F93F9
:104A10001F93CF93DF93CDB7DEB729970FB6F894E6
:104A2000DEBF0FBECDBF8C017B01BC01CE01019664
:104A30000E94C42D60E0CE0101960E94DF28682FFD
:104A400087FD10C0E82FEE0FFF0BEE0DFF1D459107
:104A5000549181E093E00834190709F080E00E9446
:104A60006A24E8CF29960FB6F894DEBF0FBECDBFFB
:104A7000DF91CF911F910F91FF90EF9008951F93B9
:104A8000CF93DF9300D000D01F92CDB7DEB7182FA1
:104A90006D830E94050B9A838983812F0E940E0BE0
:104AA0009C838B83AE014F5F5F4F6D81812F0E948E
:104AB0005B0B0F900F900F900F900F90DF91CF91A5
:104AC0001F9108950F931F93CF93DF93CDB7DEB758
:104AD0002C970FB6F894DEBF0FBECDBF182F062F50
:104AE00068E273E0CE0101960E94C42D8FEF8A87A1
:104AF00024EA30E03A8329831C8761E0CE010196E5
:104B00000E94DF2887FD13C08111F7CF1092380370
:104B100060E0CE0101960E943427882321F0602FA7
:104B2000812F0E943F2581E080933803E6CF2C96A9
:104B30000FB6F894DEBF0FBECDBFDF91CF911F91AE
:104B40000F9108951F93CF93DF93CDB7DEB72997C9
:104B50000FB6F894DEBF0FBECDBF182F6EE273E024
:104B6000CE0101960E94C42D60E0CE0101960E9404
:104B7000DF28682F87FD04C0812F0E946225F4CFB3
:104B800029960FB6F894DEBF0FBECDBFDF91CF914F
:104B90001F910895CF93DF93CDB7DEB72A970FB655
:104BA000F894DEBF0FBECDBF62E773E0CE01019681
:104BB0000E94C42D60E0CE0101960E94DF2887FD8F
:104BC0002EC08A870E94B0390E943A0E8A858230B0
:104BD000A1F04CF4882371F08130C9F46EE373E0E6
:104BE00088E493E00EC0833079F0843081F40E9431
:104BF000DF230DC00E947D230AC06AE373E082E4D4
:104C000093E00E94052503C087E00E94A22581E071
:104C10000E9456110E945D0C0E94C039CBCF1092A9
:104C200044032A960FB6F894DEBF0FBECDBFDF91C6
:104C3000CF910895CF93DF93EC01842F0E947B0CDA
:104C40009E013695279536952795A9014C0F5D1F36
:104C50008417950730F4C21BD30B21E0C817D9077E
:104C600008F020E0822FDF91CF91089568EE73E085
:104C700080E00E94DF0C2BE1289FB001299F700D7E
:104C8000112440E088E799E60C941A26CF93DF932D
:104C90001F92CDB7DEB7482F68EE73E049830E94BC
:104CA000DF0C26E0289FB001299F700D1124498157
:104CB00080E797E10F90DF91CF910C941A26CF9364
:104CC000DF931F92CDB7DEB7482F64E670E04983CB
:104CD0000E94DF0CBC01660F771F680F791F4981A6
:104CE0008CE291E00F90DF91CF910C941A26CF9334
:104CF0000E94DC11C82F882341F10E943626C82F5C
:104D0000811105C085EA96E00E94FB2F1EC08FE04E
:104D10000E944626882329F082E00E9446268111BF
:104D200006C08CE996E00E94FB2FC0E00EC080E137
:104D30000E945F26882331F083E00E945F26C82FFF
:104D4000811103C080E996E0EECF8C2FCF910895BA
:104D50000C9477261F93CF93DF93EC01162F0E94BC
:104D6000B72DCE0109960E94DC22992787FD9095E8
:104D7000612F70E08617970759F0EB85FC85E60FE9
:104D8000F71F84916D85DF91CF911F910C94880D51
:104D9000DF91CF911F9108951F93CF93DF93EC0183
:104DA000162F82E10E944E0D81110FC06BEB76E051
:104DB0008FEC96E00E94372F8B85803141F581E0A2
:104DC000DF91CF911F910C940B1B612FCE010E949C
:104DD000B72DCE0109960E94DC22992787FD909578
:104DE000212F30E08217930791F0111108C065E080
:104DF0008D859E85DF91CF911F910C949A370E94EB
:104E0000C50B67E0DF91CF911F910C94FF37DF91C5
:104E1000CF911F9108951F93CF93DF93EC01162F2D
:104E20000E94B72DCE0109960E94DC22992787FDAA
:104E30009095212F30E08217930791F0111107C050
:104E400067E08B85DF91CF911F910C94880D8B8546
:104E50000E94050B67E0DF91CF911F910C949A3768
:104E6000DF91CF911F910895DF92EF92FF920F9300
:104E70001F93CF93DF93EC01F62E69871A8681E0AA
:104E80008D8382E0D82EEE24E3948E01075F1F4FBE
:104E90000E944634482F823011F0843061F4E8815A
:104EA000F9810280F381E02D6F2DCE010995F986FD
:104EB000DA86ED8204C0813089F0883079F0C8014B
:104EC0000E94A6328111ED828D81882319F0CE01D6
:104ED0000E9481288A858F5F8A87DACF8FEF898742
:104EE00081E08E838D83483009F080E0DF91CF919F
:104EF0001F910F91FF90EF90DF900895CF93DF9374
:104F0000EC010E94AF348B819C810E94CA350E94C3
:104F1000B3346A8188819981DF91CF910C947F3578
:104F2000FC0187818F3118F48F5F87830895868114
:104F30008F5F86830895FC018781882319F0815053
:104F40008783089586818150868308950F931F93E8
:104F5000CF93DF93FC01C681D0E06D2F80E00E94EB
:104F6000A93410E11C0F01E00C0F8C2F0E94643556
:104F7000011711F0C02FF7CFDF5FD23011F0C12F32
:104F8000ECCFDF91CF911F910F9108951F93CF9395
:104F9000DF93EC018BEC90E00E94DE381FEF8E81F6
:104FA000181721F0CE010E94A6271E818F81682F3D
:104FB00070E094E0759567959A95E1F78F700E947F
:104FC000A9340E944634823049F0843019F081308F
:104FD00049F413C0CE010E949027E1CFCE010E9478
:104FE0009B27DDCF8830D9F68D81E881F981E80FE4
:104FF000F11D8F819E81890F8083DF91CF911F9159
:105000000895FC0171836083428334832383158276
:1050100080E2868317820895CF93DF93EC018BECB7
:1050200090E00E94DE380E94B734CE010E947E27B5
:1050300061E08D810E94A9340E9446348230B1F033
:10504000843041F08130C1F48BEC90E00E94D7387D
:1050500080E026C04D81242F30E08A8190E00197C6
:10506000281739072CF74F5F4D83E2CF8D818823B6
:10507000F9F281508D83DCCF8830D1F682E00E9436
:105080009834823048F083E00E94BC328BEC90E090
:105090000E94D73881E004C0CE010E94C627C3CF4A
:1050A000DF91CF9108950895FC018CEA90E09183FF
:1050B000808312821382648381E0858386830895CE
:1050C000FC012281211103C081E082830895438184
:1050D00030E0240F311D848190E0019728173907B3
:1050E00014F44F5F43830895FC018281882319F0F3
:1050F0008150828308958381882311F081508383B6
:1051000008951F93CF93DF93EC0110E0612F80E0AF
:105110000E94A93480E20E946435E881F9816B81A4
:10512000610F0190F081E02DCE0109950E947C3540
:105130001F5F123059F76A8180E00E94A9348EE324
:105140000E9464356A818FE00E94A9348CE30E943A
:1051500064351D82DF91CF911F9108950F931F93A6
:10516000CF93DF93EC010E944634182F0E947639CA
:10517000882321F081E08D838FE71CC00B818A8119
:10518000080F123031F0143039F4CE010E9460283B
:1051900003C0CE010E9474288B819A81890F081761
:1051A00011F081E08D838D81882319F0CE010E945A
:1051B0008128812FDF91CF911F910F910895EF9258
:1051C000FF921F93CF93DF931F92CDB7DEB77C0181
:1051D00081E0F701858311E0C70169830E94AE2851
:1051E0006981811102C0F7011682F7019681911140
:1051F00008C0883031F481E0868383819281890FF1
:1052000009C0662311F0F7011583813029F7911148
:10521000E3CF8FEF0F90DF91CF911F91FF90EF9031
:105220000895CF93DF93CDB7DEB729970FB6F894E3
:10523000DEBF0FBECDBF6EE773E0CE0101960E94C8
:10524000C42D60E0CE0101960E94DF28813049F034
:10525000823051F081110BC086E493E00E94CB12A2
:10526000F0CF0E94CA25EDCF0E94E411EACF87FF5C
:10527000E8CF29960FB6F894DEBF0FBECDBFDF9101
:10528000CF910895262F443019F06FEF7FEF02C0C1
:1052900061E070E0223091F028F4222349F02130BF
:1052A00051F00895243081F060F0253081F00895A8
:1052B0000B960C948E150B960C9419160B960C9459
:1052C00063160B960C94D4150B960C94ED150B9657
:1052D0000C94C216EF92FF920F931F93CF93DF931C
:1052E000EC018B017A0166E873E00E94C42D8FEF18
:1052F000898782EB90E0998388838AE1F801DE0157
:105300001B9601900D928A95E1F7FEA2EDA2DF9126
:10531000CF911F910F91FF90EF9008950F931F93DE
:10532000CF93DF93CDB7DEB728970FB6F894DEBFE3
:105330000FBECDBF8C01BC01695E7F4F22E337E019
:105340004EE050E0CE0101960E940128CE01019668
:105350000E940C2881E0F801858328960FB6F89406
:10536000DEBF0FBECDBFDF91CF911F910F9108958A
:10537000CF93DF93EC010E94B7340E94AF348CE2EC
:1053800097E00E94CA350E94B3346EE0CE01479682
:105390000E947F350E94D51383E0DF91CF910C945A
:1053A000BC32CF93DF93EC016DA17EA16F5F7F4F85
:1053B0000B960E940914CE01DF91CF910C94B8296D
:1053C000CF93DF93EC016DA17EA16F5F7F4F0B96B2
:1053D0000E946214CE01DF91CF910C94B829DF9224
:1053E000EF92FF920F931F93CF93DF93CDB7DEB76A
:1053F0006A970FB6F894DEBF0FBECDBF8C018AE16D
:10540000D82EC8010B967C0160E0C8010E94DF28FD
:1054100087FD30C0873041F0883051F0863061F42C
:10542000C8010E94D129F0CFC8010E948E29ECCF7B
:10543000C8010E94E029E8CFF701DE0111969D2DF9
:1054400001900D929A95E1F7682FC8010E943427C8
:10545000811109C0FE013196D7018D2D01900D9269
:105460008A95E1F7D1CF83E00E94BC32C7010E9448
:105470004016CACF6A960FB6F894DEBF0FBECDBFF6
:10548000DF91CF911F910F91FF90EF90DF900895E2
:105490001F93CF93DF93EC01162F0E94B72DCE01FF
:1054A00009960E949B32882311F0298501C02FEFB5
:1054B000332727FD3095812F90E028173907B1F168
:1054C0001230F9F058F41123A9F0113079F5CE011A
:1054D0000B96DF91CF911F910C941E151430F9F0AB
:1054E000B8F0153019F5CE010B96DF91CF911F91D1
:1054F0000C94B216CE010B96DF91CF911F910C94B4
:105500001315CE010B96DF91CF911F910C944C1582
:10551000CE010B96DF91CF911F910C944015CE01D7
:105520000B96DF91CF911F910C944615DF91CF918F
:105530001F910895DC011796ED91FC911897E60FE5
:10554000F11DE491F0E0EE0FFF1FE656FC4F859150
:1055500094910C94CA350F931F93CF93DF93EC0172
:105560008B0180E061E0680FF801E80FF11DE49124
:10557000E83011F0862FF6CFCE010E9454288AEB36
:1055800090E09983888318870F83DF91CF911F91D3
:105590000F9108958EE793E00E94DE13833039F077
:1055A000823041F0811109C089E594E0089580E5D9
:1055B00094E0089582E694E0089587E494E00895E5
:1055C0000F931F93CF93DF93EC010E947B140E94F3
:1055D000CA2A8C0160E0C8010E94DF2887FD1BC039
:1055E000D8011796ED91FC911897E80FF11D87FDF2
:1055F000FA958491883061F4BE018EE793E00E94B1
:105600006415CE010E94891481E00E945D11DFCFF4
:105610000E945912DFCFDF91CF911F910F91089512
:105620006BEB73E082E694E00E94AB2A61EB73E0DF
:1056300089E594E00E94AB2A65EB73E080E594E095
:105640000E94AB2A6CEA73E087E494E00C94AB2AE6
:105650000F931F93CF93DF93EC018B016DEC73E0FD
:105660000E94C42D8FEF898780EC90E09983888316
:1056700088E3F801DE011B9601900D928A95E1F70F
:10568000DF91CF911F910F910895DF92EF92FF92DA
:105690000F931F93CF93DF93CDB7DEB7E8970FB685
:1056A000F894DEBF0FBECDBF7C018C01055F1F4F9C
:1056B00088E3D82E60E0C7010E94DF2887FD2AC05A
:1056C000853139F4C8010E94B21283E00E94BC32D5
:1056D000F1CFF801DE0111969D2D01900D929A9562
:1056E000E1F7682FC7010E943427811109C0FE012C
:1056F0003196D8018D2D01900D928A95E1F706C063
:1057000083E00E94BC32C8010E94BE12C8010E9400
:10571000C912D0CFE8960FB6F894DEBF0FBECDBF4A
:10572000DF91CF911F910F91FF90EF90DF9008953F
:1057300064E670E00E94703BCB0163E00E949A3700
:1057400083E40C94643568EE73E00E94703BCB01F7
:1057500063E00E949A3786E50C946435CF93DF931B
:1057600064E670E00E94703B9B01EC0163E0C901BC
:105770000E949A378EE20E946435CE016AE070E0A2
:105780000E94703B862F0E941A3682E598E0DF91D6
:10579000CF910C94CA3541E041960C94451344E0F6
:1057A000C7960C944513DC01D796ED91FC91D897E0
:1057B000EE0FFF1FED53FC4F859194910C94CA3569
:1057C0000B960E948B1224E630E040E050E00E94ED
:1057D000843B65E0C9010E949A3780E30E946435EA
:1057E00080E30C946435FC0124E6269FC001279FCA
:1057F000900D112420813181820F931F84369105F1
:1058000010F484E690E091838083808191818D3AC9
:10581000964220F08CEA96E2918380830895FC0101
:105820002AE0269FC001279F900D112420813181FD
:10583000820F931F8A30910510F48AE090E09183E3
:10584000808380819181893E934020F088EE93E0AF
:10585000918380830895FC0128EE33E0629FC001AC
:10586000639F900D729F900D112420813181820FD2
:10587000931F88352BE1920710F488E59BE1918313
:105880008083808191818133954720F080E395E783
:10589000918380830895FC0180819181680F791F35
:1058A0006330710518F07183608304C083E090E079
:1058B0009183808380819181893C910520F088ECDF
:1058C00090E0918380830895FC0185A596A5680FDB
:1058D000791F6D3D8FEF78071CF076A765A704C090
:1058E0008DED9FEF96A785A785A596A5849724F0B3
:1058F00083E290E096A785A70895FC0187A590A96B
:10590000680F791F69312CEF72071CF070AB67A725
:1059100004C089E19CEF90AB87A787A590A9883E3A
:10592000934024F087EE93E090AB87A70895FC01A5
:1059300080819181680F791F6C3E8FEF78071CF092
:105940007183608304C08CEE9FEF9183808380819C
:1059500091811816190614F41182108208950F937C
:105960001F93262F443019F06FEF7FEF02C061E0E4
:1059700070E0022F10E00531110508F057C0F80162
:10598000EE5CFF4F0C94C53B1F910F910C94CB2BF9
:1059900043961F910F910C94F32B45961F910F91F5
:1059A0000C940F2C41E047963DC0499601C04B96A0
:1059B0001F910F910C94972C4FEF4D9633C045E0FB
:1059C0004F9602C043E681961F910F910C94591394
:1059D00041E0839627C042E38596F6CF48EC879650
:1059E000F3CF4AEF8996F0CF8B961F910F910C94CD
:1059F0002B2C1F910F910C94642C1F910F910C94E0
:105A00007D2C41E0C1960EC041E0C3960BC0C59607
:105A10001F910F910C944B2C1F910F910C94CF2B35
:105A200044E0C9961F910F910C9445131F910F915B
:105A300008951F93CF93DF93EC01162F0E94B72D8B
:105A4000CE0109960E949B32882311F0298501C05E
:105A50002FEF332727FD3095812F90E02817390746
:105A600009F481C0412F50E04531510508F07BC059
:105A7000FA01E95BFF4F0C94C53B89890FC08B8904
:105A80009C89DF91CF911F910C94982B8D899E89D1
:105A9000DF91CF911F910C94AE2B8F89DF91CF9125
:105AA0001F910C94E23566E0898D9A8D03C066E003
:105AB0008B8D9C8DDF91CF911F910C94B13768E055
:105AC0008D8D9E8DDF91CF911F910C94073863E0EF
:105AD0008F8D98A110C064E089A19AA10E949A3785
