:100000000C9477060C949F060C949F060C949F0604
:100010000C94BF080C949F060C949F060C949F06AA
:100020000C949F060C9423090C94EF080C94FA0886
:100030000C949F060C94A0090C94D5090C949F066F
:100040000C949B080C949F060C949F060C949F069E
:100050000C949F068813941399139C139E13B0134A
:10006000AD139C138813173519351B351F351F35F4
:100070001D3523352135000000000CC5525A000003
:1000800000000CC5525AF60064001012E80300028A
:100090006400C0082C0100000000C0AE4E5A00D61B
:1000A00008078F67AC0D00000000C0A0E02E18010B
:1000B000F408DC37701700000000000000000000AA
:1000C000000086C50B0F000000009FC50E0F00004A
:1000D000000045C6080F0000000036C40C0F0000E9
:1000E00000009FC80B0F00000000F7C1150F4A0069
:1000F0006400CE08E8032501640012052C01FF000E
:1001000000000A00050400000004090000FF0101CE
:10011000000A040505000004040A0000FF020200B2
:1001200000020506000002040B0000FF03030000AC
:10013000060507000006040C0000FF0000000A018D
:100140000511020001040D0000FF0101000A050570
:1001500011040005040E00000305110100FF020256
:10016000000007051108006B0100006F7074696FD3
:100170006E730046000300881370170100320010F0
:100180002732008813102700000000030000000041
:1001900000010080250000004B00000096000000D8
:1001A000E1000000C20100010001000100010001A6
:1001B00000B0040807520300005203B0040807E827
:1001C000030000E803D0079209D60600006C07E49C
:1001D0000C100ED007E40CB80B100E0410C409A6C6
:1001E0000EAC0D740E6810B80B0A0F890C740ECC8F
:1001F00010B80B0A0F890C740EFE10B80B0A0F8989
:100200000C40066C071405400678050100A00FD0CD
:1002100007010001000100A00F010001000100041E
:100220000000010202020202030405AE0BA40B9FB0
:100230000B9A0B950B900B8B0B860B810B7C0BA9F0
:100240000B780B8D19C619EC1A7C1B871B921B7A35
:100250001C761CAA1C651D711D761D0D1E0A1E1420
:100260001E3B1E421E651EBC208C2092205B2387F5
:100270001B5D2305071709020044005F02FD7F0094
:100280000010271209FF7F4900A9020000000000AA
:10029000002F0904004900320401000000010000A1
:1002A000000000000000000000000000001709022C
:1002B0000044006302FD7F000010271209FF7F4900
:1002C00000AD020000000000002F090400490032C8
:1002D0000401000000010000000000000000000018
:1002E000000000000000010B09020041005502FD62
:1002F0007F000078690309020041005702FD7F007A
:100300000078692F0904004900320401000000014F
:100310000000000000000000000000000000006479
:1003200009820041006102FD7F000030755F098293
:100330000041009302FD7F000088135A09820041AA
:10034000009502FD7F000088135509820041009747
:1003500002FD7F000088135009820041009902FDD0
:100360007F000088134B09820041009B02FD7F0043
:100370000088134609820041009D02FD7F0000882D
:10038000134009FF7F41007B020000000000003A9B
:1003900009FF7F410079020000000000002F0904DE
:1003A00000490032040100000001000000000000CC
:1003B00000000000000000000006090A0B0C0D0EF2
:1003C000061F2021222324280925091D090000A534
:1003D000099C0990098409780969090000CB0BC1BF
:1003E0000BB30B00008A0AFF7F02005F05010000CB
:1003F000000B00870A0F0003005432FE7F582C00C8
:1004000000830A0E8041006503FD7F00008813838E
:100410000A100041006503320000007869760A0185
:100420008041006503FD7FB004D007760A200041BB
:10043000006503FF7F010078697F0A04804100792D
:1004400003FD7F000088137B0A0F8041006703FDD6
:100450007F000088137B0A10004100670332000010
:10046000007869710A1F0045005D03FF7F6400E8A2
:10047000FD6D0A3F0040006103FF7F010010276609
:100480000A1E8040006903FF7F01001027620A1FD7
:100490000040006303FF7F010088135B0A1F804058
:1004A000006B03FF7F01008813510A0C8048007B1A
:1004B0000301000300C800480A01004D0079030150
:1004C0000000000100430A000248007B030100EC29
:1004D000FF0000370A00024B007D03010001000A03
:1004E000002E0A1F004D006F0301000000010026CE
:1004F0000A00044A067F030A000A0084031A0A005D
:10050000014403710364005802AC26140A3F004CF6
:10051000006D03FF7F0000E8030A0A1F0047007711
:100520000301000100FA00FE0903004900810301F4
:100530000000000500F4091F804B00750301000155
:10054000006300E9091F804D0073030100000001F2
:100550000000000000000000000000000000002B70
:10056000025B033F0C300C280C1E0C120C0A0CFB17
:100570000BF00BE10BD40B00090003040708090082
:10058000030708090001020304080900010203042B
:1005900005060809096D0BFF7F49003B03010000B8
:1005A000006400650BFF7F0200A506010000000447
:1005B000005A0B010044003F0364005802AC264F70
:1005C0000BFF7F4403410364005802AC26490BFF34
:1005D0007F4D004303010000000100410BFF7F40FD
:1005E000004503FD7F0100F401390BFF7F40004708
:1005F00003FF7F01001027310BFF7F40004903FDFF
:100600007F0100F401290BFF7F40004B03FF7F01B6
:100610000088131D0BFF7F41034D03E803581B3077
:1006200075120BFF7F4D004F030100000001000C0D
:100630000BFF7F02009706010000000400040B027C
:100640000001009306010000000400FD0AFF7F0284
:10065000008B06010000000100F40AFF7F02008306
:1006600006010000000100EE0AFF7F00000000000C
:10067000000000000000000000000000000000007A
:1006800000000087065903DE0A930A8F065703A06D
:100690000A970A930153039B065103E50ADE0AD821
:1006A0000ACF0AC60AA9063D03E50ABF0AB70AAF80
:1006B0000AA70A20202D2D202000636865616C693F
:1006C0002D636861726765720A76312E39395F323F
:1006D000303136303431310063616C69622E20650F
:1006E00072726F7200706C656173652063616C6912
:1006F000627261746500656570726F6D20726573FA
:1007000065740A6572726F723A200072657365745F
:1007100074696E6720656570726F6D0020202020FF
:1007200020202020202020207965730065657072CC
:100730006F6D2072657365743A0052455645525389
:100740004520504F4C4152495459006572726F72A6
:100750003A2020202000636F6D706C6574653A202C
:1007600000983200000040000000007F330040008D
:1007700000000000402931FFFFFF7F04000040FC23
:10078000328001000000000040DD3100020000085E
:10079000000040E9310002000008000040FD310087
:1007A000020000000000401D32FFFFFF7F04000038
:1007B000401B2F00000060000000001F2F00000001
:1007C0006000000000232F000000200400004027EC
:1007D0002F00000020040000408031FFFFFF7F0455
:1007E0000000405E31FFFFFF7F00000040BA31FF94
:1007F000FFFF7F000000003D31FFFFFF7F0400008E
:10080000009E31FFFFFF7F000000000000FFFFFFA0
:100810007F00000000250064656C746120543D2059
:10082000004E2F4100546578743D0064656C74611E
:1008300020563D20006D6178566F75743D005469F7
:100840006E743D002D00546578743D00206C696D18
:1008500069743D0056696E7075743D007769726504
:100860007320523D00626174742E20523D0062205C
:10087000004C696D6974733A20006E6F2064542FC8
:10088000740025200043684342426C446946435348
:100890007453424359434300010101020A1E0103FC
:1008A00018478E01190C03010101E80301E10CE86E
:1008B0000300DF0C640000DD0C640000DA0C64004F
:1008C00000D80CE80301D50CE80301D30C010000AB
:1008D000D10CE80301DF0C010000CA0C640000CD5C
:1008E0000C010000CB0C010000CB0C01000000004B
:1008F000010000C80C141719181A0705061F20213B
:10090000222324566D696E75733A0056706C7573A8
:100910003A006164633A0074656D703A0049657825
:100920007065633A00493A0076616C75653A006318
:10093000616C69622E20702E3A00566F75743A0011
:1009400056312D363A005662363A005662353A0034
:100950005662343A005662333A005662323A0056D2
:1009600062313A0056696E3A00657870657274209B
:1009700044414E474552210074656D7020696E7484
:1009800065726E0074656D702065787465726E00B6
:100990004920646973636861726765004920636810
:1009A0006172676500766F6C746167650062616C87
:1009B000616E636520706F7274210062617474658A
:1009C00072792100646973636F6E6E65637400638E
:1009D0006F6E6E6563740064542F6474002D6456EA
:1009E0000056206C696D69740061646170742064E4
:1009F00069733A00442F4320726573743A00442FA0
:100A000043206379636C65733A0063617020434FE0
:100A100066663A0074696D653A007C657874726E3A
:100A20002054434F3A007C64542F64743A00657834
:100A300074726E20543A007C69676E72206672731D
:100A4000743A007C64563A00656E61622064563ADE
:100A50000062616C2E206572723A006D696E4964A5
:100A60003A0049643A006D696E49633A0049633A55
:100A7000004361703A0056636F3A0056643A00567C
:100A8000733A0056633A00563A00626174746572B4
:100A9000793A0072657600616476616E6365640020
:100AA00073696D706C6500542D70726F67720054BD
:100AB000656D706572610070726F6772616D006163
:100AC0006C77617973006578742E204164630065EA
:100AD00078742E20646562006465627567006E6FCD
:100AE000726D616C0064697361626C65640072654B
:100AF00073657400627574746F6E733A006D656E21
:100B000075733A007C73706565643A0055415254C0
:100B10003A00616463206E6F6973653A00696E70B4
:100B20007574206C6F773A20006D61782049643AC3
:100B3000006D696E2049643A006D61782049633A1E
:100B4000006D696E2049633A00626565703A006421
:100B500069736368206F66663A007C66616E205434
:100B6000206F6E3A0066616E206F6E3A00626163BC
:100B70006B6C696768743A004C4544004E695A6E64
:100B8000004C343335004C343330004C69706F0006
:100B90004C696C6F004C6966650050622020004E05
:100BA000694D48004E69436400556E6B6E004E6F90
:100BB0006E650072657365742064656661756C743A
:100BC0000063616C69627261746500736574746955
:100BD0006E6773006564697420626174746572790C
:100BE00000636170616369747920636865636B0099
:100BF000443E4320666F726D61740073746F72615E
:100C000067652B62616C616E630073746F726167FC
:100C1000650066617374206368617267650064696A
:100C2000736368617267650062616C616E63650021
:100C30006368617267652B62616C616E63650063F6
:100C40006861726765006578742E74656D702E63D7
:100C500075746F66660074696D65206C696D697482
:100C6000006361706163697479206375746F66668F
:100C700000696E707574205620746F206C6F770059
:100C80004857206661696C7572650062616C616EBF
:100C900063657220646973632E00696E742E7465D7
:100CA0006D702E6375746F66660062617474657230
:100CB0007920646973632E006E6F6C696D697400CE
:100CC000206E6F00796573005500006D00432F6D35
:100CD000002500F4004168004300576800570056A3
:100CE0000041000034070B0B07129D2DC530112465
:100CF0001FBECFE5D8E0DEBFCDBF10E0A0E6B0E07C
:100D0000E0E0F9E702C005900D92A43BB107D9F7E6
:100D100024E0A4EBB0E001C01D92A43BB207E1F7D0
:100D20001CE0CEEEDCE004C02297FE010E94023CF3
:100D3000C43ED107C9F70E9400120C947E3C0C946B
:100D4000000020E042E060E184EB90E00E944E3938
:100D50000E941F090E9494090C943807CF92DF92D9
:100D6000EF92FF92482F282F30E0A0E0BDE70E94CD
:100D7000063C6B017C01A4E6B0E0A41BB10924E6AB
:100D800030E00E94153C6C0D7D1D8E1D9F1D24E6DC
:100D900030E040E050E00E94BF3BB9018DE0FF90A1
:100DA000EF90DF90CF900C947E09882311F0909AF9
:100DB000089590980895811102C0969A0895969882
:100DC0000895811102C0929A089592980895811110
:100DD00006C0939A0E94DB0680E00C94E10693988B
:100DE0000895BC018EE00C947E09BC018EE00C9449
:100DF0007E0980FF02C0C09A01C0C09881FF02C076
:100E0000C19A01C0C19882FF02C0C29A01C0C298B3
:100E100083FF02C0C39A01C0C39884FF02C0DE9A58
:100E200001C0DE9885FF02C0DF9A0895DF9808951B
:100E300080E00E94E70680E00E94D50680E00E94E4
:100E40000A0980E00E94F9068C9A8B9A889A8F9AF8
:100E5000B89AB99ABA9ABB9AD69AD79A8D9A8E9A14
:100E60008D9A8A9A0895089584EB90E00C94A339A2
:100E7000D598D498DD98DC98BF9ABE9ABD9A8EEA30
:100E800086B9369A089534B145B1E091C500E13193
:100E900031F12FB7F894832F90E0942BF0E0DF012D
:100EA000AA0FBB1FAF53BD4F11969C938E933091E9
:100EB000BD00332391F0EE0FFF1FEE0FFF1FED512A
:100EC000FD4F4081518162817381480F591F611D1F
:100ED000711D40835183628373832FBF08952091D6
:100EE000C6003091BA0047FD02C0232B02C02095F6
:100EF00023232093BA0008950E94CA239093E0020E
:100F00008093DF020E94D81C9093E2028093E1025A
:100F10008091BD00882309F481C00E94CA234091BA
:100F20001F03509120036091210370912203480F09
:100F3000591F611D711D40931F035093200360933F
:100F40002103709322030E94D81C409123035091E7
:100F500024036091250370912603480F591F611DDA
:100F6000711D4093230350932403609325037093D2
:100F700026038091270390912803019709F04CC024
:100F80008091EB029091EC02A091ED02B091EE0203
:100F9000B695A795979587958093EB029093EC0271
:100FA000A093ED02B093EE028091E3029091E402EF
:100FB000A091E502B091E602B695A7959795879521
:100FC0008093E3029093E402A093E502B093E602DB
:100FD0008091E7029091E802A091E902B091EA02C3
:100FE000B695A795979587958093E7029093E80229
:100FF000A093E902B093EA028091EF029091F0028F
:10100000A091F102B091F2028093EF029093F0026E
:10101000A093F102B093F2020C94F80E089580911F
:101020004F0390915003892BE9F04091C200442373
:10103000C9F081E090E00090BF0002C0880F991FC6
:101040000A94E2F720912703309128032F703FB7CD
:10105000F8945BB39BB3982B9BBB240F2A95F1F7B5
:101060005BBB3FBF08958091BC008F5F853108F066
:1010700080E08093BC0085E0EEEBF0E0A3ECB0E014
:1010800001900D928A95E1F76091BC006F5F653128
:1010900008F060E085E0689FB001112462507F4F46
:1010A00045E050E08EEB90E00E94273C8091BC0030
:1010B00081110CC00E947C07809127039091280326
:1010C00021E0892B09F420E02093BD0008950E94BF
:1010D00043078091BB0091E0980F9093BB0087304D
:1010E000D9F018F4882331F008958830B9F08930A8
:1010F000D1F008958091BE0087FD19C03FB7F894E4
:1011000028B38091BE0040E2849FC00111242F715A
:10111000282B28BB3FBF08950C940F088091BF0077
:10112000806287B908951092BB000C94330808952B
:101130008091BA0008951F920F920FB60F9211245A
:101140002F933F934F935F936F937F938F939F93CF
:10115000AF93BF93EF93FF930E946708FF91EF91C6
:10116000BF91AF919F918F917F916F915F914F91BF
:101170003F912F910F900FBE0F901F9018951F92C7
:101180000F920FB60F9211242F933F934F935F93BB
:101190006F937F938F939F93AF93BF93EF93FF933F
:1011A0000E945535FF91EF91BF91AF919F918F9123
:1011B0007F916F915F914F913F912F910F900FBE53
:1011C0000F901F90189588E085BD85B5846085BD1A
:1011D00014BC8CE783BD89B7806889BF08951F92CE
:1011E0000F920FB60F921124979A0F900FBE0F9087
:1011F0001F9018951F920F920FB60F9211248F9384
:1012000097988091C80082BF8F910F900FBE0F906A
:101210001F901895811104C013BE12BE97980895AF
:1012200090E09595879528E7280F2093C800885867
:101230009E4F959587958CBF8CE483BF089589B7A1
:10124000836089BF08951F920F920FB60F921124E9
:101250002F933F938F939F932091CF003091D00095
:101260008091CB009091CC00820F931F9093CC0083
:101270008093CB002091CD003091CE008091C900A9
:101280009091CA00820F931F9093CA008093C90067
:101290002FB7F8948091CB009091CC0035E09695D3
:1012A00087953A95E1F79BBD8ABD8091C9009091E1
:1012B000CA0035E0969587953A95E1F799BD88BDC6
:1012C0002FBF8091CB009091CC008F719927909384
:1012D000CC008093CB008091C9009091CA008F719F
:1012E00099279093CA008093C9009F918F913F9155
:1012F0002F910F900FBE0F901F9018959FB7F894E5
:101300008E3039F47093D0006093CF008FB5806831
:1013100008C08D3039F47093CE006093CD008FB546
:1013200080628FBD9FBF089580E094E097BD86BD29
:1013300082E08FBD89E18EBD89B7846089BF089541
:101340001F920F920FB60F9211242F933F934F933A
:101350008F939F93EF93FF935A991AC04CB180914A
:10136000E7019091E801019699272091E9013091D8
:10137000EA018217930769F0E091E701F091E80133
:10138000E951FF4F40839093E8018093E70101C04A
:101390008CB1FF91EF919F918F914F913F912F9140
:1013A0000F900FBE0F901F9018951F920F920FB6BF
:1013B0000F9211242F933F938F939F93EF93FF935B
:1013C0002091E7013091E8018091E9019091EA01D3
:1013D0002817390711F4559812C0E091E901F091EE
:1013E000EA01E951FF4F20818091E9019091EA01E2
:1013F000019699279093EA018093E9012CB9FF9116
:10140000EF919F918F913F912F910F900FBE0F9071
:101410001F901895CF92DF92EF92FF92CF93DF93B8
:10142000EC016A017B01411581EE580761057105E8
:10143000F9F0E885F98581E090E00C8802C0880F1A
:10144000991F0A94E2F7808360E079E08DE390E0F1
:10145000A70196010E94BF3B215031094109510962
:101460005695479537952795211580E1380798F0CF
:10147000E885F985108260E874E88EE190E0A701C4
:1014800096010E94BF3B21503109410951095695EF
:10149000479537952795EC81FD813083EE81FF815B
:1014A00020831D8AEA85FB85408181E090E09C01D4
:1014B000098802C0220F331F0A94E2F7422B4083AF
:1014C000EA85FB8540819C010A8802C0220F331FF8
:1014D0000A94E2F7422B4083EA85FB8520810B8842
:1014E00002C0880F991F0A94E2F7809582238083B7
:1014F000DF91CF91FF90EF90DF90CF900895CF9341
:10150000DF93FC0182819381DC01B395EC01CE5F16
:10151000DE4F4D915C911197288139814217530715
:10152000C1F7A285B3854C9181E090E09C010188D0
:1015300002C0220F331F0A94E2F7209524232C9334
:10154000A285B3854C919C01028802C0220F331FF3
:101550000A94E2F7209524232C93A285B3852C913D
:10156000038802C0880F991F0A94E2F780958223AE
:101570008C9380819181FC01EE5FFE4F208131814F
:10158000329731832083DF91CF910895FC018589C3
:10159000882329F0A085B1858C9186FFFBCF158A21
:1015A0000895CF93DF93FC0122813381D901B39554
:1015B0008D919C91119701969927E901CE5FDE4F9D
:1015C0004881598184179507D9F30D90BC91A02DBE
:1015D000A20FB31F6C93A281B381B39511969C9314
:1015E0008E93A285B3852C9181E090E0038802C0A0
:1015F000880F991F0A94E2F7282B2C9381E0858BA2
:101600000084F185E02D80818064808381E090E01A
:10161000DF91CF91089587EE90E09093D200809370
:10162000D1009093D4008093D30080E490E0909315
:10163000D6008093D50029E230E03093D800209383
:10164000D7002BE230E03093DA002093D9002AE271
:1016500030E03093DC002093DB009093DE00809339
:10166000DD008CE290E09093E0008093DF0084E066
:101670008093E10083E08093E20087E08093E300C1
:1016800085E08093E40081E08093E5000895CF93A6
:10169000DF931F92CDB7DEB7E091B004F091B104B3
:1016A000309711F4E4EBF4E0CE0101962EEB8E17A7
:1016B0009F0710F02193FBCF0F90DF91CF910895FA
:1016C000CF93DF9300D0CDB7DEB72091B004309137
:1016D000B1042115310511F424EB34E0CE0101965B
:1016E000821B930B0F900F90DF91CF910895CF93B2
:1016F000DF931F92CDB7DEB72091B0043091B104D3
:101700002115310511F424EB34E0F901AE014F5FEE
:101710005F4FCF01821B930B4E175F0728F060814C
:101720006E3B11F43196F5CF0F90DF91CF91089574
:10173000009741F0EFE9FFE03197F1F700C00000BA
:101740000197F6CF08958436910538F064E670E08D
:101750000E94AB3BCB010C94980B009731F025E332
:101760002A95F1F700000197F8CF08956AE070E03C
:101770000E94AB3BCB010C94A30BE82FF0E0EE0FE3
:10178000FF1FE156FD4F808191810895E82FF0E021
:10179000EE0FFF1FEB5AFD4F8081918108952FB707
:1017A000F894E82FF0E0EE0FFF1FEF53FD4F80811C
:1017B00091812FBF089580912D0308958091090292
:1017C00090910A0208958091F7019091F80108958F
:1017D0008091F9019091FA0108958093F4010895A0
:1017E000E82FF0E0EE0FFF1FE55FFD4F8081918154
:1017F000089581E080932B030895262F613110F422
:10180000423040F021E030E0FC0133832283318319
:101810002083089550E0BA01620F711D620F711D9F
:10182000660F771F660F771F625F7F4F44E050E0BF
:101830000C94393C282FCA01213188F4623078F4A5
:1018400070E0620F711D620F711D660F771F660FCA
:10185000771F625F7F4F44E050E00C94573C08953F
:10186000FF920F931F93CF93DF9300D000D0CDB79B
:10187000DEB706E710E0F12CF8014591559165912E
:10188000749149835A836B837C83AE014F5F5F4FB2
:1018900060E08F2D0E941A0CF80134964591559105
:1018A0006591749149835A836B837C83AE014F5F4A
:1018B0005F4F61E08F2D0E941A0CF394085F1F4F59
:1018C00081E1F812D9CF81E00E948E120F900F9023
:1018D0000F900F90DF91CF911F910F91FF9008957E
:1018E0008091290390912A030C94DA1481E02091CD
:1018F0007F02309180022331310509F080E00895A4
:1019000080917D0290917E0208958091790290915C
:101910007A020895809183029091840208958091C3
:10192000330290913402039750F0809139029091E4
:101930003A02039720F083E090E00C94001A80E0D4
:1019400008952FB7F89480E090E0FC01EE0FFF1FA0
:10195000EE0FFF1FED51FD4F108211821282138294
:1019600001968131910589F784E690E090932803F0
:101970008093270310922C032FBF0895CF93CFB7E6
:10198000F89410920802109207021092030210922B
:10199000040210920502109206021092FF011092AA
:1019A000000210920102109202021092FB011092AA
:1019B000FC011092FD011092FE010E947D35909372
:1019C000F6018093F501CFBFCF9108950E94BE0C20
:1019D0001092FA011092F9011092F8011092F70199
:1019E0000895EBE0F2E01192119282E0E535F807FC
:1019F000D1F70895CF93CFB7F89481E090E090931A
:101A000028038093270380932C030E94F10CCFBFFF
:101A1000CF910895CF93DF930E94FA0CC0910902F1
:101A2000D0910A028091090290910A02C817D90741
:101A300029F48AE090E00E94A335F4CFDF91CF91A2
:101A4000089510922D0380E00C94E706CF93DF9366
:101A500081E00E94CF0BEC0180E00E94CF0B8C173D
:101A60009D0718F4C81BD90B02C0C0E0D0E081E08C
:101A7000C93ED34008F480E0DF91CF9108958F9262
:101A80009F92AF92BF92CF92DF92EF92FF92CF934D
:101A9000DF93CDB7DEB728970FB6F894DEBF0FBE41
:101AA000CDBFF82E5B016115710509F445C040E01A
:101AB000682FCE0105960E94FD0B41E06F2DCE01EF
:101AC00001960E94FD0B2B813C8140E050E0CF80CD
:101AD000D884E12CF12C2C193D094E095F09B50180
:101AE00080E090E08D809E80A12CB12C681979094E
:101AF0008A099B090E948F3B29813A8140E050E08E
:101B0000281939094A095B090E94E13B2C0D3D1D4A
:101B10004E1D5F1D57FD0BC02115310581E04807A3
:101B2000510544F02FEF3FEF40E050E003C020E0CC
:101B300030E0A901C90102C080E090E028960FB60C
:101B4000F894DEBF0FBECDBFDF91CF91FF90EF9035
:101B5000DF90CF90BF90AF909F908F9008958F921D
:101B60009F92AF92BF92CF92DF92EF92FF92CF936C
:101B7000DF93CDB7DEB728970FB6F894DEBF0FBE60
:101B8000CDBFF82E5B016115710509F445C040E039
:101B9000682FCE0105960E94FD0B41E06F2DCE010E
:101BA00001960E94FD0B29813A8140E050E0CD80F2
:101BB000DE80E12CF12C2C193D094E095F09B5019D
:101BC00080E090E08F809884A12CB12C681979096D
:101BD0008A099B090E948F3B2B813C8140E050E0A9
:101BE000281939094A095B090E94E13B2C0D3D1D6A
:101BF0004E1D5F1D57FD0BC02115310581E04807C3
:101C0000510544F02FEF3FEF40E050E003C020E0EB
:101C100030E0A901C90102C080E090E028960FB62B
:101C2000F894DEBF0FBECDBFDF91CF91FF90EF9054
:101C3000DF90CF90BF90AF909F908F90089582508B
:101C4000893130F4E82FF0E0E459FF4F80810895A6
:101C500081E00895CF93C82F833149F481E020912A
:101C60007F02309180022331310581F412C00E943D
:101C70001F0E813069F4EC2FF0E0EE0FFF1FEB5ADE
:101C8000FD4F208131812139314018F480E001C0BD
:101C900081E0CF910895EF92FF920F931F93CF931E
:101CA000DF931F92CDB7DEB79FE101E010E0E12C9A
:101CB000F12C892F99830E942A0E9981882311F093
:101CC000E02AF12A000F111F9F5F953291F7C7019B
:101CD0000F90DF91CF911F910F91FF90EF9008959A
:101CE0001F93CF93DF931F92CDB7DEB7182F698371
:101CF0000E941F0EE12FF0E0EE0FFF1FEB5AFD4F89
:101D0000482F6981808191810F90DF91CF911F9140
:101D10000C943D382FB7F8946091F0017091F10167
:101D20008091F2019091F3012FBF20E03DE740E068
:101D300050E00E94BF3BC90108952FB7F89460910D
:101D4000EC017091ED018091EE019091EF012FBFB8
:101D5000969587957795679520E03DE740E050E0C0
:101D60000E94BF3BC90108954091830250918402B3
:101D70008091F0019091F101A091F201B091F301F5
:101D8000840F951FA11DB11D8093F0019093F10167
:101D9000A093F201B093F3018091EB01815019F00F
:101DA0008093EB01089582E38093EB012091790207
:101DB00030917A02DA010E94063C24E630E040E0ED
:101DC00050E00E94BF3B8091EC019091ED01A09109
:101DD000EE01B091EF01820F931FA41FB51F8093F6
:101DE000EC019093ED01A093EE01B093EF01089503
:101DF0008091270390912803892B49F08091270334
:101E000090912803019790932803809327030895C6
:101E100090E0880F991FFC01EB5AFD4F2081318122
:101E20006217730718F4261B370B04C0AB01421B63
:101E3000530B9A01FC01E55FFD4F2730310518F087
:101E40001182108206C0208131812F5F3F4F318384
:101E50002083FC01EB5AFD4F7183608308958FB797
:101E6000F8941092F0011092F1011092F201109288
:101E7000F3011092EC011092ED011092EE0110921C
:101E8000EF0192E39093EB018FBF0E94FA0C0E9446
:101E9000E60C60E070E089E10E94080F60E070E00D
:101EA0008BE10E94080F60E070E08CE10E94080F57
:101EB00060E070E08DE10C94080F10920A0210921D
:101EC00009020C942F0F90912D0391110DC00E94C7
:101ED000E7060E945D0F81E080932D0380936000F0
:101EE0000E940A0D10922B0308950C945D0FCF925F
:101EF000DF92EF92FF920F931F93CF93DF931F9286
:101F0000CDB7DEB70091550210915602809157026D
:101F1000909158028017910718F4081B190B02C002
:101F200000E010E0B80182E10E94080F47E6E42ECD
:101F300042E0F42E9FE1F701619171917F01892FB9
:101F400099830E94080F99819F5F9532A1F7809134
:101F50002B03811106C00E944B0E90932A0380939D
:101F60002903E0902903F0902A03E3E9F2E080E0FE
:101F700090E0C12CD12C41E050E09A01082E02C023
:101F8000220F331F0A94E2F72E213F21232B21F049
:101F900020813181C20ED31E019632968630910582
:101FA00061F7B60183E10E94080FC114D10481F0EA
:101FB000C016D10620F4C8018C199D0903C0C601C2
:101FC000801B910B893B9B4018F4860193E103C071
:101FD00092E1E12CF12CB80184E199830E94080F71
:101FE000B70186E10E94080F9981692F70E085E1B1
:101FF0000E94080F0E94CC1C882329F0E0905B020D
:10200000F0905C020BC00E94BE23882329F0E09070
:102010005902F0905A0202C0E12CF12C9701D8012C
:102020000E94063C20E137E240E050E00E94BF3BC6
:10203000B90188E10E94080FB70187E10E94080FEB
:102040000E948A0EBC0189E10E94080F0E949D0E29
:10205000BC018AE10F90DF91CF911F910F91FF900A
:10206000EF90DF90CF900C94080F1F93CF93DF93E6
:10207000182FC82FD0E0FE01EE0FFF1FEE0FFF1F3D
:10208000ED51FD4F608171818281938128EE33E0B3
:1020900040E050E00E94BF3BFE01EE0FFF1FE15603
:1020A000FD4F31832083B901812F0E943F0DBC0178
:1020B000812FDF91CF911F910C94080F4F925F9267
:1020C0006F927F928F929F92AF92BF92CF92DF9248
:1020D000EF92FF92CF93DF93CDB7DEB728970FB67D
:1020E000F894DEBF0FBECDBF0E947D352091F50173
:1020F0003091F601821B930B8133954708F4A4C0FD
:102100004FB7F8942091070230910802A8EEB3E08F
:102110000E94063C6B017C01F694E794D794C79427
:1021200040900302509004026090050270900602F5
:102130006091FF0170910002809101029091020272
:102140008090FB019090FC01A090FD01B090FE01F9
:102150004FBF6D837E838F8398870E94BE0C209132
:10216000F9013091FA012F5F3F4F3093FA0120932C
:10217000F9016D817E818F819885A70196010E946A
:10218000BF3B29833A834B835C83C301B201A70120
:1021900096010E94BF3BB90180E00E943F0D3C01C7
:1021A00069817A8181E00E943F0D8615970518F4B8
:1021B000681A790A02C0612C712C40908D025090EF
:1021C0008E026414750420F48091F401811104C01E
:1021D000B3018CE10E94080FB301641975098BE10A
:1021E0000E94080FC501B401A70196010E94BF3BE0
:1021F000B90187E00E943F0D2091F7013091F8016D
:102200009093F8018093F701BC01621B730B660F7A
:10221000771F8DE10E94080FB6018EE128960FB658
:10222000F894DEBF0FBECDBFDF91CF91FF90EF904E
:10223000DF90CF90BF90AF909F908F907F906F90E6
:102240005F904F900C94080F28960FB6F894DEBF5D
:102250000FBECDBFDF91CF91FF90EF90DF90CF9079
:10226000BF90AF909F908F907F906F905F904F90B6
:102270000895CF932FB7F894809127039091280366
:102280002FBF892B09F091C080912C0381118AC046
:1022900080912D03882309F47EC0809109029091DA
:1022A0000A02019690930A02809309024091E30288
:1022B0005091E4026091E5027091E602769567958F
:1022C000579547958091030290910402A0910502D1
:1022D000B0910602840F951FA61FB71F80930302BB
:1022E00090930402A0930502B09306024091E70286
:1022F0005091E8026091E9027091EA027695679543
:10230000579547958091FF0190910002A09101029D
:10231000B0910202840F951FA61FB71F8093FF0183
:1023200090930002A0930102B09302024091FF0239
:1023300050910003609101037091020376956795B7
:10234000579547958091FB019091FC01A091FD016B
:10235000B091FE01840F951FA61FB71F8093FB014C
:102360009093FC01A093FD01B093FE0180910702C0
:1023700090910802019690930802809307020E94B0
:102380005E10C0E08C2F0E943510CF5FC131D1F7B5
:102390000E94770F07C080916000882319F085E0C4
:1023A0000E943510CF910C94A10CCF9108950C94FC
:1023B000391160E08EE293E00E94F72B87FD0AC09E
:1023C000811102C00C94292C992787FD90950197C3
:1023D0000C94782D08950E94180778940E94A10605
:1023E0000E94E3080E9458240E94601D0E94750FFD
:1023F0000E94470B0E946B140E94E12F0C94BD3089
:102400000E94EB110E9423130E94D911FDCF67E6B1
:1024100071E08EE293E00E94552E89E890E090935F
:102420002F0380932E03E2E3F3E080818C5E8083B0
:102430000895FC0124812451621710F40C94502E4D
:10244000862F821B0C940D18FF920F931F93CF932E
:10245000DF93EC018B0141110E94783C85E0F82E5E
:10246000FA9459F0CE010E94513C8017910739F03F
:1024700084E690E00E948F35F3CF81E001C080E0D8
:10248000DF91CF911F910F91FF900895EF92FF92EE
:102490000F931F93CF93DF937B018C01E80EF91EFE
:1024A000CFEFDFEF0E151F05A9F0C8010E94493CD0
:1024B000C82728E0CE01969587953C2FEC0130FF88
:1024C00004C031E0C32730EAD327215099F70F5FCA
:1024D0001F4FE8CFCE01DF91CF911F910F91FF9059
:1024E000EF900895EF92FF920F931F93CF93DF9396
:1024F0001F92CDB7DEB78C017B0149830E94461243
:102500004981BC01C8018E0D9F1D0F90DF91CF91B5
:102510001F910F91FF90EF900C942412482F68E8C0
:1025200070E08EE090E00C947212482F60E273E04D
:1025300088E990E00C947212482F60E270E08AEB18
:1025400093E00C9472120F931F93CF93DF93D82FC5
:10255000182F1170412F63E678E680E090E00E942A
:102560002412C82F412F6CE679E682E090E00E94A9
:1025700024128111C1E0412F62E070E184E090E01B
:102580000E9424128111C1E0412F66E070E086E0D4
:1025900090E00E9424128111C1E0D1FB002700F9D4
:1025A000402F6AE070E088E090E00E9424128111E0
:1025B000C260D2FB112710F9412F63E070E08AE07E
:1025C00090E00E9424128111C460D3FBDD27D0F972
:1025D0004D2F6CE070E08CE090E00E94241281119D
:1025E000C86001110E94300C80E00E948E1281119F
:1025F000C26011110E94FB1780E00E9495128111A8
:10260000C460D1110E94861480E00E949C12811146
:10261000C8608C2FDF91CF911F910F910895CF93B8
:10262000C82F0E947330C0FDC260C1FDC460C2FDEE
:10263000C8600E948D308C2F0E94A312682F8C2FAF
:10264000CF910C94913080E00E94A312882321F056
:102650000E940F1380E0089581E0089580E00E94B9
:10266000A31281600C940F13CF930E94D72F85E59E
:1026700092E09093AE038093AD03C1E0C093AC03AE
:102680001092A5030E94F615823011F4C093A503A1
:102690000E94351C91E0813009F090E0892FCF91A4
:1026A000089561E081E00E94AD1B81E692E0909385
:1026B000AE038093AD03089561E081E00E94AD1BFD
:1026C0008DE692E09093AE038093AD03089560E0B1
:1026D00082E00E94AD1B8FE492E09093AE03809362
:1026E000AD03089561E081E00E94AD1B89E492E0B2
:1026F0009093AE038093AD0308951092A50390E0EC
:102700008930910598F5FC01E65DFF4F0C94003C83
:102710000E94F615811102C00C945C130E94F615FC
:10272000853029F40C94721381E08093A5030C94F6
:10273000511383E492E016C00C9467130E94511366
:10274000809161039091620365E070E00E94AB3B71
:102750007093A7036093A603089581E08093A50377
:1027600087E692E09093AE038093AD0308950E94B4
:10277000561F0C942F0FCF93C82F0E94B7138C2F86
:102780000E947D13C73029F0C83059F463E081E01E
:1027900005C060918103660F615080E0CF910C9479
:1027A0005E18CF910C94351C0E943B1D88EE93E07F
:1027B0000E941C1D84E690E00E94A3350C944E1DDF
:1027C000CF93C82F0E943729882381F10E94D41308
:1027D000C0933A038C2F0E947D13109238031092FD
:1027E000370383E0809339030E94E53981E00E943A
:1027F000630F0E943413882391F081E080933903A2
:102800000E94731F0E94D72F1092AC0384E00E9495
:10281000593480913A030E94BB130E94A81F0E9462
:10282000210D0E94F539CF910C94E02FCF9108959E
:10283000DC015896ED91FC915997EE0FFF1FEE0FBA
:10284000FF1FED56FE4F6591759185919491089506
:1028500040E250E063E771E00C94273C809145032F
:102860009091460320914703309148032817390778
:1028700020F49093480380934703809147039091FD
:1028800048038131974230F080E197E2909348030A
:10289000809347038091490390914A0320914B0311
:1028A00030914C032817390720F490934C03809300
:1028B0004B0380914B0390914C038938934130F046
:1028C00088E893E190934C0380934B030895FC01B7
:1028D00080810C94AE0640E250E06AEB73E08BE33B
:1028E00093E00E94393C8BE393E00C94671440E240
:1028F00050E06AEB73E08BE393E00E94573C81E089
:102900000E949C128BE393E00C9467148BE393E09A
:102910000E9428140C947714FC010994FC01859101
:1029200094910C948C14009761F09C0180E0F90163
:10293000459154912E5F3F4F452B11F08F5FF7CF9C
:10294000089580E00895EF92FF920F931F93CF9325
:10295000DF93EC017B018A0185E00E94C60B8E1596
:102960009F0518F4188281E007C00817190718F4AA
:1029700081E0888301C080E0DF91CF911F910F91AA
:10298000FF90EF900895282F81E090E03AE02150E9
:1029900038F0AC01349FC001359F900D1124F7CF62
:1029A0000895009719F024F081E0089580E00895DB
:1029B0008FEF089530E120E080FD2F5F9695879599
:1029C0003150D1F7822F0895CF92DF92EF92FF928C
:1029D000CF9397FF08C090958095709561957F4F34
:1029E0008F4F9F4F07C0611571058105910511F04B
:1029F000C0E001C0C1E05AE0C52ED12CE12CF12C81
:102A0000611571058105910541F0CF5FA701960120
:102A10000E94E13BCA01B901F3CF8C2FCF91FF9007
:102A2000EF90DF90CF900895BC0180E090E00C948F
:102A3000E414CF92DF92EF92FF920F931F93CF9304
:102A4000DF93EC017B016A01E881F981CF01B801D4
:102A50000E94AB3B009731F01E141F049CF4081B2E
:102A6000190B03C01E141F0474F4C901801B910BC1
:102A7000E817F90718F40E0F1F1F01C08901198309
:102A800008830DC08C01C8018C0D9D1D8E179F07FA
:102A900018F4E01BF10B01C0F601F983E883DF9124
:102AA000CF911F910F91FF90EF90DF90CF900895FD
:102AB000AF92BF92CF92DF92EF92FF920F931F934C
:102AC000CF93DF93EC017B016A0159016881798121
:102AD00080E090E00E94E414823020F082500E9456
:102AE000C31402C081E090E08C019501A601B701FA
:102AF000CE010E941915DF91CF911F910F91FF9088
:102B0000EF90DF90CF90BF90AF9008952FEF3FEF01
:102B100040E050E00C9458150E94C3358111FCCF61
:102B20000E94C3358823E1F3089520915B0330911F
:102B30005C0395E0929FF001939FF00D1124E80F44
:102B4000F11DEE0FFF1FE955FE4F859194910895F9
:102B50001F93CF93DF93182FC0915F03D091600331
:102B60000E9495159C01123061F480915B03909155
:102B70005C03029731F4C730D10518F0219720EBA0
:102B800034E02C9FC0012D9F900D3C9F900D11248F
:102B9000DF91CF911F9108951F93CF93DF93182F4B
:102BA000C0915F03D09160030E949515113029F404
:102BB00080916503909166030DC0123029F48091D5
:102BC00067039091680306C0133021F48091790364
:102BD00090917A039C012C9FC0012D9F900D3C9FEA
:102BE000900D1124DF91CF911F910895E0915B0327
:102BF000F0915C03E15EFD4F84910895CF93DF93E4
:102C000000D000D0CDB7DEB7A0915D03B0915E03D8
:102C100020917703309178030E94063C24E630E04F
:102C200040E050E00E94BF3B293E8DEF3807410550
:102C3000510550F429833A834B835C830E94F61537
:102C400029813A81853021F428EE3DEF40E050E0C3
:102C5000C9010F900F900F900F90DF91CF910895C1
:102C600020917B0330917C0380915F0390916003FE
:102C7000AC01249FC001259F900D349F900D11241D
:102C8000089582E00E94A815BC0180E29EE40E94A3
:102C9000851820914703309148032817390708F415
:102CA000C901089582E00E94A815BC0184EC99E056
:102CB0000E94851820914B0330914C032817390747
:102CC00008F4C901089580915B0390915C030A9711
:102CD000029750F081E00E949515BC0188E799E6C3
:102CE0000E94AB3BCB01089581E090E00895809174
:102CF0005D0390915E038436910530F484E690E0A4
:102D000090935E0380935D0380915D0390915E03D9
:102D1000893E9D4F30F088EE9DEF90935E03809347
:102D20005D0380916D0390916E03893E934030F076
:102D300088EE93E090936E0380936D030E94631678
:102D400020915F03309160038217930720F49093E2
:102D5000600380935F0380915F0390916003892BF0
:102D600031F481E090E09093600380935F030E94D0
:102D7000411620916103309162038217930720F47A
:102D80009093620380936103809161039091620349
:102D90002091690330916A038217930720F490937E
:102DA0006A03809369030E94521620916303309155
:102DB00064038217930720F4909364038093630362
:102DC000209163033091640380916B0390916C03B5
:102DD0002817390720F430936C0320936B038091FC
:102DE0004503909146034091610350916203481757
:102DF000590720F490936203809361034091690323
:102E000050916A034817590720F490936A038093FE
:102E100069038091490390914A032817390720F4E8
:102E2000909364038093630320916B0330916C0350
:102E30002817390720F490936C0380936B0308954F
:102E400098E2899FB001112468567F4F48E250E014
:102E50008BE593E00E94393C0C94771698E2899FA9
:102E6000B001112468567F4F48E250E08BE593E0B3
:102E70000E94573C81E00C9495120E947716809135
:102E80006103909162036AE070E00E94AB3B709333
:102E90006A036093690308950E9477168091630323
:102EA000909164036AE070E00E94AB3B70936C0306
:102EB00060936B0308950E94771680915D03909153
:102EC0005E03909362038093610320915B033091D2
:102ED0005C032330310541F4969587959695879547
:102EE00090936203809361030E943D1780915D037C
:102EF00090915E0390936403809363030C944C174A
:102F000081E00E949515909366038093650382E0AB
:102F10000E949515909368038093670380915B03EB
:102F200090915C03892B61F580ED97E090935E03AF
:102F300080935D0383E090E09093600380935F0350
:102F400088EE93E090936E0380936D03109270036C
:102F500010926F0380E797E190937203809371035F
:102F600010927403109273038EE190E090937603B5
:102F70008093750388E790E09093780380937703BC
:102F80000E94F615811128C081E090E090937A03A9
:102F90008093790380915B0390915C03029719F40D
:102FA0008BEF9FEF02C081EF9FEF90937C038093A4
:102FB0007B0383E090E090937E0380937D0384E61F
:102FC00090E09093800380937F0385E090E090935E
:102FD0008203809381030DC088E090E090937C038E
:102FE00080937B0383E00E94951590937A038093EE
:102FF00079030C945B17CF9310925C0310925B03E0
:103000000E948017C0E08C2F0E942E17CF5FC43122
:10301000D1F781E0CF910C949512CF93C82F0E94E5
:10302000201720915B0330915C03232B21F00E9439
:1030300092320E94F73620915B0330915C032A3074
:10304000310571F02B30310569F0232BC1F48C2F41
:1030500090E001960E9497368AE3CF910C946E36E9
:1030600089E00AC065E080916103909162030E944B
:10307000C6380E94F73684E0CF910C94543267E052
:1030800080915D0390915E030E94C3388FE20E949D
:103090006E3680915F0390916003CF910C949736C8
:1030A00080917503909176030E942F1E8BE592E02C
:1030B0009093AE038093AD030C94351CCF93C62F31
:1030C00091E09093AC0380938303809183038C13EE
:1030D00002C01092AC0380FF02C080E001C083E018
:1030E0000E94BB13813079F49091AC03992359F07D
:1030F000809183038F5F809383030E94B7130E94A4
:103100005018813011F3CF910895AB019C01A8EEC6
:10311000B3E00E94063C9A0140E050E00E94BF3BB1
:10312000A8EEB3E00E941C3C24E630E040E050E012
:103130000E94BF3B2115310581E04807510520F071
:103140002FEF3FEF40E050E0C90108958091A203C6
:103150009091A303892B99F40E94DB0B882381F0C3
:103160000E94DE0B2091840330918503821B930B18
:103170009C0181E02330310518F080E0089581E062
:103180000895815E0C94C60BDF92EF92FF920F932D
:103190001F93CF93DF93C0E0D0E00FEF1FEFDD244C
:1031A000DA94EE24E394F12C97018C2F0C2E02C0BC
:1031B000220F331F0A94E2F74091290350912A030A
:1031C00024233523232B39F00E94C118801791073F
:1031D00010F4DC2E8C012196C630D10529F78D2DF7
:1031E000DF91CF911F910F91FF90EF90DF900895A5
:1031F000CF93DF932091A2033091A303232B21F4DB
:10320000DF91CF910C94C11890918803C82FD0E022
:10321000992391F00E94C118CC0FDD1FFE01E757E2
:10322000FC4FCB56DC4F2081318148815981241BD2
:10323000350B280F391F07C0FE01EE0FFF1FE757A0
:10324000FC4F20813181C901DF91CF910895CF9248
:10325000DF92EF92FF920F931F93CF93DF93C0E023
:10326000D0E0E12CF12C0FEF1FEFCC24C394D12C34
:10327000C6010C2E02C0880F991F0A94E2F7209114
:10328000290330912A0382239323892B59F08C2F11
:103290000E94F818E816F90608F47C0180179107D7
:1032A00008F48C012196C630D10511F7E01AF10A15
:1032B00081E020917B0330917C032E153F0508F0BF
:1032C00080E0DF91CF911F910F91FF90EF90DF9001
:1032D000CF900895CF93DF93EC018091A20390915A
:1032E000A303892B41F0209731F40E94DE0B9093C9
:1032F000850380938403D093A303C093A2030E9409
:10330000F10C8091A103811105C08C2FDF91CF9129
:103310000C94F906DF91CF910895FF920F931F93BC
:10332000CF93DF9381E00E94330705E913E0C9E8FA
:10333000D3E0F12C8F2D0E94C118F8018193919355
:103340008F0189939993F394F6E0FF12F3CF1092D3
:10335000A3031092A2031092A10380E090E00E94C8
:103360006A1910928503109284038FEF8093A4034F
:10337000DF91CF911F910F91FF90089580E090E031
:103380000E946A1981E08093A10308950E94BE19EA
:1033900080E00C943307DF92EF92FF920F931F931C
:1033A000CF93DF938091A40387FD20C00E94F8187B
:1033B0007C01D12C01E010E0C0E0D0E02091290395
:1033C00030912A0320233123232B41F08D2D0E949D
:1033D000F818E816F90610F4C02BD12B000F111FB6
:1033E000D39486E0D812EACFCE0102C080E090E00C
:1033F000DF91CF911F910F91FF90EF90DF90089593
:10340000EF92FF920F931F93CF93DF938C01C0E055
:10341000D0E0EE24E394F12C97010C2E02C0220F91
:10342000331F0A94E2F78091290390912A032823FD
:103430003923232B31F42196C630D10569F781E079
:1034400008C08C2F815E0E94F00B8017910798F7BF
:1034500080E0DF91CF911F910F91FF90EF90089541
:103460007F928F929F92AF92BF92CF92DF92EF9214
:10347000FF920F931F93CF93DF9386E090E00E941B
:10348000001A882309F478C00E948F0C882309F45D
:1034900073C08091A40387FF04C00E94C418809366
:1034A000A4038091A4030E94C1186C01A09067033B
:1034B000B090680369E8E62E63E0F62E05E913E0B4
:1034C000C0E0D0E07724739488248394912CC401C5
:1034D0000C2E02C0880F991F0A94E2F7209129034D
:1034E00030912A0382239323892B81F08C2F0E9411
:1034F000C1188A159B05A0F0C816D90608F4712CCE
:10350000F70191838083F801918380832196F2E013
:10351000EF0EF11C0E5F1F4FC630D105C1F602C081
:1035200077247394109288030E94853590938703C3
:1035300080938603772079F0DF91CF911F910F91CF
:10354000FF90EF90DF90CF90BF90AF909F908F90C3
:103550007F900C94BE190E94CB19DF91CF911F91DF
:103560000F91FF90EF90DF90CF90BF90AF909F9022
:103570008F907F900C946A19DF91CF911F910F91DA
:10358000FF90EF90DF90CF90BF90AF909F908F9083
:103590007F9008951F93CF93DF93809188038111CB
:1035A0000EC081E080938803C5E9D3E010E0812F4D
:1035B0000E94C118899399931F5F1630C1F7DF915C
:1035C000CF911F9108950E948535209186033091F7
:1035D0008703821B930B08958091A2039091A3030C
:1035E000892B19F40E94301A0AC00E94CA1A0E943C
:1035F000E31A409720F080E090E00E946A190E9450
:10360000A618882311F082E008958091A1038823F1
:10361000D1F381E00895EF92FF920F931F93CF9320
:10362000DF938C01C0E0D0E0EE24E394F12C97010D
:103630000C2E02C0220F331F0A94E2F78091290357
:1036400090912A0328233923232B31F42196C63065
:10365000D10569F780E007C08C2F0E94F818801709
:103660009107A0F381E0DF91CF911F910F91FF901F
:10367000EF900895EF92FF920F931F93CF93DF93F4
:103680008C01C0E0D0E0EE24E394F12C97010C2EE5
:1036900002C0220F331F0A94E2F780912903909110
:1036A0002A0328233923232B31F42196C630D10550
:1036B00069F780E007C08C2F0E94F81808171907D7
:1036C000A0F381E0DF91CF911F910F91FF90EF90D8
:1036D0000895CF93DF93EC010E94700C882339F09A
:1036E000682F70E0CE010E94AB3BCB0102C080E0AE
:1036F00090E0DF91CF9108950E942B2481E00E94F9
:1037000028218091A6039091A7030C94F6230C9492
:1037100042240E948F0C882321F00E94CF230C9416
:10372000DD2108950E94891B0E94800C2091AA032C
:103730003091AB032817390740F481EE99E090935C
:1037400038038093370380E008958091A803909117
:10375000A9030E94F62382E00895CF93DF931F927E
:10376000CDB7DEB769830E94CC159093AB038093ED
:10377000AA036981662369F08091610390916203D5
:103780009093A9038093A8038091690390916A03A1
:103790000CC080916303909164039093A90380937C
:1037A000A80380916B0390916C039093A70380937F
:1037B000A6030F90DF91CF9108958091AD03909172
:1037C000AE030C948E148091AD039091AE030296DB
:1037D0000C948E140E94E31B0E94A81F0C946A365E
:1037E000CF93DF930E948535EC010E9485358C1BB9
:1037F0009D0B853B910510F00E94210D0E94C33561
:10380000882399F3DF91CF910C944E340E94EA1BE8
:103810000E94203085E00E9459340C94F01B0E94D5
:10382000EA1B0E94210D0E94243086E00E94593438
:103830000C94F01BE091AD03F091AE0334968591AA
:103840009491FC010994811103C00E940F1C0BC0CC
:10385000813039F48091AC03811105C00E94061CAF
:1038600002C081E0089580E008950F931F93CF93E5
:10387000DF9310926A040E94DD1B02E0C0E0D0E0FA
:1038800011E00E94C33580936A040E9449301123DD
:1038900079F00E94E81F082F0E94231C182F88230C
:1038A00039F00E94DE0BC817D90771F4111107C057
:1038B0008091AC03882311F0011110C010E08091B9
:1038C0006A048130F1F60AC00E94DE0BEC010E940E
:1038D0001A1C082F0E94231C182FE8CF0E94E31BFC
:1038E000802FDF91CF911F910F9108950E944E1D5F
:1038F0000C94C6190E943B1D0E948D1921E08091F5
:10390000730390917403892B09F420E02093AF0393
:1039100080E00C9428211F93CF93DF93C091AA03DA
:10392000D091AB03CE010E94691B0E943A1B182F55
:103930000E94A618811109C0111107C00E94800CB5
:1039400011E0C817D90708F410E0812FDF91CF915B
:103950001F9108951F93CF93DF930E948B1C182F04
:103960000E94DD1CEC018091AF03882329F0BE0189
:10397000812F0E948C2101C0812F811108C0BE01BE
:10398000812F0E94ED220E941C1D82E001C081E077
:10399000DF91CF911F9108958091B403089581E044
:1039A0002091B2033091B303232B09F480E00895F2
:1039B0008091B2039091B30308958091B0039091E8
:1039C000B1030895CF93DF931F92CDB7DEB7409137
:1039D000410350914203BA017250CE0101960E94F8
:1039E000A3148981811114C00E94850C009711F4E1
:1039F00081E090E0BC0184EC99E00E948518209160
:103A00004B0330914C032817390720F4C90102C039
:103A100080E090E00F90DF91CF910895813020E811
:103A2000920710F080E090E89093B3038093B20384
:103A30000E94F5060C94FA0CCF93DF93EC010E94E0
:103A4000E21CBC01C817D90708F4BE018091B0037D
:103A50009091B1038617970759F07093B103609363
:103A6000B00380E10E94AF0DDF91CF910C940E1D49
:103A7000DF91CF9108958091B40381110EC080E051
:103A800090E00E940E1D1092B1031092B00381E0ED
:103A90000E94E10681E08093B40308958091B4030D
:103AA000882369F080E090E00E940E1D1092B1031F
:103AB0001092B00380E00E94E1061092B4030895D2
:103AC00081E08093B4030C944E1D87E080936C04D6
:103AD00082E080936D040E94523483E08093B503AA
:103AE00008958FEF80936C040C944E34EF92FF9204
:103AF0000F931F93CF93DF9382E10E942A0E2091B0
:103B00005B0330915C032A5031092230310518F0F3
:103B100011E0182701C010E00E94700CE82E80917F
:103B2000A503882371F080915F03FF24F3948E1125
:103B300001C0F12C01E0E11000E0813021F400230C
:103B400011F000E0F12C0E94760C8823A9F083E1AB
:103B50000E94C60BEC0182E10E94C60BC817D90770
:103B600028F49C012C1B3D0BE90102C0C81BD90B9A
:103B7000C53FD14008F011E0F11002C087E001C05C
:103B800083E080936C04002329F080916C048250C0
:103B900080936C04112329F080916C0481508093F0
:103BA0006C04F11004C0011102C0112331F081E056
:103BB0000E945934011106C003C00E944E3404C053
:103BC000FF2011F0E11002C0C0E001C0C1E00E947E
:103BD000B935811102C01092B503C11106C011118F
:103BE00004C00E94B935883041F08091B50382301D
:103BF00011F481E008C082E006C08091B5038F5FB8
:103C00008093B503F2CFDF91CF911F910F91FF9079
:103C1000EF9008951092BA0308950E94853590930D
:103C2000B9038093B80308950E9485352091B803A5
:103C30003091B903821B930B2091B6033091B703E7
:103C40002817390728F081E08093BA0382E00895AD
:103C50001092BA0381E008958091BA0308952CE38D
:103C6000AC01249FC001259F900D11249093B703B0
:103C70008093B60308950E948D190E942B2481E041
:103C80000C9428210E9442240C94C6191F93CF93B0
:103C9000DF93C091AA03D091AB03CE010E94691BB0
:103CA0000E940B1B182F0E94A618811109C0111128
:103CB00007C00E94800C11E08C179D0708F410E0EB
:103CC000812FDF91CF911F9108951F93CF93DF93A1
:103CD0000E94461E182F0E94CF23EC01BC01812FA9
:103CE0000E948C21811108C0BE01812F0E94ED220B
:103CF0000E94F62382E001C081E0DF91CF911F9105
:103D000008958091C7039091C8032091CA0322238C
:103D100041F00E9485352091C7033091C803821B72
:103D2000930B08956091C3037091C4038091C50300
:103D30009091C60328EE33E040E050E00E94BF3B84
:103D4000C90108956091BF037091C0038091C103C0
:103D50009091C20328EE33E040E050E00E94BF3B68
:103D6000C90108950F931F93CF93DF9381E00E94C1
:103D7000CC158C0184E00E94CC15EC0184E10E94FA
:103D8000C60B80179107B8F4C817D907B0F49C0187
:103D90002C1B3D0BC8018C1B9D0B64E670E00E9440
:103DA000AB3BC9010E94AB3B6436710510F063E682
:103DB00070E0862F03C083E601C080E0DF91CF91E1
:103DC0001F910F910895CF93DF930E94B21E90919F
:103DD000C9039817E0F48093C9030E94811E2091C3
:103DE000CC033091CD03EC01C21BD30B0E94811E8A
:103DF0009093CD038093CC038091CE039091CF0319
:103E00008C179D0720F4D093CF03C093CE03DF918E
:103E1000CF9108950E94E31E8091CB03882311F077
:103E200089E601C084E690E02091C903821B9109D4
:103E30002091CE033091CF03AC01429FC001439F3C
:103E4000900D529F900D1124089520913D033091C3
:103E50003E032130310511F481E026C021153105E2
:103E600011F480E021C02430310529F48091CA0387
:103E700081110AC0F6CF2230310519F48091CA03AE
:103E800013C02330310581F485E00E94C60B2091D8
:103E90003F0330914003A90152508417950708F35E
:103EA00028173907C8F208950C94D5060E94B21E4F
:103EB0008093C9031092CD031092CC031092CF03CC
:103EC0001092CE031092C3031092C4031092C50344
:103ED0001092C6031092BF031092C0031092C10348
:103EE0001092C203089560E971E080E00E94AF0D76
:103EF0009093BE038093BD0381E00E94CC15BC016A
:103F00006854744F693729E6720710F068E779E65C
:103F100080E00E94AF0D813C2FEF920710F080EC03
:103F20009FEF9093BC038093BB030E94760C809319
:103F3000CB030E9485359093C8038093C7030E94EA
:103F4000561F1092D00381E08093CA030C94F90BA2
:103F50000E94811E9093C8038093C7031092CA03E6
:103F600008950E94C12381111DC00E94CF1C8111A0
:103F700019C00E94A618882351F18091C303909123
:103F8000C403A091C503B091C60380599F4FAF4FA2
:103F9000BF4F8093C3039093C403A093C503B09312
:103FA000C60308958091BF039091C003A091C103FF
:103FB000B091C20380599F4FAF4FBF4F8093BF0353
:103FC0009093C003A093C103B093C203D2CF0895CE
:103FD000CF93DF938091CA03811102C082E099C020
:103FE00085E00E94C60B20914103309142033E5F61
:103FF0002817390718F48AE99CE01BC080E00E946A
:10400000CF0B2091BB033091BC038217930778F448
:104010002091BD033091BE038217930720F40E94C4
:10402000CC1C811104C08091D003813041F48AEA14
:104030009CE0909338038093370380E06AC0C0917E
:10404000CB030E94760CC81719F08BE89CE0F1CFE7
:10405000C091A803D091A903C851DC4F0E948A0CDB
:10406000C817D90718F480E89CE0E3CF86E00E94E7
:10407000C60B20914D0330914E038217930718F41D
:1040800081E79CE0D6CF89E10E94C60BEC010E943B
:10409000FE15883E2DEF920731F0C817D90718F0AA
:1040A00081E69CE01BC0C0916D03D0916E03C83EB9
:1040B00083E0D807C8F46091BF037091C00380917A
:1040C000C1039091C20320E63AEE40E050E00E9426
:1040D000BF3B2C173D0740F086E59CE090933803EA
:1040E0008093370381E015C080916F039091700336
:1040F000892B09F473CF87E00E94C60B20917103CE
:10410000309172032817390708F068CF86E49CE0E5
:1041100090CFDF91CF9108950E94421E0E94761C9D
:104120000C94C619CF93DF931F92CDB7DEB7809161
:10413000D103882329F0813031F40E94AA1C0CC0DD
:104140000E94651E09C00E94EC1A823089F08983A2
:104150000E948C2089810CC0813051F49091A5037C
:10416000992331F082E08093D1030E948D1982E07F
:104170000F90DF91CF910895CF93DF930E948D1917
:1041800061E083E00E94AD1BC091AA03D091AB0314
:104190000E94700C811106C00E94800CC817D907BC
:1041A00040F40CC0CE010E94691B0E943A1B882378
:1041B00029F00E943B1E1092D1030BC060E083E007
:1041C0000E94AD1B0E947A1C81E08093AF03809314
:1041D000D103DF91CF9108958091D203813029F4EA
:1041E0008091A6039091A703089580E090E0089540
:1041F0002CE0829FC001112482529C4F0C946924B0
:1042000086E294E00C946924CF93DF9300D000D031
:10421000CDB7DEB782E10E94C60B9A83898384E121
:104220000E94C60B29813A81281B390B3A832983C6
:1042300087E10E94C60B9C838B83CE0101960E946E
:1042400069240F900F900F900F90DF91CF910895F8
:10425000AF92BF92CF92DF92EF92FF920F931F9394
:10426000CF93DF93182F81E08093D2030E94800CBC
:10427000BC012091A6033091A7034091AA0350915D
:10428000AB03012F8EE194E00E9484248091AA0365
:104290009091AB030E94691B6C0186EDE82E83E0D0
:1042A000F82EC0E0D0E0AA24A394B12C95010C2EE6
:1042B00002C0220F331F0A94E2F7809129039091E4
:1042C0002A0328233923232B69F08C2F0E94F81806
:1042D000BC012091A6033091A703012FA601C701BD
:1042E0000E94842421968CE0E80EF11CC630D10592
:1042F000E9F610922C041092D50310922B04109220
:104300002A04DF91CF911F910F91FF90EF90DF90E2
:10431000CF90BF90AF9008951F93CF93DF93182F46
:10432000EB018091A503882361F1112349F080916D
:104330002C04811105C00E94BE1981E080932C04D9
:1043400080912C04882311F08530D9F42091A603A4
:104350003091A703203A310510F420EA30E02C1701
:104360003D0710F41092A1030E94EC1A8093D2032F
:104370008130F1F40E942719882319F08FEF809380
:10438000A4030E94EC208C179D0780F0112371F08C
:1043900080912C04853051F49091D50381E0890FF0
:1043A0008093D50381E09A3020F402C01092D503A7
:1043B00080E0DF91CF911F910895CF92DF92EF922D
:1043C000FF920F931F93CF93DF937C010E94800C89
:1043D000A701BC018EE194E00E943D2506ED13E0AB
:1043E000C0E0D0E0CC24C394D12C96010C2E02C0A6
:1043F000220F331F0A94E2F78091290390912A0338
:1044000028233923232B41F08C2F0E94F818A70171
:10441000BC01C8010E943D252196045F1F4FC63094
:10442000D10519F7DF91CF911F910F91FF90EF9078
:10443000DF90CF900895AF92BF92CF92DF92EF922C
:10444000FF920F931F93CF93DF936091AA03709114
:10445000AB038EE194E00E94A9247C018091AA0321
:104460009091AB030E94691B6C0106ED13E0C0E064
:10447000D0E0AA24A394B12C95010C2E02C0220FE7
:10448000331F0A94E2F78091290390912A0328238D
:104490003923232B61F0B601C8010E94A924E81634
:1044A000F90628F0B601C8010E94A9247C012196D2
:1044B000045F1F4FC630D105F9F6C701DF91CF91D8
:1044C0001F910F91FF90EF90DF90CF90BF90AF9032
:1044D00008950F931F93CF93DF93EB012091A803CF
:1044E0003091A9038C012817390708F489010E942B
:1044F000EC209C018017910708F49801C217D3079C
:10450000E1F040912C044530D1F42C173D07B8F070
:1045100082179307A0F48091A6039091A7038C17AC
:104520009D0758F04091D3035091D40380918403A8
:10453000909185034817590711F4CE0109C0809165
:104540008403909185039093D4038093D303C9018E
:10455000DF91CF911F910F910895CF92DF92EF924B
:10456000FF920F931F93CF93DF937C010E94800CE7
:1045700090931F0480931E04F0922104E092200483
:1045800006ED13E0C0E0D0E0CC24C394D12C96011A
:104590000C2E02C0220F331F0A94E2F780912903E8
:1045A00090912A0328233923232B41F08C2F0E943A
:1045B000F818F80191838083F382E2822196045FE8
:1045C0001F4FC630D10519F7DF91CF911F910F9181
:1045D000FF90EF90DF90CF9008951F93CF93DF93DC
:1045E000182FEB010E948F0C811108C01123E1F1FB
:1045F00020912A0430912B04232BB1F10E94A6189C
:10460000811132C0CE010E94DD21CE010E94AD2277
:104610000E941B228C179D0708F048C09C012C0F9C
:104620003D1F3695279530932B0420932A04BE0115
:1046300080912A0490912B040E94692290932B046C
:1046400080932A0490912C04923009F1A8F49923C4
:10465000C1F0913039F5112339F083E080932C04B7
:1046600010922B0410922A0480912A0490912B041A
:10467000DF91CF911F910895933061F0943081F0D4
:1046800011C0112389F30E94BE1981E00CC0109261
:104690002C04EACF10922B0410922A0484E003C069
:1046A000112311F385E080932C04DECF90932B042B
:1046B00080932A04BCCF0C947C1BCF93DF930E9481
:1046C000891B0E94800CEC0182E00E94CC158C17A3
:1046D0009D0730F48091A8039091A9030E94F623CE
:1046E0008091AA039091AB038C179D0718F481EE7B
:1046F00099E03AC00E94E80B0297E0F180916F03C5
:1047000090917003892B69F08DE10E94C60B209176
:104710007F0330918003281739071CF487ED99E057
:1047200023C00E94E80B20917D0330917E03220F6D
:10473000331FC1E08217930708F4C0E08C2F0E945A
:10474000ED0BCC23B9F08091790390917A03892BFA
:1047500089F08BE10E94C60BEC010E943016C8174D
:10476000D90744F48DED99E0909338038093370393
:1047700081E001C082E0DF91CF9108958091310402
:10478000089581E020912F0430913004232B09F407
:1047900080E0089580912F049091300408958091D5
:1047A0002D0490912E0408950E94850C009711F419
:1047B00081E090E0BC0180E29EE40E948518209197
:1047C0004703309148032817390708F4C9010895B1
:1047D000813020E8920710F080E090E89093300458
:1047E00080932F040E94F1060C94FA0CCF93DF9370
:1047F000EC010E94D423BC01C817D90708F4BE01FC
:1048000080912D0490912E046817790750F49C0133
:10481000261B370B2D38310568F0BC016C58710927
:1048200009C09B01281B390B2D38310518F0BC013C
:1048300064577F4F8617970759F070932E04609343
:104840002D048FE00E94AF0DDF91CF910C94E823EF
:10485000DF91CF91089580913104811112C010929F
:10486000300410922F0410922E0410922D0480E038
:1048700090E00E94E82381E00E94DB0681E08093C3
:104880003104089580913104882389F080E090E01C
:104890000E94E8231092300410922F0410922E04EC
:1048A00010922D0480E00E94DB06109231040895DE
:1048B0001092300410922F0410922E0410922D04A6
:1048C00080E090E00E94E82381E0809331040C9422
:1048D0004224FC01428153814115510591F0A08190
:1048E000B181B7FF03C0B195A195B10928EE33E0BE
:1048F0000E94153C9A0140E050E00E94BF3BC90174
:10490000089580E090E008950F93FC01CB0100230F
:1049100041F04617570708F4CA016417750748F4B1
:1049200007C06417750708F4CA014617570708F44B
:10493000BA019783868391838083138212821582C2
:10494000148233872287681B790B718760870F91E8
:104950000895FC0186819781A285B3850084F18545
:10496000E02D3097D1F09B0140E050E0281B390B3F
:10497000410951090E941C3C9F01442737FD409585
:10498000542F0E94E13B2115310581E04807510574
:1049900024F457FD05C0C90108958FEF9FEF0895D6
:1049A00080E090E00895DF92EF92FF920F931F93C3
:1049B000CF93DF93EC012A813B812417350720F444
:1049C000FA01E21BF30B03C0F901E41BF50B8C8128
:1049D0009D81969587958E179F0710F5E880F98041
:1049E0002417350740F48A01021B130BCB018E19E3
:1049F0009F097C0105C0E61AF70A8901041B150B03
:104A0000C7010E94D114D82E888599850E94D1149F
:104A1000D81206C01D830C83F986E8861B870A8797
:104A2000DF91CF911F910F91FF90EF90DF9008954C
:104A30000F931F93CF93DF93EC018B019A01A8850D
:104A4000B9850E94153C2A853B8540E050E00E94D4
:104A5000E13BC801A0E0B0E082179307A407B507C7
:104A60001CF41F821E8204C0021B130B1F830E83C3
:104A7000DF91CF911F910F910895EF92FF920F93C5
:104A80001F93CF93DF93EC018B017A010E94D32413
:104A9000A701B801CE01DF91CF911F910F91FF9037
:104AA000EF900C941825CF93DF9300D000D0CDB7B2
:104AB000DEB7462FFC016781CE0101960E94FD0BF7
:104AC00067E08B819C810E94C6380F900F900F90F9
:104AD0000F90DF91CF9108950F931F93CF93DF93A2
:104AE00000D000D0CDB7DEB780E00E94BD0B9A8326
:104AF000898381E00E94BD0B29813A81281B390BF3
:104B00003A83298383E10E94C60B9C838B8302E353
:104B100014E0AE014F5F5F4FF801608180E00E94BA
:104B20001A0CAE014F5F5F4FF801608181E00E9477
:104B30001A0C0F900F900F900F90DF91CF911F9153
:104B40000F910895CF93DF93D82F6BEB79E08FEC23
:104B500099E00E94F52FC0E082E10E942A0E88238E
:104B6000B1F00E94700C91E0811101C090E0D91762
:104B7000A1F0C1110CC06DEA79E0DD2319F08FECD2
:104B800099E002C084EC99E00E94F52FC1E00E94F8
:104B9000C335813009F780E001C081E0DF91CF911A
:104BA0000895CF93DF9300D000D0CDB7DEB7862F26
:104BB0005A8349833C832B83AE014F5F5F4F6091E3
:104BC00032040E941A0C0F900F900F900F90DF91FB
:104BD000CF910895FF920F931F93CF93DF93F82EF9
:104BE000162F042F83E00E945934812F0E94C60B98
:104BF000EC010E94FF39802F0E94BD0BAC019E0189
:104C0000602F812F0E94D125FF2049F081E0809301
:104C10002D030E940A0D0E94FF390E946C2581E03D
:104C2000DF91CF911F910F91FF900C948E12AF9254
:104C3000BF92CF92DF92EF92FF920F931F93CF9389
:104C4000DF93CDB7DEB762970FB6F894DEBF0FBE25
:104C5000CDBF8C017B016A0160E070E0CE0101965E
:104C60002A8B0E94552E8FEF8A878DE990E09A83D8
:104C700089831D870C878FEF9FE79F878E87198A0F
:104C8000188A2A89211109C08091570390915803ED
:104C9000019719F06BEF7FE702C06FEF7FE7CE015E
:104CA00001960E94312A61E0CE0101960E94F72B05
:104CB000082F87FD38C0682FCE0101960E941F2A59
:104CC000B82E80FDF0CF81FF29C0112707FD109578
:104CD000F701E00FF11FA4908A2D0E942A0E88236D
:104CE00011F30E940A0D10922D0310926000CE0164
:104CF00001960E94FB2A882359F0F601E00FF11F6C
:104D000044916A2D8B2D881F8827881F0E94EA25D1
:104D100081E080932D0380936000C5CFCE01019682
:104D20000E94FB2AC0CF62960FB6F894DEBF0FBE7A
:104D3000CDBFDF91CF911F910F91FF90EF90DF904A
:104D4000CF90BF90AF90089581E090E090933304AE
:104D5000809332040E94D41381E00E94630F81E0AB
:104D60000E94A225882349F020E049EB53E060EC43
:104D700073E08FE193E00E9417260C94210D81E0EF
:104D800090E090933304809332040E94D41380E027
:104D90000E94630F1092620020E045EE52E0BA01DB
:104DA00087EE92E00E94172681E0809362000C94C7
:104DB000210D8F3019F4CB010C94E823CB010C9416
:104DC0000E1DCF92DF92FF920F931F93CF93DF932D
:104DD0001F92CDB7DEB76C01F62E49830E94BC3519
:104DE0004981443019F06FEF7FEF02C061E070E05D
:104DF000082F10E0F601F11016C02089318941E03A
:104E000050E0C6010E960E941915F6016685778559
:104E100083850F90DF91CF911F910F91FF90DF90CD
:104E2000CF900C94D9262489358941E050E0C60101
:104E300042960E9419150F90DF91CF911F910F910B
:104E4000FF90DF90CF900895CF92DF92EF92FF9284
:104E50000F931F93CF93DF93CDB7DEB76E970FB647
:104E6000F894DEBF0FBECDBFC82ED62E0E94D4133D
:104E700081E00E94630F80E00E94A225882309F44C
:104E800090C0CC2049F00E942B2422E0E22E3FE08B
:104E9000F32E00E117E208C00E943B1D83E0E82EDC
:104EA00090E1F92E08E813E14D2D6F2DCE014B96C0
:104EB0000E94FD0B4D2D6E2DCE0147960E94FD0BDD
:104EC00067EC73E0CE0101960E94552E8FEF8A8722
:104ED0008FE890E09A838983FC86ED86DE8680E009
:104EE00090E89A8B898B1E8B0D8B8D8D9E8D9C8B64
:104EF0008B8B10E02B8D3C8D388B2F8761E0CE01A2
:104F000001960E94F72B87FD32C0811123C06F8567
:104F100078898F2D0E94D926CE0101960E94FB2A06
:104F2000882391F00E940A0D2B893C893E8F2D8F9A
:104F3000EF85F889FC8FEB8F3A8F298F8E2D0E9499
:104F4000BD0B988F8F8B11E060E070E08F2D0E9479
:104F5000D926D0CF823071F6CE0101960E94FB2A6D
:104F60008111C8CF2D8D3E8D3C8B2B8BC3CFCC2098
:104F700019F00E94422402C00E944E1D112389F0A4
:104F8000AE01455E5F4F6D2D8F2D0E941A0CAE0154
:104F9000495E5F4F6D2D8E2D0E941A0C81E00E949C
:104FA0008E120E94210D6E960FB6F894DEBF0FBED2
:104FB000CDBFDF91CF911F910F91FF90EF90DF90C8
:104FC000CF9008950F931F93CF93DF93CDB7DEB7A4
:104FD00028970FB6F894DEBF0FBECDBF182F8823D9
:104FE00011F00FE001C000E162E0CE0101960E94E5
:104FF0004B2B27E930E03A832983088760E0CE0114
:1050000001960E94F72B87FD05C0682F812F0E9413
:105010002427F4CF28960FB6F894DEBF0FBECDBF7D
:10502000DF91CF911F910F91089510923304109248
:1050300032040E94F53981E090E0909370038093F0
:105040006F0380E00E94630F21E044E752E0BA0161
:105050008DEA92E00E9417260E94210D0C94E539FA
:10506000109233041092320480E00E94630F21E01A
:1050700043E752E0BA0185E792E00E9417260C94BC
:10508000210DCF93DF93CDB7DEB72A970FB6F894F3
:10509000DEBF0FBECDBF6FEC73E0CE0101960E9464
:1050A000552E60E0CE0101960E94F72B87FD28C0A7
:1050B0001092700310926F038A870E94E5398A85E7
:1050C000823091F034F4882361F08130B1F481E0D2
:1050D0000CC0843081F064F0853079F40E94BF26E2
:1050E0000CC00E94A42609C080E00E94E22705C0EF
:1050F0000E94152802C00E9430280E94F539D1CFA5
:10510000109239032A960FB6F894DEBF0FBECDBFBA
:10511000DF91CF910895BF92CF92DF92EF92FF92ED
:105120000F931F93CF93DF93B82E7B016A01BA01CF
:105130000E94AF0DEC01B7018B2D0E94AF0D8C01C9
:10514000B6016E0D7F1D769567958B2D0E94AF0D74
:1051500001151105C9F00F3F2FEF1207B9F0209785
:10516000B9F0CF3F2FEFD207A9F00C171D07A0F41D
:105170009C012A5031090217130780F40A968C17F4
:105180009D0770F087E00DC081E00BC082E009C090
:1051900083E007C084E005C085E003C086E001C06D
:1051A00080E0DF91CF911F910F91FF90EF90DF9002
:1051B000CF90BF900895409147035091480360916C
:1051C0004503709146038FE00E948B28882311F0DD
:1051D000865F0895409147035091480360914503CD
:1051E0007091460382E00C948B2840914B035091C0
:1051F0004C036091490370914A0380E10E948B281F
:10520000882311F0865F089540914B0350914C0321
:105210006091490370914A0383E00C948B28CF93EB
:105220000E942313C82F8823F9F048E759E668EE57
:1052300073E080E00E948B28882321F0682F85EAA4
:1052400099E00FC00E94DB28882321F0682F8CE9A9
:1052500099E007C00E94F528882331F0682F80E983
:1052600099E00E94AE30C0E08C2FCF9108950C944D
:105270000F291F93CF93DF93EC01162F82E10E9439
:105280002A0E81110EC06BEB79E08FEC99E00E9441
:10529000F52F8B858031C1F5DF91CF911F910C9453
:1052A0004E1D612FCE010E94502ECE0109960E9404
:1052B0003434882311F0298501C02FEF332727FDCF
:1052C0003095812F90E028173907F1F0112361F014
:1052D000113091F40E948A0C67E00E94C6388C85D8
:1052E0000E94BD0B66E003C069E08E859F85DF915B
:1052F000CF911F910C942F3868E08A899B89DF91A8
:10530000CF911F910C94C638DF91CF911F910895D2
:10531000CF93DF93DC011B96CD91DC911C9790E03D
:1053200080E0FE012EE0829FE00DF11D11243296F7
:10533000259134912115310599F01D964D915C917F
:105340001E9737FF03C057FF09C030582423352369
:10535000232B21F0662329F061509F5F8F5FE1CFFF
:10536000892FDF91CF910895EF92FF920F931F93B2
:10537000CF93DF93EC01F62E0E9488299EE0899F4F
:1053800080011124EB85FC85E00FF11F859194913C
:105390000E94B736E82ECE0109960E943434882345
:1053A00011F0298501C02FEF332727FD30956F2D90
:1053B00070E026173707E1F06FE06E19EB85FC858A
:1053C000E00FF11F3596F490FF2029F0862F8F19FA
:1053D0000E94F3366F2D8B859C85800F911F04965C
:1053E000DF91CF911F910F91FF90EF900C94B63306
:1053F000DF91CF911F910F91FF90EF900895CF9380
:10540000DF93EC010E9488292B853C859EE0899FD3
:10541000200D311D1124F901369645915491CA0190
:10542000F901349624912150223030F4FA0145914B
:10543000559165917491CB01DF91CF910895CF93F0
:10544000DF93EC010E948829EB85FC859EE0899F13
:10545000E00DF11D1124329685919491DF91CF9149
:105460000895FF920F931F93CF93DF93EC018B016D
:105470006A818B81680FCE010E948829F82E1E87D1
:105480000D876FEFCE010E9488298C8310E08C81FC
:10549000181760F4612FCE010E9488298F1104C073
:1054A0008A81181B1B8302C01F5FF1CFDF91CF9150
:1054B0001F910F91FF9008959F92AF92BF92CF924C
:1054C000DF92EF92FF920F931F93CF93DF93CDB7AD
:1054D000DEB72E970FB6F894DEBF0FBECDBF7C01AE
:1054E000D62E942E0E94FF298C016D2DC7010E949B
:1054F0008829D7011B966D917C911C97BEE08B9FEC
:10550000600D711D1124685F7F4F46E050E0CE01B1
:1055100007960E94273C86E0FE013796DE01119631
:1055200001900D928A95E1F7A981BA81CB80DC8048
:10553000AD80BE80E2E09E1619F061E070E002C02E
:105540006FEF7FEFAF3FFFE7BF0731F49501A60193
:10555000C8010E94581533C0AE3F8FE7B80721F449
:10556000CB01F60109952BC0AD3FFFE7BF0741F422
:105570006D877E870E94BC35A82FB0E07E856D8543
:105580006A9FC0016B9F900D7A9F900D1124D801E6
:105590002D913C911197820F931F8C159D051CF046
:1055A0008D939C9303C0F801D182C082D8018D9164
:1055B0009C911197A816B90614F4AD92BC92D7012C
:1055C0001F96ED91FC915097309719F0B801C701E3
:1055D00009952E960FB6F894DEBF0FBECDBFDF91B2
:1055E000CF911F910F91FF90EF90DF90CF90BF90E0
:1055F000AF909F900895EF92FF920F931F93CF93D8
:10560000DF93EC018B819A81890F89871A8681E06B
:105610008D8382E0E82EFF24F3948E01075F1F4FF5
:105620000E94C335482F823011F0843089F4E8811C
:10563000F9816B818A81680F0280F381E02DCE01B0
:1056400009958B819A81890F8987EA86FD8204C03A
:10565000813089F0883079F0C8010E943F3481118F
:10566000FD828D81882319F0CE010E94822B8A85CC
:105670008F5F8A87D5CF8FEF898781E08E838D8377
:10568000483009F080E0DF91CF911F910F91FF909A
:10569000EF9008950895FC0185EA90E0918380835E
:1056A00012821382648381E0858386830895FC01DE
:1056B0008481823010F022E001C0282F9281492F8E
:1056C00050E030E021503109421753071CF49F5F2E
:1056D000928308952381420F511D90E0019748174E
:1056E000590714F42F5F23830895FC0182818823D6
:1056F00019F08150828308958381882311F08150AD
:1057000083830895FF920F931F93CF93DF93EC0150
:1057100000E010E0F02E602F80E00E945C368A816D
:10572000081302C08EE301C080E20E946E366B81D6
:105730009801260F311D8C8190E02817390744F419
:10574000E881F9816F0D0190F081E02DCE0109957E
:105750000E94FA360F5F1F4F02301105D9F61D82E5
:10576000DF91CF911F910F91FF9008950F931F9399
:10577000CF93DF93EC010E94C335182F0E94AA3902
:10578000882321F081E08D838FE72CC00B818A81F3
:10579000080F143029F091E0123019F090E001C0A8
:1057A0009FEF2091590330915A032130310509F4BC
:1057B0009195913021F4CE010E94572B05C09F3F57
:1057C00019F4CE010E94752B8B819A81890F0817DD
:1057D00011F081E08D838D81882319F0CE010E9424
:1057E000822B812FDF91CF911F910F910895EF921E
:1057F000FF921F93CF93DF931F92CDB7DEB77C014B
:1058000081E0F701858311E0C70169830E94B62B0F
:105810006981811102C0F7011682F7019681911109
:1058200008C0883031F481E0868383819281890FBA
:1058300009C0662311F0F7011583813029F7911112
:10584000E3CF8FEF0F90DF91CF911F91FF90EF90FB
:105850000895CF93DF93CDB7DEB729970FB6F894AD
:10586000DEBF0FBECDBF6DED73E0CE0101960E948D
:10587000552E60E0CE0101960E94F72B813039F061
:10588000823041F0811109C00E94E22DF2CF0E94C6
:105890004128EFCF0E942E13ECCF87FFEACF299645
:1058A0000FB6F894DEBF0FBECDBFDF91CF91089544
:1058B0000F931F93CF93DF93EC010E94631601E0D7
:1058C00010E09C0141E050E0BE018FE593E00E94B2
:1058D0001915DF91CF911F910F910895CF93DF9309
:1058E00080915B0390915C03892B51F10E94F61526
:1058F000C1E0D0E002C0CC0FDD1F8A95E2F78091B5
:105900006F0390917003892B11F4D05C07C00E9443
:10591000F615882311F0DF5B01C0DB5B0E94F615F2
:10592000811106C08091790390917A03892B59F4F3
:105930008091570390915803892B39F0D05805C0B6
:10594000C0E0D0E402C0DE5FF3CFCE01DF91CF91A3
:105950000895CF93DF93EC0183E06B35780719F45A
:105960000E94801713C083E06D35780719F40E94F8
:105970005B170CC083E06136780719F40E943D176D
:1059800005C06356734011F40E944C170E947716AD
:105990000E946E2CBC01CE01DF91CF910C94312A74
:1059A0001F93CF93DF93CDB7DEB7E9970FB6F89487
:1059B000DEBF0FBECDBF60E070E0CE0189960E94D1
:1059C000552E8FEF8AAB8DE990E09AA789A785EED7
:1059D00093E09DAB8CAB8FEF9FE79FAB8EAB89EADB
:1059E0009CE299AF88AF18E20E946E2CBC01CE01F8
:1059F00089960E94312A60E0CE0189960E94F72B99
:105A000087FD1FC0EBE5F3E0DE011196812F0190C9
:105A10000D928A95E1F7CE0189960E94FB2A8111A9
:105A20000AC0FE013196ABE5B3E0812F01900D92E3
:105A30008A95E1F7D9CF83E00E9459340E94771606
:105A4000D3CFE9960FB6F894DEBF0FBECDBFDF917E
:105A5000CF911F910895DC011796ED91FC91189755
:105A6000E60FF11D649183E695E00C94CF360F9319
:105A70001F93CF93DF93EC018B0180E061E0680F0F
:105A8000F801E80FF11DE491E93011F0862FF6CF0F
:105A9000CE010E944B2B8BEA90E099838883188774
:105AA0000F83DF91CF911F910F9108950E94F615FA
:105AB00020915B0330915C03232B59F0833061F01C
:105AC000823069F0882371F0853079F484E394E0C2
:105AD000089581E694E0089586E494E0089588E5C9
