:100000000C9419050C9441050C9441050C94410580
:100010000C947C070C9441050C9441050C9441050B
:100020000C9441050C94AC070C9441050C944105CB
:100030000C9441050C943B080C9470080C944105F9
:100040000C9458070C9441050C9441050C944105FF
:100050000C94410594119D11A311A611A911B01181
:10006000AD11B711652C692C732C792C852C892C3A
:100070008D2C9B2CA62CAC2CB02CB62CC22CD02CAE
:10008000E12CE52CE92CF72C032D112D152D1B2D22
:100090001E2D222D2E2D322D3C2D3A2E3E2E412E60
:1000A000432E482E4C2E4E2E532E562E582E5D2E5D
:1000B0005F2E642E672E6D2E702E732E762E792E67
:1000C0007E2E822E862E892E8C2E912E942E982E68
:1000D000563458345A345E345E345C34623460349E
:1000E000E138C338CC38C538CE38BE38CA380000FD
:1000F000000048A50C4C000000007C6B0831850016
:1001000032007D09E8038000320057012C01000015
:100110000000C0AE4E5AFC5350143FA0540B0000D8
:100120000000A8D5803E80186009DC3770170000F9
:100130000000000000000000000040C7370F000072
:10014000000080C7300F0000000040CA310F0000DF
:100150000000E1C7340F00000000B7C6400F0000E8
:100160000000B7C6400F18003200B002E803480094
:100170003200D0002C01FF0000000A00050400003E
:100180000004090000FF0101000A0105050000014B
:10019000040A0000FF02020000020506000002043B
:1001A0000B0000FF03030000030507000003040C1D
:1001B0000000FF0000000A040511020004040D0005
:1001C00000FF0101000A050511040005040E0000EE
:1001D0000605110100FF020200000705110800E3F7
:1001E0000100006F7074696F6E730080250000005D
:1001F0004B00000096000000E1000000C201004634
:10020000000300881370170000701764000100FBE2
:10021000FFF1FF0807080705001E0001000A003271
:100220000078001027000000000000010008000016
:10023000000000030000000000000000001F091A79
:1002400009150910090B0906090109FC08F708F24C
:10025000080000980898086C0710275802010098B9
:1002600008F4016C070100E00102009808F4016C39
:10027000070100E00103009808DC006C070600E0BD
:10028000010400980898086C07030078000500989E
:100290000898086C07030078000600980898086C16
:1002A00007030078000700980898086C0703007897
:1002B000000800980898086C070300780009009867
:1002C0000898086C07030078000100010001000194
:1002D000000100B0040000520300005203B004000B
:1002E00000E8030000E803D0079209D60600006C7E
:1002F00007E40C100ED007E40CB80B100E0410C469
:1003000009A60EAC0D740E6810B80B0A0F890C7498
:100310000ECC10B80B0A0F890C740EFE10B80B0A25
:100320000F890C40066C071405400678058B17D022
:1003300017BC18021AFD19321AF81A9A1B041BA3CB
:100340001BA01BAA1BD11BD81BFC1B5C1E2C1E3226
:100350001E9F202319A12000012A06220600003931
:1003600006320600004906400600005A0652060002
:100370000064002C016400E8036806620600007552
:10038000066E06000006090A0B0C0D0E061F202142
:100390002223241312AB06A5069F06990693068D09
:1003A00006870681067B060000ED06E406D806CC2B
:1003B00006C006B106000049093F09310900006D79
:1003C00007680763075E075907520746073C07316E
:1003D000070000AE099F0997098D09810979096A0B
:1003E000095F095209000304070800030708000118
:1003F000020304080001020304050608D807CF071A
:10040000C607BD07B407D807AC07A4079C07940725
:10041000E308DB08D108C608BD08B208AB08A2088B
:100420009908900886087C087008660860085208D9
:1004300048083E08320828081F0814080908FF0762
:10044000F407EE07E707E107000020202D2D20200C
:1004500000636865616C692D636861726765720A23
:1004600076302E39395F32303135303232350063F3
:10047000616C69626174696F6E206572726F72007F
:10048000706C656173652063616C6962726174652B
:1004900000656570726F6D2072657365740A6572B0
:1004A000726F723A2000726573657474696E6720AA
:1004B000656570726F6D0020202020202020202094
:1004C00020202079657300656570726F6D207265FC
:1004D0007365743A005245564552534520504F4C6F
:1004E0004152495459006572726F723A202020209F
:1004F00000636F6D706C6574653A2000AB320080EC
:1005000000004B31FFFF04803F32FFFF0480FF31CA
:10051000000108800B32000108801F3200010080BA
:10052000622F00C00000662F00C000006A2F00404C
:1005300004806E2F00400480A231FFFF04808231CE
:10054000FFFF0080DC31FFFF0000053380000080EA
:100550005F31FFFF0480C031FFFF00000000FFFF9C
:1005600000002500202D2D3A2D2D0064656C74614E
:1005700020543D20004E2F4100546578743D0064A6
:10058000656C746120563D20006D6178566F7574FE
:100590003D0054696E743D002D00546578743D0033
:1005A000206C696D69743D0056696E7075743D000C
:1005B000776972657320523D00626174742E205217
:1005C0003D006220004C696D6974733A20006E6FC3
:1005D0002064542F740025200043684342426C4439
:1005E000694643537453424359000100010001001E
:1005F000010001000A006400010003000800090076
:100600000A000B000C0001000200040006000800B4
:100610000A000C00141719181A0705061F202122BA
:100620002324566D696E75733A0056706C75733A73
:10063000200076616C75653A0074656D703A200033
:10064000706F696E7420322E00706F696E74203185
:100650002E00496F75743A20200076616C75653AFA
:1006600020003330306D41003130306D4100313089
:1006700030306D41003130306D4100566F75743A45
:100680000056312D363A005662363A200056623511
:100690003A20005662343A20005662333A2000561F
:1006A00062323A20005662313A200056696E3A2092
:1006B000006578706572742044414E4745522100B0
:1006C00074656D7020696E7465726E0074656D700E
:1006D0002065787465726E0049206469736368618F
:1006E00072676500492063686172676500766F6CA8
:1006F000746167650062616C616E636520706F7222
:100700007421006261747465727921006469736395
:100710006F6E6E65637400636F6E6E656374006404
:10072000542F6474002D64560056206C696D6974F2
:10073000005265736574206E616D6500456469746F
:10074000206E616D6500437265617465206E616D38
:100750006500546C696D3A200049643A2000496391
:100760003A200043683A2000563A20200042617443
:100770003A2020004E616D653A0045646974206E30
:10078000616D653A006D5600206E6F0079657300EB
:10079000496E6600542D70726F67720054656D70FB
:1007A0006572610070726F6772616D0020616C77B5
:1007B000617973006578742E2041646300657874F4
:1007C0002E20646562002020206465627567002029
:1007D000206E6F726D616C0064697361626C656438
:1007E0000072657365740073706565643A00554105
:1007F00052543A00616463206E6F6973653A006217
:10080000616C2E206572723A00666F7263652062B9
:10081000616C3A006469732061677265733A006FB6
:100820002E64697363683A006F2E6368617267654E
:100830003A00696E707574206C6F773A20006361BE
:100840007020434F66663A006D696E20496F75747B
:100850003A006D696E20496F75743A2020492F0067
:10086000626565703A00442F4320726573743A00E4
:10087000442F43206379636C65733A004E69436487
:100880002056434F3A004E694D482056434F3A0098
:100890004E6943642064563A004E694D48206456C0
:1008A0003A00656E61622064563A0064542F6474A5
:1008B0003A00657874726E2054434F3A006578743C
:1008C000726E20543A006469736368206F66663AFA
:1008D0000066616E2054206F6E3A0066616E206F74
:1008E0006E3A006261636B6C696768743A00432F0B
:1008F0006D004E695A6E004C343335004C34333041
:10090000004C69706F004C696C6F004C6966650043
:1009100050622020004E694D48004E6943640055E6
:100920006E6B6E006D696E2E006E6F6C696D697412
:100930000072657365742064656661756C7400632C
:10094000616C6962726174650073657474696E6765
:10095000730065646974206261747465727900441F
:100960003E4320666F726D61740073746F726167CD
:10097000652B62616C616E630073746F7261676591
:1009800000666173742063686172676500646973EF
:100990006368617267650062616C616E63650063C4
:1009A00068617267652B62616C616E636500636884
:1009B00061726765006578742E74656D702E63755D
:1009C000746F66660074696D65206C696D6974008A
:1009D0006361706163697479206375746F66660022
:1009E000696E707574205620746F206C6F770048A4
:1009F00057206661696C7572650062616C616E6337
:100A0000657220646973632E00696E742E74656D5F
:100A1000702E6375746F66660062617474657279B6
:100A200020646973632E0000DB05A7092510262BBF
:100A3000E73011241FBECFE5D8E0DEBFCDBF10E008
:100A4000A0E6B0E0EEE4FAE702C005900D92AA3C01
:100A5000B107D9F714E0AAECB0E001C01D92AA3B9F
:100A6000B107E1F71AE0C2E3DAE004C02297FE0121
:100A70000E94BB3CC832D107C9F70E9420100C94D9
:100A8000253D0C94000020E042E060E18AEC90E01B
:100A90000E940D3A0E942F080C94DF05CF92DF923E
:100AA000EF92FF92482F282F30E0A0E0BDE70E9490
:100AB000273C6B017C01A4E6B0E0A41BB10924E64D
:100AC00030E00E94363C6C0D7D1D8E1D9F1D24E67E
:100AD00030E040E050E00E94783CB9018DE0FF90AA
:100AE000EF90DF90CF900C941908882311F0909A22
:100AF000089590980895089580FF02C0979A0895E8
:100B000097980895811102C0969A0895969808952D
:100B1000811102C0929A089592980895811106C099
:100B2000939A0E94820580E00C948805939808951A
:100B3000BC018EE00C941908BC018EE00C941908DD
:100B400080FF02C0C09A01C0C09881FF02C0C19A54
:100B500001C0C19882FF02C0C29A01C0C29883FF3F
:100B600002C0C39A01C0C39884FF02C0DE9A01C0CC
:100B7000DE9885FF02C0DF9A0895DF98089580E02F
:100B80000E948E0580E00E94750580E00E947C0531
:100B900080E00E94A0058C9A8B9A889A8F9AB89AC6
:100BA000B99ABA9ABB9AD69AD79A8D9A8E9A8D9AF2
:100BB0008A9A089508958AEC90E00C94623AD59848
:100BC000D498DD98DC98BF9ABE9ABD9A8EEA86B911
:100BD000369A089534B145B1E091DB00E13131F14D
:100BE0002FB7F894832F90E0942BF0E0DF01AA0F49
:100BF000BB1FA053BD4F11969C938E933091D30091
:100C0000332391F0EE0FFF1FEE0FFF1FEE50FD4F4D
:100C10004081518162817381480F591F611D711D8F
:100C200040835183628373832FBF08952091DC003A
:100C30003091D00047FD02C0232B02C02095232312
:100C40002093D00008950E9403219093EF02809397
:100C5000EE020E94661A9093F1028093F002809156
:100C6000D300882309F481C00E94032140912E0300
:100C700050912F036091300370913103480F591F39
:100C8000611D711D40932E0350932F036093300319
:100C9000709331030E94661A4091320350913303DE
:100CA0006091340370913503480F591F611D711D08
:100CB00040933203509333036093340370933503AE
:100CC0008091360390913703019709F04CC08091D1
:100CD000FA029091FB02A091FC02B091FD02B69540
:100CE000A795979587958093FA029093FB02A0931E
:100CF000FC02B093FD028091F2029091F302A09168
:100D0000F402B091F502B695A795979587958093D3
:100D1000F2029093F302A093F402B093F502809153
:100D2000F6029091F702A091F802B091F902B695FF
:100D3000A795979587958093F6029093F702A093D5
:100D4000F802B093F9028091FE029091FF02A09107
:100D50000003B09101038093FE029093FF02A093E1
:100D60000003B09301030C94240D0895089580911D
:100D7000770390917803892BE9F04091D8004423C0
:100D8000C9F081E090E00090D50002C0880F991F63
:100D90000A94E2F720913603309137032F703FB762
:100DA000F8945BB39BB3982B9BBB240F2A95F1F768
:100DB0005BBB3FBF08958091D2008F5F853108F003
:100DC00080E08093D20085E0E4EDF0E0A9EDB0E0B2
:100DD00001900D928A95E1F76091D2006F5F6531C5
:100DE00008F060E085E0689FB00111246A587E4FEA
:100DF00045E050E084ED90E00E94BF3C8091D2003D
:100E000081110CC00E942306809136039091370314
:100E100021E0892B09F420E02093D3000895CF939B
:100E2000DF930E94EA058091D10091E0980F9093A2
:100E3000D100873079F118F4882359F033C0883015
:100E400069F1893079F51092D100DF91CF910C943E
:100E5000DB068091D40087FD25C02FB7F8949091D0
:100E6000D40088B3392F3170C32F30E0D32FCC0F8B
:100E7000DD1FCC0FDD1F92FB332730F9C32B92709F
:100E8000C92B90E2C902E00111248F718C2B88BB21
:100E90002FBF08C0DF91CF910C94B7068091D50089
:100EA000806287B9DF91CF9108958091D000089535
:100EB0001F920F920FB60F9211242F933F934F93CF
:100EC0005F936F937F938F939F93AF93BF93EF93B2
:100ED000FF930E940F07FF91EF91BF91AF919F91F8
:100EE0008F917F916F915F914F913F912F910F90D3
:100EF0000FBE0F901F9018951F920F920FB60F9272
:100F000011242F933F934F935F936F937F938F930E
:100F10009F93AF93BF93EF93FF930E949434FF91FD
:100F2000EF91BF91AF919F918F917F916F915F9161
:100F30004F913F912F910F900FBE0F901F901895DA
:100F400088E085BD85B5846085BD14BC8CE783BD14
:100F500089B7806889BF08951F920F920FB60F92CC
:100F600011242F933F934F935F936F937F938F93AE
:100F70009F93AF93BF93EF93FF932091E400309141
:100F8000E5008091E0009091E100820F931F909323
:100F9000E1008093E0002091E2003091E300809135
:100FA000DE009091DF00820F931F9093DF0080930B
:100FB000DE002FB7F8948091E0009091E10035E0D9
:100FC000969587953A95E1F79BBD8ABD8091DE00A5
:100FD0009091DF0045E0969587954A95E1F799BD98
:100FE00088BD2FBF8091E0009091E1008F7199271B
:100FF0009093E1008093E0008091DE009091DF000B
:101000008F7199279093DF008093DE000E947B050B
:10101000FF91EF91BF91AF919F918F917F916F91D0
:101020005F914F913F912F910F900FBE0F901F90A6
:1010300018959FB7F8948E3039F47093E50060935B
:10104000E4008FB5806808C08D3039F47093E300F8
:101050006093E2008FB580628FBD9FBF089580E0EE
:1010600094E097BD86BD82E08FBD89E18EBD89B7D2
:10107000846089BF08951F920F920FB60F921124BA
:101080002F933F934F938F939F93EF93FF935A998F
:101090001AC04CB18091FC019091FD0101969927F5
:1010A0002091FE013091FF018217930769F0E091D2
:1010B000FC01F091FD01E450FF4F40839093FD014E
:1010C0008093FC0101C08CB1FF91EF919F918F91B2
:1010D0004F913F912F910F900FBE0F901F90189539
:1010E0001F920F920FB60F9211242F933F938F935D
:1010F0009F93EF93FF932091FC013091FD0180912C
:10110000FE019091FF012817390711F4559812C07C
:10111000E091FE01F091FF01E450FF4F20818091AA
:10112000FE019091FF01019699279093FF01809312
:10113000FE012CB9FF91EF919F918F913F912F91DB
:101140000F900FBE0F901F901895CF92DF92EF92E5
:10115000FF92CF93DF93EC016A017B01411581EE91
:10116000580761057105F9F0E885F98581E090E09F
:101170000C8802C0880F991F0A94E2F7808360E010
:1011800079E08DE390E0A70196010E94783C215020
:1011900031094109510956954795379527952115EC
:1011A00080E1380798F0E885F985108260E874E8F6
:1011B0008EE190E0A70196010E94783C2150310910
:1011C000410951095695479537952795EC81FD8141
:1011D0003083EE81FF8120831D8AEA85FB85408173
:1011E00081E090E09C01098802C0220F331F0A941D
:1011F000E2F7422B4083EA85FB8540819C010A8807
:1012000002C0220F331F0A94E2F7422B4083EA8583
:10121000FB8520810B8802C0880F991F0A94E2F792
:10122000809582238083DF91CF91FF90EF90DF90B4
:10123000CF900895CF93DF93FC0182819381DC01ED
:10124000B395EC01CE5FDE4F4D915C9111972881F3
:10125000398142175307C1F7A285B3854C9181E0CC
:1012600090E09C01018802C0220F331F0A94E2F72C
:10127000209524232C93A285B3854C919C01028850
:1012800002C0220F331F0A94E2F7209524232C93E7
:10129000A285B3852C91038802C0880F991F0A94F8
:1012A000E2F7809582238C9380819181FC01EE5F2F
:1012B000FE4F20813181FC01F39531832083DF9142
:1012C000CF910895FC018589882329F0A085B185F7
:1012D0008C9186FFFBCF158A0895CF93DF93FC0195
:1012E00022813381D901B3958D919C9111970196FB
:1012F0009927E901CE5FDE4F488159818417950710
:10130000D9F30D90BC91A02DA20FB31F6C93A281B5
:10131000B381B39511969C938E93A285B3852C913E
:1013200081E090E0038802C0880F991F0A94E2F7D9
:10133000282B2C9381E0858B0084F185E02D808122
:101340008064808381E090E0DF91CF9108958CEFFD
:1013500090E09093E7008093E6009093E9008093FB
:10136000E80080E490E09093EB008093EA0029E2AB
:1013700030E03093ED002093EC002BE230E030932E
:10138000EF002093EE002AE230E03093F10020934A
:10139000F0009093F3008093F2008CE290E0909341
:1013A000F5008093F40084E08093F60083E080935E
:1013B000F70087E08093F80085E08093F90081E0F2
:1013C0008093FA000895CF93DF931F92CDB7DEB7D5
:1013D000E091B604F091B704309711F4EAEBF4E031
:1013E000CE0101962EEB8E179F0710F02193FBCFB5
:1013F0000F90DF91CF910895CF93DF9300D0CDB7B9
:10140000DEB72091B6043091B7042115310511F4EF
:101410002AEB34E0CE010196821B930B0F900F90C4
:10142000DF91CF910895CF93DF931F92CDB7DEB7B1
:101430002091B6043091B7042115310511F42AEB3F
:1014400034E0F901AE014F5F5F4FCF01821B930B78
:101450004E175F0728F060816E3B11F43196F5CF8F
:101460000F90DF91CF910895009741F0EFE9FFE0F1
:101470003197F1F700C000000197F6CF0895843648
:10148000910538F064E670E00E94643CCB010C9456
:10149000340A019728F025E32A95F1F70000F9CFE7
:1014A00008956AE070E00E94643CCB010C943F0A0E
:1014B000E82FF0E0EE0FFF1FE255FD4F8081918194
:1014C0000895E82FF0E0EE0FFF1FEC59FD4F8081EB
:1014D000918108952FB7F894E82FF0E0EE0FFF1FE9
:1014E000E053FD4F808191812FBF08958091390392
:1014F0000895809118029091190208958091060232
:101500009091070208958091080290910902089530
:10151000E82FF0E0EE0FFF1FE65EFD4F8081918126
:101520000895262F613110F4423040F021E030E080
:10153000FC013383228331832083089550E0BA0174
:10154000620F711D620F711D660F771F660F771F87
:10155000665F7F4F44E050E00C94E03C282FCA01C6
:10156000213188F4623078F470E0620F711D620FEF
:10157000711D660F771F660F771F665F7F4F44E010
:1015800050E00C94FE3C0895FF920F931F93CF936D
:10159000DF9300D000D0CDB7DEB70EEE10E0F12C17
:1015A000F801459155916591749149835A836B83F4
:1015B0007C83AE014F5F5F4F60E08F2D0E94AE0ACB
:1015C000F8013496459155916591749149835A83F8
:1015D0006B837C83AE014F5F5F4F61E08F2D0E9474
:1015E000AE0AF394085F1F4F81E1F812D9CF81E072
:1015F0000E94B1100F900F900F900F90DF91CF913C
:101600001F910F91FF90089581E020918E023091FB
:101610008F022331310509F080E0089580918C021A
:1016200090918D0208958091880290918902089589
:10163000809192029091930208958091420290913C
:101640004302039750F0809148029091490203971A
:1016500020F083E090E00C94FC1780E008952FB711
:10166000F89480E090E0FC01EE0FFF1FEE0FFF1FEB
:10167000EE50FD4F10821182128213820196813149
:10168000910589F784E690E09093370380933603C1
:10169000109238032FBF0895CF93CFB7F8941092CC
:1016A0001702109216021092120210921302109258
:1016B00014021092150210920E0210920F02109254
:1016C00010021092110210920A0210920B02109254
:1016D0000C0210920D020E94BC349093050280937C
:1016E0000402CFBFCF9108950E944C0B10920902C3
:1016F0001092080210920702109206020895EAE181
:10170000F2E01192119282E0E436F807D1F70895E1
:10171000CF93CFB7F89481E090E090933703809314
:10172000360381E0809338030E947F0BCFBFCF91B7
:101730000895CF93DF930E94880BC0911802D09137
:1017400019028091180290911902C817D90729F43B
:101750008AE090E00E94E234F4CFDF91CF910895C7
:101760001092390380E00C948E05CF93DF9381E0D3
:101770000E946A0AEC0180E00E946A0A8C179D07A9
:1017800018F4C81BD90B02C0C0E0D0E081E0C93E0C
:10179000D34008F480E0DF91CF9108958F929F921B
:1017A000AF92BF92CF92DF92EF92FF92CF93DF93EF
:1017B000CDB7DEB728970FB6F894DEBF0FBECDBF0A
:1017C000F82E5B0161157105D1F140E0682FCE0163
:1017D00005960E94910A41E06F2DCE0101960E946C
:1017E000910A2B813C8140E050E0CF80D884E12CED
:1017F000F12C2C193D094E095F09B50180E090E0FC
:101800008D809E80A12CB12C681979098A099B09C9
:101810000E94483C29813A8140E050E0281939096A
:101820004A095B090E949A3C2C0D3D1D4E1D5F1D0F
:1018300057FF03C020E030E0A901C90102C080E0E9
:1018400090E028960FB6F894DEBF0FBECDBFDF91B3
:10185000CF91FF90EF90DF90CF90BF90AF909F908F
:101860008F9008958F929F92AF92BF92CF92DF9206
:10187000EF92FF92CF93DF93CDB7DEB728970FB6E5
:10188000F894DEBF0FBECDBFF82E5B016115710568
:10189000D1F140E0682FCE0105960E94910A41E007
:1018A0006F2DCE0101960E94910A29813A8140E074
:1018B00050E0CD80DE80E12CF12C2C193D094E0941
:1018C0005F09B50180E090E08F809884A12CB12C55
:1018D000681979098A099B090E94483C2B813C813F
:1018E00040E050E0281939094A095B090E949A3CF6
:1018F0002C0D3D1D4E1D5F1D57FF03C020E030E045
:10190000A901C90102C080E090E028960FB6F894C2
:10191000DEBF0FBECDBFDF91CF91FF90EF90DF9084
:10192000CF90BF90AF909F908F9008958250893153
:1019300030F4E82FF0E0EF58FF4F8081089581E008
:101940000895CF93DF93833149F481E020918E0293
:1019500030918F0223313105C1F41AC0E82FF0E035
:10196000EE0FFF1FEC59FD4FC081D1810E94960CF4
:10197000882319F0813029F00AC081E0E39740F410
:1019800004C081E0C935D24018F480E001C081E094
:10199000DF91CF910895CF93C0E08FE18C0F0E942B
:1019A000A10C882329F0CF5FC630B9F786E001C0CB
:1019B0008C2FCF9108951F93CF93DF931F92CDB7B4
:1019C000DEB7182F69830E94960CE12FF0E0EE0F2E
:1019D000FF1FEC59FD4F4981682F808191810F9045
:1019E000DF91CF911F910C94AE382FB7F89460918E
:1019F00000027091010280910202909103022FBFB8
:101A00002DE730E040E050E00E94783CBB27A52F56
:101A1000942F832F08952091920230919302809108
:101A2000000290910102A0910202B0910302820F84
:101A3000931FA11DB11D8093000290930102A093FA
:101A40000202B09303020895809136039091370308
:101A5000892B49F080913603909137030197909339
:101A6000370380933603089590E0880F991FFC0197
:101A7000EC59FD4F208131816217730718F4261B42
:101A8000370B04C0AB01421B530B9A01FC01E65E0D
:101A9000FD4F2730310518F01182108206C02081D9
:101AA00031812F5F3F4F31832083FC01EC59FD4F83
:101AB0007183608308958FB7F8941092000210929A
:101AC000010210920202109203028FBF0E94880B43
:101AD0000E94740B60E070E089E10E94340D60E0C8
:101AE00070E08BE10E94340D60E070E08CE10E94B8
:101AF000340D60E070E08DE10C94340D1092190209
:101B0000109218020E945B0DE4E6F2E0119211922D
:101B100082E0EE3AF807D1F70895809139038111F8
:101B20000AC081E00E948E050E947E0D81E08093B4
:101B300039030C94990B08950C947E0DAF92BF92CB
:101B4000CF92DF92EF92FF920F931F93CF93DF9389
:101B50001F92CDB7DEB7A0906402B090650280916D
:101B60006602909167028A159B0518F4A81AB90AB3
:101B700002C0A12CB12CB50182E10E94340D06E710
:101B800012E09FE1F801619171918F01892F998392
:101B90000E94340D99819F5F9532A1F70E94CB0C72
:101BA000F82E80E000E010E08F1569F0EFE1E80F1B
:101BB000F0E0EE0FFF1FEC59FD4F20813181020F45
:101BC000131F8F5FF1CFB80183E10E94340D01151F
:101BD000110581F00A151B0520F49501201B310B1E
:101BE00003C098012A193B09293B3B4018F45801CE
:101BF00013E102C012E1F12CB50184E10E94340D21
:101C00006F2D70E086E10E94340D612F70E085E158
:101C10000E94340D0E94F50C8C010E94571A8823F3
:101C200029F0E0906A02F0906B020BC00E94F42051
:101C3000882329F0E0906802F090690202C0E12C4C
:101C4000F12CB70187E10E94340DB80189E10E94AF
:101C5000340D9701D5010E94273C30E1C32E37E2B5
:101C6000D32EE12CF12CA70196010E94783CB901FA
:101C700088E10E94340D9801D5010E94273CA701FC
:101C800096010E94783CB9018AE10F90DF91CF91D3
:101C90001F910F91FF90EF90DF90CF90BF90AF908A
:101CA0000C94340D4F925F926F927F928F929F921D
:101CB000AF92BF92CF92DF92EF92FF92CF93DF93DA
:101CC000CDB7DEB728970FB6F894DEBF0FBECDBFF5
:101CD0000E94BC342091040230910502821B930BB8
:101CE0008133954708F4A0C04FB7F89420911602AD
:101CF00030911702A8EEB3E00E94273C6B017C01F3
:101D0000F694E794D794C79440901202509013022F
:101D1000609014027090150260910E0270910F0293
:101D2000809110029091110280900A0290900B0213
:101D3000A0900C02B0900D024FBF6D837E838F8305
:101D400098870E944C0B20910802309109022F5F66
:101D50003F4F30930902209308026D817E818F816D
:101D60009885A70196010E94783C29833A834B838A
:101D70005C83C301B201A70196010E94783CB901BE
:101D800080E00E94CE0B3C0169817A8181E00E9453
:101D9000CE0B8615970518F4681A790A02C0612CD3
:101DA000712C40909C0250909D026414750420F0A8
:101DB000B3018CE10E94340DB301641975098BE104
:101DC0000E94340DC501B401A70196010E94783C20
:101DD000B90187E00E94CE0B2091060230910702E4
:101DE0009093070280930602BC01621B730B660F7F
:101DF000771F8DE10E94340DB6018EE128960FB653
:101E0000F894DEBF0FBECDBFDF91CF91FF90EF9072
:101E1000DF90CF90BF90AF909F908F907F906F900A
:101E20005F904F900C94340D28960FB6F894DEBF57
:101E30000FBECDBFDF91CF91FF90EF90DF90CF909D
:101E4000BF90AF909F908F907F906F905F904F90DA
:101E50000895CF92DF92EF92FF920F931F93CF934B
:101E6000DF932FB7F89480913603909137032FBFFB
:101E7000892B09F0ADC08091380381119FC08091FA
:101E800018029091190201969093190280931802FA
:101E90004091F2025091F3026091F4027091F502C8
:101EA0007695679557954795809112029091130208
:101EB000A0911402B0911502840F951FA61FB71FA1
:101EC0008093120290931302A0931402B093150210
:101ED0004091F6025091F7026091F8027091F90278
:101EE000769567955795479580910E0290910F02D0
:101EF000A0911002B0911102840F951FA61FB71F69
:101F000080930E0290930F02A0931002B0931102DF
:101F100040910E0350910F036091100370911103D3
:101F2000769567955795479580910A0290910B0297
:101F3000A0910C02B0910D02840F951FA61FB71F30
:101F400080930A0290930B02A0930C02B0930D02AF
:101F50008091160290911702019690931702809338
:101F600016020E94520E0EEA12E0C0E0D0E0B8EE77
:101F7000CB2EB3E0DB2EE12CF12CFE01EE0FFF1F88
:101F8000EE0FFF1FEE50FD4F6081718182819381C2
:101F9000A70196010E94783CF801219331938F01AB
:101FA000B9018C2F0E94CE0BBC018C2F0E94340DE6
:101FB0002196C131D10509F70E949E0DDF91CF9185
:101FC0001F910F91FF90EF90DF90CF900C942F0B0B
:101FD000DF91CF911F910F91FF90EF90DF90CF9005
:101FE00008958091390381110C94290F089560E0C0
:101FF0008AE393E00E94FA2887FD0AC0811102C09B
:102000000C942C29992787FD909501970C94F62A1A
:1020100008950E94BF0578940E9443050E94A0077E
:102020000E949C210E94F11A0E949C0D0E94E309CB
:102030000E9414120E940A300E94DF300C94341166
:102040000E9409100E94F70FFDCF6FED71E08AE347
:1020500093E00E94A62E8EE890E090933B0380933D
:102060003A03EEE3F3E08081825E80830895FC0111
:1020700024812E51621710F40C94A12E862F90E02B
:10208000821B91090E9418156EE00C94FC36FF9299
:102090000F931F93CF93DF93EC018B0141110E94AB
:1020A0001F3D85E0F82EFA9459F0CE010E94F83CCD
:1020B0008017910739F084E690E00E94CE34F3CF88
:1020C00081E001C080E0DF91CF911F910F91FF90DF
:1020D0000895EF92FF920F931F93CF93DF937B01AD
:1020E0008C01E80EF91ECFEFDFEF0E151F05A9F0EA
:1020F000C8010E94F03CC82728E0CE01969587953C
:102100003C2FEC0130FF04C031E0C32730EAD32775
:10211000215099F70F5F1F4FE8CFCE01DF91CF918C
:102120001F910F91FF90EF900895EF92FF920F9300
:102130001F93CF93DF931F92CDB7DEB78C017B0146
:1021400049830E9469104981BC01C8018E0D9F1D01
:102150000F90DF91CF911F910F91FF90EF900C9412
:102160004710482F68E870E08AE090E00C949510E2
:10217000482F6CE073E084E990E00C949510482FB0
:102180006EE370E082EA93E00C9495100F931F9336
:10219000CF93DF93D82F182F1170412F63E678E685
:1021A00080E090E00E944710C82F412F6CE679E64E
:1021B00082E090E00E9447108111C1E0D1FB00272E
:1021C00000F9402F69E070E084E090E00E94471041
:1021D0008111C260D2FB112710F9412F62E070E03B
:1021E00086E090E00E9447108111C460D3FBDD2798
:1021F000D0F94D2F68E070E088E090E00E94471031
:102200008111C86001110E94C40A80E00E94B110CF
:102210008111C26011110E94541680E00E94B81012
:102220008111C460D1110E942F1280E00E94BF1062
:102230008111C8608C2FDF91CF911F910F9108956C
:10224000CF93C82F0E949D30C0FDC260C1FDC46005
:10225000C2FDC8600E94B7308C2F0E94C610682F44
:102260008C2FCF910C94BB3080E00E94C610882345
:1022700021F00E94201180E0089581E0089580E01F
:102280000E94C61081600C942011CF930E940030F0
:1022900089E393E09093CB038093CA03C1E0C0939A
:1022A000C9031092C10385E893E00E946B1382304A
:1022B00011F4C093C1030E94BC1991E0813009F070
:1022C00090E0892FCF91089561E081E00E943C1950
:1022D00085E493E09093CB038093CA03089561E073
:1022E00081E00E943C1981E593E09093CB038093B9
:1022F000CA03089560E082E00E943C1983E393E002
:102300009093CB038093CA030895909165039093B3
:10231000C2031092C10390E08830910560F5FC0182
:10232000E65DFF4F0C94B93C85E893E00E946B1387
:10233000811106C00E946F111CC081E08093C1030F
:102340000E94641116C08DE293E00CC00E947A11C5
:1023500010C085E08093C203F3CF81E08093C10376
:102360008BE493E09093CB038093CA0302C00C9458
:10237000A7160C94BC1980E00895CF93C82F0E9433
:10238000CC26882351F1C093460310924403109247
:10239000430383E0809345030E94A33A0E948D0D7E
:1023A0000E944511882391F081E0809345030E94AB
:1023B000161D0E9400301092C90384E00E949A33D7
:1023C000809146030E9485110E944A1D0E94B00B15
:1023D0000E94B33ACF910C940930CF910895DC015B
:1023E000D496ED91FC91D597EE0FFF1FEE0FFF1FD6
:1023F000E551FE4F659175918591949108954EE355
:1024000050E06FEF71E00C94BF3CFC01208D318DEA
:102410002630310520F025E030E0318F208F0895FF
:10242000FC0180810C944E054EE350E062EA73E0BB
:1024300087E493E00E94E03C87E493E00C94101260
:102440004EE350E062EA73E087E493E00E94FE3CD2
:1024500081E00E94BF1087E493E00C94101287E49F
:1024600093E00E94FF110C9420120F931F93CF93BF
:10247000DF93CDB7DEB7C954D1090FB6F894DEBFEC
:102480000FBECDBF8C01BC01CE0101960E943E2B38
:10249000CE0101960E945B2B8EE3FE013C96D80193
:1024A00001900D928A95E1F70E942012C8010E94C6
:1024B0001012C75BDF4F0FB6F894DEBF0FBECDBF63
:1024C000DF91CF911F910F910895FC0125913491D7
:1024D000F901099440E0FC01259134910296232BE7
:1024E00011F04F5FF8CF842F0895EF92FF920F9372
:1024F0001F93CF93DF93EC017B018A0185E00E945B
:10250000610A8E159F0518F4188281E007C008172C
:10251000190718F481E0888301C080E0DF91CF9132
:102520001F910F91FF90EF900895282F81E090E088
:102530003AE0215038F0AC01349FC001359F900D36
:102540001124F7CF089597FD02C081E008958FEF21
:102550000895CF92DF92EF92FF92CF9361157105AC
:102560008105910521F461E070E080E090E0C0E039
:102570002AE0C22ED12CE12CF12CCF5FA7019601CD
:102580000E94783CCA01B901211531054105510568
:10259000A1F78C2FCF91FF90EF90DF90CF9008950F
:1025A000BC0180E090E00C94A912CF92DF92EF92F0
:1025B000FF920F931F93CF93DF93EC017B016A018E
:1025C000E881F981CF01B8010E94643C009731F0A5
:1025D0001E141F049CF4081B190B03C01E141F04B7
:1025E00074F4C901801B910BE817F90718F40E0F5A
:1025F0001F1F01C08901198308830DC08C01C80108
:102600008C0D9D1D8E179F0718F4E01BF10B01C068
:10261000F601F983E883DF91CF911F910F91FF902D
:10262000EF90DF90CF9008950F931F93242F30E009
:1026300001E010E040E050E00E94D5121F910F91A0
:1026400008950F931F93242F30E001E010E041E044
:1026500050E00E94D5121F910F910895AF92BF9242
:10266000CF92DF92EF92FF920F931F93CF93DF935E
:10267000EC017B016A0159016881798180E090E079
:102680000E94A912823020F082500E94951202C04E
:1026900081E090E08C019501A601B701CE010E9476
:1026A000D512DF91CF911F910F91FF90EF90DF90A6
:1026B000CF90BF90AF9008952FEF3FEF40E050E0F4
:1026C0000C942E130E9424358111FCCF0E942435D6
:1026D0008823E1F30895FC0180819181893091057F
:1026E00079F09C01245031092530310558F09C01C6
:1026F0002150310981E02230310528F480E008952D
:1027000083E0089582E00895CF93DF93FC01208158
:10271000318145E0429FF001439FF00D1124E60F07
:10272000F11DEE0FFF1FE753FD4FC591D4916130AE
:10273000C9F42230310529F4C0915B03D0915C03C8
:102740001DC02130310529F4C0915D03D0915E0395
:1027500015C00E946B13823089F480916D039091B3
:102760006E030AC0623051F40E946B13823031F460
:1027700080916F0390917003C80FD91FCE01DF9134
:10278000CF910895FF920F931F93CF93DF938C0106
:10279000F62EFC01C085D1850E948413F2E0FF1261
:1027A0000CC0F801208131812230310531F4C7306D
:1027B000D10518F0219780EB94E09C012C9FC0017B
:1027C0002D9F900D3C9F900D1124DF91CF911F9173
:1027D0000F91FF9008950F931F93CF93DF93EC0118
:1027E0008B0150E00E94ED354AE3B801CE01DF9144
:1027F000CF911F910F910C949935EF92FF920F9307
:102800001F93CF93DF9300D01F92CDB7DEB78C011B
:10281000462F0C969A8389838EE08B83D801ED91A5
:10282000FC91EE0FFF1FE35CFD4FE590F490BE01BD
:102830006D5F7F4FCE0101960E94EB13A701BE0191
:102840006D5F7F4FCE0101960E94B43540E2BE011C
:102850006D5F7F4FCE0101960E949935F80142814C
:102860005381BE016D5F7F4FCE0101960E94ED3511
:102870004FE2BE016D5F7F4FCE0101960E949935F8
:10288000D80118964D915C911997BE016D5F7F4FED
:10289000CE0101960E94ED350F900F900F90DF91C1
:1028A000CF911F910F91FF90EF900895CF93DF93F9
:1028B00000D01F92CDB7DEB7462F2EE02B830C96AB
:1028C0009A838983BE016D5F7F4FCE0101960E947E
:1028D000EB130F900F900F90DF91CF9108952AE1A5
:1028E000289FB001299F700D11246C567F4F4AE13B
:1028F00050E085E893E00C94E03C2AE1289FB00189
:10290000299F700D11246C567F4F4AE150E085E8F5
:1029100093E00C94FE3CFC01A281B38120916903F9
:1029200030916A030E94273C24E630E040E050E00A
:102930000E94783C293EFDEF3F074105510520F0FC
:1029400028EE3DEF40E050E0C9010895FC012081F0
:1029500031812130310529F42091590330915A03F6
:102960000AC02230310529F42091570330915803D1
:1029700002C020E030E0FC0180859185AC01249FFD
:10298000C001259F900D349F900D11240895FC01E6
:10299000208131814CE0429FB001439F700D112492
:1029A0006F5A7D4F4CE050E00C94BF3CFC016081BD
:1029B0008DE392E00C94C236CF93DF93EC018881D3
:1029C000998160E0892B41F4CE010E94C21367E037
:1029D000DF91CF910C94F638CE010E94C21365E0CE
:1029E0000E94F6388FE20E944136888599850E94C0
:1029F000803683E4DF91CF910C94413666E0FC0190
:102A0000848195810C94F23866E0FC01868197817F
:102A10000C94F238FC0182819381883EFDEF9F0780
:102A200021F489E299E00C94AA3667E00C94EE3820
:102A30002AE1AC01249FC001259F900D11248056EE
:102A40009F4F08950F931F93CF93DF93CDB7DEB7BA
:102A5000A7970FB6F894DEBF0FBECDBF8C01AB01B8
:102A6000BC01CE0101960E948529CE0101960E94EB
:102A70000A2A8AE1FE013C96D80101900D928A95BE
:102A8000E1F7A7960FB6F894DEBF0FBECDBFDF917A
:102A9000CF911F910F910895FC0120813181260F64
:102AA000371F2A30310550F01616170624F4FC01A2
:102AB0001182108205C029E030E0FC0131832083BF
:102AC0000C94C71462E00E94C2139C0140E050E0E5
:102AD00060E074E887ED97E10E94783C21328EE453
:102AE00038074105510520F020E23EE440E050E087
:102AF000C901089562E00E94C2139C0140E050E0C9
:102B000060E478E78DE791E00E94783C293883E122
:102B100038074105510520F028E833E140E050E056
:102B2000C901089561E00E948413BC0188E799E619
:102B30000E94643CCB010895CF93DF93EC018A811E
:102B40009B818436910520F484E690E09B838A8300
:102B50008A819B81893E9D4F20F088EE9DEF9B836B
:102B60008A838A859B85893E934020F088EE93E096
:102B70009B878A87CE010E94921528853985821706
:102B8000930710F499878887CE010E9462152C81E3
:102B90003D818217930710F49D838C83CE010E94A0
:102BA0007A152E813F818217930710F49F838E83BD
:102BB00080916703909168032C813D812817390724
:102BC00010F49D838C832E813F812817390710F4E0
:102BD0009F838E83DF91CF910895EF92FF920F93A1
:102BE0001F93CF93DF9300D0CDB7DEB77C01FC01FC
:102BF00080819181892B19F402E310E002C001E089
:102C000010E0C70169837A830E9492159C0141E01C
:102C100050E069817A81C70108960E94D512C701E8
:102C20000F900F90DF91CF911F910F91FF90EF9038
:102C30000C949C150F931F93CF93DF93EC01029696
:102C40000E945C13CE010E949C150A811B811D838A
:102C50000C83CE010E946B13813039F4C801969524
:102C60008795969587959D838C831F830E83CE01D0
:102C7000DF91CF911F910F910C949C15CF93DF930F
:102C8000EC0104960E945C13CE01DF91CF910C946D
:102C90009C15CF93DF93EC0106960E945C13CE0146
:102CA000DF91CF910C949C150F931F93CF93DF93DB
:102CB0004CE050E069E972E085E893E00E94BF3C97
:102CC00085E893E00E949C15C0E0D0E08E010F5F84
:102CD0001F4FB80185E893E00E945614CE010E9470
:102CE0007D140E31110511F0E801F0CF81E0DF9184
:102CF000CF911F910F910C94B810FC0182859385A0
:102D0000883EF3E09F0719F489E299E005C063E08B
:102D10000E948D3884E299E00C94AA36CF93DF9319
:102D2000EC010A960E945C13CE01DF91CF910C94C6
:102D30009C1580916103909162030E94C51B8FE3F3
:102D400093E09093CB038093CA030C94BC1981E069
:102D50008093C90310929F0340919F03242F30E07A
:102D600080915F0390916003880F991F0197281746
:102D7000390711F41092C90340FF02C080E001C07E
:102D800083E00E948511813089F49091C9039923D1
:102D900069F080919F038F5F80939F030E94F91CCD
:102DA0000E945B0D0E9499168130B1F208958091C6
:102DB000BE03811113C00E94760A882381F00E940D
:102DC000790A2091A0033091A103821B930B9C01EF
:102DD00081E02330310518F080E0089581E0089506
:102DE000815E0C94610A0F931F93CF93DF9310E0E1
:102DF000CFEFDFEF00E08091C003181760F4812F60
:102E00000E94F0168C179D0710F0CE0101C0012F13
:102E10001F5FEC01F0CF802FDF91CF911F910F91B9
:102E20000895CF93DF939091BE03911104C0DF9179
:102E3000CF910C94F0169091A403C82FD0E0992361
:102E400091F00E94F016CC0FDD1FFE01EB55FC4FF8
:102E5000CF54DC4F2081318148815981241B350BAF
:102E6000280F391F07C0FE01EE0FFF1FEB55FC4F67
:102E700020813181C901DF91CF910895EF92FF92B6
:102E80000F931F93CF93DF93C0E0D0E0E12CF12CA0
:102E90000FEF1FEF8091C00390E0C817D9076CF4C3
:102EA0008C2F0E941117E816F90608F47C01801790
:102EB000910708F48C012196EDCFE01AF10A81E028
:102EC00020917503309176032E153F0508F080E0C0
:102ED000DF91CF911F910F91FF90EF900895CF93C5
:102EE000C82F8091BE03882341F0C11106C00E9403
:102EF000790A9093A1038093A003C093BE030E941C
:102F00007F0B8091BD03811104C08C2FCF910C9455
:102F1000A005CF910895EF92FF920F931F93CF9347
:102F2000DF9381E00E94DA0586E10E94610A8093C6
:102F3000C00301EB13E035EAE32E33E0F32EC0E0EB
:102F4000D0E08091C00390E0C817D9076CF48C2FB3
:102F50000E94F016F801819391938F01F7018193FC
:102F600091937F012196EDCF1092BE031092BD0385
:102F700080E00E946F171092A1031092A0038FEFC0
:102F80008093BF03DF91CF911F910F91FF90EF903E
:102F9000089580E00E946F1781E08093BD0308953B
:102FA0000E94C91780E00C94DA05FF920F931F93DB
:102FB000CF93DF938091BF0387FD17C00E94111745
:102FC000EC0110E0FF24F39400E08091C003181797
:102FD00050F4812F0E941117C817D90708F40F2940
:102FE000FF0C1F5FF2CF802F01C080E0DF91CF91F7
:102FF0001F910F91FF9008951F93CF93DF93EC01E2
:1030000010E08091C003181748F48FE1810F0E94EF
:10301000880A8C179D0720F01F5FF3CF81E001C065
:1030200080E0DF91CF911F9108959F92AF92BF9260
:10303000CF92DF92EF92FF920F931F93CF93DF9384
:1030400086E090E00E94FC17882309F464C00E9487
:103050001D0B882309F45FC08091BF0387FF04C064
:103060000E94F3168093BF038091BF030E94F01665
:103070006C0162E085E893E00E9484135C0145EAFC
:10308000E42E43E0F42E01EB13E0C0E0D0E09924FD
:1030900093948091C00390E0C817D907B4F48C2FA3
:1030A0000E94F0168A159B0570F0C816D90608F420
:1030B000912CF701819391937F01F8018193919372
:1030C0008F012196E6CF992493941092A4030E9435
:1030D000C4349093A3038093A203992069F0DF91F5
:1030E000CF911F910F91FF90EF90DF90CF90BF9005
:1030F000AF909F900C94C9170E94D517DF91CF9184
:103100001F910F91FF90EF90DF90CF90BF90AF9005
:103110009F900C946F17DF91CF911F910F91FF90AB
:10312000EF90DF90CF90BF90AF909F900895CF9396
:103130008091A403811115C081E08093A403C0E0B5
:103140008091C003C81768F48C2F0E94F016EC2FF2
:10315000F0E0EE0FFF1FEF54FC4F91838083CF5FB1
:10316000EFCFCF9108950E94C4342091A2033091F3
:10317000A303821B930B08958091BE03811103C0AA
:103180000E94151809C00E9497180E94B318409712
:1031900018F080E00E946F170E94D716882311F064
:1031A00082E008958091BD038823D1F381E00895E2
:1031B0001F93CF93DF93EC0110E08091C0031817A9
:1031C00040F4812F0E9411178C179D0720F41F5F78
:1031D000F4CF80E001C081E0DF91CF911F9108958D
:1031E0001F93CF93DF93EC0110E08091C003181779
:1031F00040F4812F0E941117C817D90720F41F5FD0
:10320000F4CF80E001C081E0DF91CF911F9108955C
:103210006091C003662329F070E00E94643CCB01FA
:10322000089580E090E008950E946B2161E081E0C4
:103230000E943C1981E00E94C81E8091C3039091B6
:10324000C4030C94362181E00C9481210E941D0B53
:10325000882321F00E9408210C94631F0895209177
:103260006703309168038217930708F4C9019093AC
:10327000C4038093C3030895CF93C62F682F85E8B6
:1032800093E00E94C2139093C8038093C703CC239A
:1032900029F08091890390918A0304C080918B0367
:1032A00090918C039093C6038093C5036091C203F1
:1032B00070E08091C5039091C6030E94643CCB01ED
:1032C000CF910C942F198091CA039091CB030C9449
:1032D00065128091CA039091CB0302960C946512FB
:1032E0000E9469190E944A1D0C949535CF93DF9373
:1032F0000E94C434EC010E94C4348C1B9D0B853B9E
:10330000910510F00E94B00B0E942435882399F398
:1033100088E0DF91CF910C949A330E9470190E943B
:103320004A3085E00E949A330C9476190E947019F5
:103330000E94B00B0E944E3086E00E949A330C949B
:103340007619E091CA03F091CB033496859194915C
:10335000FC010994811103C00E9496190BC08130B1
:1033600039F48091C903811105C00E948D1902C0F2
:1033700081E0089580E008950F931F93CF93DF932A
:10338000109272040E94631902E0C0E0D0E011E0E4
:103390000E942435809372040E947330112379F0C7
:1033A0000E948A1D082F0E94AA19182F882339F01D
:1033B0000E94790AC817D90771F4111107C08091CA
:1033C000C903882311F0011110C010E0809172042C
:1033D0008130F1F60AC00E94790AEC010E94A1191D
:1033E000082F0E94AA19182FE8CF0E946919802F70
:1033F000DF91CF911F910F91089581E00E94DE1A15
:103400000C94D0170E94D01A0E948B1721E0809153
:10341000710390917203892B09F420E02093CC036F
:1034200080E00C94C81E1F93CF93DF93C091C70315
:10343000D091C803CE010E9408190E94F018182FDD
:103440000E94D716811109C0111107C00E940E0BEE
:1034500011E0C817D90708F410E0812FDF91CF9150
:103460001F9108951F93CF93DF930E94131A182F73
:103470000E946B1AEC018091CC03882329F0BE01D5
:10348000812F0E94121F01C0812F882329F081E023
:103490000E94DE1A81E007C0BE01812F0E94312008
:1034A0000E94B11A82E0DF91CF911F91089581E0CF
:1034B0009091D103911180E0089581E02091CF0394
:1034C0003091D003232B09F480E008958091CF033D
:1034D0009091D00308958091CD039091CE030895EB
:1034E000CF93DF931F92CDB7DEB740914D0350913C
:1034F0004E03BA017250CE0101960E947512898165
:1035000081111BC00E94130B009711F481E090E021
:103510009C0140E050E060E478E78DE791E00E9494
:10352000783C293883E138074105510520F028E827
:1035300033E140E050E0C90102C080E090E00F902C
:10354000DF91CF910895813020E1920710F080E063
:1035500090E19093D0038093CF030E949C050C943C
:10356000880BCF93DF93EC010E94701ABC01C8173F
:10357000D90708F4BE018091CD039091CE03861740
:10358000970759F07093CE036093CD0380E10E94BA
:10359000320CDF91CF910C94A31ADF91CF91089553
:1035A0008091D103882349F080E090E00E94A31A23
:1035B00081E00E9488051092D1030895CF93C82F0F
:1035C0008091D10381110BC0CC2349F080E090E0C1
:1035D0000E94A31A80E00E948805C093D103CF9176
:1035E000089580E090E00E94A31A81E00C94DE1A16
:1035F00087E08093740482E0809375040E94933383
:1036000083E08093D2030895FF920F931F93CF938B
:10361000DF9382E10E94A10C11E018278091C10381
:10362000882381F00E94CB0C90918D03FF24F394AA
:10363000981301C0F12C01E0811100E0913021F4D8
:10364000002311F000E0F12C0E94040B8823A9F064
:1036500083E10E94610AEC0182E10E94610AC817BD
:10366000D90728F49C012C1B3D0BE90102C0C81BA3
:10367000D90BC53FD14008F011E0F11002C087E03E
:1036800001C083E080937404002329F080917404C6
:10369000825080937404112329F080917404815026
:1036A00080937404F11004C0011102C0112331F0A1
:1036B00081E00E949A33011107C004C088E00E9493
:1036C0009A3308C0FF2031F02091730330917403C6
:1036D000232B11F4C0E001C0C1E02091850330919B
:1036E0008603232B29F480914603811101C010E049
:1036F0000E94F834811102C01092D203C11106C099
:10370000111104C00E94F834883041F08091D20336
:10371000823011F481E008C082E006C08091D203BB
:103720008F5F8093D203F2CFDF91CF911F910F91E2
:10373000FF9008958FEF8093740488E00C949A337F
:103740001092D70308950E94C4349093D6038093B7
:10375000D50308950E94C4342091D5033091D60337
:10376000821B930B2091D3033091D4032817390780
:1037700028F081E08093D70382E008951092D70368
:1037800081E008958091D70308952CE3AC01249F34
:10379000C001259F900D11249093D4038093D303EF
:1037A00008950E948B170E946B2181E00C94C81E23
:1037B00081E00E9481210C94D0171F93CF93DF9357
:1037C000C091C703D091C803CE010E9408190E947E
:1037D000D818182F0E94D716811109C0111107C0DF
:1037E0000E940E0B11E08C179D0708F410E0812F4A
:1037F000DF91CF911F9108951F93CF93DF930E9484
:10380000DD1B182F0E940821EC01BC01812F0E94B2
:10381000121F882329F081E00E94812181E007C0E6
:10382000BE01812F0E9431200E94362182E0DF916B
:10383000CF911F9108958091E4039091E503209129
:10384000E703222341F00E94C4342091E403309125
:10385000E503821B930B08956091E0037091E103EF
:103860008091E2039091E30328EE33E040E050E0E2
:103870000E94783CC90108956091DC037091DD03DA
:103880008091DE039091DF0328EE33E040E050E0CA
:103890000E94783CC90108950F931F93CF93DF9343
:1038A00061E085E893E00E94C2138C0164E085E842
:1038B00093E00E94C213EC0184E10E94610A801728
:1038C0009107B8F4C817D907B0F49C012C1B3D0B25
:1038D000C8018C1B9D0B64E670E00E94643CC9012A
:1038E0000E94643C6436710510F063E670E0862F38
:1038F00003C083E601C080E0DF91CF911F910F915B
:103900000895CF93DF930E944C1C9091E603981783
:10391000E0F48093E6030E941B1C2091E9033091A0
:10392000EA03EC01C21BD30B0E941B1C9093EA0319
:103930008093E9038091EB039091EC038C179D0732
:1039400020F4D093EC03C093EB03DF91CF91089563
:103950000E94811C8091E803882311F089E601C050
:1039600084E690E02091E603821B91092091EB030D
:103970003091EC03AC01429FC001439F900D529FD8
:10398000900D11240895CF932091490330914A035B
:103990002130310549F12115310511F4C0E025C070
:1039A0002430310529F48091E70381110AC0F6CF54
:1039B0002230310519F4C091E70317C023303105D7
:1039C000A1F485E00E946A0ABC0185E00E94CE0B4A
:1039D00020914B0330914C03A90152508417950755
:1039E000E8F22817390708F4C1E08C2FCF910C9426
:1039F00075050E944C1C8093E6031092EA03109216
:103A0000E9031092EC031092EB031092E003109282
:103A1000E1031092E2031092E3031092DC03109290
:103A2000DD031092DE031092DF03089568E572E073
:103A300080E00E94320C9093DB038093DA0361E014
:103A400085E893E00E94C213BC016854744F693743
:103A500029E6720710F068E779E680E00E94320CF0
:103A6000813C2FEF920710F080EC9FEF9093D903E9
:103A70008093D8030E94040B8093E8030E94C4340F
:103A80009093E5038093E4030E94F91C81E0809306
:103A9000E70308950E941B1C9093E5038093E403C1
:103AA0001092E70308950E94FA2081111DC00E9420
:103AB0005D1A811119C00E94D716882351F1809197
:103AC000E0039091E103A091E203B091E3038059F8
:103AD0009F4FAF4FBF4F8093E0039093E103A093BC
:103AE000E203B093E30308958091DC039091DD033A
:103AF000A091DE03B091DF0380599F4FAF4FBF4FBE
:103B00008093DC039093DD03A093DE03B093DF0387
:103B1000D2CF0895CF93DF938091E703811102C044
:103B200082E097C085E00E94610A20914D033091A8
:103B30004E033E5F2817390718F489E09AE017C052
:103B400080E00E946A0A2091D8033091D90382173D
:103B5000930758F42091DA033091DB03821793071F
:103B600060F40E94571A882341F089E19AE090930B
:103B700044038093430380E06CC0C091E8030E943B
:103B8000040BC81719F08AEF99E0F1CFC091C50373
:103B9000D091C603C851DC4F0E94180BC817D90733
:103BA00018F48FEE99E0E3CF86E00E94610A20913D
:103BB0006B0330916C038217930718F480EE99E041
:103BC000D6CF89E10E94610AEC0185E893E00E946A
:103BD0008B14883E2DEF920731F0C817D90718F0E3
:103BE00080ED99E01BC0C0918F03D0919003C83E37
:103BF00083E0D807C8F46091DC037091DD03809105
:103C0000DE039091DF0320E63AEE40E050E00E94B0
:103C1000783C2C173D0740F085EC99E090934403E5
:103C20008093430381E015C080914F03909150032E
:103C3000892B09F475CF87E00E94610A2091510316
:103C4000309152032817390708F06ACF85EB99E0C5
:103C50008ECFDF91CF9108950E94D81B0E94FD194D
:103C60000C94D017CF93DF931F92CDB7DEB780911E
:103C7000ED03882329F0813031F40E94321A0CC000
:103C80000E94FC1B09C00E94BC18823089F0898305
:103C90000E942C1E89810CC0813051F49091C10387
:103CA000992331F082E08093ED030E948B1782E02C
:103CB0000F90DF91CF910895CF93DF930E948B17E0
:103CC00061E083E00E943C19C091C703D091C80312
:103CD0008091C003811106C00E940E0BC817D9073E
:103CE00040F40CC0CE010E9408190E94F0188823ED
:103CF00029F00E94D11B1092ED030BC060E083E01D
:103D00000E943C190E94021A81E08093CC038093A8
:103D1000ED03DF91CF9108958091EE03813029F476
:103D20008091C3039091C403089580E090E00895CA
:103D30002CE0829FC001112486509C4F0C94AB2133
:103D400082E494E00C94AB21CF93DF9300D000D0B9
:103D5000CDB7DEB782E10E94610A9A83898384E14C
:103D60000E94610A29813A81281B390B3A832983F1
:103D700087E10E94610A9C838B83CE0101960E9499
:103D8000AB210F900F900F900F90DF91CF9108957E
:103D9000EF92FF920F931F93CF93DF93F82E81E062
:103DA0008093EE030E940E0BBC012091C30330915F
:103DB000C4034091C7035091C8030F2D8AE394E0D8
:103DC0000E94C6218091C7039091C8030E940819E0
:103DD000EC0110E08CE0E82E8091C003181798F4F5
:103DE000812F0E941117BC012091C3033091C4039D
:103DF000E19EC00111240F2DAE018E509C4F0E94F8
:103E0000C6211F5FE9CF109248041092F10310926F
:103E1000470410924604DF91CF911F910F91FF90BC
:103E2000EF9008951F93CF93DF93182FEB018091AC
:103E3000C103882361F1112349F080914804811165
:103E400005C00E94C91781E080934804809148040E
:103E5000882311F08530D9F42091C3033091C40335
:103E6000203A310510F420EA30E02C173D0710F419
:103E70001092BD030E94BC188093EE038130F1F4D0
:103E80000E943E17882319F08FEF8093BF030E9492
:103E90008C1E8C179D0780F0112371F080914804CF
:103EA000853051F49091F10381E0890F8093F10303
:103EB00081E09A3020F402C01092F10380E0DF919B
:103EC000CF911F9108950F931F93CF93DF93EC0130
:103ED0000E940E0BAE01BC018AE394E00E947F2297
:103EE00010E00CE08091C003181770F4812F0E943D
:103EF0001117BC01019FC0011124AE018E509C4FCF
:103F00000E947F221F5FEECFDF91CF911F910F9113
:103F10000895CF92DF92EF92FF920F931F93CF936A
:103F2000DF936091C7037091C8038AE394E00E9415
:103F3000EB218C018091C7039091C8030E9408195E
:103F40007C01D12C9CE0C92E8091C003D81698F436
:103F5000CD9CE0011124CE50DC4FB701CE010E9470
:103F6000EB210817190728F0B701CE010E94EB21B9
:103F70008C01D394E9CFC801DF91CF911F910F91AC
:103F8000FF90EF90DF90CF9008950F931F93CF9302
:103F9000DF93EB012091C5033091C6038C012817F4
:103FA000390708F489010E948C1E9C018017910733
:103FB00008F49801C217D307E1F040914804453056
:103FC000D1F42C173D07B8F082179307A0F4809125
:103FD000C3039091C4038C179D0758F04091EF03E1
:103FE0005091F0038091A0039091A10348175907C5
:103FF00011F4CE0109C08091A0039091A103909388
:10400000F0038093EF03C901DF91CF911F910F91CE
:1040100008950F931F93CF93DF93EC010E940E0B33
:1040200090933B0480933A04D0933D04C0933C04A6
:1040300010E00CE08091C003181770F4812F0E94EB
:104040001117019FF0011124EE50FC4F91838083E2
:10405000D383C2831F5FEECFDF91CF911F910F916A
:1040600008951F93CF93DF93182FEB010E941D0B30
:10407000811108C01123E1F12091460430914704D9
:10408000232BB1F10E94D716811132C0CE010E94BC
:10409000631FCE010E9409200E94891F8C179D0773
:1040A00008F048C09C012C0F3D1F36952795309392
:1040B000470420934604BE01809146049091470432
:1040C0000E94C51F90934704809346049091480432
:1040D000923009F1A8F49923C1F0913039F51123F8
:1040E00039F083E08093480410924704109246040C
:1040F0008091460490914704DF91CF911F910895DC
:10410000933061F0943081F011C0112389F30E9443
:10411000C91781E00CC010924804EACF10924704FE
:104120001092460484E003C0112311F385E08093CC
:104130004804DECF9093470480934604BCCF0C9490
:104140001419CF93DF930E9426190E940E0BEC01E5
:1041500062E085E893E00E94C2138C179D0730F45B
:104160008091C5039091C6030E9436218091C703B8
:104170009091C8038C179D0718F489E297E02AC034
:104180000E94830A029760F1809155039091560333
:10419000892B71F08BE10E94610AEC0185E893E0C4
:1041A0000E94A614C817D9071CF485E297E012C034
:1041B00080914F0390915003892B91F08DE10E94E3
:1041C000610A20915303309154032817390744F4AE
:1041D0008FE197E0909344038093430381E001C013
:1041E00082E0DF91CF91089581E090914D0491118B
:1041F00080E0089581E020914B0430914C04232B02
:1042000009F480E0089580914B0490914C04089546
:104210008091490490914A0408950E94130B0097DD
:1042200011F481E090E09C0140E050E060E074E82F
:1042300087ED97E10E94783C21328EE438074105F2
:10424000510520F020E23EE440E050E0C90108952D
:10425000813020EC920710F080E090EC90934C04B9
:1042600080934B040E9498050C94880BCF93DF93A6
:10427000EC010E940D21BC01C817D90708F4BE014A
:104280008091490490914A046817790750F49C0181
:10429000261B370B2D38310568F0BC016C587109AD
:1042A00009C09B01281B390B2D38310518F0BC01C2
:1042B00064577F4F8617970759F070934A046093AD
:1042C00049048FE00E94320CDF91CF910C94282199
:1042D000DF91CF91089580914D04882389F0109249
:1042E0004C0410924B0410924A041092490480E04E
:1042F00090E00E94282181E00E94820510924D04E6
:104300000895CF93C82F80914D04811113C0CC2301
:1043100089F080E090E00E94282110924C041092D5
:104320004B0410924A041092490480E00E948205D6
:10433000C0934D04CF91089510924C0410924B04F9
:1043400010924A041092490480E090E00E942821D3
:1043500081E00C948121FC0142815381411551057A
:1043600091F0A081B181B7FF03C0B195A195B109CA
:1043700028EE33E00E94363C9A0140E050E00E9473
:10438000783CC901089580E090E008950F93FC0106
:10439000CB01002341F04617570708F4CA01641700
:1043A000750748F407C06417750708F4CA01461773
:1043B000570708F4BA019783868391838083138219
:1043C00012821582148233872287681B790B7187CA
:1043D00060870F910895FC0186819781A285B3853E
:1043E0000084F185E02D3097D1F09B0140E050E052
:1043F000281B390B410951090E943D3C9F0144276C
:1044000037FD4095542F0E949A3C2115310581E0DB
:104410004807510524F457FD05C0C90108958FEFE1
:104420009FEF089580E090E00895DF92EF92FF9271
:104430000F931F93CF93DF93EC012A813B812417C5
:10444000350720F4FA01E21BF30B03C0F901E41B6A
:10445000F50B8C819D81969587958E179F0710F59A
:10446000E880F9802417350740F48A01021B130BFA
:10447000CB018E199F097C0105C0E61AF70A890154
:10448000041B150BC7010E94A312D82E888599859D
:104490000E94A312D81206C01D830C83F986E886F9
:1044A0001B870A87DF91CF911F910F91FF90EF90AB
:1044B000DF9008950F931F93CF93DF93EC018B014F
:1044C0009A01A885B9850E94363C2A853B8540E043
:1044D00050E00E949A3CC801A0E0B0E08217930728
:1044E000A407B5071CF41F821E8204C0021B130B15
:1044F0001F830E83DF91CF911F910F910895EF924B
:10450000FF920F931F93CF93DF93EC018B017A01FE
:104510000E941522A701B801CE01DF91CF911F9112
:104520000F91FF90EF900C945A220F931F93CF930B
:10453000DF938C01443019F0CFEFDFEF02C0C1E010
:10454000D0E00E94FA34D8011B96EC91F0E0EE0F17
:10455000FF1FEC59FD4F9C01C29FC001C39F900DEE
:10456000D29F900D112420813181820F931F91835E
:104570008083DF91CF911F910F910895EF92FF9269
:104580000F931F93CF93DF931F92CDB7DEB78C01AC
:10459000443021F0EE24EA94FE2C03C0EE24E39490
:1045A000F12C69830E94FA34D8011B96ED91FC919D
:1045B0001C976981E60FF11DE491F0E0EE0FFF1FFB
:1045C000EC59FD4F9C01E29EC001E39E900DF29ECE
:1045D000900D112420813181280F391F31832083D0
:1045E0000F90DF91CF911F910F91FF90EF90089561
:1045F000CF93DF93EC010E947933882311F08881F7
:1046000001C08FEFDF91CF910895CF93DF9300D05A
:1046100000D0CDB7DEB780E00E94580A9A83898324
:1046200081E00E94580A29813A81281B390B3A837C
:10463000298383E10E94610A9C838B83AE014F5FD3
:104640005F4F61E080E00E94AE0AAE014F5F5F4FB6
:1046500061E081E00E94AE0A0F900F900F900F90E2
:10466000DF91CF910895CF93DF93D82F63E077E068
:1046700087E197E00E941F30C0E082E10E94A10C18
:10468000882399F08FE10E94A10C8D17A1F0C11130
:104690000CC065EF76E0DD2319F087E197E002C0FA
:1046A0008CE097E00E941F30C1E00E9424358130E9
:1046B00021F780E001C081E0DF91CF910895CF9391
:1046C000DF9300D000D0CDB7DEB7862F5A83498361
:1046D0003C832B83AE014F5F5F4F61E00E94AE0AC7
:1046E0000F900F900F900F90DF91CF910895FF9250
:1046F0000F931F93CF93DF93F82E162F042F83E091
:104700000E949A33812F0E94610AEC01802F0E943F
:10471000580AAC019E01602F812F0E945F2381E027
:10472000809339030E94990BFF2039F0DF91CF91DC
:104730001F910F91FF900C940523DF91CF911F9152
:104740000F91FF900895EF92FF920F931F93CF93D5
:10475000DF93CDB7DEB72E970FB6F894DEBF0FBE4E
:10476000CDBF81E00E943323882309F441C065E96D
:1047700073E0CE0101960E94A62E8FEF8A8784E90E
:1047800090E09A8389838CE893E09D878C8789E009
:104790008E8761E0CE0101960E94FA28F82E87FDEF
:1047A00027C0082F112707FD1095F801E457FC4F8B
:1047B000E49086E08F156CF38E2D0E94A10C882367
:1047C00041F30E94990B109239036F2DCE0101968F
:1047D0000E945827882341F0F801EB57FC4F449181
:1047E0006E2D81E00E94772381E080933903D1CF41
:1047F0002E960FB6F894DEBF0FBECDBFDF91CF91DE
:104800001F910F91FF90EF9008950F931F93CF93F7
:10481000DF93CDB7DEB72E970FB6F894DEBF0FBE8D
:10482000CDBF1092670069E573E0CE0101960E944A
:10483000A62E8FEF8A8784E990E09A83898387E5A3
:1048400093E09D878C8787E08E8761E0CE0101969B
:104850000E94FA28082F87FD20C0E82FFF27E7FDD8
:10486000F095E95AFC4F1491812F0E94A10C8823E6
:1048700061F30E94990B10923903602FCE010196CB
:104880000E945827882329F0412F612F80E00E9441
:10489000772381E080933903D8CF81E0809367004C
:1048A0002E960FB6F894DEBF0FBECDBFDF91CF912D
:1048B0001F910F9108958F3019F4CB010C9428218A
:1048C000CB010C94A31AEF92FF920F931F93CF93F7
:1048D000DF93EC01443019F00FEF1FEF02C001E04D
:1048E00010E00E94FA34089F7001099FF00C189F95
:1048F000F00C11240E94FA342F8538898C0141E094
:1049000050E0B701CE010D960E94D5126D857E85CF
:104910008B85DF91CF911F910F91FF90EF900C94B9
:104920005B24AF92BF92CF92DF92EF92FF920F93F0
:104930001F93CF93DF93CDB7DEB765970FB6F8948B
:10494000DEBF0FBECDBFA82EB62E7A0180E00E943A
:104950003323882309F46BC0AA2049F00E946B21FD
:10496000E2E0CE2EFFE0DF2E00E010EC08C00E9457
:10497000D01A63E0C62E70E1D72E00E010E16BE69E
:1049800073E0CE0101960E94A62E8FEF8A872CE954
:1049900030E03A832983DC86BD86198B088B4D85F0
:1049A0006C85CE0142960E94910A2A893B893F87F5
:1049B0002E8761E0CE0101960E94FA2887FD2FC064
:1049C0008111EDCF6E857F858D2D0E945B2460E087
:1049D000CE0101960E9458278823D9F00E94990B96
:1049E000FD8AEC8A2E853F853B8B2A8BAE014E5E7D
:1049F0005F4F6B2D8D2D0E94AE0A8C2D0E94580AA0
:104A00009B8B8A8BAE014E5E5F4F6B2D8C2D0E946F
:104A1000AE0A60E070E08D2D0E945B24C0CF81E083
:104A2000AA2019F00E94812102C00E94DE1A659618
:104A30000FB6F894DEBF0FBECDBFDF91CF911F91AF
:104A40000F91FF90EF90DF90CF90BF90AF900895BF
:104A5000EF92FF920F931F93CF93DF93CDB7DEB703
:104A600029970FB6F894DEBF0FBECDBF8C017B0136
:104A7000BC01CE0101960E94A62E60E0CE010196F7
:104A80000E94FA28682F87FD10C0E82FEE0FFF0B59
:104A9000EE0DFF1D4591549181E093E00F3719070A
:104AA00009F080E00E949124E8CF29960FB6F8948F
:104AB000DEBF0FBECDBFDF91CF911F910F91FF9051
:104AC000EF9008951F93CF93DF9300D000D01F92F3
:104AD000CDB7DEB7182F6D830E94580A9A83898359
:104AE000812F0E94610A9C838B83AE014F5F5F4FD1
:104AF0006D81812F0E94AE0A0F900F900F900F9042
:104B00000F90DF91CF911F9108950F931F93CF9333
:104B1000DF93CDB7DEB72C970FB6F894DEBF0FBE8C
:104B2000CDBF182F062F6FE573E0CE0101960E94CE
:104B3000A62E8FEF8A8724EA30E03A8329831C87E8
:104B400061E0CE0101960E94FA2887FD13C0811111
:104B5000F7CF1092390360E0CE0101960E945827EA
:104B6000882321F0602F812F0E94622581E08093AD
:104B70003903E6CF2C960FB6F894DEBF0FBECDBF3B
:104B8000DF91CF911F910F9108951F93CF93DF93E2
:104B9000CDB7DEB729970FB6F894DEBF0FBECDBFF5
:104BA000182F65E673E0CE0101960E94A62E60E004
:104BB000CE0101960E94FA28682F87FD04C0812F3C
:104BC0000E948525F4CF29960FB6F894DEBF0FBE5C
:104BD000CDBFDF91CF911F910895CF93DF93CDB7D4
:104BE000DEB72A970FB6F894DEBF0FBECDBF69EAD5
:104BF00073E0CE0101960E94A62E60E0CE010196E0
:104C00000E94FA2887FD31C08A870E94A33A0E9439
:104C10008D0D8A858230A9F04CF4882379F081309B
:104C2000E1F465E773E08FE793E00FC0843091F023
:104C30007CF0853091F40E9405240FC00E94A323CC
:104C40000CC061E773E089E793E00E94282505C066
:104C500087E001C085E00E94C52581E00E94B11077
:104C60000E94B00B0E94B33AC8CF109245032A9617
:104C70000FB6F894DEBF0FBECDBFDF91CF91089580
:104C8000CF93DF93EC01842F0E94CE0B9E013695CB
:104C90002795A9014C0F5D1F8417950730F4C21B9F
:104CA000D30B21E0C817D90708F020E0822FDF914D
:104CB000CF91089568EE73E080E00E94320C2BE102
:104CC000289FB001299F700D112440E088E799E6E4
:104CD0000C944026CF93DF931F92CDB7DEB7482FB9
:104CE00068EE73E049830E94320C24E1289FB001F2
:104CF000299F700D1124498180E29EE40F90DF917D
:104D0000CF910C944026CF93DF931F92CDB7DEB79F
:104D1000482F64E670E049830E94320CBC01660FA4
:104D2000771F680F791F49818CE291E00F90DF9126
:104D3000CF910C944026CF930E943411C82F882322
:104D400041F10E945A26C82F811105C08DEE96E0D0
:104D50000E94D8301EC08FE00E946A26882329F066
:104D600082E00E946A26811106C084EE96E00E94CD
:104D7000D830C0E00EC080E10E948326882331F045
:104D800083E00E948326C82F811103C088ED96E03E
:104D9000EECF8C2FCF9108950C949B261F93CF9329
:104DA000DF93EC01162F0E94A12ECE0109960E94DE
:104DB000F822992787FD9095612F70E08617970755
:104DC00059F0EB85FC85E60FF71F84916D85DF9127
:104DD000CF911F910C94DB0CDF91CF911F9108951F
:104DE0001F93CF93DF93EC01162F82E10E94A10C59
:104DF00081110FC063E077E087E197E00E941F30E8
:104E00008B85803141F581E0DF91CF911F910C942A
:104E1000DE1A612FCE010E94A12ECE0109960E94BA
:104E2000F822992787FD9095212F30E0821793076C
:104E300091F0111108C065E08D859E85DF91CF91BD
:104E40001F910C948D380E94180B67E0DF91CF9171
:104E50001F910C94F238DF91CF911F9108951F9309
:104E6000CF93DF93EC01162F0E94A12ECE0109965D
:104E70000E94F822992787FD9095212F30E0821714
:104E8000930791F0111107C067E08B85DF91CF91F7
:104E90001F910C94DB0C8B850E94580A67E0DF9110
:104EA000CF911F910C948D38DF91CF911F91089570
:104EB000DF92EF92FF920F931F93CF93DF93EC015A
:104EC000F62E69871A8681E08D8382E0D82EEE2443
:104ED000E3948E01075F1F4F0E942435482F8230D4
:104EE00011F0843061F4E881F9810280F381E02DD2
:104EF0006F2DCE010995F986DA86ED8204C08130E6
:104F000089F0883079F0C8010E9484338111ED82E4
:104F10008D81882319F0CE010E94A5288A858F5F94
:104F20008A87DACF8FEF898781E08E838D8348303F
:104F300009F080E0DF91CF911F910F91FF90EF90EA
:104F4000DF900895CF93DF93EC010E948D358B8124
:104F50009C810E94AA360E9491356A81888199813C
:104F6000DF91CF910C945F36FC0187818F3118F46B
:104F70008F5F8783089586818F5F86830895FC0104
:104F80008781882319F08150878308958681815015
:104F9000868308950F931F93CF93DF93FC01C681FF
:104FA000D0E06D2F80E00E94873510E11C0F01E0FA
:104FB0000C0F8C2F0E944136011711F0C02FF7CF34
:104FC000DF5FD23011F0C12FECCFDF91CF911F9175
:104FD0000F9108951F93CF93DF93EC018AEC90E03B
:104FE0000E94D1391FEF8E81181721F0CE010E9447
:104FF000CA271E818F81682F70E094E075956795B0
:105000009A95E1F78F700E9487350E94243582308F
:1050100049F0843019F0813049F413C0CE010E9468
:10502000B427E1CFCE010E94BF27DDCF8830D9F66B
:105030008D81E881F981E80FF11D8F819E81890FB3
:105040008083DF91CF911F910895FC01718360836C
:10505000428334832383158280E2868317820895F6
:10506000CF93DF93EC018AEC90E00E94D1390E944B
:105070009535CE010E94A22761E08D810E9487357F
:105080000E9424358230B1F0843041F08130C1F487
:105090008AEC90E00E94CA3980E026C04D81242F1E
:1050A00030E08A8190E00197281739072CF74F5F8D
:1050B0004D83E2CF8D818823F9F281508D83DCCF3F
:1050C0008830D1F682E00E947635823048F083E065
:1050D0000E949A338AEC90E00E94CA3981E004C0B1
:1050E000CE010E94EA27C3CFDF91CF9108950895A2
:1050F000FC018CEA90E091838083128213826483A6
:1051000081E0858386830895FC012281211103C0FB
:1051100081E082830895438130E0240F311D848132
:1051200090E001972817390714F44F5F43830895DF
:10513000FC018281882319F0815082830895838144
:10514000882311F08150838308951F93CF93DF93B9
:10515000EC0110E0612F80E00E9487358A811813EE
:1051600002C08EE301C080E20E944136E881F981ED
:105170006B81610F0190F081E02DCE0109950E94B5
:105180005C361F5F123031F71D82DF91CF911F9186
:1051900008950F931F93CF93DF93EC010E94243562
:1051A000182F0E94693A882321F081E08D838FE7D0
:1051B0001CC00B818A81080F123031F0143039F491
:1051C000CE010E94842803C0CE010E9498288B81C2
:1051D0009A81890F081711F081E08D838D818823D2
:1051E00019F0CE010E94A528812FDF91CF911F9148
:1051F0000F910895EF92FF921F93CF93DF931F9229
:10520000CDB7DEB77C0181E0F701858311E0C701EE
:1052100069830E94C9286981811102C0F701168241
:10522000F7019681911108C0883031F481E08683BE
:1052300083819281890F09C0662311F0F7011583DC
:10524000813029F79111E3CF8FEF0F90DF91CF914C
:105250001F91FF90EF900895CF93DF93CDB7DEB706
:1052600029970FB6F894DEBF0FBECDBF67EB73E092
:10527000CE0101960E94A62E60E0CE0101960E940A
:10528000FA28813049F0823051F081110BC087E457
:1052900093E00E943512F0CF0E94ED25EDCF0E94E1
:1052A0003F11EACF87FFE8CF29960FB6F894DEBF0B
:1052B0000FBECDBFDF91CF910895262F443019F056
:1052C0006FEF7FEF02C061E070E0223091F028F4D0
:1052D000222349F0213051F00895243081F060F00C
:1052E000253081F008950B960C944C150B960C9478
:1052F000ED150B960C941A160B960C943E160B9605
:105300000C9449160B960C948E16EF92FF920F9305
:105310001F93CF93DF93EC018B017A016FEB73E066
:105320000E94A62E8FEF898782EB90E09983888375
:105330008AE1F801DE011B9601900D928A95E1F752
:10534000FEA2EDA2DF91CF911F910F91FF90EF9000
:1053500008950F931F93CF93DF93CDB7DEB72897B0
:105360000FB6F894DEBF0FBECDBF8C01BC01695EE5
:105370007F4F2AE737E04EE050E0CE0101960E94D1
:105380002528CE0101960E94302881E0F80185830E
:1053900028960FB6F894DEBF0FBECDBFDF91CF9138
:1053A0001F910F910895CF93DF93EC010E949535E3
:1053B0000E948D3584E797E00E94AA360E949135BD
:1053C0006EE0CE0147960E945F360E94621383E032
:1053D000DF91CF910C949A33CF93DF93EC016DA1C1
:1053E0007EA16F5F7F4F0B960E94FD13CE01DF9170
:1053F000CF910C94D329CF93DF93EC016DA17EA1C3
:105400006F5F7F4F0B960E945614CE01DF91CF91B4
:105410000C94D329DF92EF92FF920F931F93CF93B7
:10542000DF93CDB7DEB76A970FB6F894DEBF0FBE35
:10543000CDBF8C018AE1D82EC8010B967C0160E0BB
:10544000C8010E94FA2887FD30C0873041F08830BB
:1054500051F0863061F4C8010E94EC29F0CFC801F8
:105460000E94A929ECCFC8010E94FB29E8CFF701CF
:10547000DE0111969D2D01900D929A95E1F7682F0E
:10548000C8010E945827811109C0FE013196D70139
:105490008D2D01900D928A95E1F7D1CF83E00E9486
:1054A0009A33C7010E949C15CACF6A960FB6F8942A
:1054B000DEBF0FBECDBFDF91CF911F910F91FF9047
:1054C000EF90DF9008951F93CF93DF93EC01162F99
:1054D0000E94A12ECE0109960E947933882311F0F3
:1054E000298501C02FEF332727FD3095812F90E0CC
:1054F00028173907B1F11230F9F058F41123A9F047
:10550000113079F5CE010B96DF91CF911F910C945C
:10551000DC141430F9F0B8F0153019F5CE010B9603
:10552000DF91CF911F910C947D16CE010B96DF91E8
:10553000CF911F910C94D614CE010B96DF91CF9191
:105540001F910C940A15CE010B96DF91CF911F91FC
:105550000C94FE14CE010B96DF91CF911F910C9409
:105560000415DF91CF911F910895DC011796ED91FD
:10557000FC911897E60FF11D649183ED93E00C9474
:10558000C2360F931F93CF93DF93EC018B0180E022
:1055900061E0680FF801E80FF11DE491E83011F0C7
:1055A000862FF6CFCE010E9478288AEB90E099836F
:1055B000888318870F83DF91CF911F910F910895F2
:1055C00085E893E00E946B13833039F0823041F01C
:1055D000811109C080E694E0089587E594E008957C
:1055E00089E694E008958EE494E008950F931F9364
:1055F000CF93DF93EC010E946F140E94E02A8C018C
:1056000060E0C8010E94FA2887FD1BC0D8011796E8
:10561000ED91FC911897E80FF11D87FDFA958491A3
:10562000883061F4BE0185E893E00E942215CE0126
:105630000E947D1481E00E94B810DFCF0E94BD114E
:10564000DFCFDF91CF911F910F91089564EF73E049
:1056500089E694E00E94C12A6AEE73E080E694E055
:105660000E94C12A6EEE73E087E594E00E94C12A91
:1056700065EE73E08EE494E00C94C12A0F931F93BF
:10568000CF93DF93EC018B0160E174E00E94A62EC2
:105690008FEF898780EC90E0998388838EE3F8010F
:1056A000DE011B9601900D928A95E1F7DF91CF9173
:1056B0001F910F910895DF92EF92FF920F931F9326
:1056C000CF93DF93CDB7DEB7EE970FB6F894DEBF7A
:1056D0000FBECDBF7C018C01055F1F4F8EE3D82E1E
:1056E00060E0C7010E94FA2887FD2AC08B3139F497
:1056F000C8010E94FF1183E00E949A33F1CFF801A4
:10570000DE0111969D2D01900D929A95E1F7682F7B
:10571000C7010E945827811109C0FE013196D801A6
:105720008D2D01900D928A95E1F706C083E00E94CD
:105730009A33C8010E940512C8010E941012D0CFEE
:10574000EE960FB6F894DEBF0FBECDBFDF91CF91BE
:105750001F910F91FF90EF90DF900895262F215019
:1057600064E670E00E94643CCB01622F0E948D3899
:1057700083E40C944136262F215068EE73E00E949A
:10578000643CCB01622F0E948D3886E50C94413633
:10579000CF93DF93462F455064E670E00E94643C4F
:1057A0009B01EC01642FC9010E948D388EE20E949A
:1057B0004136CE016AE070E00E94643C862F0E9470
:1057C00017378EEE98E0DF91CF910C94AA36CF93E5
:1057D000DF93EC012B9643E6CE010E941413CE0119
:1057E000DF91CF910C94101241E043960C94141366
:1057F00044E0CD960C941413CF93DF93EC0189EF22
:10580000860F0E944A366D8586E094E0DF91CF9145
:105810000C94C236CF93DF93EC0188EF860F0E9481
:105820004A366DAD8CEF93E0DF91CF910C94C23688
:10583000CF93C62F0B960E94EF11C25024E630E0A2
:1058400040E050E00E94783C6C2FC9010E948D38E6
:1058500080E30E94413680E3CF910C944136EF9271
:10586000FF920F931F93CF93DF931F92CDB7DEB7B5
:105870007C01162FDC0117968D919C9118970E9440
:10588000C236082F60E1681BC701099669830E9430
:1058900079336981882321F0D7011996EC9101C0F1
:1058A000EFEFFF27E7FDF095212F30E0E217F30738
:1058B00009F4ECC0812F90E08B31910508F0E6C02F
:1058C000FC01EE5CFF4F0C94B93CF7018385948595
:1058D0005EC0C7010F90DF91CF911F910F91FF9094
:1058E000EF900C94FC2BD7011F968D919C915097B3
:1058F00003C0F701818992890F90DF91CF911F91A9
:105900000F91FF90EF900C94AE2BD70153968C9192
:1059100014C0F70185899689EFCFD70157968D91ED
:105920009C9158970F90DF91CF911F910F91FF900D
:10593000EF900C94C82BF701818D0F90DF91CF91E0
:105940001F910F91FF90EF900C94DF36D7015B967B
:105950008D919C915C9779C0F701858D968D75C06E
:10596000D7015F968D919C91909703C0F70181A11B
:1059700092A10F90DF91CF911F910F91FF90EF9027
:105980000C94F638D70193968D919C9194970F9033
:10599000DF91CF911F910F91FF90EF900C948D3874
:1059A0006FE0601BF70185A196A10E948D388DE6FE
:1059B0000F90DF91CF911F910F91FF90EF900C947A
:1059C0004136D70197968C91B8CFF70181A592A562
:1059D000DECFD7019B968D919C919C970F90DF9184
:1059E000CF911F910F91FF90EF900C94F238F70137
:1059F00085A596A50F90DF91CF911F910F91FF90F4
:105A0000EF900C949B38D7019F968D919C91D097E5
:105A10000F90DF91CF911F910F91FF90EF900C9419
:105A2000BB2BF70181A992A910C0D701D3968D9104
:105A30009C91D4970AC0F70185A97FCFD701D7964B
:105A40008C917BCFF70181AD92AD0F90DF91CF911B
:105A50001F910F91FF90EF900C94A438D701DB9623
:105A60008C916BCFC7010F90DF91CF911F910F9158
:105A7000FF90EF900C940A2CC7010F90DF91CF910B
:105A80001F910F91FF90EF900C94182C0F90DF91C5
:105A9000CF911F910F91FF90EF900895FC0124E6A4
:105AA000269FC001279F900D112420813181820FF4
:105AB000931F843622E0920710F484E692E09183EB
:105AC0008083808191818D3A964220F08CEA96E223
:105AD000918380830895FC012AE0269FC001279FBF
