:100000000C9484010C94AC010C94AC010C94AC01E4
:100010000C94DE030C94AC010C94AC010C94AC0178
:100020000C94AC010C9442040C940E040C9419042E
:100030000C94AC010C94BF040C94F4040C94AC012B
:100040000C94BA030C94AC010C94AC010C94AC016C
:100050000C94AC01471149114B114F114F114D1127
:1000600053115111FF0000000000050400000405B9
:10007000090000FF01010000010505000005050A57
:100080000000FF02020000020506000006050B004A
:1000900000FF03030000030507000007050C000034
:1000A000FF00000000040511020004040D0000FF21
:1000B00001010000050511040005040E00000605FD
:1000C000110100FF020200000705110800D1000025
:1000D000006F7074696F6E730080250000004B0024
:1000E000000096000000E1000000C20100010001D4
:1000F00000010001000100B0040807520300005293
:1001000003B0040807E8030000E803D0079209D60B
:100110000600006C07E40C100ED007E40CB80B10BE
:100120000E0410C409A60EAC0D740E6810B80B0AAC
:100130000F890C740ECC10B80B0A0F890C740EFECC
:1001400010B80B0A0F890C40066C0714054006789E
:10015000050100A00FD007010001000100A00F0160
:1001600000010001005C0252024D02480243023EBF
:1001700002390234022F022A0257022602CC02BDA3
:1001800002B502AB029F02970288027D026E0261F5
:100190000200090003040708090003070809000119
:1001A00002030408090001020304050608090963A3
:1001B0006865616C692D636861726765720A763182
:1001C0002E39395F323031363033323100E80301B5
:1001D000FC02E80300FA02640000F802640000F583
:1001E00002640000F302E80301F002E80301EE02FA
:1001F000010000EC02E80301FA02010000E50264DC
:100200000000E802010000E602010000E602010031
:10021000000000010000E302141719181A07050670
:100220001F20212223244C4544004E695A6E004C65
:10023000343335004C343330004C69706F004C69F6
:100240006C6F004C6966650050622020004E694D5D
:1002500048004E69436400556E6B6E004E6F6E65CC
:100260000065646974206261747465727900636109
:1002700070616369747920636865636B00443E4311
:1002800020666F726D61740073746F726167652BA5
:1002900062616C616E630073746F726167650066A2
:1002A0006173742063686172676500646973636871
:1002B000617267650062616C616E636500636861AD
:1002C0007267652B62616C616E6365006368617261
:1002D0006765006E6F6C696D697400206E6F0079E0
:1002E0006573005500006D00432F6D002500F4007C
:1002F0004168004300576800570056004100410222
:10030000D8056C0BFE0F5C1011241FBECFE5D8E0A2
:10031000DEBFCDBF10E0A0E6B0E0E4E8F0E302C04D
:1003200005900D92AC39B107D9F724E0ACE9B0E003
:1003300001C01D92A234B207E1F712E0C8E0D3E099
:1003400004C02297FE010E94F917CE3FD107C9F7DA
:100350000E94650B0C9440180C94000020E042E0D1
:1003600060E18CE990E00E945E150E943E040E94CC
:10037000B3040C944502CF92DF92EF92FF92482F84
:10038000282F30E0A0E0BDE70E94FD176B017C0143
:10039000A4E6B0E0A41BB10924E630E00E940C18EA
:1003A0006C0D7D1D8E1D9F1D24E630E040E050E069
:1003B0000E94B617B9018DE0FF90EF90DF90CF90CB
:1003C0000C949D04882311F0909A089590980895B4
:1003D000811102C0969A089596980895811102C0DD
:1003E000929A089592980895811106C0939A0E9456
:1003F000E80180E00C94EE0193980895BC018EE032
:100400000C949D04BC018EE00C949D0480FF02C0FE
:10041000C09A01C0C09881FF02C0C19A01C0C198B2
:1004200082FF02C0C29A01C0C29883FF02C0C39A71
:1004300001C0C39884FF02C0DE9A01C0DE9885FF28
:1004400002C0DF9A0895DF98089580E00E94F401C9
:1004500080E00E94E20180E00E94290480E00E9486
:1004600006028C9A8B9A889A8F9AB89AB99ABA9AF5
:10047000BB9AD69AD79A8D9A8E9A8D9A8A9A08950F
:1004800008958CE990E00C94B315D598D498DD9834
:10049000DC98BF9ABE9ABD9A8EEA86B9369A0895BC
:1004A00034B145B1E091AD00E13131F12FB7F894AD
:1004B000832F90E0942BF0E0DF01AA0FBB1FA7551C
:1004C000BD4F11969C938E933091A500332391F0EC
:1004D000EE0FFF1FEE0FFF1FE553FD4F40815181CF
:1004E00062817381480F591F611D711D40835183C3
:1004F000628373832FBF08952091AE003091A200D4
:1005000047FD02C0232B02C0209523232093A20085
:1005100008950E94710F9093C8028093C7020E94B1
:100520001F0E9093CA028093C9028091A500882370
:1005300009F481C00E94710F409107035091080394
:100540006091090370910A03480F591F611D711DC5
:1005500040930703509308036093090370930A03C1
:100560000E941F0E40910B0350910C0360910D03EC
:1005700070910E03480F591F611D711D40930B03AD
:1005800050930C0360930D0370930E0380910F033F
:1005900090911003019709F04CC08091D302909183
:1005A000D402A091D502B091D602B695A7959795A1
:1005B00087958093D3029093D402A093D502B093F1
:1005C000D6028091CB029091CC02A091CD02B09145
:1005D000CE02B695A795979587958093CB02909379
:1005E000CC02A093CD02B093CE028091CF02909125
:1005F000D002A091D102B091D202B695A79597955D
:1006000087958093CF029093D002A093D102B093AC
:10061000D2028091D7029091D802A091D902B091D4
:10062000DA028093D7029093D802A093D902B093B4
:10063000DA020C947C080895809131039091320382
:10064000892BE9F04091AA004423C9F081E090E0B1
:100650000090A70002C0880F991F0A94E2F720912A
:100660000F03309110032F703FB7F8945BB39BB327
:10067000982B9BBB240F2A95F1F75BBB3FBF0895D6
:100680008091A4008F5F853108F080E08093A40002
:1006900085E0E6EAF0E0ABEAB0E001900D928A95E1
:1006A000E1F76091A4006F5F653108F060E085E0DC
:1006B000689FB00111246C597F4F45E050E086EAF5
:1006C00090E00E941E188091A40081110CC00E942D
:1006D000890280910F039091100321E0892B09F486
:1006E00020E02093A5000895CF93DF930E9450024D
:1006F0008091A30091E0980F9093A300873079F147
:1007000018F4882359F033C0883069F1893079F5BD
:100710001092A300DF91CF910C9440038091A6002A
:1007200087FD25C02FB7F8949091A60088B3392F84
:100730003170C32F30E0D32FCC0FDD1FCC0FDD1F66
:1007400092FB332730F9C32B9270C92B90E2C90278
:10075000E00111248F718C2B88BB2FBF08C0DF9163
:10076000CF910C941C038091A700806287B9DF9120
:10077000CF9108951F920F920FB60F9211242F93CD
:100780003F934F935F936F937F938F939F93AF9319
:10079000BF93EF93FF930E947403FF91EF91BF917A
:1007A000AF919F918F917F916F915F914F913F9109
:1007B0002F910F900FBE0F901F9018951F920F92C0
:1007C0000FB60F9211242F933F934F935F936F9324
:1007D0007F938F939F93AF93BF93EF93FF930E9469
:1007E0008511FF91EF91BF91AF919F918F917F9173
:1007F0006F915F914F913F912F910F900FBE0F908E
:100800001F90189588E085BD85B5846085BD14BCB2
:100810008CE783BD89B7806889BF08951F920F92C6
:100820000FB60F921124979A0F900FBE0F901F9042
:1008300018951F920F920FB60F9211248F939798CD
:100840008091B00082BF8F910F900FBE0F901F90CC
:100850001895811104C013BE12BE9798089590E0B8
:100860009595879528E7280F2093B00088589E4FCC
:10087000959587958CBF8CE483BF089589B7836075
:1008800089BF08951F920F920FB60F9211242F93D4
:100890003F938F939F932091B7003091B800809140
:1008A000B3009091B400820F931F9093B400809393
:1008B000B3002091B5003091B6008091B1009091C5
:1008C000B200820F931F9093B2008093B1002FB7B4
:1008D000F8948091B3009091B40035E09695879597
:1008E0003A95E1F79BBD8ABD8091B1009091B2002D
:1008F00035E0969587953A95E1F799BD88BD2FBF6C
:100900008091B3009091B4008F7199279093B400B7
:100910008093B3008091B1009091B2008F719927BC
:100920009093B2008093B1009F918F913F912F914E
:100930000F900FBE0F901F9018959FB7F8948E30B0
:1009400039F47093B8006093B7008FB5806808C021
:100950008D3039F47093B6006093B5008FB5806226
:100960008FBD9FBF089580E094E097BD86BD82E073
:100970008FBD89E18EBD89B7846089BF08951F92BC
:100980000F920FB60F9211242F933F934F938F9393
:100990009F93EF93FF935A991AC04CB18091CF0166
:1009A0009091D001019699272091D1013091D201E7
:1009B0008217930769F0E091CF01F091D001E153E4
:1009C000FF4F40839093D0018093CF0101C08CB141
:1009D000FF91EF919F918F914F913F912F910F90A8
:1009E0000FBE0F901F9018951F920F920FB60F9287
:1009F00011242F933F938F939F93EF93FF93209115
:100A0000CF013091D0018091D1019091D20128176E
:100A1000390711F4559812C0E091D101F091D2013B
:100A2000E153FF4F20818091D1019091D201019635
:100A300099279093D2018093D1012CB9FF91EF9126
:100A40009F918F913F912F910F900FBE0F901F900C
:100A50001895CF92DF92EF92FF92CF93DF93EC0144
:100A60006A017B01411581EE580761057105F9F0B6
:100A7000E885F98581E090E00C8802C0880F991F15
:100A80000A94E2F7808360E079E08DE390E0A701CB
:100A900096010E94B6172150310941095109569516
:100AA000479537952795211580E1380798F0E88517
:100AB000F985108260E874E88EE190E0A701960164
:100AC0000E94B617215031094109510956954795A1
:100AD00037952795EC81FD813083EE81FF8120835E
:100AE0001D8AEA85FB85408181E090E09C010988B0
:100AF00002C0220F331F0A94E2F7422B4083EA859B
:100B0000FB8540819C010A8802C0220F331F0A9492
:100B1000E2F7422B4083EA85FB8520810B8802C0E7
:100B2000880F991F0A94E2F7809582238083DF91D2
:100B3000CF91FF90EF90DF90CF900895CF93DF9308
:100B4000FC0122813381D901B3958D919C9111973C
:100B500001969927E901CE5FDE4F488159818417BC
:100B60009507D9F30D90BC91A02DA20FB31F6C93E4
:100B7000A281B381B39511969C938E93A285B38580
:100B80002C9181E090E0038802C0880F991F0A949D
:100B9000E2F7282B2C9381E0858B0084F185E02DF2
:100BA00080818064808381E090E0DF91CF9108951F
:100BB0008FEC90E09093BA008093B9009093BC00C2
:100BC0008093BB0080E490E09093BE008093BD00D2
:100BD00029E230E03093C0002093BF002BE230E0E8
:100BE0003093C2002093C1002AE230E03093C40069
:100BF0002093C3009093C6008093C5008CE290E0E0
:100C00009093C8008093C70084E08093C90083E07C
:100C10008093CA0087E08093CB0085E08093CC006E
:100C200081E08093CD000895CF93DF931F92CDB7DD
:100C3000DEB7E0913E04F0913F04309711F4E2E416
:100C4000F4E0CE0101962EEB8E179F0710F0219352
:100C5000FBCF0F90DF91CF910895CF93DF9300D01A
:100C6000CDB7DEB720913E0430913F042115310508
:100C700011F422E434E0CE010196821B930B0F9015
:100C80000F90DF91CF910895CF93DF931F92CDB74F
:100C9000DEB720913E0430913F042115310511F457
:100CA00022E434E0F901AE014F5F5F4FCF01821BB8
:100CB000930B4E175F0728F060816E3B11F431965D
:100CC000F5CF0F90DF91CF910895009741F0EFE9B4
:100CD000FFE03197F1F700C000000197F6CF0895CB
:100CE0008436910538F064E670E00E94A217CB01CB
:100CF0000C946506009731F025E32A95F1F7000082
:100D00000197F8CF08956AE070E00E94A217CB0126
:100D10000C947006E82FF0E0EE0FFF1FE957FD4F2F
:100D2000808191810895E82FF0E0EE0FFF1FE35CD2
:100D3000FD4F8081918108952FB7F894E82FF0E05E
:100D4000EE0FFF1FE755FD4F808191812FBF089562
:100D50008091120308958091F1019091F20108951C
:100D6000262F613110F4423040F021E030E0FC01E8
:100D70003383228331832083089550E0BA01620FC8
:100D8000711D620F711D660F771F660F771F625FFF
:100D90007F4F44E050E00C9430182FB7F89480E077
:100DA00090E0FC01EE0FFF1FEE0FFF1FE553FD4F1C
:100DB000108211821282138201968131910589F786
:100DC00084E690E09093100380930F031092110338
:100DD0002FBF0895CF93CFB7F8941092F0011092DF
:100DE000EF011092EB011092EC011092ED011092C4
:100DF000EE011092E7011092E8011092E9011092C1
:100E0000EA011092E3011092E4011092E5011092C0
:100E1000E6010E94AD119093DE018093DD01CFBF0A
:100E2000CF9108950E94EA061092E2011092E1012A
:100E30001092E0011092DF010895E3EFF1E01192CA
:100E4000119282E0ED33F807D1F70895CF93CFB731
:100E5000F89481E090E09093100380930F038093C7
:100E600011030E941D07CFBFCF910895CF93DF9349
:100E70000E942607C091F101D091F2018091F10109
:100E80009091F201C817D90729F48AE090E00E94F6
:100E9000D311F4CFDF91CF9108958F929F92AF92AB
:100EA000BF92CF92DF92EF92FF92CF93DF93CDB7B5
:100EB000DEB728970FB6F894DEBF0FBECDBFF82E71
:100EC0005B016115710509F445C040E0682FCE0152
:100ED00005960E94B00641E06F2DCE0101960E945A
:100EE000B0062B813C8140E050E0CF80D884E12CDB
:100EF000F12C2C193D094E095F09B50180E090E005
:100F00008D809E80A12CB12C681979098A099B09D2
:100F10000E94921729813A8140E050E0281939094E
:100F20004A095B090E94D8172C0D3D1D4E1D5F1DFF
:100F300057FD0BC02115310581E04807510544F0EC
:100F40002FEF3FEF40E050E003C020E030E0A90188
:100F5000C90102C080E090E028960FB6F894DEBF89
:100F60000FBECDBFDF91CF91FF90EF90DF90CF907C
:100F7000BF90AF909F908F9008958250893130F448
:100F8000E82FF0E0E559FF4F8081089581E0089552
:100F9000CF93C82F833149F481E0209167023091CB
:100FA00068022331310581F412C00E94BD078130EF
:100FB00069F4EC2FF0E0EE0FFF1FE35CFD4F2081A2
:100FC00031812139314018F480E001C081E0CF91B6
:100FD0000895EF92FF920F931F93CF93DF931F9289
:100FE000CDB7DEB79FE101E010E0E12CF12C892FB5
:100FF00099830E94C8079981882311F0E02AF12A79
:10100000000F111F9F5F953291F7C7010F90DF917D
:10101000CF911F910F91FF90EF9008952FB7F89403
:101020006091D8017091D9018091DA019091DB0132
:101030002FBF20E03DE740E050E00E94B617C90115
:1010400008952FB7F8946091D4017091D5018091E3
:10105000D6019091D7012FBF969587957795679583
:1010600020E03DE740E050E00E94B617C901089536
:1010700040916B0250916C028091D8019091D901FE
:10108000A091DA01B091DB01840F951FA11DB11D64
:101090008093D8019093D901A093DA01B093DB013A
:1010A0008091D301815019F08093D301089582E398
:1010B0008093D3012091610230916202DA010E9493
:1010C000FD1724E630E040E050E00E94B617809122
:1010D000D4019091D501A091D601B091D701820F92
:1010E000931FA41FB51F8093D4019093D501A093A3
:1010F000D601B093D701089580910F03909110030A
:10110000892B49F080910F039091100301979093E0
:10111000100380930F03089590E0880F991FFC013E
:10112000E35CFD4F208131816217730718F4261BA1
:10113000370B04C0AB01421B530B9A01FC01ED506D
:10114000FE4F2730310518F01182108206C0208131
:1011500031812F5F3F4F31832083FC01E35CFD4FE2
:101160007183608308958FB7F8941092D80110921C
:10117000D9011092DA011092DB011092D401109281
:10118000D5011092D6011092D70192E39093D3012A
:101190008FBF0E9426070E94120760E070E089E17D
:1011A0000E948C0860E070E08BE10E948C0860E097
:1011B00070E08CE10E948C0860E070E08DE10C949E
:1011C0008C081092F2011092F1010C94B3089091E6
:1011D000120391110BC00E94F4010E94E10881E00A
:1011E00080931203809360000C94360708950C944A
:1011F000E108CF92DF92EF92FF920F931F93CF936C
:10120000DF931F92CDB7DEB700913D0210913E02F1
:1012100080913F02909140028017910718F4081BBB
:10122000190B02C000E010E0B80182E10E948C08B6
:101230004FE4E42E42E0F42E9FE1F70161917191B9
:101240007F01892F99830E948C0899819F5F953235
:10125000A1F70E94E9077C01EBE7F2E080E090E073
:10126000C12CD12C41E050E09A01082E02C0220F7F
:10127000331F0A94E2F72E213F21232B21F02081F6
:101280003181C20ED31E019632968630910561F7E8
:10129000B60183E10E948C08C114D10481F0C0160C
:1012A000D10620F4C8018C199D0903C0C601801B1A
:1012B000910B893B9B4018F4860193E103C092E1B6
:1012C000E12CF12CB80184E199830E948C08B701CC
:1012D00086E10E948C089981692F70E085E10E9467
:1012E0008C080E94130E882329F0E0904302F090AE
:1012F00044020BC00E94650F882329F0E090410250
:10130000F090420202C0E12CF12C9701D8010E941A
:10131000FD1720E137E240E050E00E94B617B90126
:1013200088E10E948C08B70187E10E948C080E9426
:101330000E08BC0189E10E948C080E942108BC01B2
:101340008AE10F90DF91CF911F910F91FF90EF9065
:10135000DF90CF900C948C081F93CF93DF93182FBE
:10136000C82FD0E0FE01EE0FFF1FEE0FFF1FE55369
:10137000FD4F608171818281938128EE33E040E0EE
:1013800050E00E94B617FE01EE0FFF1FE957FD4F18
:1013900031832083B901812F0E944D07BC01812F29
:1013A000DF91CF911F910C948C084F925F926F92B6
:1013B0007F928F929F92AF92BF92CF92DF92EF92E5
:1013C000FF92CF93DF93CDB7DEB728970FB6F8948F
:1013D000DEBF0FBECDBF0E94AD112091DD01309167
:1013E000DE01821B930B8133954708F4A4C04FB7ED
:1013F000F8942091EF013091F001A8EEB3E00E9443
:10140000FD176B017C01F694E794D794C794409044
:10141000EB015090EC016090ED017090EE01609155
:10142000E7017091E8018091E9019091EA018090D3
:10143000E3019090E401A090E501B090E6014FBF78
:101440006D837E838F8398870E94EA062091E10155
:101450003091E2012F5F3F4F3093E2012093E10191
:101460006D817E818F819885A70196010E94B617B4
:1014700029833A834B835C83C301B201A7019601A0
:101480000E94B617B90180E00E944D073C016981B6
:101490007A8181E00E944D078615970518F4681A35
:1014A000790A02C0612C712C40907502509076022E
:1014B0006414750420F48091DC01811104C0B3012F
:1014C0008CE10E948C08B301641975098BE10E94BC
:1014D0008C08C501B401A70196010E94B617B90195
:1014E00087E00E944D072091DF013091E001909349
:1014F000E0018093DF01BC01621B730B660F771F55
:101500008DE10E948C08B6018EE128960FB6F89402
:10151000DEBF0FBECDBFDF91CF91FF90EF90DF9088
:10152000CF90BF90AF909F908F907F906F905F9083
:101530004F900C948C0828960FB6F894DEBF0FBE1F
:10154000CDBFDF91CF91FF90EF90DF90CF90BF9014
:10155000AF909F908F907F906F905F904F90089585
:10156000CF932FB7F89480910F03909110032FBF62
:10157000892B09F091C08091110381118AC080915B
:101580001203882309F47EC08091F1019091F20149
:1015900001969093F2018093F1014091CB0250911A
:1015A000CC026091CD027091CE02769567955795E9
:1015B00047958091EB019091EC01A091ED01B091E4
:1015C000EE01840F951FA61FB71F8093EB01909328
:1015D000EC01A093ED01B093EE014091CF02509148
:1015E000D0026091D1027091D2027695679557959D
:1015F00047958091E7019091E801A091E901B091B0
:10160000EA01840F951FA61FB71F8093E7019093EF
:10161000E801A093E901B093EA014091E7025091FB
:10162000E8026091E9027091EA0276956795579514
:1016300047958091E3019091E401A091E501B0917B
:10164000E601840F951FA61FB71F8093E3019093B7
:10165000E401A093E501B093E6018091EF01909140
:10166000F00101969093F0018093EF010E94D5095B
:10167000C0E08C2F0E94AC09CF5FC131D1F70E942E
:10168000F90807C080916000882319F085E00E9466
:10169000AC09CF910C94CD06CF9108950C94B00A6B
:1016A0000E94250278940E94AE010E9402040E94CA
:1016B0009A0F0E94440E0E94F7080E9414060E948E
:1016C0009D0B0E943F100C9454100E94500B0E94DE
:1016D0006A1780E090E008956DEC70E083E193E09C
:1016E0000E94271088E890E09093140380931303DE
:1016F000E7E1F3E080818C5E80830895FC01248122
:101700002451621710F40C942210862F821B0C9423
:10171000370DDC015896ED91FC915997EE0FFF1FA4
:10172000EE0FFF1FE752FF4F6591759185919491E0
:101730000895FC0180810C94BB014EE150E06AEBFE
:1017400073E08DE193E00E9430188DE193E00C94FA
:10175000990B009761F09C0180E0F901459154914B
:101760002E5F3F4F452B11F08F5FF7CF089580E03C
:101770000895CF92DF92EF92FF92CF9397FF08C028
:1017800090958095709561957F4F8F4F9F4F07C0C3
:10179000611571058105910511F0C0E001C0C1E03E
:1017A0005AE0C52ED12CE12CF12C61157105810573
:1017B000910541F0CF5FA70196010E94D817CA0199
:1017C000B901F3CF8C2FCF91FF90EF90DF90CF90A6
:1017D000089520913B0330913C0395E0929FF001E6
:1017E000939FF00D1124E80FF11DEE0FFF1FE35141
:1017F000FF4F8591949108951F93CF93DF93182FF6
:10180000C0913F03D09140030E94E90B9C0112302C
:1018100061F480913B0390913C03029731F4C7300F
:10182000D10518F0219720EB34E02C9FC0012D9FAB
:10183000900D3C9F900D1124DF91CF911F91089541
:101840001F93CF93DF93182FC0913F03D091400394
:101850000E94E90B113029F48091450390914603D1
:101860000DC0123029F4809147039091480306C0BF
:10187000133021F48091590390915A039C012C9FBD
:10188000C0012D9F900D3C9F900D1124DF91CF91B1
:101890001F91089582E00E94FC0BBC0180E29EE44F
:1018A0000E947A0D2091290330912A0328173907C5
:1018B00008F4C901089582E00E94FC0BBC0184EC8D
:1018C00099E00E947A0D20912D0330912E03281764
:1018D000390708F4C901089580913B0390913C03B6
:1018E0000A97029750F081E00E94E90BBC0188E75B
:1018F00099E60E94A217CB01089581E090E0089537
:1019000080913D0390913E038436910530F484E646
:1019100090E090933E0380933D0380913D0390912E
:101920003E03893E9D4F30F088EE9DEF90933E033D
:1019300080933D0380914D0390914E03893E9340E7
:1019400030F088EE93E090934E0380934D030E9415
:101950006C0C20913F03309140038217930720F4D1
:101960009093400380933F0380913F039091400305
:10197000892B31F481E090E09093400380933F0302
:101980000E944A0C20914103309142038217930731
:1019900020F49093420380934103809141039091FE
:1019A00042032091490330914A038217930720F4A0
:1019B00090934A03809349030E945B0C2091430358
:1019C000309144038217930720F49093440380934B
:1019D0004303209143033091440380914B03909142
:1019E0004C032817390720F430934C0320934B0302
:1019F0008091270390912803409141035091420325
:101A00004817590720F49093420380934103409173
:101A1000490350914A034817590720F490934A0309
:101A20008093490380912B0390912C032817390749
:101A300020F4909344038093430320914B0330910F
:101A40004C032817390720F490934C0380934B03E1
:101A5000089598E2899FB001112468567F4F48E2AB
:101A600050E08BE393E00E9430180C94800CCF93ED
:101A7000C82F0E94290D20913B0330913C03232B5A
:101A800021F00E949E100E94CC1220913B033091C5
:101A90003C032A30310571F02B30310569F0232BDE
:101AA000C1F48C2F90E001960E946C128AE3CF91D2
:101AB0000C94431289E00AC065E080914103909143
:101AC00042030E9458140E94CC1284E0CF910C94DF
:101AD000601067E080913D0390913E030E94551491
:101AE0008FE20E94431280913F0390914003CF9177
:101AF0000C946C12AB019C01A8EEB3E00E94FD17A0
:101B00009A0140E050E00E94B617A8EEB3E00E94B0
:101B1000131824E630E040E050E00E94B61721158B
:101B2000310581E04807510520F02FEF3FEF40E0FD
:101B300050E0C901089580917E0390917F03892B25
:101B400099F40E94A806882381F00E94AB06209198
:101B5000630330916403821B930B9C0181E023306B
:101B6000310518F080E0089581E00895815E0C94BD
:101B70009306CF93DF93EC0180917E0390917F03D6
:101B8000892B41F0209731F40E94AB0690936403B7
:101B900080936303D0937F03C0937E030E941D074D
:101BA00080917D03811105C08C2FDF91CF910C9422
:101BB0000602DF91CF910895FF920F931F93CF9369
:101BC000DF9381E00E9440020E94E9079093820324
:101BD0008093810301E713E0C5E6D3E0F12C8F2D5C
:101BE0000E94B60DF801819391938F018993999387
:101BF000F394F6E0FF12F3CF10927F0310927E036E
:101C000010927D0380E090E00E94B90D1092640371
:101C1000109263038FEF80938003DF91CF911F9128
:101C20000F91FF90089580918703089581E020919E
:101C3000850330918603232B09F480E00895809179
:101C40008503909186030895813020E8920710F073
:101C500080E090E890938603809385030E940202BF
:101C60000C94260780918703882369F080E090E038
:101C70000E94240E109284031092830380E00E943D
:101C8000EE0110928703089581E0809387030C94FE
:101C9000320E80919003909191032091930322231F
:101CA00041F00E94B5112091900330919103821B65
:101CB000930B08950F931F93CF93DF9381E00E94BE
:101CC000200C8C0184E00E94200CEC0184E10E9435
:101CD000930680179107B8F4C817D907B0F49C0190
:101CE0002C1B3D0BC8018C1B9D0B64E670E00E9411
:101CF000A217C9010E94A2176436710510F063E6AD
:101D000070E0862F03C083E601C080E0DF91CF91B1
:101D10001F910F910895CF93DF930E945A0E9091D7
:101D200092039817E0F4809392030E94490E209149
:101D3000950330919603EC01C21BD30B0E94490E10
:101D400090939603809395038091970390919803C5
:101D50008C179D0720F4D0939803C0939703DF91CD
:101D6000CF9108950E948B0E80919403882311F0E7
:101D700089E601C084E690E020919203821B9109DC
:101D80002091970330919803AC01429FC001439F7B
:101D9000900D529F900D1124089520911F033091B2
:101DA00020032130310511F481E026C021153105D1
:101DB00011F480E021C02430310529F4809193038F
:101DC00081110AC0F6CF2230310519F480919303B6
:101DD00013C02330310581F485E00E9493062091E1
:101DE000210330912203A90152508417950708F36B
:101DF00028173907C8F208950C94E2010E94680F71
:101E000081111DC00E94160E811119C00E949B0DE8
:101E1000882351F180918C0390918D03A0918E03C2
:101E2000B0918F0380599F4FAF4FBF4F80938C036A
:101E300090938D03A0938E03B0938F0308958091A8
:101E4000880390918903A0918A03B0918B038059F4
:101E50009F4FAF4FBF4F8093880390938903A09308
:101E60008A03B0938B03D2CF08952CE0829FC001E8
:101E700011248F559C4F0C94AB0F89EE93E00C947A
:101E8000AB0FCF93DF9300D000D0CDB7DEB782E1A8
:101E90000E9493069A83898384E10E949306298194
:101EA0003A81281B390B3A83298387E10E949306E4
:101EB0009C838B83CE0101960E94AB0F0F900F90F5
:101EC0000F900F90DF91CF9108958091F1030895C5
:101ED00081E02091EF033091F003232B09F480E09F
:101EE00008958091EF039091F0030895813020E8E8
:101EF000920710F080E090E89093F0038093EF0356
:101F00000E94FE010C9426078091F103882389F03A
:101F100080E090E00E94760F1092F0031092EF03A1
:101F20001092EE031092ED0380E00E94E8011092FF
:101F3000F10308951092F0031092EF031092EE0354
:101F40001092ED0380E090E00E94760F81E0809394
:101F5000F1030C94840FFC0142815381411551051A
:101F600091F0A081B181B7FF03C0B195A195B109EE
:101F700028EE33E00E940C189A0140E050E00E94E5
:101F8000B617C901089580E090E008950895FC0116
:101F90008EE890E09183808312821382648381E0D3
:101FA000858386830895DC011796ED91FC9118973F
:101FB000E60FF11D64918DE791E00C94A4120F934C
:101FC0001F93CF93DF93EC018B0180E061E0680FFA
:101FD000F801E80FF11DE491E93011F0862FF6CFFA
:101FE000CE010E94C70F84E990E099838883188707
:101FF0000F83DF91CF911F910F9108956EEA71E0E9
:102000008FE194E00E94DF0F65EA71E086E194E0E1
:102010000E94DF0F69E971E08DE094E00E94DF0F1C
:102020006EE971E084E094E00E94DF0F63E971E003
:102030008BEF93E00E94DF0F61E971E082EF93E0A4
:102040000C94DF0FFC01878190850C94A4120F93F0
:102050001F93CF93DF93EC018B01CB010E94A90B5F
:10206000682FCE010E94C70F8AE990E09983888388
:1020700018870F83DF91CF911F910F9108950C94D2
:102080005E14CF93DF9300D0CDB7DEB789839A83F8
:102090000E943F120E94371289819A810F900F90FF
:1020A000DF91CF910C948C128FEA91E00E94411045
:1020B00088EE93E00C94BF118FEF8093280408956D
:1020C000FF920F931F93CF93DF93F82E80E00E942F
:1020D000FC0B8C0120913B0330913C032A503109C9
:1020E0002230310558F481E00E94200C6F2DDF91E1
:1020F000CF911F910F91FF900C945B14C0913F03FF
:10210000D0914003CA3010F488E001C089E0F81A89
:102110008F2D0E94C81265E0C8010E945B148FE2F7
:102120000E944312CE0199270E946C1283E4DF9132
:10213000CF911F910F91FF900C94431260913B033C
:1021400085E691E00C94A4129C01462F50E0FA0120
:10215000EE0FFF1FE217F30764F04217530724F452
:10216000862F880F821B08951216130614F4822FEF
:10217000089580E00895969587958531910518F426
:102180006AE00C94A41088E080932A0480E008950B
:102190001F93CF93DF93EC01D695C795D695C7953E
:1021A000C93CD1052CF088E080932A0480E00BC064
:1021B0006AE0CE010E94A410182F6AE0CE01889731
:1021C0000E94A410810FDF91CF911F91089560EDBF
:1021D00077E00E94A2176AE00C94A4106AE070E015
:1021E0000E94A217CB016D38710518F464E10C94BC
:1021F000A41088E080932A0480E008956AE070E0EB
:102200000E94A217CB01683B21E0720738F468E214
:1022100070E00E94A21764E10C94A41088E08093FF
:102220002A0480E008956AE070E00E94A217CB01C2
:102230006135710538F468E270E00E94A21764E12C
:102240000C94A41088E080932A0480E008956AE04A
:1022500070E00E94A217CB01683B21E0720738F4BE
:1022600068E270E00E94A21764E10C94A41088E078
:1022700080932A0480E0089540912A0450E0483079
:10228000510598F4FA01E65DFF4F0C94F7170C9492
:10229000BB100C94E7100C94EE100C94FE100C94F0
:1022A000C8100C9413110C94271180E008950E941B
:1022B000B11120912D0430912E04821B930B0E94AA
:1022C0003C11282F30E040912B0450912C0424170E
:1022D000350731F030932C0420932B040C942904FF
:1022E00008952FB7F89460912F0470913004809175
:1022F0003104909132042FBF08950E94CD0E0E94A8
:1023000050170E9457110C944E0B80912F049091FE
:102310003004A0913104B09132040196A11DB11D89
:1023200080932F0490933004A0933104B09332042F
:1023300080916100815019F080936100089581EED1
:10234000809361000E9438080C94FE0E0E94711167
:10235000969587957795679508950E94A611CB016C
:1023600008950E947111CB0108950E94A61128EED4
:1023700033E040E050E00E94B617C90108950F9382
:102380001F93CF93DF93EC010E94A6118B010E9453
:10239000A611601B710B6C177D07C8F3DF91CF91FD
:1023A0001F910F9108950F931F93CF93DF93EC012B
:1023B0000E94A6118B010E947D110E94A611601B34
:1023C000710B6C177D07B8F3DF91CF911F910F91BF
:1023D00008958F929F92AF92BF92CF92DF92EF9229
:1023E000FF920F931F93CF93DF936B017C01EA0160
:1023F00097FF0BC08DE28883F094E094D094C09452
:10240000C11CD11CE11CF11C2196C701B6010E9420
:10241000B90BC80FD11D18828E018AE0882E912C2D
:10242000A12CB12CC701B601A50194010E94D817B7
:10243000605DF80162938F0169017A01C114D104D2
:10244000E104F10479F7CE01DF91CF911F910F9153
:10245000FF90EF90DF90CF90BF90AF909F908F90C4
:102460000895462F682F8CE990E00C94F51460E0F5
:1024700080E00C94311261E080E00C9431128CE920
:1024800090E00C94EE148A3011F40C943B12682FF7
:102490008CE990E00C94B515FF920F931F93CF93A6
:1024A000DF93EC01F12C009781F0062F112707FD37
:1024B00010952F2D30E0201731073CF4F3948991CB
:1024C000882319F00E944312F4CF8F2DDF91CF9112
:1024D0001F910F91FF900895CF93DF93CDB7DEB793
:1024E0002B970FB6F894DEBF0FBECDBFBC0180E0C6
:1024F00090E0AE014F5F5F4F0E94E9116BE0CE01AB
:1025000001960E944C122B960FB6F894DEBF0FBEB8
:10251000CDBFDF91CF9108951F93CF93DF930097A5
:1025200071F0182FFC018E2F811B9491EF012196E1
:10253000992331F0892F0E944312FE01F4CF80E0ED
:10254000DF91CF911F910895860F911D860F911DE8
:10255000FC01859194910C948C120F931F93CF934F
:10256000DF931F92CDB7DEB7082F10E016173CF4AB
:10257000802F69830E9443121F5F6981F7CF862FE6
:1025800067FD80E00F90DF91CF911F910F9108952B
:10259000682F80E20C94AD1281E00C94C8120F9366
:1025A0001F93CF93DF931F92CDB7DEB78C01FC0151
:1025B00001900020E9F73197E81BF90B862F8E1B5D
:1025C00069830E94C8126981C8010F90DF91CF9181
:1025D0001F910F910C944C121F93CF93DF93CDB7A3
:1025E000DEB72B970FB6F894DEBF0FBECDBF142F0A
:1025F000AE014F5F5F4F0E94E911612FCE0101963E
:102600000E94CF122B960FB6F894DEBF0FBECDBF3F
:10261000DF91CF911F9108954F925F926F927F92B9
:102620008F929F92AF92BF92CF92DF92EF92FF92E2
:102630000F931F93CF93DF93CDB7DEB72C970FB6D1
:10264000F894DEBF0FBECDBF4C01162F5A012223D6
:1026500079F19C01A8EEB3E00E94FD176A01E12C1C
:10266000F12CA70196010E94D81769017A01002375
:1026700041F0F094E094D094C094C11CD11CE11CB2
:10268000F11CC701B6010E94B90B8F5F90E0212FAA
:10269000332727FD30952817390754F04FEF410FA6
:1026A000C701B6010E94EC128DE60E9443124DC094
:1026B000C401B5010E94A21780E090E09E012F5F47
:1026C0003F4F7901002331F02DE22983AE014E5FA7
:1026D0005F4F01C0A9010E94E9116C0132E0A3160D
:1026E000B10478F1812F992787FD90950197960184
:1026F0002E193F092817390724F5C401B5010E9496
:10270000A2172501612C712CA3019201280F391FFA
:10271000411D511D85E6A816B10418F4A4E6B0E0E9
:1027200002C0A8EEB3E00E941318A30192010E9418
:10273000D817CA01B901A6010E94E9118EE2F6017B
:102740008083612FC7010E94CF122C960FB6F89498
:10275000DEBF0FBECDBFDF91CF911F910F91FF90D4
:10276000EF90DF90CF90BF90AF909F908F907F9031
:102770006F905F904F900895CF93C82F8DEF860F85
:102780000E94C812C11103C08BED92E002C08FED10
:1027900092E0CF910C948C12462FBC0180E090E027
:1027A0000C94EC12AF92BF92CF92DF92EF92FF9215
:1027B0000F93CF93DF9300D0CDB7DEB75C014D30E0
:1027C00069F40F900F90DF91CF910F91FF90EF90F0
:1027D000DF90CF90BF90AF900C94BC134C3031F48D
:1027E00088EEA81683E0B80670F006C0453059F4AC
:1027F000883EEDEF9E0738F089EF860F0E94C812E1
:1028000083ED92E039C0C42ED12C85E0489FF001C1
:102810001124E053FE4FE590F490C7014A83698389
:102820000E9427186981681B4A81161694F5483062
:1028300039F4B7FE05C0B194A194B10801E001C01C
:1028400000E085E08C9DF0018D9DF00D1124E15399
:10285000FE4F849195E09C9DF0019D9DF00D11240B
:10286000E353FE4F4591549121E0811101C020E0D6
:10287000C5010E940C13C7010F900F90DF91CF91FB
:102880000F91FF90EF90DF90CF90BF90AF900C949E
:102890008C120F900F90DF91CF910F91FF90EF90DE
:1028A000DF90CF90BF90AF90089545E00C94D21385
:1028B00040E00C94D21341E00C94D213FF920F939A
:1028C0001F93CF93DF93CDB7DEB728970FB6F89459
:1028D000DEBF0FBECDBF9EE0F92EF9821FE11A8345
:1028E00001E10B830C830D830E830F831887AE01E8
:1028F0004F5F5F4F60E08CE990E00E942A15F982FB
:102900001A830B830C831D831E831F831887AE01DC
:102910004F5F5F4F61E08CE990E00E942A15F982D9
:102920001A831B831C831D831E831F831887AE019C
:102930004F5F5F4F62E08CE990E00E942A15289675
:102940000FB6F894DEBF0FBECDBFDF91CF911F91C0
:102950000F91FF900895AC9881E090E00E9483066B
:10296000AC9A81E090E00E948306AC9884E690E007
:102970000C94830660FF02C0A89A01C0A89861FF6A
:1029800002C0A99A01C0A99862FF02C0AA9A01C018
:10299000AA9863FF02C0AB9A01C0AB980C94AB1429
:1029A0001F93CF93DF93EC01162F442311F0AD9AC0
:1029B00001C0AD98612F70E084E0759567958A95A8
:1029C000E1F7CE010E94BA14612FCE01DF91CF91C1
:1029D0001F910C94BA1440E00C94D01461E00E9452
:1029E000EB1480ED97E00C948306CF93DF93CDB783
:1029F000DEB728970FB6F894DEBF0FBECDBF28E034
:102A0000E3E6F0E0DE01119601900D922A95E1F7E0
:102A1000FC012481421710F04FEF420FFE01319666
:102A2000E40FF11DE40FF11D2081260F2068622FB5
:102A300028960FB6F894DEBF0FBECDBFDF91CF91C1
:102A40000C94EB14FC016181262F246021836C60BF
:102A50000C94EB14CF92DF92EF92FF920F931F939F
:102A6000CF93DF9300D0CDB7DEB77C01677088E0ED
:102A7000689FB00111246064C70149835A830E9492
:102A8000EB144981C42E5A81D52E00E010E0F601E6
:102A900061916F0141E0C7010E94D0140F5F1F4F89
:102AA00008301105A1F70F900F90DF91CF911F9182
:102AB0000F91FF90EF90DF90CF900895CF93DF9329
:102AC000EC01423018F08881886088834C831D8235
:102AD000222329F0413019F4888184608883A09AE8
:102AE000A19AA29AA39A80E593EC0E948306AD98DE
:102AF000AC9863E0CE010E94BA1484E991E10E948F
:102B0000830663E0CE010E94BA1484E991E10E9439
:102B1000830663E0CE010E94BA1486E990E00E9429
:102B2000830662E0CE010E94BA1468816062CE0121
:102B30000E94EB1484E08983CE010E942215CE010D
:102B40000E94EE1482E08A8366E0CE01DF91CF918D
:102B50000C94EB14A59AA49AFC01108220E041E0A9
:102B600060E10C945E150C94AA1541E00E94D0140B
:102B700081E0089508958DE193E00E94890BAB01F7
:102B8000BC0189EB90E00C942905CF93C82F682FE6
:102B900089EB90E00E949E05909135049C279093CC
:102BA0003504CF91089580916200813059F480916D
:102BB000330390913403892B29F00E94BB1582E0E6
:102BC0008093620008958BE30C94C515CF93DF9337
:102BD000EC018991882319F00E94C515FACFDF9185
:102BE000CF910895CF93DF93CDB7DEB72F970FB670
:102BF000F894DEBF0FBECDBFAE014F5F5F4F0E94A6
:102C0000E911CE0101960E94E6152F960FB6F894B1
:102C1000DEBF0FBECDBFDF91CF910895CF93DF937D
:102C2000EC011092350484E20E94C515BE0180E0DB
:102C300090E00E94F2150E94E31560911C0370E081
:102C40006F5F7F4F882777FD8095982F0E94F21540
:102C50000E94E31560913604709137048091380426
:102C60009091390428EE33E040E050E00E94B6171E
:102C700044275527CA01B9010E94F2158EE20E942D
:102C8000C515609136047091370480913804909195
:102C9000390424E630E040E050E00E94B617CA0153
:102CA000B9012AE030E040E050E00E94B6170E94EF
:102CB000F215DF91CF910C94E3158DE00E94C515BC
:102CC0008AE00C94C5156091350470E080E090E0D6
:102CD0000E94F2150C945D16CF93DF9381E090E093
:102CE0000E940E16C8E1D2E0FE0184910E94930674
:102CF000BC0180E090E00E94F2150E94E31521964D
:102D0000F2E0C632DF0781F7C0E08C2F0E94350F5A
:102D1000BC0180E090E00E94F2150E94E315CF5FB5
:102D2000C63099F70E943D0FBC0180E090E00E9400
:102D3000F2150E94E3150E94410FBC0180E090E073
:102D40000E94F2150E94E3150E945A0E682F70E04F
:102D500080E090E00E94F2150E94E3150E94B20EFE
:102D6000BC0180E090E00E94F2150E94E315DF9123
:102D7000CF910C946316CF93DF93D82F82E090E02D
:102D80000E940E16C0E08C2FDD2319F00E948A06E7
:102D900002C00E949306BC0180E090E00E94F21500
:102DA0000E94E315CF5FC53271F760917E03709189
:102DB0007F0380E090E00E94F2150E94E31560E03E
:102DC00070E0CB010E94F2150E94E315DF91CF91D4
:102DD0000C94631683E090E00E940E160E94440655
:102DE000BC0180E090E00E94F2150E94E3150E9471
:102DF0002D06BC0180E090E00E94F2150E94E315D0
:102E00000C946316CF93DF93C0913303D0913403B6
:102E10000E946C16C230D1056CF081E0C430D1053F
:102E20000CF480E00E94BB16229721F0DF91CF9135
:102E30000C94EA16DF91CF9108950F931F93809120
:102E40006200813051F10E94A6112091620022306F
:102E500051F460933A0470933B0480933C04909344
:102E60003D041092620000913A0410913B042091BD
:102E70003C0430913D04DC01CB01801B910BA20B83
:102E8000B30B8093360490933704A0933804B09327
:102E900039041F910F910C9402171F910F910895FF
:102EA0000E94A806811105C01092340410923304C8
:102EB0000FC00E94AB0620913304309134042817D0
:102EC000390731F090933404809333040E941D1726
:102ED0000C94BA150C946C170E94D31581E00E94D3
:102EE000E7080E94DC0D60E080E00E943112C0E043
:102EF000D0E08C2F875F0E949C0667E00E94CC1375
:102F00000E94CC12C130D10521F461E080E00E9422
:102F100031122196C430D10561F784E690E00E9419
:102F2000D311E1CFDB018F939F930E941318BF91C0
:102F3000AF91A29F800D911DA39F900DB29F900D08
:102F400011240895AA1BBB1B51E107C0AA1FBB1F78
:102F5000A617B70710F0A61BB70B881F991F5A9525
:102F6000A9F780959095BC01CD010895A1E21A2E94
:102F7000AA1BBB1BFD010DC0AA1FBB1FEE1FFF1F1D
:102F8000A217B307E407F50720F0A21BB30BE40B6D
:102F9000F50B661F771F881F991F1A9469F76095B4
:102FA0007095809590959B01AC01BD01CF0108956E
:102FB000052E97FB1EF400940E94EF1757FD07D0D3
:102FC0000E94B61707FC03D04EF40C94EF175095EF
:102FD0004095309521953F4F4F4F5F4F0895909505
:102FE0008095709561957F4F8F4F9F4F0895EE0F9D
:102FF000FF1F0590F491E02D0994A29FB001B39FAB
:10300000C001A39F700D811D1124911DB29F700DF1
:10301000811D1124911D08950E94FD17B7FF089589
:10302000821B930B08950E94FD17A59F900DB49FDE
:10303000900DA49F800D911D11240895FB01DC01CA
:1030400002C005900D9241505040D8F70895FC0100
:1030500005900020E9F7809590958E0F9F1F0895A9
:10306000DC01CB01FC01E199FECF06C0FFBBEEBB4A
:10307000E09A31960DB20D9241505040B8F7089544
:04308000F894FFCFF2
:1030840001E10100004000140054000000010401AB
:10309400040101010101010100000101010101011B
:1030A40000020103000000007E0B00000000C60FB8
:0C30B40000000000D30F000000002210FC
:00000001FF
