:100000000C9495040C94BD040C94BD040C94BD0494
:100010000C94BD040C94BD040C94BD040C94BD045C
:100020000C94BD040C94E6050C947C290C94B53812
:100030000C94BD040C9431360C946F360C94BD04B2
:100040000C94E4060C94BD040C94BD040C94BD0403
:100050000C94BD040000000048A50C4C00000000FA
:100060007C6B0831850032007D09E8038000320096
:1000700057012C0100000000C0AE4E5AFC53501432
:100080003FA0540B00000000A8D5803E80186009F6
:10009000DC377017000000000000000000000000C6
:1000A00040C7370F0000000080C7300F000000007D
:1000B00040CA310F00000000E1C7340F000000000B
:1000C000B7C6400F00000000B7C6400F0300320063
:1000D0005600E803090032001A002C01FF0000005E
:1000E0000005040000040900FF01010001050500EE
:1000F00001040A00FF0202000205060002040B00D0
:10010000FF0000000305070003040C00FF030300C9
:100110000405110204040D00FF020200050511048C
:1001200005040E000605110107051108F60CF10C77
:100130003C0E2020436865616C69436861726765A5
:100140007200202020207665723A20302E33326DE6
:1001500000550100006F7074696F6E73000100013B
:10016000000100010001000A006400010002000417
:100170000010004000000100040100030008000717
:1001800000070014000700496E66007965730020BF
:100190006E6F006D56005802600265026A026E02C0
:1001A000730278027D0201000100010001000000DD
:1001B0000100B0041C075203000008071405B00436
:1001C0004006E803000008071405D0079209D60688
:1001D000000000006C07E40C100ED007E40C0000D7
:1001E000B80B100E0410C409A60E0000AC0D740E5E
:1001F0006810B80B0A0F0000890C40066C07140544
:1002000040060000DC0500980898086C07102701DC
:10021000980898086C07010002980898086C070174
:1002200000039808DC006C07060004980898086C26
:1002300007030005980898086C07030006980898BB
:10024000086C07030007980898086C070300756E90
:100250006C696D6974656400556E6B6E6F776E00C6
:100260004E694364004E694D480050623F004C693E
:100270006665004C696C6F004C69706F004E695A7E
:100280006E00A302AA02AF02B402B902BE02CC02FF
:10029000000045646974206E616D653A004E616DC1
:1002A000653A004261743A202000563A202000430B
:1002B000683A200049633A200049643A200020202F
:1002C000637265617465206E616D65002020206534
:1002D000646974206E616D65004368434253424215
:1002E0006C446946435374534243684469437943B9
:1002F000594368446945420020202D2D2020004CA0
:10030000696D6974733A200074696D653A20202024
:10031000202000622000202000626174742E205290
:100320003D00776972657320523D0056696E7075A5
:10033000743D00206C696D69743D00566F757420C2
:100340003D005662616C2E3D00546578743D002D71
:100350000054696E743D0070726F6772616D206346
:100360006F6D706C6574650054696D653A2020206E
:100370002000726561736F6E3A20006D6F6E697454
:100380006F72206572726F72006E6F742075736584
:1003900064006D6178566F75743D0064656C7461BE
:1003A00020563D2000200020200025005465787450
:1003B0003D006E6F7420757365640064656C7461D4
:1003C00020543D200046756E6374696F6E206E6F19
:1003D0007400696D706C656D656E74656420796517
:1003E0007400706C656173652063616C6962726131
:1003F0007465006265666F726520757365005245AD
:10040000564552534520504F4C41524954590020B3
:100410002020205741524E494E47202020202000C6
:1004200042616C616E636572206E6F742E636F6ED5
:10043000002020686F6C6420627574746F6E2020D9
:10044000200020746F2053746172742F73746F7066
:10045000202000202043616C6962726174696F6EB4
:100460002020200020202020204552524F522020C2
:10047000202020200046554C200025200084207894
:1004800020882056206C696D6974002D64560064C4
:10049000542F6474004D21562119217E218521DAC3
:1004A000213F220D22132270227E2287220106077D
:1004B0000D050002060708090B0C0D0405030002D8
:1004C00010060708090B0C0D0405030002100A0EA4
:1004D0000F0B0C0D040503000210060708090B0C96
:1004E0000D0405030002100F0B0C0D04050300069C
:1004F00007040D0500000001020304050E000102BF
:1005000003040506070E08090A0B0E0C0D0E46051E
:100510004D055C056B0573057D0589059105A005F5
:10052000000046057305AD05B705A00500004605AA
:100530004D055C056B0573057D05A00500004605AE
:100540007305A005000063686172676500636861F8
:100550007267652B62616C616E63650073757065AF
:10056000726368617267652B622E0062616C616EF6
:1005700063650064697363686172676500666173CF
:1005800074206368617267650073746F7261676578
:100590000073746F726167652B62616C616E6300DA
:1005A00065646974206261747465727900633E6485
:1005B000206379636C6500643E63206379636C65D6
:1005C00000696E7465726E20540062617420646903
:1005D000736300696E707574205600636170204308
:1005E0004F4646006578742054434F4600436F6E73
:1005F0006E656374204261747465727921005806D7
:100600005E0664066A06700676067C068206880622
:100610000000061E1F20212223120006090A0B0CCF
:100620000D0E76616C75653A2000496F75743A203D
:1006300020008E06930600008E069A060000A00693
:10064000A7060000AE06B7060000C006C806D10621
:10065000DD06E906F506000056696E3A200056628E
:10066000313A20005662323A20005662333A200076
:100670005662343A20005662353A20005662363AC5
:10068000200056312D363A00566F75743A003530D9
:100690006D4100313030306D41003330306D4100FC
:1006A00074656D703A200076616C75653A00706F04
:1006B000696E7420312E00706F696E7420322E00C6
:1006C000766F6C7461676500492063686172676565
:1006D0000049206469736368617267650074656DC1
:1006E000702065787465726E0074656D7020696E37
:1006F0007465726E0063616C69622D3E554152549F
:1007000000090712071C07000073657474696E679F
:10071000730063616C696272617465007265736510
:10072000742064656661756C740080250000004B60
:1007300000000096000000E1000000C20100460039
:100740008813701700007017640007000C00050084
:100750007800581B00000800000003008C07970772
:10076000A207AD07B907C407CB07D507DF07EB071B
:10077000F5070008090813081A0822080000432F8B
:100780006D002B0834083B0841084A086261636B1E
:100790006C696768743A0066616E206F6E3A20205B
:1007A00020006469736368206F66663A0065787438
:1007B000726E20543A20202000657874726E2054A6
:1007C000434F3A0064542F64743A004E694D4820F8
:1007D0002D64563A004E694364202D64563A004316
:1007E0002F44206379636C65733A00636170204322
:1007F0004F66663A00696E707574206C6F773A00C8
:100800006469736368202B3A0062616C2E20657204
:10081000723A00554152543A200073706565643A4B
:100820002000202020726573657400646973616222
:100830006C6564006E6F726D616C006465627567F3
:10084000006578742E20646562006578742E2041FE
:1008500064630013161817190705061E1F202122AE
:10086000237265736574696E6720656570726F6D5C
:100870003A00763A2039392E39392E393920006339
:100880000064007300000000000000000000000091
:10089000000004030005000000000000000000004C
:1008A0000000000000000000000000000000000147
:1008B0000000002040800000000000010204081039
:1008C0002040800000010204081020408000000049
:1008D00080402010080402010000010204081000FA
:1008E00002020200000000000404040404040404E2
:1008F00000000303030303030303000000010101DD
:1009000001010101010000020202020200003B009D
:1009100038003500320000003A0037003400310062
:10092000D305A80F4C20D925613711241FBECFE570
:10093000D8E0DEBFCDBF10E0A0E6B0E0E4E6F5E72A
:1009400002C005900D92A43EB107D9F714E0A4EEC1
:10095000B0E001C01D92A03AB107E1F719E0CAE288
:10096000D9E004C02297FE010E94373AC032D10775
:10097000C9F70E941D380C94B03A0C940000CF9334
:10098000DF93EC0111C061E080E10E9472398CE8D4
:1009900090E00E94FF3860E080E10E94723988E2B6
:1009A00090E00E94FF382197209769F7DF91CF915F
:1009B0000895CF92DF92EF92FF920F931F93482FEB
:1009C000282F30E0A8EBBBE00E94A9396B017C0125
:1009D000A4E6B0E0A41BB10924E630E00E94B539DA
:1009E0006C0D7D1D8E1D9F1D24E630E040E050E023
:1009F0000E94F73969017A010FEF1FEF9801A601F4
:100A00006DE089EF90E00E948E061F910F91FF909C
:100A1000EF90DF90CF900895682F89E00C947239A1
:100A2000BC0180E10C94713861E068278CE00C9483
:100A3000723961E068278FE00C94723961E06827B1
:100A40008BE00C9472390F931F930FEF1FEF9801F7
:100A5000AC016EE089EF90E00E948E061F910F912D
:100A600008950F931F930FEF1FEF9801AC016EE0F5
:100A700089EF90E00E948E061F910F910895CF9309
:100A8000C82F682F617088E20E9472396C2F6270E3
:100A900089E20E9472396C2F64708AE20E94723976
:100AA0006C2F68708BE20E9472396C2F60718FE13D
:100AB0000E9472396C2F60728EE1CF910C94723962
:100AC00061E08DE00E943A3961E08CE00E943A39A1
:100AD00061E089E00E943A3961E080E10E943A39A0
:100AE00061E088E20E943A3961E089E20E943A3985
:100AF00061E08AE20E943A3961E08BE20E943A3971
:100B000061E08FE10E943A3961E08EE10E943A395A
:100B100061E08EE00E943A3961E08FE00E943A394C
:100B200061E08EE00E943A3961E08BE00E943A3940
:100B300061E083E00E943A3961E082E00E943A3944
:100B400061E081E00E943A3960E080E20E943A3937
:100B500060E081E20E943A3980E00E94140580E062
:100B60000E940C0580E090E00E94100580E00E9449
:100B70003F0520E042E060E184EE90E00E94221612
:100B80000E9446290E9488230E94062440E052E0E9
:100B900060E070E089EF90E00E946E060E947B07A3
:100BA0000C94430C0895CF92EF920F9383E1C82EDB
:100BB00094E1E92E05E126E147E168E184EE90E069
:100BC0000E94D6160F91EF90CF9008951F920F922A
:100BD0000FB60F9211242F933F934F935F936F9310
:100BE0007F938F939F93AF93BF93EF93FF93E09186
:100BF000FC00F091FD000995FF91EF91BF91AF913D
:100C00009F918F917F916F915F914F913F912F9124
:100C10000F900FBE0F901F901895FC01A3E0440F9A
:100C2000551F661F771FAA95D1F74115510581E021
:100C30006807710514F481E00EC033E0759567957F
:100C4000579547953A95D1F74115510581E06807C9
:100C500071051CF482E0828332C023E075956795AC
:100C6000579547952A95D1F74115510581E06807B9
:100C7000710514F483E0EFCF92E075956795579571
:100C800047959A95D1F74115510581E0680771059F
:100C900014F484E0E0CF82E0759567955795479509
:100CA0008A95D1F785E082834115510581E0680777
:100CB00071050CF404C04FEF5FEF60E070E08FB798
:100CC000F8945183408357BD46BD8FBF8EB5887F52
:100CD0008EBD8EB59281892B8EBD08951FBC20E1FB
:100CE0002EBD0C940D068FB7F894613021F0693059
:100CF00011F06E3019F45BBD4ABD08C0623021F0BE
:100D00006A3011F06D3011F459BD48BD8FBF0895A0
:100D10002EB5FC018281282B2EBD0895DF92EF9223
:100D2000FF920F931F93CF93DF93EC01D62E7A019E
:100D3000101611061206130624F4B901A8010E9428
:100D40000D0681E0D81631F089E0D81619F08EE052
:100D5000D81203C08FB580680BC082E0D81631F07E
:100D60008AE0D81619F08DE0D81203C08FB58062E2
:100D70008FBDA7016D2DCE010E947306CE01DF91BC
:100D8000CF911F910F91FF90EF90DF900C94880608
:100D9000909160008917B9F08093600098B3282F74
:100DA000217030E0220F331F220F331F82FB3327C5
:100DB00030F9232B8270282B80E2289F9001112488
:100DC0009F71922B98BB08951F920F920FB60F92AE
:100DD00011240F900FBE0F901F9018958091FE0068
:100DE00008951092FF00EDEDF0E0E491E770E0620D
:100DF000E7B990E084E0989FF0011124E452FF4F9E
:100E00008491933111F09F5F01C090E087FDF2CF94
:100E10000C94C806369A08950E944C239093C701FB
:100E20008093C6010E949E239093C9018093C801BC
:100E30000C94B10BCF93DF93D82F84B195B120914F
:100E4000FF0044E0249F90011124F901E252FF4F7A
:100E5000E491E13171F04FB7F894F0E0EE0FFF1F2D
:100E6000E855FE4F392F20E0282B318320834FBFD8
:100E70000EC0F901E152FF4F24913091FE0097FD21
:100E800002C0232B02C0209523232093FE00C09193
:100E9000FF00C33111F0CF5F01C0C0E0C093FF007D
:100EA0009C2F84E0989FF0011124E452FF4F84911D
:100EB000933111F09F5F01C090E087FDF2CF0E9457
:100EC000C80644E0C49FF0011124E352FF4FE491AF
:100ED000E770E062E7B9DD2341F08091FF00811106
:100EE00004C0DF91CF910C940C078EE190E0DF916C
:100EF000CF910C94FF3861E083E00E943A3961E0C1
:100F000082E00E943A3961E081E00E943A398FE83C
:100F100086B90C94F1060E940A073699FECF0E940A
:100F2000E6070C941A070C94F106CF93DF930E9406
:100F30000F0A0E94A509C0911601D091170102C0A5
:100F40000E948B078091160190911701C817D9074D
:100F5000B9F3DF91CF910895CF92DF92EF92FF9294
:100F6000CF93DF93EC010E94A0296B017C01CC0E92
:100F7000DD1EE11CF11C0E948B070E94A0296C154C
:100F80007D058E059F05B8F3DF91CF91FF90EF901F
:100F9000DF90CF900895E82FF0E0EE0FFF1FE653AB
:100FA000FE4F808191810895E82FF0E0EE0FFF1F42
:100FB000E05AFE4F808191810895E82FF0E0EE0F16
:100FC000FF1FE855FE4F8081918108958091320284
:100FD000089580911601909117010895E82FF0E08F
:100FE000EE0FFF1FE85EFE4F808191810895613111
:100FF00010F4423040F021E030E0FC0133832283E2
:10100000318320830895242F30E0260F311D260FD1
:10101000311D220F331F220F331F2E5F3F4F44E03D
:1010200050E0B9010C946B3A282FCA01213188F4A1
:10103000623078F470E0620F711D620F711D660FEF
:10104000771F660F771F6E5F7F4F44E050E00C9470
:10105000893A0895FF920F931F93CF93DF9300D0A7
:1010600000D0CDB7DEB7F12C88E0F89E80011124C6
:10107000F801EC5AFF4F4591559165917491498360
:101080005A836B837C83AE014F5F5F4F60E08F2D8F
:101090000E941408F801E85AFF4F45915591659157
:1010A000749149835A836B837C83AE014F5F5F4F9A
:1010B00061E08F2D0E941408F39481E1F812D4CFDF
:1010C0000F900F900F900F90DF91CF911F910F9184
:1010D000FF900895E82FF0E0EE0FFF1FE05AFE4F5B
:1010E00020813181E82FE250E83170F4F0E0E459DA
:1010F000FF4F8081882319F0813061F405C081E0C1
:101100002333310540F404C081E0293E334018F414
:1011100080E0089581E00895CF93C0E08C2F825E37
:101120000E946A08882319F0CF5FC630B9F78C2F68
:10113000CF91089520918C0130918D018091000113
:1011400090910101A0910201B0910301820F931FC0
:10115000A11DB11D8093000190930101A093020194
:10116000B093030108956091000170910101809195
:101170000201909103012DE730E040E050E00E9431
:10118000F7397727652F542F432FCA010895E6E8D2
:10119000F1E080819181089580913E0190913F011D
:1011A000039750F08091440190914501039720F0FE
:1011B00083E090E00C946E0D80E0089590E0880F3D
:1011C000991FFC01E05AFE4F20813181621773079D
:1011D00018F4261B370B04C0AB01421B530B9A01BA
:1011E000FC01E85EFE4F2730310518F011821082B5
:1011F00006C0208131812F5F3F4F31832083FC0166
:10120000E05AFE4F718360830895AF92BF92CF92F0
:10121000DF92EF92FF920F931F93CF93DF931F9272
:10122000CDB7DEB7A0906001B090610102E711E098
:101230009EE1F801619171918F01892F99830E943C
:10124000DE0899819F5F9432A1F70E948C08F82EE6
:1012500080E000E010E00CC0E82FE25EF0E0EE0F6E
:10126000FF1FE05AFE4F20813181020F131F8F5F55
:101270008F11F2CFB80182E10E94DE08011511053D
:1012800049F00A151B0548F49501201B310B293E36
:10129000334018F010E0F12C02C0580112E1B50102
:1012A00083E10E94DE086F2D70E085E10E94DE0878
:1012B000612F70E084E10E94DE080E94B3088C0177
:1012C0000E948F23882329F0E0906601F090670147
:1012D0000BC00E943D23882329F0E0906401F09028
:1012E000650102C0E12CF12CB70186E10E94DE0805
:1012F000B80188E10E94DE089701D5010E94A93952
:1013000030E1C32E37E2D32EE12CF12CA701960158
:101310000E94F739B90187E10E94DE089801D501E2
:101320000E94A939A70196010E94F739B90189E104
:101330000F90DF91CF911F910F91FF90EF90DF9071
:10134000CF90BF90AF900C94DE08109231021092B3
:10135000300280E094E0899FF0011124E451FE4FB7
:1013600010821182128213828F5F813199F7089562
:10137000109213011092120110920E0110920F019F
:10138000109210011092110110920A0110920B019B
:1013900010920C0110920D0110921501109214017F
:1013A00010920901109208010E94A0296093040183
:1013B000709305018093060190930701089580E0E2
:1013C000E82FF0E0EE0FFF1FE85EFE4F1182108263
:1013D0008F5F8432A9F708950E94A5090C94DF0954
:1013E0001092170110921601109200011092010143
:1013F00010920201109203010E9493070E94EC09CF
:101400000E94B80980E0E82FF0E0EE0FFF1FE05ADD
:10141000FE4F118210828F5F8432A9F70895809168
:10142000320281110AC081E00E9414050E94F00975
:1014300081E0809332020C94950708951092320255
:1014400080E00C9414052091AA013091AB018091A9
:10145000A8019091A9018217930718F4281B390B52
:1014600002C020E030E081E0293E334008F480E013
:1014700008958F929F92AF92BF92CF92DF92EF9298
:10148000FF92CF93DF93CDB7DEB728970FB6F894CE
:10149000DEBF0FBECDBFF82E5B0140E0682FCE014E
:1014A00005960E94F70741E06F2DCE0101960E943C
:1014B000F7072B813C8140E050E0CF80D884E12CBD
:1014C000F12C2C193D094E095F09B50180E090E02F
:1014D0008D809E80A12CB12C681979098A099B09FD
:1014E0000E94C73929813A8140E050E02819390922
:1014F0004A095B090E94193A2C0D3D1D4E1D5F1DC6
:1015000057FF03C020E030E0A901C90128960FB6BB
:10151000F894DEBF0FBECDBFDF91CF91FF90EF906B
:10152000DF90CF90BF90AF909F908F9008951F93C2
:10153000CF93DF93809116019091170101969093BC
:1015400017018093160110E0C12FD0E0FE01EE0FCD
:10155000FF1FEE0FFF1FE451FE4F2091300230912C
:10156000310240E050E060817181828193810E946C
:10157000F739CC0FDD1FC653DE4F39832883B901FD
:10158000812F0E94390ABC01812F0E94DE081F5F53
:101590001131D1F60E9405090E94F234DF91CF91FA
:1015A0001F910C94A5090F931F93CF93DF93C1E074
:1015B000209188013091890180910E0190910F0155
:1015C000A0911001B09111012231310531F0C0E03C
:1015D0002091A8013091A90104C020918601309189
:1015E0008701820F931FA11DB11D80930E0190935F
:1015F0000F01A0931001B09311012091B601309119
:10160000B70180910A0190910B01A0910C01B0915A
:101610000D01820F931FA11DB11D80930A019093AC
:101620000B01A0930C01B0930D01809112019091D8
:101630001301019690931301809312010E94A02937
:1016400000910401109105012091060130910701DC
:10165000601B710B820B930B61367A4E81059105ED
:1016600008F47AC08091140190911501019690932D
:10167000150180931401209112013091130140E073
:1016800050E060910E0170910F01809110019091D6
:1016900011010E94F73910920E0110920F01109261
:1016A000100110921101C11106C0B90180E00E9421
:1016B000390A8C0101C08901C0919601D09197012E
:1016C0000C171D0720F0B8018BE10E94DE08B8015D
:1016D0006C1B7D0B8AE10E94DE0820911201309183
:1016E000130140E050E060910A0170910B0180917C
:1016F0000C0190910D010E94F73910920A0110928D
:101700000B0110920C0110920D01B90187E00E94AB
:10171000390A2091080130910901909309018093C1
:101720000801BC01621B730B8CE10E94DE08609112
:101730001201709113018DE10E94DE0810921301D5
:10174000109212010E94A029609304017093050178
:101750008093060190930701DF91CF911F910F9124
:10176000089540E0A42FB0E0FD01EE0FFF1FEE0F43
:10177000FF1FE451FE4FAA0FBB1FA855BE4F2D916E
:101780003C9180819181A281B381820F931FA11D21
:10179000B11D80839183A283B3834F5F413111F7E1
:1017A00080913002909131020196909331028093A2
:1017B00030020E94D30A8091300290913102843627
:1017C000910511F40C94970A08958F929F92AF920D
:1017D000BF92CF92DF92EF92FF92CF93DF93CDB77C
:1017E000DEB728970FB6F894DEBF0FBECDBFF82E38
:1017F0005B0140E0682FCE0105960E94F70741E0AB
:101800006F2DCE0101960E94F70729813A8140E0B1
:1018100050E0CD80DE80E12CF12C2C193D094E09E1
:101820005F09B50180E090E08F809884A12CB12CF5
:10183000681979098A099B090E94C7392B813C8163
:1018400040E050E0281939094A095B090E94193A19
:101850002C0D3D1D4E1D5F1D57FF03C020E030E0E5
:10186000A901C90128960FB6F894DEBF0FBECDBFFF
:10187000DF91CF91FF90EF90DF90CF90BF90AF902E
:101880009F908F9008950C94F009462FE82FF0E078
:10189000EE0FFF1FE05AFE4F2081318182508831C8
:1018A00030F4E82FF0E0E459FF4F608101C061E0BF
:1018B000C9010C94D614825E0C94D407809159020D
:1018C000089580915702811112C00E94E607882373
:1018D00081F00E94E9072091330230913402821B8B
:1018E000930B9C0181E02530310520F002C081E09E
:1018F000089580E008950F931F93CF93DF9310E036
:10190000CFEFDFEF00E009C0812F0E945B0C8C1746
:101910009D0710F4EC01012F1F5F809159021817E9
:1019200098F3802FDF91CF911F910F910895CF935E
:10193000DF9390915702911104C0DF91CF910C94E5
:101940005B0C90913D02C82FD0E0992391F00E944A
:101950005B0CCC0FDD1FFE01E25CFD4FC65BDD4F73
:101960002081318148815981241B350B280F391F73
:1019700007C0FE01EE0FFF1FE25CFD4F20813181A9
:10198000C901DF91CF910895CF93C82F809157025D
:10199000882341F0C11106C00E94E90790933402E8
:1019A00080933302C09357020E94A02960933502AE
:1019B0007093360280933702909338020E94DF09B9
:1019C00080915602811104C08C2FCF910C943F0559
:1019D000CF91089580E00E94C40C81E0809356026C
:1019E00008950E94EA0C80E00C94D205EF92FF92D9
:1019F0000F931F93CF93DF9381E00E94D20585E17F
:101A00000E94D407809359020AE412E03EE3E32ED9
:101A100032E0F32EC0E0D0E00CC08C2F0E945B0CB3
:101A2000F801819391938F01F701819391937F0145
:101A300021968091590290E0C817D90774F310924B
:101A400057021092560280E00E94C40C1092340299
:101A50001092330210923502109236021092370221
:101A600010923802DF91CF911F910F91FF90EF906C
:101A70000895FF920F931F93CF93DF9380915802A5
:101A80000E94970CEC01F12C01E010E01CC08F2D9E
:101A90000E94970CAC0180915702802321F0C4175B
:101AA000D50778F40DC020915803309159032F5F6A
:101AB0003F4F369527952C0F3D1F2417350708F407
:101AC000102B000FF39480915902F81600F3812F28
:101AD000DF91CF911F910F91FF9008951F93CF93A6
:101AE000DF93EC0110E008C0812F825E0E94EE07B8
:101AF0008C179D0738F01F5F809159021817A0F3CB
:101B000081E001C080E0DF91CF911F910895BF92E5
:101B1000CF92DF92EF92FF920F931F93CF93DF93B9
:101B20008AE090E00E946E0D882309F461C00E9453
:101B30007B0C809358020E945B0C8C0162E088E66B
:101B400092E00E94B1180817190750F17EE3E72EC2
:101B500072E0F72EEAE4CE2EE2E0DE2EC0E0D0E026
:101B6000BB24B39416C08C2F0E945B0CF7018193A9
:101B700091937F01F601819391936F01801B910BEB
:101B800020915803309159032817390708F4B12CD4
:101B900021968091590290E0C817D90724F302C01A
:101BA000BB24B39410923D020E94A0296093390295
:101BB00070933A0280933B0290933C02BB2059F011
:101BC000DF91CF911F910F91FF90EF90DF90CF9019
:101BD000BF900C94EA0C0E94390DDF91CF911F91B8
:101BE0000F91FF90EF90DF90CF90BF900C94C40CBA
:101BF000DF91CF911F910F91FF90EF90DF90CF90E9
:101C0000BF900895CF9380913D02811119C081E06A
:101C100080933D02809158020E945B0CC0E00CC092
:101C20008C2F0E945B0CEC2FF0E0EE0FFF1FE65BA9
:101C3000FD4F91838083CF5F80915902C81780F355
:101C4000CF9108950F931F930E94A029009139020C
:101C500010913A0220913B0230913C02601B710BC3
:101C6000820B930B28EE33E040E050E00E94F739FE
:101C7000C9011F910F91089583E090E00E946E0DBD
:101C80008823C9F080915702811103C00E94870DFB
:101C900012C00E94020E0E94390D90E0809590952E
:101CA0002091570230E082239323892B81F40E94F4
:101CB000220E4F9760F40E94610C882311F082E09D
:101CC0000895809156028823D1F381E0089580E041
:101CD0000E94C40CF0CF1F93CF93DF93EC0110E070
:101CE0000FC0812F0E945B0C8C179D0710F081E0C4
:101CF0000CC0812F0E94970C8C179D07C0F71F5FA7
:101D000080915902181768F380E0DF91CF911F91FD
:101D100008951F93CF93DF93EC0110E00FC0812F44
:101D20000E945B0CC817D90710F081E00CC0812F0E
:101D30000E94970CC817D907C0F71F5F80915902FE
:101D4000181768F380E0DF91CF911F91089560919B
:101D50005902662321F070E00E94E33902C060E07E
:101D600070E0CB0108950E9428110E94DC1E0E94A1
:101D700047320E94B82A88E00C945D320E942811F4
:101D80000E94EA1E86E00E945D320E94B82A88E026
:101D90000C945D32E0915A02F0915B02859194912E
:101DA000FC010994E0915A02F0915B023296859110
:101DB0009491FC010994E0915A02F0915B023496EF
:101DC00085919491FC010994CF93DF931F92CDB735
:101DD000DEB7811107C00E94B51D0E94D20E0E947D
:101DE000BE0E0FC0813059F469830E94B51D0E9458
:101DF000D20E6981611105C00E94B30E02C081E05C
:101E000001C080E00F90DF91CF910895BF92CF92F3
:101E1000DF92EF92FF920F931F93CF93DF938C018A
:101E2000C62E0E94CA0E0E94971D0E94122B0E946D
:101E30002811F12C82E0D82EC0E0D0E0EE24E3940B
:101E40000E943332811106C0F801EF0DF11D84911B
:101E50000E9404200E94B610B82E84E0B81209C077
:101E6000EF2DF0E03196E00FF11FE491E11123C076
:101E700005C082E0B81202C0F110FA94EE2081F0A1
:101E80000E941C2BD82E6C2D0E94E40EE82E882375
:101E900039F00E94E907C817D90779F4E11003C0A7
:101EA000C11016C0E12C81E0B812CACF0E94B51D46
:101EB0000E94D20E0DC0F394E1CF0E94E907EC011D
:101EC0000E94DB0ED82E6C2D0E94E40EE82EE6CF89
:101ED0008D2DDF91CF911F910F91FF90EF90DF90AB
:101EE000CF90BF900895FC0124812052621710F416
:101EF0000C94FC16862F90E0821B91090E947719A2
:101F00006EE00C94661260E08CE592E00E94F81797
:101F100087FD0AC0811102C00C94702F992787FD9C
:101F2000909501970C949B2508950E9460050E944E
:101F30004F330E94D32F62E471E082E391E00E946C
:101F4000BF1E88EE93E00E94AC0780E00C94D1376E
:101F500061E571E08CE592E00E940A1788E890E064
:101F600090935D0280935C02E0E6F2E08081805E07
:101F700080830895CF93DF93EC010E9420118B8121
:101F80009C810E9463120E9424116A818881998138
:101F9000DF91CF910C94FF11FC0187818F3118F4F0
:101FA0008F5F8783089586818F5F86830895FC0104
:101FB0008781882319F08150878308958681815015
:101FC000868308951F93CF93DF93FC01C681D0E0F1
:101FD0006D2F80E00E941A111C2F105F8C2FCF5F95
:101FE0000E94BD128C2FC113FACFDF5FD23081F770
:101FF000DF91CF911F9108951F93CF93DF93EC0151
:1020000084EE90E00E94D7151FEF8E81181721F003
:10201000CE010E94E20F1E818F81682F70E094E054
:10202000759567959A95E1F78F700E941A110E9435
:10203000B610823049F0843019F0813049F413C071
:10204000CE010E94CC0FE1CFCE010E94D70FDDCF91
:102050008830D9F68D81E881F981E80FF11D8F81F3
:102060009E81890F8083DF91CF911F910895FC019C
:1020700071836083428334832383158280E2868365
:1020800017820895CF93DF93EC0184EE90E00E94D5
:10209000D7150E942811CE010E94BA0F61E08D81F0
:1020A0000E941A110E94B6108230B1F0843041F0C3
:1020B0008130C1F484EE90E00E94DF1580E026C0FC
:1020C0004D81242F30E08A8190E00197281739074D
:1020D0002CF74F5F4D83E2CF8D818823F9F2815039
:1020E0008D83DCCF8830D1F682E00E9409118230E6
:1020F00048F083E00E945D3284EE90E00E94DF159C
:1021000081E004C0CE010E94FC0FC3CFDF91CF91CC
:1021100008950C94EE06E0916602F0E0EE0FFF1FCA
:10212000E35AFE4F25913491C9010895CF93DF936F
:10213000D82F0E94EE0607C082E390E00E94AC0711
:102140000E94EE06DC2FC82F8D13F6CF1092660288
:102150001092650280936702882319F080E00E9444
:10216000693280916702DF91CF910895FF920F93BA
:102170001F93CF93DF93C0E0D0E0F12C0AEF10E083
:1021800015C00E94EE06F82E81E090E00E94AC0798
:1021900080916702F81202C0219608C08F2DDF914E
:1021A000CF911F910F91FF900C9496104091660271
:1021B000242F30E0220F331FF901E559FE4F6591BE
:1021C0007491C8010E94E3396F5F7F4FC617D7072C
:1021D000C0F2FF20B1F0509165025F5F509365023D
:1021E000F901E758FE4F85919491252F30E028178B
:1021F000390738F0463018F44F5F4093660210926A
:10220000650280916702DF91CF911F910F91FF903E
:102210000895CF93DF93D82FC09167020E94B61024
:10222000909166029D1711F08C17C1F3892FDF91F1
:10223000CF910895462F682F84EE90E00C94EE1510
:1022400060E080E00C941A1161E080E00C941A11B7
:1022500084EE90E00C941B16CF93DF93FC01DB011E
:102260008C91882389F0C081D181488380819181BC
:102270000196918380838C9181508C93882321F0E7
:102280000190F081E02D1082DF91CF910895BF92EF
:10229000CF92DF92EF92FF920F931F93CF93DF9332
:1022A000EC018B017A014115510501F1CA010E942F
:1022B000443AF8019081B82E981708F4B92ECB2C27
:1022C000D12CA601B701888199810E944D3A2881BD
:1022D00039812C0D3D1D39832883F80180818B19AC
:1022E0008083882319F0E881F9811082DF91CF91F2
:1022F0001F910F91FF90EF90DF90CF90BF900895C6
:10230000EF92FF921F93CF93DF9300D000D0CDB711
:10231000DEB77C01CA014B835C8369837A830E94A8
:102320003C2A182F69817A81DB018C914B815C8179
:10233000811768F44FE3C7010F900F900F900F9033
:10234000DF91CF911F91FF90EF900C942C11F7012A
:1023500020813181210F311D31832083DB018C915C
:10236000811B8C93882321F00190F081E02D108255
:10237000F9012AE030E00CC0CA01B9010E94E3393A
:10238000405DBAE06B9F4019112442931150AB019C
:102390001111F2CF0F900F900F900F90DF91CF910E
:1023A0001F91FF90EF9008950F931F93CF93DF93AA
:1023B000CDB7DEB72B970FB6F894DEBF0FBECDBFFB
:1023C0008E010F5F1F4F1A87098727E02B87AC010B
:1023D000BE01655F7F4FCE0109960E948011B80152
:1023E00084EE90E00E9468382B960FB6F894DEBF1A
:1023F0000FBECDBFDF91CF911F910F9108951F9315
:10240000CF93DF93CDB7DEB761970FB6F894DEBFF9
:102410000FBECDBF0097D1F0162F613108F010E14B
:10242000412F50E0BC01CE0101960E945C3AE1E0F0
:10243000F0E0EC0FFD1FE10FF11D1082BE016F5F98
:102440007F4F84EE90E00E94683801C080E0619682
:102450000FB6F894DEBF0FBECDBFDF91CF911F91B5
:1024600008951F93CF93DF93CDB7DEB761970FB673
:10247000F894DEBF0FBECDBF0097D1F0162F6131AB
:1024800008F010E1412F50E0BC01CE0101960E94FE
:102490004D3AE1E0F0E0EC0FFD1FE10FF11D10827D
:1024A000BE016F5F7F4F84EE90E00E94683801C0EC
:1024B00080E061960FB6F894DEBF0FBECDBFDF910E
:1024C000CF911F91089560E10C943112CF92DF9269
:1024D000EF92FF920F931F93CF93DF93CDB7DEB7A9
:1024E00062970FB6F894DEBF0FBECDBF009761F1C3
:1024F000613108F060E17C01CC24C394D12CCC0E76
:10250000DD1E86011CC0C7016A8B0E947B3AF80160
:1025100081938F01FFEFEF1AFF0A6A8981110FC0C3
:10252000E1E0F0E0EC0FFD1FE60FF11D1082BE01AF
:102530006F5F7F4F84EE90E00E94683806C0802F66
:102540008C19861700F3ECCF80E062960FB6F894F2
:10255000DEBF0FBECDBFDF91CF911F910F91FF90D6
:10256000EF90DF90CF900895882319F08BE891E0E9
:1025700002C08FE891E00C946312682F84EE90E023
:102580000C946A38CF93DF931F92CDB7DEB7682FD4
:1025900006C080E269830E94BD1269816150643087
:1025A000C4F787E891E00F90DF91CF910C9431123E
:1025B0000F931F93CF93DF93062F142F64E670E0E1
:1025C0000E94E339EB0180E20E94BD1280E20E948A
:1025D000BD12C436D10548F480E20E94BD12CA3053
:1025E000D10518F480E20E94BD12CE010E94D411E0
:1025F000802F0E94BD12812F0E94BD1280E2DF91C8
:10260000CF911F910F910C94BD12CF93DF93D82FD0
:10261000C0E004C080E20E94BD12CF5FCD13FACFAC
:102620008C2FDF91CF91089580E10C9405136AE01F
:102630000E94D739892F805D0C94BD12DF92EF92F2
:10264000FF920F931F93CF93DF93EC01162F161673
:102650000CF059C064E670E00E94E339D62EE72EF4
:10266000CB010E943C2A082F23E0F22EF80E04C072
:1026700080E20E94BD121150F116D4F3412F55276C
:1026800047FD50952F2D332727FD309523503109D5
:102690004217530754F4812FDF91CF911F910F916F
:1026A000FF90EF90DF900C94C2128D2D9E2D0E9412
:1026B000D411CE0164E670E00E94E339EC01101BF6
:1026C000012F015011161CF48EE20E94BD12102F32
:1026D0001150101644F4CE016AE070E00E94E33914
:1026E000862F0E941713111674F4CE016AE070E071
:1026F0000E94E339DF91CF911F910F91FF90EF90EE
:10270000DF900C941713DF91CF911F910F91FF90E1
:10271000EF90DF900895CF92DF92EF92FF920F93A8
:102720001F93CF93DF93EC01162FC42E16160CF0D7
:1027300088C068EE73E00E94E339D62EE72ECB0105
:102740000E943C2AF82E082F0C5F04C080E20E94F1
:10275000BD1211500117D4F31017DCF0C11019C0CD
:10276000CE010E943C2A082F03C080E20E94BD12C5
:1027700011500117D4F3CE010E94D4118DE6DF91E0
:10278000CF911F910F91FF90EF90DF90CF900C941D
:10279000BD12412F552747FD5095202F332727FD88
:1027A000309524503109421753075CF4812FDF9193
:1027B000CF911F910F91FF90EF90DF90CF900C94ED
:1027C000C2128D2D9E2D0E94D411CE0168EE73E0B1
:1027D0000E94E339EC011F19012F015011161CF45E
:1027E0008EE20E94BD12102F1150101644F4CE013B
:1027F00064E670E00E94E339862F0E941713CE0131
:1028000064E670E00E94E339EC01012F01501116DB
:102810003CF46AE070E00E94E339862F0E941713AF
:1028200010167CF4CE016AE070E00E94E339DF917B
:10283000CF911F910F91FF90EF90DF90CF900C946C
:102840001713DF91CF911F910F91FF90EF90DF90C1
:10285000CF9008956F927F928F929F92AF92BF9286
:10286000CF92DF92EF92FF920F931F93CF93DF935C
:102870007C01962E742E822E16160CF044C0211167
:102880009A94C7010E943C2AC0E0D0E0082F10E0D3
:10289000A92CBB24A7FCB09404C0872D0E94BD12B4
:1028A0002196692C6C1A6501CC1ADD0A0C151D05E0
:1028B000A4F3882019F08DE20E94BD12C016D10643
:1028C0008CF4862DDF91CF911F910F91FF90EF90A7
:1028D000DF90CF90BF90AF909F908F907F906F9040
:1028E0000C94C212C701DF91CF911F910F91FF90FD
:1028F000EF90DF90CF90BF90AF909F908F907F90A0
:102900006F900C94D411DF91CF911F910F91FF9094
:10291000EF90DF90CF90BF90AF909F908F907F907F
:102920006F90089520E00C942A1440E20C949214C5
:10293000CF93DF936CE370E00E94E3399B01EC01DD
:1029400040E363E0C9010E9492148AE30E94BD1231
:1029500040E362E0CE01DF91CF910C949214292FD5
:10296000221F2227221F19F091958195910940E29B
:102970000C942A14161634F461500E941E1383E43A
:102980000C94BD120895161634F461500E949514EB
:1029900085E20C94BD12089563303CF062500E94B1
:1029A000951483E991E00C9463120895CF93DF931B
:1029B000C62F1416C4F5642F6150C33079F020F48B
:1029C000C13091F048F41EC0C530D9F078F0C6305F
:1029D00091F0C730D1F411C040E201C048E667E58C
:1029E000DF91CF910C94D812D6E510C0642FDF91FF
:1029F000CF910C94BA14D4EF06C00E94AF1485E5B1
:102A00000EC06150D1E440E002C0D5E541E00E9433
:102A10008B138D2F0E94BD12C53029F488E6DF91FB
:102A2000CF910C94BD12DF91CF910895462F66E0AF
:102A30000C94D614462F61E00C94D614462F60E017
:102A40000C94D614462F65E00C94D614CF93DF93E4
:102A5000EC0160E08E810E94723981E090E00E947A
:102A6000FF3861E08E810E94723981E090E00E941F
:102A7000FF3860E08E810E94723984E690E0DF9139
:102A8000CF910C94FF38CF92DF92EF92FF920F9389
:102A90001F93CF93DF937C01C0E0D0E0C62ED12CF2
:102AA00087010C0F1D1F61E0F80187810E943A39F0
:102AB000B6010C2E02C0759567950A94E2F7617015
:102AC0007727F80187810E9472392196C430D10599
:102AD00039F7C701DF91CF911F910F91FF90EF90D0
:102AE000DF90CF900C942615CF92DF92EF92FF9259
:102AF0000F931F93CF93DF937C01C0E0D0E0C62EED
:102B0000D12C87010C0F1D1F61E0F80187810E9405
:102B10003A39B6010C2E02C0759567950A94E2F712
:102B200061707727F80187810E9472392196C83039
:102B3000D10539F7C701DF91CF911F910F91FF9018
:102B4000EF90DF90CF900C9426151F93CF93DF93D7
:102B5000EC01162F642F8C810E9472398D818F3F7A
:102B600019F060E00E9472398F85612F84FF06C0E2
:102B7000CE01DF91CF911F910C94741570E084E029
:102B8000759567958A95E1F7CE010E944315612FEF
:102B9000CE01DF91CF911F910C94431541E00E942B
:102BA000A51581E090E0089540E00C94A515FC0186
:102BB0006089262F2160208B69600C94D415FC015C
:102BC00060896E7F608B68600C94D415FC0160890D
:102BD000262F2460208B6C600C94D415CF93DF9348
:102BE000CDB7DEB728970FB6F894DEBF0FBECDBFC6
:102BF00028E0E4E6F0E0DE01119601900D922A95BE
:102C0000E1F7FC012389421710F0422F4150FE01E9
:102C10003196E40FF11DE40FF11D2081260F20688D
:102C2000622F28960FB6F894DEBF0FBECDBFDF919E
:102C3000CF910C94D41561E00E94D41580ED97E0FB
:102C40000C94FF38CF93DF93EC01423018F08F855E
:102C500088608F874B8B1C8A222329F0413019F41E
:102C60008F8584608F8780E593EC0E94FF3860E059
:102C70008C810E94723960E08E810E9472398D8150
:102C80008F3F19F060E00E9472396F8564FD1DC0AE
:102C900063E0CE010E94431584E991E10E94FF3870
:102CA00063E0CE010E94431584E991E10E94FF3860
:102CB00063E0CE010E94431586E990E00E94FF3850
:102CC00062E0CE010E94431516C06062CE010E94F0
:102CD000D41584E991E10E94FF386F856062CE01CE
:102CE0000E94D41586E990E00E94FF386F856062EB
:102CF000CE010E94D4156F856062CE010E94D4156A
:102D000084E0888BCE010E94E615CE010E941B163E
:102D100082E0898B66E0CE01DF91CF910C94D415CF
:102D20006F927F928F92AF92CF92EF920F931F93F9
:102D3000CF93DF93CDB7DEB73C01162F842F5D858F
:102D40004E853F859889F301848325830683E78236
:102D5000C086A1868286538744873587968761E03F
:102D60000E943A39F30185818F3F19F061E00E949A
:102D70003A3961E0F30186810E943A39112319F052
:102D8000F301178603C080E1F301878720E041E06B
:102D900060E1C301DF91CF911F910F91EF90CF9030
:102DA000AF908F907F906F900C9422168F92AF927D
:102DB000CF92EF920F93DC0113961C921E92129702
:102DC000EEE8F0E0ED93FC931F921F921F921F928A
:102DD0008C2CAE2CC02EE22E042F2FEF462F61E05C
:102DE0000E9490160F900F900F900F900F91EF9000
:102DF000CF90AF908F900895FC0127818085E22FBE
:102E0000F82FE60FF11DE60FF11D25913491C90150
:102E10000C9463120F931F93CF93DF93EC018B01FC
:102E2000CB010E94D329682FCE010E946D1786E93D
:102E300090E09983888318870F83DF91CF911F914A
:102E40000F910895DF92EF92FF920F931F93CF930C
:102E5000DF93EC01F62E69871A8681E08D8382E08C
:102E6000D82EEE24E3948E01075F1F4F0E94B61008
:102E7000482F823011F0843061F4E881F9810280BA
:102E8000F381E02D6F2DCE010995F986DA86ED826A
:102E900004C0813089F0883079F0C8010E94CC2AC2
:102EA0008111ED828D81882319F0CE010E949A173D
:102EB0008A858F5F8A87DACF8FEF898781E08E835B
:102EC0008D83483009F080E0DF91CF911F910F9101
:102ED000FF90EF90DF9008950895FC018CE990E059
:102EE0009183808312821382648381E08583868349
:102EF0000895FC012281211103C081E0828308959D
:102F0000438130E0240F311D848190E00197281720
:102F1000390714F44F5F43830895FC0182818823AD
:102F200019F08150828308958381882311F08150A4
:102F3000838308951F93CF93DF93EC0110E0612FFB
:102F400080E00E941A1180E20E94BD12E881F9819E
:102F50006B81610F0190F081E02DCE0109950E94F7
:102F600014131F5F123059F76A8180E00E941A1112
:102F70008EE30E94BD126A818FE00E941A118CE3D9
:102F80000E94BD121D82DF91CF911F9108950F9372
:102F90001F93CF93DF93EC010E94B610182F0E946D
:102FA0003332882321F081E08D831FE71BC00B8122
:102FB0008A81080F123031F0143039F4CE010E94AA
:102FC000791703C0CE010E948D178B819A81890FDA
:102FD000081711F081E08D838D81882319F0CE01CF
:102FE0000E949A17812FDF91CF911F910F91089521
:102FF000EF92FF921F93CF93DF931F92CDB7DEB76F
:103000007C0181E0F701858311E0C70169830E949B
:10301000C7176981811102C0F7011682F7019681F5
:10302000911108C0883031F481E0868383819281D8
:10303000890F09C0662311F0F7011583813029F744
:103040009111E3CF8FEF0F90DF91CF911F91FF9000
:10305000EF9008950F931F93CF93DF93EC018B01B3
:1030600050E00E9480114AE3B801CE01DF91CF9178
:103070001F910F910C942C11EF92FF920F931F93BD
:10308000CF93DF9300D01F92CDB7DEB78C01462FD0
:1030900009969A8389838EE08B83D801EC91F0E0C6
:1030A000EE0FFF1FEA56FE4FE590F490BE016D5FF4
:1030B0007F4FCE0101960E942A18A701BE016D5FC5
:1030C0007F4FCE0101960E94471140E2BE016D5F25
:1030D0007F4FCE0101960E942C11F801418152814F
:1030E000BE016D5F7F4FCE0101960E9480114FE2BD
:1030F000BE016D5F7F4FCE0101960E942C11D80159
:1031000017964D915C911897BE016D5F7F4FCE0170
:1031100001960E9480110F900F900F90DF91CF9138
:103120001F910F91FF90EF90089527E1289FB00124
:10313000299F700D112464577F4F47E150E088E6C6
:1031400092E00C946B3A27E1289FB001299F700D03
:10315000112464577F4F47E150E088E692E00C94D9
:10316000893ADC01EC91B6E0EB9FF0011124E60F07
:10317000F11DEE0FFF1FEA55FE4F25913491C90155
:103180000895CF93DF93EC010E94B1184F815885C9
:10319000849F9001859F300D949F300D1124C901AB
:1031A000DF91CF9108950F931F93FC01A181B2810C
:1031B00020915203309153030E94A93924E630E054
:1031C00040E050E00E94F73989019A01093EFDEF85
:1031D0001F072105310520F008EE1DEF20E030E04B
:1031E000C8011F910F910895FC012081213029F41D
:1031F00020914E0330914F0309C0223029F42091D1
:103200004C0330914D0302C020E030E0FC01878187
:103210009085289FA001299F500D389F500D1124A3
:10322000CA010895EAE4F3E0808191810895FC01E8
:103230006081F9E06F9FB00111246A5F7D4F49E022
:1032400050E00C943B3ADC01EC91F0E0EE0FFF1FF4
:10325000EA56FE4F25913491C9010C94311260E178
:1032600070E00C942319CF93DF93EC01888160E028
:10327000811108C0CE010E94C11867E00E941A1592
:1032800087E011C0CE010E94C11865E00E941A15A6
:103290008FE20E94BD128F8198850E94D41183E431
:1032A0000E94BD1288E0DF91CF91089566E0FC0195
:1032B000838194810E941E1586E0089566E0FC01DA
:1032C000858196810E941E1586E00895FC0181810A
:1032D0009281883EFDEF9F0729F48EE492E00E94E0
:1032E000631203C067E00E94221588E0089547E159
:1032F000489F9001499F300D11242B563F4FC90123
:1033000008950F931F93CF93DF93CDB7DEB7A497A4
:103310000FB6F894DEBF0FBECDBF8C01AB01BC0170
:10332000CE0101960E942C1BCE0101960E949A1B91
:1033300087E1FE013C96D80101900D928A95E1F754
:10334000A4960FB6F894DEBF0FBECDBFDF91CF912C
:103350001F910F910895FC012081260F283010F451
:10336000208302C0FC0110820C9417190F931F9345
:1033700061E00E94C1189C0140E050E060E074E808
:1033800087ED97E10E94F73989019A0101328EE4B5
:1033900018072105310520F000E21EE420E030E0AE
:1033A000C8011F910F9108950F931F9361E00E9430
:1033B000C1189C0140E050E060E478E78DE791E0BF
:1033C0000E94F73989019A01093883E1180721051C
:1033D000310520F008E813E120E030E0C8011F913A
:1033E0000F9108950F931F93CF93DF9300D0CDB724
:1033F000DEB78C0169837A830E94B619AC016981BA
:103400007A81C80103960F900F90DF91CF911F91A1
:103410000F910C946C2A0F931F93CF93DF9300D0DE
:10342000CDB7DEB78C0169837A830E94D419AC01D1
:1034300069817A81C80105960F900F90DF91CF9135
:103440001F910F910C946C2A61E00E94B118BC018D
:1034500084ED92E60E94E339CB0108950F931F9308
:10346000CF93DF9300D0CDB7DEB78C0169837A8329
:103470000E94241AAC0169817A81C80107960F90D5
:103480000F90DF91CF911F910F910C946C2ACF93E5
:10349000DF93EC010E94241A2F813885821793074D
:1034A00010F498878F83CE010E94B6192B813C813E
:1034B0008217930710F49C838B83CE010E94D4194A
:1034C0002D813E818217930710F49E838D83DF91B7
:1034D000CF910895CF93DF93EC0148EE5DEF019615
:1034E0000E946C2A89819A819C838B832881233056
:1034F00039F49C0136952795369527953C832B8387
:103500009E838D83CE01DF91CF910C94471ADF9279
:10351000EF92FF920F931F93CF93DF9300D01F92F0
:10352000CDB7DEB749E050E06CE372E088E692E0A8
:103530000E943B3A88E692E00E94471A00E010E0C1
:103540005EE0D52E61E7E62E62E0F62EDB82FA829F
:10355000E982402F4F5FBE016D5F7F4FCE01019624
:103560000E942A18C8010E94A3180F5F1F4F003243
:10357000110561F70F900F900F90DF91CF911F9180
:103580000F91FF90EF90DF900895262F443019F0AF
:103590006FEF7FEF02C061E070E0223089F028F425
:1035A000222341F02130A9F408C0233061F02430F7
:1035B00081F40CC00B960C94AB190B960C942E1A3C
:1035C0000B960C946A1A0B960C94F2190B960C94A9
:1035D0000B1A08951F93CF93DF93EC01162F0E94CF
:1035E000FC16CE0109960E94C12A882311F0298574
:1035F00001C02FEF332727FD3095812F90E028174A
:10360000390729F11230A9F028F4112341F01130C3
:10361000F1F40AC0133091F01430C9F414C0CE0193
:103620000B960E942F1913C0CE010B960E943319DE
:103630000EC0CE010B960E94661909C0CE010B96F2
:103640000E94561904C0CE010B960E945E1980E0BC
:10365000DF91CF911F910895EF92FF920F931F93E7
:10366000CF93DF93EC018B017A0162E872E00E9454
:103670000A178FEF898782EA90E09983888387E130
:10368000F801DE011B9601900D928A95E1F7FBA2ED
:10369000EAA2DF91CF911F910F91FF90EF900895D3
:1036A0000F931F93CF93DF93CDB7DEB728970FB655
:1036B000F894DEBF0FBECDBF8C01BC016C5E7F4FA6
:1036C00022E932E04EE050E0CE0101960E94371030
:1036D000CE0101960E94421081E0F8018583289670
:1036E0000FB6F894DEBF0FBECDBFDF91CF911F9113
:1036F0000F910895CF93DF93EC016AA17BA16F5FD7
:103700007F4F0B960E943C180E9428110E942011A6
:103710008DE992E00E9463120E9424116EE0CE01B6
:1037200044960E94FF110E94B82A83E0DF91CF9156
:103730000C945D32DF92EF92FF920F931F93CF9321
:10374000DF93CDB7DEB767970FB6F894DEBF0FBE35
:10375000CDBF8C0187E1D82E9BE0E92EF12CE00E45
:10376000F11E60E0C8010E94F81787FD2BC085306C
:1037700019F0863049F404C0C8010E947A1BF1CFC9
:10378000C8010E94501BEDCFF701DE0111969D2D5F
:1037900001900D929A95E1F7682FC8010E942217B7
:1037A000811109C0FE013196D7018D2D01900D9236
:1037B0008A95E1F7D6CF83E00E945D32C7010E946F
:1037C000471ACFCF67960FB6F894DEBF0FBECDBFB6
:1037D000DF91CF911F910F91FF90EF90DF900895AF
:1037E0008091460390914703892BA1F08CE10E94C0
:1037F000D40765E02AE0AC01249FC001259F900D0D
:1038000011240E94AF148DE60E94BD1283E40E9431
:10381000BD1204C089E893E00E9463120C94141353
:103820008AE10E94D40765E00E94AF148DE60E94F1
:10383000BD1286E50E94BD120C941413CF93DF9342
:1038400000D0CDB7DEB789839A830E942011898189
:103850009A810E9463120E9424118091A502909186
:10386000A6020E94443A892B51F082E793E00E941D
:1038700063128091A5029091A6020E9463120F909C
:103880000F90DF91CF910C94141390E0880F991F43
:1038900062E087529D4F0C9431120F931F93CF9388
:1038A000DF9361E088E692E00E94C1188C0165E038
:1038B00088E692E00E94C118EC0183E10E94D407DF
:1038C00080179107B8F4C817D907B0F49C012C1BD6
:1038D0003D0BC8018C1B9D0B64E670E00E94E33930
:1038E000C9010E94E339CB016436710530F083E6EB
:1038F00090E003C084E601C080E0DF91CF911F918A
:103900000F910895613011F40C94970C0C943327A7
:10391000CF93DF93D82FC62F825E0E946A08882338
:1039200051F06C2F8D2F0E94821C46E06C2FDF918E
:10393000CF910C94D61488EF92E0DF91CF910C9444
:1039400063120F931F93CF93DF93C82F162F0E94FC
:1039500020110E94610C811108C083E090E00E9458
:103960006E0D882341F080E209C080913D028823DA
:1039700021F082E403C08DE601C082E60E94BD1200
:10398000809157028823C9F0D0E001E0809158026D
:10399000D81731F080915702802321F081E303C0D2
:1039A0008FE501C080E30E94BD12000FDF5FD630BB
:1039B00069F780E20E94BD1203C087E00E940513F0
:1039C0000C2F0F5F802F0E9417138AE30E94BD12F5
:1039D000612F8C2F0E94881C0E9414130E942411B6
:1039E000DC2FDE5F8D2F0E9417138AE30E94BD1229
:1039F000612F802F0E94881C8C2F8D5F0E941713CF
:103A00008AE30E94BD12612F8D2F0E94881CDF91D6
:103A1000CF911F910F910C94141388E10E94D40749
:103A200068E00E94221580E20C94BD120E942011D1
:103A300088E692E00E94D31868E00E94221580E296
:103A40000E94BD120E941C2767E00E941E150E9462
:103A500014130E9424118FEF92E00E94631267E01A
:103A600080912C0390912D030E941A150C9414132D
:103A70000F931F9360918A0270918B0280918C0248
:103A800090918D0220917F02222371F00E94A02943
:103A900000918A0210918B0220918C0230918D024C
:103AA000601B710B820B930B28EE33E040E050E07B
:103AB0000E94F739C9011F910F9108950E943D237B
:103AC000811110C00E948F23882331F00E943D2372
:103AD00081110AC084E40BC00E94610C811106C0F0
:103AE0008EE405C083E403C085E401C082E40E9443
:103AF000BD1280E20E94BD120E94381D0E949814DF
:103B000080E20C94BD120E9420110E940D1D67E0FE
:103B100086E10E94450C0E9414130E9424110E9409
:103B20005E1D67E083E10E94450C0C9414130E9413
:103B3000A02960938A0270938B0280938C029093E9
:103B40008D021092860210928702109288021092C3
:103B500089021092820210928302109284021092C3
:103B6000850281E080937F0208950F931F930E9446
:103B7000A02900918A0210918B0220918C02309131
:103B80008D02601B710B820B930B60938A02709302
:103B90008B0280938C0290938D0210927F021F9172
:103BA0000F9108950E94432381111DC00E94952307
:103BB000811119C00E94610C882351F18091860205
:103BC00090918702A0918802B091890280599F4FFD
:103BD000AF4FBF4F8093860290938702A0938802D5
:103BE000B093890208958091820290918302A091FE
:103BF0008402B091850280599F4FAF4FBF4F809391
:103C0000820290938302A0938402B0938502D2CF64
:103C10000895CF92DF92EF92FF920E94201188E0E8
:103C200093E00E9463120E94381D0E9498140E9423
:103C3000241183E193E00E946312609186027091E7
:103C40008702809188029091890238EEC32E33E07A
:103C5000D32EE12CF12CA70196010E94F739C9015E
:103C60000E94981486E193E00E94631260918202A0
:103C7000709183028091840290918502A701960140
:103C80000E94F739C901FF90EF90DF90CF900C941C
:103C900098140E94201189E193E00E9463120E940F
:103CA0003D2768E00E9416150E9414130E942411FB
:103CB00082E10E946A08882349F082E293E00E9430
:103CC00063120E94432768E00E9416150C94141397
:103CD0000E9420118BE293E00E94631267E086E06D
:103CE0000E94450C0E9414130E94241183E393E068
:103CF0000E94631247E061E0809154039091550364
:103D00000E94D6140C9414130E9420118BE393E0AC
:103D10000E94631267E080E00E94450C0E94141329
:103D20000E94241182E493E00E94631267E082E122
:103D30000E94450C0C9414130E94201189E493E016
:103D40000E9463128091460390914703892B29F0CA
:103D500065E087E00E94450C04C08FE493E00E9478
:103D600063120E9414130E94241181E593E00E94C3
:103D7000631265E085E00E94450C0C9414130F93C8
:103D80001F93CF93DF9300D0CDB7DEB78B0189832C
:103D90009A830E9428110E94201189819A810E9491
:103DA00063120E942411C8010F900F90DF91CF91F0
:103DB0001F910F910C94631287E593E00E941E1CE3
:103DC0000E94241188E693E00E9463120E94381D2D
:103DD0000C9498148BE793E00C941E1C0E94201105
:103DE0000E940D1D0E94F01B0E9424110E945E1D66
:103DF0000C94101C0E94201182E993E00E9463122F
:103E000067E08BE10E94450C0E9414130E9424116C
:103E10008BE993E00E9463120C94101CCF930E94D4
:103E20004D1CC82F0E94201168E087E10E94450CBC
:103E300085EA93E00E94631267E086E10E94450CE8
:103E40000E9414130E94241168E089E10E94450C2D
:103E500087EA93E00E94631264E08C2F90E00E9456
:103E600095148AEA93E00E946312CF910C94141384
:103E70000E9420118CEA93E00E9463128091460315
:103E800090914703892B41F069E08091080190915E
:103E900009010E94BA1404C082EB93E00E946312ED
:103EA0000E9414130E9424118BEB93E00E94631272
:103EB0000C94F01B62ED73E085EC93E00C94BF1E54
:103EC0000E945A1F0C94B82A63EF73E082EE93E0CD
:103ED0000E94BF1E88E893E10C94B6290E9420112D
:103EE0008EEF93E00C94631284EF91E00E94B62968
:103EF00060E274E08FE094E00E94BF1E84EF91E0E6
:103F00000E94B62962E474E081E394E00E94BF1E3F
:103F100084EF91E00C94B62964E674E083E594E0C4
:103F20000E94BF1E80E49FE10C94AC07CF930E94D7
:103F3000201164E070E088E692E00E94231980E29C
:103F40000E94BD1288E692E00E94331980E20E942E
:103F5000BD128091A7020E94451C0E9424110E945C
:103F60004D1C90E08436910569F480E892E00E944F
:103F7000C12A882321F084E00E9405130AC085E746
:103F800094E005C062E00E9495148AE794E00E94E4
:103F9000631280E892E00E94C12A882319F0C09140
:103FA000800201C0CFEFC0FF05C065E080E00E9445
:103FB000450C03C085E00E94051380E20E94BD12FB
:103FC0008091680284508430A8F4C1FF05C065E088
:103FD00082E10E94450C03C085E00E940513C2FFE8
:103FE00005C00E948C08CF910C94171380E2CF91EA
:103FF0000C94BD1266E08091690290916A020E9461
:104000002215CF910C941413909181029F5F90938D
:104010008102883059F168F48430F1F030F4823054
:10402000B9F0C0F48130B9F526C08630C9F0D0F4BB
:1040300015C08C3021F120F48A3059F1F0F419C008
:104040008E3019F1F0F08F3011F1803121F51BC065
:104050000C94831D0C94161D0C94091E0C949C1E2C
:1040600061E005C061E083E00C94A11C66E080E0A3
:10407000FBCF66E0F8CF0C94961F0C94491E0C946D
:10408000841E0C94681E0C940E1F0C94FA1E0C9443
:10409000381F0C94EE1E08958FEF809380020895D0
:1040A0000F931F93CF93DF930E946723C0916B02FE
:1040B000D0916C0261E088E692E00E94C1188C0108
:1040C000CE0165E070E00E94E3398FE00E94E50BCD
:1040D000EC0140E0BC01C8010E9467278FE00E940C
:1040E0008F27CE01DF91CF911F910F910C94512317
:1040F00081E00C9475230E94CC08882321F00E9453
:104100004C230C943728089510928E020C94502062
:10411000CF93DF930E947B200E94C708EC0180911F
:104120008E02811111C062E088E692E00E94C118FF
:104130008C179D0748F481E080938E0280916B027A
:1041400090916C020E9461230E94CC088823D9F1CF
:1041500064E088E692E00E94C1188C179D0758F130
:1041600032C080918F02882389F08AE10E94D407AF
:10417000EC0188E692E00E94F418D195C195D1092E
:104180008C179D071CF48BE894E017C08091900277
:10419000811101C00EC08CE10E94D407EC0188E6B9
:1041A00092E00E9412198C179D071CF48FE894E08E
:1041B00004C082E00FC083E894E09093A60280934D
:1041C000A50281E007C0809114019091150102972A
:1041D00040F6EFCFDF91CF910895809390026093E6
:1041E0008F020895709394026093930290939202C9
:1041F0008093910208950F931F93CF93DF93C09103
:104200009102D0919202CE010E94A70E8C010E94D1
:10421000C708C817D90738F4C801DF91CF911F919B
:104220000F910C94890E81E0DF91CF911F910F9136
:1042300008950F931F93CF93DF930E94FB20182FB5
:104240000E949E23EC010E94CC08882311F001E01B
:1042500001C0012F80919502882329F0BE01812F92
:104260000E94E72701C0812F882329F081E00E9466
:10427000F32381E00DC0011101C009C0BE01812FEF
:104280000E9406298C179D0711F00E94D72382E017
:10429000DF91CF911F910F9108950E94E5230E9415
:1042A000F60C1092950280E10C948F2781E00E9419
:1042B000F3230C94F10CBC0180E10E94E50B0C94FB
:1042C0000A270F931F93CF93DF938C01EB010E947A
:1042D000F220BE0180E10E94E50B40E0BC01C80174
:1042E0000E946727CE016AE070E00E94E339CB01AB
:1042F000DF91CF911F910F910C945B210E94F60CDE
:104300000E9467238FE00C948F2781E00E94752321
:104310000C94F10C0F931F93CF93DF931F92CDB7A3
:10432000DEB78C018FE049830E94E50B4981BC0117
:10433000C8010F90DF91CF911F910F910C946727C7
:104340000F931F93CF93DF931F92CDB7DEB78C01EE
:104350008FE049830E94E50B4981BC01C8010F90A1
:10436000DF91CF911F910F910C947B27BC018FE0BF
:104370000E94E50B0C940A270F931F93CF93DF93B2
:10438000C0912C03D0912D03CE010E94A70E8C0169
:104390000E94C7088C179D0738F4C801DF91CF91A0
:1043A0001F910F910C946B0E81E0DF91CF911F91C3
:1043B0000F9108951F93CF93DF930E94BC21182F74
:1043C0000E944C23EC01BC01812F0E94E727882327
:1043D00029F081E00E94752381E01BC00E94CC0877
:1043E00081110BC0111109C0CE010E942427811137
:1043F00004C00EC00E9451230BC00E94610C8111A9
:1044000007C0BE01812F0E9406298C179D0791F7D6
:1044100082E0DF91CF911F9108950E9485210E9433
:1044200056210C94F10CCF93DF931F92CDB7DEB7DA
:1044300090919702913039F018F0923081F406C0D3
:104440000E94DA210CC00E94192109C00E943C0E72
:10445000823089F089830E940D2289810CC08130CD
:1044600051F490919602992331F082E08093970263
:104470000E94F60C82E00F90DF91CF9108950E9488
:10448000F60C80919802909199020E94A70E0E94CA
:10449000890E882329F00E947E21109297020895A8
:1044A0000E944D2181E080939502809397020895A8
:1044B0008093960208950F931F93CF93DF93EC019F
:1044C0008A01909399028093980240E00E948A2189
:1044D000B801CE01DF91CF911F910F910C94612112
:1044E0000E94E52387E08093800282E0809381022E
:1044F0000E94563283E080939B02089581E00E94DF
:10450000F3238FEF8093800288E00C945D32FF925A
:104510000F931F93CF93DF9380E00E946A08FF24DC
:10452000F394F82680919A02882379F00E948C08EF
:1045300090916F0201E0981301C000E011E0811139
:1045400010E0913021F4112311F010E000E00E94FE
:104550008C08811129C0112339F182E10E94D4070E
:10456000EC0180E00E94D407C817D90728F49C0109
:104570002C1B3D0BE90102C0C81BD90BC53FD14024
:1045800008F065C011C08091A702882331F0843003
:1045900021F0853011F0863039F40E94741F81E0DB
:1045A0000E945D3210E000E082E10E946A088823E8
:1045B000B1F082E10E94D407EC0180E00E94D407B0
:1045C000C817D90728F49C012C1B3D0BE90102C038
:1045D000C81BD90BC53FD14010F0FF24F394011143
:1045E00002C087E001C083E080938002112329F09C
:1045F00080918002825080938002FF2029F0809178
:104600008002815080938002011104C0111102C008
:10461000FF2011F081E001C088E00E945D320E941D
:104620008910811102C010929B02011108C0111162
:1046300006C0F11004C00E948910883079F0809182
:104640009B02823011F481E00FC082E00DC08091A6
:1046500068028450843008F496CFA6CF80919B02E4
:104660008F5F80939B02EBCFDF91CF911F910F91D2
:10467000FF90089580939A02089581E090919E02A0
:10468000911180E0089581E020919C0230919D027B
:10469000232B09F480E0089580919C0290919D0263
:1046A00008959C01213080E2380710F020E030E2CC
:1046B00030939D0220939C02C9010E9423050C9413
:1046C000EC09BC018FE00E94E50B0C945123809112
:1046D0009E02882349F080E090E00E94512381E00F
:1046E0000E94190510929E020895CF93C82F8091C1
:1046F0009E0281110BC0CC2349F080E090E00E9423
:10470000512380E00E941905C0939E02CF91089525
:1047100080E090E00E94512381E00C94752381E0B9
:104720009091A302911180E0089581E02091A1026F
:104730003091A202232B09F480E008958091A10218
:104740009091A2020895CF93DF93EC01409144032E
:1047500050914503BA01645F714084EA92E00E947F
:10476000DF298091A402882311F0C0E0D0E0CE01BF
:10477000DF91CF910895CF93C82F80919F029091A0
:10478000A0020E94A3232091A1023091A2028217CD
:10479000930711F4CC2349F09093A2028093A102D5
:1047A0000E943105CF910C94EC09CF9108959C01A2
:1047B000213084E0380710F020E034E03093A0028C
:1047C00020939F0281E00C94BB238091A302882355
:1047D00049F080E090E00E94D72381E00E941E050E
:1047E0001092A3020895CF93C82F8091A302811144
:1047F0000BC0CC2349F080E090E00E94D72380E0FA
:104800000E941E05C093A302CF91089580E090E01E
:104810000E94D72381E00C94F3238091A30281119D
:1048200002C00C94BB23089580916802873051F038
:10483000982F9450943048F08150823048F42AEBFD
:1048400032E008C028EA32E005C021EB32E002C0C5
:1048500023EC32E0C901089587EA94E090935B026B
:1048600080935A0290916802945081E0943008F04D
:1048700080E00E943A2361E08DEA94E00E94060FF6
:1048800091E0813009F090E0892F08950F931F93F4
:10489000CF93DF930E94582200916D0210916E0217
:1048A000C0916B02D0916C0263E088E692E00E94B6
:1048B000C118A801BE010E945B2281EA94E0909396
:1048C0005B0280935A0260E083EB94E0DF91CF912A
:1048D0001F910F910C94060FEF92FF920F931F936D
:1048E000CF93DF938C01CBE6D2E0E880F98061E0E2
:1048F00088E692E00E94C11840E0B7010E948A2138
:1049000088819981B8010E94E339CB010E94B621C8
:104910008BE994E090935B0280935A0260E08FEB06
:1049200094E0DF91CF911F910F91FF90EF900C9445
:10493000060FCF93DF93C0916B02D0916C0261E0C0
:1049400088E692E00E94C11841E0BE010E948A21DF
:104950008BE994E090935B0280935A0260E08FEBC6
:1049600094E0DF91CF910C94060FCF93DF93C09129
:104970006B02D0916C0261E088E692E00E94C1185F
:1049800041E0BE010E94A0218BE994E090935B027C
:1049900080935A0260E08FEB94E0DF91CF910C940A
:1049A000060F81E02091460330914703232B09F441
:1049B00080E061E00E94ED208DE794E090935B023F
:1049C00080935A0260E08CEC94E00C94060F62E055
:1049D00088E692E00E94C11860916D0270916E02AB
:1049E000E0916F02F091700240915603509157038D
:1049F000E49F9001E59F300DF49F300D1124820F4C
:104A0000931F0E94612185E994E090935B0280935B
:104A10005A0260E088ED94E00C94060FCF93DF9388
:104A2000C0916D02D0916E0262E088E692E00E9431
:104A3000C118BE010E94612185E994E090935B0258
:104A400080935A0260E085EE94E0DF91CF910C9460
:104A5000060F8CE291E090935B0280935A0260E033
:104A60008FEE94E00C94060FCF93C82F8093A7028B
:104A700025EF34E03093A6022093A5028E3030F467
:104A8000E82FF0E0EA55FF4F808101C080E080937D
:104A900061000E94B8330E940F0A0E942C248823D0
:104AA00009F444C084E00E945D32C53031F168F4FD
:104AB000C230B9F128F4CC23B9F0C130A9F52EC029
:104AC000C330A9F0C43081F515C0C83009F128F40D
:104AD000C630C1F0C73041F517C0CC3071F0CD30D1
:104AE00049F0C93009F517C08AE090E008C00E947B
:104AF00029251CC00E94E72419C085E090E00E948F
:104B00006C2414C080E001C081E00E9446240EC0E5
:104B10000E94D1240BC00E940E2508C00E94992437
:104B200005C00E94B52402C00E94601F0E941E0A98
:104B3000CF910C94C8330F931F93CF93DF93EC0165
:104B40000E9495180E9414248C0160E0C8010E9404
:104B5000F81787FD29C090916802E82FFF27E7FD2D
:104B6000F095973019F4EA50FB4F0FC0892F84500D
:104B7000843018F4E350FB4F08C09150923018F481
:104B8000EA5FFA4F02C0E55FFA4F84918E3049F434
:104B9000BE0188E692E00E948119CE010E94A3180E
:104BA000D1CF0E943425D1CFDF91CF911F910F91AA
:104BB00008956EE075E081EB92E00E940A1762E2D0
:104BC00075E08AEB92E00E940A176EE275E088EACF
:104BD00092E00E940A176EE375E083EC92E00C9479
:104BE0000A17FC01428153814115510589F0A081CA
:104BF000B181B7FF03C0B195A195B10928EE33E0AB
:104C00000E94B5399A0140E050E00E94F73902C095
:104C100020E030E0C90108950F931F93CF93DF93F5
:104C200000D000D0CDB7DEB78C01862FF8016281AD
:104C300073810E94390A9C838B83F8018081918162
:104C40009A838983CE0101960E94F1250F900F90DF
:104C50000F900F90DF91CF911F910F9108950F93B7
:104C6000FC01CA01002341F06417750708F4CB0169
:104C70004617570748F409C04617570708F4CB01F1
:104C80006417750708F401C0BA019783868391837E
:104C90008083138212821582148233872287681BD5
:104CA000790B718760870F910895FC019B0140E0AB
:104CB00050E086819781281B390B41095109A28553
:104CC000B3850E94BC3920853185442737FD409546
:104CD000542F0E94193A2115310581E048075105EA
:104CE0001CF457FD04C005C02FEF3FEF02C020E0C9
:104CF00030E0C9010895DF92EF92FF920F931F9366
:104D0000CF93DF93EC012A813B812417350720F4F0
:104D1000FA01E21BF30B03C0F901E41BF50B8C81D4
:104D20009D81969587958E179F0788F58881998133
:104D30008617970720F4FB01E81BF90B03C0FC0161
:104D4000E61BF70BEF2BF9F422C08A01021B130BB1
:104D50007B01E81AF90A06C07C01E61AF70A890104
:104D6000041B150BC7010E940D2AD82E8885998532
:104D70000E940D2AD8120BC01D830C83F986E88689
:104D80001B870A8704C024173507F8F2E5CFDF91A7
:104D9000CF911F910F91FF90EF90DF9008950F93A7
:104DA0001F93CF93DF93EC018B019A01A885B985FE
:104DB0000E94B5392A853B8540E050E00E94193AAF
:104DC000C801A0E0B0E082179307A407B5071CF460
:104DD0001F821E8204C0021B130B1F830E83DF91F0
:104DE000CF911F910F910895EF92FF920F931F9310
:104DF000CF93DF93EC018B017A010E947B26A70100
:104E0000B801CE01DF91CF911F910F91FF90EF90EC
:104E10000C94CF26909333038093320308958091AE
:104E2000CE02813029F4209132033091330302C045
:104E300020E030E0C901089560912E0370912F03A6
:104E40008091D0020C94390A2091D302213041F094
:104E500041E020913203309133038217930708F029
:104E600040E0842F08952CE0829FC00111246091BE
:104E7000D00284529D4F0C940C266091D00284E2A3
:104E800093E00C940C26CF93DF9300D000D0CDB7E5
:104E9000DEB780E00E94D4079A83898382E10E9472
:104EA000D40729813A81281B390B3A83298386E16B
:104EB0000E94D4079C838B83CE0101960E94F1252A
:104EC0000F900F900F900F90DF91CF9108959093D6
:104ED0002D0380932C0370932F0360932E03CB013B
:104EE0006AE070E00E94E339709333036093320309
:104EF0004093CF02089590932D0380932C037093D9
:104F00002F0360932E03CB0164E170E00E94E3392C
:104F100070933303609332034093CF020895EF926E
:104F2000FF920F931F93CF93DF9391E09093CE0264
:104F3000FF24F3948F3009F0F12C8093D00268ECB9
:104F400070E00E94E50B90933103809330030E9440
:104F5000C708209132033091330340912C035091C4
:104F60002D030F2DBC018CE193E00E942F260E949F
:104F70005E0C8093D10280912C0390912D030E94AE
:104F8000A70EEC0110E08CE0E82E12C0812F0E94E9
:104F9000970CBC012091320330913303E19EC00194
:104FA00011240F2DAE018C529D4F0E942F261F5FA2
:104FB0008091D102181750F31092D3021092D202AE
:104FC000DF91CF911F910F91FF90EF9008950F9374
:104FD0001F93CF93DF93082FEB018091CF0288239B
:104FE000C9F0409130035091310320913203309148
:104FF00033032417350708F49A012C173D0710F4E2
:10500000109256028091D302813021F00E943C0E12
:105010008093CE028091CE02813019F58091D30227
:10502000823041F411E02091320330913303C217F2
:10503000D30708F010E00E940F278C179D0778F027
:10504000111103C0011101C00AC09091D202892F31
:105050008F5F8093D20281E09A3020F402C01092D8
:10506000D20280E0DF91CF911F910F9108950F93AD
:105070001F93CF93DF93EC010E94C708AE01BC01E0
:105080008CE193E00E94F42610E00CE00DC0812F2B
:105090000E94970CBC01019FC0011124AE018C52EB
:1050A0009D4F0E94F4261F5F8091D102181778F35C
:1050B000DF91CF911F910F910895CF92DF92EF92E0
:1050C000FF920F931F93CF93DF9360912C03709106
:1050D0002D038CE193E00E945526EC0180912C0376
:1050E00090912D030E94A70E7C01D12C9CE0C92E2B
:1050F00012C0CD9C800111240C521D4FB701C80174
:105100000E945526C817D90728F0B701C8010E9488
:105110005526EC01D3948091D102D81650F3CE01DC
:10512000DF91CF911F910F91FF90EF90DF90CF9083
:1051300008950F931F93CF93DF938B0180932A03DE
:1051400090932B0320912E0330912F03EC0128170D
:10515000390708F4E9010E940F279C018C179D076D
:1051600008F49E010217130719F18091D3028230CF
:10517000A9F42017310790F0809132039091330306
:1051800080179107A0F04091280350912903809146
:105190003302909134024817590749F08091330245
:1051A00090913402909329038093280301C09801C1
:1051B000C901DF91CF911F910F9108950F931F9314
:1051C000CF93DF93EC010E94C70890931D03809357
:1051D0001C03D0931F03C0931E0310E00CE00DC00E
:1051E000812F0E94970C019FF0011124EC52FD4F7A
:1051F00091838083D383C2831F5F8091D10218176C
:1052000078F3DF91CF911F910F9108951F93CF9362
:10521000DF93182FEB01CB010E943728CE010E94AB
:10522000DE280E945D289093CD028093CC02BE01BF
:105230000E9499289C018091D302811110C01123F2
:1052400089F08091CF02882321F00E94EA0C10920D
:10525000560281E08093D30220E030E003C082E078
:105260008093D302C901DF91CF911F9108950F93CD
:105270001F93009134031091350320913603309130
:105280003703B801C9011F910F91089512BE8DE730
:105290008CBF88E083BF83B7836083BF89B7826098
:1052A00089BF08958091340390913503A09136030E
:1052B000B09137030196A11DB11D809334039093E3
:1052C0003503A0933603B093370308950E94522903
:1052D0000E9436330E94DB2A80916200815019F0CF
:1052E00080936200089581EE809362000E940D24F5
:1052F0000E949A080C94D21D1F920F920FB60F9223
:1053000011242F933F934F935F936F937F938F93CA
:105310009F93AF93BF93EF93FF930E946629FF91F2
:10532000EF91BF91AF919F918F917F916F915F911D
:105330004F913F912F910F900FBE0F901F90189596
:105340000F931F938FB7F894009134031091350396
:1053500020913603309137038FBF369527951795E7
:105360000795B801C9011F910F910895CF92DF925F
:10537000EF92FF92CF93DF93EC010E94A0296B0183
:105380007C01CC0EDD1EE11CF11C0E94A0296C15D5
:105390007D058E059F05C8F3DF91CF91FF90EF90BB
:1053A000DF90CF9008959C0180E001C08F5FF901EC
:1053B000459154912E5F3F4F452BC1F70895EF92D1
:1053C000FF920F931F93CF93DF93EC017B018A0130
:1053D00085E00E94D4078E159F0518F4188281E09D
:1053E00007C00817190718F481E0888301C080E01E
:1053F000DF91CF911F910F91FF90EF90089521E0E1
:1054000030E09AE006C0A901949F9001959F300D6D
:1054100011248150C0F7C901089597FD02C081E0B1
:1054200008958FEF0895CF92DF92EF92FF92CF937E
:105430009B01AC01611571058105910521F421E005
:1054400030E040E050E0C0E08AE0C82ED12CE12CF2
:10545000F12CCF5FCA01B901A70196010E94F7396B
:105460002115310541055105A1F78C2FCF91FF90F2
:10547000EF90DF90CF900895BC0180E090E00C9415
:10548000132AFC0180819181860F971F97FF03C02B
:10549000118210820895242F30E0281739071CF458
:1054A000408311820895918380830895FC01808157
:1054B0009181860F971F181619061CF081E090E065
:1054C00008C0242F30E0281739071CF440831182CC
:1054D0000895918380830895DF92EF92FF920F9356
:1054E0001F93CF93DF93EC018A01DD24D39416162A
:1054F00017060CF0D12CE880F980B70180E090E02D
:105500000E94132A823028F082500E94FF299C01B9
:1055100002C021E030E0C701B9010E94E3390097E1
:1055200039F0DD2019F0281B390B04C09C010EC096
:10553000DD2061F0C801821B930BE816F90618F410
:1055400089010E0D1F1D198308830AC02E153F0502
:1055500018F4E21AF30A02C0E12CF12CF982E88275
:10556000DF91CF911F910F91FF90EF90DF90089501
:105570000E94B6108111FCCF0E94B6108823E1F37F
:105580000895FC01208127FD05C0818186958F5FEC
:105590008170089580E00895FC01208127FD09C0F5
:1055A0008181982F91509695282F269581E092130E
:1055B00001C080E0089585E00E94DD072091380356
:1055C000309139032817390710F480E008C0209182
:1055D0003A0330913B038217930718F481E00C944F
:1055E0000C0508951F93CF93DF931FB7F894C2E47F
:1055F000D3E068817981645F714085E00E94E50BAA
:1056000090933903809338036881798185E00E9403
:10561000E50B90933B0380933A031FBFDF91CF913B
:105620001F9108956CE87EE680E00E94E50B909360
:105630003D0380933C030895CF93DF9385E00E9460
:10564000D40720914403309145032C503E4F281736
:10565000390718F481EC95E040C080E00E94DD0736
:1056600020913C0330913D032817390718F48AEC48
:1056700095E033C086E00E94D407EC0186E00E94EA
:105680006A08882381F18091540390915503C817CB
:10569000D90708F128C08C179D0740F48BED95E0E1
:1056A0009093A6028093A50281E02AC080914603D0
:1056B00090914703892B11F482E022C087E00E9479
:1056C000D407209148033091490328173907A0F7E0
:1056D00084EE95E002C083ED95E09093A60280935E
:1056E000A50280E00DC088E10E94D407EC0188E6A5
:1056F00092E00E94D318883E2DEF920761F6D6CF34
:10570000DF91CF9108950F931F93CF93DF938C0177
:10571000443019F0CFEFDFEF02C0C1E0D0E00E94CB
:105720008B10D8011B96EC91F0E0EE0FFF1FE05AB2
:10573000FE4F9C01C29FC001C39F900DD29F900D50
:10574000112420813181820F931F91838083DF9107
:10575000CF911F910F910895EF92FF920F931F9396
:10576000CF93DF931F92CDB7DEB78C01443021F089
:10577000EE24EA94FE2C03C0EE24E394F12C69831A
:105780000E948B10D8011B96ED91FC911C976981AA
:10579000E60FF11DE491F0E0EE0FFF1FE05AFE4F1F
:1057A0009C01E29EC001E39E900DF29E900D11249B
:1057B00020813181280F391F318320830F90DF91A1
:1057C000CF911F910F91FF90EF9008951F93CF936A
:1057D000DF93EC01162F0E94FC16CE0109960E9461
:1057E000C12A882311F0898501C08FEF992787FD91
:1057F0009095612F70E08617970741F0EB85FC8547
:10580000E60FF71F84916D850E94450CDF91CF91C3
:105810001F9108951F93CF93DF93EC01162F0E94E1
:10582000FC16CE0109960E94C12A882311F0298511
:1058300001C02FEF332727FD3095812F90E02817E7
:10584000390769F0111105C067E08B850E94450C8E
:1058500006C08B850E94CB0767E00E949514DF91FC
:10586000CF911F910895CF93DF9300D000D0CDB793
:10587000DEB780E00E94CB079A83898382E10E9491
:10588000D4079C838B83AE014F5F5F4F61E080E064
:105890000E9414080F900F900F900F90DF91CF91FE
:1058A000089560E070E08DEE95E00E94BF1E80E0FC
:1058B0000E946A08811106C00E94B6108130B9F7B3
:1058C00080E0089581E00895CF93DF9300D000D069
:1058D000CDB7DEB7862F5A8349833C832B83AE0135
:1058E0004F5F5F4F61E00E9414080F900F900F9080
:1058F0000F90DF91CF910895FF920F931F93CF9355
:10590000DF93F62E142F022F83E00E945D32812F49
:105910000E94D407EC0181E0809332020E94950737
:10592000802F0E94CB07AC019E01602F812F0E9427
:10593000642C0E949507FF2039F0DF91CF911F91D1
:105940000F91FF900C94332CDF91CF911F910F9109
:10595000FF900895CF92DF92EF92FF920F931F93E3
:10596000CF93DF93CDB7DEB72E970FB6F894DEBF97
:105970000FBECDBF0E94E5230E94512C882309F45D
:1059800046C06EEF75E08E010F5F1F4FC8010E9489
:105990000A178FEF8A8788EB90E09A83898382E1E8
:1059A00096E09D878C8789E08E87E02ED12E61E07E
:1059B0008E2D9D2D0E94F817F82E87FD28C0082FE8
:1059C000112707FD1095F801EE5EF94FC49086E0AF
:1059D0008F156CF38C2D0E946A08882341F30E9476
:1059E0009507109232026F2D8E2D9D2D0E94221749
:1059F000882349F0F801E55EF94F24914C2D61E0D0
:105A00008F2D0E947C2C81E080933202D0CF81E0E8
:105A10000E94F3232E960FB6F894DEBF0FBECDBFC3
:105A2000DF91CF911F910F91FF90EF90DF90CF907A
:105A300008950E94201182E296E00E94631265E0C0
:105A400080913E0390913F030E9495140E9414138D
:105A50000E9424118AE296E00E94631267E086E1C8
:105A60000E94450C0C941413FF920F931F93CF9335
:105A7000DF93082F10923F0310923E03811105C05F
:105A80000E946723C0E0D2E004C00E94E523C9E47D
:105A9000D0E00E94512C811105C0C0E03AC0FF2423
:105AA000F39401C0F12C0E94192D0E94B610182FFA
:105AB000843051F420913E0330913F032C173D0771
:105AC00090F72F5F3F4F0BC08230C1F420913E030F
:105AD00030913F032115310531F3215031093093C5
