:100000000C94BB040C94E3040C94E3040C94E304FC
:100010000C94E3040C94E3040C94E3040C94E304C4
:100020000C94E3040C940C060C944A2C0C94D83BCE
:100030000C94E3040C9454390C9492390C94E3041A
:100040000C940A070C94E3040C94E3040C94E3046A
:100050000C94E30428221522172219221B221D22A8
:100060001F222322262236222A222C222E2232222C
:100070003422302238220000000048A50C4C000039
:1000800000007C6B0831850032007D09E8038000A8
:10009000320057012C0100000000C0AE4E5AFC5344
:1000A00050143FA0540B00000000A8D5803E8018DB
:1000B0006009DC377017000000000000000000003D
:1000C000000040C7370F0000000080C7300F00005D
:1000D000000040CA310F00000000E1C7340F0000EB
:1000E0000000B7C6400F00000000B7C6400F030075
:1000F00032005600E803090032001A002C01FF000C
:1001000000000005040000040900FF0101000105D2
:10011000050001040A00FF020200020506000204B5
:100120000B00FF0000000305070003040C00FF03A1
:1001300003000405110204040D00FF02020005057E
:10014000110405040E0006051101070511081C0D18
:10015000170D620E436865616C694368617267657B
:1001600072007665723A20302E33326D00710100D4
:10017000006F7074696F6E7300010001000100016F
:100180000001000A006400010002000400100040A9
:10019000000001000401000300080007000700142C
:1001A000000700496E660079657300206E6F006D70
:1001B000560093029B02A002A502A902AE02B3025E
:1001C000B802010001000100010000000100B004BC
:1001D0001C075203000008071405B0044006E8039A
:1001E000000008071405D0079209D6060000000099
:1001F0006C07E40C100ED007E40C0000B80B100ED6
:100200000410C409A60E0000AC0D740E6810B80BE3
:100210000A0F0000890C40066C0714054006000018
:10022000DC0500980898086C071027580201980808
:1002300098086C070100E00102980898086C070113
:1002400000E001039808DC006C070600E001049858
:100250000898086C070300780005980898086C0750
:100260000300780006980898086C070300780007D8
:10027000980898086C0703007800756E6C696D69C2
:10028000746564006D696E2E00756E6C696D6974BD
:10029000656400556E6B6E6F776E004E6943640047
:1002A0004E694D480050623F004C696665004C69DC
:1002B0006C6F004C69706F004E695A6E00E002E787
:1002C00002EC02F102F602FB0201030F03000045FB
:1002D000646974206E616D653A004E616D653A0027
:1002E0004261743A202000563A20200043683A20A8
:1002F0000049633A200049643A2000546C696D3A21
:10030000002020637265617465206E616D65002058
:10031000202065646974206E616D65004368434206
:100320005362426C44694643537453424368446980
:10033000437943594368446945420020202D2D20CC
:1003400020004C696D6974733A200074696D653AD8
:100350002020202020006220002020006261747490
:100360002E20523D00776972657320523D00566918
:100370006E7075743D00206C696D69743D00566F38
:100380007574203D005662616C2E3D005465787492
:100390003D002D0054696E743D0070726F6772618C
:1003A0006D20636F6D706C6574650054696D653A9E
:1003B0002000726561736F6E3A20004572726F7231
:1003C000006E6F742075736564006D6178566F758B
:1003D000743D0064656C746120563D20002000204F
:1003E00000202000202D2D3A2D2D00250054657869
:1003F000743D006E6F7420757365640064656C7481
:100400006120543D20004E2F4100706C6561736582
:100410002063616C696272617465006265666F7207
:100420006520757365005245564552534520504F1F
:100430004C415249545900202020205741524E49E6
:100440004E470042616C616E636572206E6F742E60
:10045000636F6E002020686F6C6420627574746F27
:100460006E0020746F2053746172742F73746F70F8
:100470000043616C6962726174696F6E004552522B
:100480004F520025200073226722772256206C6984
:100490006D6974002D64560064542F6474003C230D
:1004A000452308236D237423C9232E24FC2302240F
:1004B0005F246D24762450726576656E7420502E0C
:1004C000537570706C7900534D5053207570005007
:1004D000726576656E7420502E537570706C79005D
:1004E000534D505320646F776E000106070D0500D1
:1004F0000210060708090B0C0D0405030002100684
:100500000708090B0C0D0405030002100A0E0F0B5F
:100510000C0D04051103000210060708090B0C0D51
:100520000405030002100F0B0C0D04050311000657
:1005300007040D0500000001020304050E0001027E
:1005400003040506070E08090A0B0E0C0D0E86059E
:100550008D059C05AB05B305BD05C905D105E005B5
:1005600000008605B305ED05F705E00500008605EA
:100570008D059C05AB05B305BD05E00500008605AE
:10058000B305E00500006368617267650063686138
:100590007267652B62616C616E636500737570656F
:1005A000726368617267652B622E0062616C616EB6
:1005B000636500646973636861726765006661738F
:1005C00074206368617267650073746F7261676538
:1005D0000073746F726167652B62616C616E63009A
:1005E00065646974206261747465727900633E6445
:1005F000206379636C6500643E63206379636C6596
:1006000000696E7465726E205400626174206469C2
:10061000736300696E7075742056006361702043C7
:100620004F464600542E206C696D697400657874DD
:100630002054434F4600436F6E6E656374204261E1
:10064000747421009E06A406AA06B006B606BC066F
:10065000C206C806CE060000061E1F202122231255
:100660000006090A0B0C0D0E76616C75653A2000C8
:10067000496F75743A202000D406D9060000D406CC
:10068000E0060000E606ED060000F406FD060000A8
:1006900006070B07140720072907320700005669D1
:1006A0006E3A20005662313A20005662323A2000FB
:1006B0005662333A20005662343A20005662353A88
:1006C00020005662363A200056312D363A00566FD9
:1006D00075743A0035306D4100313030306D410075
:1006E0003330306D410074656D703A200076616C76
:1006F00075653A00706F696E7420312E00706F69F5
:100700006E7420322E00766F6C740049206368612D
:100710007267650049206469736368617267650088
:1007200074656D70206578740074656D7020696EF5
:10073000740063616C69622D3E5541525400460756
:100740004F075907000073657474696E677300631F
:10075000616C6962726174650072657365742064AE
:10076000656661756C740080250000004B00000018
:1007700096000000E1000000C201004600881370EE
:100780001700007017640007000C0005001E0078B9
:1007900000581B0000080000000300CD07D807E345
:1007A00007EE07FA0705080C08160820082C083879
:1007B0000842084D085608600867086F08000043A3
:1007C0002F6D007808810888088E08970862616399
:1007D0006B6C696768743A0066616E206F6E3A20D0
:1007E0002020006469736368206F66663A0065784C
:1007F00074726E20543A20202000657874726E2046
:1008000054434F3A0064542F64743A004E694D4883
:10081000202D64563A004E694364202D64563A00F8
:10082000432F44206379636C65733A007761737476
:100830006520542E3A20200063617020434F666685
:100840003A00696E707574206C6F773A0064697352
:100850006368202B3A0062616C2E206572723A0048
:10086000554152543A200073706565643A20002067
:10087000202072657365740064697361626C6564DD
:10088000006E6F726D616C006465627567006578FB
:10089000742E20646562006578742E2041646300C4
:1008A00013161817190705061E1F2021222372652B
:1008B000736574696E6720656570726F6D3A007656
:1008C0003A20372E39382E39372000630064007300
:1008D0000000000000000000000000000000040311
:1008E0000005000000000000000000000000000003
:1008F00000000000000000000000000100000020D7
:100900004080000000000001020408102040800028
:1009100000010204081020408000000080402010E8
:100920000804020100000102040810000202020093
:100930000000000004040404040404040000030391
:10094000030303030303000000010101010101018E
:10095000010000020202020200003B0038003500E4
:10096000320000003A00370034003100F905D00FA2
:100970003B226B28843A11241FBECFE5D8E0DEBFAE
:10098000CDBF10E0A0E6B0E0EAEAFBE702C00590C8
:100990000D92A23FB107D9F715E0A2EFB0E001C078
:1009A0001D92A130B107E1F719E0C6E7D9E004C014
:1009B0002297FE010E945A3DCC36D107C9F70E940A
:1009C000403B0C94D33D0C940000CF93DF93EC019B
:1009D00011C061E080E10E94953C8CE890E00E94AB
:1009E000223C60E080E10E94953C88E290E00E9419
:1009F000223C2197209769F7DF91CF910895CF92FC
:100A0000DF92EF92FF920F931F93482F282F30E031
:100A1000A8EBBBE00E94CC3C6B017C01A4E6B0E0FB
:100A2000A41BB10924E630E00E94D83C6C0D7D1D6A
:100A30008E1D9F1D24E630E040E050E00E941A3DEC
:100A400069017A010FEF1FEF9801A6016DE087E0C1
:100A500091E00E94B4061F910F91FF90EF90DF90FC
:100A6000CF900895682F89E00C94953CBC0180E1FB
:100A70000C94943B61E068278CE00C94953C61E019
:100A800068278FE00C94953C61E068278BE00C941C
:100A9000953C0F931F930FEF1FEF9801AC016EE091
:100AA00087E091E00E94B4061F910F9108950F9383
:100AB0001F930FEF1FEF9801AC016EE087E091E00C
:100AC0000E94B4061F910F910895CF93C82F682FED
:100AD000617088E20E94953C6C2F627089E20E94EE
:100AE000953C6C2F64708AE20E94953C6C2F687074
:100AF0008BE20E94953C6C2F60718FE10E94953CC7
:100B00006C2F60728EE1CF910C94953C61E08DE08A
:100B10000E945D3C61E08CE00E945D3C61E089E008
:100B20000E945D3C61E080E10E945D3C61E088E202
:100B30000E945D3C61E089E20E945D3C61E08AE2E6
:100B40000E945D3C61E08BE20E945D3C61E08FE1D0
:100B50000E945D3C61E08EE10E945D3C61E08EE0C0
:100B60000E945D3C61E08FE00E945D3C61E08EE0B0
:100B70000E945D3C61E08BE00E945D3C61E083E0AF
:100B80000E945D3C61E082E00E945D3C61E081E0AA
:100B90000E945D3C60E080E20E945D3C60E081E29A
:100BA0000E945D3C80E00E943A0580E00E94320590
:100BB00080E090E00E94360580E00E94650520E01C
:100BC00042E060E182EF90E00E94D1160E94142C76
:100BD0000E9409260E948B2640E052E060E070E00F
:100BE00087E091E00E9494060E94A1070C94690C92
:100BF0000895CF92EF920F9383E1C82E94E1E92EEE
:100C000005E126E147E168E182EF90E00E94851767
:100C10000F91EF90CF9008951F920F920FB60F9201
:100C200011242F933F934F935F936F937F938F93F1
:100C30009F93AF93BF93EF93FF93E0910A01F091DD
:100C40000B010995FF91EF91BF91AF919F918F910A
:100C50007F916F915F914F913F912F910F900FBEB8
:100C60000F901F901895FC01A3E0440F551F661FBD
:100C7000771FAA95D1F74115510581E068077105E5
:100C800014F481E00EC033E075956795579547954C
:100C90003A95D1F74115510581E0680771051CF4BB
:100CA00082E0828332C023E075956795579547951A
:100CB0002A95D1F74115510581E06807710514F4B3
:100CC00083E0EFCF92E075956795579547959A9594
:100CD000D1F74115510581E06807710514F484E0EE
:100CE000E0CF82E075956795579547958A95D1F73E
:100CF00085E082834115510581E0680771050CF498
:100D000004C04FEF5FEF60E070E08FB7F89451835D
:100D1000408357BD46BD8FBF8EB5887F8EBD8EB5D3
:100D20009281892B8EBD08951FBC20E12EBD0C94AD
:100D300033068FB7F894613021F0693011F06E30CE
:100D400019F45BBD4ABD08C0623021F06A3011F071
:100D50006D3011F459BD48BD8FBF08952EB5FC010B
:100D60008281282B2EBD0895DF92EF92FF920F9380
:100D70001F93CF93DF93EC01D62E7A011016110644
:100D80001206130624F4B901A8010E94330681E07B
:100D9000D81631F089E0D81619F08EE0D81203C0C9
:100DA0008FB580680BC082E0D81631F08AE0D81683
:100DB00019F08DE0D81203C08FB580628FBDA701F6
:100DC0006D2DCE010E949906CE01DF91CF911F912A
:100DD0000F91FF90EF90DF900C94AE069091600021
:100DE0008917B9F08093600098B3282F217030E004
:100DF000220F331F220F331F82FB332730F9232B9F
:100E00008270282B80E2289F900111249F71922BE1
:100E100098BB08951F920F920FB60F9211240F9056
:100E20000FBE0F901F90189580910C01089510929D
:100E30000D01EFEFF0E0E491E770E062E7B990E0D8
:100E400084E0989FF0011124E250FF4F8491933188
:100E500011F09F5F01C090E087FDF2CF0C94EE0689
:100E6000369A08950E943B259093D5018093D40132
:100E70000E9423269093D7018093D6010C94D70B20
:100E8000CF93DF93D82F84B195B120910D0144E029
:100E9000249F90011124F901E050FF4FE491E131CA
:100EA00071F04FB7F894F0E0EE0FFF1FEA54FE4FD9
:100EB000392F20E0282B318320834FBF0EC0F9014A
:100EC000EF5FFE4F249130910C0197FD02C0232B60
:100ED00002C02095232320930C01C0910D01C33142
:100EE00011F0CF5F01C0C0E0C0930D019C2F84E0E2
:100EF000989FF0011124E250FF4F8491933111F03B
:100F00009F5F01C090E087FDF2CF0E94EE0644E0B3
:100F1000C49FF0011124E150FF4FE491E770E062BB
:100F2000E7B9DD2341F080910D01811104C0DF910B
:100F3000CF910C9432078EE190E0DF91CF910C9429
:100F4000223C61E083E00E945D3C61E082E00E941F
:100F50005D3C61E081E00E945D3C8FE886B90C94C5
:100F600017070E9430073699FECF0E940C080C9498
:100F700040070C941707CF93DF930E94350A0E9415
:100F8000CB09C0912401D091250102C00E94B10774
:100F90008091240190912501C817D907B9F3DF91F9
:100FA000CF910895CF92DF92EF92FF92CF93DF938C
:100FB000EC010E946E2C6B017C01CC0EDD1EE11C4D
:100FC000F11C0E94B1070E946E2C6C157D058E05E8
:100FD0009F05B8F3DF91CF91FF90EF90DF90CF9016
:100FE0000895E82FF0E0EE0FFF1FE852FE4F8081DA
:100FF00091810895E82FF0E0EE0FFF1FE259FE4FB8
:10100000808191810895E82FF0E0EE0FFF1FEA54F0
:10101000FE4F8081918108958091400208958091D2
:101020002401909125010895E82FF0E0EE0FFF1FB5
:10103000EA5DFE4F808191810895613110F4423064
:1010400040F021E030E0FC013383228331832083B0
:101050000895242F30E0260F311D260F311D220F59
:10106000331F220F331F2E5F3F4F44E050E0B90182
:101070000C948E3D282FCA01213188F4623078F417
:1010800070E0620F711D620F711D660F771F660F92
:10109000771F6E5F7F4F44E050E00C94AC3D0895A5
:1010A000FF920F931F93CF93DF9300D000D0CDB763
:1010B000DEB7F12C88E0F89E80011124F801EA588F
:1010C000FF4F459155916591749149835A836B8384
:1010D0007C83AE014F5F5F4F60E08F2D0E943A0826
:1010E000F801E658FF4F45915591659174914983F8
:1010F0005A836B837C83AE014F5F5F4F61E08F2D1E
:101100000E943A08F39481E1F812D4CF0F900F9027
:101110000F900F90DF91CF911F910F91FF90089545
:10112000E82FF0E0EE0FFF1FE259FE4F20813181E2
:10113000E82FE250E83170F4F0E0E758FF4F80818B
:10114000882319F0813061F405C081E02333310533
:1011500040F404C081E0293E334018F480E0089553
:1011600081E00895CF93C0E08C2F825E0E949008AA
:10117000882319F0CF5FC630B9F78C2FCF9108952F
:1011800020919A0130919B0180910E0190910F0165
:10119000A0911001B0911101820F931FA11DB11DEB
:1011A00080930E0190930F01A0931001B093110151
:1011B000089560910E0170910F018091100190913E
:1011C00011012DE730E040E050E00E941A3D772702
:1011D000652F542F432FCA010895E4E9F1E080817F
:1011E0009181089580914C0190914D01039750F0A9
:1011F0008091520190915301039720F083E090E099
:101200000C94940D80E0089590E0880F991FFC01E4
:10121000E259FE4F208131816217730718F4261BB3
:10122000370B04C0AB01421B530B9A01FC01EA5D72
:10123000FE4F2730310518F01182108206C0208140
:1012400031812F5F3F4F31832083FC01E259FE4FF4
:10125000718360830895AF92BF92CF92DF92EF9235
:10126000FF920F931F93CF93DF931F92CDB7DEB7FB
:10127000A0906E01B0906F0100E811E09EE1F801CE
:10128000619171918F01892F99830E94040999813D
:101290009F5F9432A1F70E94B208F82E80E000E030
:1012A00010E00CC0E82FE25EF0E0EE0FFF1FE25905
:1012B000FE4F20813181020F131F8F5F8F11F2CFFC
:1012C000B80182E10E9404090115110549F00A15CF
:1012D0001B0548F49501201B310B293E334018F0C3
:1012E00010E0F12C02C0580112E1B50183E10E9427
:1012F00004096F2D70E085E10E940409612F70E000
:1013000084E10E9404090E94D9088C010E941426DD
:10131000882329F0E0907401F09075010BC00E94C1
:101320002C25882329F0E0907201F090730102C00F
:10133000E12CF12CB70186E10E940409B80188E193
:101340000E9404099701D5010E94CC3C30E1C32ED4
:1013500037E2D32EE12CF12CA70196010E941A3D11
:10136000B90187E10E9404099801D5010E94CC3C93
:10137000A70196010E941A3DB90189E10F90DF9102
:10138000CF911F910F91FF90EF90DF90CF90BF9082
:10139000AF900C94040910923F0210923E0280E03C
:1013A00094E0899FF0011124E650FE4F10821182D3
:1013B000128213828F5F813199F708951092210173
:1013C0001092200110921C0110921D0110921E011A
:1013D00010921F01109218011092190110921A0117
:1013E00010921B01109223011092220110921701FA
:1013F000109216010E946E2C6093120170931301DB
:101400008093140190931501089580E0E82FF0E097
:10141000EE0FFF1FEA5DFE4F118210828F5F843254
:10142000A9F708950E94CB090C94050A1092250192
:101430001092240110920E0110920F0110921001CF
:10144000109211010E94B9070E94120A0E94DE093F
:1014500080E0E82FF0E0EE0FFF1FE259FE4F11820F
:1014600010828F5F8432A9F7089580914002811124
:101470000AC081E00E943A050E94160A81E080932A
:1014800040020C94BB0708951092400280E00C9437
:101490003A052091B8013091B9018091B60190913F
:1014A000B7018217930718F4281B390B02C020E0FC
:1014B00030E081E0293E334008F480E008958F92C7
:1014C0009F92AF92BF92CF92DF92EF92FF92CF9313
:1014D000DF93CDB7DEB728970FB6F894DEBF0FBE07
:1014E000CDBFF82E5B0140E0682FCE0105960E942B
:1014F0001D0841E06F2DCE0101960E941D082B8131
:101500003C8140E050E0CF80D884E12CF12C2C19B4
:101510003D094E095F09B50180E090E08D809E8015
:10152000A12CB12C681979098A099B090E94EA3C0F
:1015300029813A8140E050E0281939094A095B09BC
:101540000E943C3D2C0D3D1D4E1D5F1D57FF03C0ED
:1015500020E030E0A901C90128960FB6F894DEBF5B
:101560000FBECDBFDF91CF91FF90EF90DF90CF9076
:10157000BF90AF909F908F9008951F93CF93DF936C
:1015800080912401909125010196909325018093EB
:10159000240110E0C12FD0E0FE01EE0FFF1FEE0F7F
:1015A000FF1FE650FE4F20913E0230913F0240E087
:1015B00050E060817181828193810E941A3DCC0F3D
:1015C000DD1FC852DE4F39832883B901812F0E9465
:1015D0005F0ABC01812F0E9404091F5F1131D1F6FF
:1015E0000E942B090E941538DF91CF911F910C9416
:1015F000CB090F931F93CF93DF93C1E02091960106
:101600003091970180911C0190911D01A0911E01C4
:10161000B0911F012231310531F0C0E02091B601B7
:101620003091B70104C02091940130919501820F4F
:10163000931FA11DB11D80931C0190931D01A093C8
:101640001E01B0931F012091C4013091C50180910A
:10165000180190911901A0911A01B0911B01820FFC
:10166000931FA11DB11D8093180190931901A093A0
:101670001A01B0931B0180912001909121010196E4
:1016800090932101809320010E946E2C0091120101
:10169000109113012091140130911501601B710B01
:1016A000820B930B61367A4E8105910508F47AC05E
:1016B00080912201909123010196909323018093C0
:1016C0002201209120013091210140E050E0609101
:1016D0001C0170911D0180911E0190911F010E94BB
:1016E0001A3D10921C0110921D0110921E011092C1
:1016F0001F01C11106C0B90180E00E945F0A8C0180
:1017000001C08901C091A401D091A5010C171D074A
:1017100020F0B8018BE10E940409B8016C1B7D0B1D
:101720008AE10E940409209120013091210140E0CA
:1017300050E0609118017091190180911A01909107
:101740001B010E941A3D109218011092190110926B
:101750001A0110921B01B90187E00E945F0A2091D3
:101760001601309117019093170180931601BC0167
:10177000621B730B8CE10E9404096091200170913F
:1017800021018DE10E940409109221011092200193
:101790000E946E2C609312017093130180931401C8
:1017A00090931501DF91CF911F910F91089540E023
:1017B000A42FB0E0FD01EE0FFF1FEE0FFF1FE6505C
:1017C000FE4FAA0FBB1FAA54BE4F2D913C918081A2
:1017D0009181A281B381820F931FA11DB11D8083CE
:1017E0009183A283B3834F5F413111F780913E0211
:1017F00090913F02019690933F0280933E020E9497
:10180000F90A80913E0290913F028436910511F4CD
:101810000C94BD0A08958F929F92AF92BF92CF927F
:10182000DF92EF92FF92CF93DF93CDB7DEB7289789
:101830000FB6F894DEBF0FBECDBFF82E5B0140E0BF
:10184000682FCE0105960E941D0841E06F2DCE0144
:1018500001960E941D0829813A8140E050E0CD8028
:10186000DE80E12CF12C2C193D094E095F09B501F0
:1018700080E090E08F809884A12CB12C68197909C0
:101880008A099B090E94EA3C2B813C8140E050E0A0
:10189000281939094A095B090E943C3D2C0D3D1D60
:1018A0004E1D5F1D57FF03C020E030E0A901C901B4
:1018B00028960FB6F894DEBF0FBECDBFDF91CF9153
:1018C000FF90EF90DF90CF90BF90AF909F908F9060
:1018D00008950C94160A462FE82FF0E0EE0FFF1F34
:1018E000E259FE4F208131818250883130F4E82F57
:1018F000F0E0E758FF4F608101C061E0C9010C943E
:101900004B15825E0C94FA078091670208958091CE
:101910006502811112C00E940C08882381F00E9488
:101920000F082091410230914202821B930B9C01CF
:1019300081E02530310520F002C081E0089580E08B
:1019400008950F931F93CF93DF9310E0CFEFDFEF56
:1019500000E009C0812F0E94810C8C179D0710F4B4
:10196000EC01012F1F5F80916702181798F3802FF9
:10197000DF91CF911F910F910895CF93DF939091B5
:101980006502911104C0DF91CF910C94810C90916C
:101990004B02C82FD0E0992391F00E94810CCC0F0C
:1019A000DD1FFE01E45BFD4FC85ADD4F2081318110
:1019B00048815981241B350B280F391F07C0FE01B0
:1019C000EE0FFF1FE45BFD4F20813181C901DF91E4
:1019D000CF910895CF93C82F80916502882341F05D
:1019E000C11106C00E940F089093420280934102E9
:1019F000C09365020E946E2C609343027093440270
:101A000080934502909346020E94050A80916402E9
:101A1000811104C08C2FCF910C946505CF9108954E
:101A200080E00E94EA0C81E08093640208950E94A5
:101A3000100D80E00C94F805EF92FF920F931F9326
:101A4000CF93DF9381E00E94F80585E10E94FA07B9
:101A50008093670208E512E03CE4E32E32E0F32EC7
:101A6000C0E0D0E00CC08C2F0E94810CF801819363
:101A700091938F01F701819391937F01219680913A
:101A8000670290E0C817D90774F3109265021092AC
:101A9000640280E00E94EA0C10924202109241021D
:101AA0001092430210924402109245021092460294
:101AB000DF91CF911F910F91FF90EF900895FF92CA
:101AC0000F931F93CF93DF93809166020E94BD0C0A
:101AD000EC01F12C01E010E01CC08F2D0E94BD0C28
:101AE000AC0180916502802321F0C417D50778F4FA
:101AF0000DC02091B9033091BA032F5F3F4F369547
:101B000027952C0F3D1F2417350708F4102B000FC5
:101B1000F39480916702F81600F3812FDF91CF9143
:101B20001F910F91FF9008951F93CF93DF93EC01C6
:101B300010E008C0812F825E0E9414088C179D0758
:101B400038F01F5F809167021817A0F381E001C091
:101B500080E0DF91CF911F910895BF92CF92DF92E5
:101B6000EF92FF920F931F93CF93DF938AE090E061
:101B70000E94940D882309F461C00E94A10C8093F7
:101B800066020E94810C8C0162E086E792E00E946E
:101B900060190817190750F17CE4E72E72E0F72E60
:101BA000E8E5CE2EE2E0DE2EC0E0D0E0BB24B39428
:101BB00016C08C2F0E94810CF701819391937F01B5
:101BC000F601819391936F01801B910B2091B903D2
:101BD0003091BA032817390708F4B12C2196809167
:101BE000670290E0C817D90724F302C0BB24B3945E
:101BF00010924B020E946E2C609347027093480231
:101C00008093490290934A02BB2059F0DF91CF9113
:101C10001F910F91FF90EF90DF90CF90BF900C94A9
:101C2000100D0E945F0DDF91CF911F910F91FF90DA
:101C3000EF90DF90CF90BF900C94EA0CDF91CF91A2
:101C40001F910F91FF90EF90DF90CF90BF9008957C
:101C5000CF9380914B02811119C081E080934B0298
:101C6000809166020E94810CC0E00CC08C2F0E9403
:101C7000810CEC2FF0E0EE0FFF1FE85AFD4F91832F
:101C80008083CF5F80916702C81780F3CF9108955A
:101C90000F931F930E946E2C0091470210914802EF
:101CA0002091490230914A02601B710B820B930B09
:101CB00028EE33E040E050E00E941A3DC9011F9138
:101CC0000F91089583E090E00E94940D8823C9F05D
:101CD00080916502811103C00E94AD0D12C00E9467
:101CE000280E0E945F0D90E08095909520916502EE
:101CF00030E082239323892B81F40E94480E4F9772
:101D000060F40E94870C882311F082E0089580918E
:101D100064028823D1F381E0089580E00E94EA0CF8
:101D2000F0CF1F93CF93DF93EC0110E00FC0812F12
:101D30000E94810C8C179D0710F081E00CC0812F50
:101D40000E94BD0C8C179D07C0F71F5F8091670232
:101D5000181768F380E0DF91CF911F9108951F93CA
:101D6000CF93DF93EC0110E00FC0812F0E94810C14
:101D7000C817D90710F081E00CC0812F0E94BD0C5C
:101D8000C817D907C0F71F5F80916702181768F35B
:101D900080E0DF91CF911F910895609167026623E3
:101DA00021F070E00E94063D02C060E070E0CB01CF
:101DB00008950E949D110E94E01F0E945D350E94BF
:101DC000B62D88E00C9473350E949D110E94EE1F81
:101DD00086E00E9473350E94B62D88E00C9473351E
:101DE000E0916802F091690285919491FC01099457
:101DF000E0916802F0916902329685919491FC011C
:101E00000994E0916802F091690234968591949169
:101E1000FC010994CF93DF931F92CDB7DEB78111F8
:101E200007C00E94A91E0E94F80E0E94E40E0FC077
:101E3000813059F469830E94A91E0E94F80E6981BD
:101E4000611105C00E94D90E02C081E001C080E08E
:101E50000F90DF91CF910895BF92CF92DF92EF92D2
:101E6000FF920F931F93CF93DF938C01C62E0E9496
:101E7000F00E0E948B1E0E94102E0E949D11F12CCC
:101E800082E0D82EC0E0D0E0EE24E3940E944935F1
:101E9000811106C0F801EF0DF11D84910E94062208
:101EA0000E94DE10B82E84E0B81209C0EF2DF0E0D9
:101EB0003196E00FF11FE491E11123C005C082E0EB
:101EC000B81202C0F110FA94EE2081F00E941A2E8E
:101ED000D82E6C2D0E940A0FE82E882339F00E941C
:101EE0000F08C817D90779F4E11003C0C11016C054
:101EF000E12C81E0B812CACF0E94A91E0E94F80E00
:101F00000DC0F394E1CF0E940F08EC010E94010F75
:101F1000D82E6C2D0E940A0FE82EE6CF8D2DDF9172
:101F2000CF911F910F91FF90EF90DF90CF90BF90D6
:101F30000895FC0124812052621710F40C94AB1711
:101F4000862F90E0821B91090E943C1A6EE00C944F
:101F5000DB1260E08AE692E00E94A71887FD0AC0C3
:101F6000811102C00C947732992787FD90950197D3
:101F70000C942D2808950E9486050E9465360E94C3
:101F8000DA320E94421162E671E084E591E00E943B
:101F9000C31F88EE93E00E94D20780E00C94F43ACD
:101FA0006DE671E08AE692E00E94B91785E990E05B
:101FB00090936B0280936A02EEE6F2E08081805E8D
:101FC00080830895CF93DF93EC010E9495118B815C
:101FD0009C810E94D8120E9499116A8188819981FE
:101FE000DF91CF910C947412FC0187818F3118F42A
:101FF0008F5F8783089586818F5F86830895FC01B4
:102000008781882319F081508783089586818150C4
:10201000868308951F93CF93DF93FC01C681D0E0A0
:102020006D2F80E00E948F111C2F105F8C2FCF5FCF
:102030000E9432138C2FC113FACFDF5FD23081F7A9
:10204000DF91CF911F9108951F93CF93DF93EC0100
:1020500082EF90E00E9486161FEF8E81181721F004
:10206000CE010E940A101E818F81682F70E094E0DB
:10207000759567959A95E1F78F700E948F110E9470
:10208000DE10823049F0843019F0813049F413C0F9
:10209000CE010E94F40FE1CFCE010E94FF0FDDCFF1
:1020A0008830D9F68D81E881F981E80FF11D8F81A3
:1020B0009E81890F8083DF91CF911F910895FC014C
:1020C00071836083428334832383158280E2868315
:1020D00017820895CF93DF93EC0182EF90E00E9486
:1020E00086160E949D11CE010E94E20F61E08D8153
:1020F0000E948F110E94DE108230B1F0843041F0D6
:102100008130C1F482EF90E00E948E1680E026C0FC
:102110004D81242F30E08A8190E0019728173907FC
:102120002CF74F5F4D83E2CF8D818823F9F28150E8
:102130008D83DCCF8830D1F682E00E94311182306D
:1021400048F083E00E94733582EF90E00E948E1683
:1021500081E004C0CE010E942410C3CFDF91CF9153
:1021600008950C941407E0917402F0E0EE0FFF1F45
:10217000E758FE4F25913491C9010895CF93DF931D
:10218000D82F0E94140707C082E390E00E94D20774
:102190000E941407DC2FC82F8D13F6CF1092740203
:1021A0001092730280937502882319F080E00E94D8
:1021B0007F3580917502DF91CF910895FF920F9343
:1021C0001F93CF93DF93C0E0D0E0F12C0AEF10E033
:1021D00015C00E941407F82E81E090E00E94D207FB
:1021E00080917502F81202C0219608C08F2DDF91F0
:1021F000CF911F910F91FF900C94BE1040917402EB
:10220000242F30E0220F331FF901E957FE4F65916B
:102210007491C8010E94063D6F5F7F4FC617D707B4
:10222000C0F2FF20B1F0509173025F5F50937302D0
:10223000F901EB56FE4F85919491252F30E0281738
:10224000390738F0463018F44F5F4093740210920B
:10225000730280917502DF91CF911F910F91FF90D2
:102260000895CF93DF93D82FC09175020E94DE109E
:10227000909174029D1711F08C17C1F3892FDF9193
:10228000CF910895FF920F931F93CF93DF93CDB714
:10229000DEB728970FB6F894DEBF0FBECDBF8EE035
:1022A000F82EF9821FE11A8301E10B830C830D8361
:1022B0000E831F831887AE014F5F5F4F60E082EF90
:1022C00090E00E944C16F9821A830B830C831D83C5
:1022D0001E831F831887AE014F5F5F4F61E082EF5F
:1022E00090E00E944C16F9821A831B831C831D8385
:1022F0001E831F831887AE014F5F5F4F62E082EF3E
:1023000090E00E944C1628960FB6F894DEBF0FBEE0
:10231000CDBFDF91CF911F910F91FF900895462F70
:10232000682F82EF90E00C949D1660E080E00C94A2
:102330008F1161E080E00C948F1182EF90E00C949B
:10234000CA16CF93DF93FC01DB018C91882389F0BF
:10235000C081D1814883808191810196918380835E
:102360008C9181508C93882321F00190F081E02D95
:102370001082DF91CF910895BF92CF92DF92EF92BA
:10238000FF920F931F93CF93DF93EC018B017A01A0
:102390004115510501F1CA010E94673DF801908184
:1023A000B82E981708F4B92ECB2CD12CA601B70162
:1023B000888199810E94703D288139812C0D3D1DB5
:1023C00039832883F80180818B198083882319F051
:1023D000E881F9811082DF91CF911F910F91FF90D9
:1023E000EF90DF90CF90BF900895EF92FF921F93F0
:1023F000CF93DF9300D000D0CDB7DEB77C01CA0108
:102400004B835C8369837A830E940A2D182F69812C
:102410007A81DB018C914B815C81811768F44FE3F9
:10242000C7010F900F900F900F90DF91CF911F91E8
:10243000FF90EF900C94A111F70120813181210FC1
:10244000311D31832083DB018C91811B8C93882388
:1024500021F00190F081E02D1082F9012AE030E0B6
:102460000CC0CA01B9010E94063D405DBAE06B9FF5
:102470004019112442931150AB011111F2CF0F906A
:102480000F900F900F90DF91CF911F91FF90EF90E1
:1024900008950F931F93CF93DF93CDB7DEB72B979C
:1024A0000FB6F894DEBF0FBECDBF8E010F5F1F4F7A
:1024B0001A87098727E02B87AC01BE01655F7F4F34
:1024C000CE0109960E94F511B80182EF90E00E94BA
:1024D0008B3B2B960FB6F894DEBF0FBECDBFDF91BE
:1024E000CF911F910F9108951F93CF93DF93CDB795
:1024F000DEB761970FB6F894DEBF0FBECDBF009771
:10250000D1F0162F613108F010E1412F50E0BC01ED
:10251000CE0101960E947F3DE1E0F0E0EC0FFD1F4F
:10252000E10FF11D1082BE016F5F7F4F82EF90E0DF
:102530000E948B3B01C080E061960FB6F894DEBF2D
:102540000FBECDBFDF91CF911F9108951F93CF9301
:10255000DF93CDB7DEB761970FB6F894DEBF0FBE3D
:10256000CDBF0097D1F0162F613108F010E1412F57
:1025700050E0BC01CE0101960E94703DE1E0F0E028
:10258000EC0FFD1FE10FF11D1082BE016F5F7F4F49
:1025900082EF90E00E948B3B01C080E061960FB615
:1025A000F894DEBF0FBECDBFDF91CF911F9108958C
:1025B00060E10C94A612CF92DF92EF92FF920F93FC
:1025C0001F93CF93DF93CDB7DEB762970FB6F89422
:1025D000DEBF0FBECDBF009761F1613108F060E151
:1025E0007C01CC24C394D12CCC0EDD1E86011CC0F2
:1025F000C7016A8B0E949E3DF80181938F01FFEF16
:10260000EF1AFF0A6A8981110FC0E1E0F0E0EC0FD8
:10261000FD1FE60FF11D1082BE016F5F7F4F82EF3D
:1026200090E00E948B3B06C0802F8C19861700F328
:10263000ECCF80E062960FB6F894DEBF0FBECDBF40
:10264000DF91CF911F910F91FF90EF90DF90CF908E
:102650000895882319F087EA91E002C08BEA91E09F
:102660000C94D812682F82EF90E00C948D3BCF939E
:10267000DF931F92CDB7DEB7682F06C080E2698373
:102680000E943213698161506430C4F783EA91E09B
:102690000F90DF91CF910C94A6120F931F93CF93BD
:1026A000DF93062F142F64E670E00E94063DEB01D5
:1026B00080E20E94321380E20E943213C436D105B8
:1026C00048F480E20E943213CA30D10518F480E247
:1026D0000E943213CE010E944912802F0E943213B1
:1026E000812F0E94321380E2DF91CF911F910F91D1
:1026F0000C943213CF93DF93D82FC0E004C080E254
:102700000E943213CF5FCD13FACF8C2FDF91CF9180
:10271000089580E10C947A136AE00E94FA3C892FB4
:10272000805D0C943213DF92EF92FF920F931F9310
:10273000CF93DF93EC01162F16160CF059C064E608
:1027400070E00E94063DD62EE72ECB010E940A2D96
:10275000082F33E0F32EF80E04C080E20E943213FB
:102760001150F116D4F3412F552747FD50952F2DC9
:10277000332727FD3095235031094217530754F46E
:10278000812FDF91CF911F910F91FF90EF90DF90FC
:102790000C9437138D2D9E2D0E944912CE0164E6B4
:1027A00070E00E94063DEC01101B012F0150111634
:1027B0001CF48EE20E943213102F1150101644F4B4
:1027C000CE016AE070E00E94063D862F0E948C13C5
:1027D000111674F4CE016AE070E00E94063DDF91AC
:1027E000CF911F910F91FF90EF90DF900C948C137D
:1027F000DF91CF911F910F91FF90EF90DF9008959F
:10280000CF92DF92EF92FF920F931F93CF93DF93BC
:10281000EC01162FC42E16160CF088C068EE73E07B
:102820000E94063DD62EE72ECB010E940A2DF82EDF
:10283000082F0C5F04C080E20E9432131150011770
:10284000D4F31017DCF0C11019C0CE010E940A2D7C
:10285000082F03C080E20E94321311500117D4F3F5
:10286000CE010E9449128DE6DF91CF911F910F9109
:10287000FF90EF90DF90CF900C943213412F5527AB
:1028800047FD5095202F332727FD309524503109DF
:10289000421753075CF4812FDF91CF911F910F9165
:1028A000FF90EF90DF90CF900C9437138D2D9E2DDD
:1028B0000E944912CE0168EE73E00E94063DEC01D1
:1028C0001F19012F015011161CF48EE20E943213C1
:1028D000102F1150101644F4CE0164E670E00E94EF
:1028E000063D862F0E948C13CE0164E670E00E94A4
:1028F000063DEC01012F015011163CF46AE070E036
:102900000E94063D862F0E948C1310167CF4CE0187
:102910006AE070E00E94063DDF91CF911F910F9118
:10292000FF90EF90DF90CF900C948C13DF91CF91BC
:102930001F910F91FF90EF90DF90CF9008956F92CD
:102940007F928F929F92AF92BF92CF92DF92EF923F
:10295000FF920F931F93CF93DF937C01962E742EDB
:10296000822E16160CF044C021119A94C7010E94C1
:102970000A2DC0E0D0E0082F10E0A92CBB24A7FC52
:10298000B09404C0872D0E9432132196692C6C1AD2
:102990006501CC1ADD0A0C151D05A4F3882019F079
:1029A0008DE20E943213C016D1068CF4862DDF9181
:1029B000CF911F910F91FF90EF90DF90CF90BF903C
:1029C000AF909F908F907F906F900C943713C701BA
:1029D000DF91CF911F910F91FF90EF90DF90CF90FB
:1029E000BF90AF909F908F907F906F900C94491202
:1029F000DF91CF911F910F91FF90EF90DF90CF90DB
:102A0000BF90AF909F908F907F906F90089520E03F
:102A10000C949F1440E20C940715CF93DF936CE362
:102A200070E00E94063D9B01EC0140E363E0C901B8
:102A30000E9407158AE30E94321340E362E0CE0150
:102A4000DF91CF910C940715292F221F2227221FD7
:102A500019F091958195910940E20C949F141616F6
:102A600034F461500E94931383E40C94321308955C
:102A7000161634F461500E940A1585E20C94321344
:102A8000089563303CF062500E940A158FEA91E08D
:102A90000C94D8120895CF93DF93C62F1416C4F563
:102AA000642F6150C33079F020F4C13091F048F4C4
:102AB0001EC0C530D9F078F0C63091F0C730D1F4DF
:102AC00011C040E201C048E667E5DF91CF910C9468
:102AD0004D13D6E510C0642FDF91CF910C942F15C4
:102AE000D4EF06C00E94241585E50EC06150D1E4E4
:102AF00040E002C0D5E541E00E9400148D2F0E9405
:102B00003213C53029F488E6DF91CF910C9432134B
:102B1000DF91CF910895462F66E00C944B15462F18
:102B200061E00C944B15462F60E00C944B15462F3A
:102B300065E00C944B15CF93DF93EC0160E08E8140
:102B40000E94953C81E090E00E94223C61E08E81F1
:102B50000E94953C81E090E00E94223C60E08E81E2
:102B60000E94953C84E690E0DF91CF910C94223C4A
:102B7000CF92DF92EF92FF920F931F93CF93DF9349
:102B80007C01C0E0D0E0C62ED12C87010C0F1D1FA8
:102B900061E0F80187810E945D3CB6010C2E02C005
:102BA000759567950A94E2F761707727F801878138
:102BB0000E94953C2196C430D10539F7C701DF91B9
:102BC000CF911F910F91FF90EF90DF90CF900C94D9
:102BD0009B15CF92DF92EF92FF920F931F93CF93AB
:102BE000DF937C01C0E0D0E0C62ED12C87010C0F12
:102BF0001D1F61E0F80187810E945D3CB6010C2E2B
:102C000002C0759567950A94E2F761707727F8011D
:102C100087810E94953C2196C830D10539F7C701BC
:102C2000DF91CF911F910F91FF90EF90DF90CF90A8
:102C30000C949B151F93CF93DF93EC01162F642FF9
:102C40008C810E94953C8D818F3F19F060E00E943D
:102C5000953C8F85612F84FF06C0CE01DF91CF9117
:102C60001F910C94E91570E084E0759567958A953D
:102C7000E1F7CE010E94B815612FCE01DF91CF910F
:102C80001F910C94B81541E00E941A1681E090E063
:102C9000089540E00C941A16CF92DF92EF92FF92C3
:102CA0000F931F93CF93DF9300D0CDB7DEB78C0186
:102CB000677088E0689FB00111246064C80149838F
:102CC0005A830E9449164981C42E5A81D52EE12C7F
:102CD000F12CD6016D916D01D801ED91FC9101901F
:102CE000F081E02DC8010995BFEFEB1AFB0AE8E07F
:102CF000EE16F10471F70F900F90DF91CF911F91B5
:102D00000F91FF90EF90DF90CF900895FC016089C4
:102D1000262F2160208B69600C944916FC01608984
:102D20006E7F608B68600C944916FC016089262FC9
:102D30002460208B6C600C944916CF93DF93CDB741
:102D4000DEB728970FB6F894DEBF0FBECDBF28E0E0
:102D5000E1E7F0E0DE01119601900D922A95E1F78E
:102D6000FC012389421710F0422F4150FE01319699
:102D7000E40FF11DE40FF11D2081260F2068622F62
:102D800028960FB6F894DEBF0FBECDBFDF91CF916E
:102D90000C94491661E00E94491680ED97E00C946E
:102DA000223CCF93DF93EC01423018F08F8588608E
:102DB0008F874B8B1C8A222329F0413019F48F8591
:102DC00084608F8780E593EC0E94223C60E08C81D8
:102DD0000E94953C60E08E810E94953C8D818F3FE2
:102DE00019F060E00E94953C6F8564FD1DC063E0B2
:102DF000CE010E94B81584E991E10E94223C63E073
:102E0000CE010E94B81584E991E10E94223C63E062
:102E1000CE010E94B81586E990E00E94223C62E053
:102E2000CE010E94B81516C06062CE010E944916FC
:102E300084E991E10E94223C6F856062CE010E948C
:102E4000491686E990E00E94223C6F856062CE01BF
:102E50000E9449166F856062CE010E94491684E087
:102E6000888BCE010E949516CE010E94CA1682E080
:102E7000898B66E0CE01DF91CF910C9449166F9259
:102E80007F928F92AF92CF92EF920F931F93CF9337
:102E9000DF93CDB7DEB73C01162F842F5D854E85BD
:102EA0003F859889F301848325830683E782C08662
:102EB000A1868286538744873587968761E00E9482
:102EC0005D3CF30185818F3F19F061E00E945D3C1C
:102ED00061E0F30186810E945D3C112319F0F3014A
:102EE000178603C080E1F301878720E041E060E1BD
:102EF000C301DF91CF911F910F91EF90CF90AF90D1
:102F00008F907F906F900C94D1168F92AF92CF924A
:102F1000EF920F93DC0113961C921E921297EBE92D
:102F2000F0E0ED93FC931F921F921F921F928C2C46
:102F3000AE2CC02EE22E042F2FEF462F61E00E9410
:102F40003F170F900F900F900F900F91EF90CF9031
:102F5000AF908F900895FC0127818085E22FF82F94
:102F6000E60FF11DE60FF11D25913491C9010C9476
:102F7000D8120F931F93CF93DF93EC018B01CB01FA
:102F80000E94A12C682FCE010E941C1883EA90E0B9
:102F90009983888318870F83DF91CF911F910F91B9
:102FA0000895DF92EF92FF920F931F93CF93DF93D9
:102FB000EC01F62E69871A8681E08D8382E0D82E97
:102FC000EE24E3948E01075F1F4F0E94DE10482F0E
:102FD000823011F0843061F4E881F9810280F3815C
:102FE000E02D6F2DCE010995F986DA86ED8204C0B9
:102FF000813089F0883079F0C8010E94CA2D811192
:10300000ED828D81882319F0CE010E9449188A85AE
:103010008F5F8A87DACF8FEF898781E08E838D83F8
:10302000483009F080E0DF91CF911F910F91FF9020
:10303000EF90DF9008950895FC0189EA90E0918374
:10304000808312821382648381E08583868308955E
:10305000FC012281211103C081E082830895438114
:1030600030E0240F311D848190E001972817390743
:1030700014F44F5F43830895FC018281882319F083
:103080008150828308958381882311F08150838346
:1030900008951F93CF93DF93EC0110E0612F80E040
:1030A0000E948F1180E20E943213E881F9816B81C6
:1030B000610F0190F081E02DCE0109950E948913E6
:1030C0001F5F123059F76A8180E00E948F118EE3F2
:1030D0000E9432136A818FE00E948F118CE30E945C
:1030E00032131D82DF91CF911F9108950F931F938B
:1030F000CF93DF93EC010E94DE10182F0E94493518
:10310000882321F081E08D831FE71BC00B818A811A
:10311000080F123031F0143039F4CE010E94281813
:1031200003C0CE010E943C188B819A81890F081739
:1031300011F081E08D838D81882319F0CE010E94EA
:103140004918812FDF91CF911F910F910895EF9230
:10315000FF921F93CF93DF931F92CDB7DEB77C0111
:1031600081E0F701858311E0C70169830E94761829
:103170006981811102C0F7011682F70196819111D0
:1031800008C0883031F481E0868383819281890F81
:1031900009C0662311F0F7011583813029F79111D9
:1031A000E3CF8FEF0F90DF91CF911F91FF90EF90C2
:1031B00008950F931F93CF93DF93EC018B0150E0A1
:1031C0000E94F5114AE3B801CE01DF91CF911F9122
:1031D0000F910C94A111EF92FF920F931F93CF9335
:1031E000DF9300D01F92CDB7DEB78C01462F0B9630
:1031F0009A8389838EE08B83D801EC91F0E0EE0F07
:10320000FF1FEE54FE4FE590F490BE016D5F7F4FBF
:10321000CE0101960E94D918A701BE016D5F7F4FB4
:10322000CE0101960E94BC1140E2BE016D5F7F4F4E
:10323000CE0101960E94A111F80141815281BE0187
:103240006D5F7F4FCE0101960E94F5114FE2BE01E6
:103250006D5F7F4FCE0101960E94A111D801179694
:103260004D915C911897BE016D5F7F4FCE01019625
:103270000E94F5110F900F900F90DF91CF911F9149
:103280000F91FF90EF90089529E1289FB001299FA9
:10329000700D112464577F4F49E150E086E792E0BA
:1032A0000C948E3D29E1289FB001299F700D1124B7
:1032B00064577F4F49E150E086E792E00C94AC3DC3
:1032C000DC01EC91B6E0EB9FF0011124E60FF11D5B
:1032D000EE0FFF1FEE53FE4F25913491C901089563
:1032E000CF93DF93EC010E9460194F815885849F32
:1032F0009001859F300D949F300D1124C901DF91FD
:10330000CF9108950F931F93FC01A181B281209169
:10331000B3033091B4030E94CC3C24E630E040E09B
:1033200050E00E941A3D89019A01093EFDEF1F07F6
:103330002105310520F008EE1DEF20E030E0C80146
:103340001F910F910895FC01818592850895FC01DC
:103350002081213029F42091AD033091AE0309C0C2
:10336000223029F42091AB033091AC0302C020E05D
:1033700030E0FC0187819085289FA001299F500D96
:10338000389F500D1124CA010895E9EAF3E08081C5
:1033900091810895FC016081FBE06F9FB0011124D1
:1033A0006E5D7D4F4BE050E00C945E3DDC01EC9196
:1033B000F0E0EE0FFF1FEE54FE4F25913491C9014E
:1033C0000C94A61260E170E00C94D619CF93DF93B1
:1033D000EC01888160E0811108C0CE010E94701963
:1033E00067E00E948F1587E011C0CE010E9470191E
:1033F00065E00E948F158FE20E9432138F819885BD
:103400000E94491283E40E94321388E0DF91CF9139
:10341000089566E0FC01838194810E94931586E003
:10342000089566E0FC01858196810E94931586E0EF
:103430000895FC0181859285883EF3E09F0719F489
:103440008AE792E004C00E94491284E892E00E9458
:10345000D81286E00895FC0181819281883EFDEFBB
:103460009F0729F489E892E00E94D81203C067E020
:103470000E94971588E0089549E1489F9001499F6F
:10348000300D112429563F4FC90108950F931F9302
:10349000CF93DF93CDB7DEB7A6970FB6F894DEBF14
:1034A0000FBECDBF8C01AB01BC01CE0101960E94C5
:1034B0000C1CCE0101960E947A1C89E1FE013C960B
:1034C000D80101900D928A95E1F7A6960FB6F8946F
:1034D000DEBF0FBECDBFDF91CF911F910F91089539
:1034E000FC012081260F283010F4208302C0FC014B
:1034F00010820C94CA190F931F9361E00E947019F7
:103500009C0140E050E060E074E887ED97E10E94A4
:103510001A3D89019A0101328EE41807210531050F
:1035200020F000E21EE420E030E0C8011F910F917E
:1035300008950F931F9361E00E9470199C0140E071
:1035400050E060E478E78DE791E00E941A3D890140
:103550009A01093883E118072105310520F008E8B0
:1035600013E120E030E0C8011F910F9108950F93FF
:103570001F93CF93DF9300D0CDB7DEB78C01698363
:103580007A830E947B1A20E0AC0169817A81C801AC
:1035900003960F900F90DF91CF911F910F910C9494
:1035A000582D0F931F93CF93DF9300D0CDB7DEB785
:1035B0008C0169837A830E94991A20E0AC016981A9
:1035C0007A81C80105960F900F90DF91CF911F91DE
:1035D0000F910C94582D48EE53E009960C943A2D17
:1035E00061E00E946019BC0184ED92E60E94063DF4
:1035F000CB0108950F931F93CF93DF9300D0CDB7E6
:10360000DEB78C0169837A830E94F01A21E0F80109
:10361000308169817A81311120E0AC01C8010796BF
:103620000F900F90DF91CF911F910F910C94582D17
:10363000CF93DF93EC010E94F01A2F813885821717
:10364000930710F498878F83CE010E947B1A2B81F9
:103650003C818217930710F49C838B83CE010E94D8
:10366000991A2D813E818217930710F49E838D83D2
:10367000DF91CF910895CF93DF93EC0120E048EEE6
:103680005DEF01960E94582D89819A819C838B83DE
:103690002881233051F02150223038F09E838D83D1
:1036A000CE01DF91CF910C94181B9C013695279584
:1036B000369527953C832B83F1CFDF92EF92FF92D3
:1036C0000F931F93CF93DF9300D01F92CDB7DEB738
:1036D0004BE050E064E672E086E792E00E945E3DD7
:1036E00086E792E00E94181B00E010E05EE0D52E15
:1036F00061E8E62E62E0F62EDB82FA82E982402F54
:103700004F5FBE016D5F7F4FCE0101960E94D918B9
:10371000C8010E9452190F5F1F4F0032110561F757
:103720000F900F900F90DF91CF911F910F91FF900D
:10373000EF90DF900895262F443019F06FEF7FEF60
:1037400002C061E070E0223091F028F4222349F0B9
:103750002130C9F409C0243081F060F0253099F49B
:103760000FC00B960C94701A0B960C94FA1A0B96C9
:103770000C943B1B0B960C94B71A0B960C94D11A15
:103780000B960C94EB1A08951F93CF93DF93EC01E3
:10379000162F0E94AB17CE0109960E94BF2D8823D9
:1037A00011F0298501C02FEF332727FD3095812F98
:1037B00090E02817390759F11230B1F028F411239D
:1037C00049F0113021F50BC01430C1F090F01530E4
:1037D000F1F419C0CE010B960E94E21918C0CE0177
:1037E0000B960E94E61913C0CE010B960E942B1A6D
:1037F0000EC0CE010B960E94091A09C0CE010B968D
:103800000E94111A04C0CE010B960E94191A80E082
:10381000DF91CF911F910895EF92FF920F931F9325
:10382000CF93DF93EC018B017A016DEB72E00E9484
:10383000B9178FEF89878FEA90E09983888389E1B0
:10384000F801DE011B9601900D928A95E1F7FDA229
:10385000ECA2DF91CF911F910F91FF90EF9008950F
:103860000F931F93CF93DF93CDB7DEB728970FB693
:10387000F894DEBF0FBECDBF8C01BC016A5E7F4FE6
:103880002FEC32E04EE050E0CE0101960E945F1036
:10389000CE0101960E946A1081E0F8018583289686
:1038A0000FB6F894DEBF0FBECDBFDF91CF911F9151
:1038B0000F910895CF93DF93EC016CA17DA16F5F11
:1038C0007F4F0B960E94EB180E949D110E9495114C
:1038D0008AED92E00E94D8120E9499116EE0CE010A
:1038E00046960E9474120E94B62D83E0DF91CF911C
:1038F0000C947335DF92EF92FF920F931F93CF9347
:10390000DF93CDB7DEB769970FB6F894DEBF0FBE71
:10391000CDBF8C0189E1D82E9BE0E92EF12CE00E81
:10392000F11E60E0C8010E94A71887FD2BC08630F9
:1039300019F0873049F404C0C8010E945A1CF1CF25
:10394000C8010E94301CEDCFF701DE0111969D2DBC
:1039500001900D929A95E1F7682FC8010E94D11746
:10396000811109C0FE013196D7018D2D01900D9274
:103970008A95E1F7D6CF83E00E947335C7010E9494
:10398000181BCFCF69960FB6F894DEBF0FBECDBF20
:10399000DF91CF911F910F91FF90EF90DF900895ED
:1039A0008091A5039091A603892BA1F08CE10E9440
:1039B000FA0765E02AE0AC01249FC001259F900D25
:1039C00011240E9424158DE60E94321383E40E9484
:1039D000321304C081EC93E00E94D8120C94891336
:1039E0008AE10E94FA0765E00E9424158DE60E9494
:1039F000321386E50E9432130C948913CF93DF9320
:103A000000D0CDB7DEB789839A830E949511898152
:103A10009A810E94D8120E9499118091010390917D
:103A200002030E94673D892B51F082EB93E00E94D4
:103A3000D81280910103909102030E94D8120F9036
:103A40000F90DF91CF910C94891390E0880F991F0C
:103A500062E0845E9C4F0C94A6120F931F93CF9349
:103A6000DF9361E086E792E00E9470198C0165E0C7
:103A700086E792E00E947019EC0183E10E94FA0748
:103A800080179107B8F4C817D907B0F49C012C1B14
:103A90003D0BC8018C1B9D0B64E670E00E94063D47
:103AA000C9010E94063DCB016436710530F083E602
:103AB00090E003C083E601C080E0DF91CF911F91C9
:103AC0000F910895613011F40C94BD0C0C94C92928
:103AD000CF93DF93D82FC62F825E0E949008882351
:103AE00051F06C2F8D2F0E94621D46E06C2FDF91EC
:103AF000CF910C944B158BE393E0DF91CF910C9415
:103B0000D8120F931F93CF93DF93C82F162F0E94C5
:103B100095118091D502882319F01092D50203C027
:103B200081E08093D5020E94870C811108C083E058
:103B300090E00E94940D882341F080E209C08091BA
:103B40004B02882321F082E403C08DE601C082E6A7
:103B50000E94321380916502811117C022C08091AA
:103B60006602D81761F080916502802331F0809160
:103B7000D502882321F082E003C081E001C080E00B
:103B80000E943213000FDF5F02C0D0E001E00E940C
:103B9000840CD81720F30E94840C97E0981B892F7F
:103BA00001C087E00E947A130C2F0F5F802F0E94C4
:103BB0008C138AE30E943213612F8C2F0E94681DA0
:103BC0000E9489130E949911DC2FDE5F8D2F0E94C5
:103BD0008C138AE30E943213612F802F0E94681D8C
:103BE0008C2F8D5F0E948C138AE30E943213612F09
:103BF0008D2F0E94681DDF91CF911F910F910C9422
:103C0000891388E10E94FA0768E00E94971580E214
:103C10000C9432130E94951186E792E00E9482195B
:103C200068E00E94971580E20E9432130E94B22938
:103C300067E00E9493150E9489130E94991182E403
:103C400093E00E94D81267E080918B0390918C03DF
:103C50000E948F150C9489130F931F936091E002BB
:103C60007091E1028091E2029091E30220918F0233
:103C7000222371F00E946E2C0091E0021091E1026B
:103C80002091E2023091E302601B710B820B930BD7
:103C900028EE33E040E050E00E941A3DC9011F9138
:103CA0000F9108950E942C25811110C00E941426A6
:103CB000882331F00E942C2581110AC084E40BC0B6
:103CC0000E94870C811106C08EE405C083E403C006
:103CD00085E401C082E40E94321380E20E94321324
:103CE0000E942C1E0E940D1580E20C9432130E943B
:103CF00095110E94011E67E086E10E946B0C0E94F4
:103D000089130E9499110E94521E67E083E10E946C
:103D10006B0C0C9489130E946E2C6093E0027093DC
:103D2000E1028093E2029093E3021092DC0210928F
:103D3000DD021092DE021092DF021092D802109281
:103D4000D9021092DA021092DB0281E080938F0296
:103D500008950F931F930E946E2C0091E002109122
:103D6000E1022091E2023091E302601B710B820BB1
:103D7000930B6093E0027093E1028093E2029093D0
:103D8000E30210928F021F910F9108950E94322535
:103D900081111DC00E941A26811119C00E94870C32
:103DA000882351F18091DC029091DD02A091DE0226
:103DB000B091DF0280599F4FAF4FBF4F8093DC021D
:103DC0009093DD02A093DE02B093DF02089580910C
:103DD000D8029091D902A091DA02B091DB02805909
:103DE0009F4FAF4FBF4F8093D8029093D902A093BB
:103DF000DA02B093DB02D2CF08956091D8027091BD
:103E0000D9028091DA029091DB0220E63AEE40E09E
:103E100050E00E941A3DC9010895CF92DF92EF92BF
:103E2000FF920E9495118BE493E00E94D8120E94A9
:103E30002C1E0E940D150E94991186E593E00E94A8
:103E4000D8126091DC027091DD028091DE029091C7
:103E5000DF0238EEC32E33E0D32EE12CF12CA70184
:103E600096010E941A3DC9010E940D1589E593E053
:103E70000E94D8126091D8027091D9028091DA0222
:103E80009091DB02A70196010E941A3DC901FF90A3
:103E9000EF90DF90CF900C940D150E9495118CE55A
:103EA00093E00E94D8120E94D32968E00E948B15EB
:103EB0000E9489130E94991182E10E949008882330
:103EC00049F085E693E00E94D8120E94D92968E063
:103ED0000E948B150C9489130E9495118EE693E035
:103EE0000E94D81267E086E00E946B0C0E94891342
:103EF0000E94991186E793E00E94D81247E061E0A2
:103F00008091B5039091B6030E944B150C948913D0
:103F10000E9495118EE793E00E94D81267E080E03E
:103F20000E946B0C0E9489130E94991185E893E00E
:103F30000E94D81267E082E10E946B0C0C948913F6
:103F40000E9495118CE893E00E94D8128091A503FD
:103F50009091A603892B29F065E087E00E946B0C05
:103F600004C082E993E00E94D8120E9489130E9443
:103F7000991184E993E00E94D81265E085E00E94DF
:103F80006B0C0C9489130F931F93CF93DF9300D086
:103F9000CDB7DEB78B0189839A830E949D110E9461
:103FA000951189819A810E94D8120E949911C801A5
:103FB0000F900F90DF91CF911F910F910C94D81219
:103FC0008AE993E00E94FE1C0E9499118BEA93E01B
:103FD0000E94D8120E942C1E0C940D158BEB93E0BE
:103FE0000C94FE1C0E9495110E94011E0E94D01C80
:103FF0000E9499110E94521E0C94F01C0F931F9363
:10400000CF93DF938091D4028F5F863018F4809332
:10401000D40202C01092D4028091D402853091F46F
:1040200020916B002F5F20936B0030E08091AF03F5
:104030009091B003880F991F8217930718F481E0BD
:1040400080936B00C0916B00C1500E94951162E09B
:1040500080916B0090E00E940A1581E00E947A1323
:10406000D0E08E010F591F4FF80180810E9432135A
:1040700081E00E947A13CC0FDD1FFE01E057FD4F57
:10408000808191810E940D150E9489130E949911CF
:1040900081E00E947A13F8018081833419F4C854B6
:1040A000DD4F04C0843439F4CC55DD4F68E088819D
:1040B00099810E949715DF91CF911F910F910C94D8
:1040C00089130E9495118AEC93E00E94D81267E050
:1040D0008BE10E946B0C0E9489130E94991183ED61
:1040E00093E00E94D8120C94F01C0E9495118DEE62
:1040F00093E00E94D8128091A5039091A603892B8A
:1041000041F069E080911601909117010E942F15EE
:1041100004C083EF93E00E94D8120E9489130E948A
:1041200099118CEF93E00E94D8120C94D01C60E09F
:1041300070E086E094E00C94C31F0E9497200C94DA
:10414000B62D6BE174E08AE094E00E94C31F88E81A
:1041500093E10C94842C0E94951186E294E00C94D7
:10416000D81284EF91E00E94D20763E474E087E301
:1041700094E00E94C31F84E893E00E94D20762E6A5
:1041800074E084E594E00E94C31F84E893E00C94FB
:10419000D2076DE774E081E794E00E94C31F80E4DA
:1041A0009FE10C94D2071092D1021092D00210928B
:1041B000CF021092CE028091D2028093D30210924D
:1041C000CD021092CC020895CF930E94D3200E947A
:1041D000951164E070E086E792E00E94D61980E2D3
:1041E0000E94321386E792E00E94E61980E20E9464
:1041F0003213809103030E94251D0E9499110E9491
:104200002D1D8093D20262E090E00E940A1583E89F
:1042100094E00E94D81286ED92E00E94BF2D882380
:1042200019F0C091D60201C0CFEFC0FF05C065E014
:1042300080E00E946B0C03C085E00E947A1380E24C
:104240000E9432138091760284508430A8F4C1FF1A
:1042500005C065E082E10E946B0C03C085E00E940E
:104260007A13C2FF05C00E94B208CF910C948C1340
:1042700080E2CF910C94321366E0809177029091A6
:1042800078020E949715CF910C9489130E942D1DDE
:104290008093D2029091D302981728F58093D3028D
:1042A0000E942C1E2091CE023091CF02821B930BD4
:1042B0009093D1028093D0020E942C1E9093CF0243
:1042C0008093CE028091D0029091D1022091CC02B5
:1042D0003091CD022817390710F0232B21F4909349
:1042E000CD028093CC020895CF93DF930E944621A4
:1042F0000E94B208811116C082E10E94FA07EC0107
:1043000080E00E94FA07C817D90728F49C012C1BEB
:104310003D0BE90102C0C81BD90BC53FD14010F0CD
:1043200024E601C029E630E08091D302281B310940
:104330008091CC029091CD02289FA001299F500D21
:10434000389F500D1124CA01DF91CF9108958091BB
:10435000D4028F5F853118F48093D40202C010928A
:10436000D4020E9446218091D4028A3088F40E94AF
:1043700095110E94011E67E086E10E946B0C0E946D
:1043800089130E9499110E94521E8DED93E018C06E
:104390000E94951168E087E10E946B0C8FED93E01D
:1043A0000E94D81267E086E10E946B0C0E9489137C
:1043B0000E94991168E089E10E946B0C81EE93E004
:1043C0000E94D8128091D4028A3068F40E942C2571
:1043D000811115C008C00E9474210C940D1584EE43
:1043E00093E00C94D81264E08091D20290E00E9495
:1043F0000A158BEE93E00E94D8120C9489138091D9
:10440000CC029091CD02459730F7E9CF9091D70239
:104410009F5F9093D70290E0FC013197E131F10565
:1044200048F5E65DFF4F0C94583D0C94771E0C94B4
:104430000A1E0C940D1F0C94A01F61E005C061E0E2
:1044400083E00C94811D66E080E0FBCF66E0F8CF4E
:104450000C94E4200C944D1F0C94881F0C946C1F3A
:104460000C94A7210C9461200C9475200C94F21FDD
:104470000C94FE1F08958FEF8093D60208950F933A
:104480001F93CF93DF930E94E025C0917902D091D2
:104490007A0261E086E792E00E9470198C01CE01F9
:1044A00065E070E00E94063D8FE00E940B0CEC017D
:1044B00040E0BC01C8010E94352A8FE00E945D2ABD
:1044C000CE01DF91CF911F910F910C94C42581E013
:1044D0000C94F2250E94F208882321F00E943B25CB
:1044E0000C94052B08951092E4020C943F22CF9374
:1044F000DF930E946A220E94ED08EC018091E402A1
:10450000811111C062E086E792E00E9470198C1759
:104510009D0748F481E08093E402809179029091B4
:104520007A020E94DA250E94F2088823D9F164E019
:1045300086E792E00E9470198C179D0758F132C0EF
:104540008091E502882389F08AE10E94FA07EC0154
:1045500086E792E00E94A719D195C195D1098C17E1
:104560009D071CF484E994E017C08091E602811154
:1045700001C00EC08CE10E94FA07EC0186E792E0D0
:104580000E94C5198C179D071CF488E994E004C0AB
:1045900082E00FC08CE894E09093020380930103C3
:1045A00081E007C08091220190912301029740F69B
:1045B000EFCFDF91CF9108958093E6026093E502FB
:1045C00008957093EA026093E9029093E802809361
:1045D000E70208950F931F93CF93DF93C091E702F3
:1045E000D091E802CE010E94CD0E8C010E94ED0810
:1045F000C817D90738F4C801DF91CF911F910F91E7
:104600000C94AF0E81E0DF91CF911F910F9108952F
:104610000F931F93CF93DF930E94EA22182F0E94DB
:104620002326EC010E94F208882311F001E001C06A
:10463000012F8091EB02882329F0BE01812F0E9477
:10464000B52A01C0812F882329F081E00E947826B5
:1046500081E00DC0011101C009C0BE01812F0E947F
:10466000D42B8C179D0711F00E945C2682E0DF910D
:10467000CF911F910F9108950E946A260E941C0DF0
:104680001092EB0280E10C945D2A81E00E94782672
:104690000C94170DBC0180E10E940B0C0C94A02916
:1046A0000F931F93CF93DF938C01EB010E94E122C4
:1046B000BE0180E10E940B0C40E0BC01C8010E94D9
:1046C000352ACE016AE070E00E94063DCB01DF9101
:1046D000CF911F910F910C944A230E941C0D0E94B0
:1046E000E0258FE00C945D2A81E00E94F2250C9475
:1046F000170D0F931F93CF93DF931F92CDB7DEB7A4
:104700008C018FE049830E940B0C4981BC01C801D8
:104710000F90DF91CF911F910F910C94352A0F9339
:104720001F93CF93DF931F92CDB7DEB78C018FE03D
:1047300049830E940B0C4981BC01C8010F90DF9195
:10474000CF911F910F910C94492ABC018FE00E94D8
:104750000B0C0C94A0290F931F93CF93DF93C09160
:104760008B03D0918C03CE010E94CD0E8C010E9450
:10477000ED088C179D0738F4C801DF91CF911F9188
:104780000F910C94910E81E0DF91CF911F910F91C9
:1047900008951F93CF93DF930E94AB23182F0E949D
:1047A0003B25EC01BC01812F0E94B52A882329F00A
:1047B00081E00E94F22581E01BC00E94F208811175
:1047C0000BC0111109C0CE010E94BA29811104C089
:1047D0000EC00E94C4250BC00E94870C811107C027
:1047E000BE01812F0E94D42B8C179D0791F782E088
:1047F000DF91CF911F9108950E9474230E94452359
:104800000C94170DCF93DF931F92CDB7DEB7909125
:10481000ED02913039F018F0923081F406C00E9418
:10482000C9230CC00E94082309C00E94620E823076
:1048300089F089830E94FC2389810CC0813051F466
:104840009091EC02992331F082E08093ED020E9476
:104850001C0D82E00F90DF91CF9108950E941C0DF6
:104860008091EE029091EF020E94CD0E0E94AF0E59
:10487000882329F00E946D231092ED0208950E9472
:104880003C2381E08093EB028093ED0208958093B6
:10489000EC0208950F931F93CF93DF93EC018A01ED
:1048A0009093EF028093EE0240E00E947923B801DA
:1048B000CE01DF91CF911F910F910C9450230E9454
:1048C0006A2687E08093D60282E08093D7020E9416
:1048D0006C3583E08093F102089581E00E94782690
:1048E0008FEF8093D60288E00C947335FF920F937C
:1048F0001F93CF93DF9380E00E949008FF24F394EE
:10490000F8268091F002882379F00E94B2089091F5
:104910007D0201E0981301C000E011E0811110E078
:10492000913021F4112311F010E000E00E94B20850
:10493000811129C0112339F182E10E94FA07EC01AB
:1049400080E00E94FA07C817D90728F49C012C1BA5
:104950003D0BE90102C0C81BD90BC53FD14008F08F
:1049600065C011C080910303882331F0843021F0A9
:10497000853011F0863039F40E94B12081E00E9428
:10498000733510E000E082E10E9490088823B1F0C6
:1049900082E10E94FA07EC0180E00E94FA07C81742
:1049A000D90728F49C012C1B3D0BE90102C0C81B50
:1049B000D90BC53FD14010F0FF24F394011102C080
:1049C00087E001C083E08093D602112329F0809113
:1049D000D60282508093D602FF2029F08091D60221
:1049E00081508093D602011104C0111102C0FF2032
:1049F00011F081E001C088E00E9473350E94B1107F
:104A0000811102C01092F102011108C0111106C0FB
:104A1000F11004C00E94B110883079F08091F10249
:104A2000823011F481E00FC082E00DC080917602E7
:104A30008450843008F496CFA6CF8091F1028F5F26
:104A40008093F102EBCFDF91CF911F910F91FF90F7
:104A500008958093F002089581E09091FA029111F7
:104A600080E0089581E02091F8023091F902232B33
:104A700009F480E008958091F8029091F902089578
:104A8000EF92FF920F931F93CF93DF93EC018B0173
:104A90008FE00E945F0A9093F7028093F60268EB22
:104AA0007BE08FE00E940B0C969587959093F30224
:104AB0008093F202BE018FE00E945F0A9093F5029C
:104AC0008093F4022091F6023091F70228173907FB
:104AD00018F5821B930B893B9B40F0F00E949D11BF
:104AE0000E94951167EC74E086EB94E00E94C31F6E
:104AF00078010DC0C7010E94490584EF91E00E9432
:104B0000D2078091F2029091F302E80EF91ECE15C1
:104B1000DF0580F70E94F2082091F6023091F7023B
:104B20008091F4029091F5028217930728F5281BD3
:104B3000390B293B3B4000F10E949D110E949511C9
:104B400060EE74E08FEC94E00E94C31F7E010FC002
:104B5000C8018E199F090E94490584EF91E00E94C7
:104B6000D2078091F2029091F302E80EF91E0E1521
:104B70001F0570F70E94F208CE01DF91CF911F91BF
:104B80000F91FF90EF9008956091F8027091F902F3
:104B90009C01213080E2380710F020E030E2C901AA
:104BA0000E9440259093F9028093F8020E944905E3
:104BB0000C94120ABC018FE00E940B0C0C94C425CB
:104BC0008091FA02882369F01092F9021092F8029B
:104BD00080E090E00E94C42581E00E943F05109291
:104BE000FA020895CF93C82F8091FA0281110FC065
:104BF000CC2369F080E090E00E94C4251092F90275
:104C00001092F80280E00E943F05C093FA02CF9113
:104C100008951092F9021092F80280E090E00E944C
:104C2000C42581E00C94F22581E09091FF0291115E
:104C300080E0089581E02091FD023091FE02232B57
:104C400009F480E008958091FD029091FE0208959C
:104C5000CF93DF93EC014091A3035091A403BA01D9
:104C6000645F714080E093E00E94AD2C809100036E
:104C7000882311F0C0E0D0E0CE01DF91CF910895FC
:104C8000CF93C82F8091FB029091FC020E942826AE
:104C90002091FD023091FE028217930711F4CC237C
:104CA00049F09093FE028093FD020E945705CF9138
:104CB0000C94120ACF9108959C01213080E23807AC
:104CC00010F020E030E23093FC022093FB0281E000
:104CD0000C9440268091FF02882349F080E090E008
:104CE0000E945C2681E00E9444051092FF02089514
:104CF000CF93C82F8091FF0281110BC0CC2349F0C4
:104D000080E090E00E945C2680E00E944405C09311
:104D1000FF02CF91089580E090E00E945C2681E040
:104D20000C9478268091FF02811102C00C944026D9
:104D3000089580917602873051F0982F94509430E6
:104D400048F08150823048F426E133E008C024E086
:104D500033E005C02DE033E002C02FE133E0C901AC
:104D6000089580EB94E0909369028093680290919B
:104D70007602945081E0943008F080E00E9429256A
:104D800061E08AEE94E00E942C0F91E0813009F0FE
:104D900090E0892F08950F931F93CF93DF930E9484
:104DA000472400917B0210917C02C0917902D0913E
:104DB0007A0263E086E792E00E947019A801BE01C2
:104DC0000E944A248AEA94E09093690280936802E0
:104DD00060E080EF94E0DF91CF911F910F910C94F0
:104DE0002C0FEF92FF920F931F93CF93DF938C01C1
:104DF000C9E7D2E0E880F98061E086E792E00E94AE
:104E0000701940E0B7010E94792388819981B80127
:104E10000E94063DCB010E94A52384EA94E0909372
:104E200069028093680260E08DEF94E0DF91CF919A
:104E30001F910F91FF90EF900C942C0FCF93DF9365
:104E4000C0917902D0917A0261E086E792E00E94F7
:104E5000701941E0BE010E94792384EA94E09093A6
:104E600069028093680260E08DEF94E0DF91CF915A
:104E70000C942C0FCF93DF93C0917902D0917A02DA
:104E800061E086E792E00E94701941E0BE010E9455
:104E90008F2384EA94E0909369028093680260E033
:104EA0008DEF94E0DF91CF910C942C0F81E0209155
:104EB000A5033091A603232B09F480E061E00E9452
:104EC000DC2286E894E0909369028093680260E0B7
:104ED0008AE095E00C942C0F62E086E792E00E9455
:104EE000701960917B0270917C02E0917D02F091DB
:104EF0007E024091B7035091B803E49F9001E59F73
:104F0000300DF49F300D1124820F931F0E94502307
:104F10008EE994E0909369028093680260E087E1F3
:104F200095E00C942C0FCF93DF93C0917B02D0912E
:104F30007C0262E086E792E00E947019BE010E9446
:104F400050238EE994E0909369028093680260E0B8
:104F500084E295E0DF91CF910C942C0F60E08AE021
:104F600095E00C942C0F60E08AE095E00C942C0FF7
:104F70008EE491E0909369028093680260E08FE292
:104F800095E00C942C0FCF93C82F8093030325E357
:104F900035E030930203209301038E3030F4E82F84
:104FA000F0E0ED54FF4F808101C080E080936C0001
:104FB0000E94CE360E94350A0E94B126882309F449
:104FC00047C084E00E947335C63041F160F4C230BE
:104FD000D1F128F4CC23A1F0C130C1F531C0C430E7
:104FE000A9F0B8F410C0CA3029F120F4C830E1F0BB
:104FF000F0F416C0CC3069F000F1CD3039F506C0C0
:105000008AE090E008C00E94B82722C00E946C2766
:105010001FC085E090E00E94F1261AC080E001C028
:1050200081E00E94CB2614C00E94562711C00E9426
:1050300093270EC00E94AE270BC00E94B32708C062
:105040000E941E2705C00E943A2702C00E949D2090
:105050000E94440ACF910C94DE360F931F93CF9396
:10506000DF93EC010E9444190E9499268C0160E0B4
:10507000C8010E94A71887FD29C090917602E82FE9
:10508000FF27E7FDF095973019F4EA5CFA4F0FC05F
:10509000892F8450843018F4E35CFA4F08C0915093
:1050A000923018F4EA5BFA4F02C0E55BFA4F849144
:1050B0008E3049F4BE0186E792E00E94461ACE0186
:1050C0000E945219D1CF0E94C327D1CFDF91CF9137
:1050D0001F910F9108958091AF03809328036EE490
:1050E00075E08DE093E00E94B91762E675E086E115
:1050F00093E00E94B9176EE675E084E093E00E94A9
:10510000B9176EE775E08FE193E00C94B917FC01D5
:10511000428153814115510589F0A081B181B7FFCA
:1051200003C0B195A195B10928EE33E00E94D83CA7
:105130009A0140E050E00E941A3D02C020E030E0B9
:10514000C90108950F931F93CF93DF9300D000D030
:10515000CDB7DEB78C01862FF801628173810E9482
:105160005F0A9C838B83F801808191819A83898374
:10517000CE0101960E9487280F900F900F900F90FC
:10518000DF91CF911F910F9108950F93FC01CA01F8
:10519000002341F06417750708F4CB014617570741
:1051A00048F409C04617570708F4CB016417750780
:1051B00008F401C0BA0197838683918380831382A8
:1051C00012821582148233872287681B790B7187BC
:1051D00060870F910895FC019B0140E050E08681BB
:1051E0009781281B390B41095109A285B3850E947B
:1051F000DF3C20853185442737FD4095542F0E94A0
:105200003C3D2115310581E0480751051CF457FD4F
:1052100004C005C02FEF3FEF02C020E030E0C9011D
:105220000895DF92EF92FF920F931F93CF93DF9336
:10523000EC012A813B812417350720F4FA01E21B97
:10524000F30B03C0F901E41BF50B8C819D8196954E
:1052500087958E179F0788F588819981861797070C
:1052600020F4FB01E81BF90B03C0FC01E61BF70B64
:10527000EF2BF9F422C08A01021B130B7B01E81A01
:10528000F90A06C07C01E61AF70A8901041B150B0E
:10529000C7010E94DB2CD82E888599850E94DB2CC3
:1052A000D8120BC01D830C83F986E8861B870A87FA
:1052B00004C024173507F8F2E5CFDF91CF911F9195
:1052C0000F91FF90EF90DF9008950F931F93CF936E
:1052D000DF93EC018B019A01A885B9850E94D83C27
:1052E0002A853B8540E050E00E943C3DC801A0E09B
:1052F000B0E082179307A407B5071CF41F821E8233
:1053000004C0021B130B1F830E83DF91CF911F91EB
:105310000F910895EF92FF920F931F93CF93DF9316
:10532000EC018B017A010E941129A701B801CE017D
:10533000DF91CF911F910F91FF90EF900C94652911
:105340009093920380939103089580912B03813071
:1053500029F4209191033091920302C020E030E0C3
:10536000C901089560918D0370918E0380912D0382
:105370000C945F0A20913003213041F041E02091EC
:105380009103309192038217930708F040E0842F35
:1053900008952CE0829FC001112460912D03875C49
:1053A0009C4F0C94A22860912D0381E893E00C940B
:1053B000A2280F931F93CF93DF9300D000D0CDB7D7
:1053C000DEB70E942C25811126C00E94142681116F
:1053D00022C037C000916D0010916E00CE01019681
:1053E0000E9487288017910740F4CE0101960E9401
:1053F000872890936E0080936D0020916D0030910E
:105400006E002F3F8FEF380709F421C030938603D9
:105410002093850320C080E00E94FA079A83898345
:1054200082E10E94FA0729813A81281B390B3A83CD
:10543000298386E10E94FA079C838B83892BE9F2FA
:10544000C9CF8FEF9FEF90936E0080936D002091F6
:10545000850330918603C9010F900F900F900F9034
:10546000DF91CF911F910F91089590938C038093BA
:105470008B0370938E0360938D03CB016AE070E021
:105480000E94063D709392036093910340932C0316
:10549000089590938C0380938B0370938E03609395
:1054A0008D03CB0164E170E00E94063D709392038E
:1054B0006093910340932C030895EF92FF920F9312
:1054C0001F93CF93DF9391E090932B03FF24F394EA
:1054D0008F3009F0F12C80932D0368EC70E00E946E
:1054E0000B0C9093900380938F030E94ED08209102
:1054F00091033091920340918B0350918C030F2DB7
:10550000BC0189E793E00E94C5280E94840C809327
:105510002E0380918B0390918C030E94CD0EEC01A1
:1055200010E08CE0E82E12C0812F0E94BD0CBC015F
:105530002091910330919203E19EC00111240F2D1F
:10554000AE018F5C9C4F0E94C5281F5F80912E0387
:10555000181750F31092300310922F03DF91CF9160
:105560001F910F91FF90EF9008950F931F93CF938A
:10557000DF93082FEB0180912C038823C9F0409121
:105580008F0350919003209191033091920324173F
:10559000350708F49A012C173D0710F410926402A5
:1055A00080913003813021F00E94620E80932B03A2
:1055B00080912B03813019F580913003823041F4C2
:1055C00011E02091910330919203C217D30708F0A4
:1055D00010E00E94A5298C179D0778F0111103C0D7
:1055E000011101C00AC090912F03892F8F5F809312
:1055F0002F0381E09A3020F402C010922F0380E044
:10560000DF91CF911F910F9108950F931F93CF9327
:10561000DF93EC010E94ED08AE01BC0189E793E045
:105620000E948A2910E00CE00DC0812F0E94BD0C61
:10563000BC01019FC0011124AE018F5C9C4F0E94F0
:105640008A291F5F80912E03181778F3DF91CF917D
:105650001F910F910895CF92DF92EF92FF920F93D7
:105660001F93CF93DF9360918B0370918C0389E735
:1056700093E00E94EB28EC0180918B0390918C03C6
:105680000E94CD0E7C01D12C9CE0C92E12C0CD9C75
:10569000800111240F5C1C4FB701C8010E94EB2848
:1056A000C817D90728F0B701C8010E94EB28EC0100
:1056B000D39480912E03D81650F3CE01DF91CF9171
:1056C0001F910F91FF90EF90DF90CF9008950F936F
:1056D0001F93CF93DF938B018093890390938A0369
:1056E00020918D0330918E03EC012817390708F4BF
:1056F000E9010E94A5299C018C179D0708F49E01D1
:105700000217130719F1809130038230A9F4201792
:10571000310790F080919103909192038017910747
:10572000A0F04091870350918803809141029091AD
:1057300042024817590749F0809141029091420274
:10574000909388038093870301C09801C901DF917A
:10575000CF911F910F9108950F931F93CF93DF93D4
:10576000EC010E94ED0890937A0380937903D09323
:105770007C03C0937B0310E00CE00DC0812F0E94DE
:10578000BD0C019FF0011124EF5CFC4F91838083DD
:10579000D383C2831F5F80912E03181778F3DF91A4
:1057A000CF911F910F9108951F93CF93DF93182FDF
:1057B000EB01CB010E94052BCE010E94AC2B0E9475
:1057C0002B2B90932A0380932903BE010E94672B01
:1057D0009C0180913003811110C0112389F08091C8
:1057E0002C03882321F00E94100D1092640281E0A6
:1057F0008093300320E030E003C082E080933003E8
:10580000C901DF91CF911F9108950F931F930091CC
:105810009303109194032091950330919603B8015E
:10582000C9011F910F91089512BE8DE78CBF88E0CA
:1058300083BF83B7836083BF89B7826089BF0895C0
:105840008091930390919403A0919503B091960356
:105850000196A11DB11D8093930390939403A0938F
:105860009503B093960308950E94202C0E944C3615
:105870000E94D92D80916F00815019F080936F00A4
:10588000089581EE80936F000E9492260E94C008C6
:105890000C94C61E1F920F920FB60F9211242F93D5
:1058A0003F934F935F936F937F938F939F93AF93A8
:1058B000BF93EF93FF930E94342CFF91EF91BF9120
:1058C000AF919F918F917F916F915F914F913F9198
:1058D0002F910F900FBE0F901F9018950F931F934D
:1058E0008FB7F8940091930310919403209195033E
:1058F000309196038FBF3695279517950795B80178
:10590000C9011F910F910895CF92DF92EF92FF92FC
:10591000CF93DF93EC010E946E2C6B017C01CC0EC7
:10592000DD1EE11CF11C0E946E2C6C157D058E05A0
:105930009F05C8F3DF91CF91FF90EF90DF90CF905C
:1059400008959C0180E001C08F5FF9014591549159
:105950002E5F3F4F452BC1F70895EF92FF920F93B3
:105960001F93CF93DF93EC017B018A0185E00E94B6
:10597000FA078E159F0518F4188281E007C00817F2
:10598000190718F481E0888301C080E0DF91CF918E
:105990001F910F91FF90EF90089521E030E09AE081
:1059A00006C0A901949F9001959F300D112481504C
:1059B000C0F7C901089597FD02C081E008958FEFF7
:1059C0000895CF92DF92EF92FF92CF939B01AC01AB
:1059D000611571058105910521F421E030E040E079
:1059E00050E0C0E08AE0C82ED12CE12CF12CCF5F32
:1059F000CA01B901A70196010E941A3D211531057E
:105A000041055105A1F78C2FCF91FF90EF90DF90CA
:105A1000CF900895BC0180E090E00C94E12CFC0153
:105A200080819181860F971F97FF03C0118210829A
:105A30000895242F30E0281739071CF44083118281
:105A40000895918380830895FC0180819181860F60
:105A5000971F181619061CF081E090E008C0242F4B
:105A600030E0281739071CF4408311820895918390
:105A700080830895FC0177FD04C06115710521F450
:105A800005C066EF7FEF02C06AE070E020813181DF
:105A9000260F371F37FF03C0118210820895421767
:105AA000530718F451834083089531832083089568
:105AB000AF92BF92DF92EF92FF920F931F93CF931B
:105AC000DF931F92CDB7DEB75C018A01DD24D3944A
:105AD000161617060CF0D12CF501E080F180B70105
