:100000000C94A4040C94CC040C94CC040C94CC0458
:100010000C94CC040C94CC040C94CC040C94CC0420
:100020000C94CC040C94BF050C949F2B0C944C3B6B
:100030000C94CC040C9409390C9447390C94CC04DE
:100040000C94CC040C94CC040C94CC040C94CC04F0
:100050000C94CC040000000040D5066200000000B3
:10006000F567E6307A013200A42AE803B71B3200B4
:100070003EA82C010000000000000000000000006D
:1000800000000000000000008DBBD636C24CA40B5F
:100090000C4970170000000043BFA80E00000000CC
:1000A00015D65110000000009BD9C82000000000A8
:1000B000CAD863100000000007D8571000000000E5
:1000C00040D85F1000000000A5CF58107C0132001E
:1000D000A82AE803320A3200EA3D2C010006080093
:1000E00001FF010100000106090001FF03020100F8
:1000F00002060A0001FF0000000006060E0000FFD5
:100100000302010005060D0000FF020300000406C3
:100110000C0000FF0302010003060B0000FF0406B1
:1001200000000706070000FF03020100180E130E6F
:100130005E0F2020436865616C6943686172676582
:100140007200202020207665723A20302E33326DE6
:1001500000550100006F7074696F6E73000100013B
:10016000000100010001000A006400010002000417
:100170000010004000000100040100030008000717
:1001800000070014000700496E66007965730020BF
:100190006E6F006D560077027F02840289028D0225
:1001A000920297029C020100010001000100000080
:1001B0000100B0041C075203000008071405B00436
:1001C0004006E803000008071405D0079209D60688
:1001D000000000006C07E40C100ED007E40C0000D7
:1001E000B80B100E0410C409A60E0000AC0D740E5E
:1001F0006810B80B0A0F0000890C40066C07140544
:1002000040060000DC0500980898086C0710275885
:100210000201980898086C070100E001029808980C
:10022000086C070100E001039808DC006C07060079
:10023000E00104980898086C070300780005980806
:1002400098086C070300780006980898086C070364
:1002500000780007980898086C0703007800756E0E
:100260006C696D69746564006D696E2E00756E6CE5
:10027000696D6974656400556E6B6E6F776E004EC4
:10028000694364004E694D480050623F004C696606
:1002900065004C696C6F004C69706F004E695A6E56
:1002A00000C402CB02D002D502DA02DF02E702F577
:1002B00002000045646974206E616D653A004E610C
:1002C0006D653A004261743A202000563A202000C1
:1002D00043683A200049633A200049643A20004DBF
:1002E00061782D543A200020206372656174652086
:1002F0006E616D650020202065646974206E616DFB
:100300006500436843425362426C446946435374F8
:1003100053424368446943794359436844694542B9
:100320000020202D2D2020006E2E612E004C696DA6
:100330006974733A200074696D653A20202020208A
:1003400000622000202000626174742E20523D0063
:10035000776972657320523D0056696E7075743D01
:1003600000206C696D69743D00566F7574203D0006
:100370005662616C2E3D00546578743D002D00700E
:10038000726F6772616D20636F6D706C657465006C
:1003900054696D653A2000726561736F6E3A200092
:1003A0006D6F6E69746F72206572726F72006E6F1E
:1003B000742075736564006D6178566F75743D00C7
:1003C00064656C746120563D200020002020002DC3
:1003D0002D2D3A2D2D002500546578743D006E6F4B
:1003E0007420757365640064656C746120543D20ED
:1003F0000046756E6374696F6E206E6F7400696D70
:10040000706C656D656E7465642079657400706CE0
:10041000656173652063616C696272617465006215
:1004200065666F7265207573650052455645525377
:100430004520504F4C41524954590020202020570C
:1004400041524E494E470042616C616E63657220B5
:100450006E6F742E636F6E002020686F6C64206274
:100460007574746F6E0020746F2053746172742FF2
:1004700073746F7000202043616C696272617469EB
:100480006F6E0020202020204552524F5200252020
:100490000090228422942256206C696D6974002D8C
:1004A00064560064542F6474005923622325238A00
:1004B000239123E6234B2419241F247C248A24938C
:1004C000240106070D05000210060708090B0C0D94
:1004D000040503000210060708090B0C0D040503B0
:1004E0000002100A0E0F0B0C0D040503000210068B
:1004F0000708090B0C0D0405030002100F0B0C0D6F
:10050000040503000607040D0500000001020304B2
:10051000050E00010203040506070E08090A0B0E6A
:100520000C0D0E5B05620571058005880592059E20
:1005300005A605B50500005B058805C205CC05B517
:100540000500005B0562057105800588059205B50B
:100550000500005B058805B50500006368617267EA
:1005600065006368617267652B62616C616E6365CB
:100570000073757065726368617267652B622E0027
:1005800062616C616E636500646973636861726760
:1005900065006661737420636861726765007374D7
:1005A0006F726167650073746F726167652B62615A
:1005B0006C616E6300656469742062617474657255
:1005C0007900633E64206379636C6500643E632058
:1005D0006379636C650062617420646973630069A8
:1005E0006E70757420560063617020434F4646005C
:1005F000542E206C696D6974006578742054434FE3
:100600004600436F6E6E6563742042617474657258
:100610007921007B0684068D06000008090A080976
:100620000A96069C06A206A806AE06B406BA06C03E
:1006300006C6060000061E1F2021222312000609FE
:100640000A0B0C0D0E76616C75653A2000496F75CA
:10065000743A202000CC06D1060000CC06D8060053
:1006600000DE06E5060000EC06F5060000FE0606C4
:10067000070F071B07270733070000566230706912
:100680006E3A200056623170696E3A20005662322E
:1006900070696E3A200056696E3A20005662313A0F
:1006A00020005662323A20005662333A20005662E9
:1006B000343A20005662353A20005662363A20001D
:1006C00056312D363A00566F75743A0035306D410B
:1006D00000313030306D41003330306D4100746591
:1006E0006D703A200076616C75653A00706F696EC6
:1006F0007420312E00706F696E7420322E00766F78
:100700006C746167650049206368617267650049C0
:10071000206469736368617267650074656D702039
:1007200065787465726E0063616C69622D3E554137
:100730005254006578706572742044414E474552AA
:1007400021004A0753075D07000073657474696EE2
:1007500067730063616C69627261746500726573CE
:1007600065742064656661756C7400802500000006
:100770004B00000096000000E1000000C2010000F4
:10078000007017640007000C0005007800581B007B
:1007900000080000000300C107CD07D807DF07E904
:1007A00007F307FF07090814081D0827082E083655
:1007B000080000432F6D003F0848084F0855085EA9
:1007C00008657874726E20543A2020200065787491
:1007D000726E2054434F3A0064542F64743A004EB2
:1007E000694D48202D64563A004E694364202D64BB
:1007F000563A00432F44206379636C65733A006373
:10080000617020434F66663A00696E707574206CA3
:100810006F773A006469736368202B3A0062616CF9
:100820002E206572723A00554152543A200073707E
:100830006565643A20002020207265736574006449
:10084000697361626C6564006E6F726D616C0064E7
:1008500065627567006578742E206465620065784E
:10086000742E204164630013161817190705061E1D
:100870001F202122237265736574696E6720656588
:1008800070726F6D3A00763A20372E39382E39382B
:1008900020006300640073000000000000000000FE
:1008A000000000000004030005000000000000003C
:1008B0000000000000000000000000000000000038
:1008C0000000010000002040800000000000010244
:1008D000040810204080000001020408102040801D
:1008E0000000008040201008040201000001020402
:1008F00008100002020200000000000404040404C6
:1009000004040400000303030303030303000000C3
:1009100001010101010101010000020202020200C5
:1009200000390036003300300000003B003800354D
:1009300000320000003A0037003400310000AC05FE
:10094000CA105822C227393A11241FBECFE5D8E079
:10095000DEBFCDBF10E0A0E6B0E0E4EEFAE702C0F3
:1009600005900D92A03FB107D9F714E0A0EFB0E0D9
:1009700001C01D92A93BB107E1F719E0C8E4D9E035
:1009800004C02297FE010E94F73CCE33D107C9F77D
:100990000E94F53A0C94703D0C940000CF9388E2CD
:1009A0000E94403CC1E0892B09F0C0E089E20E942E
:1009B000403C892B11F080E001C082E0C82B8AE224
:1009C0000E94403C892B11F080E001C084E0C82BDC
:1009D0008BE20E94403C892B11F080E001C088E04E
:1009E0008C2BCF910895CF93C82F682F89E10E9457
:1009F000D13B6C2F8AE10E94D13B6C2F80E20E9498
:100A0000D13B6C2F89E00E94D13B6C2F8BE00E9480
:100A1000D13B6C2F80E1CF910C94D13BCF93DF93EE
:100A2000EC0111C061E08CE20E94093C8CE890E08E
:100A30000E94963B60E08CE20E94093C88E290E0D4
:100A40000E94963B2197209769F7DF91CF910895F7
:100A5000089580910501882331F0809106018F5F10
:100A60008093060102C010920601809105018A3030
:100A700010F480E001C088E090910501943108F005
:100A800084E0909105019E3108F082E060910601BA
:100A900068238CE20C94093C80930501089561E081
:100AA00068278CE00C94093C80E00E94493B61E09F
:100AB0008CE00E94D13B61E08EE00E94D13B61E07E
:100AC0008EE10E94D13B61E08CE20E94D13B61E06B
:100AD0008DE00E94D13B61E08EE00E94D13B61E05D
:100AE0008FE00E94D13B80E00E944F0510920501EB
:100AF00020E042E060E180EF90E00E9444170E9415
:100B0000672B0E9494250E94F5250E942F060E94C3
:100B1000FB070C94650DCF93C82F682F617089E196
:100B20000E94093C6C2F62708AE10E94093C6C2F84
:100B3000647080E20E94093C6C2F687089E00E941A
:100B4000093C6C2F60718BE00E94093C6C2F607235
:100B500080E1CF910C94093CCF92EF920F9383E107
:100B6000C82E94E1E92E05E126E147E168E180EF36
:100B700090E00E94F8170F91EF90CF9008951F9288
:100B80000F920FB60F9211242F933F934F935F93C1
:100B90006F937F938F939F93AF93BF93EF93FF9345
:100BA00020910A0130910B01809108019091090177
:100BB000820F931F9093090180930801809108018F
:100BC0009091090126E0969587952A95E1F7209165
:100BD000080130910901AC0166E0440F551F6A9588
:100BE000E1F7241B350B30930901209308012FB73F
:100BF000F894309107013E3011F49BBD8ABD3091CD
:100C000007013D3021F02FBF0E94290503C099BD87
:100C100088BDF9CFFF91EF91BF91AF919F918F91D7
:100C20007F916F915F914F913F912F910F900FBEE8
:100C30000F901F9018959FB7F89470930B016093D5
:100C40000A01809307018E3019F48FB5806804C0C3
:100C50008D3019F48FB580628FBD9FBF08951FBC82
:100C600080E18EBD2FB7F89480E091E097BD86BDFE
:100C70002FBF8EB5887F8EBD8EB581608EBD89B742
:100C8000846089BF08958E3019F48FB58F7704C0C2
:100C90008D3019F48FB58F7D8FBD089540910D0172
:100CA00050910E0160910F0170911001452F562F48
:100CB000672F772767FD7A95CA010895109214016E
:100CC000109213018617970768F480E090E4A0E083
:100CD000B0E080930D0190930E01A0930F01B093AB
:100CE000100108C010920D0110920E0110920F0118
:100CF0001092100180910D0190910E01A0910F01B1
:100D0000B0911001BA2FA92F982F882780930D0139
:100D100090930E01A0930F01B093100181E0809396
:100D20000C010895CF93DF93EC01C13080E6D80722
:100D300070F4C13080E4D80760F48EE00E9443066E
:100D400060E08EE00E94093CBE018DE00CC0C0E076
:100D5000D0E68DE00E94430661E08DE00E94093CF0
:100D6000BE0170548EE0DF91CF910C941B069093DE
:100D70001401809313016CEB76E680E00E94070D6E
:100D800090931201809311010895CF93C82F882367
:100D900019F080E00E94D20661E06C278EE1CF91CD
:100DA0000C94093CCF93DF93C82F882319F080E07F
:100DB0000E94C5068DE00E94430660E08DE00E941F
:100DC000093C8EE00E94430660E08EE00E94093CF0
:100DD00010920C0161E06C278FE00E94093CCC234B
:100DE00061F080E00E94C708EC0186E00E94C7081D
:100DF000BE01DF91CF910C945E06DF91CF910895F3
:100E00000F931F9380910C01882309F474C080E034
:100E10000E94D00820911101309112012817390742
:100E200030F480E00E94D20610920C0164C082E08F
:100E30000E94D008409113015091140160E070E0CD
:100E400000910D0110910E0120910F0130911001C0
:100E5000481B590B61097109E4E0440F551F661FD7
:100E6000771FEA95D1F7040F151F261F371F009330
:100E70000D0110930E0120930F013093100180910A
:100E80000D0190910E01A0910F01B0911001B7FFDB
:100E900008C010920D0110920E0110920F011092D5
:100EA000100180910D0190910E01A0910F01B09160
:100EB00010010197A046B10560F080E090E0A0E647
:100EC000B0E080930D0190930E01A0930F01B093B9
:100ED000100180910D0190910E01A0910F01B09130
:100EE0001001892F9A2FAB2FBB27A7FDBA951F9111
:100EF0000F910C9492061F910F910895BC018EE002
:100F00000C941B068770806287B90895CF93DF9396
:100F100090916000891721F180936000C8B390E23E
:100F2000899F90011124CF71C22B98B3E4EEF8E0B1
:100F3000E4912AB3DE2FD095D2232AB38150823098
:100F400050F0892F8F71806C88BBE22BEABB8AE05E
:100F500090E00E94963B8FB7F894C8BBDABB8FBF76
:100F6000DF91CF91089595E0899FF0011124E0521F
:100F7000FF4FE49181E0E11101C080E0089595E028
:100F8000899FF0011124E152FF4FE49181E0E111CA
:100F900001C080E0089524B135B195E0899FF0014A
:100FA0001124E252FF4FE491F0E0EE0FFF1FE254F4
:100FB000FE4F932F80E0822B9183808308951092BF
:100FC0001501EDEDF0E084910E948207ECEDF0E078
:100FD00084910C948607369A08950E945825909320
:100FE000DD018093DC010E94AA259093DF018093AC
:100FF000DE010C94D30C60E08FE10E94093C60E0BC
:101000008FE10E94D13B61E081E00E94D13B61E031
:1010100082E00E94D13B61E083E00E94D13B87E8FF
:1010200086B90C94DF07CF93DF93D09115018D2FF4
:101030000E94B307882321F0C0914602C17001C00D
:10104000C0E085E0D89FF0011124E452FF4F849165
:10105000C11109C02091730330917403232B21F037
:10106000873011F4C1E085E00E948607E091150108
:10107000EF5F85E0E89FF0011124E352FF4F849178
:101080000E9482078CE390E00E94963B0E94EB074F
:101090003699FECFD09115018D2F8F5F0E94CB071F
:1010A00085E0D89FF0011124E352FF4F84910E9404
:1010B00082078CE390E00E94963B0E94EB073699F2
:1010C000FECFC11104C0809115010E94CB07809111
:1010D00015018F5F0E94BF0781110E940007809158
:1010E00015018E5F803118F48093150102C01092B3
:1010F00015010E94D908882341F0809115018111C2
:1011000004C0DF91CF910C94ED07DF91CF9108954A
:101110000C94DF07CF93DF930E94C70AC0912C0184
:10112000D0912D0102C00E94130880912C01909152
:101130002D01C817D907B9F3DF91CF910895CF9248
:10114000DF92EF92FF92CF93DF93EC010E94C32BCB
:101150006B017C01CC0EDD1EE11CF11C0E9413080A
:101160000E94C32B6C157D058E059F05B8F3DF919A
:10117000CF91FF90EF90DF90CF900895E82FF0E0AF
:10118000EE0FFF1FE052FE4F808191810895E82FFE
:10119000F0E0EE0FFF1FEA58FE4F80819181089525
:1011A000E82FF0E0EE0FFF1FE254FE4F80819181A7
:1011B000089580914802089580912C0190912D010D
:1011C0000895E82FF0E0EE0FFF1FE25DFE4F8081F3
:1011D00091810895613110F4423040F021E030E017
:1011E000FC0133832283318320830895242F30E050
:1011F000260F311D260F311D220F331F220F331FE3
:101200002E5F3F4F44E050E0B9010C942B3D282F56
:10121000CA01213188F4623078F470E0620F711DE8
:10122000620F711D660F771F660F771F6E5F7F4F0E
:1012300044E050E00C94493D0895FF920F931F93B2
:10124000CF93DF9300D000D0CDB7DEB7F12C88E08C
:10125000F89E80011124F801EC5AFF4F45915591F9
:101260006591749149835A836B837C83AE014F5F90
:101270005F4F60E08F2D0E940709F801E85AFF4F89
:10128000459155916591749149835A836B837C8311
:10129000AE014F5F5F4F61E08F2D0E940709F3940D
:1012A00081E1F812D4CF0F900F900F900F90DF9143
:1012B000CF911F910F91FF900895E82FF0E0EE0F6E
:1012C000FF1FEA58FE4F20813181E82FE250E831BC
:1012D00070F4F0E0E159FF4F8081882319F08130EC
:1012E00061F405C081E02333310540F404C081E09E
:1012F000293E334018F480E0089581E00895CF93AB
:10130000C0E08C2F825E0E945D09882319F0CF5FB8
:10131000C630B9F78C2FCF9108952091A20130915A
:10132000A3018091160190911701A0911801B0912D
:101330001901820F931FA11DB11D80931601909377
:101340001701A0931801B093190108956091160137
:101350007091170180911801909119012DE730E0EB
:1013600040E050E00E94B73C7727652F542F432F71
:10137000CA010895ECE9F1E080819181089580919E
:10138000540190915501039750F080915A0190912A
:101390005B01039720F083E090E00C94900E80E0D6
:1013A000089590E0880F991FFC01EA58FE4F2081B4
:1013B00031816217730718F4261B370B04C0AB0189
:1013C000421B530B9A01FC01E25DFE4F27303105B1
:1013D00018F01182108206C0208131812F5F3F4FAB
:1013E00031832083FC01EA58FE4F718360830895A6
:1013F000CF92DF92EF92FF920F931F93CF93DF93E1
:10140000C0917601D091770160918601709187013A
:1014100080918801909189016817790728F49C01CF
:10142000261B370BB90102C0681B790B8EE10E94A5
:10143000D109609188017091890180918A01909110
:101440008B016817790728F49C01261B370BB9011B
:1014500002C0681B790B8FE10E94D10960918C0159
:1014600070918D0180E20E94D10960918E0170918E
:101470008F0181E20E94D1096091900170919101E8
:1014800082E20E94D109609192017091930183E2FE
:101490000E94D1090E947F09F82E80E000E010E050
:1014A0000CC0E82FE25EF0E0EE0FFF1FEA58FE4F9F
:1014B00020813181020F131F8F5F8F11F2CFB8018E
:1014C00082E10E94D1090115110549F00C171D0791
:1014D00048F49E01201B310B293E334018F010E0E8
:1014E000F12C02C0E80112E1BE0183E10E94D109A2
:1014F0006F2D70E085E10E94D109612F70E084E1D9
:101500000E94D1090E94A6098C010E949B25882374
:1015100029F0E0907C01F0907D010BC00E944925EC
:10152000882329F0E0907A01F0907B0102C0E12C41
:10153000F12CB70186E10E94D109B80188E10E942F
:10154000D1099701DE010E94693C30E1C32E37E2E8
:10155000D32EE12CF12CA70196010E94B73CB901D2
:1015600087E10E94D1099801DE010E94693CA70130
:1015700096010E94B73CB90189E1DF91CF911F919B
:101580000F91FF90EF90DF90CF900C94D1091092C3
:1015900047021092460280E094E0899FF0011124F6
:1015A000EE5FFD4F10821182128213828F5F8131B4
:1015B00099F70895109229011092280110922401A0
:1015C00010922501109226011092270110922001FD
:1015D00010922101109222011092230110922B01EE
:1015E00010922A0110921F0110921E010E94C32B1B
:1015F00060931A0170931B0180931C0190931D014D
:10160000089580E0E82FF0E0EE0FFF1FE25DFE4F4F
:10161000118210828F5F8432A9F708950E94C70A51
:101620000C94010B10922D0110922C0110921601B6
:101630001092170110921801109219010E94880847
:101640000E940E0B0E94DA0A80E0E82FF0E0EE0F15
:10165000FF1FEA58FE4F118210828F5F8432A9F774
:1016600008958091480281110AC081E00E944F05CF
:101670000E94120B81E0809348020C948A0808951E
:101680001092480280E00C944F052091C0013091E7
:10169000C1018091BE019091BF018217930718F498
:1016A000281B390B02C020E030E081E0293E3340A6
:1016B00008F480E008958F929F92AF92BF92CF92EC
:1016C000DF92EF92FF92CF93DF93CDB7DEB72897EB
:1016D0000FB6F894DEBF0FBECDBFF82E5B0140E021
:1016E000682FCE0105960E94EA0841E06F2DCE01D9
:1016F00001960E94EA082B813C8140E050E0CF80B7
:10170000D884E12CF12C2C193D094E095F09B50153
:1017100080E090E08D809E80A12CB12C6819790921
:101720008A099B090E94873C29813A8140E050E068
:10173000281939094A095B090E94D93C2C0D3D1D25
:101740004E1D5F1D57FF03C020E030E0A901C90115
:1017500028960FB6F894DEBF0FBECDBFDF91CF91B4
:10176000FF90EF90DF90CF90BF90AF909F908F90C1
:1017700008951F93CF93DF9380912C0190912D01B9
:10178000019690932D0180932C0110E0C12FD0E0A1
:10179000FE01EE0FFF1FEE0FFF1FEE5FFD4F2091CA
:1017A00046023091470240E050E0608171818281C1
:1017B00093810E94B73CCC0FDD1FC052DE4F3983AE
:1017C0002883B901812F0E945B0BBC01812F0E94ED
:1017D000D1091F5F1131D1F60E94F8090E94CA3762
:1017E000DF91CF911F910C94C70A0F931F93CF9352
:1017F000DF93C1E020919E0130919F0180912401EF
:1018000090912501A0912601B09127012231310547
:1018100031F0C0E02091BE013091BF0104C02091A1
:101820009C0130919D01820F931FA11DB11D8093DA
:10183000240190932501A0932601B09327012091C4
:10184000CC013091CD018091200190912101A09196
:101850002201B0912301820F931FA11DB11D80931E
:10186000200190932101A0932201B0932301809144
:1018700028019091290101969093290180932801D4
:101880000E94C32B00911A0110911B0120911C0191
:1018900030911D01601B710B820B930B61367A4EE8
:1018A0008105910508F47AC080912A0190912B015D
:1018B000019690932B0180932A0120912801309169
:1018C000290140E050E06091240170912501809150
:1018D0002601909127010E94B73C1092240110929A
:1018E00025011092260110922701C11106C0B901ED
:1018F00080E00E945B0B8C0101C08901C091AC01AA
:10190000D091AD010C171D0720F0B8018BE10E94AA
:10191000D109B8016C1B7D0B8AE10E94D10920918D
:1019200028013091290140E050E060912001709140
:10193000210180912201909123010E94B73C1092D5
:101940002001109221011092220110922301B9016D
:1019500087E00E945B0B20911E0130911F01909344
:101960001F0180931E01BC01621B730B8CE10E945E
:10197000D10960912801709129018DE10E94D1095E
:1019800010922901109228010E94C32B60931A0122
:1019900070931B0180931C0190931D01DF91CF91E7
:1019A0001F910F91089540E0A42FB0E0FD01EE0FCC
:1019B000FF1FEE0FFF1FEE5FFD4FAA0FBB1FA254CC
:1019C000BE4F2D913C9180819181A281B381820F84
:1019D000931FA11DB11D80839183A283B3834F5FA9
:1019E000413111F780914602909147020196909300
:1019F0004702809346020E94F50B80914602909127
:101A000047028436910511F40C94B90B08958F9216
:101A10009F92AF92BF92CF92DF92EF92FF92CF93BD
:101A2000DF93CDB7DEB728970FB6F894DEBF0FBEB1
:101A3000CDBFF82E5B0140E0682FCE0105960E94D5
:101A4000EA0841E06F2DCE0101960E94EA08298143
:101A50003A8140E050E0CD80DE80E12CF12C2C1961
:101A60003D094E095F09B50180E090E08F809884C0
:101A7000A12CB12C681979098A099B090E94873C1D
:101A80002B813C8140E050E0281939094A095B0963
:101A90000E94D93C2C0D3D1D4E1D5F1D57FF03C0FC
:101AA00020E030E0A901C90128960FB6F894DEBF06
:101AB0000FBECDBFDF91CF91FF90EF90DF90CF9021
:101AC000BF90AF909F908F9008950C94120B462F6B
:101AD000E82FF0E0EE0FFF1FEA58FE4F2081318122
:101AE0008250883130F4E82FF0E0E159FF4F6081F7
:101AF00001C061E0C9010C94F815825E0C94C7081E
:101B000080916F02089580916D02811112C00E9430
:101B1000D908882381F00E94DC0820914902309185
:101B20004A02821B930B9C0181E02530310520F095
:101B300002C081E0089580E008950F931F93CF9332
:101B4000DF9310E0CFEFDFEF00E009C0812F0E94AC
:101B50007D0D8C179D0710F4EC01012F1F5F809104
:101B60006F02181798F3802FDF91CF911F910F917B
:101B70000895CF93DF9390916D02911104C0DF918E
:101B8000CF910C947D0D90915302C82FD0E09923F2
:101B900091F00E947D0DCC0FDD1FFE01EC5AFD4F30
:101BA000C05ADD4F2081318148815981241B350B7A
:101BB000280F391F07C0FE01EE0FFF1FEC5AFD4F23
:101BC00020813181C901DF91CF910895CF93C82F32
:101BD00080916D02882341F0C11106C00E94DC088B
:101BE00090934A0280934902C0936D020E94C32BD6
:101BF00060934B0270934C0280934D0290934E027F
:101C00000E94010B80916C02811104C08C2FCF9136
:101C10000C948B05CF91089580E00E94E60D81E041
:101C200080936C0208950E940C0E80E00C94F304E3
:101C3000EF92FF920F931F93CF93DF9381E00E9467
:101C4000F30485E10E94C70880936F0200E612E06A
:101C500034E5E32E32E0F32EC0E0D0E00CC08C2F50
:101C60000E947D0DF801819391938F01F70181937B
:101C700091937F01219680916F0290E0C817D90758
:101C800074F310926D0210926C0280E00E94E60DD7
:101C900010924A021092490210924B0210924C028A
:101CA00010924D0210924E02DF91CF911F910F9131
:101CB000FF90EF900895FF920F931F93CF93DF93C0
:101CC00080916E020E94B90DEC01F12C01E010E050
:101CD0001CC08F2D0E94B90DAC0180916D02802334
:101CE00021F0C417D50778F40DC02091710330910D
:101CF00072032F5F3F4F369527952C0F3D1F2417FA
:101D0000350708F4102B000FF39480916F02F8163A
:101D100000F3812FDF91CF911F910F91FF900895D4
:101D20001F93CF93DF93EC0110E008C0812F825EF8
:101D30000E94E1088C179D0738F01F5F80916F02A9
:101D40001817A0F381E001C080E0DF91CF911F91CF
:101D50000895BF92CF92DF92EF92FF920F931F935D
:101D6000CF93DF938AE090E00E94900E882309F4DD
:101D700061C00E949D0D80936E020E947D0D8C01BA
:101D800062E08EE792E00E94D3190817190750F11C
:101D900074E5E72E72E0F72EE0E6CE2EE2E0DE2ECE
:101DA000C0E0D0E0BB24B39416C08C2F0E947D0D00
:101DB000F701819391937F01F601819391936F01D4
:101DC000801B910B20917103309172032817390702
:101DD00008F4B12C219680916F0290E0C817D907C2
:101DE00024F302C0BB24B394109253020E94C32B6D
:101DF00060934F027093500280935102909352026D
:101E0000BB2059F0DF91CF911F910F91FF90EF9080
:101E1000DF90CF90BF900C940C0E0E945B0EDF9170
:101E2000CF911F910F91FF90EF90DF90CF90BF90D7
:101E30000C94E60DDF91CF911F910F91FF90EF90E1
:101E4000DF90CF90BF900895CF938091530281117E
:101E500019C081E08093530280916E020E947D0D33
:101E6000C0E00CC08C2F0E947D0DEC2FF0E0EE0F37
:101E7000FF1FE05AFD4F91838083CF5F80916F02F7
:101E8000C81780F3CF9108950F931F930E94C32B1F
:101E900000914F0210915002209151023091520254
:101EA000601B710B820B930B28EE33E040E050E097
:101EB0000E94B73CC9011F910F91089583E090E003
:101EC0000E94900E8823C9F080916D02811103C099
:101ED0000E94A90E12C00E94240F0E945B0E90E087
:101EE0008095909520916D0230E082239323892B79
:101EF00081F40E94440F4F9760F40E94830D882361
:101F000011F082E0089580916C028823D1F381E082
:101F1000089580E00E94E60DF0CF1F93CF93DF93EA
:101F2000EC0110E00FC0812F0E947D0D8C179D07E2
:101F300010F081E00CC0812F0E94B90D8C179D0715
:101F4000C0F71F5F80916F02181768F380E0DF9180
:101F5000CF911F9108951F93CF93DF93EC0110E071
:101F60000FC0812F0E947D0DC817D90710F081E0A6
:101F70000CC0812F0E94B90DC817D907C0F71F5F89
:101F800080916F02181768F380E0DF91CF911F9165
:101F9000089560916F02662321F070E00E94A33CD7
:101FA00002C060E070E0CB0108950E944A120E94D6
:101FB0009C200E941D350E94EB2C88E00C94333548
:101FC0000E944A120E94AA2086E00E9433350E9495
:101FD000EB2C88E00C943335E0917002F0917102A3
:101FE00085919491FC010994E0917002F091710245
:101FF000329685919491FC010994E0917002F091E0
:102000007102349685919491FC010994CF93DF93EA
:102010001F92CDB7DEB7811107C00E946D1F0E94CD
:10202000F40F0E94E00F0FC0813059F469830E94C1
:102030006D1F0E94F40F6981611105C00E94D50FC8
:1020400002C081E001C080E00F90DF91CF91089540
:10205000BF92CF92DF92EF92FF920F931F93CF9395
:10206000DF938C01C62E0E94EC0F0E944F1F0E942E
:10207000102D0E944A12F12C82E0D82EC0E0D0E050
:10208000EE24E3940E940935811106C0F801EF0D9A
:10209000F11D84910E9410220E94D811B82E84E074
:1020A000B81209C0EF2DF0E03196E00FF11FE49176
:1020B000E11123C005C082E0B81202C0F110FA9409
:1020C000EE2081F00E941A2DD82E6C2D0E94061051
:1020D000E82E882339F00E94DC08C817D90779F464
:1020E000E11003C0C11016C0E12C81E0B812CACFC4
:1020F0000E946D1F0E94F40F0DC0F394E1CF0E9467
:10210000DC08EC010E94FD0FD82E6C2D0E940610F9
:10211000E82EE6CF8D2DDF91CF911F910F91FF908B
:10212000EF90DF90CF90BF900895FC012481205262
:10213000621710F40C941E18862F90E0821B9109F0
:102140000E94B11A6EE00C94881360E082E792E07E
:102150000E941A1987FD0AC0811102C00C946532D1
:10216000992787FD909501970C94842708950E94E4
:1021700054050E9425360E94B13262E471E082E388
:1021800091E00E947F2088EE93E00E949F0880E00B
:102190000C94A93A61E571E082E792E00E942C1864
:1021A0008BE890E09093730280937202E6E7F2E08E
:1021B0008081805E80830895CF93DF93EC010E943D
:1021C00042128B819C810E9485130E9446126A8173
:1021D00088819981DF91CF910C942113FC01878133
:1021E0008F3118F48F5F8783089586818F5F868390
:1021F0000895FC018781882319F081508783089511
:1022000086818150868308951F93CF93DF93FC01CD
:10221000C681D0E06D2F80E00E943C121C2F105F21
:102220008C2FCF5F0E94DF138C2FC113FACFDF5F9B
:10223000D23081F7DF91CF911F9108951F93CF93F3
:10224000DF93EC0180EF90E00E94F9161FEF8E8182
:10225000181721F0CE010E9404111E818F81682F72
:1022600070E094E0759567959A95E1F78F700E94FC
:102270003C120E94D811823049F0843019F081302C
:1022800049F413C0CE010E94EE10E1CFCE010E94AE
:10229000F910DDCF8830D9F68D81E881F981E80F1A
:1022A000F11D8F819E81890F8083DF91CF911F91D6
:1022B0000895FC01718360834283348323831582F4
:1022C00080E2868317820895CF93DF93EC0180EF3D
:1022D00090E00E94F9160E944A12CE010E94DC1082
:1022E00061E08D810E943C120E94D8118230B1F0D1
:1022F000843041F08130C1F480EF90E00E940117FA
:1023000080E026C04D81242F30E08A8190E0019743
:10231000281739072CF74F5F4D83E2CF8D81882333
:10232000F9F281508D83DCCF8830D1F682E00E94B3
:102330002B12823048F083E00E94333580EF90E02A
:102340000E94011781E004C0CE010E941E11C3CF7C
:10235000DF91CF9108950C94CE04E0917C02F0E0DF
:10236000EE0FFF1FE35AFE4F25913491C9010895E6
:10237000CF93DF93D82F0E94CE0407C082E390E072
:102380000E949F080E94CE04DC2FC82F8D13F6CF29
:1023900010927C0210927B0280937D02882319F0B8
:1023A00080E00E943F3580917D02DF91CF910895BA
:1023B000FF920F931F93CF93DF93C0E0D0E0F12CF7
:1023C0000AEF10E015C00E94CE04F82E81E090E0E4
:1023D0000E949F0880917D02F81202C0219608C0D9
:1023E0008F2DDF91CF911F910F91FF900C94B81119
:1023F00040917C02242F30E0220F331FF901E55970
:10240000FE4F65917491C8010E94A33C6F5F7F4F9E
:10241000C617D707C0F2FF20B1F050917B025F5F73
:1024200050937B02F901E758FE4F85919491252F37
:1024300030E02817390738F0463018F44F5F4093E2
:102440007C0210927B0280917D02DF91CF911F91DF
:102450000F91FF900895CF93DF93D82FC0917D0205
:102460000E94D81190917C029D1711F08C17C1F336
:10247000892FDF91CF910895462F682F80EF90E04C
:102480000C94101760E080E00C943C1261E080E056
:102490000C943C1280EF90E00C943D17CF93DF93A7
:1024A000FC01DB018C91882389F0C081D1814883B4
:1024B000808191810196918380838C9181508C934E
:1024C000882321F00190F081E02D1082DF91CF91DF
:1024D0000895BF92CF92DF92EF92FF920F931F93D6
:1024E000CF93DF93EC018B017A014115510501F186
:1024F000CA010E94043DF8019081B82E981708F493
:10250000B92ECB2CD12CA601B701888199810E94CC
:102510000D3D288139812C0D3D1D39832883F8011B
:1025200080818B198083882319F0E881F9811082DA
:10253000DF91CF911F910F91FF90EF90DF90CF909F
:10254000BF900895EF92FF921F93CF93DF9300D037
:1025500000D0CDB7DEB77C01CA014B835C836983B1
:102560007A830E943F2C182F69817A81DB018C913C
:102570004B815C81811768F44FE3C7010F900F9086
:102580000F900F90DF91CF911F91FF90EF900C94DF
:102590004E12F70120813181210F311D31832083BB
:1025A000DB018C91811B8C93882321F00190F081B9
:1025B000E02D1082F9012AE030E00CC0CA01B90117
:1025C0000E94A33C405DBAE06B9F401911244293E6
:1025D0001150AB011111F2CF0F900F900F900F908F
:1025E000DF91CF911F91FF90EF9008950F931F936C
:1025F000CF93DF93CDB7DEB72B970FB6F894DEBF3E
:102600000FBECDBF8E010F5F1F4F1A87098727E0CE
:102610002B87AC01BE01655F7F4FCE0109960E94FA
:10262000A212B80180EF90E00E94403B2B960FB6BB
:10263000F894DEBF0FBECDBFDF91CF911F910F91F8
:1026400008951F93CF93DF93CDB7DEB761970FB691
:10265000F894DEBF0FBECDBF0097D1F0162F6131C9
:1026600008F010E1412F50E0BC01CE0101960E941C
:102670001C3DE1E0F0E0EC0FFD1FE10FF11D1082C9
:10268000BE016F5F7F4F80EF90E00E94403B01C032
:1026900080E061960FB6F894DEBF0FBECDBFDF912C
:1026A000CF911F9108951F93CF93DF93CDB7DEB7DE
:1026B00061970FB6F894DEBF0FBECDBF0097D1F083
:1026C000162F613108F010E1412F50E0BC01CE011E
:1026D00001960E940D3DE1E0F0E0EC0FFD1FE10FDF
:1026E000F11D1082BE016F5F7F4F80EF90E00E946E
:1026F000403B01C080E061960FB6F894DEBF0FBE8C
:10270000CDBFDF91CF911F91089560E10C945313D9
:10271000CF92DF92EF92FF920F931F93CF93DF93AD
:10272000CDB7DEB762970FB6F894DEBF0FBECDBF50
:10273000009761F1613108F060E17C01CC24C39421
:10274000D12CCC0EDD1E86011CC0C7016A8B0E94F5
:102750003B3DF80181938F01FFEFEF1AFF0A6A8971
:1027600081110FC0E1E0F0E0EC0FFD1FE60FF11D5D
:102770001082BE016F5F7F4F80EF90E00E94403B70
:1027800006C0802F8C19861700F3ECCF80E062968C
:102790000FB6F894DEBF0FBECDBFDF91CF911F9172
:1027A0000F91FF90EF90DF90CF900895882319F05C
:1027B0008BE891E002C08FE891E00C948513682FBC
:1027C00080EF90E00C94423BCF93DF931F92CDB704
:1027D000DEB7682F06C080E269830E94DF1369813B
:1027E00061506430C4F787E891E00F90DF91CF919A
:1027F0000C9453130F931F93CF93DF93062F142F33
:1028000064E670E00E94A33CEB0180E20E94DF13CB
:1028100080E20E94DF13C436D10548F480E20E94B2
:10282000DF13CA30D10518F480E20E94DF13CE0115
:102830000E94F612802F0E94DF13812F0E94DF1367
:1028400080E2DF91CF911F910F910C94DF13CF9312
:10285000DF93D82FC0E004C080E20E94DF13CF5F77
:10286000CD13FACF8C2FDF91CF91089580E10C9496
:1028700027146AE00E94973C892F805D0C94DF1337
:10288000DF92EF92FF920F931F93CF93DF93EC01B0
:10289000162F16160CF059C064E670E00E94A33C97
:1028A000D62EE72ECB010E943F2C082F23E0F22EDC
:1028B000F80E04C080E20E94DF131150F116D4F329
:1028C000412F552747FD50952F2D332727FD309554
:1028D000235031094217530754F4812FDF91CF91D0
:1028E0001F910F91FF90EF90DF900C94E4138D2DCA
:1028F0009E2D0E94F612CE0164E670E00E94A33C79
:10290000EC01101B012F015011161CF48EE20E94E5
:10291000DF13102F1150101644F4CE016AE070E05E
:102920000E94A33C862F0E943914111674F4CE0124
:102930006AE070E00E94A33CDF91CF911F910F915C
:10294000FF90EF90DF900C943914DF91CF911F919D
:102950000F91FF90EF90DF900895CF92DF92EF926A
:10296000FF920F931F93CF93DF93EC01162FC42E8A
:1029700016160CF088C068EE73E00E94A33CD62EB9
:10298000E72ECB010E943F2CF82E082F0C5F04C0CD
:1029900080E20E94DF1311500117D4F31017DCF00E
:1029A000C11019C0CE010E943F2C082F03C080E245
:1029B0000E94DF1311500117D4F3CE010E94F612CA
:1029C0008DE6DF91CF911F910F91FF90EF90DF90F7
:1029D000CF900C94DF13412F552747FD5095202FA2
:1029E000332727FD309524503109421753075CF4F3
:1029F000812FDF91CF911F910F91FF90EF90DF908A
:102A0000CF900C94E4138D2D9E2D0E94F612CE01D2
:102A100068EE73E00E94A33CEC011F19012F0150E6
:102A200011161CF48EE20E94DF13102F11501016A5
:102A300044F4CE0164E670E00E94A33C862F0E941D
:102A40003914CE0164E670E00E94A33CEC01012F32
:102A5000015011163CF46AE070E00E94A33C862FFE
:102A60000E94391410167CF4CE016AE070E00E94D6
:102A7000A33CDF91CF911F910F91FF90EF90DF90DA
:102A8000CF900C943914DF91CF911F910F91FF904B
:102A9000EF90DF90CF9008956F927F928F929F92E8
:102AA000AF92BF92CF92DF92EF92FF920F931F935C
:102AB000CF93DF937C01962E742E822E16160CF087
:102AC00044C021119A94C7010E943F2CC0E0D0E07D
:102AD000082F10E0A92CBB24A7FCB09404C0872DBC
:102AE0000E94DF132196692C6C1A6501CC1ADD0A4D
:102AF0000C151D05A4F3882019F08DE20E94DF1348
:102B0000C016D1068CF4862DDF91CF911F910F91C5
:102B1000FF90EF90DF90CF90BF90AF909F908F90FD
:102B20007F906F900C94E413C701DF91CF911F91B8
:102B30000F91FF90EF90DF90CF90BF90AF909F905C
:102B40008F907F906F900C94F612DF91CF911F9130
:102B50000F91FF90EF90DF90CF90BF90AF909F903C
:102B60008F907F906F90089520E00C944C1540E278
:102B70000C94B415CF93DF936CE370E00E94A33CF8
:102B80009B01EC0140E363E0C9010E94B4158AE3B4
:102B90000E94DF1340E362E0CE01DF91CF910C94FD
:102BA000B415292F221F2227221F19F091958195F4
:102BB000910940E20C944C15161634F461500E94B1
:102BC000401483E40C94DF130895161634F4615016
:102BD0000E94B71585E20C94DF13089563303CF032
:102BE00062500E94B71583E991E00C948513089513
:102BF000CF93DF93C62F1416C4F5642F6150C330F2
:102C000079F020F4C13091F048F41EC0C530D9F0FD
:102C100078F0C63091F0C730D1F411C040E201C065
:102C200048E667E5DF91CF910C94FA13D6E510C022
:102C3000642FDF91CF910C94DC15D4EF06C00E9475
:102C4000D11585E50EC06150D1E440E002C0D5E564
:102C500041E00E94AD148D2F0E94DF13C53029F48E
:102C600088E6DF91CF910C94DF13DF91CF91089527
:102C7000462F66E00C94F815462F61E00C94F81589
:102C8000462F60E00C94F815462F65E00C94F8157B
:102C9000CF93DF93EC0160E08E810E94093C81E0DC
:102CA00090E00E94963B61E08E810E94093C81E0A9
:102CB00090E00E94963B60E08E810E94093C84E691
:102CC00090E0DF91CF910C94963BCF92DF92EF9200
:102CD000FF920F931F93CF93DF937C01C0E0D0E06E
:102CE000C62ED12C87010C0F1D1F61E0F8018781D2
:102CF0000E94D13BB6010C2E02C0759567950A94CF
:102D0000E2F761707727F80187810E94093C2196DC
:102D1000C430D10539F7C701DF91CF911F910F91D1
:102D2000FF90EF90DF90CF900C944816CF92DF92F7
:102D3000EF92FF920F931F93CF93DF937C01C0E03C
:102D4000D0E0C62ED12C87010C0F1D1F61E0F801C9
:102D500087810E94D13BB6010C2E02C07595679504
:102D60000A94E2F761707727F80187810E94093C95
:102D70002196C830D10539F7C701DF91CF911F9156
:102D80000F91FF90EF90DF90CF900C9448161F9317
:102D9000CF93DF93EC01162F642F8C810E94093CA6
:102DA0008D818F3F19F060E00E94093C8F85612F73
:102DB00084FF06C0CE01DF91CF911F910C9496162F
:102DC00070E084E0759567958A95E1F7CE010E94E1
:102DD0006516612FCE01DF91CF911F910C9465167E
:102DE00041E00E94C71681E090E0089540E00C9415
:102DF000C716FC016089262F2160208B69600C9426
:102E0000F616FC0160896E7F608B68600C94F61684
:102E1000FC016089262F2460208B6C600C94F616D0
:102E2000CF93DF93CDB7DEB728970FB6F894DEBF08
:102E30000FBECDBF28E0E7E6F0E0DE01119601907D
:102E40000D922A95E1F7FC012389421710F0422FD9
:102E50004150FE013196E40FF11DE40FF11D208178
:102E6000260F2068622F28960FB6F894DEBF0FBE9B
:102E7000CDBFDF91CF910C94F61661E00E94F6165B
:102E800080ED97E00C94963BCF93DF93EC014230BA
:102E900018F08F8588608F874B8B1C8A222329F03E
:102EA000413019F48F8584608F8780E593EC0E9410
:102EB000963B60E08C810E94093C60E08E810E941C
:102EC000093C8D818F3F19F060E00E94093C6F85BD
:102ED00064FD1DC063E0CE010E94651684E991E1A6
:102EE0000E94963B63E0CE010E94651684E991E161
:102EF0000E94963B63E0CE010E94651686E990E051
:102F00000E94963B62E0CE010E94651616C0606288
:102F1000CE010E94F61684E991E10E94963B6F85EE
:102F20006062CE010E94F61686E990E00E94963B10
:102F30006F856062CE010E94F6166F856062CE01D9
:102F40000E94F61684E0888BCE010E940817CE01FD
:102F50000E943D1782E0898B66E0CE01DF91CF9120
:102F60000C94F6166F927F928F92AF92CF92EF925F
:102F70000F931F93CF93DF93CDB7DEB73C01162F8E
:102F8000842F5D854E853F859889F3018483258351
:102F90000683E782C086A186828653874487358769
:102FA000968761E00E94D13BF30185818F3F19F044
:102FB00061E00E94D13B61E0F30186810E94D13B38
:102FC000112319F0F301178603C080E1F30187870D
:102FD00020E041E060E1C301DF91CF911F910F91AB
:102FE000EF90CF90AF908F907F906F900C9444179C
:102FF0008F92AF92CF92EF920F93DC0113961C92B7
:103000001E921297E1E9F0E0ED93FC931F921F925C
:103010001F921F928C2CAE2CC02EE22E042F2FEF6D
:10302000462F61E00E94B2170F900F900F900F9003
:103030000F91EF90CF90AF908F900895FC01278172
:103040008085E22FF82FE60FF11DE60FF11D259187
:103050003491C9010C9485130F931F93CF93DF9381
:10306000EC018B01CB010E94F62B682FCE010E9450
:103070008F1889E990E09983888318870F83DF91FF
:10308000CF911F910F910895DF92EF92FF920F93CE
:103090001F93CF93DF93EC01F62E69871A8681E0A8
:1030A0008D8382E0D82EEE24E3948E01075F1F4FBC
:1030B0000E94D811482F823011F0843061F4E881E9
:1030C000F9810280F381E02D6F2DCE010995F986FB
:1030D000DA86ED8204C0813089F0883079F0C80149
:1030E0000E94FF2C8111ED828D81882319F0CE0181
:1030F0000E94BC188A858F5F8A87DACF8FEF898715
:1031000081E08E838D83483009F080E0DF91CF919C
:103110001F910F91FF90EF90DF9008950895FC01AB
:103120008FE990E09183808312821382648381E02F
:10313000858386830895FC012281211103C081E0EB
:1031400082830895438130E0240F311D848190E013
:1031500001972817390714F44F5F43830895FC0142
:103160008281882319F08150828308958381882386
:1031700011F08150838308951F93CF93DF93EC0167
:1031800010E0612F80E00E943C1280E20E94DF1379
:10319000E881F9816B81610F0190F081E02DCE0112
:1031A00009950E9436141F5F123059F76A8180E03A
:1031B0000E943C128EE30E94DF136A818FE00E941E
:1031C0003C128CE30E94DF131D82DF91CF911F918F
:1031D00008950F931F93CF93DF93EC010E94D811B2
:1031E000182F0E940935882321F081E08D831FE785
:1031F0001BC00B818A81080F123031F0143039F472
:10320000CE010E949B1803C0CE010E94AF188B8193
:103210009A81890F081711F081E08D838D818823B1
:1032200019F0CE010E94BC18812FDF91CF911F9120
:103230000F910895EF92FF921F93CF93DF931F9208
:10324000CDB7DEB77C0181E0F701858311E0C701CE
:1032500069830E94E9186981811102C0F701168211
:10326000F7019681911108C0883031F481E086839E
:1032700083819281890F09C0662311F0F7011583BC
:10328000813029F79111E3CF8FEF0F90DF91CF912C
:103290001F91FF90EF9008950F931F93CF93DF93AB
:1032A000EC018B0150E00E94A2124AE3B801CE016A
:1032B000DF91CF911F910F910C944E12EF92FF92DC
:1032C0000F931F93CF93DF9300D01F92CDB7DEB73C
:1032D0008C01462F0B969A8389838EE08B83D801CD
:1032E000EC91F0E0EE0FFF1FEA56FE4FE590F490F0
:1032F000BE016D5F7F4FCE0101960E944C19A70160
:10330000BE016D5F7F4FCE0101960E94691240E2BF
:10331000BE016D5F7F4FCE0101960E944E12F801F3
:1033200041815281BE016D5F7F4FCE0101960E94A7
:10333000A2124FE2BE016D5F7F4FCE0101960E9447
:103340004E12D80117964D915C911897BE016D5F92
:103350007F4FCE0101960E94A2120F900F900F9006
:10336000DF91CF911F910F91FF90EF90089529E188
:10337000289FB001299F700D112464577F4F49E1A8
:1033800050E08EE792E00C942B3D29E1289FB0019C
:10339000299F700D112464577F4F49E150E08EE75B
:1033A00092E00C94493DDC01EC91B6E0EB9FF0011A
:1033B0001124E60FF11DEE0FFF1FEA55FE4F259178
:1033C0003491C9010895CF93DF93EC010E94D31982
:1033D0004F815885849F9001859F300D949F300DBB
:1033E0001124C901DF91CF9108950F931F93FC0120
:1033F000A181B28120916B0330916C030E94693CE2
:1034000024E630E040E050E00E94B73C89019A0198
:10341000093EFDEF1F072105310520F008EE1DEFE5
:1034200020E030E0C8011F910F910895FC018185D3
:1034300092850895FC012081213029F420916703B1
:103440003091680309C0223029F42091650330913E
:10345000660302C020E030E0FC0187819085289F50
:10346000A001299F500D389F500D1124CA010895C5
:10347000E3E6F3E0808191810895FC016081FBE047
:103480006F9FB00111246A5F7D4F4BE050E00C94B8
:10349000FB3CDC01EC91F0E0EE0FFF1FEA56FE4F23
:1034A00025913491C9010C94531360E170E00C94A0
:1034B000491ACF93DF93EC01888160E0811108C045
:1034C000CE010E94E31967E00E943C1687E011C01C
:1034D000CE010E94E31965E00E943C168FE20E9433
:1034E000DF138F8198850E94F61283E40E94DF1318
:1034F00088E0DF91CF91089566E0FC01838194819B
:103500000E94401686E0089566E0FC018581968160
:103510000E94401686E00895FC0181859285883ED0
:10352000F3E09F0729F48EE592E00E94851302C024
:103530000E94F61288E692E00E94851386E00895C4
:10354000FC0181819281883EFDEF9F0729F48DE681
:1035500092E00E94851303C067E00E94441688E051
:10356000089549E1489F9001499F300D1124295643
:103570003F4FC90108950F931F93CF93DF93CDB7AA
:10358000DEB7A6970FB6F894DEBF0FBECDBF8C0195
:10359000AB01BC01CE0101960E947F1CCE010196B9
:1035A0000E94ED1C89E1FE013C96D80101900D922C
:1035B0008A95E1F7A6960FB6F894DEBF0FBECDBF91
:1035C000DF91CF911F910F910895FC012081260F6B
:1035D000283010F4208302C0FC0110820C943D1AA4
:1035E0000F931F9361E00E94E3199C0140E050E0BB
:1035F00060E870EF8AEF92E00E94B73C89019A017F
:10360000093883E118072105310520F008E813E1A6
:1036100020E030E0C8011F910F9108950F931F9390
:1036200061E00E94E3199C0140E050E060E47BE42B
:103630008CE490E00E94B73C89019A01013D87E04B
:1036400018072105310520F000ED17E020E030E0FB
:10365000C8011F910F9108950F931F93CF93DF938C
:1036600000D0CDB7DEB78C0169837A830E94F01A4F
:1036700020E0AC0169817A81C80103960F900F9018
:10368000DF91CF911F910F910C948D2C0F931F936D
:10369000CF93DF9300D0CDB7DEB78C0169837A83F7
:1036A0000E940E1B20E0AC0169817A81C801059659
:1036B0000F900F90DF91CF911F910F910C948D2C53
:1036C00048EE53E009960C946F2C61E00E94D319E8
:1036D000BC0184ED92E60E94A33CCB0108950F93B8
:1036E0001F93CF93DF9300D0CDB7DEB78C016983F2
:1036F0007A830E94651B21E0F801308169817A811B
:10370000311120E0AC01C80107960F900F90DF91B6
:10371000CF911F910F910C948D2CCF93DF93EC01DF
:103720000E94651B2F8138858217930710F49887B4
:103730008F83CE010E94F01A2B813C818217930760
:1037400010F49C838B83CE010E940E1B2D813E8141
:103750008217930710F49E838D83DF91CF91089594
:10376000CF93DF93EC0120E048EE5DEF01960E94DD
:103770008D2C89819A819C838B832881233039F415
:103780009C0136952795369527953C832B839E8300
:103790008D83CE01DF91CF910C948D1BDF92EF9240
:1037A000FF920F931F93CF93DF9300D01F92CDB75B
:1037B000DEB74BE050E068E472E08EE792E00E94F2
:1037C000FB3C8EE792E00E948D1B00E010E05EE083
:1037D000D52E69E8E62E62E0F62EDB82FA82E982D7
:1037E000402F4F5FBE016D5F7F4FCE0101960E945B
:1037F0004C19C8010E94C5190F5F1F4F00321105F7
:1038000061F70F900F900F90DF91CF911F910F9163
:10381000FF90EF90DF90089508950895262F44308B
:1038200019F06FEF7FEF02C061E070E0223091F09D
:1038300028F4222349F02130C9F409C0243081F052
:1038400060F0253099F40FC00B960C94E51A0B9696
:103850000C946F1B0B960C94B01B0B960C942C1BAA
:103860000B960C94461B0B960C94601B08951F93AB
:10387000CF93DF93EC01162F0E941E18CE010996FC
:103880000E94F42C882311F0298501C02FEF3327E3
:1038900027FD3095812F90E02817390759F1123014
:1038A000B1F028F4112349F0113021F50BC0143088
:1038B000C1F090F01530F1F419C0CE010B960E94C2
:1038C000551A18C0CE010B960E94591A13C0CE018A
:1038D0000B960E94A01A0EC0CE010B960E947C1A75
:1038E00009C0CE010B960E94841A04C0CE010B962B
:1038F0000E948C1A80E0DF91CF911F910895EF9282
:10390000FF920F931F93CF93DF93EC018B017A010A
:1039100061EA72E00E942C188FEF898785EA90E0B7
:103920009983888389E1F801DE011B9601900D924D
:103930008A95E1F7FDA2ECA2DF91CF911F910F9143
:10394000FF90EF9008950F931F93CF93DF93CDB720
:10395000DEB728970FB6F894DEBF0FBECDBF8C013F
:10396000BC016A5E7F4F23EB32E04EE050E0CE01B7
:1039700001960E945911CE0101960E94641181E0C6
:10398000F801858328960FB6F894DEBF0FBECDBF31
:10399000DF91CF911F910F910895CF93DF93EC01A9
:1039A0006CA17DA16F5F7F4F0B960E945E190E94F4
:1039B0004A120E9442128EEB92E00E9485130E94EE
:1039C00046126EE0CE0146960E9421130E94EB2C17
:1039D00083E0DF91CF910C943335DF92EF92FF9229
:1039E0000F931F93CF93DF93CDB7DEB769970FB6D1
:1039F000F894DEBF0FBECDBF8C0189E1D82E9BE0CD
:103A0000E92EF12CE00EF11E60E0C8010E941A19A7
:103A100087FD2BC0863019F0873049F404C0C801F7
:103A20000E94CD1CF1CFC8010E94A31CEDCFF7016D
:103A3000DE0111969D2D01900D929A95E1F7682F68
:103A4000C8010E944418811109C0FE013196D701B6
:103A50008D2D01900D928A95E1F7D6CF83E00E94DB
:103A60003335C7010E948D1BCFCF69960FB6F894EE
:103A7000DEBF0FBECDBFDF91CF911F910F91FF90A1
:103A8000EF90DF90089580915F0390916003892B00
:103A9000A1F08CE10E94C70865E02AE0AC01249FF8
:103AA000C001259F900D11240E94D1158DE60E9422
:103AB000DF1383E40E94DF1304C08EEA93E00E94C8
:103AC00085130C9436148AE10E94C70865E00E94B1
:103AD000D1158DE60E94DF1386E50E94DF130C945A
:103AE0003614CF93DF9300D0CDB7DEB789839A83A6
:103AF0000E94421289819A810E9485130E94461277
:103B00008091C6029091C7020E94043D892B51F01A
:103B100087E993E00E9485138091C6029091C702C5
:103B20000E9485130F900F90DF91CF910C94361463
:103B300090E0880F991F62E08E5F9C4F0C945313A6
:103B40000F931F93CF93DF9361E08EE792E00E9483
:103B5000E3198C0165E08EE792E00E94E319EC0125
:103B600083E10E94C70880179107B8F4C817D907E6
:103B7000B0F49C012C1B3D0BC8018C1B9D0B64E613
:103B800070E00E94A33CC9010E94A33CCB016436B3
:103B9000710530F083E690E003C083E601C080E069
:103BA000DF91CF911F910F910895613011F40C9422
:103BB000B90D0C941C29CF93DF93D82FC62F825EAA
:103BC0000E945D09882351F06C2F8D2F0E94D51D16
:103BD00046E06C2FDF91CF910C94F81581E293E0D1
:103BE000DF91CF910C948513FF920F931F93CF9386
:103BF000DF93182F062F0E9442128091A102882382
:103C000019F01092A10203C081E08093A10290916B
:103C10009F028091A002992311F08F5F01C0815013
:103C20008093A0028091A00286301CF010929F0227
:103C300005C082301CF481E080939F020E94830DB6
:103C4000811108C083E090E00E94900E882341F02B
:103C5000C0E209C080915302882321F0C2E403C06E
:103C6000CDE601C0C2E68C2F0E94DF1380916D0269
:103C7000811119C024C080916E02C81751F0809143
:103C80006D028D2341F08091A102882331F08FEFE6
:103C900005C08FE503C08DE201C080E20E94DF1302
:103CA000DD0FCF5F02C0C0E0D1E00E94800DC817D9
:103CB00010F30E94800D97E0981B892F25C08091FA
:103CC0009F02882319F04EE3F42E02C03CE3F32E4A
:103CD000CD3611F0C032B9F4C1E0D0E02091A0029D
:103CE000332727FD30952C173D0711F48F2D01C088
:103CF00080E20E94DF132196C730D10579F780E278
:103D00000E94DF1303C087E00E942714C12FCF5FFA
:103D10008C2F0E9439148AE30E94DF1311112BC0EB
:103D20000E949B25882339F10E94AA25892B41F501
:103D300022C00E9436140E944612D12FDE5F8D2FC2
:103D40000E9439148AE30E94DF13602F8C2F0E9497
:103D5000DB1D812F8D5F0E9439148AE30E94DF13DF
:103D6000602F8D2F0E94DB1DDF91CF911F910F914E
:103D7000FF900C943614602F812F0E94DB1DD9CF49
:103D800088E293E00E948513D4CF88E10E94C7089F
:103D900068E00E94441680E20C94DF130E944212F5
:103DA0008EE792E00E94F51968E00E94441680E2D6
:103DB0000E94DF130E94052967E00E9440160E94BE
:103DC00036140E9446128DE293E00E94851367E04C
:103DD00080914F03909150030E943C160C9436142E
:103DE0000F931F936091AC027091AD028091AE026F
:103DF0009091AF0220919702222371F00E94C32B71
:103E00000091AC021091AD022091AE023091AF0250
:103E1000601B710B820B930B28EE33E040E050E007
:103E20000E94B73CC9011F910F9108950E94492536
:103E3000811110C00E949B25882331F00E944925E2
:103E400081110AC084E40BC00E94830D811106C059
:103E50008EE405C083E403C085E401C082E40E94CF
:103E6000DF1380E20E94DF130E94F01E0E94BA1549
:103E700080E20C94DF130E9442120E94C51E67E08C
:103E800086E10E94670D0E9436140E9446120E942D
:103E9000161F67E083E10E94670D0C9436140E94A0
:103EA000C32B6093AC027093AD028093AE029093EB
:103EB000AF021092A8021092A9021092AA021092C8
:103EC000AB021092A4021092A5021092A6021092C8
:103ED000A70281E08093970208950F931F930E9499
:103EE000C32B0091AC021091AD022091AE02309133
:103EF000AF02601B710B820B930B6093AC0270934B
:103F0000AD028093AE029093AF02109297021F9180
:103F10000F9108950E944F2581111DC00E94A12577
:103F2000811119C00E94830D882351F18091A8024C
:103F30009091A902A091AA02B091AB0280599F4F23
:103F4000AF4FBF4F8093A8029093A902A093AA02FB
:103F5000B093AB0208958091A4029091A502A09124
:103F6000A602B091A70280599F4FAF4FBF4F8093D9
:103F7000A4029093A502A093A602B093A702D2CF69
:103F800008956091A4027091A5028091A60290917B
:103F9000A70220E63AEE40E050E00E94B73CC9019B
:103FA0000895CF92DF92EF92FF920E94421286E331
:103FB00093E00E9485130E94F01E0E94BA150E9491
:103FC000461281E493E00E9485136091A8027091EB
:103FD000A9028091AA029091AB0258EEC52E53E03F
:103FE000D52EE12CF12CA70196010E94B73CC90106
:103FF0000E94BA1584E493E00E9485136091A402A4
:104000007091A5028091A6029091A702A701960146
:104010000E94B73CC901FF90EF90DF90CF900C94C5
:10402000BA150E94421287E493E00E9485130E9411
:10403000262968E00E9438160E9436140E94461213
:1040400082E10E945D09882349F080E593E00E94A7
:1040500085130E942C2968E00E9438160C943614AF
:104060000E94421289E593E00E94851367E086E092
:104070000E94670D0E9436140E94461281E693E06A
:104080000E94851347E061E080916D0390916E037B
:104090000E94F8150C9436140E94421289E693E0AF
:1040A0000E94851367E080E00E94670D0E9436142D
:1040B0000E94461280E793E00E94851367E082E148
:1040C0000E94670D0C9436140E94421287E793E019
:1040D0000E94851380915F0390916003892B29F0E2
:1040E00065E087E00E94670D04C08DE793E00E94C1
:1040F00085130E9436140E9446120C9436140F93B6
:104100001F93CF93DF9300D0CDB7DEB78B018983A8
:104110009A830E944A120E94421289819A810E94C7
:1041200085130E944612C8010F900F90DF91CF9126
:104130001F910F910C9485138FE793E00E94711DDE
:104140000E94461280E993E00E9485130E94F01EAF
:104150000C94BA1580EA93E00C94711D0E944212EF
:104160000E94C51E0E94431D0E9446120E94161FF7
:104170000C94631D0E94421287EB93E00E9485130A
:1041800067E08BE10E94670D0E9436140E94461280
:1041900080EC93E00E9485130C94631D1F93CF93D2
:1041A000DF9380919E028F5F853118F480939E0289
:1041B00002C010929E020E94A01D182FC82FD0E0AE
:1041C00020919C0230919D022C173D07A0F4D093C2
:1041D0009D02C0939C020E94F01E20919802309193
:1041E0009902821B930B90939B0280939A02909367
:1041F0009902809398020E94421268E087E10E942F
:10420000670D8AEC93E00E94851367E086E10E94C7
:10421000670D0E9436140E94461268E089E10E94F0
:10422000670D8CEC93E00E94851380919E028A308A
:1042300030F50E94492581111DC021C024E630E0DF
:10424000211B310980919A0290919B02AC01249F1D
:10425000C001259F900D349F900D1124DF91CF91C7
:104260001F910C94BA158FEC93E0DF91CF911F91C1
:104270000C9485130E94F01ECD9700F7F4CF64E0F4
:10428000CE010E94B71586ED93E00E948513DF9161
:10429000CF911F910C9436140E94421288ED93E046
:1042A0000E94851380915F0390916003892B41F0F8
:1042B00069E080911E0190911F010E94DC1504C0ED
:1042C0008EED93E00E9485130E9436140E944612E0
:1042D00087EE93E00E9485130C94431D6EEF73E00C
:1042E00081EF93E00C947F200E946E210C94EB2CC4
:1042F0006FE174E08EE094E00E947F2088E893E113
:104300000C94D92B0E9442128AE294E00C948513FB
:1043100084EF91E00E949F0867E474E08BE394E0EF
:104320000E947F2084E893E00E949F0866E674E084
:1043300088E594E00E947F2084E893E00C949F0835
:1043400063E874E085E794E00E947F2080E49FE1C9
:104350000C949F08CF931092990210929802109299
:104360009B0210929A020E94421264E070E08EE773
:1043700092E00E94491A80E20E94DF138EE792E0E9
:104380000E94591A80E20E94DF138091C8020E94A5
:10439000981D0E9446120E94A01D62E090E00E94BB
:1043A000B7158EE894E00E94851382EA92E00E949D
:1043B000F42C882319F0C091A20201C0CFEFC0FFF6
:1043C00005C065E080E00E94670D03C085E00E94A3
:1043D000271480E20E94DF1380917E028450843093
:1043E000A8F4C1FF05C065E082E10E94670D03C02B
:1043F00085E00E942714C2FF05C00E947F09CF916B
:104400000C94391480E2CF910C94DF1366E0809114
:104410007F02909180020E944416CF910C94361432
:104420009091A3029F5F9093A302883059F168F4A2
:104430008430F1F030F48230B9F0C0F48130B9F555
:1044400026C08630C9F0D0F415C08C3021F120F49C
:104450008A3059F1F0F419C08E3019F1F0F08F3034
:1044600011F1803121F51BC00C943B1F0C94CE1E22
:104470000C94D11F0C94642061E005C061E083E0DE
:104480000C94F41D66E080E0FBCF66E0F8CF0C945E
:10449000AA210C9411200C944C200C9430200C94E4
:1044A000CE200C94BA200C944C210C94AE2008958C
:1044B0008FEF8093A20208950F931F93CF93DF9302
:1044C0000E947325C0918102D091820261E08EE743
:1044D00092E00E94E3198C01CE0165E070E00E9439
:1044E000A33C8FE00E94070DEC0140E0BC01C80135
:1044F0000E9488298FE00E94B029CE01DF91CF91E0
:104500001F910F910C945D2581E00C9481250E94F0
:10451000BF09882321F00E9458250C94582A089539
:104520001092B0020C945C22CF93DF930E948722FA
:104530000E94BA09EC018091B002811111C062E0C1
:104540008EE792E00E94E3198C179D0748F481E002
:104550008093B00280918102909182020E946D2529
:104560000E94BF098823D9F164E08EE792E00E949F
:10457000E3198C179D0758F132C08091B10288234E
:1045800089F08AE10E94C708EC018EE792E00E9460
:104590001A1AD195C195D1098C179D071CF48FE982
:1045A00094E017C08091B202811101C00EC08CE16D
:1045B0000E94C708EC018EE792E00E94381A8C171F
:1045C0009D071CF483EA94E004C082E00FC087E9F1
:1045D00094E09093C7028093C60281E007C0809167
:1045E0002A0190912B01029740F6EFCFDF91CF91F6
:1045F00008958093B2026093B10208957093B60259
:104600006093B5029093B4028093B30208950F9320
:104610001F93CF93DF93C091B302D091B402CE0128
:104620000E94C90F8C010E94BA09C817D90738F433
:10463000C801DF91CF911F910F910C94AB0F81E0D6
:10464000DF91CF911F910F9108950F931F93CF93F7
:10465000DF930E940723182F0E94AA25EC010E94D5
:10466000BF09882311F001E001C0012F8091B7023A
:10467000882329F0BE01812F0E94082A01C0812FC2
:10468000882329F081E00E94E22581E00DC001111C
:1046900001C009C0BE01812F0E94272B8C179D07E6
:1046A00011F00E94C62582E0DF91CF911F910F91FA
:1046B00008950E94D4250E94180E1092B70280E13E
:1046C0000C94B02981E00E94E2250C94130EBC01E9
:1046D00080E10E94070D0C94F3280F931F93CF9352
:1046E000DF938C01EB010E94FE22BE0180E10E945B
:1046F000070D40E0BC01C8010E948829CE016AE094
:1047000070E00E94A33CCB01DF91CF911F910F91EC
:104710000C9467230E94180E0E9473258FE00C945E
:10472000B02981E00E9481250C94130E0F931F93F2
:10473000CF93DF931F92CDB7DEB78C018FE0498313
:104740000E94070D4981BC01C8010F90DF91CF91F4
:104750001F910F910C9488290F931F93CF93DF9390
:104760001F92CDB7DEB78C018FE049830E94070D01
:104770004981BC01C8010F90DF91CF911F910F912A
:104780000C949C29BC018FE00E94070D0C94F32827
:104790000F931F93CF93DF93C0914F03D09150039A
:1047A000CE010E94C90F8C010E94BA098C179D0787
:1047B00038F4C801DF91CF911F910F910C948D0FA8
:1047C00081E0DF91CF911F910F9108951F93CF93B7
:1047D000DF930E94C823182F0E945825EC01BC01CA
:1047E000812F0E94082A882329F081E00E948125D8
:1047F00081E01BC00E94BF0981110BC0111109C0CB
:10480000CE010E940D29811104C00EC00E945D25B9
:104810000BC00E94830D811107C0BE01812F0E9431
:10482000272B8C179D0791F782E0DF91CF911F9185
:1048300008950E9491230E9462230C94130ECF933B
:10484000DF931F92CDB7DEB79091B902913039F066
:1048500018F0923081F406C00E94E6230CC00E943A
:10486000252309C00E945E0F823089F089830E944F
:10487000192489810CC0813051F49091B802992398
:1048800031F082E08093B9020E94180E82E00F900E
:10489000DF91CF9108950E94180E8091BA029091F5
:1048A000BB020E94C90F0E94AB0F882329F00E940F
:1048B0008A231092B90208950E94592381E08093BF
:1048C000B7028093B90208958093B80208950F93B8
:1048D0001F93CF93DF93EC018A019093BB028093E7
:1048E000BA0240E00E949623B801CE01DF91CF9139
:1048F0001F910F910C946D230E94D42587E0809323
:10490000A20282E08093A3020E942C3583E0809370
:10491000BD02089581E00E94E2258FEF8093A202FC
:1049200088E00C943335FF920F931F93CF93DF935E
:1049300080E00E945D09FF24F394F8268091BC0278
:10494000882379F00E947F099091850201E09813F5
:1049500001C000E011E0811110E0913021F4112339
:1049600011F010E000E00E947F09811129C011239D
:1049700039F182E10E94C708EC0180E00E94C7087B
:10498000C817D90728F49C012C1B3D0BE90102C074
:10499000C81BD90BC53FD14008F065C011C080913C
:1049A000C802882331F0843021F0853011F0863040
:1049B00039F40E94882181E00E94333510E000E044
:1049C00082E10E945D098823B1F082E10E94C7085C
:1049D000EC0180E00E94C708C817D90728F49C01A1
:1049E0002C1B3D0BE90102C0C81BD90BC53FD140B0
:1049F00010F0FF24F394011102C087E001C083E0AE
:104A00008093A202112329F08091A2028250809308
:104A1000A202FF2029F08091A20281508093A2027D
:104A2000011104C0111102C0FF2011F081E001C08A
:104A300088E00E9433350E94AB11811102C01092B0
:104A4000BD02011108C0111106C0F11004C00E947E
:104A5000AB11883079F08091BD02823011F481E091
:104A60000FC082E00DC080917E028450843008F433
:104A700096CFA6CF8091BD028F5F8093BD02EBCF12
:104A8000DF91CF911F910F91FF9008958093BC0209
:104A9000089581E09091C002911180E0089581E035
:104AA0002091BE023091BF02232B09F480E00895CB
:104AB0008091BE029091BF0208959C01293E8DEF26
:104AC000380710F028EE3DEF3093BF022093BE026E
:104AD000C9010E94B7060C940E0BBC018FE00E9426
:104AE000070D0C945D258091C002882349F080E079
:104AF00090E00E945D2581E00E94D2061092C002E3
:104B00000895CF93C82F8091C00281110BC0CC2390
:104B100049F080E090E00E945D2580E00E94D2068E
:104B2000C093C002CF91089580E090E00E945D257F
:104B300081E00C94812581E09091C502911180E083
:104B4000089581E02091C3023091C402232B09F41F
:104B500080E008958091C3029091C4020895482F87
:104B60008091C1029091C2022091C3023091C4028F
:104B70008217930711F4442341F09093C402809369
:104B8000C3020E947E070C940E0B08959C012130F5
:104B900080E4380710F020E030E43093C202209324
:104BA000C10281E00C94AF258091C502882349F0B1
:104BB00080E090E00E94C62581E00E94C506109228
:104BC000C5020895CF93C82F8091C50281110BC0F3
:104BD000CC2349F080E090E00E94C62580E00E944E
:104BE000C506C093C502CF91089580E090E00E9471
:104BF000C62581E00C94E225089580917E028730DD
:104C000051F0982F9450943048F08150823048F4FD
:104C10002BED32E008C029EC32E005C022ED32E095
:104C200002C024EE32E0C90108958BEB94E090932A
:104C300071028093700290917E02945081E09430D2
:104C400008F080E00E94462561E081EC94E00E943B
:104C5000281091E0813009F090E0892F08950F939A
:104C60001F93CF93DF930E946424009183021091DD
:104C70008402C0918102D091820263E08EE792E0CB
:104C80000E94E319A801BE010E94672485EB94E00D
:104C9000909371028093700260E087EC94E0DF9162
:104CA000CF911F910F910C942810EF92FF920F93C8
:104CB0001F93CF93DF938C01C1E8D2E0E880F980A5
:104CC00061E08EE792E00E94E31940E0B7010E94A4
:104CD000962388819981B8010E94A33CCB010E9450
:104CE000C2238FEA94E0909371028093700260E097
:104CF00084ED94E0DF91CF911F910F91FF90EF90A1
:104D00000C942810CF93DF93C0918102D09182023E
:104D100061E08EE792E00E94E31941E0BE010E944B
:104D200096238FEA94E0909371028093700260E082
:104D300084ED94E0DF91CF910C942810CF93DF9312
:104D4000C0918102D091820261E08EE792E00E94E0
:104D5000E31941E0BE010E94AC238FEA94E09093F6
:104D600071028093700260E084ED94E0DF91CF9156
:104D70000C94281081E020915F0330916003232B75
:104D800009F480E061E00E94F92281E994E09093C7
:104D900071028093700260E081EE94E00C94281020
:104DA00062E08EE792E00E94E319609183027091C5
:104DB0008402E0918502F091860240916F03509148
:104DC0007003E49F9001E59F300DF49F300D112496
:104DD000820F931F0E946D2389EA94E090937102E1
:104DE0008093700260E08DEE94E00C942810CF93D5
:104DF000DF93C0918302D091840262E08EE792E05B
:104E00000E94E319BE010E946D2389EA94E0909309
:104E100071028093700260E08AEF94E0DF91CF919D
:104E20000C9428108CE291E09093710280937002B0
:104E300060E084E095E00C942810CF93C82F809315
:104E4000C8022AE035E03093C7022093C6028E30B4
:104E500030F4E82FF0E0EF54FF4F808101C080E094
:104E6000809361000E948E360E94310B0E941526AD
:104E7000882309F444C084E00E943335C53031F101
:104E800068F4C230B9F128F4CC23B9F0C130A9F5E7
:104E90002EC0C330A9F0C43081F515C0C83009F167
:104EA00028F4C630C1F0C73041F517C0CC3071F0DE
:104EB000CD3049F0C93009F517C08AE090E008C04C
:104EC0000E9412271CC00E94D02619C085E090E0E5
:104ED0000E94552614C080E001C081E00E942F2668
:104EE0000EC00E94BA260BC00E94F72608C00E947E
:104EF000822605C00E949E2602C00E9474210E9444
:104F0000400BCF910C949E360F931F93CF93DF935A
:104F1000EC010E94B7190E94FD258C0160E0C801D8
:104F20000E941A1987FD29C090917E02E82FFF2761
:104F3000E7FDF095973019F4E55FFA4F0FC0892F20
:104F40008450843018F4EE5EFA4F08C091509230CD
:104F500018F4E55EFA4F02C0E05EFA4F84918E309D
:104F600049F4BE018EE792E00E94BB1ACE010E9476
:104F7000C519D1CF0E941D27D1CFDF91CF911F91AD
:104F80000F91089563E275E082ED92E00E942C1883
:104F900067E375E08BED92E00E942C1863E475E006
:104FA00089EC92E00E942C1863E575E084EE92E0B3
:104FB0000C942C18FC01428153814115510589F054
:104FC000A081B181B7FF03C0B195A195B10928EEC9
:104FD00033E00E94753C9A0140E050E00E94B73CEB
:104FE00002C020E030E0C90108950F931F93CF93D2
:104FF000DF9300D000D0CDB7DEB78C01862FF8014B
:10500000628173810E945B0B9C838B83F80180819A
:1050100091819A838983CE0101960E94DA270F90AD
:105020000F900F900F90DF91CF911F910F910895E6
:105030000F93FC01CA01002341F06417750708F4BF
:10504000CB014617570748F409C04617570708F41D
:10505000CB016417750708F401C0BA0197838683F2
:105060009183808313821282158214823387228770
:10507000681B790B718760870F910895FC019B0174
:1050800040E050E086819781281B390B4109510986
:10509000A285B3850E947C3C20853185442737FD5D
:1050A0004095542F0E94D93C2115310581E04807D5
:1050B00051051CF457FD04C005C02FEF3FEF02C09F
:1050C00020E030E0C9010895DF92EF92FF920F9344
:1050D0001F93CF93DF93EC012A813B81241735077F
:1050E00020F4FA01E21BF30B03C0F901E41BF50BFA
:1050F0008C819D81969587958E179F0788F588816D
:1051000099818617970720F4FB01E81BF90B03C070
:10511000FC01E61BF70BEF2BF9F422C08A01021BFE
:10512000130B7B01E81AF90A06C07C01E61AF70A9C
:105130008901041B150BC7010E94102CD82E8885ED
:1051400099850E94102CD8120BC01D830C83F98600
:10515000E8861B870A8704C024173507F8F2E5CFD5
:10516000DF91CF911F910F91FF90EF90DF90089505
:105170000F931F93CF93DF93EC018B019A01A885C6
:10518000B9850E94753C2A853B8540E050E00E942D
:10519000D93CC801A0E0B0E082179307A407B50787
:1051A0001CF41F821E8204C0021B130B1F830E837C
:1051B000DF91CF911F910F910895EF92FF920F937E
:1051C0001F93CF93DF93EC018B017A010E94642837
:1051D000A701B801CE01DF91CF911F910F91FF90F0
:1051E000EF900C94B828909356038093550308953C
:1051F0008091EF02813029F42091550330915603BC
:1052000002C020E030E0C90108956091510370911F
:1052100052038091F1020C945B0B2091F402213037
:1052200041F041E0209155033091560382179307D6
:1052300008F040E0842F08952CE0829FC0011124E3
:105240006091F10283509D4F0C94F5276091F1021B
:1052500085E493E00C94F5270F931F93CF93DF938E
:1052600000D000D0CDB7DEB70E944925811126C0FD
:105270000E949B25811122C037C0009162001091CD
:105280006300CE0101960E94DA278017910740F44F
:10529000CE0101960E94DA2790936300809362000A
:1052A00020916200309163002F3F8FEF380709F49F
:1052B00021C030934A032093490320C080E00E941C
:1052C000C7089A83898382E10E94C70829813A81AD
:1052D000281B390B3A83298386E10E94C7089C83E7
:1052E0008B83892BE9F2C9CF8FEF9FEF90936300F7
:1052F000809362002091490330914A03C9010F90C5
:105300000F900F900F90DF91CF911F910F91089503
:105310009093500380934F03709352036093510313
:10532000CB016AE070E00E94A33C70935603609347
:1053300055034093F00208959093500380934F03D8
:105340007093520360935103CB0164E170E00E94BB
:10535000A33C70935603609355034093F002089565
:10536000EF92FF920F931F93CF93DF9391E090936F
:10537000EF02FF24F3948F3009F0F12C8093F102B7
:1053800068EC70E00E94070D9093540380935303E0
:105390000E94BA09209155033091560340914F0362
:1053A000509150030F2DBC018DE393E00E9418280B
:1053B0000E94800D8093F20280914F0390915003E0
:1053C0000E94C90FEC0110E08CE0E82E12C0812F82
:1053D0000E94B90DBC012091550330915603E19E06
:1053E000C00111240F2DAE018B509D4F0E94182833
:1053F0001F5F8091F202181750F31092F40210927E
:10540000F302DF91CF911F910F91FF90EF900895DC
:105410000F931F93CF93DF93082FEB018091F0023E
:105420008823C9F0409153035091540320915503B0
:10543000309156032417350708F49A012C173D07BD
:1054400010F410926C028091F402813021F00E94DD
:105450005E0F8093EF028091EF02813019F5809109
:10546000F402823041F411E020915503309156034B
:10547000C217D30708F010E00E94F8288C179D0788
:1054800078F0111103C0011101C00AC09091F3021C
:10549000892F8F5F8093F30281E09A3020F402C05D
:1054A0001092F30280E0DF91CF911F910F91089548
:1054B0000F931F93CF93DF93EC010E94BA09AE01C3
:1054C000BC018DE393E00E94DD2810E00CE00DC0EC
:1054D000812F0E94B90DBC01019FC0011124AE01B2
:1054E0008B509D4F0E94DD281F5F8091F20218179C
:1054F00078F3DF91CF911F910F910895CF92DF92B2
:10550000EF92FF920F931F93CF93DF9360914F031E
:10551000709150038DE393E00E943E28EC0180914E
:105520004F03909150030E94C90F7C01D12C9CE045
:10553000C92E12C0CD9C800111240B501D4FB70104
:10554000C8010E943E28C817D90728F0B701C80132
:105550000E943E28EC01D3948091F202D81650F3B9
:10556000CE01DF91CF911F910F91FF90EF90DF90CF
:10557000CF9008950F931F93CF93DF938B01809368
:105580004D0390934E032091510330915203EC014F
:105590002817390708F4E9010E94F8289C018C17A4
:1055A0009D0708F49E010217130719F18091F40278
:1055B0008230A9F42017310790F080915503909123
:1055C000560380179107A0F040914B0350914C0374
:1055D0008091490290914A024817590749F08091F9
:1055E000490290914A0290934C0380934B0301C06F
:1055F0009801C901DF91CF911F910F9108950F93E9
:105600001F93CF93DF93EC010E94BA0990933E035E
:1056100080933D03D0934003C0933F0310E00CE020
:105620000DC0812F0E94B90D019FF0011124EB5094
:10563000FD4F91838083D383C2831F5F8091F202E9
:10564000181778F3DF91CF911F910F9108951F9351
:10565000CF93DF93182FEB01CB010E94582ACE0184
:105660000E94FF2A0E947E2A9093EE028093ED0210
:10567000BE010E94BA2A9C018091F402811110C0DF
:10568000112389F08091F002882321F00E940C0EF2
:1056900010926C0281E08093F40220E030E003C0BD
:1056A00082E08093F402C901DF91CF911F910895A8
:1056B0000F931F93009157031091580320915903A2
:1056C00030915A03B801C9011F910F91089512BE7C
:1056D0008DE78CBF88E083BF83B7836083BF89B7C2
:1056E000826089BF08958091570390915803A091DB
:1056F0005903B0915A030196A11DB11D8093570320
:1057000090935803A0935903B0935A0308950E94AD
:10571000732B0E940C360E940E2D0E94280580914A
:105720006400815019F080936400089581EE8093A5
:1057300064000E94FC250E948D090C948A1F1F9210
:105740000F920FB60F9211242F933F934F935F93B5
:105750006F937F938F939F93AF93BF93EF93FF9339
:105760000E94872BFF91EF91BF91AF919F918F91F5
:105770007F916F915F914F913F912F910F900FBE4D
:105780000F901F9018950F931F938FB7F894009167
:105790005703109158032091590330915A038FBF3A
:1057A0003695279517950795B801C9011F910F9157
:1057B0000895CF92DF92EF92FF92CF93DF93EC01A7
:1057C0000E94C32B6B017C01CC0EDD1EE11CF11C81
:1057D0000E94C32B6C157D058E059F05C8F3DF91D4
:1057E000CF91FF90EF90DF90CF9008959C0180E0E3
:1057F00001C08F5FF901459154912E5F3F4F452BBA
:10580000C1F7089521E030E09AE006C0A901949F15
:105810009001959F300D11248150C0F7C901089562
:1058200097FD02C081E008958FEF0895CF92DF9237
:10583000EF92FF92CF939B01AC0161157105810539
:10584000910521F421E030E040E050E0C0E08AE042
:10585000C82ED12CE12CF12CCF5FCA01B901A701D0
:1058600096010E94B73C2115310541055105A1F76C
:105870008C2FCF91FF90EF90DF90CF900895BC01D7
:1058800080E090E00C94162CFC0180819181860FC1
:10589000971F97FF03C0118210820895242F30E0D4
:1058A000281739071CF4408311820895918380835F
:1058B0000895FC0180819181860F971F18161906A3
:1058C0001CF081E090E008C0242F30E02817390751
:1058D0001CF4408311820895918380830895FC0114
:1058E00077FD04C06115710521F405C066EF7FEFF7
:1058F00002C06AE070E020813181260F371F37FF38
:1059000003C01182108208954217530718F451837F
:1059100040830895318320830895AF92BF92DF9230
:10592000EF92FF920F931F93CF93DF931F92CDB708
:10593000DEB75C018A01DD24D394161617060CF03D
:10594000D12CF501E080F180B70180E090E029835F
:105950000E94162C2981211107C0823040F082500C
:105960000E94022C9C0105C024E630E002C021E028
:1059700030E0C701B9010E94A33C009739F0DD2057
:1059800019F0281B390B04C09C010FC0DD2069F001
:10599000C801821B930BE816F90618F489010E0D55
:1059A0001F1DF501118300830BC02E153F0518F450
:1059B000E21AF30A02C0E12CF12CF501F182E08237
:1059C0000F90DF91CF911F910F91FF90EF90DF909B
:1059D000BF90AF9008950E94D8118111FCCF0E9412
:1059E000D8118823E1F30895FC01208127FD05C02B
:1059F000818186958F5F8170089580E00895FC0114
:105A0000208127FD09C08181982F91509695282FDC
:105A1000269581E0921301C080E0089508950895CD
:105A20006CE87EE680E00E94070D90935C03809313
:105A30005B030895CF93DF9380E00E94D00820910C
:105A40005B0330915C032817390718F486ED95E065
:105A500043C086E00E94C708EC0186E00E945D0911
:105A6000882309F43FC080916D0390916E03C8179D
:105A7000D90780F137C08C179D0718F487EE95E0A1
:105A80002BC00E94C11FEC018EE792E00E94161A03
:105A9000883E934050F48EE792E00E94161AC81791
:105AA000D90718F080EF95E017C080915F039091BF
:105AB0006003892B11F482E023C087E00E94C708AD
:105AC000209161033091620328173907A0F789EF0D
:105AD00095E002C08FED95E09093C7028093C602D7
