:100000000C9495040C94BD040C94BD040C94BD0494
:100010000C94BD040C94BD040C94BD040C94BD045C
:100020000C94BD040C94B0050C94792A0C94E4391A
:100030000C94BD040C94A1370C94DF370C94BD04D0
:100040000C94BD040C94BD040C94BD040C94BD042C
:100050000C94BD040000000040D5066200000000C2
:10006000F567E6307A013200A42AE803B71B3200B4
:100070003EA82C010000000000000000000000006D
:1000800000000000000000008DBBD636C24CA40B5F
:100090000C4970170000000043BFA80E00000000CC
:1000A00015D65110000000009BD9C82000000000A8
:1000B000CAD863100000000007D8571000000000E5
:1000C00040D85F1000000000A5CF58107C0132001E
:1000D000A82AE803320A3200EA3D2C010006080093
:1000E00001FF010100000106090001FF03020100F8
:1000F00002060A0001FF0000000006060E0000FFD5
:100100000302010005060D0000FF020300000406C3
:100110000C0000FF0302010003060B0000FF0406B1
:1001200000000706070000FF03020100090E040E8D
:100130004F0F2020436865616C6943686172676591
:100140007200202020207665723A20302E33326DE6
:1001500000550100006F7074696F6E73000100013B
:10016000000100010001000A006400010002000417
:100170000010004000000100040100030008000717
:1001800000070014000700496E66007965730020BF
:100190006E6F006D56005802600265026A026E02C0
:1001A000730278027D0201000100010001000000DD
:1001B0000100B0041C075203000008071405B00436
:1001C0004006E803000008071405D0079209D60688
:1001D000000000006C07E40C100ED007E40C0000D7
:1001E000B80B100E0410C409A60E0000AC0D740E5E
:1001F0006810B80B0A0F0000890C40066C07140544
:1002000040060000DC0500980898086C07102701DC
:10021000980898086C07010002980898086C070174
:1002200000039808DC006C07060004980898086C26
:1002300007030005980898086C07030006980898BB
:10024000086C07030007980898086C070300756E90
:100250006C696D6974656400556E6B6E6F776E00C6
:100260004E694364004E694D480050623F004C693E
:100270006665004C696C6F004C69706F004E695A7E
:100280006E00A302AA02AF02B402B902BE02CC02FF
:10029000000045646974206E616D653A004E616DC1
:1002A000653A004261743A202000563A202000430B
:1002B000683A200049633A200049643A200020202F
:1002C000637265617465206E616D65002020206534
:1002D000646974206E616D65004368434253424215
:1002E0006C446946435374534243684469437943B9
:1002F000594368446945420020202D2D2020006E7E
:100300002E612E004C696D6974733A200074696D1A
:10031000653A202020202000622000202000626119
:1003200074742E20523D00776972657320523D002F
:1003300056696E7075743D00206C696D69743D007E
:10034000566F7574203D005662616C2E3D005465F9
:1003500078743D002D0070726F6772616D20636F5D
:100360006D706C6574650054696D653A20202020BD
:1003700000726561736F6E3A20006D6F6E69746F05
:1003800072206572726F72006E6F7420757365648F
:10039000006D6178566F75743D0064656C74612002
:1003A000563D200020002020002500546578743D33
:1003B000006E6F7420757365640064656C746120F1
:1003C000543D200046756E6374696F6E206E6F74C5
:1003D00000696D706C656D656E7465642079657417
:1003E00000706C656173652063616C696272617431
:1003F00065006265666F72652075736500524556CB
:100400004552534520504F4C4152495459002020E9
:1004100020205741524E494E4720202020200042A4
:10042000616C616E636572206E6F742E636F6E0017
:100430002020686F6C6420627574746F6E202020B9
:100440000020746F2053746172742F73746F702066
:100450002000202043616C6962726174696F6E20B4
:1004600020200020202020204552524F52202020C2
:100470002020200046554C2000252000A221962156
:10048000A62156206C696D6974002D645600645471
:100490002F6474006B22742237229C22A322F8223C
:1004A0005D232B2331238E239C23A5230106070DD7
:1004B000050002060708090B0C0D040503000210D5
:1004C000060708090B0C0D0405030002100A0E0FA5
:1004D0000B0C0D040503000210060708090B0C0D98
:1004E0000405030002100F0B0C0D040503000607A2
:1004F000040D0500000001020304050E00010203C3
:10050000040506070E08090A0B0E0C0D0E45054CD6
:10051000055B056A0572057C05880590059F050049
:100520000045057205AC05B6059F05000045054C64
:10053000055B056A0572057C059F0500004505728F
:10054000059F0500006368617267650063686172FA
:1005500067652B62616C616E6365007375706572AF
:100560006368617267652B622E0062616C616E6305
:1005700065006469736368617267650066617374BE
:10058000206368617267650073746F7261676500EC
:1005900073746F726167652B62616C616E63006575
:1005A000646974206261747465727900633E6420CA
:1005B0006379636C6500643E63206379636C6500F6
:1005C000626174206469736300696E70757420568B
:1005D0000063617020434F464600657874205443A1
:1005E0004F4600436F6E6E6563742042617474659C
:1005F000727921005C0665066E06000008090A088B
:10060000090A77067D06830689068F0695069B06EE
:10061000A106A7060000061E1F20212223120006A5
:10062000090A0B0C0D0E76616C75653A2000496F56
:1006300075743A202000AD06B2060000AD06B9067A
:100640000000BF06C6060000CD06D6060000DF0685
:10065000E706F006FC060807140700005662307033
:10066000696E3A200056623170696E3A2000566217
:100670003270696E3A200056696E3A200056623137
:100680003A20005662323A20005662333A20005631
:1006900062343A20005662353A20005662363A20DB
:1006A0000056312D363A00566F75743A0035306D6C
:1006B0004100313030306D41003330306D410074D5
:1006C000656D703A200076616C75653A00706F69EF
:1006D0006E7420312E00706F696E7420322E007699
:1006E0006F6C7461676500492063686172676500BB
:1006F00049206469736368617267650074656D7031
:100700002065787465726E0063616C69622D3E5578
:10071000415254006578706572742044414E4745DB
:100720005221002B0734073E07000073657474697B
:100730006E67730063616C696272617465007265F3
:100740007365742064656661756C740080250000B3
:10075000004B00000096000000E1000000C2010014
:1007600000007017640007000C0005007800581B9B
:100770000000080000000300A207AE07B907C00789
:10078000CA07D407E007EA07F507FE0708080F08BD
:1007900017080000432F6D0020082908300836088C
:1007A0003F08657874726E20543A202020006578E6
:1007B00074726E2054434F3A0064542F64743A00AC
:1007C0004E694D48202D64563A004E694364202DF1
:1007D00064563A00432F44206379636C65733A0092
:1007E00063617020434F66663A00696E70757420CD
:1007F0006C6F773A006469736368202B3A0062611A
:100800006C2E206572723A00554152543A200073A2
:10081000706565643A20002020207265736574005D
:1008200064697361626C6564006E6F726D616C0007
:100830006465627567006578742E20646562006582
:1008400078742E20416463001316181719070506E3
:100850001E1F202122237265736574696E672065EF
:100860006570726F6D3A00763A2039392E39392E1B
:1008700039392000630064007300000000000000AC
:10088000000000000000000403000500000000005C
:100890000000000000000000000000000000000058
:1008A0000000000001000000204080000000000067
:1008B00001020408102040800000010204081020FA
:1008C0004080000000804020100804020100000168
:1008D00002040810000202020000000000040404E8
:1008E00004040404040000030303030303030300DC
:1008F00000000101010101010101000002020202E8
:10090000020000390036003300300000003B0038A0
:10091000003500320000003A00370034003100009A
:100920009D05BB106A21D426D13811241FBECFE506
:10093000D8E0DEBFCDBF10E0A0E6B0E0E4E1F8E72C
:1009400002C005900D92AE3EB107D9F714E0AEEEAD
:10095000B0E001C01D92A93AB107E1F719E0CAE27F
:10096000D9E004C02297FE010E948F3BC032D1071C
:10097000C9F70E948D390C94083C0C940000CF9369
:1009800088E20E94D83AC1E0892B09F0C0E089E2F0
:100990000E94D83A892B11F080E001C082E0C82B78
:1009A0008AE20E94D83A892B11F080E001C084E0ED
:1009B000C82B8BE20E94D83A892B11F080E001C04D
:1009C00088E08C2BCF910895CF93C82F682F89E1B1
:1009D0000E94693A6C2F8AE10E94693A6C2F80E28A
:1009E0000E94693A6C2F89E00E94693A6C2F8BE073
:1009F0000E94693A6C2F80E1CF910C94693ACF93B1
:100A0000DF93EC0111C061E08CE20E94A13A8CE816
:100A100090E00E942E3A60E08CE20E94A13A88E2C7
:100A200090E00E942E3A2197209769F7DF91CF91AD
:100A30000895089580910301882331F08091040185
:100A40008F5F8093040102C0109204018091030122
:100A50008A3010F480E001C088E090910301943165
:100A600008F084E0909103019E3108F082E06091EB
:100A7000040168238CE20C94A13A80930301089549
:100A800061E068278CE00C94A13A80E00E94E13993
:100A900061E08CE00E94693A61E08EE00E94693A70
:100AA00061E08EE10E94693A61E08CE20E94693A5D
:100AB00061E08DE00E94693A61E08EE00E94693A4F
:100AC00061E08FE00E94693A80E00E944005109248
:100AD000030120E042E060E18EEE90E00E943517D5
:100AE0000E94412A0E94A6240E9407250E942006F7
:100AF0000E94EC070C94560DCF93C82F682F61709D
:100B000089E10E94A13A6C2F62708AE10E94A13AA9
:100B10006C2F647080E20E94A13A6C2F687089E0AB
:100B20000E94A13A6C2F60718BE00E94A13A6C2F59
:100B3000607280E1CF910C94A13ACF92EF920F9323
:100B400083E1C82E94E1E92E05E126E147E168E161
:100B50008EEE90E00E94E9170F91EF90CF900895EC
:100B60001F920F920FB60F9211242F933F934F9322
:100B70005F936F937F938F939F93AF93BF93EF9305
:100B8000FF93209108013091090180910601909115
:100B90000701820F931F90930701809306018091B4
:100BA00006019091070126E0969587952A95E1F731
:100BB0002091060130910701AC0166E0440F551FFA
:100BC0006A95E1F7241B350B30930701209306014A
:100BD0002FB7F894309105013E3011F49BBD8ABDCA
:100BE000309105013D3021F02FBF0E941A0503C04E
:100BF00099BD88BDF9CFFF91EF91BF91AF919F91C2
:100C00008F917F916F915F914F913F912F910F90B5
:100C10000FBE0F901F9018959FB7F894709309011D
:100C200060930801809305018E3019F48FB58068B8
:100C300004C08D3019F48FB580628FBD9FBF0895B9
:100C40001FBC80E18EBD2FB7F89480E091E097BD86
:100C500086BD2FBF8EB5887F8EBD8EB581608EBD5F
:100C600089B7846089BF08958E3019F48FB58F7766
:100C700004C08D3019F48FB58F7D8FBD08954091DC
:100C80000B0150910C0160910D0170910E01452FE7
:100C9000562F672F772767FD7A95CA01089510921E
:100CA0001201109211018617970768F480E090E412
:100CB000A0E0B0E080930B0190930C01A0930D0194
:100CC000B0930E0108C010920B0110920C0110920B
:100CD0000D0110920E0180910B0190910C01A091D9
:100CE0000D01B0910E01BA2FA92F982F882780935C
:100CF0000B0190930C01A0930D01B0930E0181E0C4
:100D000080930A010895CF93DF93EC01C13080E610
:100D1000D80770F4C13080E4D80760F48EE00E94F8
:100D2000340660E08EE00E94A13ABE018DE00CC066
:100D3000C0E0D0E68DE00E94340661E08DE00E94C4
:100D4000A13ABE0170548EE0DF91CF910C940C0655
:100D500090931201809311016CEB76E680E00E9483
:100D6000F80C9093100180930F010895CF93C82F32
:100D7000882319F080E00E94C30661E06C278EE1B1
:100D8000CF910C94A13ACF93DF93C82F882319F009
:100D900080E00E94B6068DE00E94340660E08DE09F
:100DA0000E94A13A8EE00E94340660E08EE00E942C
:100DB000A13A10920A0161E06C278FE00E94A13AEB
:100DC000CC2361F080E00E94B808EC0186E00E942C
:100DD000B808BE01DF91CF910C944F06DF91CF91FF
:100DE00008950F931F9380910A01882309F474C01A
:100DF00080E00E94C10820910F0130911001281756
:100E0000390730F480E00E94C30610920A0164C0E2
:100E100082E00E94C108409111015091120160E0EE
:100E200070E000910B0110910C0120910D013091A7
:100E30000E01481B590B61097109E4E0440F551F6D
:100E4000661F771FEA95D1F7040F151F261F371F5E
:100E500000930B0110930C0120930D0130930E01B0
:100E600080910B0190910C01A0910D01B0910E01A8
:100E7000B7FF08C010920B0110920C0110920D01E7
:100E800010920E0180910B0190910C01A0910D0127
:100E9000B0910E010197A046B10560F080E090E0AE
:100EA000A0E6B0E080930B0190930C01A0930D019C
:100EB000B0930E0180910B0190910C01A0910D0156
:100EC000B0910E01892F9A2FAB2FBB27A7FDBA95A2
:100ED0001F910F910C9483061F910F910895BC01EF
:100EE0008EE00C940C068770806287B90895CF93CA
:100EF000DF9390916000891721F180936000C8B35F
:100F000090E2899F90011124CF71C22B98B3E6EC37
:100F1000F8E0E4912AB3DE2FD095D2232AB3815092
:100F2000823050F0892F8F71806C88BBE22BEABB36
:100F30008AE090E00E942E3A8FB7F894C8BBDABBE3
:100F40008FBFDF91CF91089595E0899FF001112423
:100F5000E052FF4FE49181E0E11101C080E008958B
:100F600095E0899FF0011124E152FF4FE49181E067
:100F7000E11101C080E0089524B135B195E0899F69
:100F8000F0011124E252FF4FE491F0E0EE0FFF1F59
:100F9000E454FE4F932F80E0822B91838083089549
:100FA00010921301EDEDF0E084910E947307ECEDD7
:100FB000F0E084910C947707369A08950E946A2491
:100FC0009093DB018093DA010E94BC249093DD01B1
:100FD0008093DC010C94C40C60E08FE10E94A13A84
:100FE00060E08FE10E94693A61E081E00E94693A25
:100FF00061E082E00E94693A61E083E00E94693A20
:1010000087E886B90C94D007CF93DF93D091130172
:101010008D2F0E94A407882321F0C0914402C17043
:1010200001C0C0E085E0D89FF0011124E452FF4FD9
:101030008491C11109C02091630330916403232B73
:1010400021F0873011F4C1E085E00E947707E0913C
:101050001301EF5F85E0E89FF0011124E352FF4F99
:1010600084910E9473078CE390E00E942E3A0E94C4
:10107000DC073699FECFD09113018D2F8F5F0E9430
:10108000BC0785E0D89FF0011124E352FF4F849103
:101090000E9473078CE390E00E942E3A0E94DC07C6
:1010A0003699FECFC11104C0809113010E94BC0784
:1010B000809113018F5F0E94B00781110E94F10699
:1010C000809113018E5F803118F48093130102C068
:1010D000109213010E94CA08882341F080911301E5
:1010E000811104C0DF91CF910C94DE07DF91CF9185
:1010F00008950C94D007CF93DF930E94B80AC09153
:101100002A01D0912B0102C00E94040880912A017B
:1011100090912B01C817D907B9F3DF91CF910895AA
:10112000CF92DF92EF92FF92CF93DF93EC010E9478
:101130009D2A6B017C01CC0EDD1EE11CF11C0E947E
:1011400004080E949D2A6C157D058E059F05B8F345
:10115000DF91CF91FF90EF90DF90CF900895E82F2F
:10116000F0E0EE0FFF1FE252FE4F80819181089563
:10117000E82FF0E0EE0FFF1FEC58FE4F80819181C9
:101180000895E82FF0E0EE0FFF1FE454FE4F80813A
:101190009181089580914602089580912A0190914D
:1011A0002B010895E82FF0E0EE0FFF1FE45DFE4FE6
:1011B000808191810895613110F4423040F021E046
:1011C00030E0FC0133832283318320830895242F70
:1011D00030E0260F311D260F311D220F331F220F45
:1011E000331F2E5F3F4F44E050E0B9010C94C33BE6
:1011F000282FCA01213188F4623078F470E0620F40
:10120000711D620F711D660F771F660F771F6E5F6E
:101210007F4F44E050E00C94E13B0895FF920F9320
:101220001F93CF93DF9300D000D0CDB7DEB7F12C62
:1012300088E0F89E80011124F801EC5AFF4F459197
:1012400055916591749149835A836B837C83AE0178
:101250004F5F5F4F60E08F2D0E94F808F801E85A59
:10126000FF4F459155916591749149835A836B83E2
:101270007C83AE014F5F5F4F61E08F2D0E94F808C5
:10128000F39481E1F812D4CF0F900F900F900F904C
:10129000DF91CF911F910F91FF900895E82FF0E01B
:1012A000EE0FFF1FEC58FE4F20813181E82FE250F6
:1012B000E83170F4F0E0E359FF4F8081882319F0A2
:1012C000813061F405C081E02333310540F404C06E
:1012D00081E0293E334018F480E0089581E00895CC
:1012E000CF93C0E08C2F825E0E944E09882319F0B4
:1012F000CF5FC630B9F78C2FCF9108952091A00110
:101300003091A1018091140190911501A0911601D5
:10131000B0911701820F931FA11DB11D809314017D
:1013200090931501A0931601B09317010895609151
:1013300014017091150180911601909117012DE70C
:1013400030E040E050E00E944F3B7727652F542F5C
:10135000432FCA010895EAE9F1E08081918108955F
:101360008091520190915301039750F08091580160
:1013700090915901039720F083E090E00C94810E46
:1013800080E0089590E0880F991FFC01EC58FE4F13
:10139000208131816217730718F4261B370B04C0B4
:1013A000AB01421B530B9A01FC01E45DFE4F273059
:1013B000310518F01182108206C0208131812F5F23
:1013C0003F4F31832083FC01EC58FE4F71836083D3
:1013D0000895CF92DF92EF92FF920F931F93CF93D6
:1013E000DF93C0917401D091750160918401709177
:1013F000850180918601909187016817790728F40B
:101400009C01261B370BB90102C0681B790B8EE1CA
:101410000E94C209609186017091870180918801C4
:10142000909189016817790728F49C01261B370BD6
:10143000B90102C0681B790B8FE10E94C20960915B
:101440008A0170918B0180E20E94C20960918C0137
:1014500070918D0181E20E94C20960918E017091AC
:101460008F0182E20E94C209609190017091910106
:1014700083E20E94C2090E947009F82E80E000E019
:1014800010E00CC0E82FE25EF0E0EE0FFF1FEC581A
:10149000FE4F20813181020F131F8F5F8F11F2CF1A
:1014A000B80182E10E94C2090115110549F00C172B
:1014B0001D0748F49E01201B310B293E334018F0D4
:1014C00010E0F12C02C0E80112E1BE0183E10E94AC
:1014D000C2096F2D70E085E10E94C209612F70E0A2
:1014E00084E10E94C2090E9497098C010E94AD24E8
:1014F000882329F0E0907A01F0907B010BC00E94D4
:101500005B24882329F0E0907801F090790102C0F3
:10151000E12CF12CB70186E10E94C209B80188E1F3
:101520000E94C2099701DE010E94013B30E1C32EF7
:1015300037E2D32EE12CF12CA70196010E944F3BFC
:10154000B90187E10E94C2099801DE010E94013BB6
:10155000A70196010E944F3BB90189E1DF91CF912C
:101560001F910F91FF90EF90DF90CF900C94C209E4
:10157000109245021092440280E094E0899FF001AD
:101580001124E050FE4F10821182128213828F5F6D
:10159000813199F708951092270110922601109237
:1015A0002201109223011092240110922501109221
:1015B0001E0110921F011092200110922101109221
:1015C00029011092280110921D0110921C010E9405
:1015D0009D2A609318017093190180931A019093CA
:1015E0001B01089580E0E82FF0E0EE0FFF1FE45D9F
:1015F000FE4F118210828F5F8432A9F708950E94F6
:10160000B80A0C94F20A10922B0110922A0110923F
:1016100014011092150110921601109217010E94E8
:1016200079080E94FF0A0E94CB0A80E0E82FF0E0D0
:10163000EE0FFF1FEC58FE4F118210828F5F843235
:10164000A9F708958091460281110AC081E00E94A5
:1016500040050E94030B81E0809346020C947B08B6
:1016600008951092460280E00C9440052091BE013E
:101670003091BF018091BC019091BD018217930709
:1016800018F4281B390B02C020E030E081E0293E2D
:10169000334008F480E008958F929F92AF92BF92FA
:1016A000CF92DF92EF92FF92CF93DF93CDB7DEB769
:1016B00028970FB6F894DEBF0FBECDBFF82E5B01A2
:1016C00040E0682FCE0105960E94DB0841E06F2DB7
:1016D000CE0101960E94DB082B813C8140E050E066
:1016E000CF80D884E12CF12C2C193D094E095F09DB
:1016F000B50180E090E08D809E80A12CB12C68190E
:1017000079098A099B090E941F3B29813A8140E09F
:1017100050E0281939094A095B090E94713B2C0DD8
:101720003D1D4E1D5F1D57FF03C020E030E0A901A5
:10173000C90128960FB6F894DEBF0FBECDBFDF916A
:10174000CF91FF90EF90DF90CF90BF90AF909F90A0
:101750008F9008951F93CF93DF9380912A019091EA
:101760002B01019690932B0180932A0110E0C12F49
:10177000D0E0FE01EE0FFF1FEE0FFF1FE050FE4F07
:10178000209144023091450240E050E06081718137
:10179000828193810E944F3BCC0FDD1FC252DE4FEE
:1017A00039832883B901812F0E944C0BBC01812F02
:1017B0000E94C2091F5F1131D1F60E94E9090E94FF
:1017C0006236DF91CF911F910C94B80A0F931F934B
:1017D000CF93DF93C1E020919C0130919D018091D6
:1017E000220190912301A0912401B0912501223181
:1017F000310531F0C0E02091BC013091BD0104C041
:1018000020919A0130919B01820F931FA11DB11D60
:101810008093220190932301A0932401B09325018A
:101820002091CA013091CB0180911E0190911F013E
:10183000A0912001B0912101820F931FA11DB11D24
:1018400080931E0190931F01A0932001B09321016A
:101850008091260190912701019690932701809312
:1018600026010E949D2A00911801109119012091D2
:101870001A0130911B01601B710B820B930B6136B7
:101880007A4E8105910508F47AC0809128019091E3
:101890002901019690932901809328012091260126
:1018A0003091270140E050E06091220170912301C6
:1018B00080912401909125010E944F3B10922201BA
:1018C000109223011092240110922501C11106C02B
:1018D000B90180E00E944C0B8C0101C08901C091CC
:1018E000AA01D091AB010C171D0720F0B8018BE1C4
:1018F0000E94C209B8016C1B7D0B8AE10E94C209DB
:10190000209126013091270140E050E060911E01B6
:1019100070911F0180912001909121010E944F3B05
:1019200010921E0110921F011092200110922101AD
:10193000B90187E00E944C0B20911C0130911D01E0
:1019400090931D0180931C01BC01621B730B8CE101
:101950000E94C20960912601709127018DE10E94C9
:10196000C20910922701109226010E949D2A6093BD
:1019700018017093190180931A0190931B01DF9154
:10198000CF911F910F91089540E0A42FB0E0FD0189
:10199000EE0FFF1FEE0FFF1FE050FE4FAA0FBB1F01
:1019A000A454BE4F2D913C9180819181A281B3813D
:1019B000820F931FA11DB11D80839183A283B383E6
:1019C0004F5F413111F78091440290914502019699
:1019D00090934502809344020E94E60B809144025A
:1019E000909145028436910511F40C94AA0B089548
:1019F0008F929F92AF92BF92CF92DF92EF92FF921F
:101A0000CF93DF93CDB7DEB728970FB6F894DEBF3C
:101A10000FBECDBFF82E5B0140E0682FCE010596CA
:101A20000E94DB0841E06F2DCE0101960E94DB0889
:101A300029813A8140E050E0CD80DE80E12CF12C1C
:101A40002C193D094E095F09B50180E090E08F80B7
:101A50009884A12CB12C681979098A099B090E94E4
:101A60001F3B2B813C8140E050E0281939094A098D
:101A70005B090E94713B2C0D3D1D4E1D5F1D57FFE4
:101A800003C020E030E0A901C90128960FB6F89400
:101A9000DEBF0FBECDBFDF91CF91FF90EF90DF9003
:101AA000CF90BF90AF909F908F9008950C94030BB0
:101AB000462FE82FF0E0EE0FFF1FEC58FE4F20817D
:101AC00031818250883130F4E82FF0E0E359FF4F44
:101AD000608101C061E0C9010C94E915825E0C943B
:101AE000B80880916D02089580916B02811112C037
:101AF0000E94CA08882381F00E94CD0820914702E5
:101B000030914802821B930B9C0181E02530310506
:101B100020F002C081E0089580E008950F931F93A4
:101B2000CF93DF9310E0CFEFDFEF00E009C0812F0C
:101B30000E946E0D8C179D0710F4EC01012F1F5FA2
:101B400080916D02181798F3802FDF91CF911F912C
:101B50000F910895CF93DF9390916B02911104C080
:101B6000DF91CF910C946E0D90915102C82FD0E06F
:101B7000992391F00E946E0DCC0FDD1FFE01EE5AED
:101B8000FD4FC25ADD4F2081318148815981241B8C
:101B9000350B280F391F07C0FE01EE0FFF1FEE5A4D
:101BA000FD4F20813181C901DF91CF910895CF93FD
:101BB000C82F80916B02882341F0C11106C00E949A
:101BC000CD089093480280934702C0936B020E9415
:101BD0009D2A6093490270934A0280934B0290932E
:101BE0004C020E94F20A80916A02811104C08C2F7B
:101BF000CF910C947C05CF91089580E00E94D70D81
:101C000081E080936A0208950E94FD0D80E00C94AB
:101C1000E404EF92FF920F931F93CF93DF9381E041
:101C20000E94E40485E10E94B80880936D020EE5ED
:101C300012E032E5E32E32E0F32EC0E0D0E00CC03B
:101C40008C2F0E946E0DF801819391938F01F70103
:101C5000819391937F01219680916D0290E0C81746
:101C6000D90774F310926B0210926A0280E00E940E
:101C7000D70D10924802109247021092490210921A
:101C80004A0210924B0210924C02DF91CF911F91A9
:101C90000F91FF90EF900895FF920F931F93CF93B2
:101CA000DF9380916C020E94AA0DEC01F12C01E0FF
:101CB00010E01CC08F2D0E94AA0DAC0180916B0218
:101CC000802321F0C417D50778F40DC0209161035B
:101CD000309162032F5F3F4F369527952C0F3D1FA4
:101CE0002417350708F4102B000FF39480916D0230
:101CF000F81600F3812FDF91CF911F910F91FF9084
:101D000008951F93CF93DF93EC0110E008C0812F5B
:101D1000825E0E94D2088C179D0738F01F5F809169
:101D20006D021817A0F381E001C080E0DF91CF9130
:101D30001F910895BF92CF92DF92EF92FF920F937F
:101D40001F93CF93DF938AE090E00E94810E882357
:101D500009F461C00E948E0D80936C020E946E0D8A
:101D60008C0162E08CE792E00E94C4190817190701
:101D700050F172E5E72E72E0F72EEEE5CE2EE2E0AE
:101D8000DE2EC0E0D0E0BB24B39416C08C2F0E949E
:101D90006E0DF701819391937F01F60181939193E9
:101DA0006F01801B910B2091610330916203281712
:101DB000390708F4B12C219680916D0290E0C81784
:101DC000D90724F302C0BB24B394109251020E949D
:101DD0009D2A60934D0270934E0280934F02909320
:101DE0005002BB2059F0DF91CF911F910F91FF90CE
:101DF000EF90DF90CF90BF900C94FD0D0E944C0EA1
:101E0000DF91CF911F910F91FF90EF90DF90CF90D6
:101E1000BF900C94D70DDF91CF911F910F91FF9040
:101E2000EF90DF90CF90BF900895CF9380915102B3
:101E3000811119C081E08093510280916C020E944F
:101E40006E0DC0E00CC08C2F0E946E0DEC2FF0E0E8
:101E5000EE0FFF1FE25AFD4F91838083CF5F809189
:101E60006D02C81780F3CF9108950F931F930E94BE
:101E70009D2A00914D0210914E0220914F02309107
:101E80005002601B710B820B930B28EE33E040E095
:101E900050E00E944F3BC9011F910F91089583E0CC
:101EA00090E00E94810E8823C9F080916B0281111D
:101EB00003C00E949A0E12C00E94150F0E944C0E81
:101EC00090E08095909520916B0230E082239323DF
:101ED000892B81F40E94350F4F9760F40E94740D96
:101EE000882311F082E0089580916A028823D1F35B
:101EF00081E0089580E00E94D70DF0CF1F93CF932B
:101F0000DF93EC0110E00FC0812F0E946E0D8C1743
:101F10009D0710F081E00CC0812F0E94AA0D8C1744
:101F20009D07C0F71F5F80916D02181768F380E06E
:101F3000DF91CF911F9108951F93CF93DF93EC0111
:101F400010E00FC0812F0E946E0DC817D90710F046
:101F500081E00CC0812F0E94AA0DC817D907C0F7D5
:101F60001F5F80916D02181768F380E0DF91CF91B9
:101F70001F91089560916D02662321F070E00E9428
:101F80003B3B02C060E070E0CB0108950E943B1231
:101F90000E94FA1F0E94B5330E94952B88E00C9492
:101FA000CB330E943B120E94082086E00E94CB3374
:101FB0000E94952B88E00C94CB33E0916E02F09157
:101FC0006F0285919491FC010994E0916E02F09169
:101FD0006F02329685919491FC010994E0916E0212
:101FE000F0916F02349685919491FC010994CF93FE
:101FF000DF931F92CDB7DEB7811107C00E94DB1EB1
:102000000E94E50F0E94D10F0FC0813059F46983FF
:102010000E94DB1E0E94E50F6981611105C00E94CC
:10202000C60F02C081E001C080E00F90DF91CF9128
:102030000895BF92CF92DF92EF92FF920F931F937A
:10204000CF93DF938C01C62E0E94DD0F0E94BD1E30
:102050000E94BA2B0E943B12F12C82E0D82EC0E0E5
:10206000D0E0EE24E3940E94A133811106C0F80170
:10207000EF0DF11D84910E9422210E94C911B82EFA
:1020800084E0B81209C0EF2DF0E03196E00FF11FA7
:10209000E491E11123C005C082E0B81202C0F11042
:1020A000FA94EE2081F00E94C42BD82E6C2D0E9451
:1020B000F70FE82E882339F00E94CD08C817D907FA
:1020C00079F4E11003C0C11016C0E12C81E0B81210
:1020D000CACF0E94DB1E0E94E50F0DC0F394E1CF32
:1020E0000E94CD08EC010E94EE0FD82E6C2D0E94AC
:1020F000F70FE82EE6CF8D2DDF91CF911F910F9135
:10210000FF90EF90DF90CF90BF900895FC01248165
:102110002052621710F40C940F18862F90E0821B47
:1021200091090E948A1A6EE00C94791360E080E7AE
:1021300092E00E940B1987FD0AC0811102C00C9425
:10214000FE30992787FD909501970C949626089567
:102150000E9445050E94BD340E944A3162E471E04C
:1021600082E391E00E94DD1F88EE93E00E949008D8
:1021700080E00C94413961E571E080E792E00E94D3
:102180001D1889E890E09093710280937002E4E753
:10219000F2E08081805E80830895CF93DF93EC012D
:1021A0000E9433128B819C810E9476130E94371209
:1021B0006A8188819981DF91CF910C941213FC017F
:1021C00087818F3118F48F5F8783089586818F5FB1
:1021D00086830895FC018781882319F081508783C5
:1021E000089586818150868308951F93CF93DF934E
:1021F000FC01C681D0E06D2F80E00E942D121C2FC3
:10220000105F8C2FCF5F0E94D0138C2FC113FACF99
:10221000DF5FD23081F7DF91CF911F9108951F9337
:10222000CF93DF93EC018EEE90E00E94EA161FEF51
:102230008E81181721F0CE010E94F5101E818F812A
:10224000682F70E094E0759567959A95E1F78F7027
:102250000E942D120E94C911823049F0843019F079
:10226000813049F413C0CE010E94DF10E1CFCE01CE
:102270000E94EA10DDCF8830D9F68D81E881F9819E
:10228000E80FF11D8F819E81890F8083DF91CF91AF
:102290001F910895FC0171836083428334832383FB
:1022A000158280E2868317820895CF93DF93EC0135
:1022B0008EEE90E00E94EA160E943B12CE010E9430
:1022C000CD1061E08D810E942D120E94C9118230D3
:1022D000B1F0843041F08130C1F48EEE90E00E9484
:1022E000F21680E026C04D81242F30E08A8190E0F4
:1022F0000197281739072CF74F5F4D83E2CF8D8167
:102300008823F9F281508D83DCCF8830D1F682E0CA
:102310000E941C12823048F083E00E94CB338EEE84
:1023200090E00E94F21681E004C0CE010E940F11DD
:10233000C3CFDF91CF9108950C94BF04E0917A024E
:10234000F0E0EE0FFF1FE35AFE4F25913491C901D3
:102350000895CF93DF93D82F0E94BF0407C082E374
:1023600090E00E9490080E94BF04DC2FC82F8D13BC
:10237000F6CF10927A021092790280937B02882322
:1023800019F080E00E94D73380917B02DF91CF91DA
:102390000895FF920F931F93CF93DF93C0E0D0E097
:1023A000F12C0AEF10E015C00E94BF04F82E81E066
:1023B00090E00E94900880917B02F81202C0219662
:1023C00008C08F2DDF91CF911F910F91FF900C943A
:1023D000A91140917A02242F30E0220F331FF90116
:1023E000E559FE4F65917491C8010E943B3B6F5FB8
:1023F0007F4FC617D707C0F2FF20B1F05091790286
:102400005F5F50937902F901E758FE4F85919491EF
:10241000252F30E02817390738F0463018F44F5F81
:1024200040937A021092790280917B02DF91CF91E2
:102430001F910F91FF900895CF93DF93D82FC091F4
:102440007B020E94C91190917A029D1711F08C179E
:10245000C1F3892FDF91CF910895462F682F8EEE1B
:1024600090E00C94011760E080E00C942D1261E084
:1024700080E00C942D128EEE90E00C942E17CF93EA
:10248000DF93FC01DB018C91882389F0C081D1812D
:102490004883808191810196918380838C918150C2
:1024A0008C93882321F00190F081E02D1082DF9140
:1024B000CF910895BF92CF92DF92EF92FF920F9348
:1024C0001F93CF93DF93EC018B017A0141155105E6
:1024D00001F1CA010E949C3BF8019081B82E981727
:1024E00008F4B92ECB2CD12CA601B7018881998193
:1024F0000E94A53B288139812C0D3D1D39832883FD
:10250000F80180818B198083882319F0E881F98193
:102510001082DF91CF911F910F91FF90EF90DF908C
:10252000CF90BF900895EF92FF921F93CF93DF93C8
:1025300000D000D0CDB7DEB77C01CA014B835C83ED
:1025400069837A830E94192B182F69817A81DB01B4
:102550008C914B815C81811768F44FE3C7010F9028
:102560000F900F900F90DF91CF911F91FF90EF9000
:102570000C943F12F70120813181210F311D3183ED
:102580002083DB018C91811B8C93882321F00190A7
:10259000F081E02D1082F9012AE030E00CC0CA0180
:1025A000B9010E943B3B405DBAE06B9F401911248A
:1025B00042931150AB011111F2CF0F900F900F9079
:1025C0000F90DF91CF911F91FF90EF9008950F939F
:1025D0001F93CF93DF93CDB7DEB72B970FB6F89449
:1025E000DEBF0FBECDBF8E010F5F1F4F1A87098759
:1025F00027E02B87AC01BE01655F7F4FCE010996B6
:102600000E949312B8018EEE90E00E94D8392B966A
:102610000FB6F894DEBF0FBECDBFDF91CF911F91F3
:102620000F9108951F93CF93DF93CDB7DEB76197D6
:102630000FB6F894DEBF0FBECDBF0097D1F0162FB6
:10264000613108F010E1412F50E0BC01CE0101964C
:102650000E94B43BE1E0F0E0EC0FFD1FE10FF11D43
:102660001082BE016F5F7F4F8EEE90E00E94D839DE
:1026700001C080E061960FB6F894DEBF0FBECDBFFB
:10268000DF91CF911F9108951F93CF93DF93CDB723
:10269000DEB761970FB6F894DEBF0FBECDBF0097CF
:1026A000D1F0162F613108F010E1412F50E0BC014C
:1026B000CE0101960E94A53BE1E0F0E0EC0FFD1F8A
:1026C000E10FF11D1082BE016F5F7F4F8EEE90E033
:1026D0000E94D83901C080E061960FB6F894DEBF41
:1026E0000FBECDBFDF91CF911F91089560E10C9493
:1026F0004413CF92DF92EF92FF920F931F93CF93E9
:10270000DF93CDB7DEB762970FB6F894DEBF0FBE8A
:10271000CDBF009761F1613108F060E17C01CC240C
:10272000C394D12CCC0EDD1E86011CC0C7016A8B60
:102730000E94D33BF80181938F01FFEFEF1AFF0A4C
:102740006A8981110FC0E1E0F0E0EC0FFD1FE60F98
:10275000F11D1082BE016F5F7F4F8EEE90E00E94F0
:10276000D83906C0802F8C19861700F3ECCF80E093
:1027700062960FB6F894DEBF0FBECDBFDF91CF914A
:102780001F910F91FF90EF90DF90CF9008958823D5
:1027900019F08BE891E002C08FE891E00C94761379
:1027A000682F8EEE90E00C94DA39CF93DF931F926E
:1027B000CDB7DEB7682F06C080E269830E94D013D0
:1027C000698161506430C4F787E891E00F90DF9130
:1027D000CF910C9444130F931F93CF93DF93062F45
:1027E000142F64E670E00E943B3BEB0180E20E9404
:1027F000D01380E20E94D013C436D10548F480E2A1
:102800000E94D013CA30D10518F480E20E94D01380
:10281000CE010E94E712802F0E94D013812F0E94C8
:10282000D01380E2DF91CF911F910F910C94D013C0
:10283000CF93DF93D82FC0E004C080E20E94D01372
:10284000CF5FCD13FACF8C2FDF91CF91089580E128
:102850000C9418146AE00E942F3B892F805D0C9421
:10286000D013DF92EF92FF920F931F93CF93DF93DA
:10287000EC01162F16160CF059C064E670E00E94A9
:102880003B3BD62EE72ECB010E94192B082F23E0CD
:10289000F22EF80E04C080E20E94D0131150F116FF
:1028A000D4F3412F552747FD50952F2D332727FD72
:1028B0003095235031094217530754F4812FDF918B
:1028C000CF911F910F91FF90EF90DF900C94D51353
:1028D0008D2D9E2D0E94E712CE0164E670E00E94CD
:1028E0003B3BEC01101B012F015011161CF48EE232
:1028F0000E94D013102F1150101644F4CE016AE03C
:1029000070E00E943B3B862F0E942A14111674F43B
:10291000CE016AE070E00E943B3BDF91CF911F91B6
:102920000F91FF90EF90DF900C942A14DF91CF91DC
:102930001F910F91FF90EF90DF900895CF92DF925B
:10294000EF92FF920F931F93CF93DF93EC01162F1B
:10295000C42E16160CF088C068EE73E00E943B3B54
:10296000D62EE72ECB010E94192BF82E082F0C5FD4
:1029700004C080E20E94D01311500117D4F3101745
:10298000DCF0C11019C0CE010E94192B082F03C022
:1029900080E20E94D01311500117D4F3CE010E949F
:1029A000E7128DE6DF91CF911F910F91FF90EF908D
:1029B000DF90CF900C94D013412F552747FD5095B1
:1029C000202F332727FD3095245031094217530714
:1029D0005CF4812FDF91CF911F910F91FF90EF90C9
:1029E000DF90CF900C94D5138D2D9E2D0E94E71271
:1029F000CE0168EE73E00E943B3BEC011F19012FF2
:102A0000015011161CF48EE20E94D013102F1150A9
:102A1000101644F4CE0164E670E00E943B3B862F22
:102A20000E942A14CE0164E670E00E943B3BEC0158
:102A3000012F015011163CF46AE070E00E943B3B0C
:102A4000862F0E942A1410167CF4CE016AE070E0F2
:102A50000E943B3BDF91CF911F910F91FF90EF9030
:102A6000DF90CF900C942A14DF91CF911F910F919A
:102A7000FF90EF90DF90CF9008956F927F928F92AA
:102A80009F92AF92BF92CF92DF92EF92FF920F93FD
:102A90001F93CF93DF937C01962E742E822E1616F1
:102AA0000CF044C021119A94C7010E94192BC0E078
:102AB000D0E0082F10E0A92CBB24A7FCB09404C0E0
:102AC000872D0E94D0132196692C6C1A6501CC1AAF
:102AD000DD0A0C151D05A4F3882019F08DE20E9473
:102AE000D013C016D1068CF4862DDF91CF911F91A3
:102AF0000F91FF90EF90DF90CF90BF90AF909F909D
:102B00008F907F906F900C94D513C701DF91CF9178
:102B10001F910F91FF90EF90DF90CF90BF90AF90FB
:102B20009F908F907F906F900C94E712DF91CF91E0
:102B30001F910F91FF90EF90DF90CF90BF90AF90DB
:102B40009F908F907F906F90089520E00C943D159A
:102B500040E20C94A515CF93DF936CE370E00E94E4
:102B60003B3B9B01EC0140E363E0C9010E94A515DA
:102B70008AE30E94D01340E362E0CE01DF91CF915F
:102B80000C94A515292F221F2227221F19F0919599
:102B90008195910940E20C943D15161634F461506C
:102BA0000E94311483E40C94D0130895161634F463
:102BB00061500E94A81585E20C94D01308956330EB
:102BC0003CF062500E94A81583E991E00C947613C2
:102BD0000895CF93DF93C62F1416C4F5642F615068
:102BE000C33079F020F4C13091F048F41EC0C530F4
:102BF000D9F078F0C63091F0C730D1F411C040E27E
:102C000001C048E667E5DF91CF910C94EB13D6E560
:102C100010C0642FDF91CF910C94CD15D4EF06C076
:102C20000E94C21585E50EC06150D1E440E002C0AB
:102C3000D5E541E00E949E148D2F0E94D013C5302F
:102C400029F488E6DF91CF910C94D013DF91CF91D6
:102C50000895462F66E00C94E915462F61E00C9428
:102C6000E915462F60E00C94E915462F65E00C94B9
:102C7000E915CF93DF93EC0160E08E810E94A13AC9
:102C800081E090E00E942E3A61E08E810E94A13A9C
:102C900081E090E00E942E3A60E08E810E94A13A8D
:102CA00084E690E0DF91CF910C942E3ACF92DF92A0
:102CB000EF92FF920F931F93CF93DF937C01C0E0BD
:102CC000D0E0C62ED12C87010C0F1D1F61E0F8014A
:102CD00087810E94693AB6010C2E02C075956795EE
:102CE0000A94E2F761707727F80187810E94A13A80
:102CF0002196C430D10539F7C701DF91CF911F91DB
:102D00000F91FF90EF90DF90CF900C943916CF92F7
:102D1000DF92EF92FF920F931F93CF93DF937C018B
:102D2000C0E0D0E0C62ED12C87010C0F1D1F61E042
:102D3000F80187810E94693AB6010C2E02C0759590
:102D400067950A94E2F761707727F80187810E94FE
:102D5000A13A2196C830D10539F7C701DF91CF914B
:102D60001F910F91FF90EF90DF90CF900C94391648
:102D70001F93CF93DF93EC01162F642F8C810E9459
:102D8000A13A8D818F3F19F060E00E94A13A8F85B2
:102D9000612F84FF06C0CE01DF91CF911F910C946B
:102DA000871670E084E0759567958A95E1F7CE0106
:102DB0000E945616612FCE01DF91CF911F910C9486
:102DC000561641E00E94B81681E090E0089540E078
:102DD0000C94B816FC016089262F2160208B696055
:102DE0000C94E716FC0160896E7F608B68600C9420
:102DF000E716FC016089262F2460208B6C600C9400
:102E0000E716CF93DF93CDB7DEB728970FB6F894C8
:102E1000DEBF0FBECDBF28E0E5E6F0E0DE01119693
:102E200001900D922A95E1F7FC012389421710F0D9
:102E3000422F4150FE013196E40FF11DE40FF11DC8
:102E40002081260F2068622F28960FB6F894DEBFE7
:102E50000FBECDBFDF91CF910C94E71661E00E94C9
:102E6000E71680ED97E00C942E3ACF93DF93EC01B8
:102E7000423018F08F8588608F874B8B1C8A222305
:102E800029F0413019F48F8584608F8780E593ECB9
:102E90000E942E3A60E08C810E94A13A60E08E810F
:102EA0000E94A13A8D818F3F19F060E00E94A13A03
:102EB0006F8564FD1DC063E0CE010E94561684E953
:102EC00091E10E942E3A63E0CE010E94561684E9F9
:102ED00091E10E942E3A63E0CE010E94561686E9E7
:102EE00090E00E942E3A62E0CE010E94561616C073
:102EF0006062CE010E94E71684E991E10E942E3AB9
:102F00006F856062CE010E94E71686E990E00E941C
:102F10002E3A6F856062CE010E94E7166F8560626F
:102F2000CE010E94E71684E0888BCE010E94F9163C
:102F3000CE010E942E1782E0898B66E0CE01DF91E0
:102F4000CF910C94E7166F927F928F92AF92CF92AF
:102F5000EF920F931F93CF93DF93CDB7DEB73C0172
:102F6000162F842F5D854E853F859889F3018483D4
:102F700025830683E782C086A1868286538744879D
:102F80003587968761E00E94693AF30185818F3F1A
:102F900019F061E00E94693A61E0F30186810E94C4
:102FA000693A112319F0F301178603C080E1F30198
:102FB000878720E041E060E1C301DF91CF911F915D
:102FC0000F91EF90CF90AF908F907F906F900C9477
:102FD00035178F92AF92CF92EF920F93DC01139639
:102FE0001C921E921297EFE8F0E0ED93FC931F9273
:102FF0001F921F921F928C2CAE2CC02EE22E042FFB
:103000002FEF462F61E00E94A3170F900F900F90B3
:103010000F900F91EF90CF90AF908F900895FC019B
:1030200027818085E22FF82FE60FF11DE60FF11DB5
:1030300025913491C9010C9476130F931F93CF936C
:10304000DF93EC018B01CB010E94D02A682FCE01C7
:103050000E94801887E990E09983888318870F83FE
:10306000DF91CF911F910F910895DF92EF92FF9220
:103070000F931F93CF93DF93EC01F62E69871A8687
:1030800081E08D8382E0D82EEE24E3948E01075FE9
:103090001F4F0E94C911482F823011F0843061F413
:1030A000E881F9810280F381E02D6F2DCE01099531
:1030B000F986DA86ED8204C0813089F0883079F0B3
:1030C000C8010E94A92B8111ED828D81882319F0FE
:1030D000CE010E94AD188A858F5F8A87DACF8FEF85
:1030E000898781E08E838D83483009F080E0DF910D
:1030F000CF911F910F91FF90EF90DF900895089569
:10310000FC018DE990E091838083128213826483B5
:1031100081E0858386830895FC012281211103C00B
:1031200081E082830895438130E0240F311D848142
:1031300090E001972817390714F44F5F43830895EF
:10314000FC018281882319F0815082830895838154
:10315000882311F08150838308951F93CF93DF93C9
:10316000EC0110E0612F80E00E942D1280E20E94AD
:10317000D013E881F9816B81610F0190F081E02D1E
:10318000CE0109950E9427141F5F123059F76A81FA
:1031900080E00E942D128EE30E94D0136A818FE09E
:1031A0000E942D128CE30E94D0131D82DF91CF91DB
:1031B0001F9108950F931F93CF93DF93EC010E940B
:1031C000C911182F0E94A133882321F081E08D833B
:1031D0001FE71BC00B818A81080F123031F01430B9
:1031E00039F4CE010E948C1803C0CE010E94A018B1
:1031F0008B819A81890F081711F081E08D838D8171
:10320000882319F0CE010E94AD18812FDF91CF9154
:103210001F910F910895EF92FF921F93CF93DF9329
:103220001F92CDB7DEB77C0181E0F701858311E005
:10323000C70169830E94DA186981811102C0F70110
:103240001682F7019681911108C0883031F481E02F
:10325000868383819281890F09C0662311F0F7016B
:103260001583813029F79111E3CF8FEF0F90DF9114
:10327000CF911F91FF90EF9008950F931F93CF93DD
:10328000DF93EC018B0150E00E9493124AE3B801F6
:10329000CE01DF91CF911F910F910C943F12EF92CD
:1032A000FF920F931F93CF93DF9300D01F92CDB760
:1032B000DEB78C01462F09969A8389838EE08B8333
:1032C000D801EC91F0E0EE0FFF1FEA56FE4FE590BB
:1032D000F490BE016D5F7F4FCE0101960E943D19B3
:1032E000A701BE016D5F7F4FCE0101960E945A1269
:1032F00040E2BE016D5F7F4FCE0101960E943F12FA
:10330000F80141815281BE016D5F7F4FCE01019670
:103310000E9493124FE2BE016D5F7F4FCE01019676
:103320000E943F12D80117964D915C911897BE01EB
:103330006D5F7F4FCE0101960E9493120F900F9008
:103340000F90DF91CF911F910F91FF90EF90089513
:1033500027E1289FB001299F700D112464577F4FEA
:1033600047E150E08CE792E00C94C33B27E1289FB3
:10337000B001299F700D112464577F4F47E150E041
:103380008CE792E00C94E13BDC01EC91B6E0EB9F22
:10339000F0011124E60FF11DEE0FFF1FEA55FE4F5D
:1033A00025913491C9010895CF93DF93EC010E94D8
:1033B000C4194F815885849F9001859F300D949F3B
:1033C000300D1124C901DF91CF9108950F931F9300
:1033D000FC01A181B28120915B0330915C030E94CA
:1033E000013B24E630E040E050E00E944F3B890181
:1033F0009A01093EFDEF1F072105310520F008EE77
:103400001DEF20E030E0C8011F910F910895FC01ED
:103410002081213029F4209157033091580309C0AD
:10342000223029F4209155033091560302C020E048
:1034300030E0FC0187819085289FA001299F500DD5
:10344000389F500D1124CA010895E3E5F3E080810F
:1034500091810895FC016081F9E06F9FB001112412
:103460006A5F7D4F49E050E00C94933BDC01EC91A6
:10347000F0E0EE0FFF1FEA56FE4F25913491C9018F
:103480000C94441360E170E00C94361ACF93DF93F0
:10349000EC01888160E0811108C0CE010E94D4193E
:1034A00067E00E942D1687E011C0CE010E94D4195A
:1034B00065E00E942D168FE20E94D0138F819885BF
:1034C0000E94E71283E40E94D01388E0DF91CF913D
:1034D000089566E0FC01838194810E94311686E0A4
:1034E000089566E0FC01858196810E94311686E090
:1034F0000895FC0181819281883EFDEF9F0729F4A8
:103500008EE492E00E94761303C067E00E943516B5
:1035100088E0089547E1489F9001499F300D1124AC
:103520002B563F4FC90108950F931F93CF93DF93FD
:10353000CDB7DEB7A4970FB6F894DEBF0FBECDBFF0
:103540008C01AB01BC01CE0101960E94411CCE0151
:1035500001960E94AF1C87E1FE013C96D8010190C4
:103560000D928A95E1F7A4960FB6F894DEBF0FBED0
:10357000CDBFDF91CF911F910F910895FC01208164
:10358000260F283010F4208302C0FC0110820C9416
:103590002A1A0F931F9361E00E94D4199C0140E006
:1035A00050E060E072EC8BEE9BE00E944F3B8901A3
:1035B0009A01093A81E618072105310520F008EA49
:1035C00011E620E030E0C8011F910F9108950F939C
:1035D0001F9361E00E94D4199C0140E050E060E438
:1035E00078E78DE791E00E944F3B89019A0101370E
:1035F00087E118072105310520F000E717E120E0F9
:1036000030E0C8011F910F9108950F931F93CF933E
:10361000DF9300D0CDB7DEB78C0169837A830E9437
:10362000C91AAC0169817A81C80103960F900F9085
:10363000DF91CF911F910F910C94492B0F931F9302
:10364000CF93DF9300D0CDB7DEB78C0169837A8347
:103650000E94E71AAC0169817A81C80105960F9032
:103660000F90DF91CF911F910F910C94492B61E046
:103670000E94C419BC0184ED92E60E943B3BCB0141
:1036800008950F931F93CF93DF9300D0CDB7DEB78C
:103690008C0169837A830E94371BAC0169817A812E
:1036A000C80107960F900F90DF91CF911F910F9156
:1036B0000C94492BCF93DF93EC010E94371B2F8191
:1036C00038858217930710F498878F83CE010E9464
:1036D000C91A2B813C818217930710F49C838B833A
:1036E000CE010E94E71A2D813E818217930710F4C4
:1036F0009E838D83DF91CF910895CF93DF93EC016B
:1037000048EE5DEF01960E94492B89819A819C8346
:103710008B832881233039F49C0136952795369583
:1037200027953C832B839E838D83CE01DF91CF91A0
:103730000C945A1BDF92EF92FF920F931F93CF933B
:10374000DF9300D01F92CDB7DEB749E050E06CE3C5
:1037500072E08CE792E00E94933B8CE792E00E943B
:103760005A1B00E010E05EE0D52E65E8E62E62E030
:10377000F62EDB82FA82E982402F4F5FBE016D5F39
:103780007F4FCE0101960E943D19C8010E94B619D3
:103790000F5F1F4F0032110561F70F900F900F90D0
:1037A000DF91CF911F910F91FF90EF90DF900895DF
:1037B00008950895262F443019F06FEF7FEF02C06F
:1037C00061E070E0223089F028F4222341F02130BA
:1037D000A9F408C0233061F0243081F40CC00B96AA
:1037E0000C94BE1A0B960C94411B0B960C947D1BEB
:1037F0000B960C94051B0B960C941E1B08951F939F
:10380000CF93DF93EC01162F0E940F18CE0109967B
:103810000E949E2B882311F0298501C02FEF3327AA
:1038200027FD3095812F90E02817390729F11230B4
:10383000A9F028F4112341F01130F1F40AC013303B
:1038400091F01430C9F414C0CE010B960E94421AB4
:1038500013C0CE010B960E94461A0EC0CE010B96E5
:103860000E94791A09C0CE010B960E94691A04C001
:10387000CE010B960E94711A80E0DF91CF911F91CB
:103880000895EF92FF920F931F93CF93DF93EC0174
:103890008B017A0162E872E00E941D188FEF898720
:1038A00083EA90E09983888387E1F801DE011B9623
:1038B00001900D928A95E1F7FBA2EAA2DF91CF91E8
:1038C0001F910F91FF90EF9008950F931F93CF9347
:1038D000DF93CDB7DEB728970FB6F894DEBF0FBEE3
:1038E000CDBF8C01BC016C5E7F4F22E932E04EE01F
:1038F00050E0CE0101960E944A11CE0101960E942D
:10390000551181E0F801858328960FB6F894DEBF43
:103910000FBECDBFDF91CF911F910F910895CF932F
:10392000DF93EC016AA17BA16F5F7F4F0B960E9432
:103930004F190E943B120E9433128DE992E00E94BF
:1039400076130E9437126EE0CE0144960E94121345
:103950000E94952B83E0DF91CF910C94CB33DF92C3
:10396000EF92FF920F931F93CF93DF93CDB7DEB704
:1039700067970FB6F894DEBF0FBECDBF8C0187E10D
:10398000D82E9BE0E92EF12CE00EF11E60E0C8017C
:103990000E940B1987FD2BC0853019F0863049F441
:1039A00004C0C8010E948F1CF1CFC8010E94651C91
:1039B000EDCFF701DE0111969D2D01900D929A95A4
:1039C000E1F7682FC8010E943518811109C0FE0176
:1039D0003196D7018D2D01900D928A95E1F7D6CFC2
:1039E00083E00E94CB33C7010E945A1BCFCF67965A
:1039F0000FB6F894DEBF0FBECDBFDF91CF911F9100
:103A00000F91FF90EF90DF90089580914F03909178
:103A10005003892BA1F08CE10E94B80865E02AE0F0
:103A2000AC01249FC001259F900D11240E94C21556
:103A30008DE60E94D01383E40E94D01304C088E86E
:103A400093E00E9476130C9427148AE10E94B80830
:103A500065E00E94C2158DE60E94D01386E50E94A3
:103A6000D0130C942714CF93DF9300D0CDB7DEB7DB
:103A700089839A830E94331289819A810E947613E6
:103A80000E9437128091B8029091B9020E949C3B2B
:103A9000892B51F081E793E00E9476138091B80260
:103AA0009091B9020E9476130F900F90DF91CF9101
:103AB0000C94271490E0880F991F62E087529D4F65
:103AC0000C9444130F931F93CF93DF9361E08CE723
:103AD00092E00E94D4198C0165E08CE792E00E948C
:103AE000D419EC0183E10E94B80880179107B8F45B
:103AF000C817D907B0F49C012C1B3D0BC8018C1BC7
:103B00009D0B64E670E00E943B3BC9010E943B3B79
:103B1000CB016436710530F083E690E003C084E6A3
:103B200001C080E0DF91CF911F910F910895613026
:103B300011F40C94AA0D0C942E28CF93DF93D82F58
:103B4000C62F825E0E944E09882351F06C2F8D2F64
:103B50000E94971D46E06C2FDF91CF910C94E915E0
:103B600088EF92E0DF91CF910C9476130F931F931F
:103B7000CF93DF93C82F162F0E9433120E94740D2B
:103B8000811108C083E090E00E94810E882341F0FB
:103B900080E209C080915102882321F082E403C0B1
:103BA0008DE601C082E60E94D01380916B028823CB
:103BB000C9F0D0E001E080916C02D81731F080911B
:103BC0006B02802321F081E303C08FE501C080E315
:103BD0000E94D013000FDF5FD63069F780E20E94A9
:103BE000D01303C087E00E941814DC2FDF5F8D2FF5
:103BF0000E942A148AE30E94D013C1112AC00E9495
:103C0000AD24882331F10E94BC24892B39F521C0D1
:103C10000E9427140E9437120C2F0E5F802F0E94E3
:103C20002A148AE30E94D013612F8D2F0E949D1DBC
:103C30008C2F8D5F0E942A148AE30E94D013612F7B
:103C4000802F0E949D1DDF91CF911F910F910C94A9
:103C50002714612F8C2F0E949D1DDACF8FEF92E0E9
:103C60000E947613D5CF88E10E94B80868E00E94D0
:103C7000351680E20C94D0130E9433128CE792E048
:103C80000E94E61968E00E94351680E20E94D01377
:103C90000E94172867E00E9431160E9427140E9494
:103CA000371284E093E00E94761367E080913F032F
:103CB000909140030E942D160C9427140F931F938C
:103CC00060919E0270919F028091A0029091A1024A
:103CD00020919302222371F00E949D2A00919E025E
:103CE00010919F022091A0023091A102601B710BE4
:103CF000820B930B28EE33E040E050E00E944F3BF4
:103D0000C9011F910F9108950E945B24811110C079
:103D10000E94AD24882331F00E945B2481110AC0E7
:103D200084E40BC00E94740D811106C08EE405C0AE
:103D300083E403C085E401C082E40E94D01380E2E2
:103D40000E94D0130E945E1E0E94AB1580E20C946C
:103D5000D0130E9433120E94331E67E086E10E9456
:103D6000580D0E9427140E9437120E94841E67E09B
:103D700083E10E94580D0C9427140E949D2A6093A1
:103D80009E0270939F028093A0029093A1021092D2
:103D90009A0210929B0210929C0210929D02109225
:103DA000960210929702109298021092990281E066
:103DB0008093930208950F931F930E949D2A009170
:103DC0009E0210919F022091A0023091A102601BDF
:103DD000710B820B930B60939E0270939F028093F2
:103DE000A0029093A102109293021F910F91089547
:103DF0000E94612481111DC00E94B324811119C049
:103E00000E94740D882351F180919A0290919B0237
:103E1000A0919C02B0919D0280599F4FAF4FBF4F20
:103E200080939A0290939B02A0939C02B0939D0270
:103E300008958091960290919702A0919802B09176
:103E4000990280599F4FAF4FBF4F80939602909336
:103E50009702A0939802B0939902D2CF0895CF927F
:103E6000DF92EF92FF920E9433128DE093E00E9466
:103E700076130E945E1E0E94AB150E94371288E1E5
:103E800093E00E94761360919A0270919B02809158
:103E90009C0290919D0238EEC32E33E0D32EE12C8C
:103EA000F12CA70196010E944F3BC9010E94AB155E
:103EB0008BE193E00E9476136091960270919702D5
:103EC0008091980290919902A70196010E944F3B20
:103ED000C901FF90EF90DF90CF900C94AB150E943A
:103EE00033128EE193E00E9476130E94382868E036
:103EF0000E9429160E9427140E94371282E10E9414
:103F00004E09882349F087E293E00E9476130E94CD
:103F10003E2868E00E9429160C9427140E94331250
:103F200080E393E00E94761367E086E00E94580DDC
:103F30000E9427140E94371288E393E00E947613B0
:103F400047E061E080915D0390915E030E94E91576
:103F50000C9427140E94331280E493E00E9476139D
:103F600067E080E00E94580D0E9427140E943712DB
:103F700087E493E00E94761367E082E10E94580D87
:103F80000C9427140E9433128EE493E00E9476135F
:103F900080914F0390915003892B29F065E087E0D1
:103FA0000E94580D04C084E593E00E9476130E949D
:103FB00027140E9437120C9427140F931F93CF934A
:103FC000DF9300D0CDB7DEB78B0189839A830E943F
:103FD0003B120E94331289819A810E9476130E94BB
:103FE0003712C8010F900F90DF91CF911F910F9161
:103FF0000C94761386E593E00E94331D0E943712DD
:1040000087E693E00E9476130E945E1E0C94AB1527
:104010008AE793E00C94331D0E9433120E94331EF2
:104020000E94051D0E9437120E94841E0C94251DBB
:104030000E94331281E993E00E94761367E08BE1DE
:104040000E94580D0E9427140E9437128AE993E0BB
:104050000E9476130C94251DCF930E94621DC82FD9
:104060000E94331268E087E10E94580D84EA93E0D1
:104070000E94761367E086E10E94580D0E94271483
:104080000E94371268E089E10E94580D86EA93E0A9
:104090000E94761364E08C2F90E00E94A81589EAB4
:1040A00093E00E947613CF910C9427140E94331250
:1040B0008BEA93E00E94761380914F039091500316
:1040C000892B41F069E080911C0190911D010E94B3
:1040D000CD1504C081EB93E00E9476130E94271453
:1040E0000E9437128AEB93E00E9476130C94051D10
:1040F00061ED73E084EC93E00C94DD1F0E94782066
:104100000C94952B62EF73E081EE93E00E94DD1F2B
:1041100088E893E10C94B32A0E9433128DEF93E068
:104120000C94761384EF91E00E94B32A6FE174E05F
:104130008EE094E00E94DD1F84EF91E00E94B32A9C
:1041400061E474E080E394E00E94DD1F84EF91E07D
:104150000C94B32A63E674E082E594E00E94DD1FCC
:1041600080E49FE10C949008CF930E94331264E0A6
:1041700070E08CE792E00E94361A80E20E94D01331
:104180008CE792E00E94461A80E20E94D013809150
:10419000BA020E945A1D0E9437120E94621D90E0CE
:1041A0008436910569F484E992E00E949E2B88236D
:1041B00021F084E00E9418140AC084E794E005C04E
:1041C00062E00E94A81589E794E00E94761384E9D2
:1041D00092E00E949E2B882319F0C091940201C0A6
:1041E000CFEFC0FF05C065E080E00E94580D03C01E
:1041F00085E00E94181480E20E94D01380917C0216
:1042000084508430A8F4C1FF05C065E082E10E94BB
:10421000580D03C085E00E941814C2FF05C00E941B
:104220007009CF910C942A1480E2CF910C94D01392
:1042300066E080917D0290917E020E943516CF91BA
:104240000C942714909195029F5F9093950288306B
:1042500059F168F48430F1F030F48230B9F0C0F4F0
:104260008130B9F526C08630C9F0D0F415C08C3045
:1042700021F120F48A3059F1F0F419C08E3019F18F
:10428000F0F08F3011F1803121F51BC00C94A91E84
:104290000C943C1E0C942F1F0C94C21F61E005C0AF
:1042A00061E083E00C94B61D66E080E0FBCF66E041
:1042B000F8CF0C94B4200C946F1F0C94AA1F0C948C
:1042C0008E1F0C942C200C9418200C9456200C94C7
:1042D0000C2008958FEF8093940208950F931F93FD
:1042E000CF93DF930E948524C0917F02D0918002FA
:1042F00061E08CE792E00E94D4198C01CE0165E068
:1043000070E00E943B3B8FE00E94F80CEC0140E023
:10431000BC01C8010E9462288FE00E948A28CE0159
:10432000DF91CF911F910F910C946F2481E00C9439
:1043300093240E94B009882321F00E946A240C94DF
:10434000322908951092A2020C946E21CF93DF932C
:104350000E9499210E94AB09EC018091A202811177
:1043600011C062E08CE792E00E94D4198C179D077F
:1043700048F481E08093A20280917F0290918002B4
:104380000E947F240E94B0098823D9F164E08CE761
:1043900092E00E94D4198C179D0758F132C0809189
:1043A000A302882389F08AE10E94B808EC018CE717
:1043B00092E00E94071AD195C195D1098C179D07EB
:1043C0001CF48AE894E017C08091A402811101C016
:1043D0000EC08CE10E94B808EC018CE792E00E94CC
:1043E000251A8C179D071CF48EE894E004C082E027
:1043F0000FC082E894E09093B9028093B80281E004
:1044000007C08091280190912901029740F6EFCFD3
:10441000DF91CF9108958093A4026093A302089541
:104420007093A8026093A7029093A6028093A502BE
:1044300008950F931F93CF93DF93C091A502D0915E
:10444000A602CE010E94BA0F8C010E94AB09C817C8
:10445000D90738F4C801DF91CF911F910F910C94C7
:104460009C0F81E0DF91CF911F910F9108950F93E1
:104470001F93CF93DF930E941922182F0E94BC2410
:10448000EC010E94B009882311F001E001C0012F66
:104490008091A902882329F0BE01812F0E94E22881
:1044A00001C0812F882329F081E00E94F42481E05B
:1044B0000DC0011101C009C0BE01812F0E94012A57
:1044C0008C179D0711F00E94D82482E0DF91CF91D4
:1044D0001F910F9108950E94E6240E94090E1092E8
:1044E000A90280E10C948A2881E00E94F4240C94B3
:1044F000040EBC0180E10E94F80C0C9405280F9377
:104500001F93CF93DF938C01EB010E941022BE0119
:1045100080E10E94F80C40E0BC01C8010E946228C2
:10452000CE016AE070E00E943B3BCB01DF91CF916E
:104530001F910F910C9479220E94090E0E948524EC
:104540008FE00C948A2881E00E9493240C94040E3E
:104550000F931F93CF93DF931F92CDB7DEB78C01DC
:104560008FE049830E94F80C4981BC01C8010F907B
:10457000DF91CF911F910F910C9462280F931F939D
:10458000CF93DF931F92CDB7DEB78C018FE04983C5
:104590000E94F80C4981BC01C8010F90DF91CF91B6
:1045A0001F910F910C947628BC018FE00E94F80CAB
:1045B0000C9405280F931F93CF93DF93C0913F0373
:1045C000D0914003CE010E94BA0F8C010E94AB092A
:1045D0008C179D0738F4C801DF91CF911F910F917F
:1045E0000C947E0F81E0DF91CF911F910F91089580
:1045F0001F93CF93DF930E94DA22182F0E946A2420
:10460000EC01BC01812F0E94E228882329F081E07F
:104610000E94932481E01BC00E94B00981110BC04D
:10462000111109C0CE010E941F28811104C00EC0C3
:104630000E946F240BC00E94740D811107C0BE013F
:10464000812F0E94012A8C179D0791F782E0DF914C
:10465000CF911F9108950E94A3220E9474220C946E
:10466000040ECF93DF931F92CDB7DEB79091AB02CC
:10467000913039F018F0923081F406C00E94F8228F
:104680000CC00E94372209C00E944F0F823089F06F
:1046900089830E942B2389810CC0813051F4909131
:1046A000AA02992331F082E08093AB020E94090EA6
:1046B00082E00F90DF91CF9108950E94090E8091C2
:1046C000AC029091AD020E94BA0F0E949C0F882309
:1046D00029F00E949C221092AB0208950E946B2246
:1046E00081E08093A9028093AB0208958093AA028F
:1046F00008950F931F93CF93DF93EC018A0190935A
:10470000AD028093AC0240E00E94A822B801CE0125
:10471000DF91CF911F910F910C947F220E94E6248C
:1047200087E08093940282E0809395020E94C433D4
:1047300083E08093AF02089581E00E94F4248FEF1C
:104740008093940288E00C94CB33FF920F931F93D5
:10475000CF93DF9380E00E944E09FF24F394F82664
:104760008091AE02882379F00E94700990918302B3
:1047700001E0981301C000E011E0811110E09130D8
:1047800021F4112311F010E000E00E947009811162
:1047900029C0112339F182E10E94B808EC0180E0C0
:1047A0000E94B808C817D90728F49C012C1B3D0BA0
:1047B000E90102C0C81BD90BC53FD14008F065C054
:1047C00011C08091BA02882331F0843021F0853005
:1047D00011F0863039F40E94922081E00E94CB33A0
:1047E00010E000E082E10E944E098823B1F082E1EE
:1047F0000E94B808EC0180E00E94B808C817D907E9
:1048000028F49C012C1B3D0BE90102C0C81BD90BED
:10481000C53FD14010F0FF24F394011102C087E09E
:1048200001C083E080939402112329F080919402C7
:10483000825080939402FF2029F08091940281504D
:1048400080939402011104C0111102C0FF2011F0E5
:1048500081E001C088E00E94CB330E949C1181114D
:1048600002C01092AF02011108C0111106C0F11070
:1048700004C00E949C11883079F08091AF02823090
:1048800011F481E00FC082E00DC080917C02845061
:10489000843008F496CFA6CF8091AF028F5F8093CB
:1048A000AF02EBCFDF91CF911F910F91FF90089551
:1048B0008093AE02089581E09091B202911180E060
:1048C000089581E02091B0023091B102232B09F4C8
:1048D00080E008958091B0029091B10208959C010A
:1048E000293885EF380710F028E835EF3093B1020A
:1048F0002093B002C9010E94A8060C94FF0ABC01D3
:104900008FE00E94F80C0C946F248091B2028823EF
:1049100049F080E090E00E946F2481E00E94C3068D
:104920001092B2020895CF93C82F8091B2028111E4
:104930000BC0CC2349F080E090E00E946F2480E01F
:104940000E94C306C093B202CF91089580E090E028
:104950000E946F2481E00C94932481E09091B7022F
:10496000911180E0089581E02091B5023091B60266
:10497000232B09F480E008958091B5029091B6024E
:104980000895482F8091B3029091B4022091B5020E
:104990003091B6028217930711F4442341F09093AB
:1049A000B6028093B5020E946F070C94FF0A089527
:1049B0009C01213080E4380710F020E030E430938F
:1049C000B4022093B30281E00C94C1248091B70219
:1049D000882349F080E090E00E94D82481E00E9482
:1049E000B6061092B7020895CF93C82F8091B702F0
:1049F00081110BC0CC2349F080E090E00E94D824C4
:104A000080E00E94B606C093B702CF91089580E07F
:104A100090E00E94D82481E00C94F42408958091C1
:104A20007C02873051F0982F9450943048F0815098
:104A3000823048F42DEC32E008C02BEB32E005C0A8
:104A400024EC32E002C026ED32E0C901089586EA86
:104A500094E090936F0280936E0290917C02945048
:104A600081E0943008F080E00E94582461E08CEAF4
:104A700094E00E94191091E0813009F090E0892FB4
:104A800008950F931F93CF93DF930E947623009195
:104A9000810210918202C0917F02D091800263E076
:104AA0008CE792E00E94D419A801BE010E947923EC
:104AB00080EA94E090936F0280936E0260E082EB54
:104AC00094E0DF91CF911F910F910C941910EF9208
:104AD000FF920F931F93CF93DF938C01CFE7D2E028
:104AE000E880F98061E08CE792E00E94D41940E010
:104AF000B7010E94A82288819981B8010E943B3B9E
:104B0000CB010E94D4228AE994E090936F028093B3
:104B10006E0260E08EEB94E0DF91CF911F910F91D8
:104B2000FF90EF900C941910CF93DF93C0917F0208
:104B3000D091800261E08CE792E00E94D41941E0BC
:104B4000BE010E94A8228AE994E090936F028093AC
:104B50006E0260E08EEB94E0DF91CF910C9419101F
:104B6000CF93DF93C0917F02D091800261E08CE708
:104B700092E00E94D41941E0BE010E94BE228AE95F
:104B800094E090936F0280936E0260E08EEB94E06D
:104B9000DF91CF910C94191081E020914F03309157
:104BA0005003232B09F480E061E00E940B228CE784
:104BB00094E090936F0280936E0260E08BEC94E03F
:104BC0000C94191062E08CE792E00E94D419609175
:104BD000810270918202E0918302F09184024091FF
:104BE0005F0350916003E49F9001E59F300DF49FB7
:104BF000300D1124820F931F0E947F2284E994E0DC
:104C000090936F0280936E0260E087ED94E00C94C5
:104C10001910CF93DF93C0918102D091820262E09C
:104C20008CE792E00E94D419BE010E947F2284E9A1
:104C300094E090936F0280936E0260E084EE94E0C3
:104C4000DF91CF910C9419108CE291E090936F0258
:104C500080936E0260E08EEE94E00C941910CF9376
:104C6000C82F8093BA0224EF34E03093B902209326
:104C7000B8028E3030F4E82FF0E0E155FF4F80812C
:104C800001C080E0809361000E9426350E94220BC3
:104C90000E942725882309F444C084E00E94CB3376
:104CA000C53031F168F4C230B9F128F4CC23B9F041
:104CB000C130A9F52EC0C330A9F0C43081F515C0AC
:104CC000C83009F128F4C630C1F0C73041F517C02B
:104CD000CC3071F0CD3049F0C93009F517C08AE009
:104CE00090E008C00E9424261CC00E94E22519C042
:104CF00085E090E00E94672514C080E001C081E05B
:104D00000E9441250EC00E94CC250BC00E9409269E
:104D100008C00E94942505C00E94B02502C00E94D0
:104D20007E200E94310BCF910C9436350F931F9348
:104D3000CF93DF93EC010E94A8190E940F258C01EC
:104D400060E0C8010E940B1987FD29C090917C0288
:104D5000E82FFF27E7FDF095973019F4EB50FB4F54
:104D60000FC0892F8450843018F4E450FB4F08C0E2
:104D70009150923018F4EB5FFA4F02C0E65FFA4FA1
:104D800084918E3049F4BE018CE792E00E94941A1F
:104D9000CE010E94B619D1CF0E942F26D1CFDF912C
:104DA000CF911F910F9108956DE075E084EC92E032
:104DB0000E941D1861E275E08DEC92E00E941D18C2
:104DC0006DE275E08BEB92E00E941D186DE375E0DB
:104DD00086ED92E00C941D18FC014281538141152F
:104DE000510589F0A081B181B7FF03C0B195A195AC
:104DF000B10928EE33E00E940D3B9A0140E050E0FB
:104E00000E944F3B02C020E030E0C90108950F939B
:104E10001F93CF93DF9300D000D0CDB7DEB78C01C6
:104E2000862FF801628173810E944C0B9C838B83D7
:104E3000F801808191819A838983CE0101960E9435
:104E4000EC260F900F900F900F90DF91CF911F9154
:104E50000F9108950F93FC01CA01002341F06417DC
:104E6000750708F4CB014617570748F409C04617E1
:104E7000570708F4CB016417750708F401C0BA019D
:104E80009783868391838083138212821582148292
:104E900033872287681B790B718760870F9108958C
:104EA000FC019B0140E050E086819781281B390B73
:104EB00041095109A285B3850E94143B20853185A3
:104EC000442737FD4095542F0E94713B2115310531
:104ED00081E0480751051CF457FD04C005C02FEFC1
:104EE0003FEF02C020E030E0C9010895DF92EF9269
:104EF000FF920F931F93CF93DF93EC012A813B81A5
:104F00002417350720F4FA01E21BF30B03C0F90163
:104F1000E41BF50B8C819D81969587958E179F07D5
:104F200088F5888199818617970720F4FB01E81B93
:104F3000F90B03C0FC01E61BF70BEF2BF9F422C0C1
:104F40008A01021B130B7B01E81AF90A06C07C01D7
:104F5000E61AF70A8901041B150BC7010E94EA2A09
:104F6000D82E888599850E94EA2AD8120BC01D8305
:104F70000C83F986E8861B870A8704C02417350747
:104F8000F8F2E5CFDF91CF911F910F91FF90EF9055
:104F9000DF9008950F931F93CF93DF93EC018B0164
:104FA0009A01A885B9850E940D3B2A853B8540E082
:104FB00050E00E94713BC801A0E0B0E08217930767
:104FC000A407B5071CF41F821E8204C0021B130B2A
:104FD0001F830E83DF91CF911F910F910895EF9260
:104FE000FF920F931F93CF93DF93EC018B017A0114
:104FF0000E947627A701B801CE01DF91CF911F91C2
:105000000F91FF90EF900C94CA27909346038093E2
:10501000450308958091E102813029F420914503F0
:105020003091460302C020E030E0C901089560914C
:105030004103709142038091E3020C944C0B209148
:10504000E602213041F041E02091450330914603D2
:105050008217930708F040E0842F08952CE0829F88
:10506000C00111246091E30281519D4F0C940727E8
:105070006091E30287E393E00C940727CF93DF93DB
:1050800000D000D0CDB7DEB780E00E94B8089A8388
:10509000898382E10E94B80829813A81281B390B53
:1050A0003A83298386E10E94B8089C838B83CE01D2
:1050B00001960E94EC260F900F900F900F90DF91B9
:1050C000CF9108959093400380933F0370934203E0
:1050D00060934103CB016AE070E00E943B3B709318
:1050E0004603609345034093E20208959093400382
:1050F00080933F037093420360934103CB0164E1CB
:1051000070E00E943B3B70934603609345034093DD
:10511000E2020895EF92FF920F931F93CF93DF93D4
:1051200091E09093E102FF24F3948F3009F0F12C89
:105130008093E30268EC70E00E94F80C90934403C3
:10514000809343030E94AB092091450330914603AD
:1051500040913F03509140030F2DBC018FE293E03B
:105160000E942A270E94710D8093E40280913F03E0
:10517000909140030E94BA0FEC0110E08CE0E82E01
:1051800012C0812F0E94AA0DBC01209145033091CD
:105190004603E19EC00111240F2DAE0189519D4FA0
:1051A0000E942A271F5F8091E402181750F3109283
:1051B000E6021092E502DF91CF911F910F91FF90CF
:1051C000EF9008950F931F93CF93DF93082FEB0178
:1051D0008091E2028823C9F0409143035091440337
:1051E00020914503309146032417350708F49A01AE
:1051F0002C173D0710F410926A028091E60281306C
:1052000021F00E944F0F8093E1028091E1028130F2
:1052100019F58091E602823041F411E020914503B6
:1052200030914603C217D30708F010E00E940A2805
:105230008C179D0778F0111103C0011101C00AC03D
:105240009091E502892F8F5F8093E50281E09A308B
:1052500020F402C01092E50280E0DF91CF911F910F
:105260000F9108950F931F93CF93DF93EC010E944A
:10527000AB09AE01BC018FE293E00E94EF2710E082
:105280000CE00DC0812F0E94AA0DBC01019FC0013E
:105290001124AE0189519D4F0E94EF271F5F80911D
:1052A000E402181778F3DF91CF911F910F910895C1
:1052B000CF92DF92EF92FF920F931F93CF93DF93E2
:1052C00060913F03709140038FE293E00E9450276A
:1052D000EC0180913F03909140030E94BA0F7C0142
:1052E000D12C9CE0C92E12C0CD9C80011124095103
:1052F0001D4FB701C8010E945027C817D90728F0D1
:10530000B701C8010E945027EC01D3948091E402B8
:10531000D81650F3CE01DF91CF911F910F91FF90DE
:10532000EF90DF90CF9008950F931F93CF93DF936B
:105330008B0180933D0390933E0320914103309174
:105340004203EC012817390708F4E9010E940A28F2
:105350009C018C179D0708F49E010217130719F191
:105360008091E6028230A9F42017310790F08091F5
:1053700045039091460380179107A0F040913B03AD
:1053800050913C0380914702909148024817590779
:1053900049F0809147029091480290933C0380939A
:1053A0003B0301C09801C901DF91CF911F910F917B
:1053B00008950F931F93CF93DF93EC010E94AB09E5
:1053C0009093300380932F03D0933203C093310323
:1053D00010E00CE00DC0812F0E94AA0D019FF0018A
:1053E0001124E951FD4F91838083D383C2831F5FD2
:1053F0008091E402181778F3DF91CF911F910F91FC
:1054000008951F93CF93DF93182FEB01CB010E94D8
:105410003229CE010E94D9290E9458299093E00296
:105420008093DF02BE010E9494299C018091E602D4
:10543000811110C0112389F08091E202882321F0AC
:105440000E94FD0D10926A0281E08093E60220E046
:1054500030E003C082E08093E602C901DF91CF9182
:105460001F9108950F931F930091470310914803D4
:105470002091490330914A03B801C9011F910F914E
:10548000089512BE8DE78CBF88E083BF83B7836029
:1054900083BF89B7826089BF089580914703909147
:1054A0004803A0914903B0914A030196A11DB11D83
:1054B0008093470390934803A0934903B0934A0312
:1054C00008950E944D2A0E94A4340E94B82B0E9485
:1054D000190580916200815019F08093620008954F
:1054E00081EE809362000E940E250E947E090C943A
:1054F000F81E1F920F920FB60F9211242F933F9315
:105500004F935F936F937F938F939F93AF93BF93CB
:10551000EF93FF930E94612AFF91EF91BF91AF91AA
:105520009F918F917F916F915F914F913F912F91BB
:105530000F900FBE0F901F9018950F931F938FB76A
:10554000F89400914703109148032091490330914A
:105550004A038FBF3695279517950795B801C9015E
:105560001F910F910895CF92DF92EF92FF92CF9308
:10557000DF93EC010E949D2A6B017C01CC0EDD1EA5
:10558000E11CF11C0E949D2A6C157D058E059F056E
:10559000C8F3DF91CF91FF90EF90DF90CF90089507
:1055A0009C0180E001C08F5FF901459154912E5F0D
:1055B0003F4F452BC1F7089521E030E09AE006C047
:1055C000A901949F9001959F300D11248150C0F73F
:1055D000C901089597FD02C081E008958FEF0895F5
:1055E000CF92DF92EF92FF92CF939B01AC016115B6
:1055F00071058105910521F421E030E040E050E0A3
:10560000C0E08AE0C82ED12CE12CF12CCF5FCA017A
:10561000B901A70196010E944F3B211531054105B3
:105620005105A1F78C2FCF91FF90EF90DF90CF9095
:105630000895BC0180E090E00C94F02AFC01808188
:105640009181860F971F97FF03C0118210820895E2
:10565000242F30E0281739071CF440831182089565
:10566000918380830895FC0180819181860F971F2B
:10567000181619061CF081E090E008C0242F30E0D5
:10568000281739071CF44083118208959183808381
:105690000895DF92EF92FF920F931F93CF93DF93C2
:1056A000EC018A01DD24D394161617060CF0D12CD8
:1056B000E880F980B70180E090E00E94F02A823013
:1056C00028F082500E94DC2A9C0102C021E030E0D8
:1056D000C701B9010E943B3B009739F0DD2019F06A
:1056E000281B390B04C09C010EC0DD2061F0C801ED
:1056F000821B930BE816F90618F489010E0D1F1D85
:10570000198308830AC02E153F0518F4E21AF30A1C
:1057100002C0E12CF12CF982E882DF91CF911F9138
:105720000F91FF90EF90DF9008950E94C9118111B1
:10573000FCCF0E94C9118823E1F30895FC01208168
:1057400027FD05C0818186958F5F8170089580E077
:105750000895FC01208127FD09C08181982F915077
:105760009695282F269581E0921301C080E0089538
:10577000089508956CE87EE680E00E94F80C90930E
:105780004C0380934B030895CF93DF9380E00E94F6
:10579000C10820914B0330914C032817390718F4A6
:1057A00080EC95E033C086E00E94B808EC0186E00A
:1057B0000E944E09882381F180915D0390915E03E0
:1057C000C817D90708F128C08C179D0740F481ED50
:1057D00095E09093B9028093B80281E02AC080914D
:1057E0004F0390915003892B11F482E022C087E08F
:1057F0000E94B808209151033091520328173907AD
:10580000A0F78AED95E002C089EC95E09093B9028B
:105810008093B80280E00DC088E10E94B808EC01D6
:105820008CE792E00E94E619883E2DEF920761F620
:10583000D6CFDF91CF9108950F931F93CF93DF932E
:105840008C01443019F0CFEFDFEF02C0C1E0D0E0AF
:105850000E949E11D8011B96EC91F0E0EE0FFF1F05
:10586000EC58FE4F9C01C29FC001C39F900DD29F78
:10587000900D112420813181820F931F91838083A9
:10588000DF91CF911F910F910895EF92FF920F93A7
:105890001F93CF93DF931F92CDB7DEB78C014430B7
:1058A00021F0EE24EA94FE2C03C0EE24E394F12CC4
:1058B00069830E949E11D8011B96ED91FC911C9763
:1058C0006981E60FF11DE491F0E0EE0FFF1FEC5847
:1058D000FE4F9C01E29EC001E39E900DF29E900D52
:1058E000112420813181280F391F318320830F90AB
:1058F000DF91CF911F910F91FF90EF9008951F932B
:10590000CF93DF93EC01162F0E940F18CE0109965A
:105910000E949E2B882311F0298501C02FEF332789
:1059200027FD3095812F90E02817390769F0111174
:1059300005C067E08B850E94580D06C08B850E94CC
:10594000AF0867E00E94A815DF91CF911F910895DD
:105950001F93CF93DF93EC01162F0E940F18CE01F7
:1059600009960E949E2B882311F0898501C08FEF34
:10597000992787FD9095612F70E08617970741F072
:10598000EB85FC85E60FF71F84916D850E94580D0D
:10599000DF91CF911F910895CF93DF93EC010E9487
:1059A0001D188FEF89878BEA90E099838883DF91B8
:1059B000CF910895CF93DF9300D000D0CDB7DEB75D
:1059C00080E00E94AF089A83898382E10E94B80830
:1059D0009C838B83AE014F5F5F4F61E080E00E944C
:1059E000F8080F900F900F900F90DF91CF910895CE
:1059F0000F931F93CF93DF93CDB7DEB728970FB6E2
:105A0000F894DEBF0FBECDBF8C0189E00E94AF08C5
:105A10009E838D8388E00E94B808800F911F98872D
:105A20008F838AE00E94AF089A8389830F8118854B
:105A30008FE10E94B808800F911F9C838B83AE0179
:105A40004B5F5F4F61E089E00E94F808AE014F5F55
:105A50005F4F61E08AE00E94F80828960FB6F8943C
:105A6000DEBF0FBECDBFDF91CF911F910F91089583
:105A70000F931F93CF93DF9300D000D0CDB7DEB745
:105A80008C018AE00E94AF089A83898389E00E9492
:105A9000B808800F911F9C838B83AE014F5F5F4FCF
:105AA00061E08AE00E94F8080F900F900F900F902D
:105AB000DF91CF911F910F91089560E070E083EE28
:105AC00095E00E94DD1F80E00E944E09811106C012
:105AD0000E94C9118130B9F780E0089581E00895EE
