:100000000C94BE040C94E6040C94E6040C94E604F0
:100010000C94E6040C94E6040C94E6040C94E604B8
:100020000C94E6040C94D9050C94372C0C94E43B06
:100030000C94E6040C94A1390C94DF390C94E6047A
:100040000C94E6040C94E6040C94E6040C94E60488
:100050000C94E6040000000040D506620000000099
:10006000F567E6307A013200A42AE803B71B3200B4
:100070003EA82C010000000000000000000000006D
:1000800000000000000000008DBBD636C24CA40B5F
:100090000C4970170000000043BFA80E00000000CC
:1000A00015D65110000000009BD9C82000000000A8
:1000B000CAD863100000000007D8571000000000E5
:1000C00040D85F1000000000A5CF58107C0132001E
:1000D000A82AE803320A3200EA3D2C010006080093
:1000E00001FF010100000106090001FF03020100F8
:1000F00002060A0001FF0000000006060E0000FFD5
:100100000302010005060D0000FF020300000406C3
:100110000C0000FF0302010003060B0000FF0406B1
:1001200000000706070000FF03020100320E2D0E3B
:10013000780F2020436865616C6943686172676568
:100140007200202020207665723A20302E33326DE6
:1001500000550100006F7074696F6E73000100013B
:10016000000100010001000A006400010002000417
:100170000010004000000100040100030008000717
:1001800000070014000700496E66007965730020BF
:100190006E6F006D560077027F02840289028D0225
:1001A000920297029C020100010001000100000080
:1001B0000100B0041C075203000008071405B00436
:1001C0004006E803000008071405D0079209D60688
:1001D000000000006C07E40C100ED007E40C0000D7
:1001E000B80B100E0410C409A60E0000AC0D740E5E
:1001F0006810B80B0A0F0000890C40066C07140544
:1002000040060000DC0500980898086C0710275885
:100210000201980898086C070100E001029808980C
:10022000086C070100E001039808DC006C07060079
:10023000E00104980898086C070300780005980806
:1002400098086C070300780006980898086C070364
:1002500000780007980898086C0703007800756E0E
:100260006C696D69746564006D696E2E00756E6CE5
:10027000696D6974656400556E6B6E6F776E004EC4
:10028000694364004E694D480050623F004C696606
:1002900065004C696C6F004C69706F004E695A6E56
:1002A00000C402CB02D002D502DA02DF02E702F577
:1002B00002000045646974206E616D653A004E610C
:1002C0006D653A004261743A202000563A202000C1
:1002D00043683A200049633A200049643A20004DBF
:1002E00061782D543A200020206372656174652086
:1002F0006E616D650020202065646974206E616DFB
:100300006500436843425362426C446946435374F8
:1003100053424368446943794359436844694542B9
:100320000020202D2D2020006E2E612E004C696DA6
:100330006974733A200074696D653A20202020208A
:1003400000622000202000626174742E20523D0063
:10035000776972657320523D0056696E7075743D01
:1003600000206C696D69743D00566F7574203D0006
:100370005662616C2E3D00546578743D002D00700E
:10038000726F6772616D20636F6D706C657465006C
:1003900054696D653A2000726561736F6E3A200092
:1003A0006D6F6E69746F72206572726F72006E6F1E
:1003B000742075736564006D6178566F75743D00C7
:1003C00064656C746120563D200020002020002DC3
:1003D0002D2D3A2D2D002500546578743D006E6F4B
:1003E0007420757365640064656C746120543D20ED
:1003F0000046756E6374696F6E206E6F7400696D70
:10040000706C656D656E7465642079657400706CE0
:10041000656173652063616C696272617465006215
:1004200065666F7265207573650052455645525377
:100430004520504F4C41524954590020202020570C
:1004400041524E494E470042616C616E63657220B5
:100450006E6F742E636F6E002020686F6C64206274
:100460007574746F6E0020746F2053746172742FF2
:1004700073746F7000202043616C696272617469EB
:100480006F6E0020202020204552524F5200252020
:10049000009E229222A22256206C696D6974002D62
:1004A00064560064542F64740067237023332398C8
:1004B000239F23F423592427242D248A249824A11C
:1004C0002450726576656E7420502E537570706C72
:1004D0007900534D50532075700050726576656EEB
:1004E0007420502E537570706C7900534D5053200A
:1004F000646F776E000106070D05000210060708FD
:10050000090B0C0D040503000210060708090B0C6B
:100510000D0405030002100A0E0F0B0C0D04050359
:10052000000210060708090B0C0D04050300021059
:100530000F0B0C0D040503000607040D0500000059
:1005400001020304050E00010203040506070E085C
:10055000090A0B0E0C0D0E8F059605A505B405BCFA
:1005600005C605D205DA05E90500008F05BC05F6CC
:10057000050006E90500008F059605A505B405BC34
:1005800005C605E90500008F05BC05E90500006307
:100590006861726765006368617267652B62616C90
:1005A000616E63650073757065726368617267651B
:1005B0002B622E0062616C616E6365006469736317
:1005C0006861726765006661737420636861726751
:1005D000650073746F726167650073746F72616731
:1005E000652B62616C616E63006564697420626191
:1005F000747465727900633E64206379636C65008E
:10060000643E63206379636C650062617420646991
:10061000736300696E7075742056006361702043C7
:100620004F464600542E206C696D697400657874DD
:100630002054434F4600436F6E6E656374204261E1
:1006400074746572792100AF06B806C1060000080F
:10065000090A08090ACA06D006D606DC06E206E838
:1006600006EE06F406FA060000061E1F20212223CD
:10067000120006090A0B0C0D0E76616C75653A20A6
:1006800000496F75743A202000000705070000003C
:10069000070C0700001207190700002007290700B0
:1006A0000032073A0743074F075B0767070000560A
:1006B000623070696E3A200056623170696E3A207D
:1006C0000056623270696E3A200056696E3A200018
:1006D0005662313A20005662323A20005662333A6E
:1006E00020005662343A20005662353A20005662A5
:1006F000363A200056312D363A00566F75743A005E
:1007000035306D4100313030306D41003330306D67
:10071000410074656D703A200076616C75653A0031
:10072000706F696E7420312E00706F696E742032A4
:100730002E00766F6C746167650049206368617292
:100740006765004920646973636861726765007456
:10075000656D702065787465726E0063616C6962A6
:100760002D3E5541525400657870657274204441A5
:100770004E47455221007E078707910700007365A9
:100780007474696E67730063616C69627261746529
:100790000072657365742064656661756C740080B1
:1007A000250000004B00000096000000E100000062
:1007B000C2010000007017640007000C00050078FB
:1007C00000581B0000080000000300F50701080C9A
:1007D0000813081D08270833083D08480851085B1E
:1007E0000862086A080000432F6D0073087C0883C4
:1007F0000889089208657874726E20543A20202087
:1008000000657874726E2054434F3A0064542F642C
:10081000743A004E694D48202D64563A004E6943A3
:1008200064202D64563A00432F44206379636C653D
:10083000733A0063617020434F66663A00696E70D8
:100840007574206C6F773A006469736368202B3A83
:100850000062616C2E206572723A00554152543A22
:10086000200073706565643A200020202072657353
:1008700065740064697361626C6564006E6F726DAB
:10088000616C006465627567006578742E2064652C
:1008900062006578742E20416463001316181719DE
:1008A0000705061E1F202122237265736574696E79
:1008B0006720656570726F6D3A00763A20372E3981
:1008C000382E3938200063006400730000000000F7
:1008D000000000000000000000040300050000000C
:1008E0000000000000000000000000000000000008
:1008F0000000000000000100000020408000000017
:1009000000000102040810204080000001020408D9
:1009100010204080000000804020100804020100E8
:10092000000102040810000202020000000000049E
:100930000404040404040400000303030303030386
:100940000300000001010101010101010000020298
:100950000202020000390036003300300000003B84
:100960000038003500320000003A00370034003112
:100970000000C605E41066225A28D13A11241FBE91
:10098000CFE5D8E0DEBFCDBF10E0A0E6B0E0E4E107
:10099000FCE702C005900D92A03FB107D9F714E023
:1009A000A0EFB0E001C01D92AF3BB107E1F719E045
:1009B000CCE7D9E004C02297FE010E948F3DC237E8
:1009C000D107C9F70E948D3B0C94083E0C9400009F
:1009D000CF9388E20E94D83CC1E0892B09F0C0E0A7
:1009E00089E20E94D83C892B11F080E001C082E0AE
:1009F000C82B8AE20E94D83C892B11F080E001C00C
:100A000084E0C82B8BE20E94D83C892B11F080E057
:100A100001C088E08C2BCF910895CF93C82F682F09
:100A200089E10E94693C6C2F8AE10E94693C6C2F2D
:100A300080E20E94693C6C2F89E00E94693C6C2F27
:100A40008BE00E94693C6C2F80E1CF910C94693C53
:100A5000CF93DF93EC0111C061E08CE20E94A13CD6
:100A60008CE890E00E942E3C60E08CE20E94A13C69
:100A700088E290E00E942E3C2197209769F7DF9151
:100A8000CF910895089580910501882331F08091D8
:100A900006018F5F8093060102C0109206018091CB
:100AA00005018A3010F480E001C088E090910501D2
:100AB000943108F084E0909105019E3108F082E0C5
:100AC0006091060168238CE20C94A13C809305019F
:100AD000089561E068278CE00C94A13C80E00E94BE
:100AE000E13B61E08CE00E94693C61E08EE00E94A5
:100AF000693C61E08EE10E94693C61E08CE20E9409
:100B0000693C61E08DE00E94693C61E08EE00E94FA
:100B1000693C61E08FE00E94693C80E00E946905C9
:100B20001092050120E042E060E180EF90E00E9439
:100B30005E170E94FF2B0E942C260E948D260E9489
:100B400049060E9415080C947F0DCF93C82F682F7B
:100B5000617089E10E94A13C6C2F62708AE10E9461
:100B6000A13C6C2F647080E20E94A13C6C2F6870E5
:100B700089E00E94A13C6C2F60718BE00E94A13C37
:100B80006C2F607280E1CF910C94A13CCF92EF92D8
:100B90000F9383E1C82E94E1E92E05E126E147E1B8
:100BA00068E180EF90E00E9412180F91EF90CF90D3
:100BB00008951F920F920FB60F9211242F933F9317
:100BC0004F935F936F937F938F939F93AF93BF9355
:100BD000EF93FF9320910A0130910B01809108015E
:100BE00090910901820F931F90930901809308014E
:100BF000809108019091090126E0969587952A95A4
:100C0000E1F72091080130910901AC0166E0440F41
:100C1000551F6A95E1F7241B350B3093090120938A
:100C200008012FB7F894309107013E3011F49BBDB5
:100C30008ABD309107013D3021F02FBF0E9443054E
:100C400003C099BD88BDF9CFFF91EF91BF91AF91DE
:100C50009F918F917F916F915F914F913F912F91D4
:100C60000F900FBE0F901F9018959FB7F894709338
:100C70000B0160930A01809307018E3019F48FB540
:100C8000806804C08D3019F48FB580628FBD9FBF1E
:100C900008951FBC80E18EBD2FB7F89480E091E0ED
:100CA00097BD86BD2FBF8EB5887F8EBD8EB5816006
:100CB0008EBD89B7846089BF08958E3019F48FB5D1
:100CC0008F7704C08D3019F48FB58F7D8FBD089557
:100CD00040910D0150910E0160910F017091100132
:100CE000452F562F672F772767FD7A95CA010895FC
:100CF00010921401109213018617970768F480E090
:100D000090E4A0E0B0E080930D0190930E01A093D9
:100D10000F01B093100108C010920D0110920E0146
:100D200010920F011092100180910D0190910E010F
:100D3000A0910F01B0911001BA2FA92F982F8827E9
:100D400080930D0190930E01A0930F01B0931001B9
:100D500081E080930C010895CF93DF93EC01C130C3
:100D600080E6D80770F4C13080E4D80760F48EE0E4
:100D70000E945D0660E08EE00E94A13CBE018DE015
:100D80000CC0C0E0D0E68DE00E945D0661E08DE021
:100D90000E94A13CBE0170548EE0DF91CF910C9473
:100DA000350690931401809313016CEB76E680E096
:100DB0000E94210D90931201809311010895CF9309
:100DC000C82F882319F080E00E94EC0661E06C27B0
:100DD0008EE1CF910C94A13CCF93DF93C82F882351
:100DE00019F080E00E94DF068DE00E945D0660E061
:100DF0008DE00E94A13C8EE00E945D0660E08EE0E6
:100E00000E94A13C10920C0161E06C278FE00E94CF
:100E1000A13CCC2361F080E00E94E108EC0186E077
:100E20000E94E108BE01DF91CF910C947806DF911A
:100E3000CF9108950F931F9380910C01882309F49B
:100E400074C080E00E94EA082091110130911201E3
:100E50002817390730F480E00E94EC0610920C014C
:100E600064C082E00E94EA0840911301509114018D
:100E700060E070E000910D0110910E0120910F01D2
:100E800030911001481B590B61097109E4E0440FCE
:100E9000551F661F771FEA95D1F7040F151F261FF0
:100EA000371F00930D0110930E0120930F01309313
:100EB000100180910D0190910E01A0910F01B09150
:100EC0001001B7FF08C010920D0110920E01109290
:100ED0000F011092100180910D0190910E01A091CF
:100EE0000F01B09110010197A046B10560F080E0BC
:100EF00090E0A0E6B0E080930D0190930E01A093E6
:100F00000F01B093100180910D0190910E01A091FD
:100F10000F01B0911001892F9A2FAB2FBB27A7FD8E
:100F2000BA951F910F910C94AC061F910F910895E3
:100F3000BC018EE00C9435068770806287B90895F5
:100F4000CF93DF9390916000891721F18093600027
:100F5000C8B390E2899F90011124CF71C22B98B33E
:100F6000E8E1F9E0E4912AB3DE2FD095D2232AB349
:100F70008150823050F0892F8F71806C88BBE22BBA
:100F8000EABB8AE090E00E942E3C8FB7F894C8BB81
:100F9000DABB8FBFDF91CF91089595E0899FF00173
:100FA0001124E052FF4FE49181E0E11101C080E0A3
:100FB000089595E0899FF0011124E152FF4FE491DB
:100FC00081E0E11101C080E0089524B135B195E0E0
:100FD000899FF0011124E252FF4FE491F0E0EE0FFF
:100FE000FF1FE254FE4F932F80E0822B918380837A
:100FF000089510921501EDEDF0E084910E949C0798
:10100000ECEDF0E084910C94A007369A08950E94CC
:1010100066259093DD018093DC010E944226909327
:10102000DF018093DE010C94ED0C60E08FE10E9403
:10103000A13C60E08FE10E94693C61E081E00E9498
:10104000693C61E082E00E94693C61E083E00E94CB
:10105000693C87E886B90C94F907CF93DF93D09168
:1010600015018D2F0E94CD07882321F0C0914602E3
:10107000C17001C0C0E085E0D89FF0011124E452A6
:10108000FF4F8491C11109C02091790330917A03F7
:10109000232B21F0873011F4C1E085E00E94A007E6
:1010A000E0911501EF5F85E0E89FF0011124E35224
:1010B000FF4F84910E949C078CE390E00E942E3C9D
:1010C0000E9405083699FECFD09115018D2F8F5FB4
:1010D0000E94E50785E0D89FF0011124E352FF4FFD
:1010E00084910E949C078CE390E00E942E3C0E9419
:1010F00005083699FECFC11104C0809115010E94E8
:10110000E507809115018F5F0E94D90781110E9428
:101110001A07809115018E5F803118F480931501B4
:1011200002C0109215010E94F308882341F08091BB
:101130001501811104C0DF91CF910C940708DF9154
:10114000CF9108950C94F907CF93DF930E94E10AA1
:10115000C0912C01D0912D0102C00E942D088091D8
:101160002C0190912D01C817D907B9F3DF91CF91C8
:101170000895CF92DF92EF92FF92CF93DF93EC012D
:101180000E945B2C6B017C01CC0EDD1EE11CF11C6E
:101190000E942D080E945B2C6C157D058E059F0515
:1011A000B8F3DF91CF91FF90EF90DF90CF9008954B
:1011B000E82FF0E0EE0FFF1FE052FE4F808191819B
:1011C0000895E82FF0E0EE0FFF1FEA58FE4F8081F0
:1011D00091810895E82FF0E0EE0FFF1FE254FE4FDB
:1011E00080819181089580914802089580912C0119
:1011F00090912D010895E82FF0E0EE0FFF1FE25DC2
:10120000FE4F808191810895613110F4423040F0A9
:1012100021E030E0FC013383228331832083089571
:10122000242F30E0260F311D260F311D220F331FD2
:10123000220F331F2E5F3F4F44E050E0B9010C9462
:10124000C33D282FCA01213188F4623078F470E060
:10125000620F711D620F711D660F771F660F771F7A
:101260006E5F7F4F44E050E00C94E13D0895FF92A3
:101270000F931F93CF93DF9300D000D0CDB7DEB78D
:10128000F12C88E0F89E80011124F801EC5AFF4F00
:10129000459155916591749149835A836B837C8301
:1012A000AE014F5F5F4F60E08F2D0E942109F80172
:1012B000E85AFF4F459155916591749149835A833E
:1012C0006B837C83AE014F5F5F4F61E08F2D0E9487
:1012D0002109F39481E1F812D4CF0F900F900F9071
:1012E0000F90DF91CF911F910F91FF900895E82FFC
:1012F000F0E0EE0FFF1FEA58FE4F20813181E82F0A
:10130000E250E83170F4F0E0E159FF4F808188232A
:1013100019F0813061F405C081E02333310540F4D8
:1013200004C081E0293E334018F480E0089581E054
:101330000895CF93C0E08C2F825E0E9477098823A6
:1013400019F0CF5FC630B9F78C2FCF910895209157
:10135000A2013091A3018091160190911701A091F3
:101360001801B0911901820F931FA11DB11D809327
:10137000160190931701A0931801B09319010895D5
:1013800060911601709117018091180190911901D7
:101390002DE730E040E050E00E944F3D7727652F79
:1013A000542F432FCA010895ECE9F1E08081918127
:1013B00008958091540190915501039750F08091C8
:1013C0005A0190915B01039720F083E090E00C9428
:1013D000AA0E80E0089590E0880F991FFC01EA585A
:1013E000FE4F208131816217730718F4261B370BDB
:1013F00004C0AB01421B530B9A01FC01E25DFE4F9E
:101400002730310518F01182108206C02081318109
:101410002F5F3F4F31832083FC01EA58FE4F7183D9
:1014200060830895CF92DF92EF92FF920F931F9304
:10143000CF93DF93C0917601D091770160918601BF
:1014400070918701809188019091890168177907CF
:1014500028F49C01261B370BB90102C0681B790BCD
:101460008EE10E94EB096091880170918901809161
:101470008A0190918B016817790728F49C01261B3B
:10148000370BB90102C0681B790B8FE10E94EB0991
:1014900060918C0170918D0180E20E94EB09609156
:1014A0008E0170918F0181E20E94EB0960919001A1
:1014B0007091910182E20E94EB096091920170911A
:1014C000930183E20E94EB090E949909F82E80E0C3
:1014D00000E010E00CC0E82FE25EF0E0EE0FFF1F2E
:1014E000EA58FE4F20813181020F131F8F5F8F1149
:1014F000F2CFB80182E10E94EB090115110549F014
:101500000C171D0748F49E01201B310B293E334068
:1015100018F010E0F12C02C0E80112E1BE0183E1F5
:101520000E94EB096F2D70E085E10E94EB09612FAD
:1015300070E084E10E94EB090E94C0098C010E94C6
:101540003326882329F0E0907C01F0907D010BC0C8
:101550000E945725882329F0E0907A01F0907B01C2
:1015600002C0E12CF12CB70186E10E94EB09B80121
:1015700088E10E94EB099701DE010E94013D30E104
:10158000C32E37E2D32EE12CF12CA70196010E9445
:101590004F3DB90187E10E94EB099801DE010E94ED
:1015A000013DA70196010E944F3DB90189E1DF91FC
:1015B000CF911F910F91FF90EF90DF90CF900C94FF
:1015C000EB09109247021092460280E094E0899F56
:1015D000F0011124EE5FFD4F1082118212821382FE
:1015E0008F5F813199F70895109229011092280197
:1015F00010922401109225011092260110922701C9
:1016000010922001109221011092220110922301C8
:1016100010922B0110922A0110921F0110921E01AC
:101620000E945B2C60931A0170931B0180931C0134
:1016300090931D01089580E0E82FF0E0EE0FFF1F6A
:10164000E25DFE4F118210828F5F8432A9F7089508
:101650000E94E10A0C941B0B10922D0110922C0198
:101660001092160110921701109218011092190190
:101670000E94A2080E94280B0E94F40A80E0E82F32
:10168000F0E0EE0FFF1FEA58FE4F118210828F5FCD
:101690008432A9F708958091480281110AC081E03F
:1016A0000E9469050E942C0B81E0809348020C94F3
:1016B000A40808951092480280E00C9469052091D6
:1016C000C0013091C1018091BE019091BF0182178C
:1016D000930718F4281B390B02C020E030E081E0AA
:1016E000293E334008F480E008958F929F92AF9294
:1016F000BF92CF92DF92EF92FF92CF93DF93CDB75D
:10170000DEB728970FB6F894DEBF0FBECDBFF82E18
:101710005B0140E0682FCE0105960E94040941E07C
:101720006F2DCE0101960E9404092B813C8140E07F
:1017300050E0CF80D884E12CF12C2C193D094E09C2
:101740005F09B50180E090E08D809E80A12CB12CD6
:10175000681979098A099B090E941F3D29813A81EC
:1017600040E050E0281939094A095B090E94713D9F
:101770002C0D3D1D4E1D5F1D57FF03C020E030E0C6
:10178000A901C90128960FB6F894DEBF0FBECDBFE0
:10179000DF91CF91FF90EF90DF90CF90BF90AF900F
:1017A0009F908F9008951F93CF93DF9380912C018A
:1017B00090912D01019690932D0180932C0110E0C2
:1017C000C12FD0E0FE01EE0FFF1FEE0FFF1FEE5FF7
:1017D000FD4F209146023091470240E050E0608189
:1017E0007181828193810E944F3DCC0FDD1FC052D9
:1017F000DE4F39832883B901812F0E94750BBC010C
:10180000812F0E94EB091F5F1131D1F60E94120A4D
:101810000E946238DF91CF911F910C94E10A0F93DF
:101820001F93CF93DF93C1E020919E0130919F01E0
:101830008091240190912501A0912601B09127016A
:101840002231310531F0C0E02091BE013091BF015D
:1018500004C020919C0130919D01820F931FA11D16
:10186000B11D8093240190932501A0932601B0938C
:1018700027012091CC013091CD01809120019091E0
:101880002101A0912201B0912301820F931FA11D7C
:10189000B11D8093200190932101A0932201B09368
:1018A00023018091280190912901019690932901AB
:1018B000809328010E945B2C00911A0110911B015A
:1018C00020911C0130911D01601B710B820B930B49
:1018D00061367A4E8105910508F47AC080912A011B
:1018E00090912B01019690932B0180932A012091D6
:1018F00028013091290140E050E06091240170916D
:10190000250180912601909127010E944F3D109260
:101910002401109225011092260110922701C11175
:1019200006C0B90180E00E94750B8C0101C08901DD
:10193000C091AC01D091AD010C171D0720F0B8018A
:101940008BE10E94EB09B8016C1B7D0B8AE10E94C0
:10195000EB09209128013091290140E050E060918D
:1019600020017091210180912201909123010E9418
:101970004F3D1092200110922101109222011092ED
:101980002301B90187E00E94750B20911E0130915F
:101990001F0190931F0180931E01BC01621B730BFA
:1019A0008CE10E94EB0960912801709129018DE181
:1019B0000E94EB0910922901109228010E945B2CD1
:1019C00060931A0170931B0180931C0190931D0179
:1019D000DF91CF911F910F91089540E0A42FB0E0C7
:1019E000FD01EE0FFF1FEE0FFF1FEE5FFD4FAA0F71
:1019F000BB1FA254BE4F2D913C9180819181A28149
:101A0000B381820F931FA11DB11D80839183A28397
:101A1000B3834F5F413111F78091460290914702A5
:101A2000019690934702809346020E940F0C80918A
:101A30004602909147028436910511F40C94D30B21
:101A400008958F929F92AF92BF92CF92DF92EF92C2
:101A5000FF92CF93DF93CDB7DEB728970FB6F894F8
:101A6000DEBF0FBECDBFF82E5B0140E0682FCE0178
:101A700005960E94040941E06F2DCE0101960E9457
:101A8000040929813A8140E050E0CD80DE80E12CDC
:101A9000F12C2C193D094E095F09B50180E090E059
:101AA0008F809884A12CB12C681979098A099B0927
:101AB0000E941F3D2B813C8140E050E028193909EC
:101AC0004A095B090E94713D2C0D3D1D4E1D5F1D95
:101AD00057FF03C020E030E0A901C90128960FB6E6
:101AE000F894DEBF0FBECDBFDF91CF91FF90EF9096
:101AF000DF90CF90BF90AF909F908F9008950C94FF
:101B00002C0B462FE82FF0E0EE0FFF1FEA58FE4F98
:101B1000208131818250883130F4E82FF0E0E159A2
:101B2000FF4F608101C061E0C9010C941216825E12
:101B30000C94E10880916F02089580916D028111EB
:101B400012C00E94F308882381F00E94F6082091B9
:101B5000490230914A02821B930B9C0181E025309F
:101B6000310520F002C081E0089580E008950F93D0
:101B70001F93CF93DF9310E0CFEFDFEF00E009C0BA
:101B8000812F0E94970D8C179D0710F4EC01012FF7
:101B90001F5F80916F02181798F3802FDF91CF910C
:101BA0001F910F910895CF93DF9390916D02911142
:101BB00004C0DF91CF910C94970D90915302C82FE0
:101BC000D0E0992391F00E94970DCC0FDD1FFE010C
:101BD000EC5AFD4FC05ADD4F208131814881598137
:101BE000241B350B280F391F07C0FE01EE0FFF1F06
:101BF000EC5AFD4F20813181C901DF91CF910895C9
:101C0000CF93C82F80916D02882341F0C11106C087
:101C10000E94F60890934A0280934902C0936D0295
:101C20000E945B2C60934B0270934C0280934D0298
:101C300090934E020E941B0B80916C02811104C094
:101C40008C2FCF910C94A505CF91089580E00E9430
:101C5000000E81E080936C0208950E94260E80E0C1
:101C60000C940D05EF92FF920F931F93CF93DF9388
:101C700081E00E940D0585E10E94E10880936F02DA
:101C800000E612E034E5E32E32E0F32EC0E0D0E0CF
:101C90000CC08C2F0E94970DF801819391938F01B6
:101CA000F701819391937F01219680916F0290E0DB
:101CB000C817D90774F310926D0210926C0280E07D
:101CC0000E94000E10924A021092490210924B029A
:101CD00010924C0210924D0210924E02DF91CF9161
:101CE0001F910F91FF90EF900895FF920F931F9314
:101CF000CF93DF9380916E020E94D30DEC01F12C03
:101D000001E010E01CC08F2D0E94D30DAC0180912A
:101D10006D02802321F0C417D50778F40DC02091FF
:101D20007703309178032F5F3F4F369527952C0F1F
:101D30003D1F2417350708F4102B000FF3948091F2
:101D40006F02F81600F3812FDF91CF911F910F9151
:101D5000FF9008951F93CF93DF93EC0110E008C02C
:101D6000812F825E0E94FB088C179D0738F01F5F51
:101D700080916F021817A0F381E001C080E0DF912D
:101D8000CF911F910895BF92CF92DF92EF92FF9271
:101D90000F931F93CF93DF938AE090E00E94AA0EE7
:101DA000882309F461C00E94B70D80936E020E94DF
:101DB000970D8C0162E08EE792E00E94ED19081702
:101DC000190750F174E5E72E72E0F72EE0E6CE2E0B
:101DD000E2E0DE2EC0E0D0E0BB24B39416C08C2F2E
:101DE0000E94970DF701819391937F01F6018193F2
:101DF00091936F01801B910B2091770330917803B1
:101E00002817390708F4B12C219680916F0290E0D1
:101E1000C817D90724F302C0BB24B394109253020D
:101E20000E945B2C60934F0270935002809351028A
:101E300090935202BB2059F0DF91CF911F910F91E7
:101E4000FF90EF90DF90CF90BF900C94260E0E94F1
:101E5000750EDF91CF911F910F91FF90EF90DF9062
:101E6000CF90BF900C94000EDF91CF911F910F91F6
:101E7000FF90EF90DF90CF90BF900895CF93809127
:101E80005302811119C081E08093530280916E0248
:101E90000E94970DC0E00CC08C2F0E94970DEC2F74
:101EA000F0E0EE0FFF1FE05AFD4F91838083CF5F7C
:101EB00080916F02C81780F3CF9108950F931F93FD
:101EC0000E945B2C00914F02109150022091510210
:101ED00030915202601B710B820B930B28EE33E0A2
:101EE00040E050E00E944F3DC9011F910F910895BD
:101EF00083E090E00E94AA0E8823C9F080916D02D1
:101F0000811103C00E94C30E12C00E943E0F0E94A6
:101F1000750E90E08095909520916D0230E08223BF
:101F20009323892B81F40E945E0F4F9760F40E94E7
:101F30009D0D882311F082E0089580916C02882322
:101F4000D1F381E0089580E00E94000EF0CF1F934E
:101F5000CF93DF93EC0110E00FC0812F0E94970D0B
:101F60008C179D0710F081E00CC0812F0E94D30DCB
:101F70008C179D07C0F71F5F80916F02181768F3D9
:101F800080E0DF91CF911F9108951F93CF93DF934E
:101F9000EC0110E00FC0812F0E94970DC817D907E0
:101FA00010F081E00CC0812F0E94D30DC817D90713
:101FB000C0F71F5F80916F02181768F380E0DF9110
:101FC000CF911F91089560916F02662321F070E018
:101FD0000E943B3D02C060E070E0CB0108950E948A
:101FE00064120E94B6200E94B5350E94832D88E0BD
:101FF0000C94CB350E9464120E94C42086E00E949B
:10200000CB350E94832D88E00C94CB35E091700293
:10201000F091710285919491FC010994E091700214
:10202000F0917102329685919491FC010994E091AE
:102030007002F0917102349685919491FC0109949B
:10204000CF93DF931F92CDB7DEB7811107C00E94F7
:10205000871F0E940E100E94FA0F0FC0813059F4A2
:1020600069830E94871F0E940E106981611105C05B
:102070000E94EF0F02C081E001C080E00F90DF916D
:10208000CF910895BF92CF92DF92EF92FF920F937C
:102090001F93CF93DF938C01C62E0E9406100E94DF
:1020A000691F0E94A82D0E946412F12C82E0D82E94
:1020B000C0E0D0E0EE24E3940E94A135811106C077
:1020C000F801EF0DF11D84910E941E220E94F21171
:1020D000B82E84E0B81209C0EF2DF0E03196E00F81
:1020E000F11FE491E11123C005C082E0B81202C0E3
:1020F000F110FA94EE2081F00E94B22DD82E6C2DB2
:102100000E942010E82E882339F00E94F608C81794
:10211000D90779F4E11003C0C11016C0E12C81E0A9
:10212000B812CACF0E94871F0E940E100DC0F394F0
:10213000E1CF0E94F608EC010E941710D82E6C2DFA
:102140000E942010E82EE6CF8D2DDF91CF911F91B8
:102150000F91FF90EF90DF90CF90BF900895FC011A
:1021600024812052621710F40C943818862F90E0C6
:10217000821B91090E94CB1A6EE00C94A21360E0BE
:1021800082E792E00E94341987FD0AC0811102C0E3
:102190000C94FD32992787FD909501970C941C288B
:1021A00008950E946E050E94BD360E94493362E484
:1021B00071E082E391E00E94992088EE93E00E9412
:1021C000B90880E00C94413B61E571E082E792E060
:1021D0000E9446188BE890E09093730280937202FD
:1021E000E6E7F2E08081805E80830895CF93DF93FD
:1021F000EC010E945C128B819C810E949F130E94C3
:1022000060126A8188819981DF91CF910C943B1390
:10221000FC0187818F3118F48F5F87830895868151
:102220008F5F86830895FC018781882319F0815090
:102230008783089586818150868308951F93CF9365
:10224000DF93FC01C681D0E06D2F80E00E94561222
:102250001C2F105F8C2FCF5F0E94F9138C2FC1139E
:10226000FACFDF5FD23081F7DF91CF911F910895D0
:102270001F93CF93DF93EC0180EF90E00E94131740
:102280001FEF8E81181721F0CE010E941E111E81B2
:102290008F81682F70E094E0759567959A95E1F7C6
:1022A0008F700E9456120E94F211823049F08430E1
:1022B00019F0813049F413C0CE010E940811E1CF1A
:1022C000CE010E941311DDCF8830D9F68D81E881CF
:1022D000F981E80FF11D8F819E81890F8083DF9145
:1022E000CF911F910895FC017183608342833483F1
:1022F0002383158280E2868317820895CF93DF932C
:10230000EC0180EF90E00E9413170E946412CE014E
:102310000E94F61061E08D810E9456120E94F21117
:102320008230B1F0843041F08130C1F480EF90E030
:102330000E941B1780E026C04D81242F30E08A8147
:1023400090E00197281739072CF74F5F4D83E2CFB4
:102350008D818823F9F281508D83DCCF8830D1F6CE
:1023600082E00E944512823048F083E00E94CB3523
:1023700080EF90E00E941B1781E004C0CE010E9414
:102380003811C3CFDF91CF9108950C94E804E09108
:102390007C02F0E0EE0FFF1FE35AFE4F25913491CF
:1023A000C9010895CF93DF93D82F0E94E80407C096
:1023B00082E390E00E94B9080E94E804DC2FC82F55
:1023C0008D13F6CF10927C0210927B0280937D02D7
:1023D000882319F080E00E94D73580917D02DF913B
:1023E000CF910895FF920F931F93CF93DF93C0E097
:1023F000D0E0F12C0AEF10E015C00E94E804F82E9E
:1024000081E090E00E94B90880917D02F81202C03C
:10241000219608C08F2DDF91CF911F910F91FF90D2
:102420000C94D21140917C02242F30E0220F331FF4
:10243000F901E559FE4F65917491C8010E943B3D39
:102440006F5F7F4FC617D707C0F2FF20B1F05091E2
:102450007B025F5F50937B02F901E758FE4F859145
:102460009491252F30E02817390738F0463018F4BA
:102470004F5F40937C0210927B0280917D02DF913E
:10248000CF911F910F91FF900895CF93DF93D82F95
:10249000C0917D020E94F21190917C029D1711F073
:1024A0008C17C1F3892FDF91CF910895462F682FA4
:1024B00080EF90E00C942A1760E080E00C945612B4
:1024C00061E080E00C94561280EF90E00C94571776
:1024D000CF93DF93FC01DB018C91882389F0C081CD
:1024E000D1814883808191810196918380838C91F1
:1024F00081508C93882321F00190F081E02D10828F
:10250000DF91CF910895BF92CF92DF92EF92FF9229
:102510000F931F93CF93DF93EC018B017A01411549
:10252000510501F1CA010E949C3DF8019081B82E2D
:10253000981708F4B92ECB2CD12CA601B7018881AD
:1025400099810E94A53D288139812C0D3D1D39833B
:102550002883F80180818B198083882319F0E88112
:10256000F9811082DF91CF911F910F91FF90EF9031
:10257000DF90CF90BF900895EF92FF921F93CF937B
:10258000DF9300D000D0CDB7DEB77C01CA014B830A
:102590005C8369837A830E94D72C182F69817A81A2
:1025A000DB018C914B815C81811768F44FE3C7019B
:1025B0000F900F900F900F90DF91CF911F91FF9090
:1025C000EF900C946812F70120813181210F311DA9
:1025D00031832083DB018C91811B8C93882321F034
:1025E0000190F081E02D1082F9012AE030E00CC06A
:1025F000CA01B9010E943B3D405DBAE06B9F4019A2
:10260000112442931150AB011111F2CF0F900F9092
:102610000F900F90DF91CF911F91FF90EF90089551
:102620000F931F93CF93DF93CDB7DEB72B970FB6E2
:10263000F894DEBF0FBECDBF8E010F5F1F4F1A870C
:10264000098727E02B87AC01BE01655F7F4FCE0174
:1026500009960E94BC12B80180EF90E00E94D83B1E
:102660002B960FB6F894DEBF0FBECDBFDF91CF9192
:102670001F910F9108951F93CF93DF93CDB7DEB7CE
:1026800061970FB6F894DEBF0FBECDBF0097D1F0B3
:10269000162F613108F010E1412F50E0BC01CE014E
:1026A00001960E94B43DE1E0F0E0EC0FFD1FE10F68
:1026B000F11D1082BE016F5F7F4F80EF90E00E949E
:1026C000D83B01C080E061960FB6F894DEBF0FBE24
:1026D000CDBFDF91CF911F9108951F93CF93DF93CB
:1026E000CDB7DEB761970FB6F894DEBF0FBECDBF92
:1026F0000097D1F0162F613108F010E1412F50E022
:10270000BC01CE0101960E94A53DE1E0F0E0EC0F96
:10271000FD1FE10FF11D1082BE016F5F7F4F80EF43
:1027200090E00E94D83B01C080E061960FB6F8941B
:10273000DEBF0FBECDBFDF91CF911F91089560E145
:102740000C946D13CF92DF92EF92FF920F931F9331
:10275000CF93DF93CDB7DEB762970FB6F894DEBFA5
:102760000FBECDBF009761F1613108F060E17C01DF
:10277000CC24C394D12CCC0EDD1E86011CC0C70115
:102780006A8B0E94D33DF80181938F01FFEFEF1A0E
:10279000FF0A6A8981110FC0E1E0F0E0EC0FFD1F34
:1027A000E60FF11D1082BE016F5F7F4F80EF90E05A
:1027B0000E94D83B06C0802F8C19861700F3ECCFFF
:1027C00080E062960FB6F894DEBF0FBECDBFDF91FA
:1027D000CF911F910F91FF90EF90DF90CF900895D0
:1027E000882319F08BE891E002C08FE891E00C9407
:1027F0009F13682F80EF90E00C94DA3BCF93DF9328
:102800001F92CDB7DEB7682F06C080E269830E94B1
:10281000F913698161506430C4F787E891E00F9043
:10282000DF91CF910C946D130F931F93CF93DF9390
:10283000062F142F64E670E00E943B3DEB0180E21E
:102840000E94F91380E20E94F913C436D10548F4BE
:1028500080E20E94F913CA30D10518F480E20E9488
:10286000F913CE010E941013802F0E94F913812FBB
:102870000E94F91380E2DF91CF911F910F910C9488
:10288000F913CF93DF93D82FC0E004C080E20E94F9
:10289000F913CF5FCD13FACF8C2FDF91CF9108952D
:1028A00080E10C9441146AE00E942F3D892F805DE5
:1028B0000C94F913DF92EF92FF920F931F93CF9333
:1028C000DF93EC01162F16160CF059C064E670E089
:1028D0000E943B3DD62EE72ECB010E94D72C082F1D
:1028E00023E0F22EF80E04C080E20E94F91311508A
:1028F000F116D4F3412F552747FD50952F2D33273F
:1029000027FD3095235031094217530754F4812F86
:10291000DF91CF911F910F91FF90EF90DF900C947A
:10292000FE138D2D9E2D0E941013CE0164E670E0E3
:102930000E943B3DEC01101B012F015011161CF4AD
:102940008EE20E94F913102F1150101644F4CE019C
:102950006AE070E00E943B3D862F0E9453141116DE
:1029600074F4CE016AE070E00E943B3DDF91CF91AC
:102970001F910F91FF90EF90DF900C945314DF9113
:10298000CF911F910F91FF90EF90DF900895CF921C
:10299000DF92EF92FF920F931F93CF93DF93EC019F
:1029A000162FC42E16160CF088C068EE73E00E9435
:1029B0003B3DD62EE72ECB010E94D72CF82E082FB8
:1029C0000C5F04C080E20E94F91311500117D4F388
:1029D0001017DCF0C11019C0CE010E94D72C082FAF
:1029E00003C080E20E94F91311500117D4F3CE0105
:1029F0000E9410138DE6DF91CF911F910F91FF90F0
:102A0000EF90DF90CF900C94F913412F552747FD9D
:102A10005095202F332727FD309524503109421738
:102A200053075CF4812FDF91CF911F910F91FF909D
:102A3000EF90DF90CF900C94FE138D2D9E2D0E9471
:102A40001013CE0168EE73E00E943B3DEC011F19AC
:102A5000012F015011161CF48EE20E94F913102F61
:102A60001150101644F4CE0164E670E00E943B3D24
:102A7000862F0E945314CE0164E670E00E943B3D15
:102A8000EC01012F015011163CF46AE070E00E9445
:102A90003B3D862F0E94531410167CF4CE016AE051
:102AA00070E00E943B3DDF91CF911F910F91FF900D
:102AB000EF90DF90CF900C945314DF91CF911F9142
:102AC0000F91FF90EF90DF90CF9008956F927F92DB
:102AD0008F929F92AF92BF92CF92DF92EF92FF922E
:102AE0000F931F93CF93DF937C01962E742E822E2B
:102AF00016160CF044C021119A94C7010E94D72CDD
:102B0000C0E0D0E0082F10E0A92CBB24A7FCB094B3
:102B100004C0872D0E94F9132196692C6C1A650157
:102B2000CC1ADD0A0C151D05A4F3882019F08DE2DE
:102B30000E94F913C016D1068CF4862DDF91CF9137
:102B40001F910F91FF90EF90DF90CF90BF90AF90CB
:102B50009F908F907F906F900C94FE13C701DF9130
:102B6000CF911F910F91FF90EF90DF90CF90BF908A
:102B7000AF909F908F907F906F900C941013DF9187
:102B8000CF911F910F91FF90EF90DF90CF90BF906A
:102B9000AF909F908F907F906F90089520E00C945D
:102BA000661540E20C94CE15CF93DF936CE370E092
:102BB0000E943B3D9B01EC0140E363E0C9010E94A0
:102BC000CE158AE30E94F91340E362E0CE01DF9163
:102BD000CF910C94CE15292F221F2227221F19F0E6
:102BE00091958195910940E20C946615161634F47E
:102BF00061500E945A1483E40C94F9130895161638
:102C000034F461500E94D11585E20C94F9130895B3
:102C100063303CF062500E94D11583E991E00C943E
:102C20009F130895CF93DF93C62F1416C4F5642F16
:102C30006150C33079F020F4C13091F048F41EC0E7
:102C4000C530D9F078F0C63091F0C730D1F411C05A
:102C500040E201C048E667E5DF91CF910C9414147F
:102C6000D6E510C0642FDF91CF910C94F615D4EF08
:102C700006C00E94EB1585E50EC06150D1E440E02E
:102C800002C0D5E541E00E94C7148D2F0E94F913C0
:102C9000C53029F488E6DF91CF910C94F913DF91C8
:102CA000CF910895462F66E00C941216462F61E0EE
:102CB0000C941216462F60E00C941216462F65E015
:102CC0000C941216CF93DF93EC0160E08E810E948A
:102CD000A13C81E090E00E942E3C61E08E810E9448
:102CE000A13C81E090E00E942E3C60E08E810E9439
:102CF000A13C84E690E0DF91CF910C942E3CCF92E2
:102D0000DF92EF92FF920F931F93CF93DF937C019B
:102D1000C0E0D0E0C62ED12C87010C0F1D1F61E052
:102D2000F80187810E94693CB6010C2E02C075959E
:102D300067950A94E2F761707727F80187810E940E
:102D4000A13C2196C430D10539F7C701DF91CF915D
:102D50001F910F91FF90EF90DF90CF900C9462162F
:102D6000CF92DF92EF92FF920F931F93CF93DF9357
:102D70007C01C0E0D0E0C62ED12C87010C0F1D1FB6
:102D800061E0F80187810E94693CB6010C2E02C007
:102D9000759567950A94E2F761707727F801878146
:102DA0000E94A13C2196C830D10539F7C701DF91B7
:102DB000CF911F910F91FF90EF90DF90CF900C94E7
:102DC00062161F93CF93DF93EC01162F642F8C8133
:102DD0000E94A13C8D818F3F19F060E00E94A13CD0
:102DE0008F85612F84FF06C0CE01DF91CF911F91A7
:102DF0000C94B01670E084E0759567958A95E1F7BC
:102E0000CE010E947F16612FCE01DF91CF911F91DD
:102E10000C947F1641E00E94E11681E090E0089555
:102E200040E00C94E116FC016089262F2160208B84
:102E300069600C941017FC0160896E7F608B68607C
:102E40000C941017FC016089262F2460208B6C6085
:102E50000C941017CF93DF93CDB7DEB728970FB63A
:102E6000F894DEBF0FBECDBF28E0E7E6F0E0DE015C
:102E7000119601900D922A95E1F7FC0123894217E2
:102E800010F0422F4150FE013196E40FF11DE40F86
:102E9000F11D2081260F2068622F28960FB6F89426
:102EA000DEBF0FBECDBFDF91CF910C94101761E054
:102EB0000E94101780ED97E00C942E3CCF93DF9387
:102EC000EC01423018F08F8588608F874B8B1C8A0D
:102ED000222329F0413019F48F8584608F8780E5A3
:102EE00093EC0E942E3C60E08C810E94A13C60E04B
:102EF0008E810E94A13C8D818F3F19F060E00E947D
:102F0000A13C6F8564FD1DC063E0CE010E947F1669
:102F100084E991E10E942E3C63E0CE010E947F167D
:102F200084E991E10E942E3C63E0CE010E947F166D
:102F300086E990E00E942E3C62E0CE010E947F165E
:102F400016C06062CE010E94101784E991E10E94D0
:102F50002E3C6F856062CE010E94101786E990E0DA
:102F60000E942E3C6F856062CE010E9410176F8513
:102F70006062CE010E94101784E0888BCE010E940F
:102F80002217CE010E94571782E0898B66E0CE019E
:102F9000DF91CF910C9410176F927F928F92AF9226
:102FA000CF92EF920F931F93CF93DF93CDB7DEB7FE
:102FB0003C01162F842F5D854E853F859889F3014E
:102FC000848325830683E782C086A1868286538711
:102FD00044873587968761E00E94693CF3018581CB
:102FE0008F3F19F061E00E94693C61E0F301868146
:102FF0000E94693C112319F0F301178603C080E198
:10300000F301878720E041E060E1C301DF91CF91C8
:103010001F910F91EF90CF90AF908F907F906F9016
:103020000C945E178F92AF92CF92EF920F93DC01C8
:1030300013961C921E921297E1E9F0E0ED93FC9337
:103040001F921F921F921F928C2CAE2CC02EE22E2C
:10305000042F2FEF462F61E00E94CC170F900F90A6
:103060000F900F900F91EF90CF90AF908F900895A9
:10307000FC0127818085E22FF82FE60FF11DE60F76
:10308000F11D25913491C9010C949F130F931F9347
:10309000CF93DF93EC018B01CB010E948E2C682F24
:1030A000CE010E94A91889E990E099838883188746
:1030B0000F83DF91CF911F910F910895DF92EF92CF
:1030C000FF920F931F93CF93DF93EC01F62E698746
:1030D0001A8681E08D8382E0D82EEE24E3948E015F
:1030E000075F1F4F0E94F211482F823011F0843089
:1030F00061F4E881F9810280F381E02D6F2DCE012A
:103100000995F986DA86ED8204C0813089F088302D
:1031100079F0C8010E94972D8111ED828D8188235D
:1031200019F0CE010E94D6188A858F5F8A87DACF80
:103130008FEF898781E08E838D83483009F080E0AE
:10314000DF91CF911F910F91FF90EF90DF90089545
:103150000895FC018FE990E09183808312821382AD
:10316000648381E0858386830895FC012281211197
:1031700003C081E082830895438130E0240F311D34
:10318000848190E001972817390714F44F5F438337
:103190000895FC018281882319F08150828308956B
:1031A0008381882311F08150838308951F93CF93E7
:1031B000DF93EC0110E0612F80E00E94561280E264
:1031C0000E94F913E881F9816B81610F0190F08110
:1031D000E02DCE0109950E9450141F5F123059F75F
:1031E0006A8180E00E9456128EE30E94F9136A8180
:1031F0008FE00E9456128CE30E94F9131D82DF912A
:10320000CF911F9108950F931F93CF93DF93EC01FC
:103210000E94F211182F0E94A135882321F081E02D
:103220008D831FE71BC00B818A81080F123031F09C
:10323000143039F4CE010E94B51803C0CE010E94AB
:10324000C9188B819A81890F081711F081E08D834D
:103250008D81882319F0CE010E94D618812FDF912D
:10326000CF911F910F910895EF92FF921F93CF93EB
:10327000DF931F92CDB7DEB77C0181E0F701858334
:1032800011E0C70169830E9403196981811102C09D
:10329000F7011682F7019681911108C0883031F448
:1032A00081E0868383819281890F09C0662311F0B2
:1032B000F7011583813029F79111E3CF8FEF0F903C
:1032C000DF91CF911F91FF90EF9008950F931F937F
:1032D000CF93DF93EC018B0150E00E94BC124AE3D4
:1032E000B801CE01DF91CF911F910F910C9468121C
:1032F000EF92FF920F931F93CF93DF9300D01F9213
:10330000CDB7DEB78C01462F0B969A8389838EE06A
:103310008B83D801EC91F0E0EE0FFF1FEA56FE4FD1
:10332000E590F490BE016D5F7F4FCE0101960E9443
:103330006619A701BE016D5F7F4FCE0101960E9405
:10334000831240E2BE016D5F7F4FCE0101960E9465
:103350006812F80141815281BE016D5F7F4FCE013D
:1033600001960E94BC124FE2BE016D5F7F4FCE01FD
:1033700001960E946812D80117964D915C9118979A
:10338000BE016D5F7F4FCE0101960E94BC120F906F
:103390000F900F90DF91CF911F910F91FF90EF90C1
:1033A000089529E1289FB001299F700D11246457C9
:1033B0007F4F49E150E08EE792E00C94C33D29E154
:1033C000289FB001299F700D112464577F4F49E158
:1033D00050E08EE792E00C94E13DDC01EC91B6E028
:1033E000EB9FF0011124E60FF11DEE0FFF1FEA55D0
:1033F000FE4F25913491C9010895CF93DF93EC01DD
:103400000E94ED194F815885849F9001859F300D52
:10341000949F300D1124C901DF91CF9108950F932E
:103420001F93FC01A181B28120917103309172033D
:103430000E94013D24E630E040E050E00E944F3D14
:1034400089019A01093EFDEF1F072105310520F092
:1034500008EE1DEF20E030E0C8011F910F910895A4
:10346000FC01818592850895FC012081213029F499
:1034700020916D0330916E0309C0223029F4209110
:103480006B0330916C0302C020E030E0FC018781C7
:103490009085289FA001299F500D389F500D112421
:1034A000CA010895E9E6F3E0808191810895FC0165
:1034B0006081FBE06F9FB00111246A5F7D4F4BE09C
:1034C00050E00C94933DDC01EC91F0E0EE0FFF1F17
:1034D000EA56FE4F25913491C9010C946D1360E1B9
:1034E00070E00C94631ACF93DF93EC01888160E065
:1034F000811108C0CE010E94FD1967E00E94561696
:1035000087E011C0CE010E94FD1965E00E945616A9
:103510008FE20E94F9138F8198850E94101383E433
:103520000E94F91388E0DF91CF91089566E0FC01D5
:10353000838194810E945A1686E0089566E0FC011A
:10354000858196810E945A1686E00895FC01818546
:103550009285883EF3E09F0729F48EE592E00E9471
:103560009F1302C00E94101388E692E00E949F13EE
:1035700086E00895FC0181819281883EFDEF9F07DE
:1035800029F48DE692E00E949F1303C067E00E9439
:103590005E1688E0089549E1489F9001499F300DEB
:1035A000112429563F4FC90108950F931F93CF93BC
:1035B000DF93CDB7DEB7A6970FB6F894DEBF0FBE88
:1035C000CDBF8C01AB01BC01CE0101960E94991CBC
:1035D000CE0101960E94071D89E1FE013C96D801AB
:1035E00001900D928A95E1F7A6960FB6F894DEBF8A
:1035F0000FBECDBFDF91CF911F910F910895FC01B8
:103600002081260F283010F4208302C0FC01108294
:103610000C94571A0F931F9361E00E94FD199C01AF
:1036200040E050E060E072EC8BEE9BE00E944F3D8A
:1036300089019A01093A81E618072105310520F030
:1036400008EA11E620E030E0C8011F910F910895CB
:103650000F931F9361E00E94FD199C0140E050E030
:1036600060E478E78DE791E00E944F3D89019A017F
:10367000013787E118072105310520F000E717E140
:1036800020E030E0C8011F910F9108950F931F9320
:10369000CF93DF9300D0CDB7DEB78C0169837A83F7
:1036A0000E940A1B20E0AC0169817A81C80103965F
:1036B0000F900F90DF91CF911F910F910C94252DBA
:1036C0000F931F93CF93DF9300D0CDB7DEB78C015C
:1036D00069837A830E94281B20E0AC0169817A818A
:1036E000C80105960F900F90DF91CF911F910F9118
:1036F0000C94252D48EE53E009960C94072D61E0BB
:103700000E94ED19BC0184ED92E60E943B3DCB0185
:1037100008950F931F93CF93DF9300D0CDB7DEB7FB
:103720008C0169837A830E947F1B21E0F80130813C
:1037300069817A81311120E0AC01C80107960F90B0
:103740000F90DF91CF911F910F910C94252DCF9366
:10375000DF93EC010E947F1B2F813885821793072E
:1037600010F498878F83CE010E940A1B2B813C8125
:103770008217930710F49C838B83CE010E94281B31
:103780002D813E818217930710F49E838D83DF91F4
:10379000CF910895CF93DF93EC0120E048EE5DEFE9
:1037A00001960E94252D89819A819C838B83288193
:1037B000233039F49C0136952795369527953C831F
:1037C0002B839E838D83CE01DF91CF910C94A71B19
:1037D000DF92EF92FF920F931F93CF93DF9300D06E
:1037E0001F92CDB7DEB74BE050E068E472E08EE7A1
:1037F00092E00E94933D8EE792E00E94A71B00E0BA
:1038000010E05EE0D52E69E8E62E62E0F62EDB825F
:10381000FA82E982402F4F5FBE016D5F7F4FCE017C
:1038200001960E946619C8010E94DF190F5F1F4FA1
:103830000032110561F70F900F900F90DF91CF913B
:103840001F910F91FF90EF90DF90089508950895D4
:10385000262F443019F06FEF7FEF02C061E070E077
:10386000223091F028F4222349F02130C9F409C014
:10387000243081F060F0253099F40FC00B960C9441
:10388000FF1A0B960C94891B0B960C94CA1B0B9673
:103890000C94461B0B960C94601B0B960C947A1B95
:1038A00008951F93CF93DF93EC01162F0E943818D1
:1038B000CE0109960E948C2D882311F0298501C024
:1038C0002FEF332727FD3095812F90E028173907F8
:1038D00059F11230B1F028F4112349F0113021F5DB
:1038E0000BC01430C1F090F01530F1F419C0CE01C6
:1038F0000B960E946F1A18C0CE010B960E94731A85
:1039000013C0CE010B960E94BA1A0EC0CE010B96C0
:103910000E94961A09C0CE010B960E949E1A04C0FE
:10392000CE010B960E94A61A80E0DF91CF911F91E5
:103930000895EF92FF920F931F93CF93DF93EC01C3
:103940008B017A0161EA72E00E9446188FEF898745
:1039500085EA90E09983888389E1F801DE011B966E
:1039600001900D928A95E1F7FDA2ECA2DF91CF9133
:103970001F910F91FF90EF9008950F931F93CF9396
:10398000DF93CDB7DEB728970FB6F894DEBF0FBE32
:10399000CDBF8C01BC016A5E7F4F23EB32E04EE06D
:1039A00050E0CE0101960E947311CE0101960E9453
:1039B0007E1181E0F801858328960FB6F894DEBF6A
:1039C0000FBECDBFDF91CF911F910F910895CF937F
:1039D000DF93EC016CA17DA16F5F7F4F0B960E947E
:1039E00078190E9464120E945C128EEB92E00E9491
:1039F0009F130E9460126EE0CE0146960E943B1318
:103A00000E94832D83E0DF91CF910C94CB35DF9220
:103A1000EF92FF920F931F93CF93DF93CDB7DEB753
:103A200069970FB6F894DEBF0FBECDBF8C0189E158
:103A3000D82E9BE0E92EF12CE00EF11E60E0C801CB
:103A40000E94341987FD2BC0863019F0873049F465
:103A500004C0C8010E94E71CF1CFC8010E94BD1C30
:103A6000EDCFF701DE0111969D2D01900D929A95F3
:103A7000E1F7682FC8010E945E18811109C0FE019C
:103A80003196D7018D2D01900D928A95E1F7D6CF11
:103A900083E00E94CB35C7010E94A71BCFCF699658
:103AA0000FB6F894DEBF0FBECDBFDF91CF911F914F
:103AB0000F91FF90EF90DF900895809165039091B2
:103AC0006603892BA1F08CE10E94E10865E02AE001
:103AD000AC01249FC001259F900D11240E94EB157D
:103AE0008DE60E94F91383E40E94F91304C08EEA64
:103AF00093E00E949F130C9450148AE10E94E10805
:103B000065E00E94EB158DE60E94F91386E50E94A0
:103B1000F9130C945014CF93DF9300D0CDB7DEB7D8
:103B200089839A830E945C1289819A810E949F13E3
:103B30000E9460128091CC029091CD020E949C3D27
:103B4000892B51F087E993E00E949F138091CC026A
:103B50009091CD020E949F130F900F90DF91CF9113
:103B60000C94501490E0880F991F62E08E5F9C4F78
:103B70000C946D130F931F93CF93DF9361E08EE747
:103B800092E00E94FD198C0165E08EE792E00E94B0
:103B9000FD19EC0183E10E94E10880179107B8F458
:103BA000C817D907B0F49C012C1B3D0BC8018C1B16
:103BB0009D0B64E670E00E943B3DC9010E943B3DC5
:103BC000CB016436710530F083E690E003C083E6F4
:103BD00001C080E0DF91CF911F910F910895613076
:103BE00011F40C94D30D0C94B429CF93DF93D82FF8
:103BF000C62F825E0E947709882351F06C2F8D2F8B
:103C00000E94EF1D46E06C2FDF91CF910C941216AD
:103C100081E293E0DF91CF910C949F13FF920F9379
:103C20001F93CF93DF93182F062F0E945C12809171
:103C3000A102882319F01092A10203C081E08093B1
:103C4000A10290919F028091A002992311F08F5FB1
:103C500001C081508093A0028091A00286301CF0A8
:103C600010929F0205C082301CF481E080939F0275
:103C70000E949D0D811108C083E090E00E94AA0E71
:103C8000882341F0C0E209C080915302882321F0CB
:103C9000C2E403C0CDE601C0C2E68C2F0E94F91336
:103CA00080916D02811119C024C080916E02C817E5
:103CB00051F080916D028D2341F08091A102882303
:103CC00031F08FEF05C08FE503C08DE201C080E2C7
:103CD0000E94F913DD0FCF5F02C0C0E0D1E00E9467
:103CE0009A0DC81710F30E949A0D97E0981B892F20
:103CF00025C080919F02882319F04EE3F42E02C064
:103D00003CE3F32ECD3611F0C032B9F4C1E0D0E07F
:103D10002091A002332727FD30952C173D0711F481
:103D20008F2D01C080E20E94F9132196C730D10582
:103D300079F780E20E94F91303C087E00E944114E2
:103D4000C12FCF5F8C2F0E9453148AE30E94F91376
:103D500011112BC00E943326882339F10E9442267C
:103D6000892B41F522C00E9450140E946012D12F6D
:103D7000DE5F8D2F0E9453148AE30E94F913602F97
:103D80008C2F0E94F51D812F8D5F0E9453148AE3B2
:103D90000E94F913602F8D2F0E94F51DDF91CF91A6
:103DA0001F910F91FF900C945014602F812F0E944F
:103DB000F51DD9CF88E293E00E949F13D4CF88E10C
:103DC0000E94E10868E00E945E1680E20C94F913FC
:103DD0000E945C128EE792E00E940F1A68E00E9437
:103DE0005E1680E20E94F9130E949D2967E00E94FE
:103DF0005A160E9450140E9460128DE293E00E94B5
:103E00009F1367E080915503909156030E945616C8
:103E10000C9450140F931F936091AC027091AD02FB
:103E20008091AE029091AF0220919702222371F00F
:103E30000E945B2C0091AC021091AD022091AE0269
:103E40003091AF02601B710B820B930B28EE33E0B5
:103E500040E050E00E944F3DC9011F910F9108952D
:103E60000E945725811110C00E943326882331F00B
:103E70000E94572581110AC084E40BC00E949D0D49
:103E8000811106C08EE405C083E403C085E401C04F
:103E900082E40E94F91380E20E94F9130E940A1F33
:103EA0000E94D41580E20C94F9130E945C120E94C7
:103EB000DF1E67E086E10E94810D0E9450140E947F
:103EC00060120E94301F67E083E10E94810D0C9414
:103ED00050140E945B2C6093AC027093AD028093EF
:103EE000AE029093AF021092A8021092A902109213
:103EF000AA021092AB021092A4021092A502109294
:103F0000A6021092A70281E08093970208950F9372
:103F10001F930E945B2C0091AC021091AD02209186
:103F2000AE023091AF02601B710B820B930B60935A
:103F3000AC027093AD028093AE029093AF021092E8
:103F400097021F910F9108950E945D2581111DC058
:103F50000E943926811119C00E949D0D882351F1BC
:103F60008091A8029091A902A091AA02B091AB02FF
:103F700080599F4FAF4FBF4F8093A8029093A902E3
:103F8000A093AA02B093AB0208958091A4029091ED
:103F9000A502A091A602B091A70280599F4FAF4FF2
:103FA000BF4F8093A4029093A502A093A602B09362
:103FB000A702D2CF08956091A4027091A5028091CA
:103FC000A6029091A70220E63AEE40E050E00E945F
:103FD0004F3DC9010895CF92DF92EF92FF920E9468
:103FE0005C1286E393E00E949F130E940A1F0E94C6
:103FF000D4150E94601281E493E00E949F136091A7
:10400000A8027091A9028091AA029091AB0258EE89
:10401000C52E53E0D52EE12CF12CA70196010E946C
:104020004F3DC9010E94D41584E493E00E949F1380
:104030006091A4027091A5028091A6029091A702BE
:10404000A70196010E944F3DC901FF90EF90DF90BC
:10405000CF900C94D4150E945C1287E493E00E94E8
:104060009F130E94BE2968E00E9452160E945014BD
:104070000E94601282E10E947709882349F080E55E
:1040800093E00E949F130E94C42968E00E94521688
:104090000C9450140E945C1289E593E00E949F13D7
:1040A00067E086E00E94810D0E9450140E94601219
:1040B00081E693E00E949F1347E061E080917303E3
:1040C000909174030E9412160C9450140E945C127A
:1040D00089E693E00E949F1367E080E00E94810DD3
:1040E0000E9450140E94601280E793E00E949F1388
:1040F00067E082E10E94810D0C9450140E945C12D2
:1041000087E793E00E949F13809165039091660377
:10411000892B29F065E087E00E94810D04C08DE7BE
:1041200093E00E949F130E9450140E9460120C940E
:1041300050140F931F93CF93DF9300D0CDB7DEB70A
:104140008B0189839A830E9464120E945C12898188
:104150009A810E949F130E946012C8010F900F90D5
:10416000DF91CF911F910F910C949F138FE793E0F4
:104170000E948B1D0E94601280E993E00E949F13B1
:104180000E940A1F0C94D41580EA93E00C948B1DB6
:104190000E945C120E94DF1E0E945D1D0E94601240
:1041A0000E94301F0C947D1D0E945C1287EB93E0EF
:1041B0000E949F1367E08BE10E94810D0E945014C2
:1041C0000E94601280EC93E00E949F130C947D1D6E
:1041D00080919E028F5F853118F480939E0202C009
:1041E00010929E020E945C1268E087E10E94810D9D
:1041F0008AEC93E00E949F1367E086E10E94810DA4
:104200000E9450140E94601268E089E10E94810DB2
:104210008CEC93E00E949F1380919E028A30E0F51F
:104220000E94572581112FC037C080939D020E94A4
:104230000A1F2091980230919902821B930B909350
:104240009B0280939A0290939902809398020E9415
:104250000A1FCD97A0F020919C0284E690E0821B7B
:10426000910920919A0230919B02AC01429FC001BA
:10427000439F900D529F900D11240C94D4158FECF8
:1042800093E00C949F130E94BA1D80939C0290911E
:104290009D029817E0F6C9CF64E080919C0290E0FF
:1042A0000E94D11586ED93E00E949F130C94501448
:1042B0000E945C1288ED93E00E949F138091650339
:1042C00090916603892B41F069E080911E019091E5
:1042D0001F010E94F61504C08EED93E00E949F130B
:1042E0000E9450140E94601287EE93E00E949F1378
:1042F0000C945D1D6EEF73E081EF93E00C949920B8
:104300000E947A210C94832D6FE174E08EE094E09A
:104310000E94992088E893E10C94712C0E945C1211
:104320008AE294E00C949F1384EF91E00E94B90814
:1043300067E474E08BE394E00E94992084E893E0C2
:104340000E94B90866E674E088E594E00E9499202E
:1043500084E893E00C94B90863E874E085E794E09E
:104360000E94992080E49FE10C94B908CF931092A9
:1043700099021092980210929B0210929A02109247
:104380009D020E945C1264E070E08EE792E00E9461
:10439000631A80E20E94F9138EE792E00E94731A7A
:1043A00080E20E94F9138091CE020E94B21D0E9409
:1043B00060120E94BA1D62E090E00E94D1158EE862
:1043C00094E00E949F1382EA92E00E948C2D882341
:1043D00019F0C091A20201C0CFEFC0FF05C065E097
:1043E00080E00E94810D03C085E00E94411480E2BC
:1043F0000E94F91380917E0284508430A8F4C1FF9A
:1044000005C065E082E10E94810D03C085E00E9445
:104410004114C2FF05C00E949909CF910C94531416
:1044200080E2CF910C94F91366E080917F02909125
:1044300080020E945E16CF910C9450149091A302BA
:104440009F5F9093A302883059F168F48430F1F0B3
:1044500030F48230B9F0C0F48130B9F526C086302E
:10446000C9F0D0F415C08C3021F120F48A3059F114
:10447000F0F419C08E3019F1F0F08F3011F1803165
:1044800021F51BC00C94551F0C94E81E0C94EB1FD7
:104490000C947E2061E005C061E083E00C940E1E68
:1044A00066E080E0FBCF66E0F8CF0C94B6210C9478
:1044B0002B200C9466200C944A200C94E8200C9439
:1044C000D4200C9458210C94C82008958FEF809329
:1044D000A20208950F931F93CF93DF930E940B26A0
:1044E000C0918102D091820261E08EE792E00E9449
:1044F000FD198C01CE0165E070E00E943B3D8FE02C
:104500000E94210DEC0140E0BC01C8010E94202A5C
:104510008FE00E94482ACE01DF91CF911F910F9129
:104520000C94EF2581E00C9419260E94D909882368
:1045300021F00E9466250C94F02A08951092B00292
:104540000C946A22CF93DF930E9495220E94D40993
:10455000EC018091B002811111C062E08EE792E01F
:104560000E94FD198C179D0748F481E08093B002EA
:1045700080918102909182020E9405260E94D909B1
:104580008823D9F164E08EE792E00E94FD198C1730
:104590009D0758F132C08091B102882389F08AE1E9
:1045A0000E94E108EC018EE792E00E94341AD19556
:1045B000C195D1098C179D071CF48FE994E017C0B1
:1045C0008091B202811101C00EC08CE10E94E1080D
:1045D000EC018EE792E00E94521A8C179D071CF4A2
:1045E00083EA94E004C082E00FC087E994E09093EE
:1045F000CD028093CC0281E007C080912A01909186
:104600002B01029740F6EFCFDF91CF910895809371
:10461000B2026093B10208957093B6026093B5023E
:104620009093B4028093B30208950F931F93CF9396
:10463000DF93C091B302D091B402CE010E94E30F88
:104640008C010E94D409C817D90738F4C801DF913A
:10465000CF911F910F910C94C50F81E0DF91CF9105
:104660001F910F9108950F931F93CF93DF930E9493
:104670001523182F0E944226EC010E94D909882395
:1046800011F001E001C0012F8091B702882329F0C9
:10469000BE01812F0E94A02A01C0812F882329F00A
:1046A00081E00E947A2681E00DC0011101C009C09D
:1046B000BE01812F0E94BF2B8C179D0711F00E9415
:1046C0005E2682E0DF91CF911F910F9108950E94A5
:1046D0006C260E94320E1092B70280E10C94482A98
:1046E00081E00E947A260C942D0EBC0180E10E948C
:1046F000210D0C948B290F931F93CF93DF938C0183
:10470000EB010E940C23BE0180E10E94210D40E0DC
:10471000BC01C8010E94202ACE016AE070E00E941C
:104720003B3DCB01DF91CF911F910F910C947523ED
:104730000E94320E0E940B268FE00C94482A81E0E2
:104740000E9419260C942D0E0F931F93CF93DF9385
:104750001F92CDB7DEB78C018FE049830E94210DF7
:104760004981BC01C8010F90DF91CF911F910F913A
:104770000C94202A0F931F93CF93DF931F92CDB7F2
:10478000DEB78C018FE049830E94210D4981BC0175
:10479000C8010F90DF91CF911F910F910C94342A93
:1047A000BC018FE00E94210D0C948B290F931F9365
:1047B000CF93DF93C0915503D0915603CE010E9451
:1047C000E30F8C010E94D4098C179D0738F4C801AF
:1047D000DF91CF911F910F910C94A70F81E0DF9192
:1047E000CF911F910F9108951F93CF93DF930E9454
:1047F000D623182F0E946625EC01BC01812F0E9450
:10480000A02A882329F081E00E94192681E01BC09C
:104810000E94D90981110BC0111109C0CE010E945B
:10482000A529811104C00EC00E94EF250BC00E9473
:104830009D0D811107C0BE01812F0E94BF2B8C17D7
:104840009D0791F782E0DF91CF911F9108950E941B
:104850009F230E9470230C942D0ECF93DF931F9201
:10486000CDB7DEB79091B902913039F018F092309F
:1048700081F406C00E94F4230CC00E94332309C0B7
:104880000E94780F823089F089830E9427248981D1
:104890000CC0813051F49091B802992331F082E03C
:1048A0008093B9020E94320E82E00F90DF91CF9187
:1048B00008950E94320E8091BA029091BB020E942C
:1048C000E30F0E94C50F882329F00E9498231092BD
:1048D000B90208950E94672381E08093B702809314
:1048E000B90208958093B80208950F931F93CF9350
:1048F000DF93EC018A019093BB028093BA0240E0FF
:104900000E94A423B801CE01DF91CF911F910F9196
:104910000C947B230E946C2687E08093A20282E0A5
:104920008093A3020E94C43583E08093BD02089562
:1049300081E00E947A268FEF8093A20288E00C9497
:10494000CB35FF920F931F93CF93DF9380E00E94AC
:104950007709FF24F394F8268091BC02882379F02C
:104960000E9499099091850201E0981301C000E02E
:1049700011E0811110E0913021F4112311F010E0C9
:1049800000E00E949909811129C0112339F182E1C7
:104990000E94E108EC0180E00E94E108C817D907F5
:1049A00028F49C012C1B3D0BE90102C0C81BD90B4C
:1049B000C53FD14008F065C011C08091CE02882368
:1049C00031F0843021F0853011F0863039F40E94C6
:1049D000942181E00E94CB3510E000E082E10E944A
:1049E00077098823B1F082E10E94E108EC0180E0C0
:1049F0000E94E108C817D90728F49C012C1B3D0B25
:104A0000E90102C0C81BD90BC53FD14010F0FF24FB
:104A1000F394011102C087E001C083E08093A202F9
:104A2000112329F08091A20282508093A202FF20DC
:104A300029F08091A20281508093A202011104C04A
:104A4000111102C0FF2011F081E001C088E00E9436
:104A5000CB350E94C511811102C01092BD02011117
:104A600008C0111106C0F11004C00E94C5118830A1
:104A700079F08091BD02823011F481E00FC082E0B4
:104A80000DC080917E028450843008F496CFA6CF6A
:104A90008091BD028F5F8093BD02EBCFDF91CF91FC
:104AA0001F910F91FF9008958093BC02089581E0BB
:104AB0009091C602911180E0089581E02091C40296
:104AC0003091C502232B09F480E008958091C4023F
:104AD0009091C5020895EF92FF920F931F93CF9389
:104AE000DF93EC018B018FE00E94750B9093C30262
:104AF0008093C20268EB7BE08FE00E94210D9695C7
:104B000087959093BF028093BE02BE018FE00E9402
:104B1000750B9093C1028093C0022091C202309124
:104B2000C3022817390718F5821B930B893B9B405A
:104B3000F0F00E9464120E945C1262ED74E081EC5D
:104B400094E00E94992078010DC0C7010E94D1060F
:104B500084EF91E00E94B9088091BE029091BF025B
:104B6000E80EF91ECE15DF0580F70E94D9092091C5
:104B7000C2023091C3028091C0029091C10282179B
:104B8000930728F5281B390B293B3B4000F10E9475
:104B900064120E945C126BEE74E08AED94E00E9455
:104BA00099207E010FC0C8018E199F090E94D1066D
:104BB00084EF91E00E94B9088091BE029091BF02FB
:104BC000E80EF91E0E151F0570F70E94D909CE01D7
:104BD000DF91CF911F910F91FF90EF900895609119
:104BE000C4027091C5029C01293885EF380710F086
:104BF00028E835EFC9010E946B259093C502809388
:104C0000C4020E94D1060C94280BBC018FE00E94C4
:104C1000210D0C94EF258091C602882349F080E095
:104C200090E00E94EF2581E00E94EC061092C602FF
:104C30000895CF93C82F8091C60281110BC0CC2359
:104C400049F080E090E00E94EF2580E00E94EC06B1
:104C5000C093C602CF91089580E090E00E94EF25B6
:104C600081E00C94192681E09091CB02911180E0B3
:104C7000089581E02091C9023091CA02232B09F4E2
:104C800080E008958091C9029091CA020895482F4A
:104C90008091C7029091C8022091C9023091CA0246
:104CA0008217930711F4442341F09093CA02809332
:104CB000C9020E9498070C94280B08959C0121308A
:104CC00080E4380710F020E030E43093C8022093ED
:104CD000C70281E00C9447268091CB02882349F0DB
:104CE00080E090E00E945E2681E00E94DF06109244
:104CF000CB020895CF93C82F8091CB0281110BC0B6
:104D0000CC2349F080E090E00E945E2680E00E9483
:104D1000DF06C093CB02CF91089580E090E00E941F
:104D20005E2681E00C947A26089580917E02873079
:104D300051F0982F9450943048F08150823048F4CC
:104D400021EE32E008C02FEC32E005C028ED32E061
:104D500002C02AEE32E0C90108958BEB94E09093F3
:104D600071028093700290917E02945081E09430A1
:104D700008F080E00E94542561E085EF94E00E94F5
:104D8000421091E0813009F090E0892F08950F934F
:104D90001F93CF93DF930E9472240091830210919E
:104DA0008402C0918102D091820263E08EE792E09A
:104DB0000E94FD19A801BE010E94752485EB94E0B4
:104DC000909371028093700260E08BEF94E0DF912A
:104DD000CF911F910F910C944210EF92FF920F937D
:104DE0001F93CF93DF938C01C1E8D2E0E880F98074
:104DF00061E08EE792E00E94FD1940E0B7010E9459
:104E0000A42388819981B8010E943B3DCB010E9477
:104E1000D0238FEA94E0909371028093700260E057
:104E200088E095E0DF91CF911F910F91FF90EF9077
:104E30000C944210CF93DF93C0918102D0918202F3
:104E400061E08EE792E00E94FD1941E0BE010E9400
:104E5000A4238FEA94E0909371028093700260E043
:104E600088E095E0DF91CF910C944210CF93DF93CF
:104E7000C0918102D091820261E08EE792E00E94AF
:104E8000FD1941E0BE010E94BA238FEA94E090939D
:104E900071028093700260E088E095E0DF91CF912D
:104EA0000C94421081E02091650330916603232B1E
:104EB00009F480E061E00E94072381E994E0909387
:104EC00071028093700260E085E195E00C944210DD
:104ED00062E08EE792E00E94FD196091830270917A
:104EE0008402E0918502F091860240917503509111
:104EF0007603E49F9001E59F300DF49F300D11245F
:104F0000820F931F0E947B2389EA94E090937102A1
:104F10008093700260E081E295E00C944210CF93A0
:104F2000DF93C0918302D091840262E08EE792E029
:104F30000E94FD19BE010E947B2389EA94E09093B0
:104F400071028093700260E08EE295E0DF91CF9174
:104F50000C9442108CE291E0909371028093700265
:104F600060E088E395E00C944210CF93C82F8093C3
:104F7000CE022EE335E03093CD022093CC028E306A
:104F800030F4E82FF0E0EF54FF4F808101C080E063
:104F9000809361000E9426370E944B0B0E94AD2631
:104FA000882309F444C084E00E94CB35C53031F138
:104FB00068F4C230B9F128F4CC23B9F0C130A9F5B6
:104FC0002EC0C330A9F0C43081F515C0C83009F136
:104FD00028F4C630C1F0C73041F517C0CC3071F0AD
:104FE000CD3049F0C93009F517C08AE090E008C01B
:104FF0000E94AA271CC00E94682719C085E090E083
:105000000E94ED2614C080E001C081E00E94C72606
:105010000EC00E9452270BC00E948F2708C00E941A
:105020001A2705C00E94362702C00E9480210E94D4
:105030005A0BCF910C9436370F931F93CF93DF9376
:10504000EC010E94D1190E9495268C0160E0C801F4
:105050000E94341987FD29C090917E02E82FFF2716
:10506000E7FDF095973019F4E15CFA4F0FC0892FF6
:105070008450843018F4EA5BFA4F08C091509230A3
:1050800018F4E15BFA4F02C0EC5AFA4F84918E306B
:1050900049F4BE018EE792E00E94D51ACE010E942B
:1050A000DF19D1CF0E94B527D1CFDF91CF911F91CA
:1050B0000F91089567E575E088ED92E00E9446182B
:1050C0006BE675E081EE92E00E94461867E775E0B6
:1050D0008FEC92E00E94461867E875E08AEE92E055
:1050E0000C944618FC01428153814115510589F009
:1050F000A081B181B7FF03C0B195A195B10928EE98
:1051000033E00E940D3D9A0140E050E00E944F3D87
:1051100002C020E030E0C90108950F931F93CF93A0
:10512000DF9300D000D0CDB7DEB78C01862FF80119
:10513000628173810E94750B9C838B83F80180814F
:1051400091819A838983CE0101960E9472280F90E3
:105150000F900F900F90DF91CF911F910F910895B5
:105160000F93FC01CA01002341F06417750708F48E
:10517000CB014617570748F409C04617570708F4EC
:10518000CB016417750708F401C0BA0197838683C1
:10519000918380831382128215821482338722873F
:1051A000681B790B718760870F910895FC019B0143
:1051B00040E050E086819781281B390B4109510955
:1051C000A285B3850E94143D20853185442737FD93
:1051D0004095542F0E94713D2115310581E048070B
:1051E00051051CF457FD04C005C02FEF3FEF02C06E
:1051F00020E030E0C9010895DF92EF92FF920F9313
:105200001F93CF93DF93EC012A813B81241735074D
:1052100020F4FA01E21BF30B03C0F901E41BF50BC8
:105220008C819D81969587958E179F0788F588813B
:1052300099818617970720F4FB01E81BF90B03C03F
:10524000FC01E61BF70BEF2BF9F422C08A01021BCD
:10525000130B7B01E81AF90A06C07C01E61AF70A6B
:105260008901041B150BC7010E94A82CD82E888524
:1052700099850E94A82CD8120BC01D830C83F98637
:10528000E8861B870A8704C024173507F8F2E5CFA4
:10529000DF91CF911F910F91FF90EF90DF900895D4
:1052A0000F931F93CF93DF93EC018B019A01A88595
:1052B000B9850E940D3D2A853B8540E050E00E9463
:1052C000713DC801A0E0B0E082179307A407B507BD
:1052D0001CF41F821E8204C0021B130B1F830E834B
:1052E000DF91CF911F910F910895EF92FF920F934D
:1052F0001F93CF93DF93EC018B017A010E94FC286E
:10530000A701B801CE01DF91CF911F910F91FF90BE
:10531000EF900C94502990935C0380935B03089565
:105320008091F502813029F420915B0330915C0378
:1053300002C020E030E0C9010895609157037091E8
:1053400058038091F7020C94750B2091FA022130DA
:1053500041F041E020915B0330915C038217930799
:1053600008F040E0842F08952CE0829FC0011124B2
:105370006091F7028D5F9C4F0C948D286091F7022D
:105380008BE493E00C948D280F931F93CF93DF93BE
:1053900000D000D0CDB7DEB70E945725811126C0BE
:1053A0000E943326811122C037C000916200109103
:1053B0006300CE0101960E9472288017910740F485
:1053C000CE0101960E947228909363008093620040
:1053D00020916200309163002F3F8FEF380709F46E
:1053E00021C03093500320934F0320C080E00E94DF
:1053F000E1089A83898382E10E94E10829813A8148
:10540000281B390B3A83298386E10E94E1089C839B
:105410008B83892BE9F2C9CF8FEF9FEF90936300C5
:105420008093620020914F0330915003C9010F9087
:105430000F900F900F90DF91CF911F910F910895D2
:1054400090935603809355037093580360935703CA
:10545000CB016AE070E00E943B3D70935C03609377
:105460005B034093F602089590935603809355038F
:105470007093580360935703CB0164E170E00E947E
:105480003B3D70935C0360935B034093F602089589
:10549000EF92FF920F931F93CF93DF9391E090933E
:1054A000F502FF24F3948F3009F0F12C8093F7027A
:1054B00068EC70E00E94210D90935A038093590389
:1054C0000E94D40920915B0330915C034091550305
:1054D000509156030F2DBC0183E493E00E94B02845
:1054E0000E949A0D8093F802809155039091560383
:1054F0000E94E30FEC0110E08CE0E82E12C0812F37
:105500000E94D30DBC0120915B0330915C03E19EAE
:10551000C00111240F2DAE0185509D4F0E94B0286F
:105520001F5F8091F802181750F31092FA02109240
:10553000F902DF91CF911F910F91FF90EF900895A5
:105540000F931F93CF93DF93082FEB018091F60207
:105550008823C9F04091590350915A0320915B036D
:1055600030915C032417350708F49A012C173D0786
:1055700010F410926C028091FA02813021F00E94A6
:10558000780F8093F5028091F502813019F58091B2
:10559000FA02823041F411E020915B0330915C0308
:1055A000C217D30708F010E00E9490298C179D07BE
:1055B00078F0111103C0011101C00AC09091F902E5
:1055C000892F8F5F8093F90281E09A3020F402C026
:1055D0001092F90280E0DF91CF911F910F91089511
:1055E0000F931F93CF93DF93EC010E94D409AE0178
:1055F000BC0183E493E00E94752910E00CE00DC02B
:10560000812F0E94D30DBC01019FC0011124AE0166
:1056100085509D4F0E9475291F5F8091F8021817D1
:1056200078F3DF91CF911F910F910895CF92DF9280
:10563000EF92FF920F931F93CF93DF9360915503E7
:105640007091560383E493E00E94D628EC01809188
:105650005503909156030E94E30F7C01D12C9CE0EE
:10566000C92E12C0CD9C8001112405501D4FB701D9
:10567000C8010E94D628C817D90728F0B701C80169
:105680000E94D628EC01D3948091F802D81650F3EA
:10569000CE01DF91CF911F910F91FF90EF90DF909E
:1056A000CF9008950F931F93CF93DF938B01809337
:1056B0005303909354032091570330915803EC0106
:1056C0002817390708F4E9010E9490299C018C17DA
:1056D0009D0708F49E010217130719F18091FA0241
:1056E0008230A9F42017310790F080915B039091EC
:1056F0005C0380179107A0F0409151035091520331
:105700008091490290914A024817590749F08091C7
:10571000490290914A02909352038093510301C031
:105720009801C901DF91CF911F910F9108950F93B7
:105730001F93CF93DF93EC010E94D409909344030D
:1057400080934303D0934603C093450310E00CE0DD
:105750000DC0812F0E94D30D019FF0011124E5504F
:10576000FD4F91838083D383C2831F5F8091F802B2
:10577000181778F3DF91CF911F910F9108951F9320
:10578000CF93DF93182FEB01CB010E94F02ACE01BB
:105790000E94972B0E94162B9093F4028093F302A1
:1057A000BE010E94522B9C018091FA02811110C00F
:1057B000112389F08091F602882321F00E94260EA1
:1057C00010926C0281E08093FA0220E030E003C086
:1057D00082E08093FA02C901DF91CF911F91089571
:1057E0000F931F9300915D0310915E0320915F035F
:1057F00030916003B801C9011F910F91089512BE45
:105800008DE78CBF88E083BF83B7836083BF89B790
:10581000826089BF089580915D0390915E03A0919D
:105820005F03B09160030196A11DB11D80935D03DC
:1058300090935E03A0935F03B093600308950E946A
:105840000B2C0E94A4360E94A62D0E944205809136
:105850006400815019F080936400089581EE809374
:1058600064000E9494260E94A7090C94A41F1F9212
:105870000F920FB60F9211242F933F934F935F9384
:105880006F937F938F939F93AF93BF93EF93FF9308
:105890000E941F2CFF91EF91BF91AF919F918F912B
:1058A0007F916F915F914F913F912F910F900FBE1C
:1058B0000F901F9018950F931F938FB7F894009136
:1058C0005D0310915E0320915F03309160038FBFF1
:1058D0003695279517950795B801C9011F910F9126
:1058E0000895CF92DF92EF92FF92CF93DF93EC0176
:1058F0000E945B2C6B017C01CC0EDD1EE11CF11CB7
:105900000E945B2C6C157D058E059F05C8F3DF9109
:10591000CF91FF90EF90DF90CF9008959C0180E0B1
:1059200001C08F5FF901459154912E5F3F4F452B88
:10593000C1F7089521E030E09AE006C0A901949FE4
:105940009001959F300D11248150C0F7C901089531
:1059500097FD02C081E008958FEF0895CF92DF9206
:10596000EF92FF92CF939B01AC0161157105810508
:10597000910521F421E030E040E050E0C0E08AE011
:10598000C82ED12CE12CF12CCF5FCA01B901A7019F
:1059900096010E944F3D2115310541055105A1F7A2
:1059A0008C2FCF91FF90EF90DF90CF900895BC01A6
:1059B00080E090E00C94AE2CFC0180819181860FF8
:1059C000971F97FF03C0118210820895242F30E0A3
:1059D000281739071CF4408311820895918380832E
:1059E0000895FC0180819181860F971F1816190672
:1059F0001CF081E090E008C0242F30E02817390720
:105A00001CF4408311820895918380830895FC01E2
:105A100077FD04C06115710521F405C066EF7FEFC5
:105A200002C06AE070E020813181260F371F37FF06
:105A300003C01182108208954217530718F451834E
:105A400040830895318320830895AF92BF92DF92FF
:105A5000EF92FF920F931F93CF93DF931F92CDB7D7
:105A6000DEB75C018A01DD24D394161617060CF00C
:105A7000D12CF501E080F180B70180E090E029832E
:105A80000E94AE2C2981211107C0823040F0825043
:105A90000E949A2C9C0105C024E630E002C021E05F
:105AA00030E0C701B9010E943B3D009739F0DD208D
:105AB00019F0281B390B04C09C010FC0DD2069F0D0
:105AC000C801821B930BE816F90618F489010E0D24
:105AD0001F1DF501118300830BC02E153F0518F41F
