:100000000C94CA040C94F2040C94F2040C94F204C0
:100010000C9447080C94F2040C94F2040C94F2042F
:100020000C94F2040C9477080C94F2040C94F204EF
:100030000C94F2040C9411090C9446090C94F204EB
:100040000C9423080C94F2040C94F2040C94F20423
:100050000C94F2046912721278127B127E128512CD
:1000600082128F128C12B12CB42CC22CCE2CDA2C12
:10007000DE2CEC2CF02CFE2C022D152D182D262D0F
:10008000322D402D4C2D522D562D5A2D5D2D632D88
:10009000662D702D6E2E722E772E7C2E7F2E812E49
:1000A000862E882E8D2E902E962E992E9C2E9F2E4B
:1000B000A22EA72EAB2EAF2EB22EB52EBA2EBD2E4F
:1000C000C12E773479347B347F347F347D3483346C
:1000D00081340239E438ED38E638EF38DF38EB3870
:1000E000000000003A65C52E000000003A65C52EEC
:1000F000F80132007C2BE80380043200001F2C0141
:1001000000000000000000000000000000000000EF
:100110000000000080A6CA30C24C2A010C495802D7
:100120000000000043BFA80E0000000071D8681056
:1001300000000000AFD96810000000004067D00741
:10014000000000000FD6681000000000C8D868103A
:10015000000000008AD86810F80132007B2BE80309
:100160009A0132007A0B2C0100060800FF01010AF7
:1001700001060900FF03020002060A00FF00000A50
:1001800006060E00FF03020005060D00FF02030035
:1001900004060C00FF03020003060B00FF04060028
:1001A00007060700FF030200AC0100006F707469CE
:1001B0006F6E730080250000004B00000096000069
:1001C00000E1000000C20100460003008813701720
:1001D0000000701764000100FBFFF1FF080708072B
:1001E00005001E0001000A00320078001027000000
:1001F00000000000010008000000000003000000F3
:1002000000000000000082087D08780873086E086E
:10021000690864085F085A0855080000980898089B
:100220006C071027580201009808F4016C070100C0
:10023000E00102009808F4016C070100E0010300EE
:100240009808DC006C070600E00104009808980894
:100250006C07030078000500980898086C070300F5
:1002600078000600980898086C07030078000700DB
:10027000980898086C070300780008009808980808
:100280006C07030078000900980898086C070300C1
:10029000780001000100010001000100B00400002D
:1002A000520300005203B0040000E8030000E8031A
:1002B000D0079209D60600006C07E40C100ED00798
:1002C000E40CB80B100E0410C409A60EAC0D740E8D
:1002D0006810B80B0A0F890C740ECC10B80B0A0FFB
:1002E000890C740EFE10B80B0A0F890C40066C07BF
:1002F000140540067805341879186519AB1AA61A42
:10030000DB1A891B2B1C951B341C311C3B1C621CEB
:10031000691C8D1CB21E821E881EF520CC19F72088
:100320000001E105D9050000F005E905000000061F
:10033000F705000011060906000064002C016400A6
:10034000E8031F06190600002C0625060000060912
:100350000A0B0C0D0E061F20212223241312620605
:100360005C06560650064A0644063E063806320625
:10037000000098068F068306770668060000AC0822
:10038000A20894080000180713070E0709070407BE
:10039000FD06F106E706DC0600002009110909093F
:1003A000FF08F308EB08DC08D108C208B508000311
:1003B00004070809000307080900010203040809EB
:1003C00000010203040506080963075A075107489C
:1003D000073F0748083D0836082D0824081B081168
:1003E000080708FB07F107EB07DD07D307C907BDBF
:1003F00007B307AA079F0794078A077F0779077241
:10040000076C07000020202D2D2020006368656107
:100410006C692D636861726765720A76312E3030BF
:100420005F32303135303331300063616C69626185
:1004300074696F6E206572726F7200706C656173A3
:10044000652063616C6962726174650065657072D4
:100450006F6D2072657365740A6572726F723A20EF
:1004600000726573657474696E6720656570726F7C
:100470006D002020202020202020202020207965B1
:100480007300656570726F6D2072657365743A00F4
:100490005245564552534520504F4C4152495459AC
:1004A000006572726F723A2020202000636F6D70B9
:1004B0006C6574653A2000CC32008000007431FF16
:1004C000FF04806032FFFF04802032000208802C8D
:1004D00032000208804032000200808B2F00C000F2
:1004E000008F2F00C00000932F00400480972F0042
:1004F000400480CB31FFFF0480AB31FFFF0080055B
:1005000032FFFF00002633800100808831FFFF04A6
:1005100080E931FFFF00000000FFFF000025002000
:100520002D2D3A2D2D0064656C746120543D200002
:100530004E2F4100546578743D0064656C746120F1
:10054000563D20006D6178566F75743D002D005446
:100550006578743D00206C696D69743D0056696E64
:100560007075743D00776972657320523D00626159
:1005700074742E20523D006220004C696D697473C2
:100580003A20006E6F2064542F74002520004368C9
:100590004342426C44694643537453424359434374
:1005A00000010001000100010001000A00640001D7
:1005B000000300080009000A000B000C0001000203
:1005C000000400060008000A000C00141719181A8D
:1005D0000705061F2021222324566D696E75733A84
:1005E0000056706C75733A200076616C75653A0040
:1005F00074656D703A2000706F696E7420322E0041
:10060000706F696E7420312E00496F75743A202026
:100610000076616C75653A20003330306D410031F1
:1006200030306D4100313030306D41003130306D4F
:100630004100566F75743A0056312D363A005662B5
:10064000363A20005662353A20005662343A20008D
:100650005662333A20005662323A20005662313AEE
:10066000200056696E3A20006578706572742044E7
:10067000414E474552210074656D70206578746560
:10068000726E00492064697363686172676500492E
:100690002063686172676500766F6C7461676500DE
:1006A00062616C616E636520706F727421006261BB
:1006B00074746572792100646973636F6E6E65632B
:1006C0007400636F6E6E6563740064542F6474000D
:1006D0002D64560056206C696D697400526573650F
:1006E00074206E616D650045646974206E616D658E
:1006F00000437265617465206E616D6500546C69BC
:100700006D3A200049643A200049633A200043686A
:100710003A2000563A2020004261743A2020004ED0
:10072000616D653A0045646974206E616D653A00DB
:100730006D5600206E6F0079657300496E66006526
:1007400078742E20416463006578742E206465629D
:100750000020202064656275670020206E6F726D36
:10076000616C0064697361626C65640072657365D5
:10077000740073706565643A00554152543A0061E3
:100780006463206E6F6973653A0062616C2E206548
:1007900072723A00666F7263652062616C3A00643F
:1007A00069732061677265733A006F2E64697363C1
:1007B000683A006F2E6368617267653A00696E700F
:1007C0007574206C6F773A200063617020434F6628
:1007D000663A006D696E20496F75743A006D696EF6
:1007E00020496F75743A2020492F00626565703A80
:1007F00000442F4320726573743A00442F432063F2
:1008000079636C65733A004E6943642056434F3AEE
:10081000004E694D482056434F3A004E69436420CC
:1008200064563A004E694D482064563A00656E6140
:10083000622064563A0064542F64743A00657874F8
:10084000726E2054434F3A00657874726E20543AA9
:1008500000432F6D004E695A6E004C343335004C06
:10086000343330004C69706F004C696C6F004C6918
:1008700066650050622020004E694D48004E694375
:100880006400556E6B6E006D696E2E006E6F6C6944
:100890006D69740072657365742064656661756C5A
:1008A000740063616C69627261746500736574746D
:1008B000696E67730065646974206261747465723F
:1008C0007900636170616369747920636865636B43
:1008D00000443E4320666F726D61740073746F72E2
:1008E0006167652B62616C616E630073746F726126
:1008F0006765006661737420636861726765006490
:1009000069736368617267650062616C616E6365DB
:10091000006368617267652B62616C616E6365007C
:10092000636861726765006578742E74656D702EFA
:100930006375746F66660074696D65206C696D69B6
:1009400074006361706163697479206375746F66A4
:100950006600696E707574205620746F206C6F7716
:10096000004857206661696C7572650062616C6150
:100970006E63657220646973632E006261747465CE
:10098000727920646973632E00008D057D0AFA1068
:100990008D2B103111241FBECFE5D8E0DEBFCDBFB7
:1009A00010E0A0E6B0E0E0E9FAE702C005900D92A1
:1009B000AA3CB107D9F714E0AAECB0E001C01D923F
:1009C000A23CB107E1F719E0C4E9D9E004C02297DD
:1009D000FE010E94DC3CCA38D107C9F70E94F5101D
:1009E0000C94463D0C94000086B380958170B19BB9
:1009F00002C090E001C092E0892BB29B02C090E05F
:100A000001C094E0892BB39B02C090E001C098E044
:100A1000892B0895882339F0A69AA79AD59A889A9F
:100A20008A9A8F9A0895A698A798D59888988A98B0
:100A30008F98089520E042E060E18BEC90E00E9406
:100A40002E3A0E94FA080E94CC0688E799E60C9498
:100A5000F9058091D100882331F08091CA008F5F21
:100A60008093CA0002C01092CA008091D1008A30DF
:100A700010F480E001C088E09091D100943108F03A
:100A800084E09091D1009E3108F082E09091CA00FC
:100A9000982311F0C49A0895C49808958093D100C2
:100AA0000895811106C0939A0E94220680E00C945A
:100AB00019069398089580FF02C0AE9A01C0AE98BF
:100AC00081FF02C0AF9A01C0AF9882FF02C0DD9AD9
:100AD00001C0DD9883FF02C0909A01C0909884FF06
:100AE00002C0929A01C0929885FF02C0979A089519
:100AF0009798089580E00E945B0580E00E94510570
:100B00001092D10087B18F7387B98B9A8D9AD79A3B
:100B1000BC9A8C9A8D9A8E9A08958BEC90E00C94E6
:100B2000833A2FB7F8948091D3009091D400A0918C
:100B3000D500B091D6002FBF892F9A2FAB2FBB279E
:100B4000A7FDBA9508952FB7F8941092DA00109285
:100B5000D9008617970768F480E090E4A0E0B0E041
:100B60008093D3009093D400A093D500B093D60087
:100B700008C01092D3001092D4001092D5001092A9
:100B8000D6008091D3009091D400A091D500B0916F
:100B9000D600BA2FA92F982F88278093D30090933F
:100BA000D400A093D500B093D60081E08093D2000A
:100BB0002FBF0895CF93DF93EC01C13080E6D807B3
:100BC00058F4C13080E4D80748F48EE00E9406094A
:100BD0009598BE018DE009C0C0E0D0E68DE00E948E
:100BE0000609949ABE0170548EE0DF91CF910C9467
:100BF000E408893729E6920710F088E799E6BC01F6
:100C000080E00E94080D813C2FEF920710F080ECED
:100C10009FEF2FB7F8949093D8008093D7002FBF01
:100C200008952FB7F8949093DA008093D9002FBFDE
:100C30000895882329F080E00E942206DF98089515
:100C4000DF9A0895CF93DF93C82F882319F080E0AF
:100C50000E941906DFB7F8948DE00E940609949867
:100C60008EE00E94060995981092D200DFBFC11154
:100C700004C0969ADF91CF910895969880E00E94E3
:100C8000370BEC0186E00E94370BBE01DF91CF915C
:100C90000C94A3050F931F938091D200882309F42D
:100CA00074C080E00E94400B2091D7003091D800A2
:100CB0008217930730F080E00E9422061092D20043
:100CC00064C082E00E94400B4091D9005091DA004C
:100CD00060E070E00091D3001091D4002091D50025
:100CE0003091D600481B590B61097109E2E0440FAD
:100CF000551F661F771FEA95D1F7040F151F261F92
:100D0000371F0093D3001093D4002093D500309365
:100D1000D6008091D3009091D400A091D500B091DD
:100D2000D600B7FF08C01092D3001092D4001092E2
:100D3000D5001092D6008091D3009091D400A0915C
:100D4000D500B091D6000197A046B10560F080E0D3
:100D500090E0A0E6B0E08093D3009093D400A093FD
:100D6000D500B093D6008091D3009091D400A0918B
:100D7000D500B091D600892F9A2FAB2FBB27A7FDA6
:100D8000BA951F910F910C94DA051F910F91089558
:100D9000BC018EE00C94E408DE98D698BD9ABE9A09
:100DA000BF9A8EEA86B9369A089584B135B1E0913A
:100DB000E4002FB7F89490E0932BF0E0DF01AA0F46
:100DC000BB1FA852BD4F11969C938E933091DD00AE
:100DD000332391F0EE0FFF1FEE0FFF1FE650FD4F84
:100DE0004081518162817381480F591F611D711DBE
:100DF00040835183628373832FBF0895CF930E94F2
:100E000059219093F7028093F6020E940F1B909352
:100E1000F9028093F8028091DD00882309F459C01B
:100E20000E94592140913603509137036091380355
:100E300070913903CAE09C01C29FC001C39F900D0D
:100E40001124480F591F611D711D409336035093A3
:100E5000370360933803709339030E940F1B40914E
:100E60003A0350913B0360913C0370913D039C0118
:100E7000C29FC001C39F900D1124480F591F611DCF
:100E8000711D40933A0350933B0360933C0370936E
:100E90003D0380913E0390913F030197B9F4809107
:100EA000020390910303A0910403B091050352E063
:100EB000B695A795979587955A95D1F78093020394
:100EC00090930303A0930403B0930503CF910C9474
:100ED000FA0DCF910895089580917F03909180033A
:100EE000892BE9F04091E1004423C9F081E090E0D2
:100EF0000090DF0002C0880F991F0A94E2F720914A
:100F00003E0330913F032F703FB7F8945BB39BB320
:100F1000982B9BBB240F2A95F1F75BBB3FBF08952D
:100F20008091DC008F5F803108F080E08093DC00EE
:100F30008091DE009091DF00A091E000B091E1008F
:100F40008093E2009093E300A093E400B093E50067
:100F5000E091DC00EF5FE03108F0E0E084E0E89F42
:100F6000F0011124E859FE4F85919591A591B49116
:100F70008093DE009093DF00A093E000B093E10047
:100F80008091810390918203892B39F08091DE005A
:100F9000873019F486E08093DE008091DC008111B7
:100FA0000CC00E94FE0680913E0390913F0321E019
:100FB000892B09F420E02093DD0008950E94D506D6
:100FC0008091DB0091E0980F9093DB00873079F1FE
:100FD00028F4882341F08130A9F00895883049F140
:100FE000893061F108958091DE0087FD05C088B3E6
:100FF0008F71806C88BBD69A8091E400823011F5A5
:101000000C944A068091DE0087FD1CC04FB7F8940F
:101010003AB33F7B28B38091DE0050E28502C001E5
:1010200011242F71282B28BB3ABB4FBF08950C9475
:101030006C078091DF00806287B908951092DB0011
:101040000C94900708951F920F920FB60F921124DF
:101050002F933F934F935F936F937F938F939F93C0
:10106000AF93BF93EF93FF930E94DE07FF91EF9141
:10107000BF91AF919F918F917F916F915F914F91B0
:101080003F912F910F900FBE0F901F9018951F92B8
:101090000F920FB60F9211242F933F934F935F93AC
:1010A0006F937F938F939F93AF93BF93EF93FF9330
:1010B0000E94B534FF91EF91BF91AF919F918F91B5
:1010C0007F916F915F914F913F912F910F900FBE44
:1010D0000F901F90189588E085BD85B5846085BD0B
:1010E00014BC8CE783BD89B7806889BF08951F92BF
:1010F0000F920FB60F9211242F933F934F935F934C
:101100006F937F938F939F93AF93BF93EF93FF93CF
:101110002091EC003091ED008091E8009091E90081
:10112000820F931F9093E9008093E8002091EA00DA
:101130003091EB008091E6009091E700820F931FC1
:101140009093E7008093E6002FB7F8948091E80031
:101150009091E90035E0969587953A95E1F79BBD2A
:101160008ABD8091E6009091E70045E096958795CD
:101170004A95E1F799BD88BD2FBF8091E800909115
:10118000E9008F7199279093E9008093E80080919E
:10119000E6009091E7008F7199279093E700809384
:1011A000E6000E942905FF91EF91BF91AF919F91B9
:1011B0008F917F916F915F914F913F912F910F9000
:1011C0000FBE0F901F9018959FB7F8948E3039F48A
:1011D0007093ED006093EC008FB5806808C08D308F
:1011E00039F47093EB006093EA008FB580628FBD95
:1011F0009FBF089580E092E097BD86BD82E08FBDDD
:1012000089E18EBD89B7846089BF08958E3019F455
:101210008FB58F7704C08D3019F48FB58F7D8FBD5A
:1012200008951F920F920FB60F9211242F933F93A0
:101230004F938F939F93EF93FF935A991AC04CB19A
:10124000809104029091050201969927209106024F
:10125000309107028217930769F0E0910402F09140
:101260000502EC5FFE4F40839093050280930402D9
:1012700001C08CB1FF91EF919F918F914F913F9160
:101280002F910F900FBE0F901F9018951F920F92E5
:101290000FB60F9211242F933F938F939F93EF9349
:1012A000FF932091040230910502809106029091F3
:1012B00007022817390711F4559812C0E091060269
:1012C000F0910702EC5FFE4F208180910602909121
:1012D00007020196992790930702809306022CB982
:1012E000FF91EF919F918F913F912F910F900FBEA2
:1012F0000F901F901895CF92DF92EF92FF92CF93AD
:10130000DF93EC016A017B01411581EE580761050D
:101310007105F9F0E885F98581E090E00C8802C05C
:10132000880F991F0A94E2F7808360E079E08DE3EB
:1013300090E0A70196010E94993C21503109410992
:1013400051095695479537952795211580E138071E
:1013500098F0E885F985108260E874E88EE190E005
:10136000A70196010E94993C215031094109510978
:101370005695479537952795EC81FD813083EE8111
:10138000FF8120831D8AEA85FB85408181E090E012
:101390009C01098802C0220F331F0A94E2F7422BF6
:1013A0004083EA85FB8540819C010A8802C0220FA8
:1013B000331F0A94E2F7422B4083EA85FB852081A4
:1013C0000B8802C0880F991F0A94E2F78095822348
:1013D0008083DF91CF91FF90EF90DF90CF900895C1
:1013E000CF93DF93FC0182819381DC01B395EC0103
:1013F000CE5FDE4F4D915C91119728813981421764
:101400005307C1F7A285B3854C9181E090E09C0120
:10141000018802C0220F331F0A94E2F7209524238B
:101420002C93A285B3854C919C01028802C0220FA7
:10143000331F0A94E2F7209524232C93A285B385C9
:101440002C91038802C0880F991F0A94E2F78095B7
:1014500082238C9380819181FC01EE5FFE4F20817D
:101460003181FC01F39531832083DF91CF91089581
:10147000FC018589882329F0A085B1858C9186FFA0
:10148000FBCF158A0895CF93DF93FC01228133812E
:10149000D901B3958D919C91119701969927E901F6
:1014A000CE5FDE4F4881598184179507D9F30D909F
:1014B000BC91A02DA20FB31F6C93A281B381B395F1
:1014C00011969C938E93A285B3852C9181E090E038
:1014D000038802C0880F991F0A94E2F7282B2C93E7
:1014E00081E0858B0084F185E02D8081806480839C
:1014F00081E090E0DF91CF91089584E091E09093B6
:10150000EF008093EE009093F1008093F00080E470
:1015100090E09093F3008093F20029E230E0309362
:10152000F5002093F4002BE230E03093F700209395
:10153000F6002AE230E03093F9002093F80090930F
:10154000FB008093FA008CE290E09093FD00809382
:10155000FC0084E08093FE0083E08093FF0087E03E
:101560008093000185E08093010181E08093020176
:101570000895CF93DF931F92CDB7DEB7E091BE04FD
:10158000F091BF04309711F4E2ECF4E0CE01019643
:101590002EEB8E179F0710F02193FBCF0F90DF915A
:1015A000CF910895CF93DF9300D0CDB7DEB72091D0
:1015B000BE043091BF042115310511F422EC34E052
:1015C000CE010196821B930B0F900F90DF91CF916C
:1015D0000895CF93DF931F92CDB7DEB72091BE045D
:1015E0003091BF042115310511F422EC34E0F901EA
:1015F000AE014F5F5F4FCF01821B930B4E175F070A
:1016000028F060816E3B11F43196F5CF0F90DF9199
:10161000CF910895009741F0EFE9FFE03197F1F79E
:1016200000C000000197F6CF08958436910538F088
:1016300064E670E00E94853CCB010C940A0B019794
:1016400028F025E32A95F1F70000F9CF08956AE024
:1016500070E00E94853CCB010C94150BE82FF0E064
:10166000EE0FFF1FEA54FD4F808191810895E82F0E
:10167000F0E0EE0FFF1FE459FD4F80819181089546
:101680002FB7F894E82FF0E0EE0FFF1FE852FD4F60
:10169000808191812FBF08958091410308958091A9
:1016A000200290912102089580910E0290910F02E4
:1016B000089580911002909111020895E82FF0E0B2
:1016C000EE0FFF1FEE5DFD4F808191810895262F63
:1016D000613110F4423040F021E030E0FC0133830E
:1016E000228331832083089550E0BA01620F711D77
:1016F000620F711D660F771F660F771F665F7F4F42
:1017000044E050E00C94013D282FCA01213188F4B7
:10171000623078F470E0620F711D620F711D660F08
:10172000771F660F771F665F7F4F44E050E00C9491
:101730001F3D0895FF920F931F93CF93DF9300D027
:1017400000D0CDB7DEB700EE10E0F12CF8014591E6
:1017500055916591749149835A836B837C83AE0163
:101760004F5F5F4F60E08F2D0E94840BF80134962D
:10177000459155916591749149835A836B837C831C
:10178000AE014F5F5F4F61E08F2D0E94840BF39499
:10179000085F1F4F81E1F812D9CF81E00E948611C6
:1017A0000F900F900F900F90DF91CF911F910F919D
:1017B000FF90089581E020919602309197022331A5
:1017C000310509F080E0089580919402909195028E
:1017D00008958091900290919102089580919A02CB
:1017E00090919B02089580914A0290914B02039739
:1017F00050F08091500290915102039720F083E0C5
:1018000090E00C94A51880E008952FB7F89480E03C
:1018100090E0FC01EE0FFF1FEE0FFF1FE650FD4FA3
:10182000108211821282138201968131910589F70B
:1018300084E690E090933F0380933E031092400330
:101840002FBF0895CF93CFB7F89410921F02109234
:101850001E0210921A0210921B0210921C02109289
:101860001D02109216021092170210921802109286
:101870001902109212021092130210921402109286
:1018800015020E94DD3490930D0280930C02CFBFAD
:10189000CF9108950E94220C109211021092100212
:1018A00010920F0210920E020895E2E2F2E01192FD
:1018B000119282E0EC36F807D1F70895CF93CFB7B5
:1018C000F89481E090E090933F0380933E0381E0A1
:1018D000809340030E94550CCFBFCF910895CF93C2
:1018E000DF930E945E0CC0912002D0912102809172
:1018F000200290912102C817D90729F48AE090E0CC
:101900000E940335F4CFDF91CF91089510924103E7
:1019100080E00C945105CF93DF9381E00E94400B4F
:10192000EC0180E00E94400B8C179D0718F4C81B47
:10193000D90B02C0C0E0D0E081E0C93ED34008F43A
:1019400080E0DF91CF9108958F929F92AF92BF92E6
:10195000CF92DF92EF92FF92CF93DF93CDB7DEB7B6
:1019600028970FB6F894DEBF0FBECDBFF82E5B01EF
:1019700061157105D1F140E0682FCE0105960E94F6
:10198000670B41E06F2DCE0101960E94670B2B8102
:101990003C8140E050E0CF80D884E12CF12C2C1920
:1019A0003D094E095F09B50180E090E08D809E8081
:1019B000A12CB12C681979098A099B090E94693CFC
:1019C00029813A8140E050E0281939094A095B0928
:1019D0000E94BB3C2C0D3D1D4E1D5F1D57FF03C0DB
:1019E00020E030E0A901C90102C080E090E0289623
:1019F0000FB6F894DEBF0FBECDBFDF91CF91FF9041
:101A0000EF90DF90CF90BF90AF909F908F90089510
:101A10008F929F92AF92BF92CF92DF92EF92FF92FE
:101A2000CF93DF93CDB7DEB728970FB6F894DEBF1C
:101A30000FBECDBFF82E5B0161157105D1F140E0FD
:101A4000682FCE0105960E94670B41E06F2DCE01F5
:101A500001960E94670B29813A8140E050E0CD80D9
:101A6000DE80E12CF12C2C193D094E095F09B501EE
:101A700080E090E08F809884A12CB12C68197909BE
:101A80008A099B090E94693C2B813C8140E050E01F
:101A9000281939094A095B090E94BB3C2C0D3D1DE0
:101AA0004E1D5F1D57FF03C020E030E0A901C901B2
:101AB00002C080E090E028960FB6F894DEBF0FBE1B
:101AC000CDBFDF91CF91FF90EF90DF90CF90BF908F
:101AD000AF909F908F9008958250893130F4E82F15
:101AE000F0E0EF58FF4F8081089581E00895CF9393
:101AF000DF93833149F481E020919602309197027F
:101B000023313105C1F41AC0E82FF0E0EE0FFF1FBA
:101B1000E459FD4FC081D1810E946C0D882319F0DA
:101B2000813029F00AC081E0E39740F404C081E0ED
:101B3000C935D24018F480E001C081E0DF91CF9137
:101B40000895CF93C0E08FE18C0F0E94770D88231A
:101B500029F0CF5FC630B9F786E001C08C2FCF9156
:101B600008951F93CF93DF931F92CDB7DEB7182F41
:101B700069830E946C0DE12FF0E0EE0FFF1FE45926
:101B8000FD4F4981682F808191810F90DF91CF9126
:101B90001F910C94CF382FB7F89460910802709180
:101BA000090280910A0290910B022FBF2DE730E0CD
:101BB00040E050E00E94993CBB27A52F942F832F33
:101BC000089520919A0230919B0280910802909191
:101BD0000902A0910A02B0910B02820F931FA11D6E
:101BE000B11D8093080290930902A0930A02B0935A
:101BF0000B02089580913E0390913F03892B49F099
:101C000080913E0390913F03019790933F0380930F
:101C10003E03089590E0880F991FFC01E459FD4FA1
:101C2000208131816217730718F4261B370B04C01B
:101C3000AB01421B530B9A01FC01EE5DFD4F2730B7
:101C4000310518F01182108206C0208131812F5F8A
:101C50003F4F31832083FC01E459FD4F7183608342
:101C600008958FB7F894109208021092090210920A
:101C70000A0210920B028FBF0E945E0C0E944A0C57
:101C800060E070E089E10E940A0E60E070E08BE1A4
:101C90000E940A0E60E070E08CE10E940A0E60E093
:101CA00070E08DE10C940A0E109221021092200235
:101CB0000E94310EECE6F2E01192119282E0E63BD6
:101CC000F807D1F7089590914103911109C00E943E
:101CD00051050E94540E81E0809341030C946F0CD7
:101CE00008950C94540EAF92BF92CF92DF92EF9270
:101CF000FF920F931F93CF93DF931F92CDB7DEB761
:101D0000A0906C02B0906D0280916E0290916F0273
:101D10008A159B0518F4A81AB90A02C0A12CB12C87
:101D2000B50182E10E940A0E0EE712E09FE1F80180
:101D3000619171918F01892F99830E940A0E998177
:101D40009F5F9532A1F70E94A10DF82E80E000E080
:101D500010E08F1569F0EFE1E80FF0E0EE0FFF1FE4
:101D6000E459FD4F20813181020F131F8F5FF1CFA6
:101D7000B80183E10E940A0E0115110581F00A15D0
:101D80001B0520F49501201B310B03C098012A1973
:101D90003B09293B3B4018F4580113E102C012E112
:101DA000F12CB50184E10E940A0E6F2D70E086E1EE
:101DB0000E940A0E612F70E085E10E940A0E0E94C7
:101DC000CB0D8C010E94001B882329F0E090720249
:101DD000F09073020BC00E944A21882329F0E09002
:101DE0007002F090710202C0E12CF12CB70187E182
:101DF0000E940A0EB80189E10E940A0E9701D501DE
:101E00000E94483C30E1C32E37E2D32EE12CF12C66
:101E1000A70196010E94993CB90188E10E940A0E2F
:101E20009801D5010E94483CA70196010E94993C67
:101E3000B9018AE10F90DF91CF911F910F91FF902F
:101E4000EF90DF90CF90BF90AF900C940A0E4F921E
:101E50005F926F927F928F929F92AF92BF92CF923A
:101E6000DF92EF92FF92CF93DF93CDB7DEB7289743
:101E70000FB6F894DEBF0FBECDBF0E94DD342091B7
:101E80000C0230910D02821B930B8133954708F4AD
:101E9000A0C04FB7F89420911E0230911F02A8EE07
:101EA000B3E00E94483C6B017C01F694E794D79420
:101EB000C79440901A0250901B0260901C027090D0
:101EC0001D02609116027091170280911802909184
:101ED00019028090120290901302A0901402B09008
:101EE00015024FBF6D837E838F8398870E94220CDB
:101EF00020911002309111022F5F3F4F3093110259
:101F0000209310026D817E818F819885A7019601B3
:101F10000E94993C29833A834B835C83C301B201BD
:101F2000A70196010E94993CB90180E00E94A40C8F
:101F30003C0169817A8181E00E94A40C8615970595
:101F400018F4681A790A02C0612C712C4090A4021E
:101F50005090A5026414750420F0B3018CE10E9436
:101F60000A0EB301641975098BE10E940A0EC501BE
:101F7000B401A70196010E94993CB90187E00E9433
:101F8000A40C20910E0230910F0290930F028093C7
:101F90000E02BC01621B730B660F771F8DE10E945E
:101FA0000A0EB6018EE128960FB6F894DEBF0FBE7A
:101FB000CDBFDF91CF91FF90EF90DF90CF90BF909A
:101FC000AF909F908F907F906F905F904F900C9408
:101FD0000A0E28960FB6F894DEBF0FBECDBFDF9174
:101FE000CF91FF90EF90DF90CF90BF90AF909F90F8
:101FF0008F907F906F905F904F900895CF92DF9277
:10200000EF92FF920F931F93CF93DF932FB7F89424
:1020100080913E0390913F032FBF892B09F0ADC003
:102020008091400381119FC08091200290912102F4
:10203000019690932102809320024091FA025091E0
:10204000FB026091FC027091FD02769567955795B1
:10205000479580911A0290911B02A0911C02B091A9
:102060001D02840F951FA61FB71F80931A0290931D
:102070001B02A0931C02B0931D024091FE025091DE
:10208000FF02609100037091010376956795579563
:1020900047958091160290911702A0911802B09175
:1020A0001902840F951FA61FB71F809316029093E5
:1020B0001702A0931802B093190240911603509191
:1020C00017036091180370911903769567955795DA
:1020D00047958091120290911302A0911402B09141
:1020E0001502840F951FA61FB71F809312029093AD
:1020F0001302A0931402B093150280911E029091D6
:102100001F02019690931F0280931E020E94270FC8
:1021100006EB12E0C0E0D0E0B8EECB2EB3E0DB2E51
:10212000E12CF12CFE01EE0FFF1FEE0FFF1FE6501A
:10213000FD4F6081718182819381A70196010E9488
:10214000993CF801219331938F01B9018C2F0E94A2
:10215000A40CBC018C2F0E940A0E2196C131D1051E
:1021600009F70E94730EDF91CF911F910F91FF909D
:10217000EF90DF90CF900C94050CDF91CF911F91E1
:102180000F91FF90EF90DF90CF90089580914103E1
:1021900081110C94FE0F089560E082E493E00E94A8
:1021A000612987FD0AC0811102C00C9493299927E7
:1021B00087FD909501970C945D2B08950E947A05F8
:1021C00078940E941A050E946B080E94F2210E94D6
:1021D000821B0E94710E0E94B90A0E94DD120E94A9
:1021E00033300E9408310C9409120E94DE100E94C4
:1021F000CC10FDCF68EA71E082E493E00E94CF2E1C
:102200008EE890E09093430380934203E6E4F3E08A
:102210008081825E80830895FC0124812E516217A3
:1022200010F40C94CA2E862F90E0821B91090E9414
:10223000C8156EE00C941D37FF920F931F93CF9338
:10224000DF93EC018B0141110E94403D85E0F82EA7
:10225000FA9459F0CE010E94193D8017910739F088
:1022600084E690E00E94EF34F3CF81E001C080E08B
:10227000DF91CF911F910F91FF900895EF92FF9200
:102280000F931F93CF93DF937B018C01E80EF91E10
:10229000CFEFDFEF0E151F05A9F0C8010E94113D19
:1022A000C82728E0CE01969587953C2FEC0130FF9A
:1022B00004C031E0C32730EAD327215099F70F5FDC
:1022C0001F4FE8CFCE01DF91CF911F910F91FF906B
:1022D000EF900895EF92FF920F931F93CF93DF93A8
:1022E0001F92CDB7DEB78C017B0149830E943E115E
:1022F0004981BC01C8018E0D9F1D0F90DF91CF91C8
:102300001F910F91FF90EF900C941C11482F68E8DB
:1023100070E08AE090E00C946A11482F6CE073E062
:1023200084E990E00C946A11482F6EE370E082EA31
:1023300093E00C946A110F931F93CF93DF93D82FE0
:10234000182F1170412F63E678E680E090E00E943C
:102350001C11C82F412F6CE679E682E090E00E94C4
:102360001C118111C1E0D1FB002700F9402F69E069
:1023700070E084E090E00E941C118111C260D2FBE9
:10238000112710F9412F62E070E086E090E00E9492
:102390001C118111C460D3FBDD27D0F94D2F69E0FA
:1023A00070E088E090E00E941C118111C86001116A
:1023B0000E949A0B80E00E9486118111C260111167
:1023C0000E94041780E00E948D118111C460D11118
:1023D0000E94F61280E00E9494118111C8608C2F37
:1023E000DF91CF911F910F910895CF93C82F0E9435
:1023F000C630C0FDC260C1FDC460C2FDC8600E949D
:10240000E0308C2F0E949B11682F8C2FCF910C9461
:10241000E43080E00E949B11882321F00E94F51196
:1024200080E0089581E0089580E00E949B11816022
:102430000C94F511CF930E94293082E093E09093A1
:10244000D3038093D203C1E0C093D1031092C90398
:102450008DE893E00E941B14823011F4C093C903ED
:102460000E94651A91E0813009F090E0892FCF91A8
:10247000089561E081E00E94E5198EE093E0909379
:10248000D3038093D203089561E081E00E94E519AF
:102490008AE193E09093D3038093D203089560E0A0
:1024A00082E00E94E5198CEF92E09093D303809331
:1024B000D203089590916D039093CA031092C903BB
:1024C00090E089309105A0F5FC01E65DFF4F0C948A
:1024D000DA3C8DE893E00E941B14811106C00E9433
:1024E000441224C081E08093C9030E9439121EC0A7
:1024F00086EF92E00CC00E944F1218C085E08093D6
:10250000CA03F3CF81E08093C90384E193E0909301
:10251000D3038093D2030AC063E081E005C06091D9
:102520006703660F615080E00C9457170C94651A8E
:1025300080E00895CF93C82F0E943327882359F154
:10254000C0934E0310924C0310924B0383E0809390
:102550004D030E94C43A81E00E94630E0E941A1249
:10256000882391F081E080934D030E94721D0E94A8
:1025700029301092D10384E00E94BB3380914E0336
:102580000E945A120E94AE1D0E94860C0E94D43AEC
:10259000CF910C943230CF910895DC01D496ED9117
:1025A000FC91D597EE0FFF1FEE0FFF1FEC54FE4F6F
:1025B000659175918591949108954EE350E062EA9A
:1025C00073E08FE493E00C94013D4EE350E062EA47
:1025D00073E08FE493E00E941F3D81E00C9494111E
:1025E0004EE350E068EC71E00C94E03C8FE493E043
:1025F0000E94F0120C94E512FC01208D318D2630E2
:10260000310520F025E030E0318F208F08950895C6
:102610000F931F93CF93DF93CDB7DEB7C954D10982
:102620000FB6F894DEBF0FBECDBF8C01BC01CE014A
:1026300001960E94A52BCE0101960E94C22B8EE32B
:10264000FE013C96D80101900D928A95E1F70E9417
:10265000E512C75BDF4F0FB6F894DEBF0FBECDBFEC
:10266000DF91CF911F910F910895FC012591349135
:10267000F901099440E0FC01259134910296232B45
:1026800011F04F5FF8CF842F0895282F81E090E05C
:102690003AE0215038F0AC01349FC001359F900DD5
:1026A0001124F7CF089597FD02C081E008958FEFC0
:1026B0000895CF92DF92EF92FF92CF93611571054B
:1026C0008105910521F461E070E080E090E0C0E0D8
:1026D0002AE0C22ED12CE12CF12CCF5FA70196016C
:1026E0000E94993CCA01B9012115310541055105E6
:1026F000A1F78C2FCF91FF90EF90DF90CF900895AE
:10270000BC0180E090E00C945913CF92DF92EF92DD
:10271000FF920F931F93CF93DF93EC017B016A012C
:10272000E881F981CF01B8010E94853C009731F022
:102730001E141F049CF4081B190B03C01E141F0455
:1027400074F4C901801B910BE817F90718F40E0FF8
:102750001F1F01C08901198308830DC08C01C801A6
:102760008C0D9D1D8E179F0718F4E01BF10B01C007
:10277000F601F983E883DF91CF911F910F91FF90CC
:10278000EF90DF90CF9008950F931F93242F30E0A8
:1027900001E010E040E050E00E9485131F910F918E
:1027A00008950F931F93242F30E001E010E041E0E3
:1027B00050E00E9485131F910F910895AF92BF9230
:1027C000CF92DF92EF92FF920F931F93CF93DF93FD
:1027D000EC017B016A0159016881798180E090E018
:1027E0000E945913823020F082500E94451302C08B
:1027F00081E090E08C019501A601B701CE010E9415
:102800008513DF91CF911F910F91FF90EF90DF9093
:10281000CF90BF90AF9008952FEF3FEF40E050E092
:102820000C94DE130E9445358111FCCF0E94453582
:102830008823E1F30895FC0180819181893091051D
:1028400079F09C01245031092530310558F09C0164
:102850002150310981E02230310528F480E00895CB
:1028600083E0089582E00895CF93DF93FC012081F7
:10287000318145E0429FF001439FF00D1124E60FA6
:10288000F11DEE0FFF1FEE56FD4FC591D491613043
:10289000C9F42230310529F4C0916303D091640357
:1028A0001DC02130310529F4C0916503D091660324
:1028B00015C00E941B14823089F480917503909199
:1028C00076030AC0623051F40E941B14823031F446
:1028D0008091770390917803C80FD91FCE01DF91C3
:1028E000CF910895FF920F931F93CF93DF938C01A5
:1028F000F62EFC01C085D1850E943414F2E0FF124F
:102900000CC0F801208131812230310531F4C7300B
:10291000D10518F0219780EB94E09C012C9FC00119
:102920002D9F900D3C9F900D1124DF91CF911F9111
:102930000F91FF9008950F931F93CF93DF93EC01B6
:102940008B0150E00E940E364AE3B801CE01DF91C0
:10295000CF911F910F910C94BA35EF92FF920F9384
:102960001F93CF93DF9300D01F92CDB7DEB78C01BA
:10297000462F0C969A8389838EE08B83D801ED9144
:10298000FC91EE0FFF1FEA5FFD4FE590F490BE0152
:102990006D5F7F4FCE0101960E949B14A701BE017F
:1029A0006D5F7F4FCE0101960E94D53540E2BE019A
:1029B0006D5F7F4FCE0101960E94BA35F8014281CA
:1029C0005381BE016D5F7F4FCE0101960E940E368E
:1029D0004FE2BE016D5F7F4FCE0101960E94BA3576
:1029E000D80118964D915C911997BE016D5F7F4F8C
:1029F000CE0101960E940E360F900F900F90DF913E
:102A0000CF911F910F91FF90EF900895CF93DF9397
:102A100000D01F92CDB7DEB7462F2EE02B830C9649
:102A20009A838983BE016D5F7F4FCE0101960E941C
:102A30009B140F900F900F90DF91CF9108952AE192
:102A4000289FB001299F700D11246C567F4F4AE1D9
:102A500050E08DE893E00C94013D2AE1289FB001FD
:102A6000299F700D11246C567F4F4AE150E08DE88C
:102A700093E00C941F3DFC01A281B381209171036E
:102A8000309172030E94483C24E630E040E050E080
:102A90000E94993C293EFDEF3F074105510520F07A
:102AA00028EE3DEF40E050E0C9010895FC0120818F
:102AB00031812130310529F4209161033091620385
:102AC0000AC02230310529F420915F033091600360
:102AD00002C020E030E0FC0180859185AC01249F9C
:102AE000C001259F900D349F900D11240895FC0185
:102AF000208131814CE0429FB001439F700D112431
:102B0000665E7D4F4CE050E00C94E03CFC0160813F
:102B100086E092E00C94E336CF93DF93EC0188815A
:102B2000998160E0892B41F4CE010E94721467E024
:102B3000DF91CF910C941739CE010E94721465E099
:102B40000E9417398FE20E946236888599850E941B
:102B5000A13683E4DF91CF910C94623666E0FC01EC
:102B6000848195810C94133966E0FC0186819781FC
:102B70000C941339FC0182819381883EFDEF9F07FD
:102B800021F48CE898E00C94CB3667E00C940F3974
:102B90002AE1AC01249FC001259F900D112480568D
:102BA0009F4F08950F931F93CF93DF93CDB7DEB759
:102BB000A7970FB6F894DEBF0FBECDBF8C01AB0157
:102BC000BC01CE0101960E94EC29CE0101960E9423
:102BD000712A8AE1FE013C96D80101900D928A95F6
:102BE000E1F7A7960FB6F894DEBF0FBECDBFDF9119
:102BF000CF911F910F910895FC0120813181260F03
:102C0000371F2A30310550F01616170624F4FC0140
:102C10001182108205C029E030E0FC01318320835D
:102C20000C94771562E00E9472149C0140E050E021
:102C300060E074EB84EC94E00E94993C213787E1DA
:102C400038074105510520F020E737E140E050E02A
:102C5000C901089562E00E9472149C0140E050E0B6
:102C600060E876E988E990E00E94993C213D87E0A0
:102C700038074105510520F020ED37E040E050E0F5
:102C8000C901089561E00E943414BC0188E799E607
:102C90000E94853CCB010895CF93DF93EC018A819C
:102CA0009B818436910520F484E690E09B838A839F
:102CB0008A819B81893E9D4F20F088EE9DEF9B830A
:102CC0008A838A859B85893E934020F088EE93E035
:102CD0009B878A87CE010E944216288539858217F4
:102CE000930710F499878887CE010E9412162C81D1
:102CF0003D818217930710F49D838C83CE010E943F
:102D00002A162E813F818217930710F49F838E83AA
:102D100080916F03909170032C813D8128173907B2
:102D200010F49D838C832E813F812817390710F47E
:102D30009F838E83DF91CF910895EF92FF920F933F
:102D40001F93CF93DF9300D0CDB7DEB77C01FC019A
:102D500080819181892B19F402E310E002C001E027
:102D600010E0C70169837A830E9442169C0141E00A
:102D700050E069817A81C70108960E948513C701D6
:102D80000F900F90DF91CF911F910F91FF90EF90D7
:102D90000C944C160F931F93CF93DF93EC01029684
:102DA0000E940C14CE010E944C160A811B811D83C7
:102DB0000C83CE010E941B14813039F4C801969512
:102DC0008795969587959D838C831F830E83CE016F
:102DD000DF91CF911F910F910C944C16CF93DF93FD
:102DE000EC0104960E940C14CE01DF91CF910C945B
:102DF0004C16CF93DF93EC0106960E940C14CE0183
:102E0000DF91CF910C944C160F931F93CF93DF93C8
:102E10004CE050E062E672E08DE893E00E94E03C16
:102E20008DE893E00E944C16C0E0D0E08E010F5F69
:102E30001F4FB8018DE893E00E940615CE010E9455
:102E40002D150E31110511F0E801F0CF81E0DF9171
:102E5000CF911F910F910C948D11FC018285938568
:102E6000883EF3E09F0719F48CE898E005C063E022
:102E70000E94AE3887E898E00C94CB36CF93DF936E
:102E8000EC010A960E940C14CE01DF91CF910C94B4
:102E90004C168091690390916A030E94561C88E049
:102EA00093E09093D3038093D2030C94651ACF934D
:102EB000C62F91E09093D1038093A7038091A7033D
:102EC0008C1302C01092D10380FF02C080E001C0C9
:102ED00083E00E945A12813089F49091D1039923A2
:102EE00069F08091A7038F5F8093A7030E94551D0F
:102EF0000E94310E0E944917813001F3CF9108954D
:102F00008091C603811113C00E944C0B882381F06D
:102F10000E944F0B2091A8033091A903821B930BB1
:102F20009C0181E02330310518F080E0089581E0B4
:102F30000895815E0C94370B0F931F93CF93DF930B
:102F400010E0CFEFDFEF00E08091C803181760F4C6
:102F5000812F0E9499178C179D0710F0CE0101C098
:102F6000012F1F5FEC01F0CF802FDF91CF911F91D8
:102F70000F910895CF93DF939091C603911104C0F0
:102F8000DF91CF910C9499179091AC03C82FD0E0AA
:102F9000992391F00E949917CC0FDD1FFE01E35594
:102FA000FC4FC754DC4F2081318148815981241B5B
:102FB000350B280F391F07C0FE01EE0FFF1FE35529
:102FC000FC4F20813181C901DF91CF910895EF92AB
:102FD000FF920F931F93CF93DF93C0E0D0E0E12CDB
:102FE000F12C0FEF1FEF8091C80390E0C817D907AD
:102FF0006CF48C2F0E94BA17E816F90608F47C01CD
:103000008017910708F48C012196EDCFE01AF10AA0
:1030100081E020917D0330917E032E153F0508F05D
:1030200080E0DF91CF911F910F91FF90EF90089575
:10303000CF93C82F8091C603882341F0C11106C0E9
:103040000E944F0B9093A9038093A803C093C603DB
:103050000E94550C8091C503811104C08C2FCF9123
:103060000C945B05CF910895EF92FF920F931F93FD
:10307000CF93DF9381E00E940A0586E10E94370B1F
:103080008093C80309EB13E03DEAE32E33E0F32E0F
:10309000C0E0D0E08091C80390E0C817D9076CF475
:1030A0008C2F0E949917F801819391938F01F7015A
:1030B000819391937F012196EDCF1092C6031092D8
:1030C000C50380E00E9418181092A9031092A8036B
:1030D0008FEF8093C703DF91CF911F910F91FF90E6
:1030E000EF90089580E00E94181881E08093C50356
:1030F00008950E94721880E00C940A05FF920F93C5
:103100001F93CF93DF938091C70387FD17C00E9461
:10311000BA17EC0110E0FF24F39400E08091C8039B
:10312000181750F4812F0E94BA17C817D90708F44E
:103130000F29FF0C1F5FF2CF802F01C080E0DF91CD
:10314000CF911F910F91FF9008951F93CF93DF931D
:10315000EC0110E08091C803181748F48FE1810F4B
:103160000E945E0B8C179D0720F01F5FF3CF81E05C
:1031700001C080E0DF91CF911F9108959F92AF929F
:10318000BF92CF92DF92EF92FF920F931F93CF9354
:10319000DF9386E090E00E94A518882309F464C0BC
:1031A0000E94F30B882309F45FC08091C70387FF57
:1031B00004C00E949C178093C7038091C7030E949C
:1031C00099176C0162E08DE893E00E9434145C0171
:1031D0004DEAE42E43E0F42E09EB13E0C0E0D0E02A
:1031E000992493948091C80390E0C817D907B4F448
:1031F0008C2F0E9499178A159B0570F0C816D90666
:1032000008F4912CF701819391937F01F801819348
:1032100091938F012196E6CF992493941092AC0359
:103220000E94E5349093AB038093AA03992069F040
:10323000DF91CF911F910F91FF90EF90DF90CF9092
:10324000BF90AF909F900C9472180E947E18DF91EF
:10325000CF911F910F91FF90EF90DF90CF90BF9093
:10326000AF909F900C941818DF91CF911F910F9100
:10327000FF90EF90DF90CF90BF90AF909F90089518
:10328000CF938091AC03811115C081E08093AC0392
:10329000C0E08091C803C81768F48C2F0E9499176A
:1032A000EC2FF0E0EE0FFF1FE754FC4F918380837B
:1032B000CF5FEFCFCF9108950E94E5342091AA030C
:1032C0003091AB03821B930B08958091C60381114B
:1032D00003C00E94BE1809C00E9440190E945C19D8
:1032E000409718F080E00E9418180E9480178823E9
:1032F00011F082E008958091C5038823D1F381E025
:1033000008951F93CF93DF93EC0110E08091C803E1
:10331000181740F4812F0E94BA178C179D0720F4CC
:103320001F5FF4CF80E001C081E0DF91CF911F915A
:1033300008951F93CF93DF93EC0110E08091C803B1
:10334000181740F4812F0E94BA17C817D90720F424
:103350001F5FF4CF80E001C081E0DF91CF911F912A
:1033600008956091C803662329F070E00E94853CAF
:10337000CB01089580E090E008950E94C12161E0B2
:1033800081E00E94E51981E00E941E1F8091CB031D
:103390009091CC030C948C2181E00C94D7210E9455
:1033A000F30B882321F00E945E210C94B91F08952D
:1033B00020916F03309170038217930708F4C901BD
:1033C0009093CC038093CB030895CF93C62F682F9F
:1033D0008DE893E00E9472149093D0038093CF0302
:1033E000CC2329F0809191039091920304C08091A5
:1033F0009303909194039093CE038093CD036091B7
:10340000CA0370E08091CD039091CE030E94853C69
:10341000CB01CF910C94D8198091D2039091D30312
:103420000C9435138091D2039091D30302960C949F
:1034300035130E94121A0E94AE1D0C94B635CF931C
:10344000DF930E94E534EC010E94E5348C1B9D0B58
:10345000853B910510F00E94860C0E94453588231B
:1034600099F388E0DF91CF910C94BB330E94191A35
:103470000E94733085E00E94BB330C941F1A0E9497
:10348000191A0E94860C0E94773086E00E94BB3396
:103490000C941F1AE091D203F091D30334968591D6
:1034A0009491FC010994811103C00E943F1A0BC042
:1034B000813039F48091D103811105C00E94361A00
:1034C00002C081E0089580E008950F931F93CF9389
:1034D000DF9310927A040E940C1A02E0C0E0D0E060
:1034E00011E00E94453580937A040E949C3011239C
:1034F00079F00E94EE1D082F0E94531A182F88237E
:1035000039F00E944F0BC817D90771F4111107C089
:103510008091D103882311F0011110C010E0809137
:103520007A048130F1F60AC00E944F0BEC010E9430
:103530004A1A082F0E94531A182FE8CF0E94121A15
:10354000802FDF91CF911F910F91089581E00E940C
:103550006F1B0C9479180E94611B0E94341821E0A3
:103560008091790390917A03892B09F420E02093CC
:10357000D40380E00C941E1F1F93CF93DF93C09160
:10358000CF03D091D003CE010E94B1190E949919A6
:10359000182F0E948017811109C0111107C00E94C5
:1035A000E40B11E0C817D90708F410E0812FDF9170
:1035B000CF911F9108951F93CF93DF930E94BC1A60
:1035C000182F0E94141BEC018091D403882329F04A
:1035D000BE01812F0E94681F01C0812F882329F01E
:1035E00081E00E946F1B81E007C0BE01812F0E9415
:1035F00087200E94421B82E0DF91CF911F910895A6
:1036000081E09091D903911180E0089581E02091AB
:10361000D7033091D803232B09F480E008958091DB
:10362000D7039091D80308958091D5039091D60344
:1036300008950E94E90B009711F481E090E09C014D
:1036400040E050E060E876E988E990E00E94993C2B
:10365000213D87E038074105510520F020ED37E096
:1036600040E050E0C9010895813020E4920710F055
:1036700080E090E49093D8038093D7030E94C8061B
:103680000C945E0CCF93DF93EC010E94191BBC01DC
:10369000C817D90708F4BE018091D5039091D603CD
:1036A0008617970759F07093D6036093D50380E18E
:1036B0000E94080DDF91CF910C94341BDF91CF91C4
:1036C00008958091D903882349F080E090E00E941A
:1036D000341B81E00E9419061092D9030895CF93FC
:1036E000C82F8091D90381110BC0CC2349F080E011
:1036F00090E00E94341B80E00E941906C093D90319
:10370000CF91089580E090E00E94341B81E00C94FA
:103710006F1B87E080937C0482E080937D040E948D
:10372000B43383E08093DA030895FF920F931F93DD
:10373000CF93DF9382E10E94770D11E018278091EB
:10374000C903882381F00E94A10D90919503FF2465
:10375000F394981301C0F12C01E0811100E0913045
:1037600021F4002311F000E0F12C0E94DA0B8823F1
:10377000A9F083E10E94370BEC0182E10E94370B34
:10378000C817D90728F49C012C1B3D0BE90102C086
:10379000C81BD90BC53FD14008F011E0F11002C0A1
:1037A00087E001C083E080937C04002329F08091AE
:1037B0007C04825080937C04112329F080917C0446
:1037C000815080937C04F11004C0011102C01123C8
:1037D00031F081E00E94BB33011107C004C088E0D2
:1037E0000E94BB3308C0FF2031F020917B03309151
:1037F0007C03232B11F4C0E001C0C1E020918D03B4
:1038000030918E03232B29F480914E03811101C046
:1038100010E00E941935811102C01092DA03C11123
:1038200006C0111104C00E941935883041F0809102
:10383000DA03823011F481E008C082E006C0809192
:10384000DA038F5F8093DA03F2CFDF91CF911F917C
:103850000F91FF9008958FEF80937C0488E00C9483
:10386000BB331092DF0308950E94E5349093DE038A
:103870008093DD0308950E94E5342091DD033091AB
:10388000DE03821B930B2091DB033091DC032817AE
:10389000390728F081E08093DF0382E008951092D9
:1038A000DF0381E008958091DF0308952CE3AC01EC
:1038B000249FC001259F900D11249093DC038093D9
:1038C000DB0308950E9434180E94C12181E00C940A
:1038D0001E1F81E00E94D7210C9479181F93CF936B
:1038E000DF93C091CF03D091D003CE010E94B119D4
:1038F0000E948119182F0E948017811109C011118F
:1039000007C00E94E40B11E08C179D0708F410E03B
:10391000812FDF91CF911F9108951F93CF93DF9354
:103920000E946E1C182F0E945E21EC01BC01812FA9
:103930000E94681F882329F081E00E94D72181E03E
:1039400007C0BE01812F0E9487200E948C2182E047
:10395000DF91CF911F9108958091EC039091ED0339
:103960002091EF03222341F00E94E5342091EC03E3
:103970003091ED03821B930B08956091E8037091E1
:10398000E9038091EA039091EB0328EE33E040E0F5
:1039900050E00E94993CC90108956091E403709140
:1039A000E5038091E6039091E70328EE33E040E0E1
:1039B00050E00E94993CC90108950F931F93CF9343
:1039C000DF9361E08DE893E00E9472148C0164E063
:1039D0008DE893E00E947214EC0184E10E94370BA1
:1039E00080179107B8F4C817D907B0F49C012C1BB5
:1039F0003D0BC8018C1B9D0B64E670E00E94853C6A
:103A0000C9010E94853C6436710510F063E670E0E0
:103A1000862F03C083E601C080E0DF91CF911F9124
:103A20000F910895CF93DF930E94DD1C9091EE03D8
:103A30009817E0F48093EE030E94AC1C2091F103F0
:103A40003091F203EC01C21BD30B0E94AC1C90938B
:103A5000F2038093F1038091F3039091F4038C17A8
:103A60009D0720F4D093F403C093F303DF91CF912B
:103A700008950E94121D8091F003882311F089E6B9
:103A800001C084E690E02091EE03821B9109209111
:103A9000F3033091F403AC01429FC001439F900DAA
:103AA000529F900D1124089508950E94DD1C80936B
:103AB000EE031092F2031092F1031092F4031092AD
:103AC000F3031092E8031092E9031092EA031092B4
:103AD000EB031092E4031092E5031092E6031092B8
:103AE000E7030895CF93DF9368E572E080E00E94DA
:103AF000080D9093E3038093E20361E08DE893E087
:103B00000E947214EC01C854D44FC93729E6D20779
:103B100010F0C8E7D9E6CE010E94F905BE0180E0A9
:103B20000E94080D813C2FEF920710F080EC9FEF70
:103B30009093E1038093E0030E94DA0B8093F003FB
:103B40000E94E5349093ED038093EC030E94551D91
:103B500081E08093EF03DF91CF9108950E94AC1C28
:103B60009093ED038093EC031092EF0308950E946D
:103B7000502181111DC00E94061B811119C00E9495
:103B80008017882351F18091E8039091E903A09177
:103B9000EA03B091EB0380599F4FAF4FBF4F809323
:103BA000E8039093E903A093EA03B093EB0308952D
:103BB0008091E4039091E503A091E603B091E703BF
:103BC00080599F4FAF4FBF4F8093E4039093E5031D
:103BD000A093E603B093E703D2CF0895CF93DF938A
:103BE0008091EF03811102C082E089C080E00E94D1
:103BF000400B2091E0033091E1038217930758F4C2
:103C00002091E2033091E3038217930760F40E944E
:103C1000001B882341F08BE799E090934C0380933D
:103C20004B0380E06CC0C091F0030E94DA0BC81710
:103C300019F08CE699E0F1CFC091CD03D091CE037D
:103C4000C851DC4F0E94EE0BC817D90718F481E663
:103C500099E0E3CF86E00E94370B20917303309107
:103C600074038217930718F482E599E0D6CF89E1AF
:103C70000E94370BEC018DE893E00E943B15883ED3
:103C80002DEF920731F0C817D90718F082E499E0B8
:103C90001BC0C0919703D0919803C83E83E0D8071A
:103CA000C8F46091E4037091E5038091E60390917C
:103CB000E70320E63AEE40E050E00E94993C2C17E2
:103CC0003D0740F087E399E090934C0380934B03CA
:103CD00081E015C08091570390915803892B09F416
:103CE00083CF87E00E94370B2091590330915A030C
:103CF0002817390708F078CF87E299E08ECFDF9157
:103D0000CF9108950E94691C0E94A61A0C947918FC
:103D1000CF93DF931F92CDB7DEB78091F503882351
:103D200029F0813031F40E94DB1A0CC00E948D1CF6
:103D300009C00E946519823089F089830E94821E21
:103D400089810CC0813051F49091C903992331F0DD
:103D500082E08093F5030E94341882E00F90DF9197
:103D6000CF910895CF93DF930E94341861E083E0F0
:103D70000E94E519C091CF03D091D0038091C80370
:103D8000811106C00E94E40BC817D90740F40CC08B
:103D9000CE010E94B1190E949919882329F00E942E
:103DA000621C1092F5030BC060E083E00E94E519ED
:103DB0000E94AB1A81E08093D4038093F503DF91D6
:103DC000CF9108958091F603813029F48091CB033F
:103DD0009091CC03089580E090E008952CE0829FBC
:103DE000C00111248E5F9B4F0C9401228AE494E061
:103DF0000C940122CF93DF9300D000D0CDB7DEB773
:103E000082E10E94370B9A83898384E10E94370BF9
:103E100029813A81281B390B3A83298387E10E9443
:103E2000370B9C838B83CE0101960E9401220F9059
:103E30000F900F900F90DF91CF910895EF92FF9226
:103E40000F931F93CF93DF93F82E81E08093F603B7
:103E50000E94E40BBC012091CB033091CC03409134
:103E6000CF035091D0030F2D82E494E00E941C22D6
:103E70008091CF039091D0030E94B119EC0110E022
:103E80008CE0E82E8091C803181798F4812F0E94C7
:103E9000BA17BC012091CB033091CC03E19EC00145
:103EA00011240F2DAE0186509C4F0E941C221F5FD3
:103EB000E9CF109250041092F90310924F0410921F
:103EC0004E04DF91CF911F910F91FF90EF900895D5
:103ED0001F93CF93DF93182FEB018091C9038823A1
:103EE00061F1112349F080915004811105C00E94B5
:103EF000721881E08093500480915004882311F05F
:103F00008530D9F42091CB033091CC03203A310590
:103F100010F420EA30E02C173D0710F41092C5038E
:103F20000E9465198093F6038130F1F40E94E7172F
:103F3000882319F08FEF8093C7030E94E21E8C172D
:103F40009D0780F0112371F080915004853051F469
:103F50009091F90381E0890F8093F90381E09A3011
:103F600020F402C01092F90380E0DF91CF911F91FD
:103F700008950F931F93CF93DF93EC010E94E40BFE
:103F8000AE01BC0182E494E00E94D52210E00CE076
:103F90008091C803181770F4812F0E94BA17BC01D2
:103FA000019FC0011124AE0186509C4F0E94D52272
:103FB0001F5FEECFDF91CF911F910F910895CF92A8
:103FC000DF92EF92FF920F931F93CF93DF93609155
:103FD000CF037091D00382E494E00E9441228C01CF
:103FE0008091CF039091D0030E94B1197C01D12C14
:103FF0009CE0C92E8091C803D81698F4CD9CE001AE
:104000001124C650DC4FB701CE010E94412208178F
:10401000190728F0B701CE010E9441228C01D394E8
:10402000E9CFC801DF91CF911F910F91FF90EF90E1
:10403000DF90CF9008950F931F93CF93DF93EB0101
:104040002091CD033091CE038C012817390708F455
:1040500089010E94E21E9C018017910708F49801D3
:10406000C217D307E1F0409150044530D1F42C172A
:104070003D07B8F082179307A0F48091CB0390918D
:10408000CC038C179D0758F04091F7035091F8032B
:104090008091A8039091A9034817590711F4CE0104
:1040A00009C08091A8039091A9039093F80380938D
:1040B000F703C901DF91CF911F910F9108950F93DD
:1040C0001F93CF93DF93EC010E94E40B9093430482
:1040D00080934204D0934504C093440410E00CE064
:1040E0008091C803181770F4812F0E94BA17019F9E
:1040F000F0011124E650FC4F91838083D383C28367
:104100001F5FEECFDF91CF911F910F9108951F9305
:10411000CF93DF93182FEB010E94F30B811108C09E
:104120001123E1F120914E0430914F04232BB1F182
:104130000E948017811132C0CE010E94B91FCE01AA
:104140000E945F200E94DF1F8C179D0708F048C067
:104150009C012C0F3D1F3695279530934F042093DB
:104160004E04BE0180914E0490914F040E941B208A
:1041700090934F0480934E0490915004923009F133
:10418000A8F49923C1F0913039F5112339F083E077
:104190008093500410924F0410924E0480914E046C
:1041A00090914F04DF91CF911F910895933061F06A
:1041B000943081F011C0112389F30E94721881E0BC
:1041C0000CC010925004EACF10924F0410924E048B
:1041D00084E003C0112311F385E080935004DECF07
:1041E00090934F0480934E04BCCF0C94BD19CF9391
:1041F000DF930E94CF190E94E40BEC0162E08DE88E
:1042000093E00E9472148C179D0730F48091CD03C7
:104210009091CE030E948C218091CF039091D00386
:104220008C179D0718F484ED96E02AC00E94590B64
:10423000029760F180915D0390915E03892B71F08C
:104240008BE10E94370BEC018DE893E00E9456153C
:10425000C817D9071CF480ED96E012C0809157036F
:1042600090915803892B91F08DE10E94370B20919A
:104270005B0330915C032817390744F48AEC96E01D
:1042800090934C0380934B0381E001C082E0DF9167
:10429000CF91089581E090915504911180E00895A7
:1042A00081E02091530430915404232B09F480E0E1
:1042B000089580915304909154040895809151047D
:1042C0009091520408950E94E90B009711F481E047
:1042D00090E09C0140E050E060E074EB84EC94E0FE
:1042E0000E94993C213787E138074105510520F0AC
:1042F00020E737E140E050E0C9010895893E2DEF05
:10430000920710F088EE9DEF90935404809353042D
:104310000E9411060C945E0CCF93DF93EC010E9477
:104320006321BC01C817D90708F4BE01809151046C
:10433000909152046817790750F49C01261B370BA3
:104340002D38310568F0BC016C58710909C09B011A
:10435000281B390B2D38310518F0BC0164577F4FED
:104360008617970759F070935204609351048FE0B9
:104370000E94080DDF91CF910C947E21DF91CF91A7
:10438000089580915504882389F010925404109266
:104390005304109252041092510480E090E00E9465
:1043A0007E2181E00E942206109255040895CF9349
:1043B000C82F80915504811113C0CC2389F080E06F
:1043C00090E00E947E2110925404109253041092A7
:1043D00052041092510480E00E942206C0935504BA
:1043E000CF910895109254041092530410925204E5
:1043F0001092510480E090E00E947E2181E00C94B4
:10440000D721FC01428153814115510591F0A081D2
:10441000B181B7FF03C0B195A195B10928EE33E092
:104420000E94573C9A0140E050E00E94993CC9012B
:10443000089580E090E008950F93FC01CB010023E4
:1044400041F04617570708F4CA016417750748F486
:1044500007C06417750708F4CA014617570708F420
:10446000BA01978386839183808313821282158297
:10447000148233872287681B790B718760870F91BD
:104480000895FC0186819781A285B3850084F1851A
:10449000E02D3097D1F09B0140E050E0281B390B14
:1044A000410951090E945E3C9F01442737FD409518
:1044B000542F0E94BB3C2115310581E0480751056E
:1044C00024F457FD05C0C90108958FEF9FEF0895AB
:1044D00080E090E00895DF92EF92FF920F931F9398
:1044E000CF93DF93EC012A813B812417350720F419
:1044F000FA01E21BF30B03C0F901E41BF50B8C81FD
:104500009D81969587958E179F0710F5E880F98015
:104510002417350740F48A01021B130BCB018E19B7
:104520009F097C0105C0E61AF70A8901041B150BD7
:10453000C7010E945313D82E888599850E94531372
:10454000D81206C01D830C83F986E8861B870A876C
:10455000DF91CF911F910F91FF90EF90DF90089521
:104560000F931F93CF93DF93EC018B019A01A885E2
:10457000B9850E94573C2A853B8540E050E00E9467
:10458000BB3CC801A0E0B0E082179307A407B507C1
:104590001CF41F821E8204C0021B130B1F830E8398
:1045A000DF91CF911F910F910895EF92FF920F939A
:1045B0001F93CF93DF93EC018B017A010E946B2252
:1045C000A701B801CE01DF91CF911F910F91FF900C
:1045D000EF900C94B0220F931F93CF93DF938C0135
:1045E000443019F0CFEFDFEF02C0C1E0D0E00E940D
:1045F0001B35D8011B96EC91F0E0EE0FFF1FE4593C
:10460000FD4F9C01C29FC001C39F900DD29F900D92
:10461000112420813181820F931F91838083DF9148
:10462000CF911F910F910895EF92FF920F931F93D7
:10463000CF93DF931F92CDB7DEB78C01443021F0CA
:10464000EE24EA94FE2C03C0EE24E394F12C69835B
:104650000E941B35D8011B96ED91FC911C97698136
:10466000E60FF11DE491F0E0EE0FFF1FE459FD4F5E
:104670009C01E29EC001E39E900DF29E900D1124DC
:1046800020813181280F391F318320830F90DF91E2
:10469000CF911F910F91FF90EF900895CF93DF93EB
:1046A000EC010E949A33882311F0888101C08FEFBA
:1046B000DF91CF910895CF93DF9300D000D0CDB795
:1046C000DEB780E00E942E0B9A83898381E00E94EE
:1046D0002E0B29813A81281B390B3A83298383E1E8
:1046E0000E94370B9C838B83AE014F5F5F4F61E06D
:1046F00080E00E94840BAE014F5F5F4F61E081E07C
:104700000E94840B0F900F900F900F90DF91CF912C
:104710000895CF93DF93D82F6EEA76E082EC96E08F
:104720000E944830C0E082E10E94770D882399F012
:104730008FE10E94770D8D17A1F0C1110CC060EAC6
:1047400076E0DD2319F082EC96E002C087EB96E07C
:104750000E944830C1E00E944535813021F780E059
:1047600001C081E0DF91CF910895CF93DF9300D016
:1047700000D0CDB7DEB7862F5A8349833C832B8385
:10478000AE014F5F5F4F61E00E94840B0F900F906E
:104790000F900F90DF91CF910895FF920F931F9389
:1047A000CF93DF93F82E162F042F83E00E94BB33A4
:1047B000812F0E94370BEC01802F0E942E0BAC0141
:1047C0009E01602F812F0E94B52381E080934103D9
:1047D0000E946F0CFF2039F0DF91CF911F910F9154
:1047E000FF900C945B23DF91CF911F910F91FF906D
:1047F0000895EF92FF920F931F93CF93DF93CDB75E
:10480000DEB72E970FB6F894DEBF0FBECDBF81E0A6
:104810000E94630E81E00E948923882359F16EE58E
:1048200073E0CE0101960E94CF2E8FEF8A8784E934
:1048300090E09A83898385E593E09D878C8789E062
:104840008E8761E0CE0101960E946129F82E87FDD6
:1048500011C0082F112707FD1095F801EB5AFC4FE6
:10486000E49086E08F156CF38E2D0E94770D8823DF
:1048700041F30FC00E94860C2E960FB6F894DEBF4F
:104880000FBECDBFDF91CF911F910F91FF90EF90A1
:1048900008950E946F0C109241036F2DCE01019676
:1048A0000E94BF27882341F0F801E25BFC4F44914E
:1048B0006E2D81E00E94CD2381E080934103C1CF22
:1048C0000F931F93CF93DF93CDB7DEB72E970FB61D
:1048D000F894DEBF0FBECDBF80E00E94630E109241
:1048E000670062E273E0CE0101960E94CF2E8FEF47
:1048F0008A8784E990E09A83898380E293E09D87A8
:104900008C8787E08E8761E0CE0101960E94612945
:10491000082F87FD20C0E82FFF27E7FDF095E05E18
:10492000FC4F1491812F0E94770D882361F30E9420
:104930006F0C10924103602FCE0101960E94BF2799
:10494000882329F0412F612F80E00E94CD2381E050
:1049500080934103D8CF81E0809367000E94860C4A
:104960002E960FB6F894DEBF0FBECDBFDF91CF916C
:104970001F910F9108958F3019F4CB010C947E2173
:10498000CB010C94341BEF92FF920F931F93CF93A4
:10499000DF93EC01443019F00FEF1FEF02C001E08C
:1049A00010E00E941B35089F7001099FF00C189FB2
:1049B000F00C11240E941B352F8538898C0141E0B1
:1049C00050E0B701CE010D960E9485136D857E855E
:1049D0008B85DF91CF911F910F91FF90EF900C94F9
:1049E000BB24AF92BF92CF92DF92EF92FF920F93D0
:1049F0001F93CF93DF93CDB7DEB765970FB6F894CB
:104A0000DEBF0FBECDBFA82EB62E7A0181E00E9478
:104A1000630E80E00E948923882309F46FC0AA20D6
:104A200069F00E94C12188E799E60E94F905E2E059
:104A3000CE2EFFE0DF2E08EE1DEF08C00E94611BA6
:104A400063E0C62E70E1D72E00E010E464E373E06B
:104A5000CE0101960E94CF2E8FEF8A872CE930E09D
:104A60003A832983DC86BD86198B088B4D856C853E
:104A7000CE0142960E94670B2A893B893F872E8789
:104A800061E0CE0101960E94612987FD2FC081114E
:104A9000EDCF6E857F858D2D0E94BB2460E0CE0119
:104AA00001960E94BF278823D9F00E946F0CFD8ACF
:104AB000EC8A2E853F853B8B2A8BAE014E5E5F4F85
:104AC0006B2D8D2D0E94840B8C2D0E942E0B9B8BA9
:104AD0008A8BAE014E5E5F4F6B2D8C2D0E94840B36
:104AE00060E070E08D2D0E94BB24C0CF81E0AA2041
:104AF00019F00E94D72102C00E946F1B0E94860CF1
:104B000065960FB6F894DEBF0FBECDBFDF91CF9193
:104B10001F910F91FF90EF90DF90CF90BF90AF90DB
:104B20000895EF92FF920F931F93CF93DF93CDB72A
:104B3000DEB729970FB6F894DEBF0FBECDBF8C014C
:104B40007B01BC01CE0101960E94CF2E60E0CE0118
:104B500001960E946129682F87FD10C0E82FEE0F93
:104B6000FF0BEE0DFF1D4591549181E093E0083459
:104B7000190709F080E00E94F124E8CF29960FB6CA
:104B8000F894DEBF0FBECDBFDF91CF911F910F9183
:104B9000FF90EF9008951F93CF93DF9300D000D044
:104BA0001F92CDB7DEB7182F6D830E942E0B9A830C
:104BB0008983812F0E94370B9C838B83AE014F5FCB
:104BC0005F4F6D81812F0E94840B0F900F900F908B
:104BD0000F900F90DF91CF911F9108950F931F9326
:104BE000CF93DF93CDB7DEB72C970FB6F894DEBF27
:104BF0000FBECDBF182F062F80E00E94630E68E223
:104C000073E0CE0101960E94CF2E8FEF8A8724EAAF
:104C100030E03A8329831C8761E0CE0101960E942F
:104C2000612987FD13C08111F7CF1092410360E025
:104C3000CE0101960E94BF27882321F0602F812F8B
:104C40000E94CB2581E080934103E6CF0E94860C31
:104C50002C960FB6F894DEBF0FBECDBFDF91CF917B
:104C60001F910F9108951F93CF93DF93CDB7DEB7B8
:104C700029970FB6F894DEBF0FBECDBF182F6EE296
:104C800073E0CE0101960E94CF2E60E0CE01019626
:104C90000E946129682F87FD04C0812F0E94EE25A4
:104CA000F4CF29960FB6F894DEBF0FBECDBFDF91CB
:104CB000CF911F910895CF93DF93CDB7DEB72A9799
:104CC0000FB6F894DEBF0FBECDBF62E773E0CE0132
:104CD00001960E94CF2E60E0CE0101960E946129CC
:104CE00087FD2AC08A870E94C43A8A858230A1F053
:104CF0004CF4882371F08130C9F46EE373E088E4EA
:104D000093E00EC0833079F0843081F40E946024F7
:104D10000DC00E94F9230AC06AE373E082E493E0C5
:104D20000E94912503C087E00E94332681E00E9403
:104D300086110E94D43ACFCF10924D032A960FB617
:104D4000F894DEBF0FBECDBFDF91CF910895CF9312
:104D5000DF93EC01842F0E94A40C9E0136952795C9
:104D6000A9014C0F5D1F8417950730F4C21BD30BAC
:104D700021E0C817D90708F020E0822FDF91CF91FA
:104D8000089568EE73E080E00E94080D2BE1289FF3
:104D9000B001299F700D112440E088E799E60C943A
:104DA000A726CF93DF931F92CDB7DEB7482F68EECB
:104DB00073E049830E94080D26E0289FB001299FD7
:104DC000700D1124498180E797E10F90DF91CF9119
:104DD0000C94A726CF93DF931F92CDB7DEB7482F51
:104DE00064E670E049830E94080DBC01660F771FDE
:104DF000680F791F49818CE291E00F90DF91CF918C
:104E00000C94A726CF930E940912C82F882341F142
:104E10000E94C126C82F811105C088E996E00E9432
:104E200001311EC08FE00E94D126882329F082E044
:104E30000E94D126811106C08FE896E00E940131C0
:104E4000C0E00EC080E10E94EA26882331F083E0B2
:104E50000E94EA26C82F811103C083E896E0EECFB6
:104E60008C2FCF9108950C9402271F93CF93DF933B
:104E7000EC01162F0E94CA2ECE0109960E944E23E5
:104E8000992787FD9095612F70E08617970759F055
:104E9000EB85FC85E60FF71F84916D85DF91CF913F
:104EA0001F910C94B10DDF91CF911F9108951F9325
:104EB000CF93DF93EC01162F82E10E94770D8111D1
:104EC0000FC06EEA76E082EC96E00E9448308B8557
:104ED000803141F581E0DF91CF911F910C946F1BE0
:104EE000612FCE010E94CA2ECE0109960E944E2348
:104EF000992787FD9095212F30E08217930791F035
:104F0000111108C065E08D859E85DF91CF911F91BD
:104F10000C94AE380E94EE0B67E0DF91CF911F91A9
:104F20000C941339DF91CF911F9108951F93CF9364
:104F3000DF93EC01162F0E94CA2ECE0109960E9423
:104F40004E23992787FD9095212F30E082179307F4
:104F500091F0111107C067E08B85DF91CF911F9110
:104F60000C94B10D8B850E942E0B67E0DF91CF91E1
:104F70001F910C94AE38DF91CF911F910895DF926D
:104F8000EF92FF920F931F93CF93DF93EC01F62ED6
:104F900069871A8681E08D8382E0D82EEE24E3941F
:104FA0008E01075F1F4F0E944535482F823011F058
:104FB000843061F4E881F9810280F381E02D6F2D66
:104FC000CE010995F986DA86ED8204C0813089F038
:104FD000883079F0C8010E94A5338111ED828D815E
:104FE000882319F0CE010E940C298A858F5F8A8759
:104FF000DACF8FEF898781E08E838D83483009F087
:1050000080E0DF91CF911F910F91FF90EF90DF90A3
:105010000895CF93DF93EC010E94AE358B819C8184
:105020000E94CB360E94B2356A8188819981DF91D6
:10503000CF910C948036FC0187818F3118F48F5FFB
:105040008783089586818F5F86830895FC01878119
:10505000882319F081508783089586818150868343
:1050600008950F931F93CF93DF93FC01C681D0E087
:105070006D2F80E00E94A83510E11C0F01E00C0F9D
:105080008C2F0E946236011711F0C02FF7CFDF5F1F
:10509000D23011F0C12FECCFDF91CF911F910F9142
:1050A00008951F93CF93DF93EC018BEC90E00E9467
:1050B000F2391FEF8E81181721F0CE010E9431289E
:1050C0001E818F81682F70E094E0759567959A95A1
:1050D000E1F78F700E94A8350E944535823049F073
:1050E000843019F0813049F413C0CE010E941B288E
:1050F000E1CFCE010E942628DDCF8830D9F68D8100
:10510000E881F981E80FF11D8F819E81890F8083ED
:10511000DF91CF911F910895FC01718360834283D9
:1051200034832383158280E2868317820895CF9388
:10513000DF93EC018BEC90E00E94F2390E94B635CF
:10514000CE010E94092861E08D810E94A8350E944D
:1051500045358230B1F0843041F08130C1F48BECC0
:1051600090E00E94EB3980E026C04D81242F30E092
:105170008A8190E00197281739072CF74F5F4D83FC
:10518000E2CF8D818823F9F281508D83DCCF883086
:10519000D1F682E00E949735823048F083E00E9489
:1051A000BB338BEC90E00E94EB3981E004C0CE0170
:1051B0000E945128C3CFDF91CF9108950895FC013B
:1051C0008CEA90E09183808312821382648381E071
:1051D000858386830895FC012281211103C081E02B
:1051E00082830895438130E0240F311D848190E053
:1051F00001972817390714F44F5F43830895FC0182
:105200008281882319F081508283089583818823C5
:1052100011F08150838308951F93CF93DF93EC01A6
:1052200010E0612F80E00E94A8358A81181302C027
:105230008EE301C080E20E946236E881F9816B81D1
:10524000610F0190F081E02DCE0109950E947D361D
:105250001F5F123031F71D82DF91CF911F910895AA
:105260000F931F93CF93DF93EC010E944535182FC6
:105270000E948A3A882321F081E08D838FE71CC049
:105280000B818A81080F123031F0143039F4CE01CD
:105290000E94EB2803C0CE010E94FF288B819A81D7
:1052A000890F081711F081E08D838D81882319F013
:1052B000CE010E940C29812FDF91CF911F910F9178
:1052C0000895EF92FF921F93CF93DF931F92CDB774
:1052D000DEB77C0181E0F701858311E0C7016983B6
:1052E0000E9430296981811102C0F7011682F701FD
:1052F0009681911108C0883031F481E086838381E2
:105300009281890F09C0662311F0F701158381305E
:1053100029F79111E3CF8FEF0F90DF91CF911F917C
:10532000FF90EF900895CF93DF93CDB7DEB7299725
:105330000FB6F894DEBF0FBECDBF6EE773E0CE01AF
:1053400001960E94CF2E60E0CE0101960E94612955
:10535000813049F0823051F081110BC08FE493E02D
:105360000E940813F0CF0E945B26EDCF0E9414121A
:10537000EACF87FFE8CF29960FB6F894DEBF0FBEBD
:10538000CDBFDF91CF910895262F443019F06FEFF4
:105390007FEF02C061E070E0223091F028F4222318
:1053A00049F0213051F00895243081F060F025302B
:1053B00081F008950B960C94FC150B960C949D1699
:1053C0000B960C94CA160B960C94EE160B960C9436
:1053D000F9160B960C943E17EF92FF920F931F93C2
:1053E000CF93DF93EC018B017A0166E873E00E94B2
:1053F000CF2E8FEF898782EB90E0998388838AE1B3
:10540000F801DE011B9601900D928A95E1F7FEA24C
:10541000EDA2DF91CF911F910F91FF90EF90089532
:105420000F931F93CF93DF93CDB7DEB728970FB6B7
:10543000F894DEBF0FBECDBF8C01BC01695E7F4F0B
:1054400025E237E04EE050E0CE0101960E948C2824
:10545000CE0101960E94972881E0F8018583289665
:105460000FB6F894DEBF0FBECDBFDF91CF911F9175
:105470000F910895CF93DF93EC010E94B6350E94FF
:10548000AE358FE197E00E94CB360E94B2356EE0D8
:10549000CE0147960E9480360E94121483E0DF916D
:1054A000CF910C94BB33CF93DF93EC016DA17EA120
:1054B0006F5F7F4F0B960E94AD14CE01DF91CF91AD
:1054C0000C943A2ACF93DF93EC016DA17EA16F5F1C
:1054D0007F4F0B960E940615CE01DF91CF910C9461
:1054E0003A2ADF92EF92FF920F931F93CF93DF93AD
:1054F000CDB7DEB76A970FB6F894DEBF0FBECDBF4B
:105500008C018AE1D82EC8010B967C0160E0C801AD
:105510000E94612987FD30C0873041F0883051F00A
:10552000863061F4C8010E94532AF0CFC8010E945E
:10553000102AECCFC8010E94622AE8CFF701DE01F1
:1055400011969D2D01900D929A95E1F7682FC80153
:105550000E94BF27811109C0FE013196D7018D2D10
:1055600001900D928A95E1F7D1CF83E00E94BB3381
:10557000C7010E944C16CACF6A960FB6F894DEBFD8
:105580000FBECDBFDF91CF911F910F91FF90EF9094
:10559000DF9008951F93CF93DF93EC01162F0E94A5
:1055A000CA2ECE0109960E949A33882311F02985CC
:1055B00001C02FEF332727FD3095812F90E028176A
:1055C0003907B1F11230F9F058F41123A9F0113074
:1055D00079F5CE010B96DF91CF911F910C948C152C
:1055E0001430F9F0B8F0153019F5CE010B96DF91B3
:1055F000CF911F910C942D17CE010B96DF91CF9177
:105600001F910C948615CE010B96DF91CF911F91BF
:105610000C94BA15CE010B96DF91CF911F910C948B
:10562000AE15CE010B96DF91CF911F910C94B4155E
:10563000DF91CF911F910895DC011796ED91FC91B8
:105640001897E60FF11D64918AE993E00C94E33614
:105650000F931F93CF93DF93EC018B0180E061E008
:10566000680FF801E80FF11DE491E93011F0862F81
:10567000F6CFCE010E94DF288AEB90E099838883E1
:1056800018870F83DF91CF911F910F9108958DE8B7
:1056900093E00E941B14833039F0823041F0811175
:1056A00009C088E694E008958FE594E0089581E7C5
:1056B00094E0089586E594E008950F931F93CF93A7
:1056C000DF93EC010E941F150E94472B8C0160E0C4
:1056D000C8010E94612987FD1BC0D8011796ED9172
:1056E000FC911897E80FF11D87FDFA958491893098
:1056F00061F4BE018DE893E00E94D215CE010E94B4
:105700002D1581E00E948D11DFCF0E949A12DFCF0C
:10571000DF91CF911F910F91089560EC73E081E7C5
:1057200094E00E94282B64EB73E088E694E00E94EA
:10573000282B69EB73E08FE594E00E94282B6EEA3A
:1057400073E086E594E00C94282B0F931F93CF937E
:10575000DF93EC018B0163ED73E00E94CF2E8FEF9E
:10576000898780EC90E0998388838EE3F801DE01DD
:105770001B9601900D928A95E1F7DF91CF911F91D1
:105780000F910895DF92EF92FF920F931F93CF93A3
:10579000DF93CDB7DEB7EE970FB6F894DEBF0FBE3E
:1057A000CDBF7C018C01055F1F4F8EE3D82E60E0DA
:1057B000C7010E94612987FD2AC0873139F4C801D9
:1057C0000E94F01283E00E94BB33F1CFF801DE01AA
:1057D00011969D2D01900D929A95E1F7682FC701C2
:1057E0000E94BF27811109C0FE013196D8018D2D7D
:1057F00001900D928A95E1F706C083E00E94BB33C9
:10580000C8010E94FC12C8010E940713D0CFEE9677
:105810000FB6F894DEBF0FBECDBFDF91CF911F91C1
:105820000F91FF90EF90DF900895262F215064E6AE
:1058300070E00E94853CCB01622F0E94AE3883E469
:105840000C946236262F215068EE73E00E94853C4E
:10585000CB01622F0E94AE3886E50C946236CF935E
:10586000DF93462F455064E670E00E94853C9B0123
:10587000EC01642FC9010E94AE388EE20E946236AC
:10588000CE016AE070E00E94853C862F0E94383786
:1058900081E598E0DF91CF910C94CB3641E04396BF
:1058A0000C94C41344E0CD960C94C413CF93DF93AF
:1058B000EC0188EF860F0E946B366DAD89EC93E0AA
:1058C000DF91CF910C94E336CF93C62F0B960E94B5
:1058D000CD12C25024E630E040E050E00E94993CF6
:1058E0006C2FC9010E94AE3880E30E94623680E3CB
:1058F000CF910C946236EF92FF920F931F93CF9348
:10590000DF931F92CDB7DEB77C01162FDC0117960F
:105910008D919C9118970E94E336082F60E1681BD7
:10592000C701099669830E949A336981882321F00F
:10593000D7011996EC9101C0EFEFFF27E7FDF09535
:10594000212F30E0E217F30709F4D4C0812F90E053
:105950008731910508F0CEC0FC01ED5CFF4F0C943F
:10596000DA3CF70183891DC0D70155968D919C9132
:1059700056970F90DF91CF911F910F91FF90EF906D
:105980000C94152CF7018789908D0F90DF91CF91A2
:105990001F910F91FF90EF900C942F2CD7015996E7
:1059A0008C910F90DF91CF911F910F91FF90EF900D
:1059B0000C940037F701838D948D05C0D7015D9657
:1059C0008D919C915E970F90DF91CF911F910F91D8
:1059D000FF90EF900C94C538F701878D90A105C01A
:1059E000D70191968D919C9192970F90DF91CF91D5
:1059F0001F910F91FF90EF900C941739F70183A13D
:105A000094A11BC06FE0601BD70195968D919C916E
:105A100096970E94AE388DE60F90DF91CF911F913F
:105A20000F91FF90EF900C946236F70187A1B9CFE8
:105A3000D70199968D919C919A970F90DF91CF9174
:105A40001F910F91FF90EF900C94AE38F70183A552
:105A500094A50F90DF91CF911F910F91FF90EF9040
:105A60000C941339D7019D968D919C919E970F9020
:105A7000DF91CF911F910F91FF90EF900C94BC3864
:105A8000F70187A590A90F90DF91CF911F910F91FA
:105A9000FF90EF900C94222CD701D1968D919C9180
:105AA000D29791CFF70183A994A98DCFD701D5962D
:105AB0008C9177CFF70187A974CFD701D9968D91B3
:105AC0009C91DA9780CFF70183AD6BCFC7010F9020
:105AD000DF91CF911F910F91FF90EF900C94562C76
