:100000000C9481040C94A9040C94A9040C94A904E4
:100010000C94A9040C94A9040C94A9040C94A904AC
:100020000C94A9040C9489050C94332D0C94713D07
:100030000C94A9040C940A3B0C94483B0C94A9041E
:100040000C94A9040C94A9040C94A9040C94A9047C
:100050000C94A9040C23F922FB22FD22FF22012388
:10006000032307230A231A230E2310231223162304
:10007000182314231C230000000040D50662000052
:100080000000F567E6300100C80002008813010097
:10009000C8000200E80300000000000000000000AB
:1000A000000000000000000000008DBBD636C24CEE
:1000B000A40B0C4970170000000043BFA80E0000FD
:1000C000000015D65110000000009BD9C820000088
:1000D0000000CAD863100000000007D857100000C5
:1000E000000040D85F1000000000A5CF58100100AC
:1000F000C800020088130100C8000200E8030006DF
:10010000080001FF010100000106090001FF0302D0
:10011000010002060A0001FF0000000006060E00B2
:1001200000FF0302010005060D0000FF02030000AE
:1001300004060C0000FF0302010003060B0000FF91
:10014000040600000706070000FF03020100F60D89
:10015000F10D3C0F436865616C69436861726765C6
:1001600072007665723A20302E33326D00710100D4
:10017000006F7074696F6E7300010001000100016F
:100180000001000200050001000200040006000852
:10019000000A000C0001000300080009000A000B1F
:1001A000000C00496E660079657300206E6F006D6B
:1001B0005600AC02B402B902BE02C102C602CB02B2
:1001C000D002D50201000100010001000000010081
:1001D000B0041C075203000008075203B004400695
:1001E000E80300000807E803D0079209D6060000DC
:1001F00000006C07E40C100ED007E40C0000B80BF4
:10020000100E0410C409A60E0000AC0D740E681088
:10021000B80B0A0F0000890C740EFE10B80B0A0F01
:100220000000ED0C40066C07140540060000780540
:1002300000980898086C0710275802019808F401E4
:100240006C070100E001029808F4016C070100E06E
:1002500001039808DC006C070600E0010498089888
:10026000086C070300780005980898086C070300DD
:10027000780006980898086C07030078000798082B
:1002800098086C070300780008980898086C070322
:10029000007800756E6C696D69746564006D696ED7
:1002A0002E00756E6C696D6974656400556E6B6EB9
:1002B0006F776E004E694364004E694D480050628E
:1002C000004C696665004C696C6F004C69706F008A
:1002D0004C693433004E695A6E00FD020403090371
:1002E0000E03130318031F032D03000045646974F4
:1002F000206E616D653A004E616D653A0042617431
:100300003A202000563A20200043683A20004963F2
:100310003A200049643A2000546C696D3A2000206C
:1003200020637265617465206E616D650020202018
:1003300065646974206E616D650043684342426C78
:10034000446946435374534243684469435963794B
:100350004368446945420020202D2D2020006E2E48
:10036000612E004C696D6974733A200074696D6583
:100370003A202020202000622000202000626174AA
:10038000742E20523D00776972657320523D0056ED
:10039000696E7075743D00206C696D69743D00561E
:1003A0006F7574203D005662616C2E3D0054657877
:1003B000743D002D0070726F6772616D20636F6D08
:1003C000706C65746500726561736F6E3A200045EC
:1003D00072722E004E2F41006D6178566F75743D1C
:1003E0000064656C746120563D20002000200020D0
:1003F0002000202D2D3A2D2D002500546578743DC8
:10040000004E2F410064656C746120543D20004E05
:100410002F4100706C656173652063616C2E005222
:1004200045562E20504F4C41524954590043616C5F
:100430002E6572722E2020463A007761697400257D
:10044000200057234B235B2356206C696D69740091
:100450002D64560064542F64740020242924EC2356
:10046000512458249724FC24CA24D0242D253B252C
:1004700044252126F825FB250106070D050002105D
:10048000060708090B0C0D040503000210060708F7
:10049000090B0C0D040503110002100A0E0F0B0CC2
:1004A0000D04050311000210060708090B0C0D04CA
:1004B0000503110002100F0B0C0D040503110006BB
:1004C00007040D05000000010203040D00010203F2
:1004D000040506090D07080A0D0B0C0D100517057C
:1004E00026052E05380544054C055B05660500000C
:1004F00010052E0573056605000010051705260575
:100500002E0538056605000010052E05660500005D
:10051000636861726765006368617267652B626119
:100520006C616E63650062616C616E636500646935
:1005300073636861726765006661737420636861E4
:100540007267650073746F726167650073746F72B0
:100550006167652B62616C616E6300443E43206697
:100560006F726D6174006564697420626174746592
:10057000727900443E43206379636C650062617464
:10058000206469736300696E70757420560063613E
:100590007020434F464600542E206C696D697400EC
:1005A0006578742054434F4600436F6E6E656374E4
:1005B000204261747421001A0623062C06000008EC
:1005C000090A08090A35063B06410647064D065347
:1005D0000659065F0665060000061E1F202122231D
:1005E000120006090A0B0C0D0E76616C75653A2037
:1005F00000643A006B06710600006B06740600008A
:1006000077067E06000085068E06000097069C068B
:10061000A506B106BA06C606000056623070696EBD
:100620003A200056623170696E3A2000566232708C
:10063000696E3A200056696E3A20005662313A20BF
:10064000005662323A20005662333A200056623435
:100650003A20005662353A20005662363A2000565B
:10066000312D363A00566F75743A003230306D4194
:100670000035410031410074656D703A20007661AB
:100680006C75653A00706F696E7420312E00706F62
:10069000696E7420322E00766F6C74004920636896
:1006A0006172676500492064697363686172676598
:1006B0000074656D70206578740063616C69622DEB
:1006C0003E55415254006578706572742044414E25
:1006D0004745522100DD06E606F00600007365740A
:1006E00074696E67730063616C696272617465003E
:1006F00072657365742064656661756C740080252D
:100700000000004B00000096000000E1000000C265
:10071000010046008813701700007017640007007E
:100720000C0005001E0001007800581B00000800A6
:1007300000000000000000000000680774077F0749
:10074000860790079A07A607B207BE07C807D30710
:10075000DC07E607ED07F5070000432F6D00FE07F5
:1007600007080E0814081D08657874726E20543A44
:1007700020202000657874726E2054434F3A006444
:10078000542F64743A004E694D48202D64563A0047
:100790004E694364202D64563A00442F4320637908
:1007A000636C65733A00776173746520542E3A2048
:1007B0002000626565703A202020202020006361BF
:1007C0007020434F66663A00696E707574206C6FD6
:1007D000773A006469736368202B3A0062616C2E7B
:1007E000206572723A00554152543A200073706588
:1007F00065643A2000202020726573657400646986
:100800007361626C6564006E6F726D616C0064652B
:10081000627567006578742E20646562006578747F
:100820002E204164630013161817190705061E1FB2
:10083000202122237265736574696E672065657077
:10084000726F6D3A00763A2035322E35322E3534BD
:100850002000000000000000000000000000000474
:100860000300050000000000000000000000000080
:100870000000000000000000000000000100000077
:100880002040800000000000010204081020408089
:100890000000010204081020408000000080402079
:1008A0001008040201000001020408100002020204
:1008B0000000000000040404040404040400000315
:1008C000030303030303030000000101010101010D
:1008D000010100000202020202000039003600336A
:1008E00000300000003B0038003500320000003AC4
:1008F00000370034003100007605B2101F236A294A
:100900003A3C11241FBECFE5D8E0DEBFCDBF10E0DA
:10091000A0E6B0E0EEE2FFE702C005900D92A63F30
:10092000B107D9F715E0A6EFB0E001C01D92A130E4
:10093000B107E1F718E0C2E0D9E004C02297FE0158
:100940000E941C3FC83FD107C9F70E941A3D0C9472
:10095000953F0C940000CF9388E20E94653EC1E071
:10096000892B09F0C0E089E20E94653E892B11F0D5
:1009700080E001C082E0C82B8AE20E94653E892B9C
:1009800011F080E001C084E0C82B8BE20E94653E3C
:10099000892B11F080E001C088E08C2BCF91089565
:1009A000CF93C82F682F89E10E94F63D6C2F8AE112
:1009B0000E94F63D6C2F80E20E94F63D6C2F89E08C
:1009C0000E94F63D6C2F8BE00E94F63D6C2F80E17B
:1009D000CF910C94F63D089580910B01882331F05E
:1009E00080910C018F5F80930C0102C010920C016A
:1009F00080910B018A3010F420E001C028E0809142
:100A00000B01843108F024E080910B018E3108F055
:100A100022E08091AB039091AC03892B31F060917F
:100A20000C0162238CE20C942E3E089580930B01FE
:100A3000089561E068278CE00C942E3E80E00E94CF
:100A40006E3D61E08CE00E94F63D61E08EE00E9428
:100A5000F63D61E08EE10E94F63D61E08CE20E948D
:100A6000F63D61E08DE00E94F63D61E08EE00E947F
:100A7000F63D61E08FE00E94F63D80E00E9419059E
:100A800010920B0120E042E060E186EF90E00E94CE
:100A90002C170E94FB2C0E949C260E9409270E9472
:100AA000F9050E94C5070C94390DCF93C82F682F04
:100AB000617089E10E942E3E6C2F62708AE10E9473
:100AC0002E3E6C2F647080E20E942E3E6C2F687068
:100AD00089E00E942E3E6C2F60718BE00E942E3EBA
:100AE0006C2F607280E1CF910C942E3ECF92EF92EA
:100AF0000F9383E1C82E94E1E92E05E126E147E159
:100B000068E186EF90E00E94E0170F91EF90CF90A0
:100B100008951F920F920FB60F9211242F933F93B7
:100B20004F935F936F937F938F939F93AF93BF93F5
:100B3000EF93FF93209110013091110180910E01EC
:100B400090910F01820F931F90930F0180930E01DC
:100B500080910E0190910F0126E0969587952A9538
:100B6000E1F720910E0130910F01AC0166E0440FD6
:100B7000551F6A95E1F7241B350B30930F01209325
:100B80000E012FB7F89430910D013E3011F49BBD4A
:100B90008ABD30910D013D3021F02FBF0E94EC0441
:100BA00003C099BD88BDF9CFFF91EF91BF91AF917F
:100BB0009F918F917F916F915F914F913F912F9175
:100BC0000F900FBE0F901F9018959FB7F8947093D9
:100BD00011016093100180930D018E3019F48FB5CF
:100BE000806804C08D3019F48FB580628FBD9FBFBF
:100BF00008951FBC80E18EBD2FB7F89480E091E08E
:100C000097BD86BD2FBF8EB5887F8EBD8EB58160A6
:100C10008EBD89B7846089BF08958E3019F48FB571
:100C20008F7704C08D3019F48FB58F7D8FBD0895F7
:100C300040911301509114016091150170911601BA
:100C4000452F562F672F772767FD7A95CA0108959C
:100C500010921A01109219018617970768F480E024
:100C600090E4A0E0B0E08093130190931401A0936E
:100C70001501B093160108C01092130110921401CF
:100C80001092150110921601809113019091140198
:100C9000A0911501B0911601BA2FA92F982F88277E
:100CA0008093130190931401A0931501B093160142
:100CB00081E0809312010895CF93DF93EC01C1305E
:100CC00080E6D80770F4C13080E4D80760F48EE085
:100CD0000E940D0660E08EE00E942E3EBE018DE077
:100CE0000CC0C0E0D0E68DE00E940D0661E08DE012
:100CF0000E942E3EBE0170548EE0DF91CF910C9485
:100D0000E50590931A01809319016CED79E680E076
:100D10000E94DB0C90931801809317010895CF93E4
:100D2000C82F882319F080E00E949C0661E06C27A0
:100D30008EE1CF910C942E3ECF93DF93C82F882362
:100D400019F080E00E948F068DE00E940D0660E0A1
:100D50008DE00E942E3E8EE00E940D0660E08EE047
:100D60000E942E3E1092120161E06C278FE00E94DB
:100D70002E3ECC2361F080E00E949108EC0186E0D9
:100D80000E949108BE01DF91CF910C942806DF915B
:100D9000CF9108950F931F9380911201882309F436
:100DA00074C080E00E949A082091170130911801C8
:100DB0002817390730F480E00E949C061092120137
:100DC00064C082E00E949A084091190150911A0172
:100DD00060E070E000911301109114012091150161
:100DE00030911601481B590B61097109E4E0440F69
:100DF000551F661F771FEA95D1F7040F151F261F91
:100E0000371F0093130110931401209315013093A1
:100E100016018091130190911401A0911501B091D8
:100E20001601B7FF08C0109213011092140110921E
:100E30001501109216018091130190911401A09157
:100E40001501B09116010197A046B10560F080E050
:100E500090E0A0E6B0E08093130190931401A0937A
:100E60001501B09316018091130190911401A09186
:100E70001501B0911601892F9A2FAB2FBB27A7FD23
:100E8000BA951F910F910C945C061F910F910895D4
:100E9000BC018EE00C94E5058770806287B90895E7
:100EA000CF93DF9390916000891721F180936000C8
:100EB000C8B390E2899F90011124CF71C22B98B3DF
:100EC000EEE9F8E0E4912AB3DE2FD095D2232AB3DD
:100ED0008150823050F0892F8F71806C88BBE22B5B
:100EE000EABB8AE090E00E94BB3D8FB7F894C8BB94
:100EF000DABB8FBFDF91CF91089595E0899FF00114
:100F00001124EE5FFE4FE49181E0E11101C080E029
:100F1000089595E0899FF0011124EF5FFE4FE49161
:100F200081E0E11101C080E0089524B135B195E080
:100F3000899FF0011124E050FF4FE491F0E0EE0FA3
:100F4000FF1FEC53FE4F932F80E0822B9183808311
:100F5000089510921B01EFEFF0E084910E944C077E
:100F6000EEEFF0E084910C945007369A08950E94B9
:100F700051269093E3018093E2010E94B62690935C
:100F8000E5018093E4010C94A70C60E08FE10E94DE
:100F90002E3E60E08FE10E94F63D61E081E00E941C
:100FA000F63D61E082E00E94F63D61E083E00E9450
:100FB000F63D87E886B90C94A907CF93DF93D091CB
:100FC0001B018D2F0E947D07882321F0C0914C02C8
:100FD000C17001C0C0E085E0D89FF0011124E2504B
:100FE000FF4F8491C11109C02091B5033091B60320
:100FF000232B21F0873011F4C1E085E00E945007D7
:10100000E0911B01EF5F85E0E89FF0011124E150C2
:10101000FF4F84910E944C078CE390E00E94BB3DFF
:101020000E94B5073699FECFD0911B018D2F8F5F9F
:101030000E94950785E0D89FF0011124E150FF4FF1
:1010400084910E944C078CE390E00E94BB3D0E947B
:10105000B5073699FECFC11104C080911B010E94D3
:10106000950780911B018F5F0E94890781110E9463
:10107000CA0680911B018E5F803118F480931B019A
:1010800002C010921B010E94A308882341F08091A6
:101090001B01811104C0DF91CF910C94B707DF9140
:1010A000CF9108950C94A907CF93DF930E94910AE2
:1010B000C0913201D091330102C00E94DD078091BE
:1010C000320190913301C817D907B9F3DF91CF915D
:1010D0000895CF92DF92EF92FF92CF93DF93EC01CE
:1010E0000E94572D6B017C01CC0EDD1EE11CF11C12
:1010F0000E94DD070E94572D6C157D058E059F050A
:10110000B8F3DF91CF91FF90EF90DF90CF900895EB
:10111000E82FF0E0EE0FFF1FEA51FE4F8081918132
:101120000895E82FF0E0EE0FFF1FE458FE4F808196
:1011300091810895E82FF0E0EE0FFF1FEC53FE4F72
:1011400080819181089580914E02089580913201AD
:10115000909133010895E82FF0E0EE0FFF1FEC5C53
:10116000FE4F808191810895613110F4423040F04A
:1011700021E030E0FC013383228331832083089512
:10118000242F30E0260F311D260F311D220F331F73
:10119000220F331F265F3F4F44E050E0B9010C940B
:1011A000503F282FCA01213188F4623078F470E072
:1011B000620F711D620F711D660F771F660F771F1B
:1011C000665F7F4F44E050E00C946E3F0895FF92BD
:1011D0000F931F93CF93DF9300D000D0CDB7DEB72E
:1011E000F12C88E0F89E80011124F801EA58FF4FA5
:1011F000459155916591749149835A836B837C83A2
:10120000AE014F5F5F4F60E08F2D0E94D108F80163
:10121000E658FF4F459155916591749149835A83E2
:101220006B837C83AE014F5F5F4F61E08F2D0E9427
:10123000D108F39481E1F812D4CF0F900F900F9062
:101240000F90DF91CF911F910F91FF900895E82F9C
:10125000F0E0EE0FFF1FE458FE4F20813181E82FB0
:10126000E250E83170F4F0E0EA58FF4F80818823C3
:1012700019F0813061F405C081E02333310540F479
:1012800004C081E02935324018F480E0089581E0FF
:101290000895CF93C0E08C2F825E0E942709882397
:1012A00019F0CF5FC630B9F78C2FCF9108952091F8
:1012B000A8013091A90180911C0190911D01A0917C
:1012C0001E01B0911F01820F931FA11DB11D8093BC
:1012D0001C0190931D01A0931E01B0931F0108955E
:1012E00060911C0170911D0180911E0190911F0160
:1012F0002DE730E040E050E00E94DC3E7727652F8C
:10130000542F432FCA010895E2EAF1E080819181D0
:10131000089580915A0190915B01039750F080915C
:10132000600190916101039720F083E090E00C94BC
:101330006E0E80E0089590E0880F991FFC01E4583C
:10134000FE4F208131816217730718F4261B370B7B
:1013500004C0AB01421B530B9A01FC01EC5CFE4F35
:101360002730310518F01182108206C020813181AA
:101370002F5F3F4F31832083FC01E458FE4F718380
:1013800060830895CF92DF92EF92FF920F931F93A5
:10139000CF93DF93C0917C01D0917D0160918C014E
:1013A00070918D0180918E0190918F01681779075E
:1013B00028F49C01261B370BB90102C0681B790B6E
:1013C0008EE10E949B0960918E0170918F01809146
:1013D0009001909191016817790728F49C01261BD0
:1013E000370BB90102C0681B790B8FE10E949B0982
:1013F000609192017091930180E20E949B0960913B
:1014000094017091950181E20E949B09609196017F
:101410007091970182E20E949B09609198017091FE
:10142000990183E20E949B090E944909F82E80E0FD
:1014300000E010E00CC0E82FE25EF0E0EE0FFF1FCE
:10144000E458FE4F20813181020F131F8F5F8F11EF
:10145000F2CFB80182E10E949B090115110549F004
:101460000C171D0748F49E01201B310B293E334009
:1014700018F010E0F12C02C0E80112E1BE0183E196
:101480000E949B096F2D70E085E10E949B09612FEE
:1014900070E084E10E949B090E9470098C010E9407
:1014A000A726882329F0E0908201F09083010BC0E9
:1014B0000E944226882329F0E0908001F09081016B
:1014C00002C0E12CF12CB70186E10E949B09B80112
:1014D00088E10E949B099701DE010E948E3E30E167
:1014E000C32E37E2D32EE12CF12CA70196010E94E6
:1014F000DC3EB90187E10E949B099801DE010E9450
:101500008E3EA70196010E94DC3EB90189E1DF9180
:10151000CF911F910F91FF90EF90DF90CF900C949F
:101520009B0910924D0210924C0280E094E0899F3A
:10153000F0011124E85FFD4F1082118212821382A4
:101540008F5F813199F7089510922F0110922E012B
:1015500010922A0110922B0110922C0110922D0151
:101560001092260110922701109228011092290151
:101570001092310110923001109225011092240135
:101580000E94572D609320017093210180932201C6
:1015900090932301089580E0E82FF0E0EE0FFF1F05
:1015A000EC5CFE4F118210828F5F8432A9F70895A0
:1015B0000E94910A0C94CB0A10921C0110921D01FA
:1015C00010921E0110921F010C94D80A1092330140
:1015D0001092320110921C0110921D0110921E01F6
:1015E00010921F010E9452080E94D80A0E94A40A69
:1015F00080E0E82FF0E0EE0FFF1FE458FE4F11826D
:1016000010828F5F8432A9F7089580914E02811174
:101610000AC081E00E9419050E94E60A81E08093D9
:101620004E020C945408089510924E0280E00C94DF
:1016300019052091C6013091C7018091C401909194
:10164000C5018217930718F4281B390B02C020E04C
:1016500030E081E0293E334008F480E008958F9225
:101660009F92AF92BF92CF92DF92EF92FF92CF9371
:10167000DF93CDB7DEB728970FB6F894DEBF0FBE65
:10168000CDBFF82E5B0140E0682FCE0105960E9489
:10169000B40841E06F2DCE0101960E94B4082B8161
:1016A0003C8140E050E0CF80D884E12CF12C2C1913
:1016B0003D094E095F09B50180E090E08D809E8074
:1016C000A12CB12C681979098A099B090E94AC3EAA
:1016D00029813A8140E050E0281939094A095B091B
:1016E0000E94FE3E2C0D3D1D4E1D5F1D57FF03C089
:1016F00020E030E0A901C90128960FB6F894DEBFBA
:101700000FBECDBFDF91CF91FF90EF90DF90CF90D4
:10171000BF90AF909F908F9008951F93CF93DF93CA
:10172000809132019091330101969093330180931F
:10173000320110E0C12FD0E0FE01EE0FFF1FEE0FCF
:10174000FF1FE85FFD4F20914C0230914D0240E0B9
:1017500050E060817181828193810E94DC3ECC0FD8
:10176000DD1FCA51DE4F39832883B901812F0E94C2
:101770002F0BBC01812F0E949B091F5F1131D1F6F5
:101780000E94C2090E94CB39DF91CF911F910C9426
:10179000910A0F931F93CF93DF93C1E02091A4018F
:1017A0003091A50180912A0190912B01A0912C01EB
:1017B000B0912D012231310531F0C0E02091C401FA
:1017C0003091C50104C02091A2013091A301820F84
:1017D000931FA11DB11D80932A0190932B01A0930B
:1017E0002C01B0932D012091D2013091D301809131
:1017F000260190912701A0912801B0912901820F23
:10180000931FA11DB11D8093260190932701A093E2
:101810002801B093290180912E0190912F0101960A
:1018200090932F0180932E010E94572D009120014B
:10183000109121012091220130912301601B710B35
:10184000820B930B61367A4E8105910508F47AC0BC
:1018500080913001909131010196909331018093F4
:10186000300120912E0130912F0140E050E0609135
:101870002A0170912B0180912C0190912D010E94E1
:10188000DC3E10922A0110922B0110922C01109232
:101890002D01C11106C0B90180E00E942F0B8C01FF
:1018A00001C08901C091B201D091B3010C171D078D
:1018B00020F0B8018BE10E949B09B8016C1B7D0BE5
:1018C0008AE10E949B0920912E0130912F0140E076
:1018D00050E060912601709127018091280190913C
:1018E00029010E94DC3E10922601109227011092DD
:1018F000280110922901B90187E00E942F0B209145
:101900002401309125019093250180932401BC018D
:10191000621B730B8CE10E949B0960912E017091F8
:101920002F018DE10E949B0910922F0110922E0130
:101930000E94572D60932001709321018093220112
:1019400090932301DF91CF911F910F91089540E073
:10195000A42FB0E0FD01EE0FFF1FEE0FFF1FE85FA9
:10196000FD4FAA0FBB1FAC53BE4F2D913C91808100
:101970009181A281B381820F931FA11DB11D80832C
:101980009183A283B3834F5F413111F780914C0261
:1019900090914D02019690934D0280934C020E94CB
:1019A000C90B80914C0290914D028436910511F43F
:1019B0000C948D0B08958F929F92AF92BF92CF920D
:1019C000DF92EF92FF92CF93DF93CDB7DEB72897E8
:1019D0000FB6F894DEBF0FBECDBFF82E5B0140E01E
:1019E000682FCE0105960E94B40841E06F2DCE010C
:1019F00001960E94B40829813A8140E050E0CD80F0
:101A0000DE80E12CF12C2C193D094E095F09B5014E
:101A100080E090E08F809884A12CB12C681979091E
:101A20008A099B090E94AC3E2B813C8140E050E03A
:101A3000281939094A095B090E94FE3E2C0D3D1DFB
:101A40004E1D5F1D57FF03C020E030E0A901C90112
:101A500028960FB6F894DEBF0FBECDBFDF91CF91B1
:101A6000FF90EF90DF90CF90BF90AF909F908F90BE
:101A700008950C94E60A462FE82FF0E0EE0FFF1FC2
:101A8000E458FE4F208131818250883130F4E82FB4
:101A9000F0E0EA58FF4F608101C061E0C9010C9499
:101AA000E015E82FF0E0EE0FFF1FE458FE4F8081B5
:101AB00091810C94DE12825E0C94910880917502E3
:101AC000089580917302811112C00E94A308882397
:101AD00081F00E94A60820914F0230915002821B93
:101AE000930B9C0181E02530310520F002C081E09C
:101AF000089580E008950F931F93CF93DF9310E034
:101B0000CFEFDFEF00E009C0812F0E945B0D8C1743
:101B10009D0710F4EC01012F1F5F809175021817CB
:101B200098F3802FDF91CF911F910F910895CF935C
:101B3000DF9390917302911104C0DF91CF910C94C7
:101B40005B0D90915902C82FD0E0992391F00E942B
:101B50005B0DCC0FDD1FFE01E65AFD4FCA59DD4F6C
:101B60002081318148815981241B350B280F391F71
:101B700007C0FE01EE0FFF1FE65AFD4F20813181A5
:101B8000C901DF91CF910895CF93C82F809173023F
:101B9000882341F0C11106C00E94A608909350020C
:101BA00080934F02C09373020E94572D609351029D
:101BB0007093520280935302909354020E94CB0A76
:101BC00080917202811104C08C2FCF910C94550525
:101BD000CF91089580E00E94C40D81E0809372024D
:101BE00008950E94EA0D80E00C94D004EF92FF92D9
:101BF0000F931F93CF93DF9381E00E94D00485E180
:101C00000E9491088093750206E612E03AE5E32E01
:101C100032E0F32EC0E0D0E00CC08C2F0E945B0DB0
:101C2000F801819391938F01F701819391937F0143
:101C300021968091750290E0C817D90774F310922D
:101C400073021092720280E00E94C40D1092500242
:101C500010924F02109251021092520210925302AF
:101C600010925402DF91CF911F910F91FF90EF904E
:101C70000895FF920F931F93CF93DF938091740287
:101C80000E94970DEC01F12C01E010E01CC08F2D9B
:101C90000E94970DAC0180917302802321F0C4173C
:101CA000D50778F40DC02091B3033091B4032F5FB2
:101CB0003F4F369527952C0F3D1F2417350708F405
:101CC000102B000FF39480917502F81600F3812F0A
:101CD000DF91CF911F910F91FF9008951F93CF93A4
:101CE000DF93EC0110E008C0812F825E0E94AB08F8
:101CF0008C179D0738F01F5F809175021817A0F3AD
:101D000081E001C080E0DF91CF911F910895BF92E3
:101D1000CF92DF92EF92FF920F931F93CF93DF93B7
:101D20008AE090E00E946E0E882309F461C00E9450
:101D30007B0D809374020E945B0D8C0162E084E84D
:101D400092E00E94BB190817190750F17AE5E72EB7
:101D500072E0F72EE6E6CE2EE2E0DE2EC0E0D0E026
:101D6000BB24B39416C08C2F0E945B0DF7018193A6
:101D700091937F01F601819391936F01801B910BE9
:101D80002091B3033091B4032817390708F4B12C1C
:101D900021968091750290E0C817D90724F302C0FC
:101DA000BB24B394109259020E94572D60935502A0
:101DB000709356028093570290935802BB2059F0BB
:101DC000DF91CF911F910F91FF90EF90DF90CF9017
:101DD000BF900C94EA0D0E94390EDF91CF911F91B4
:101DE0000F91FF90EF90DF90CF90BF900C94C40DB7
:101DF000DF91CF911F910F91FF90EF90DF90CF90E7
:101E0000BF900895CF9380915902811119C081E04C
:101E100080935902809174020E945B0DC0E00CC057
:101E20008C2F0E945B0DEC2FF0E0EE0FFF1FEA59A4
:101E3000FD4F91838083CF5F80917502C81780F337
:101E4000CF9108950F931F930E94572D0091550233
:101E5000109156022091570230915802601B710B6D
:101E6000820B930B28EE33E040E050E00E94DC3E12
:101E7000C9011F910F91089583E090E00E946E0EBA
:101E80008823C9F080917302811103C00E94870EDC
:101E900012C00E94020F0E94390E90E0809590952A
:101EA0002091730230E082239323892B81F40E94D6
:101EB000220F4F9760F40E94610D882311F082E099
:101EC0000895809172028823D1F381E0089580E023
:101ED0000E94C40DF0CF1F93CF93DF93EC0110E06D
:101EE0000FC0812F0E945B0D8C179D0710F081E0C1
:101EF0000CC0812F0E94970D8C179D07C0F71F5FA4
:101F000080917502181768F380E0DF91CF911F91DF
:101F100008951F93CF93DF93EC0110E00FC0812F42
:101F20000E945B0DC817D90710F081E00CC0812F0B
:101F30000E94970DC817D907C0F71F5F80917502DF
:101F4000181768F380E0DF91CF911F910895609199
:101F50007502662321F070E00E94C83E02C060E076
:101F600070E0CB0108950E9432120E94212085E08A
:101F70000E9427370E94832E88E00C9427370E9406
:101F800032120E94252086E00E9427370E94832E6D
:101F900088E00C942737E0917602F09177028591E2
:101FA0009491FC010994E0917602F09177023296C7
:101FB00085919491FC010994E0917602F091770269
:101FC000349685919491FC010994CF93DF931F92ED
:101FD000CDB7DEB7811107C00E94291F0E94D30F21
:101FE0000E94BF0F0FC0813059F469830E94291FDE
:101FF0000E94D30F6981611105C00E94B30F02C016
:1020000081E001C080E00F90DF91CF910895BF92F1
:10201000CF92DF92EF92FF920F931F93CF93DF93B4
:102020008C01C62E0E94CB0F0E940B1F0E94A82E6F
:102030000E943212F12C82E0D82EC0E0D0E0EE24D3
:10204000E3940E940C37811106C0F801EF0DF11DD9
:1020500084910E94EA220E94C011B82E84E0B81236
:1020600009C0EF2DF0E03196E00FF11FE491E1118E
:1020700023C005C082E0B81202C0F110FA94EE202D
:1020800081F00E94B22ED82E6C2D0E94E50FE82E12
:10209000882339F00E94A608C817D90779F4E110FF
:1020A00003C0C11016C0E12C81E0B812CACF0E9453
:1020B000291F0E94D30F0DC0F394E1CF0E94A60800
:1020C000EC010E94DC0FD82E6C2D0E94E50FE82E4B
:1020D000E6CF8D2DDF91CF911F910F91FF90EF9063
:1020E000DF90CF90BF900895FC01248120526217A9
:1020F00010F40C940618862F90E0821B91090E9420
:10210000971A6EE00C94701360E088E792E00E94EA
:10211000021987FD0AC0811102C00C945634992718
:1021200087FD909501970C942C2908950E941E0517
:102130000E9419380E94A23462E671E084E591E0C1
:102140000E94042088EE93E00E94690880E00E94CB
:10215000C83C8091B9039091BA03079710F40C948E
:10216000CD2008956DE671E088E792E00E94141892
:1021700082E990E09093790280937802ECE7F2E0B4
:102180008081805E80830895CF93DF93EC010E946D
:102190002A128B819C810E946D130E942E126A81EB
:1021A00088819981DF91CF910C940913FC0187817B
:1021B0008F3118F48F5F8783089586818F5F8683C0
:1021C0000895FC018781882319F081508783089541
:1021D00086818150868308951F93CF93DF93FC01FE
:1021E000C681D0E06D2F80E00E9424121C2F105F6A
:1021F0008C2FCF5F0E94C7138C2FC113FACFDF5FE4
:10220000D23081F7DF91CF911F9108951F93CF9323
:10221000DF93EC0186EF90E00E94E1161FEF8E81C4
:10222000181721F0CE010E94EC101E818F81682FBB
:1022300070E094E0759567959A95E1F78F700E942C
:1022400024120E94C011823049F0843019F081308C
:1022500049F413C0CE010E94D610E1CFCE010E94F6
:10226000E110DDCF8830D9F68D81E881F981E80F62
:10227000F11D8F819E81890F8083DF91CF911F9106
:102280000895FC0171836083428334832383158224
:1022900080E2868317820895CF93DF93EC0186EF67
:1022A00090E00E94E1160E943212CE010E94C410FA
:1022B00061E08D810E9424120E94C0118230B1F031
:1022C000843041F08130C1F486EF90E00E94E9163D
:1022D00080E026C04D81242F30E08A8190E0019774
:1022E000281739072CF74F5F4D83E2CF8D81882364
:1022F000F9F281508D83DCCF8830D1F682E00E94E4
:102300001312823048F083E00E94273786EF90E076
:102310000E94E91681E004C0CE010E940611C3CFDD
:10232000DF91CF9108950C94AB04E0918202F0E02C
:10233000EE0FFF1FE758FE4F25913491C901089514
:10234000CF93DF93D82F0E94AB0407C082E390E0C5
:102350000E9469080E94AB04DC2FC82F8D13F6CFB2
:10236000109282021092810280938302882319F0D6
:1023700080E00E94333780918302DF91CF910895EE
:10238000FF920F931F93CF93DF93C0E0D0E0F12C27
:102390000AEF10E015C00E94AB04F82E81E090E037
:1023A0000E94690880918302F81202C0219608C039
:1023B0008F2DDF91CF911F910F91FF900C94A01161
:1023C00040918202242F30E0220F331FF901E95798
:1023D000FE4F65917491C8010E94C83E6F5F7F4FA8
:1023E000C617D707C0F2FF20B1F0509181025F5F9E
:1023F00050938102F901EB56FE4F85919491252F60
:1024000030E02817390738F0463018F44F5F409312
:1024100082021092810280918302DF91CF911F91FD
:102420000F91FF900895CF93DF93D82FC09183022F
:102430000E94C011909182029D1711F08C17C1F378
:10244000892FDF91CF910895462F682F86EF90E076
:102450000C94F81660E080E00C94241261E080E0B7
:102460000C94241286EF90E00C942517CF93DF9301
:10247000FC01DB018C91882389F0C081D1814883E4
:10248000808191810196918380838C9181508C937E
:10249000882321F00190F081E02D1082DF91CF910F
:1024A0000895BF92CF92DF92EF92FF920F931F9306
:1024B000CF93DF93EC018B017A014115510501F1B6
:1024C000CA010E94293FF8019081B82E981708F49C
:1024D000B92ECB2CD12CA601B701888199810E94FD
:1024E000323F288139812C0D3D1D39832883F80125
:1024F00080818B198083882319F0E881F98110820B
:10250000DF91CF911F910F91FF90EF90DF90CF90CF
:10251000BF900895EF92FF921F93CF93DF9300D067
:1025200000D0CDB7DEB77C01CA014B835C836983E1
:102530007A830E94D32D182F69817A81DB018C91D7
:102540004B815C81811768F44FE3C7010F900F90B6
:102550000F900F90DF91CF911F91FF90EF900C940F
:102560003612F70120813181210F311D3183208303
:10257000DB018C91811B8C93882321F00190F081E9
:10258000E02D1082F9012AE030E00CC0CA01B90147
:102590000E94C83E405DBAE06B9F401911244293EF
:1025A0001150AB011111F2CF0F900F900F900F90BF
:1025B000DF91CF911F91FF90EF9008950F931F939C
:1025C000CF93DF93CDB7DEB72B970FB6F894DEBF6E
:1025D0000FBECDBF8E010F5F1F4F1A87098727E0FF
:1025E0002B87AC01BE01655F7F4FCE0109960E942B
:1025F0008A12B80186EF90E00E94653D2B960FB6D7
:10260000F894DEBF0FBECDBFDF91CF911F910F9128
:1026100008951F93CF93DF93CDB7DEB761970FB6C1
:10262000F894DEBF0FBECDBF0097D1F0162F6131F9
:1026300008F010E1412F50E0BC01CE0101960E944C
:10264000413FE1E0F0E0EC0FFD1FE10FF11D1082D2
:10265000BE016F5F7F4F86EF90E00E94653D01C035
:1026600080E061960FB6F894DEBF0FBECDBFDF915C
:10267000CF911F9108951F93CF93DF93CDB7DEB70E
:1026800061970FB6F894DEBF0FBECDBF0097D1F0B3
:10269000162F613108F010E1412F50E0BC01CE014E
:1026A00001960E94323FE1E0F0E0EC0FFD1FE10FE8
:1026B000F11D1082BE016F5F7F4F86EF90E00E9498
:1026C000653D01C080E061960FB6F894DEBF0FBE95
:1026D000CDBFDF91CF911F91089560E10C943B1322
:1026E000CF92DF92EF92FF920F931F93CF93DF93DE
:1026F000CDB7DEB762970FB6F894DEBF0FBECDBF81
:10270000009761F1613108F060E17C01CC24C39451
:10271000D12CCC0EDD1E86011CC0C7016A8B0E9425
:10272000603FF80181938F01FFEFEF1AFF0A6A897A
:1027300081110FC0E1E0F0E0EC0FFD1FE60FF11D8D
:102740001082BE016F5F7F4F86EF90E00E94653D73
:1027500006C0802F8C19861700F3ECCF80E06296BC
:102760000FB6F894DEBF0FBECDBFDF91CF911F91A2
:102770000F91FF90EF90DF90CF900895882319F08C
:1027800087EA91E002C08BEA91E00C946D13682F08
:1027900086EF90E00C94673DCF93DF931F92CDB707
:1027A000DEB7682F06C080E269830E94C713698183
:1027B00061506430C4F783EA91E00F90DF91CF91CC
:1027C0000C943B130F931F93CF93DF93062F142F7B
:1027D00064E670E00E94C83EEB0180E20E94C713ED
:1027E00080E20E94C713C436D10548F480E20E94FB
:1027F000C713CA30D10518F480E20E94C713CE0176
:102800000E94DE12802F0E94C713812F0E94C713DF
:1028100080E2DF91CF911F910F910C94C713CF935A
:10282000DF93D82FC0E004C080E20E94C713CF5FBF
:10283000CD13FACF8C2FDF91CF91089580E10C94C6
:102840000F146AE00E94BC3E892F805D0C94C71370
:10285000DF92EF92FF920F931F93CF93DF93EC01E0
:10286000162F16160CF059C064E670E00E94C83EA0
:10287000D62EE72ECB010E94D32D082F23E0F22E77
:10288000F80E04C080E20E94C7131150F116D4F371
:10289000412F552747FD50952F2D332727FD309584
:1028A000235031094217530754F4812FDF91CF9100
:1028B0001F910F91FF90EF90DF900C94CC138D2D12
:1028C0009E2D0E94DE12CE0164E670E00E94C83E9A
:1028D000EC01101B012F015011161CF48EE20E9416
:1028E000C713102F1150101644F4CE016AE070E0A7
:1028F0000E94C83E862F0E942114111674F4CE0146
:102900006AE070E00E94C83EDF91CF911F910F9165
:10291000FF90EF90DF900C942114DF91CF911F91E5
:102920000F91FF90EF90DF900895CF92DF92EF929A
:10293000FF920F931F93CF93DF93EC01162FC42EBA
:1029400016160CF088C068EE73E00E94C83ED62EC2
:10295000E72ECB010E94D32DF82E082F0C5F04C068
:1029600080E20E94C71311500117D4F31017DCF056
:10297000C11019C0CE010E94D32D082F03C080E2E0
:102980000E94C71311500117D4F3CE010E94DE122A
:102990008DE6DF91CF911F910F91FF90EF90DF9027
:1029A000CF900C94C713412F552747FD5095202FEA
:1029B000332727FD309524503109421753075CF423
:1029C000812FDF91CF911F910F91FF90EF90DF90BA
:1029D000CF900C94CC138D2D9E2D0E94DE12CE0133
:1029E00068EE73E00E94C83EEC011F19012F0150F0
:1029F00011161CF48EE20E94C713102F11501016EE
:102A000044F4CE0164E670E00E94C83E862F0E9426
:102A10002114CE0164E670E00E94C83EEC01012F53
:102A2000015011163CF46AE070E00E94C83E862F07
:102A30000E94211410167CF4CE016AE070E00E941E
:102A4000C83EDF91CF911F910F91FF90EF90DF90E3
:102A5000CF900C942114DF91CF911F910F91FF9093
:102A6000EF90DF90CF9008956F927F928F929F9218
:102A7000AF92BF92CF92DF92EF92FF920F931F938C
:102A8000CF93DF937C01962E742E822E16160CF0B7
:102A900044C021119A94C7010E94D32DC0E0D0E018
:102AA000082F10E0A92CBB24A7FCB09404C0872DEC
:102AB0000E94C7132196692C6C1A6501CC1ADD0A95
:102AC0000C151D05A4F3882019F08DE20E94C71390
:102AD000C016D1068CF4862DDF91CF911F910F91F6
:102AE000FF90EF90DF90CF90BF90AF909F908F902E
:102AF0007F906F900C94CC13C701DF91CF911F9101
:102B00000F91FF90EF90DF90CF90BF90AF909F908C
:102B10008F907F906F900C94DE12DF91CF911F9178
:102B20000F91FF90EF90DF90CF90BF90AF909F906C
:102B30008F907F906F90089520E00C94341540E2C0
:102B40000C949C15CF93DF936CE370E00E94C83E19
:102B50009B01EC0140E363E0C9010E949C158AE3FC
:102B60000E94C71340E362E0CE01DF91CF910C9445
:102B70009C15292F221F2227221F19F0919581953C
:102B8000910940E20C943415161634F461500E94F9
:102B9000281483E40C94C7130895161634F4615076
:102BA0000E949F1585E20C94C713089563303CF092
:102BB00062500E949F158FEA91E00C946D13089566
:102BC000CF93DF93C62F1416C4F5642F6150C33022
:102BD00079F020F4C13091F048F41EC0C530D9F02E
:102BE00078F0C63091F0C730D1F411C040E201C096
:102BF00048E667E5DF91CF910C94E213D6E510C06B
:102C0000642FDF91CF910C94C415D4EF06C00E94BD
:102C1000B91585E50EC06150D1E440E002C0D5E5AC
:102C200041E00E9495148D2F0E94C713C53029F4EE
:102C300088E6DF91CF910C94C713DF91CF9108956F
:102C4000462F66E00C94E015462F61E00C94E015E9
:102C5000462F60E00C94E015462F65E00C94E015DB
:102C6000CF93DF93EC0160E08E810E942E3E81E0E5
:102C700090E00E94BB3D61E08E810E942E3E81E08B
:102C800090E00E94BB3D60E08E810E942E3E84E673
:102C900090E0DF91CF910C94BB3DCF92DF92EF9209
:102CA000FF920F931F93CF93DF937C01C0E0D0E09E
:102CB000C62ED12C87010C0F1D1F61E0F801878102
:102CC0000E94F63DB6010C2E02C0759567950A94D8
:102CD000E2F761707727F80187810E942E3E2196E6
:102CE000C430D10539F7C701DF91CF911F910F9102
:102CF000FF90EF90DF90CF900C943016CF92DF9240
:102D0000EF92FF920F931F93CF93DF937C01C0E06C
:102D1000D0E0C62ED12C87010C0F1D1F61E0F801F9
:102D200087810E94F63DB6010C2E02C0759567950D
:102D30000A94E2F761707727F80187810E942E3E9E
:102D40002196C830D10539F7C701DF91CF911F9186
:102D50000F91FF90EF90DF90CF900C9430161F935F
:102D6000CF93DF93EC01162F642F8C810E942E3EAF
:102D70008D818F3F19F060E00E942E3E8F85612F7C
:102D800084FF06C0CE01DF91CF911F910C947E1677
:102D900070E084E0759567958A95E1F7CE010E9411
:102DA0004D16612FCE01DF91CF911F910C944D16DE
:102DB00041E00E94AF1681E090E0089540E00C945D
:102DC000AF16FC016089262F2160208B69600C946E
:102DD000DE16FC0160896E7F608B68600C94DE16E5
:102DE000FC016089262F2460208B6C600C94DE1619
:102DF000CF93DF93CDB7DEB728970FB6F894DEBF39
:102E00000FBECDBF28E0EEE6F0E0DE0111960190A6
:102E10000D922A95E1F7FC012389421710F0422F09
:102E20004150FE013196E40FF11DE40FF11D2081A8
:102E3000260F2068622F28960FB6F894DEBF0FBECB
:102E4000CDBFDF91CF910C94DE1661E00E94DE16BB
:102E500080ED97E00C94BB3DCF93DF93EC014230C3
:102E600018F08F8588608F874B8B1C8A222329F06E
:102E7000413019F48F8584608F8780E593EC0E9440
:102E8000BB3D60E08C810E942E3E60E08E810E94FE
:102E90002E3E8D818F3F19F060E00E942E3E6F859F
:102EA00064FD1DC063E0CE010E944D1684E991E1EE
:102EB0000E94BB3D63E0CE010E944D1684E991E182
:102EC0000E94BB3D63E0CE010E944D1686E990E072
:102ED0000E94BB3D62E0CE010E944D1616C06062AA
:102EE000CE010E94DE1684E991E10E94BB3D6F8510
:102EF0006062CE010E94DE1686E990E00E94BB3D32
:102F00006F856062CE010E94DE166F856062CE0121
:102F10000E94DE1684E0888BCE010E94F016CE015E
:102F20000E94251782E0898B66E0CE01DF91CF9168
:102F30000C94DE166F927F928F92AF92CF92EF92A7
:102F40000F931F93CF93DF93CDB7DEB73C01162FBE
:102F5000842F5D854E853F859889F3018483258381
:102F60000683E782C086A186828653874487358799
:102F7000968761E00E94F63DF30185818F3F19F04D
:102F800061E00E94F63D61E0F30186810E94F63D1A
:102F9000112319F0F301178603C080E1F30187873D
:102FA00020E041E060E1C301DF91CF911F910F91DB
:102FB000EF90CF90AF908F907F906F900C942C17E4
:102FC0008F92AF92CF92EF920F93DC0113961C92E7
:102FD0001E921297E8E9F0E0ED93FC931F921F9286
:102FE0001F921F928C2CAE2CC02EE22E042F2FEF9E
:102FF000462F61E00E949A170F900F900F900F904C
:103000000F91EF90CF90AF908F900895FC012781A2
:103010008085E22FF82FE60FF11DE60FF11D2591B7
:103020003491C9010C946D130F931F93CF93DF93C9
:10303000EC018B01CB010E948A2D682FCE010E94EA
:10304000771880EA90E09983888318870F83DF914F
:10305000CF911F910F910895DF92EF92FF920F93FE
:103060001F93CF93DF93EC01F62E69871A8681E0D8
:103070008D8382E0D82EEE24E3948E01075F1F4FEC
:103080000E94C011482F823011F0843061F4E88131
:10309000F9810280F381E02D6F2DCE010995F9862B
:1030A000DA86ED8204C0813089F0883079F0C80179
:1030B0000E94972E8111ED828D81882319F0CE0117
:1030C0000E94A4188A858F5F8A87DACF8FEF89875D
:1030D00081E08E838D83483009F080E0DF91CF91CD
:1030E0001F910F91FF90EF90DF9008950895FC01DC
:1030F00086EA90E09183808312821382648381E068
:10310000858386830895FC012281211103C081E01B
:1031100082830895438130E0240F311D848190E043
:1031200001972817390714F44F5F43830895FC0172
:103130008281882319F081508283089583818823B6
:1031400011F08150838308951F93CF93DF93EC0197
:1031500010E0612F80E00E94241280E20E94C713D9
:10316000E881F9816B81610F0190F081E02DCE0142
:1031700009950E941E141F5F123059F76A8180E082
:103180000E9424128EE30E94C7136A818FE00E947E
:1031900024128CE30E94C7131D82DF91CF911F91EF
:1031A00008950F931F93CF93DF93EC010E94C011FA
:1031B000182F0E940C37882321F081E08D831FE7B0
:1031C0001BC00B818A81080F123031F0143039F4A2
:1031D000CE010E94831803C0CE010E9497188B81F4
:1031E0009A81890F081711F081E08D838D818823E2
:1031F00019F0CE010E94A418812FDF91CF911F9169
:103200000F910895EF92FF921F93CF93DF931F9238
:10321000CDB7DEB77C0181E0F701858311E0C701FE
:1032200069830E94D1186981811102C0F701168259
:10323000F7019681911108C0883031F481E08683CE
:1032400083819281890F09C0662311F0F7011583EC
:10325000813029F79111E3CF8FEF0F90DF91CF915C
:103260001F91FF90EF9008950F931F93CF93DF93DB
:10327000EC018B0150E00E948A124AE3B801CE01B2
:10328000DF91CF911F910F910C943612EF92FF9224
:103290000F931F93CF93DF9300D01F92CDB7DEB76C
:1032A0008C01462F0B969A8389838EE08B83D801FD
:1032B000EC91F0E0EE0FFF1FEE54FE4FE590F4901E
:1032C000BE016D5F7F4FCE0101960E943419A701A8
:1032D000BE016D5F7F4FCE0101960E94511240E208
:1032E000BE016D5F7F4FCE0101960E943612F8013C
:1032F00041815281BE016D5F7F4FCE0101960E94D8
:103300008A124FE2BE016D5F7F4FCE0101960E948F
:103310003612D80117964D915C911897BE016D5FDA
:103320007F4FCE0101960E948A120F900F900F904E
:10333000DF91CF911F910F91FF90EF90089529E1B8
:10334000289FB001299F700D11246E567F4F49E1CF
:1033500050E084E892E00C94503F29E1289FB001AE
:10336000299F700D11246E567F4F49E150E084E88B
:1033700092E00C946E3FDC01EC91B6E0EB9FF00123
:103380001124E60FF11DEE0FFF1FEC53FE4F2591A8
:103390003491C9010895CF93DF93EC010E94BB19CA
:1033A0004F815885849F9001859F300D949F300DEB
:1033B0001124C901DF91CF9108950F931F93FC0150
:1033C000A181B2812091AD033091AE030E948E3E67
:1033D00024E630E040E050E00E94DC3E89019A01A2
:1033E000093EFDEF1F072105310520F008EE1DEF16
:1033F00020E030E0C8011F910F910895FC01818504
:1034000092850895FC012081213029F42091A503A3
:103410003091A60309C0223029F42091A3033091F2
:10342000A40302C020E030E0FC0187819085289F42
:10343000A001299F500D389F500D1124CA010895F5
:10344000E1EAF3E0808191810895FC016081FBE075
:103450006F9FB0011124605D7D4F4BE050E00C94F4
:10346000203FDC01EC91F0E0EE0FFF1FEE54FE4F29
:1034700025913491C9010C943B1360E170E00C94E8
:10348000311ACF93DF93EC01888160E0811108C08D
:10349000CE010E94CB1967E00E94241687E011C07C
:1034A000CE010E94CB1965E00E9424168FE20E9493
:1034B000C7138F8198850E94DE1283E40E94C71390
:1034C00088E0DF91CF91089566E0FC0183819481CB
:1034D0000E94281686E0089566E0FC0185819681A9
:1034E0000E94281686E00895FC0181859285883E19
:1034F000F3E09F0719F483E992E004C00E94DE1212
:103500008DE992E00E946D1386E00895FC018181AF
:103510009281883EFDEF9F0729F482EA92E00E94A3
:103520006D1303C067E00E942C1688E0089549E1FE
:10353000489F9001499F300D112423563F4FC901E8
:1035400008950F931F93CF93DF93CDB7DEB7A69760
:103550000FB6F894DEBF0FBECDBF8C01AB01BC012E
:10356000CE0101960E94741CCE0101960E94E21CBD
:1035700089E1FE013C96D80101900D928A95E1F710
:10358000A6960FB6F894DEBF0FBECDBFDF91CF91E8
:103590001F910F910895FC012081260F293010F40E
:1035A000208302C0FC0110820C94251A0F931F93F4
:1035B00061E00E94CB199C0140E050E068EE75ECA0
:1035C0008BEE9BE00E94DC3E89019A010A3A81E67B
:1035D00018072105310520F009EA11E620E030E066
:1035E000C8011F910F9108950F931F9361E00E94EE
:1035F000CB199C0140E050E068E27CE78DE791E068
:103600000E94DC3E89019A01023787E118072105F3
:10361000310520F001E717E120E030E0C8011F91FB
:103620000F910895EF92FF920F93CF93DF9300D005
:10363000CDB7DEB77C0169837A830E94D61A04E68F
:1036400020E0AC0169817A81C70103960E94212E96
:103650000F900F90DF91CF910F91FF90EF90089511
:10366000EF92FF920F93CF93DF9300D0CDB7DEB7E9
:103670007C0169837A830E94F41A04E620E0AC019D
:1036800069817A81C70105960E94212E0F900F90C3
:10369000DF91CF910F91FF90EF90089548EE53E0A6
:1036A00009960C94032E61E00E94BB19BC0184EFC3
:1036B00095E60E94C83ECB010895EF92FF920F93CA
:1036C000CF93DF9300D0CDB7DEB77C0169837A83D7
:1036D0000E94531B21E0F701308169817A81311109
:1036E00020E001E0AC01C70107960E94212E0F9057
:1036F0000F90DF91CF910F91FF90EF900895CF93AE
:10370000DF93EC010E94531B2F81388582179307AA
:1037100010F498878F83CE010E94D61A2B813C81AA
:103720008217930710F49C838B83CE010E94F41AB6
:103730002D813E818217930710F49E838D83DF9144
:10374000CF9108950F93CF93DF93EC0104E620E02F
:1037500048EE5DEF01960E94212E89819A819C831B
:103760008B832881233039F49C0136952795369533
:1037700027953C832B839E838D83CE01DF91CF9150
:103780000F910C947F1BDF92EF92FF920F931F9388
:10379000CF93DF9300D01F92CDB7DEB74BE050E060
:1037A00062E772E084E892E00E94203F84E892E0C1
:1037B0000E947F1B00E010E05EE0D52E6FE8E62E51
:1037C00062E0F62EDB82FA82E982402F4F5FBE0173
:1037D0006D5F7F4FCE0101960E943419C8010E948F
:1037E000AD190F5F1F4F0032110561F70F900F9059
:1037F0000F90DF91CF911F910F91FF90EF90DF908D
:10380000089508950895262F443019F06FEF7FEF43
:1038100002C061E070E0223091F028F4222349F0E8
:103820002130C9F409C0243081F060F0253099F4CA
:103830000FC00B960C94CB1A0B960C945D1B0B9639
:103840000C94A21B0B960C94121B0B960C94301B21
:103850000B960C944E1B08951F93CF93DF93EC01AE
:10386000162F0E940618CE0109960E948C2E8823DE
:1038700011F0298501C02FEF332727FD3095812FC7
:1038800090E02817390759F11230B1F028F41123CC
:1038900049F0113021F50BC01430C1F090F0153013
:1038A000F1F419C0CE010B960E943D1A18C0CE014A
:1038B0000B960E94411A13C0CE010B960E94861AE5
:1038C0000EC0CE010B960E94641A09C0CE010B9661
:1038D0000E946C1A04C0CE010B960E94741A80E0FC
:1038E000DF91CF911F910895EF92FF920F931F9355
:1038F000CF93DF93EC018B017A016AED72E00E94B5
:1039000014188FEF89878CEA90E09983888389E186
:10391000F801DE011B9601900D928A95E1F7FDA258
:10392000ECA2DF91CF911F910F91FF90EF9008953E
:103930000F931F93CF93DF93CDB7DEB728970FB6C2
:10394000F894DEBF0FBECDBF8C01BC016A5E7F4F15
:103950002CEE32E04EE050E0CE0101960E94411183
:10396000CE0101960E944C1181E0F80185832896D2
:103970000FB6F894DEBF0FBECDBFDF91CF911F9180
:103980000F910895CF93DF93EC016CA17DA16F5F40
:103990007F4F0B960E9446190E9432120E942A12F3
:1039A00087EF92E00E946D130E942E126EE0CE010E
:1039B00046960E9409130E94832E83E0DF91CF91E7
:1039C0000C942737DF92EF92FF920F931F93CF93C0
:1039D000DF93CDB7DEB769970FB6F894DEBF0FBEA1
:1039E000CDBF8C0189E1D82E9BE0E92EF12CE00EB1
:1039F000F11E60E0C8010E94021987FD2BC08630CD
:103A000019F0873049F404C0C8010E94C21CF1CFEC
:103A1000C8010E94981CEDCFF701DE0111969D2D83
:103A200001900D929A95E1F7682FC8010E942C1819
:103A3000811109C0FE013196D7018D2D01900D92A3
:103A40008A95E1F7D6CF83E00E942737C7010E940D
:103A50007F1BCFCF69960FB6F894DEBF0FBECDBFE8
:103A6000DF91CF911F910F91FF90EF90DF9008951C
:103A700080919D0390919E03892BA1F08CE10E947F
:103A8000910865E02AE0AC01249FC001259F900DBC
:103A900011240E94B9158DE60E94C71383E40E9489
:103AA000C71304C084ED93E00E946D130C941E14A0
:103AB0008AE10E94910865E00E94B9158DE60E9496
:103AC000C71386E50E94C7130C941E14CF93DF938F
:103AD00000D0CDB7DEB789839A830E942A128981EC
:103AE0009A810E946D130E942E128091FB02909188
:103AF000FC020E94293F892B51F086EC93E00E9442
:103B00006D138091FB029091FC020E946D130F9047
:103B10000F90DF91CF910C941E1490E0880F991FA5
:103B200062E0865C9C4F0C943B130F931F93CF93E2
:103B3000DF9361E084E892E00E94CB198C0165E09C
:103B400084E892E00E94CB19EC0183E10E94910885
:103B500080179107B8F4C817D907B0F49C012C1B43
:103B60003D0BC8018C1B9D0B64E670E00E94C83EB3
:103B7000C9010E94C83ECB016436710530F083E66E
:103B800090E003C083E601C080E0DF91CF911F91F8
:103B90000F910895613011F40C94970D0C94C42A80
:103BA000CF93DF93D82FC62F825E0E9427098823E8
:103BB00051F06C2F8D2F0E94CA1D46E06C2FDF91B3
:103BC000CF910C94E01587E593E0DF91CF910C94B1
:103BD0006D130F931F93CF93DF93C82F162F0E945F
:103BE0002A128091CF02882319F01092CF0203C0CD
:103BF00081E08093CF020E94610D811108C083E0B3
:103C000090E00E946E0E882341F080E209C080910E
:103C10005902882321F082E403C08DE601C082E6C8
:103C20000E94C71380917302811117C022C0809136
:103C30007402D81761F080917302802331F0809173
:103C4000CF02882321F08FEF03C08DE201C08FE502
:103C50000E94C713000FDF5F02C0D0E001E00E94A6
:103C60005E0DD81720F30E945E0D97E0981B892FF8
:103C700001C087E00E940F14DC2FDF5F8D2F0E94B0
:103C800021148AE30E94C713C1112FC00E94A726E6
:103C9000882359F10E94B626892B11F526C00E946F
:103CA0001E140E942E120C2F0E5F802F0E942114D2
:103CB0008AE30E94C713612F8D2F0E94D01D8C2F85
:103CC0008D5F0E9421148AE30E94C713612F802F09
:103CD0000E94D01DDF91CF911F910F910C941E1463
:103CE0008EE593E00E946D13DACF612F8C2F0E9436
:103CF000D01DD5CF88E10E94910868E00E942C1663
:103D000080E20C94C7130E942A1284E892E00E9479
:103D1000DD1968E00E942C1680E20E94C7130E9401
:103D2000AD2A67E00E9428160E941E140E942E12DF
:103D300083E693E00E946D1367E080918503909184
:103D400086030E9424160C941E140F931F936091F7
:103D5000DA027091DB028091DC029091DD02209109
:103D60009D02222371F00E94572D0091DA021091DA
:103D7000DB022091DC023091DD02601B710B820BB3
:103D8000930B28EE33E040E050E00E94DC3EC90196
:103D90001F910F910895CF930E944226811110C068
:103DA0000E94A726882331F00E94422681110AC072
:103DB000C4E40BC00E94610D811106C0CEE405C0B1
:103DC000C3E403C0C5E401C0C2E40E9432268111ED
:103DD000C7E58C2F0E94C71380E20E94C7130E9480
:103DE000A51E0E94A21580E2CF910C94C7130E94D9
:103DF0002A120E947A1E67E086E10E943B0D0E9413
:103E00001E140E942E120E94CB1E67E083E10E94C6
:103E10003B0D0C941E140E94572D6093DA02709390
:103E2000DB028093DC029093DD021092D6021092A6
:103E3000D7021092D8021092D9021092D202109298
:103E4000D3021092D4021092D50281E080939D0299
:103E500008950F931F930E94572D0091DA0210913D
:103E6000DB022091DC023091DD02601B710B820BC2
:103E7000930B6093DA027093DB028093DC029093E1
:103E8000DD0210929D021F910F9108956091D20260
:103E90007091D3028091D4029091D50220E63AEE3F
:103EA00040E050E00E94DC3EC9010895CF92DF92CD
:103EB000EF92FF920E942A128CE693E00E946D130B
:103EC0000E94A51E0E94A2150E942E1287E793E071
:103ED0000E946D136091D6027091D7028091D80232
:103EE0009091D90238EEC32E33E0D32EE12CF12C81
:103EF000A70196010E94DC3EC9010E94A2158AE733
:103F000093E00E946D136091D2027091D302809170
:103F1000D4029091D502A70196010E94DC3EC9010E
:103F2000FF90EF90DF90CF900C94A2150E942A1280
:103F30008DE793E00E946D130E94CE2A68E00E94F4
:103F400020160E941E140E942E1282E10E94270950
:103F5000882349F086E893E00E946D130E94D42ADA
:103F600068E00E9420160C941E140E942A128FE80A
:103F700093E00E946D1367E086E00E943B0D0E9473
:103F80001E140E942E1287E993E00E946D1347E0F1
:103F900061E08091AF039091B0030E94E0150C9412
:103FA0001E140E942A128FE993E00E946D1367E0AD
:103FB00080E00E943B0D0E941E140E942E1286EA91
:103FC00093E00E946D1367E082E10E943B0D0C9428
:103FD0001E140E942A128DEA93E00E946D138091B4
:103FE0009D0390919E03892B29F065E087E00E9454
:103FF0003B0D04C083EB93E00E946D130E941E14DE
:104000000E942E120C941E140F931F93CF93DF93D4
:1040100000D0CDB7DEB78B0189839A830E9432121C
:104020000E942A1289819A810E946D130E942E1289
:10403000C8010F900F90DF91CF911F910F910C94B9
:104040006D1385EB93E00C94661D8FEC93E00C945C
:10405000661D0E942A120E947A1E0E94381D0E942C
:104060002E120E94CB1E0C94581DCF93DF9380918B
:10407000CE028F5F863018F48093CE0202C0109279
:10408000CE028091CE02853061F4C0916600CF5F90
:10409000C09366000E942A288C1718F481E0809350
:1040A0006600C0916600C1500E942A1261E08091B2
:1040B000660090E00E949F158FE50E94C713D0E034
:1040C000CC0FDD1FFE01E256FD4F808191810E94E1
:1040D000A21581E00E940F148FEF0E94C713FE010A
:1040E000E855FD4F808191810E94A2150E941E1407
:1040F0000E942E12FE01EE54FD4F68E080819181F6
:104100000E942C16C454DD4F68E0888199810E947A
:104110002C16DF91CF910C941E140E942A1288ED68
:1041200093E00E946D1367E08BE10E943B0D0E94BB
:104130001E140E942E1281EE93E00E946D130C94C7
:10414000581D0E942A128BEF93E00E946D138091FC
:104150009D0390919E03892B41F069E08091240199
:10416000909125010E94C41504C081E094E00E9452
:104170006D130E941E140E942E1285E094E00E948E
:104180006D130C94381D60E070E08FE094E00C94A7
:1041900004200E94C3200C94832E60E070E083E131
:1041A00094E00E94042088E893E10C946D2D0E9415
:1041B0002A128FE194E00C946D13CF93C82F0E94C4
:1041C00032120E942A128DE294E00E946D1362E086
:1041D0008C2F90E00E949F1580E49FE1CF910C947A
:1041E000690860E070E08AE394E00E94042080EDBA
:1041F00097E00C9469081092CB021092CA021092B8
:10420000C9021092C8028091CC028093CD02109214
:10421000C7021092C6020895CF93DF9321E630E0E3
:1042200088EA92E0CEE9D2E0ACEBB2E062EB72E079
:1042300045E05DE2F90151939F01FC011192119259
:10424000CF01199219921D921D92FB0111921192A8
:10425000BF01415079F7DF91CF910895CF930E942C
:10426000FB200E940C210E942A1264E070E084E886
:1042700092E00E94311A80E20E94C71384E892E023
:104280000E94411A80E20E94C7138091FD020E94A1
:104290008D1D0E942E120E94951D8093CC0262E01B
:1042A00090E00E949F158FE394E00E946D1380EDD3
:1042B00092E00E948C2E882319F0C091D00201C098
:1042C000CFEFC0FF05C065E080E00E943B0D03C05A
:1042D00085E00E940F1480E20E94C713809184023F
:1042E00084508530A8F4C1FF05C065E082E10E94DA
:1042F0003B0D03C085E00E940F14C2FF05C00E9461
:104300004909CF910C94211480E2CF910C94C713EA
:1043100066E080918502909186020E942C16CF91D2
:104320000C941E140E94951D8093CC029091CD0296
:10433000981728F58093CD020E94A51E2091C802EF
:104340003091C902821B930B9093CB028093CA02D7
:104350000E94A51E9093C9028093C8028091CA0250
:104360009091CB022091C6023091C70228173907DD
:1043700010F0232B21F49093C7028093C602089576
:10438000CF93DF930E9492210E944909811116C0A8
:1043900082E10E949108EC0180E00E949108C81718
:1043A000D90728F49C012C1B3D0BE90102C0C81B56
:1043B000D90BC53FD14010F024E601C029E630E01A
:1043C0008091CD02281B31098091C6029091C702CD
:1043D000289FA001299F500D389F500D1124CA011C
:1043E000DF91CF9108958091CE028F5F853118F4CF
:1043F0008093CE0202C01092CE020E949221809140
:10440000CE028A3088F40E942A120E947A1E67E047
:1044100086E10E943B0D0E941E140E942E120E94F3
:10442000CB1E8BEE93E018C00E942A1268E087E151
:104430000E943B0D8DEE93E00E946D1367E086E1D4
:104440000E943B0D0E941E140E942E1268E089E11A
:104450000E943B0D8FEE93E00E946D138091CE027F
:104460008A3068F40E944226811115C008C00E945B
:10447000C0210C94A21582EF93E00C946D1364E0BC
:104480008091CC0290E00E949F1589EF93E00E94FA
:104490006D130C941E148091C6029091C70245972B
:1044A00030F7E9CFFF920F931F93CF93DF930E94D2
:1044B0002A28F82EFA940E942D28833429F50F2DEE
:1044C000112707FD1095F801EF59FF4F8083000F6A
:1044D000111FE801C855DD4F6091D2027091D302DF
:1044E0008091D4029091D50228EE33E040E050E074
:1044F0000E94DC3E3983288388E10E949108F801FC
:10450000E454FD4F918380830E942D28843429F543
:10451000CF2DDD27C7FDD095FE01EF59FF4F8083DA
:10452000CC0FDD1F8E0102561D4F6091D20270919B
:10453000D3028091D4029091D50228EE33E040E07E
:1045400050E00E94DC3EF8013183208388E10E9424
:104550009108CE54DD4F99838883DF91CF911F91CD
:104560000F91FF9008950E94482681111EC00E945D
:10457000AD2681111AC00E94610D8823A1F080919F
:10458000D6029091D702A091D802B091D902805959
:104590009F4FAF4FBF4F8093D6029093D702A09307
:1045A000D802B093D9020C9452228091D2029091F9
:1045B000D302A091D402B091D50280599F4FAF4F42
:1045C000BF4F8093D2029093D302A093D402B093B2
:1045D000D502D1CF9091D1029F5F9093D10290E00C
:1045E000FC013197E131F10548F5E65DFF4F0C9490
:1045F0001A3F0C94F71E0C94831E0C94561F0C94B7
:10460000E91F61E005C061E083E00C94E91D66E00C
:1046100080E0FBCF66E0F8CF0C942E210C94961F1F
:104620000C94D11F0C94B51F0C94F3210C948D2085
:104630000C94A1200C9429200C94352008958FEF20
:104640008093D00208950F931F93CF93DF930E941E
:104650007326C0918702D091880261E084E892E0DD
:104660000E94CB198C01CE0165E070E00E94C83E2B
:104670008FE00E94DB0CEC0140E0BC01C8010E940D
:10468000302B8FE00E94442BCE01DF91CF911F9100
:104690000F910C94562681E00C9485260E9489097E
:1046A000882321F00E9451260C94EC2B089510923F
:1046B000DE020C942323CF93DF930E944E230E94AB
:1046C0008409EC018091DE02811111C062E084E86E
:1046D00092E00E94CB198C179D0748F481E08093EB
:1046E000DE0280918702909188020E946D260E94CE
:1046F00089098823D9F164E084E892E00E94CB190B
:104700008C179D0758F132C08091DF02882389F011
:104710008AE10E949108EC0184E892E00E94021A6A
:10472000D195C195D1098C179D071CF480E594E0C3
:1047300017C08091E002811101C00EC08CE10E947F
:104740009108EC0184E892E00E94201A8C179D07E2
:104750001CF484E594E004C082E00FC088E494E097
:104760009093FC028093FB0281E007C080913001AE
:1047700090913101029740F6EFCFDF91CF910895EC
:104780008093E0026093DF0208957093E4026093E7
:10479000E3029093E2028093E10208950F931F9346
:1047A000CF93DF93C091E102D091E202CE010E944B
:1047B000A70F8C010E948409C817D90738F4C801D3
:1047C000DF91CF911F910F910C94890F81E0DF91C0
:1047D000CF911F910F9108950F931F93CF93DF9364
:1047E0000E94CE23182F0E94B626EC010E94890950
:1047F000882311F001E001C0012F8091E502882398
:1048000029F0BE01812F0E949C2B01C0812F88239B
:1048100029F081E00E94F62681E00DC0011101C05F
:1048200009C0BE01812F0E94BB2C8C179D0711F07F
:104830000E94D22682E0DF91CF911F910F910895BF
:104840000E94E8260E94F60D1092E50280E10C9489
:10485000442B81E00E94F6260C94F10DBC0180E10E
:104860000E94DB0C0C949B2A0F931F93CF93DF9332
:104870008C01EB010E94C523BE0180E10E94DB0C8C
:1048800040E0BC01C8010E94302BCE016AE070E01C
:104890000E94C83ECB01DF91CF911F910F910C94E4
:1048A0002E240E94F60D0E9473268FE00C94442B58
:1048B00081E00E9485260C94F10D0F931F93CF93F6
:1048C000DF931F92CDB7DEB78C018FE049830E9442
:1048D000DB0C4981BC01C8010F90DF91CF911F9182
:1048E0000F910C94302BBC018FE00E94DB0C0C94D8
:1048F0009B2A0F931F93CF93DF93C0918503D09191
:104900008603CE010E94A70F8C010E9484098C1798
:104910009D0738F4C801DF91CF911F910F910C943E
:104920006B0F81E0DF91CF911F910F9108951F933D
:10493000CF93DF930E947924182F0E945126EC0117
:10494000BC01812F0E949C2B882329F081E00E94CA
:10495000852681E01BC00E94890981110BC01111BD
:1049600009C0CE010E94B52A811104C00EC00E9468
:1049700056260BC00E94610D811107C0BE01812F18
:104980000E94BB2C8C179D0791F782E0DF91CF919D
:104990001F9108950E9458240E9429240C94F10D1F
:1049A000CF93DF931F92CDB7DEB79091E70291309E
:1049B00039F018F0923081F406C00E9497240CC0A0
:1049C0000E94EC2309C00E943C0F823089F0898349
:1049D0000E94CA2489810CC0813051F49091E60272
:1049E000992331F082E08093E7020E94F60D82E085
:1049F0000F90DF91CF9108950E94F60D8091E8020B
:104A00009091E9020E94A70F0E94890F882329F044
:104A10000E9451241092E70208950E94202481E010
:104A20008093E5028093E70208958093E60208955B
:104A30000F931F93CF93DF93EC018A019093E902C8
:104A40008093E80240E00E945D24B801CE01DF912E
:104A5000CF911F910F910C9434240E94E82687E097
:104A60008093D00282E08093D1020E94203783E0BD
:104A70008093EB02089581E00E94F6268FEF8093E9
:104A8000D00288E00C942737FF920F931F93CF93A7
:104A9000DF9380E00E942709FF24F394F826809199
:104AA000EA02882379F00E94490990918B0201E083
:104AB000981301C000E011E0811110E0913021F461
:104AC000112311F010E000E00E944909811127C074
:104AD000112329F182E10E949108EC0180E00E94FB
:104AE0009108C817D90728F49C012C1B3D0BE9013C
:104AF00002C0C81BD90BC53FD14008F063C00FC02E
:104B00008091FD02882331F0833021F0843011F050
:104B1000853029F481E00E94273710E000E082E12F
:104B20000E9427098823B1F082E10E949108EC01DC
:104B300080E00E949108C817D90728F49C012C1B1B
:104B40003D0BE90102C0C81BD90BC53FD14010F095
:104B5000FF24F394011102C087E001C083E0809339
:104B6000D002112329F08091D00282508093D0028C
:104B7000FF2029F08091D00281508093D002011152
:104B800004C0111102C0FF2011F081E001C088E0D3
:104B90000E9427370E949311811102C01092EB02EC
:104BA000011108C0111106C0F11004C00E94931138
:104BB000883079F08091EB02823011F481E00FC0EF
:104BC00082E00DC0809184028450853008F498CF33
:104BD000A6CF8091EB028F5F8093EB02EBCFDF914A
:104BE000CF911F910F91FF9008958093EA0208954D
:104BF0001092F20208950E94572D28EE33E040E013
:104C000050E00E94DC3E6091EC027091ED028091D8
:104C1000EE029091EF02A091F002B091F102860FA6
:104C2000971FA11DB11D82179307A407B50728F090
:104C300081E08093F20282E008951092F20281E016
:104C400008950E94572D28EE33E040E050E00E9486
:104C5000DC3E2093EE023093EF024093F00250933B
:104C6000F10208958091F20208952CE3AC01249F93
:104C7000C001259F900D11249093ED028093EC02CA
:104C80000C94212681E09091F502911180E0089525
:104C900081E02091F3023091F402232B09F480E0AB
:104CA00008958091F3029091F40208952091B90340
:104CB0003091BA032730310540F02091BB03309189
:104CC000BC032817390708F4C9019093F4028093B4
:104CD000F3020E9481060C94D80ABC018FE00E9466
:104CE000DB0C0C9456268091F502882369F0109213
:104CF000F4021092F30280E090E00E94562681E0D8
:104D00000E949C061092F5020895CF93C82F8091BF
:104D1000F50281110FC0CC2369F080E090E00E9481
:104D200056261092F4021092F30280E00E949C0634
:104D3000C093F502CF9108951092F4021092F302FD
:104D400080E090E00E94562681E00C94852681E068
:104D50009091FA02911180E0089581E02091F8028B
:104D60003091F902232B09F480E008958091F80234
:104D70009091F9020895482F8091F6029091F702E0
:104D80002091F8023091F9028217930711F444231D
:104D900041F09093F9028093F8020E9448070C9426
:104DA000D80A08952091B9033091BA03273031050C
:104DB00040F02091BD033091BE032817390708F455
:104DC000C9019093F7028093F60281E00C94BB2610
:104DD0008091FA02882349F080E090E00E94D22678
:104DE00081E00E948F061092FA020895CF93C82F97
:104DF0008091FA0281110BC0CC2349F080E090E051
:104E00000E94D22680E00E948F06C093FA02CF91C2
:104E1000089580E090E00E94D22681E00C94F6266E
:104E2000089580918402883051F0982F94509530E5
:104E300048F08150823048F421E133E008C02FEF80
:104E400032E005C028E033E002C02AE133E0C901C6
:104E500008958CE694E09093770280937602909187
:104E60008402945081E0953008F080E00E94F5259E
:104E700061E088E794E00E94071091E0813009F03A
:104E800090E0892F08950F931F93CF93DF930E9493
:104E900015250091890210918A02C0918702D09154
:104EA000880263E084E892E00E94CB19A801BE0169
:104EB0000E94182586E694E090937702809376020C
:104EC00060E08EE794E0DF91CF911F910F910C94F9
:104ED0000710DF92EF92FF920F931F93CF93DF9310
:104EE0008C01D62EC7E8D2E0E880F98061E084E842
:104EF00092E00E94CB1940E0B7010E945D248881B6
:104F00009981B8010E94C83ECB010E94732480E6BB
:104F100094E090937702809376026D2D8BE894E075
:104F2000DF91CF911F910F91FF90EF90DF900C9444
:104F300007101F93CF93DF93182FC0918702D09152
:104F4000880261E084E892E00E94CB1941E0BE0152
:104F50000E945D2420E634E03093770220937602AD
:104F6000612F8BE894E0DF91CF911F910C94071093
:104F7000CF93C82F81E020919D0330919E03232B76
:104F800009F480E061E00E94C02322E434E0309321
:104F90007702209376026C2F89E994E0CF910C94EC
:104FA0000710CF93C82F62E084E892E00E94CB19EB
:104FB0006091890270918A02A0918B02B0918C025B
:104FC000E091B103F091B203AE9F9001AF9F300D1D
:104FD000BE9F300D1124820F931F0E9434242AE5B6
:104FE00034E030937702209376026C2F86EA94E0C7
:104FF000CF910C9407101F93CF93DF93182FC0917C
:105000008902D0918A0262E084E892E00E94CB1982
:10501000BE010E9434242AE534E0309377022093C5
:105020007602612F84EB94E0DF91CF911F910C9475
:1050300007108091A9039091AA030E94352682E768
:1050400094E0909377028093760261E086EA94E0A0
:105050000C9407108091FE020895809168000895D5
:10506000882319F081E00C94D12781E00C94FB2770
:10507000982F862F4091FE0250E02091A703309197
:10508000A8034217530709F001C080E091110C9466
:1050900099270C94B8270F931F93CF93DF93C82FB2
:1050A00081E08093FE0214E4D7E503E43FC00E9450
:1050B000DC0A109368008C2F0E943028813009F0A0
:1050C00041C0D09368000E9419288130D9F50E9410
:1050D000FB200E94DC0A009368004091FE0250E031
:1050E0002091A7033091A8034217530711F061E004
:1050F00001C060E08C2F0E943828813019F5D093D0
:1051000068004091FE0250E02091A7033091A8036F
:105110004217530731F48091FE028F5F8093FE02A5
:1051200005C00E9419288130B1F30CC04091FE02E5
:1051300050E02091A7033091A8032417350708F009
:10514000B6CF81E0DF91CF911F910F9108958EE44A
:1051500091E0909377028093760260E08FEB94E089
:105160000C940710CF93C82F8093FD0225EC34E0F8
:105170003093FC022093FB028D3030F4E82FF0E0F6
:10518000E854FF4F808101C080E080936700209148
:10519000B9033091BA032730310518F4CF910C943C
:1051A000CD200E9482380E94050B0E942927882367
:1051B00009F44DC084E00E942737C63079F160F4CD
:1051C000C230E1F028F4CC23A9F0C130F1F539C0A8
:1051D000C430D9F000F515C0C93069F128F4C730E2
:1051E00011F1C83091F523C0CB3021F030F1CC3033
:1051F00061F507C060E08AE090E00AC00E94A7283D
:1052000026C080E00E94D12722C060E085E090E0C7
:105210000E9469271CC060E080E002C060E081E07D
:105220000E94432714C080E00E94B82710C080E08D
:105230000E94FB270CC081E001C080E00E944B2847
:1052400006C080E00E94992702C00E94C9200E94E7
:10525000140BCF910C9492380F931F93CF93DF933D
:10526000EC010E949F190E9411278C0160E0C80187
:105270000E94021987FD29C090918402E82FFF2720
:10528000E7FDF095983019F4EA53FB4F0FC0892FD2
:105290008450853018F4E453FB4F08C0915092308D
:1052A00018F4EB52FB4F02C0E752FB4F84918D3054
:1052B00049F4BE0184E892E00E94A11ACE010E9446
:1052C000AD19D1CF0E94B228D1CFDF91CF911F91DC
:1052D0000F9108956CED74E088E093E00E9414183B
:1052E00060EF74E081E193E00E9414186AEF74E0CB
:1052F0008FEF92E00E94141868E075E08AE193E075
:105300000C941418FC01428153814115510589F018
:10531000A081B181B7FF03C0B195A195B10928EE75
:1053200033E00E949A3E9A0140E050E00E94DC3E49
:1053300002C020E030E0C90108950F931F93CF937E
:10534000DF9300D000D0CDB7DEB78C01862FF801F7
:10535000628173810E942F0B9C838B83F801808173
:1053600091819A838983CE0101960E9482290F90B0
:105370000F900F900F90DF91CF911F910F91089593
:105380000F93FC01CA01002341F06417750708F46C
:10539000CB014617570748F409C04617570708F4CA
:1053A000CB016417750708F401C0BA01978386839F
:1053B000918380831382128215821482338722871D
:1053C000681B790B718760870F910895FC019B0121
:1053D00040E050E086819781281B390B4109510933
:1053E000A285B3850E94A13E20853185442737FDE3
:1053F0004095542F0E94FE3E2115310581E048075B
:1054000051051CF457FD04C005C02FEF3FEF02C04B
:1054100020E030E0C9010895DF92EF92FF920F93F0
:105420001F93CF93DF93EC012A813B81241735072B
:1054300020F4FA01E21BF30B03C0F901E41BF50BA6
:105440008C819D81969587958E179F0788F5888119
:1054500099818617970720F4FB01E81BF90B03C01D
:10546000FC01E61BF70BEF2BF9F422C08A01021BAB
:10547000130B7B01E81AF90A06C07C01E61AF70A49
:105480008901041B150BC7010E94A42DD82E888505
:1054900099850E94A42DD8120BC01D830C83F98618
:1054A000E8861B870A8704C024173507F8F2E5CF82
:1054B000DF91CF911F910F91FF90EF90DF900895B2
:1054C0000F931F93CF93DF93EC018B019A01A88573
:1054D000B9850E949A3E2A853B8540E050E00E94B3
:1054E000FE3EC801A0E0B0E082179307A407B5070D
:1054F0001CF41F821E8204C0021B130B1F830E8329
:10550000DF91CF911F910F910895EF92FF920F932A
:105510001F93CF93DF93EC018B017A010E940C2A39
:10552000A701B801CE01DF91CF911F910F91FF909C
:10553000EF900C94602A90938C0380938B030895D2
:1055400080912503813029F420918B0330918C03C5
:1055500002C020E030E0C901089560918703709196
:105560008803809127030C942F0B20912A0321306C
:1055700041F041E020918B0330918C038217930717
:1055800008F040E0842F08952CE0829FC001112490
:10559000609127038D5C9C4F0C949D29609127039B
:1055A0008BE793E00C949D290F931F93CF93DF9388
:1055B00000D000D0CDB7DEB70E944226811126C0B0
:1055C0000E94A726811122C037C000916900109166
:1055D0006A00CE0101960E9482298017910740F44B
:1055E000CE0101960E94822990936A0080936900FF
:1055F0002091690030916A002F3F8FEF380709F43E
:1056000021C03093800320937F0320C080E00E945C
:1056100091089A83898382E10E94910829813A81C5
:10562000281B390B3A83298386E10E9491089C83C9
:105630008B83892BE9F2C9CF8FEF9FEF90936A009C
:105640008093690020917F0330918003C9010F90FE
:105650000F900F900F90DF91CF911F910F910895B0
:1056600090938603809385037093880360938703E8
:10567000CB0164E170E00E94C83E70938C0360939C
:105680008B03409326030895EF92FF920F931F938D
:10569000CF93DF9391E090932503FF24F3948F3011
:1056A00009F0F12C8093270368EC70E00E94DB0C7A
:1056B00090938A03809389030E94840920918B032D
:1056C00030918C0340918503509186030F2DBC01CE
:1056D00083E793E00E94C0290E945E0D8093280317
:1056E00080918503909186030E94A70FEC0110E042
:1056F0008CE0E82E12C0812F0E94970DBC012091F2
:105700008B0330918C03E19EC00111240F2DAE015B
:10571000855D9C4F0E94C0291F5F80912803181748
:1057200050F310922A0310922903DF91CF911F9119
:105730000F91FF90EF9008950F931F93CF93DF93F6
:10574000082FEB01809126038823C9F0409189033B
:1057500050918A0320918B0330918C0324173507D5
:1057600008F49A012C173D0710F4109272028091F0
:105770002A03813021F00E943C0F80932503809101
:105780002503813019F580912A03823041F411E01C
:1057900020918B0330918C03C217D30708F010E0DF
:1057A0000E94A02A8C179D0778F0111103C00111E7
:1057B00001C00AC090912903892F8F5F809329032C
:1057C00081E09A3020F402C01092290380E0DF913A
:1057D000CF911F910F9108950F931F93CF93DF9354
:1057E000EC010E948409AE01BC0183E793E00E94B2
:1057F000852A10E00CE00DC0812F0E94970DBC019E
:10580000019FC0011124AE01855D9C4F0E94852A35
:105810001F5F80912803181778F3DF91CF911F91B4
:105820000F910895CF92DF92EF92FF920F931F9303
:10583000CF93DF93609185037091860383E793E0B4
:105840000E94E629EC0180918503909186030E94D5
:10585000A70F7C01D12C9CE0C92E12C0CD9C8001E9
:105860001124055D1C4FB701C8010E94E629C81725
:10587000D90728F0B701C8010E94E629EC01D394AA
:1058800080912803D81650F3CE01DF91CF911F915C
:105890000F91FF90EF90DF90CF9008950F931F939B
:1058A000CF93DF938B0180938303909384032091A4
:1058B000870330918803EC012817390708F4E901C0
:1058C0000E94A02A9C018C179D0708F49E010217D4
:1058D000130719F180912A038230A9F420173107A8
:1058E00090F080918B0390918C0380179107A0F02A
:1058F000409181035091820380914F029091500218
:105900004817590749F080914F02909150029093A7
:1059100082038093810301C09801C901DF91CF9177
:105920001F910F9108950F931F93CF93DF93EC0175
:105930000E9484099093740380937303D093760339
:10594000C093750310E00CE00DC0812F0E94970DED
:10595000019FF0011124E55DFC4F91838083D38387
:10596000C2831F5F80912803181778F3DF91CF91CE
:105970001F910F9108951F93CF93DF93182FEB0181
:10598000CB010E94EC2BCE010E94932C0E94122C82
:105990009093240380932303BE010E944E2C9C010C
:1059A00080912A03811110C0112389F08091260370
:1059B000882321F00E94EA0D1092720281E0809308
:1059C0002A0320E030E003C082E080932A03C9016B
:1059D000DF91CF911F9108950F931F9300918D0335
:1059E00010918E0320918F0330919003B801C9016B
:1059F0001F910F91089512BE8CE78CBF88E083BF82
:105A000083B7836083BF89B7826089BF089580911F
:105A10008D0390918E03A0918F03B0919003019616
:105A2000A11DB11D80938D0390938E03A0938F03CE
:105A3000B093900308950E94072D0E9400380E94A1
:105A4000A62E0E94EB0480916B00815019F0809388
:105A50006B00089581EE80936B000E9410270E94D6
:105A600057090C94B3221F920F920FB60F92112474
:105A70002F933F934F935F936F937F938F939F9356
:105A8000AF93BF93EF93FF930E941B2DFF91EF9174
:105A9000BF91AF919F918F917F916F915F914F9146
:105AA0003F912F910F900FBE0F901F9018950F935D
:105AB0001F938FB7F89400918D0310918E0320915E
:105AC0008F03309190038FBF3695279517950795D3
:105AD000B801C9011F910F910895CF92DF92EF9203
