:100000000C94B0040C94D8040C94D8040C94D80428
:100010000C94D8040C94D8040C94D8040C94D804F0
:100020000C94D8040C94CB050C94D62C0C94953CD1
:100030000C94D8040C94523A0C94903A0C94D80432
:100040000C94D8040C94D8040C94D8040C94D804C0
:100050000C94D804742361236323652367236923E5
:100060006B236F2372238223762378237A237E23C4
:1000700080237C23842300000000C0CBE75D0000C8
:100080000000F567E630C9023200562AE803C008CE
:100090003200C02B2C010000000000000000000016
:1000A000000000000000000000008DBBD636C24CEE
:1000B000A40B0C4970170000000043BFA80E0000FD
:1000C000000080C1E70E00000000C0C5DC1D00007C
:1000D00000003FC2ED0E0000000080D65E10000060
:1000E0000000ADD461100000000080D76310D00282
:1000F0003200582AE803FA0032005A052C010006A3
:10010000080001FF010100000106090001FF0302D0
:10011000010002060A0001FF0000000006060E00B2
:1001200000FF0302010005060D0000FF02030000AE
:1001300004060C0000FF0302010003060B0000FF91
:10014000040600000706070000FF03020100240E5A
:100150001F0E6A0F436865616C6943686172676569
:1001600072007665723A20302E33326D00710100D4
:10017000006F7074696F6E7300010001000100016F
:100180000001000A006400010002000400100040A9
:10019000000001000401000300080007000700142C
:1001A000000700496E660079657300206E6F006D70
:1001B0005600AC02B402B902BE02C202C702CC02AF
:1001C000D102D6020100010001000100000001007F
:1001D000B0041C075203000008071405B0044006D1
:1001E000E803000008071405D0079209D6060000AE
:1001F00000006C07E40C100ED007E40C0000B80BF4
:10020000100E0410C409A60E0000AC0D740E681088
:10021000B80B0A0F0000890C740EFE10B80B0A0F01
:100220000000ED0C40066C07140540060000DC05DC
:1002300000980898086C0710275802019808980839
:100240006C070100E00102980898086C070100E0C3
:1002500001039808DC006C070600E0010498089888
:10026000086C070300780005980898086C070300DD
:10027000780006980898086C07030078000798082B
:1002800098086C070300780008980898086C070322
:10029000007800756E6C696D69746564006D696ED7
:1002A0002E00756E6C696D6974656400556E6B6EB9
:1002B0006F776E004E694364004E694D480050628E
:1002C0003F004C696665004C696C6F004C69706F4B
:1002D000004C69696F004E695A6E00FE0205030A00
:1002E000030F03140319031F032D03000045646962
:1002F00074206E616D653A004E616D653A00426131
:10030000743A202000563A20200043683A200049E1
:10031000633A200049643A2000546C696D3A002029
:1003200020637265617465206E616D650020202018
:1003300065646974206E616D650043684342536271
:10034000426C446946435374534243684469437959
:1003500043594368446945420020202D2D20200048
:100360006E2E612E004C696D6974733A20007469B9
:100370006D653A20202020200062200020200062AD
:100380006174742E20523D00776972657320523D6E
:100390000056696E7075743D00206C696D69743D1E
:1003A00000566F7574203D005662616C2E3D0054FE
:1003B0006578743D002D0070726F6772616D206307
:1003C0006F6D706C6574650054696D653A200072DC
:1003D0006561736F6E3A20004572726F72006E6FC6
:1003E000742075736564006D6178566F75743D0097
:1003F00064656C746120563D2000200020002020A0
:1004000000202D2D3A2D2D002500546578743D00D7
:100410006E6F7420757365640064656C746120543C
:100420003D20004E2F4100706C6561736520636153
:100430006C696272617465006265666F72652075D1
:100440007365005245564552534520504F4C41521A
:1004500049545900202020205741524E494E470010
:1004600042616C616E636572206E6F742E636F6E95
:10047000002020686F6C6420627574746F6E0020B9
:10048000746F2053746172742F73746F70004361C2
:100490006C6962726174696F6E004552524F52000E
:1004A000252000BF23B323C32356206C696D6974D4
:1004B000002D64560064542F6474008824912454E1
:1004C00024B924C02415257A2548254E25AB25B905
:1004D00025C2250106070D05000210060708090BB5
:1004E0000C0D040503000210060708090B0C0D048F
:1004F00005030002100A0E0F0B0C0D04051103007A
:100500000210060708090B0C0D0405030002100F6A
:100510000B0C0D04050311000607040D0500000077
:1005200001020304050E00010203040506070E087C
:10053000090A0B0E0C0D0E6F057605850594059CBA
:1005400005A605B205BA05C90500006F059C05D6CC
:1005500005E005C90500006F057605850594059C35
:1005600005A605C90500006F059C05C905000063C7
:100570006861726765006368617267652B62616CB0
:10058000616E63650073757065726368617267653B
:100590002B622E0062616C616E6365006469736337
:1005A0006861726765006661737420636861726771
:1005B000650073746F726167650073746F72616751
:1005C000652B62616C616E630065646974206261B1
:1005D000747465727900633E64206379636C6500AE
:1005E000643E63206379636C6500626174206469B2
:1005F000736300696E7075742056006361702043E8
:100600004F464600542E206C696D697400657874FD
:100610002054434F4600436F6E6E65637420426101
:10062000747421008C0695069E06000008090A08CD
:10063000090AA706AD06B306B906BF06C506CB066E
:10064000D106D7060000061E1F2021222312000615
:10065000090A0B0C0D0E76616C75653A2000496F26
:1006600075743A202000DD06E2060000DD06E9068A
:100670000000EF06F6060000FD06060700000F0763
:1006800014071D07290732073E0700005662307025
:10069000696E3A200056623170696E3A20005662E7
:1006A0003270696E3A200056696E3A200056623107
:1006B0003A20005662323A20005662333A20005601
:1006C00062343A20005662353A20005662363A20AB
:1006D0000056312D363A00566F75743A0035306D3C
:1006E0004100313030306D41003330306D410074A5
:1006F000656D703A200076616C75653A00706F69BF
:100700006E7420312E00706F696E7420322E007668
:100710006F6C7400492063686172676500492064EA
:1007200069736368617267650074656D70206578D0
:10073000740063616C69622D3E55415254006578C6
:10074000706572742044414E474552210055075E42
:10075000076807000073657474696E6773006361EE
:100760006C6962726174650072657365742064659A
:100770006661756C740080250000004B00000096D7
:10078000000000E1000000C20100000070176400DA
:1007900007000C0005001E007800581B0000080030
:1007A00000000300D007DC07E707EE07F8070208A0
:1007B0000E081A0824082F0838084208490851086A
:1007C0000000432F6D005A0863086A087008790812
:1007D000657874726E20543A202020006578747217
:1007E0006E2054434F3A0064542F64743A004E69AB
:1007F0004D48202D64563A004E694364202D6456BE
:100800003A00432F44206379636C65733A00776143
:1008100073746520542E3A20200063617020434F8A
:1008200066663A00696E707574206C6F773A006482
:1008300069736368202B3A0062616C2E20657272C6
:100840003A00554152543A200073706565643A206D
:100850000020202072657365740064697361626CA6
:100860006564006E6F726D616C006465627567002F
:100870006578742E20646562006578742E2041646A
:10088000630013161817190705061E1F20212223BF
:100890007265736574696E6720656570726F6D3A15
:1008A00000763A20312E312E31200063006400732F
:1008B0000000000000000000000000000000040331
:1008C0000005000000000000000000000000000023
:1008D00000000000000000000000000100000020F7
:1008E0004080000000000001020408102040800049
:1008F0000001020408102040800000008040201009
:1009000008040201000001020408100002020200B3
:1009100000000000040404040404040400000303B1
:1009200003030303030300000001010101010101AE
:10093000010000020202020200003900360033000A
:10094000300000003B0038003500320000003A0063
:10095000370034003100B805DC108723F928823BCA
:1009600011241FBECFE5D8E0DEBFCDBF10E0A0E66A
:10097000B0E0E6E7FDE702C005900D92AA3FB1079F
:10098000D9F714E0AAEFB0E001C01D92AE3EB10766
:10099000E1F719E0C0E6D9E004C02297FE010E9409
:1009A000403EC635D107C9F70E943E3C0C94B93E83
:1009B0000C940000CF9388E20E94893DC1E0892B0E
:1009C00009F0C0E089E20E94893D892B11F080E0A6
:1009D00001C082E0C82B8AE20E94893D892B11F078
:1009E00080E001C084E0C82B8BE20E94893D892B06
:1009F00011F080E001C088E08C2BCF910895CF9357
:100A0000C82F682F89E10E941A3D6C2F8AE10E944D
:100A10001A3D6C2F80E20E941A3D6C2F89E00E94E3
:100A20001A3D6C2F8BE00E941A3D6C2F80E1CF9114
:100A30000C941A3DCF93DF93EC0111C061E08CE27E
:100A40000E94523D8CE890E00E94DF3C60E08CE226
:100A50000E94523D88E290E00E94DF3C219720975F
:100A600069F7DF91CF910895089580910F01882350
:100A700031F0809110018F5F8093100102C01092BD
:100A8000100180910F018A3010F480E001C088E0ED
:100A900090910F01943108F084E090910F019E3104
:100AA00008F082E06091100168238CE20C94523DC2
:100AB00080930F01089561E068278CE00C94523D0B
:100AC00080E00E94923C61E08CE00E941A3D61E06F
:100AD0008EE00E941A3D61E08EE10E941A3D61E0C5
:100AE0008CE20E941A3D61E08DE00E941A3D61E0B7
:100AF0008EE00E941A3D61E08FE00E941A3D80E086
:100B00000E945B0510920F0120E042E060E18AEF55
:100B100090E00E94DD170E949E2C0E94C6260E9433
:100B20002B270E943B060E9407080C94710DCF935F
:100B3000C82F682F617089E10E94523D6C2F62704E
:100B40008AE10E94523D6C2F647080E20E94523D07
:100B50006C2F687089E00E94523D6C2F60718BE0B1
:100B60000E94523D6C2F607280E1CF910C94523DF7
:100B7000CF92EF920F9383E1C82E94E1E92E05E125
:100B800026E147E168E18AEF90E00E9491180F9119
:100B9000EF90CF9008951F920F920FB60F921124ED
:100BA0002F933F934F935F936F937F938F939F9375
:100BB000AF93BF93EF93FF932091140130911501F0
:100BC0008091120190911301820F931F9093130152
:100BD00080931201809112019091130126E0969565
:100BE00087952A95E1F72091120130911301AC010C
:100BF00066E0440F551F6A95E1F7241B350B3093CF
:100C00001301209312012FB7F894309111013E3057
:100C100011F49BBD8ABD309111013D3021F02FBFF1
:100C20000E94350503C099BD88BDF9CFFF91EF91B2
:100C3000BF91AF919F918F917F916F915F914F91F4
:100C40003F912F910F900FBE0F901F9018959FB757
:100C5000F8947093150160931401809311018E3004
:100C600019F48FB5806804C08D3019F48FB5806297
:100C70008FBD9FBF08951FBC80E18EBD2FB7F89434
:100C800080E091E097BD86BD2FBF8EB5887F8EBD79
:100C90008EB581608EBD89B7846089BF08958E301E
:100CA00019F48FB58F7704C08D3019F48FB58F7D0F
:100CB0008FBD08954091170150911801609119015D
:100CC00070911A01452F562F672F772767FD7A9568
:100CD000CA01089510921E0110921D0186179707F0
:100CE00068F480E090E4A0E0B0E080931701909376
:100CF0001801A0931901B0931A0108C010921701AE
:100D0000109218011092190110921A018091170186
:100D100090911801A0911901B0911A01BA2FA92F31
:100D2000982F88278093170190931801A093190199
:100D3000B0931A0181E0809316010895CF93DF9359
:100D4000EC01C13080E6D80770F4C13080E4D807E8
:100D500060F48EE00E944F0660E08EE00E94523DFB
:100D6000BE018DE00CC0C0E0D0E68DE00E944F06D1
:100D700061E08DE00E94523DBE0170548EE0DF9133
:100D8000CF910C94270690931E0180931D016CEB6C
:100D900076E680E00E94130D90931C0180931B0166
:100DA0000895CF93C82F882319F080E00E94DE06B3
:100DB00061E06C278EE1CF910C94523DCF93DF938D
:100DC000C82F882319F080E00E94D1068DE00E9490
:100DD0004F0660E08DE00E94523D8EE00E944F067B
:100DE00060E08EE00E94523D1092160161E06C2797
:100DF0008FE00E94523DCC2361F080E00E94D30836
:100E0000EC0186E00E94D308BE01DF91CF910C94E3
:100E10006A06DF91CF9108950F931F938091160179
:100E2000882309F474C080E00E94DC0820911B0133
:100E300030911C012817390730F480E00E94DE064B
:100E40001092160164C082E00E94DC0840911D01EE
:100E500050911E0160E070E000911701109118019F
:100E60002091190130911A01481B590B6109710930
:100E7000E4E0440F551F661F771FEA95D1F7040F72
:100E8000151F261F371F0093170110931801209379
:100E9000190130931A018091170190911801A091C6
:100EA0001901B0911A01B7FF08C0109217011092F2
:100EB00018011092190110921A0180911701909156
:100EC0001801A0911901B0911A010197A046B1052E
:100ED00060F080E090E0A0E6B0E08093170190938E
:100EE0001801A0931901B0931A01809117019091F4
:100EF0001801A0911901B0911A01892F9A2FAB2FD7
:100F0000BB27A7FDBA951F910F910C949E061F91C8
:100F10000F910895BC018EE00C94270687708062C3
:100F200087B90895CF93DF9390916000891721F1DD
:100F300080936000C8B390E2899F90011124CF7123
:100F4000C22B98B3EDEFF8E0E4912AB3DE2FD095F1
:100F5000D2232AB38150823050F0892F8F71806C58
:100F600088BBE22BEABB8AE090E00E94DF3C8FB7AF
:100F7000F894C8BBDABB8FBFDF91CF91089595E09D
:100F8000899FF0011124EE5FFE4FE49181E0E111B1
:100F900001C080E0089595E0899FF0011124EF5F82
:100FA000FE4FE49181E0E11101C080E0089524B199
:100FB00035B195E0899FF0011124E050FF4FE49195
:100FC000F0E0EE0FFF1FE853FE4F932F80E0822BDF
:100FD00091838083089510921F01EFEFF0E08491D8
:100FE0000E948E07EEEFF0E084910C949207369AFF
:100FF00008950E948A269093E7018093E6010E945B
:10100000E0269093E9018093E8010C94DF0C60E006
:101010008FE10E94523D60E08FE10E941A3D61E045
:1010200081E00E941A3D61E082E00E941A3D61E089
:1010300083E00E941A3D87E886B90C94EB07CF93B2
:10104000DF93D0911F018D2F0E94BF07882321F0CD
:10105000C0915002C17001C0C0E085E0D89FF0018E
:101060001124E250FF4F8491C11109C02091A803BF
:101070003091A903232B21F0873011F4C1E085E0E2
:101080000E949207E0911F01EF5F85E0E89FF00169
:101090001124E150FF4F84910E948E078CE390E071
:1010A0000E94DF3C0E94F7073699FECFD0911F01C6
:1010B0008D2F8F5F0E94D70785E0D89FF001112404
:1010C000E150FF4F84910E948E078CE390E00E94D4
:1010D000DF3C0E94F7073699FECFC11104C0809112
:1010E0001F010E94D70780911F018F5F0E94CB07CD
:1010F00081110E940C0780911F018E5F803118F4CE
:1011000080931F0102C010921F010E94E5088823EE
:1011100041F080911F01811104C0DF91CF910C94A7
:10112000F907DF91CF9108950C94EB07CF93DF93EC
:101130000E94D30AC0913601D091370102C00E94AB
:101140001F088091360190913701C817D907B9F36C
:10115000DF91CF910895CF92DF92EF92FF92CF93DC
:10116000DF93EC010E94FA2C6B017C01CC0EDD1E9A
:10117000E11CF11C0E941F080E94FA2C6C157D05D1
:101180008E059F05B8F3DF91CF91FF90EF90DF9030
:10119000CF900895E82FF0E0EE0FFF1FE651FE4FCD
:1011A000808191810895E82FF0E0EE0FFF1FE05855
:1011B000FE4F808191810895E82FF0E0EE0FFF1F30
:1011C000E853FE4F808191810895809152020895E5
:1011D00080913601909137010895E82FF0E0EE0FED
:1011E000FF1FE85CFE4F808191810895613110F40A
:1011F000423040F021E030E0FC0133832283318330
:1012000020830895242F30E0260F311D260F311D35
:10121000220F331F220F331F2E5F3F4F44E050E059
:10122000B9010C94743E282FCA01213188F4623030
:1012300078F470E0620F711D620F711D660F771FE9
:10124000660F771F6E5F7F4F44E050E00C94923E34
:101250000895FF920F931F93CF93DF9300D000D098
:10126000CDB7DEB7F12C88E0F89E80011124F8019B
:10127000EA58FF4F459155916591749149835A837E
:101280006B837C83AE014F5F5F4F60E08F2D0E94C8
:101290001309F801E658FF4F4591559165917491F6
:1012A00049835A836B837C83AE014F5F5F4F61E05C
:1012B0008F2D0E941309F39481E1F812D4CF0F907F
:1012C0000F900F900F90DF91CF911F910F91FF9092
:1012D0000895E82FF0E0EE0FFF1FE058FE4F208149
:1012E0003181E82FE250E83170F4F0E0E658FF4F2A
:1012F0008081882319F0813061F405C081E02333B7
:10130000310540F404C081E0293E334018F480E008
:10131000089581E00895CF93C0E08C2F825E0E94F3
:101320006909882319F0CF5FC630B9F78C2FCF91A8
:1013300008952091AC013091AD01809120019091F0
:101340002101A0912201B0912301820F931FA11DC1
:10135000B11D8093200190932101A0932201B093AD
:101360002301089560912001709121018091220153
:10137000909123012DE730E040E050E00E94003ED4
:101380007727652F542F432FCA010895E6EAF1E02D
:1013900080819181089580915E0190915F01039712
:1013A00050F08091640190916501039720F083E0F3
:1013B00090E00C949C0E80E0089590E0880F991FB7
:1013C000FC01E058FE4F208131816217730718F449
:1013D000261B370B04C0AB01421B530B9A01FC01C7
:1013E000E85CFE4F2730310518F01182108206C0EC
:1013F000208131812F5F3F4F31832083FC01E058F2
:10140000FE4F718360830895CF92DF92EF92FF9237
:101410000F931F93CF93DF93C0918001D0918101EF
:10142000609190017091910180919201909193014E
:101430006817790728F49C01261B370BB90102C0F5
:10144000681B790B8EE10E94DD0960919201709119
:10145000930180919401909195016817790728F480
:101460009C01261B370BB90102C0681B790B8FE169
:101470000E94DD09609196017091970180E20E94BF
:10148000DD09609198017091990181E20E94DD0966
:1014900060919A0170919B0182E20E94DD09609146
:1014A0009C0170919D0183E20E94DD090E948B09DD
:1014B000F82E80E000E010E00CC0E82FE25EF0E0E3
:1014C000EE0FFF1FE058FE4F20813181020F131FE6
:1014D0008F5F8F11F2CFB80182E10E94DD09011503
:1014E000110549F00C171D0748F49E01201B310B14
:1014F000293E334018F010E0F12C02C0E80112E15F
:10150000BE0183E10E94DD096F2D70E085E10E943C
:10151000DD09612F70E084E10E94DD090E94B209BB
:101520008C010E94D126882329F0E0908601F0905A
:1015300087010BC00E947B26882329F0E09084015C
:10154000F090850102C0E12CF12CB70186E10E94E8
:10155000DD09B80188E10E94DD099701DE010E94E2
:10156000B23D30E1C32E37E2D32EE12CF12CA7019E
:1015700096010E94003EB90187E10E94DD099801B1
:10158000DE010E94B23DA70196010E94003EB90112
:1015900089E1DF91CF911F910F91FF90EF90DF9044
:1015A000CF900C94DD09109251021092500280E00D
:1015B00094E0899FF0011124E45FFD4F10821182B5
:1015C000128213828F5F813199F70895109233014F
:1015D0001092320110922E0110922F0110923001C0
:1015E0001092310110922A0110922B0110922C01BD
:1015F00010922D01109235011092340110922901A0
:10160000109228010E94FA2C609324017093250106
:101610008093260190932701089580E0E82FF0E061
:10162000EE0FFF1FE85CFE4F118210828F5F843245
:10163000A9F708950E94D30A0C940D0B109237015C
:101640001092360110922001109221011092220175
:10165000109223010E9494080E941A0B0E94E60A2D
:1016600080E0E82FF0E0EE0FFF1FE058FE4F118200
:1016700010828F5F8432A9F7089580915202811100
:101680000AC081E00E945B050E941E0B81E08093EE
:1016900052020C94960808951092520280E00C9425
:1016A0005B052091CA013091CB018091C8019091D6
:1016B000C9018217930718F4281B390B02C020E0D8
:1016C00030E081E0293E334008F480E008958F92B5
:1016D0009F92AF92BF92CF92DF92EF92FF92CF9301
:1016E000DF93CDB7DEB728970FB6F894DEBF0FBEF5
:1016F000CDBFF82E5B0140E0682FCE0105960E9419
:10170000F60841E06F2DCE0101960E94F6082B816C
:101710003C8140E050E0CF80D884E12CF12C2C19A2
:101720003D094E095F09B50180E090E08D809E8003
:10173000A12CB12C681979098A099B090E94D03D16
:1017400029813A8140E050E0281939094A095B09AA
:101750000E94223E2C0D3D1D4E1D5F1D57FF03C0F4
:1017600020E030E0A901C90128960FB6F894DEBF49
:101770000FBECDBFDF91CF91FF90EF90DF90CF9064
:10178000BF90AF909F908F9008951F93CF93DF935A
:1017900080913601909137010196909337018093A3
:1017A000360110E0C12FD0E0FE01EE0FFF1FEE0F5B
:1017B000FF1FE45FFD4F209150023091510240E045
:1017C00050E060817181828193810E94003ECC0F44
:1017D000DD1FC651DE4F39832883B901812F0E9456
:1017E000670BBC01812F0E94DD091F5F1131D1F60B
:1017F0000E94040A0E941339DF91CF911F910C942B
:10180000D30A0F931F93CF93DF93C1E02091A801D8
:101810003091A90180912E0190912F01A09130016A
:10182000B09131012231310531F0C0E02091C80181
:101830003091C90104C02091A6013091A701820F07
:10184000931FA11DB11D80932E0190932F01A09392
:101850003001B09331012091D6013091D7018091B0
:101860002A0190912B01A0912C01B0912D01820FA2
:10187000931FA11DB11D80932A0190932B01A0936A
:101880002C01B0932D01809132019091330101968A
:1018900090933301809332010E94FA2C009124012D
:1018A000109125012091260130912701601B710BB9
:1018B000820B930B61367A4E8105910508F47AC04C
:1018C0008091340190913501019690933501809378
:1018D0003401209132013091330140E050E06091B9
:1018E0002E0170912F0180913001909131010E9461
:1018F000003E10922E0110922F0110923001109292
:101900003101C11106C0B90180E00E94670B8C0152
:1019100001C08901C091B601D091B7010C171D0714
:1019200020F0B8018BE10E94DD09B8016C1B7D0B32
:101930008AE10E94DD09209132013091330140E0BB
:1019400050E060912A0170912B0180912C019091BF
:101950002D010E94003E10922A0110922B0110923C
:101960002C0110922D01B90187E00E94670B209194
:101970002801309129019093290180932801BC010D
:10198000621B730B8CE10E94DD0960913201709142
:1019900033018DE10E94DD09109233011092320172
:1019A0000E94FA2C609324017093250180932601F4
:1019B00090932701DF91CF911F910F91089540E0FF
:1019C000A42FB0E0FD01EE0FFF1FEE0FFF1FE45F3D
:1019D000FD4FAA0FBB1FA853BE4F2D913C91808194
:1019E0009181A281B381820F931FA11DB11D8083BC
:1019F0009183A283B3834F5F413111F780915002ED
:101A000090915102019690935102809350020E944E
:101A1000010C80915002909151028436910511F48D
:101A20000C94C50B08958F929F92AF92BF92CF9264
:101A3000DF92EF92FF92CF93DF93CDB7DEB7289777
:101A40000FB6F894DEBF0FBECDBFF82E5B0140E0AD
:101A5000682FCE0105960E94F60841E06F2DCE0159
:101A600001960E94F60829813A8140E050E0CD803D
:101A7000DE80E12CF12C2C193D094E095F09B501DE
:101A800080E090E08F809884A12CB12C68197909AE
:101A90008A099B090E94D03D2B813C8140E050E0A7
:101AA000281939094A095B090E94223E2C0D3D1D67
:101AB0004E1D5F1D57FF03C020E030E0A901C901A2
:101AC00028960FB6F894DEBF0FBECDBFDF91CF9141
:101AD000FF90EF90DF90CF90BF90AF909F908F904E
:101AE00008950C941E0B462FE82FF0E0EE0FFF1F19
:101AF000E058FE4F208131818250883130F4E82F48
:101B0000F0E0E658FF4F608101C061E0C9010C942C
:101B10005716825E0C94D3088091790208958091C3
:101B20007702811112C00E94E508882381F00E948B
:101B3000E8082091530230915402821B930B9C01C0
:101B400081E02530310520F002C081E0089580E079
:101B500008950F931F93CF93DF9310E0CFEFDFEF44
:101B600000E009C0812F0E94890D8C179D0710F499
:101B7000EC01012F1F5F80917902181798F3802FD5
:101B8000DF91CF911F910F910895CF93DF939091A3
:101B90007702911104C0DF91CF910C94890D90913F
:101BA0005D02C82FD0E0992391F00E94890DCC0FDF
:101BB000DD1FFE01E25AFD4FC659DD4F2081318104
:101BC00048815981241B350B280F391F07C0FE019E
:101BD000EE0FFF1FE25AFD4F20813181C901DF91D5
:101BE000CF910895CF93C82F80917702882341F039
:101BF000C11106C00E94E8089093540280935302DA
:101C0000C09377020E94FA2C60935502709356029B
:101C100080935702909358020E940D0B8091760298
:101C2000811104C08C2FCF910C949705CF9108950A
:101C300080E00E94F20D81E08093760208950E9478
:101C4000180E80E00C94FF04EF92FF920F931F9305
:101C5000CF93DF9381E00E94FF0485E10E94D308C7
:101C6000809379020AE612E03EE5E32E32E0F32E9D
:101C7000C0E0D0E00CC08C2F0E94890DF801819348
:101C800091938F01F701819391937F012196809128
:101C9000790290E0C817D90774F310927702109276
:101CA000760280E00E94F20D1092540210925302CC
:101CB000109255021092560210925702109258023A
:101CC000DF91CF911F910F91FF90EF900895FF92B8
:101CD0000F931F93CF93DF93809178020E94C50DDD
:101CE000EC01F12C01E010E01CC08F2D0E94C50D0D
:101CF000AC0180917702802321F0C417D50778F4D6
:101D00000DC02091A6033091A7032F5F3F4F36955A
:101D100027952C0F3D1F2417350708F4102B000FB3
:101D2000F39480917902F81600F3812FDF91CF911F
:101D30001F910F91FF9008951F93CF93DF93EC01B4
:101D400010E008C0812F825E0E94ED088C179D076D
:101D500038F01F5F809179021817A0F381E001C06D
:101D600080E0DF91CF911F910895BF92CF92DF92D3
:101D7000EF92FF920F931F93CF93DF938AE090E04F
:101D80000E949C0E882309F461C00E94A90D8093D3
:101D900078020E94890D8C0162E088E892E00E943E
:101DA0006C1A0817190750F17EE5E72E72E0F72E3E
:101DB000EAE6CE2EE2E0DE2EC0E0D0E0BB24B39413
:101DC00016C08C2F0E94890DF701819391937F019A
:101DD000F601819391936F01801B910B2091A603D3
:101DE0003091A7032817390708F4B12C2196809168
:101DF000790290E0C817D90724F302C0BB24B3943A
:101E000010925D020E94FA2C6093590270935A025C
:101E100080935B0290935C02BB2059F0DF91CF91DD
:101E20001F910F91FF90EF90DF90CF90BF900C9497
:101E3000180E0E94670EDF91CF911F910F91FF90B6
:101E4000EF90DF90CF90BF900C94F20DDF91CF9187
:101E50001F910F91FF90EF90DF90CF90BF9008956A
:101E6000CF9380915D02811119C081E080935D0262
:101E7000809178020E94890DC0E00CC08C2F0E94D6
:101E8000890DEC2FF0E0EE0FFF1FE659FD4F918317
:101E90008083CF5F80917902C81780F3CF91089536
:101EA0000F931F930E94FA2C0091590210915A022D
:101EB00020915B0230915C02601B710B820B930BD3
:101EC00028EE33E040E050E00E94003EC9011F913F
:101ED0000F91089583E090E00E949C0E8823C9F042
:101EE00080917702811103C00E94B50E12C00E943A
:101EF000300F0E94670E90E08095909520917702B8
:101F000030E082239323892B81F40E94500F4F9756
:101F100060F40E948F0D882311F082E00895809173
:101F200076028823D1F381E0089580E00E94F20DCB
:101F3000F0CF1F93CF93DF93EC0110E00FC0812F00
:101F40000E94890D8C179D0710F081E00CC0812F35
:101F50000E94C50D8C179D07C0F71F5F8091790205
:101F6000181768F380E0DF91CF911F9108951F93B8
:101F7000CF93DF93EC0110E00FC0812F0E94890DF9
:101F8000C817D90710F081E00CC0812F0E94C50D41
:101F9000C817D907C0F71F5F80917902181768F337
:101FA00080E0DF91CF911F910895609179026623BF
:101FB00021F070E00E94EC3D02C060E070E0CB01D7
:101FC00008950E94A9120E94FA200E9459360E9488
:101FD000222E88E00C946F360E94A9120E940821DC
:101FE00086E00E946F360E94222E88E00C946F36A5
:101FF000E0917A02F0917B0285919491FC01099421
:10200000E0917A02F0917B02329685919491FC01E5
:102010000994E0917A02F0917B0234968591949133
:10202000FC010994CF93DF931F92CDB7DEB78111E6
:1020300007C00E94CB1F0E9400100E94EC0F0FC02F
:10204000813059F469830E94CB1F0E94001069817E
:10205000611105C00E94E10F02C081E001C080E073
:102060000F90DF91CF910895BF92CF92DF92EF92C0
:10207000FF920F931F93CF93DF938C01C62E0E9484
:10208000F80F0E94AD1F0E94472E0E94A912F12C4A
:1020900082E0D82EC0E0D0E0EE24E3940E944536E2
:1020A000811106C0F801EF0DF11D84910E945223A9
:1020B0000E94EA11B82E84E0B81209C0EF2DF0E0BA
:1020C0003196E00FF11FE491E11123C005C082E0D9
:1020D000B81202C0F110FA94EE2081F00E94512E45
:1020E000D82E6C2D0E941210E82E882339F00E9401
:1020F000E808C817D90779F4E11003C0C11016C069
:10210000E12C81E0B812CACF0E94CB1F0E940010C0
:102110000DC0F394E1CF0E94E808EC010E94091081
:10212000D82E6C2D0E941210E82EE6CF8D2DDF9157
:10213000CF911F910F91FF90EF90DF90CF90BF90C4
:102140000895FC0124812052621710F40C94B718F2
:10215000862F90E0821B91090E94481B6EE00C9430
:10216000E71360E08CE792E00E94B31987FD0AC094
:10217000811102C00C949C33992787FD909501979B
:102180000C94BB2808950E94600584EF91E00E94A2
:10219000AB080E9461370E94E8330E944E1262E64B
:1021A00071E084E591E00E94DD2088EE93E00E94DA
:1021B000AB0880E00C94F23B6DE671E08CE792E0B6
:1021C0000E94C51886E990E090937D0280937C027E
:1021D000E0E8F2E08081805E80830895CF93DF9312
:1021E000EC010E94A1128B819C810E94E4130E9449
:1021F000A5126A8188819981DF91CF910C94801317
:10220000FC0187818F3118F48F5F87830895868161
:102210008F5F86830895FC018781882319F08150A0
:102220008783089586818150868308951F93CF9375
:10223000DF93FC01C681D0E06D2F80E00E949B12ED
:102240001C2F105F8C2FCF5F0E943E148C2FC11368
:10225000FACFDF5FD23081F7DF91CF911F910895E0
:102260001F93CF93DF93EC018AEF90E00E949217C7
:102270001FEF8E81181721F0CE010E9416111E81CA
:102280008F81682F70E094E0759567959A95E1F7D6
:102290008F700E949B120E94EA11823049F08430B4
:1022A00019F0813049F413C0CE010E940011E1CF32
:1022B000CE010E940B11DDCF8830D9F68D81E881E7
:1022C000F981E80FF11D8F819E81890F8083DF9155
:1022D000CF911F910895FC01718360834283348301
:1022E0002383158280E2868317820895CF93DF933C
:1022F000EC018AEF90E00E9492170E94A912CE0191
:102300000E94EE1061E08D810E949B120E94EA11F2
:102310008230B1F0843041F08130C1F48AEF90E036
:102320000E949A1780E026C04D81242F30E08A81D8
:1023300090E00197281739072CF74F5F4D83E2CFC4
:102340008D818823F9F281508D83DCCF8830D1F6DE
:1023500082E00E943D12823048F083E00E946F3696
:102360008AEF90E00E949A1781E004C0CE010E949B
:102370003011C3CFDF91CF9108950C94DA04E0912E
:102380008602F0E0EE0FFF1FE758FE4F25913491D3
:10239000C9010895CF93DF93D82F0E94DA0407C0B4
:1023A00082E390E00E94AB080E94DA04DC2FC82F81
:1023B0008D13F6CF109286021092850280938702C9
:1023C000882319F080E00E947B3680918702DF919C
:1023D000CF910895FF920F931F93CF93DF93C0E0A7
:1023E000D0E0F12C0AEF10E015C00E94DA04F82EBC
:1023F00081E090E00E94AB0880918702F81202C051
:10240000219608C08F2DDF91CF911F910F91FF90E2
:102410000C94CA1140918602242F30E0220F331F02
:10242000F901E957FE4F65917491C8010E94EC3D96
:102430006F5F7F4FC617D707C0F2FF20B1F05091F2
:1024400085025F5F50938502F901EB56FE4F85913F
:102450009491252F30E02817390738F0463018F4CA
:102460004F5F409386021092850280918702DF9130
:10247000CF911F910F91FF900895CF93DF93D82FA5
:10248000C09187020E94EA11909186029D1711F077
:102490008C17C1F3892FDF91CF910895FF920F938D
:1024A0001F93CF93DF93CDB7DEB728970FB6F8947D
:1024B000DEBF0FBECDBF8EE0F82EF9821FE11A837A
:1024C00001E10B830C830D830E830F831887AE010C
:1024D0004F5F5F4F60E08AEF90E00E945817F982EB
:1024E0001A830B830C831D831E831F831887AE0101
:1024F0004F5F5F4F61E08AEF90E00E945817F982CA
:102500001A831B831C831D831E831F831887AE01C0
:102510004F5F5F4F62E08AEF90E00E945817289665
:102520000FB6F894DEBF0FBECDBFDF91CF911F91E4
:102530000F91FF900895462F682F8AEF90E00C943A
:10254000A91760E080E00C949B1261E080E00C949D
:102550009B128AEF90E00C94D617CF93DF93FC0187
:10256000DB018C91882389F0C081D18148838081EF
:1025700091810196918380838C9181508C938823E3
:1025800021F00190F081E02D1082DF91CF9108952C
:10259000BF92CF92DF92EF92FF920F931F93CF9350
:1025A000DF93EC018B017A014115510501F1CA015C
:1025B0000E944D3EF8019081B82E981708F4B92E6C
:1025C000CB2CD12CA601B701888199810E94563E5F
:1025D000288139812C0D3D1D39832883F8018081A4
:1025E0008B198083882319F0E881F9811082DF91AB
:1025F000CF911F910F91FF90EF90DF90CF90BF9000
:102600000895EF92FF921F93CF93DF9300D000D0F5
:10261000CDB7DEB77C01CA014B835C8369837A83C3
:102620000E94762D182F69817A81DB018C914B8174
:102630005C81811768F44FE3C7010F900F900F90F2
:102640000F90DF91CF911F91FF90EF900C94AD12FE
:10265000F70120813181210F311D31832083DB017E
:102660008C91811B8C93882321F00190F081E02DC7
:102670001082F9012AE030E00CC0CA01B9010E94C1
:10268000EC3D405DBAE06B9F40191124429311501C
:10269000AB011111F2CF0F900F900F900F90DF91BF
:1026A000CF911F91FF90EF9008950F931F93CF93B9
:1026B000DF93CDB7DEB72B970FB6F894DEBF0FBE12
:1026C000CDBF8E010F5F1F4F1A87098727E02B8729
:1026D000AC01BE01655F7F4FCE0109960E940113D8
:1026E000B8018AEF90E00E94893C2B960FB6F894CF
:1026F000DEBF0FBECDBFDF91CF911F910F91089527
:102700001F93CF93DF93CDB7DEB761970FB6F894E1
:10271000DEBF0FBECDBF0097D1F0162F613108F09C
:1027200010E1412F50E0BC01CE0101960E94653EB0
:10273000E1E0F0E0EC0FFD1FE10FF11D1082BE01A2
:102740006F5F7F4F8AEF90E00E94893C01C080E07C
:1027500061960FB6F894DEBF0FBECDBFDF91CF916B
:102760001F9108951F93CF93DF93CDB7DEB7619785
:102770000FB6F894DEBF0FBECDBF0097D1F0162F75
:10278000613108F010E1412F50E0BC01CE0101960B
:102790000E94563EE1E0F0E0EC0FFD1FE10FF11D5D
:1027A0001082BE016F5F7F4F8AEF90E00E94893CEC
:1027B00001C080E061960FB6F894DEBF0FBECDBFBA
:1027C000DF91CF911F91089560E10C94B213CF92E5
:1027D000DF92EF92FF920F931F93CF93DF93CDB7CA
:1027E000DEB762970FB6F894DEBF0FBECDBF00977D
:1027F00061F1613108F060E17C01CC24C394D12CFB
:10280000CC0EDD1E86011CC0C7016A8B0E94843E6F
:10281000F80181938F01FFEFEF1AFF0A6A89811196
:102820000FC0E1E0F0E0EC0FFD1FE60FF11D10829C
:10283000BE016F5F7F4F8AEF90E00E94893C06C027
:10284000802F8C19861700F3ECCF80E062960FB6CC
:10285000F894DEBF0FBECDBFDF91CF911F910F91D6
:10286000FF90EF90DF90CF900895882319F087EACA
:1028700091E002C08BEA91E00C94E413682F8AEF98
:1028800090E00C948B3CCF93DF931F92CDB7DEB7D3
:10289000682F06C080E269830E943E1469816150FE
:1028A0006430C4F783EA91E00F90DF91CF910C94EC
:1028B000B2130F931F93CF93DF93062F142F64E669
:1028C00070E00E94EC3DEB0180E20E943E1480E249
:1028D0000E943E14C436D10548F480E20E943E14A2
:1028E000CA30D10518F480E20E943E14CE010E9445
:1028F0005513802F0E943E14812F0E943E1480E2C7
:10290000DF91CF911F910F910C943E14CF93DF93E1
:10291000D82FC0E004C080E20E943E14CF5FCD13E8
:10292000FACF8C2FDF91CF91089580E10C9486141B
:102930006AE00E94E03D892F805D0C943E14DF9296
:10294000EF92FF920F931F93CF93DF93EC01162F1B
:1029500016160CF059C064E670E00E94EC3DD62ECD
:10296000E72ECB010E94762D082F33E0F32EF80ED0
:1029700004C080E20E943E141150F116D4F3412F9E
:10298000552747FD50952F2D332727FD3095235090
:1029900031094217530754F4812FDF91CF911F91D2
:1029A0000F91FF90EF90DF900C9443148D2D9E2D8E
:1029B0000E945513CE0164E670E00E94EC3DEC01EC
:1029C000101B012F015011161CF48EE20E943E14C0
:1029D000102F1150101644F4CE016AE070E00E94EE
:1029E000EC3D862F0E949814111674F4CE016AE013
:1029F00070E00E94EC3DDF91CF911F910F91FF900D
:102A0000EF90DF900C949814DF91CF911F910F916C
:102A1000FF90EF90DF900895CF92DF92EF92FF92B8
:102A20000F931F93CF93DF93EC01162FC42E16162E
:102A30000CF088C068EE73E00E94EC3DD62EE72EC5
:102A4000CB010E94762DF82E082F0C5F04C080E287
:102A50000E943E1411500117D4F31017DCF0C1107E
:102A600019C0CE010E94762D082F03C080E20E947B
:102A70003E1411500117D4F3CE010E9455138DE678
:102A8000DF91CF911F910F91FF90EF90DF90CF904A
:102A90000C943E14412F552747FD5095202F332786
:102AA00027FD309524503109421753075CF4812FDC
:102AB000DF91CF911F910F91FF90EF90DF90CF901A
:102AC0000C9443148D2D9E2D0E945513CE0168EE5B
:102AD00073E00E94EC3DEC011F19012F015011160B
:102AE0001CF48EE20E943E14102F1150101644F474
:102AF000CE0164E670E00E94EC3D862F0E9498149F
:102B0000CE0164E670E00E94EC3DEC01012F015023
:102B100011163CF46AE070E00E94EC3D862F0E94A2
:102B2000981410167CF4CE016AE070E00E94EC3D2F
:102B3000DF91CF911F910F91FF90EF90DF90CF9099
:102B40000C949814DF91CF911F910F91FF90EF900B
:102B5000DF90CF9008956F927F928F929F92AF9265
:102B6000BF92CF92DF92EF92FF920F931F93CF937A
:102B7000DF937C01962E742E822E16160CF044C024
:102B800021119A94C7010E94762DC0E0D0E0082F51
:102B900010E0A92CBB24A7FCB09404C0872D0E9490
:102BA0003E142196692C6C1A6501CC1ADD0A0C15AD
:102BB0001D05A4F3882019F08DE20E943E14C01672
:102BC000D1068CF4862DDF91CF911F910F91FF904C
:102BD000EF90DF90CF90BF90AF909F908F907F90BD
:102BE0006F900C944314C701DF91CF911F910F9107
:102BF000FF90EF90DF90CF90BF90AF909F908F901D
:102C00007F906F900C945513DF91CF911F910F918E
:102C1000FF90EF90DF90CF90BF90AF909F908F90FC
:102C20007F906F90089520E00C94AB1540E20C94D7
:102C30001316CF93DF936CE370E00E94EC3D9B0191
:102C4000EC0140E363E0C9010E9413168AE30E948D
:102C50003E1440E362E0CE01DF91CF910C94131655
:102C6000292F221F2227221F19F091958195910962
:102C700040E20C94AB15161634F461500E949F1478
:102C800083E40C943E140895161634F461500E94A7
:102C9000161685E20C943E14089563303CF06250A1
:102CA0000E9416168FEA91E00C94E4130895CF93D6
:102CB000DF93C62F1416C4F5642F6150C33079F02A
:102CC00020F4C13091F048F41EC0C530D9F078F03E
:102CD000C63091F0C730D1F411C040E201C048E6DF
:102CE00067E5DF91CF910C945914D6E510C0642F9D
:102CF000DF91CF910C943B16D4EF06C00E943016A2
:102D000085E50EC06150D1E440E002C0D5E541E068
:102D10000E940C158D2F0E943E14C53029F488E6C0
:102D2000DF91CF910C943E14DF91CF910895462FFF
:102D300066E00C945716462F61E00C945716462F08
:102D400060E00C945716462F65E00C945716CF930D
:102D5000DF93EC0160E08E810E94523D81E090E0C3
:102D60000E94DF3C61E08E810E94523D81E090E054
:102D70000E94DF3C60E08E810E94523D84E690E03C
:102D8000DF91CF910C94DF3CCF92DF92EF92FF92D4
:102D90000F931F93CF93DF937C01C0E0D0E0C62E4A
:102DA000D12C87010C0F1D1F61E0F80187810E9463
:102DB0001A3DB6010C2E02C0759567950A94E2F78C
:102DC00061707727F80187810E94523D2196C430B7
:102DD000D10539F7C701DF91CF911F910F91FF9076
:102DE000EF90DF90CF900C94A716CF92DF92EF92E6
:102DF000FF920F931F93CF93DF937C01C0E0D0E04D
:102E0000C62ED12C87010C0F1D1F61E0F8018781B0
:102E10000E941A3DB6010C2E02C0759567950A9462
:102E2000E2F761707727F80187810E94523D219671
:102E3000C830D10539F7C701DF91CF911F910F91AC
:102E4000FF90EF90DF90CF900C94A7161F93CF9335
:102E5000DF93EC01162F642F8C810E94523D8D81EF
:102E60008F3F19F060E00E94523D8F85612F84FFF3
:102E700006C0CE01DF91CF911F910C94F51670E042
:102E800084E0759567958A95E1F7CE010E94C41696
:102E9000612FCE01DF91CF911F910C94C41641E0B8
:102EA0000E94261781E090E0089540E00C942617D8
:102EB000CF92DF92EF92FF920F931F93CF93DF9306
:102EC00000D0CDB7DEB78C01677088E0689FB00195
:102ED00011246064C80149835A830E9455174981AF
:102EE000C42E5A81D52EE12CF12CD6016D916D01A5
:102EF000D801ED91FC910190F081E02DC801099578
:102F0000BFEFEB1AFB0AE8E0EE16F10471F70F9041
:102F10000F90DF91CF911F910F91FF90EF90DF9075
:102F2000CF900895FC016089262F2160208B696075
:102F30000C945517FC0160896E7F608B68600C945F
:102F40005517FC016089262F2460208B6C600C943F
:102F50005517CF93DF93CDB7DEB728970FB6F89408
:102F6000DEBF0FBECDBF28E0E2E7F0E0DE01119644
:102F700001900D922A95E1F7FC012389421710F088
:102F8000422F4150FE013196E40FF11DE40FF11D77
:102F90002081260F2068622F28960FB6F894DEBF96
:102FA0000FBECDBFDF91CF910C94551761E00E9409
:102FB000551780ED97E00C94DF3CCF93DF93EC0145
:102FC000423018F08F8588608F874B8B1C8A2223B4
:102FD00029F0413019F48F8584608F8780E593EC68
:102FE0000E94DF3C60E08C810E94523D60E08E8157
:102FF0000E94523D8D818F3F19F060E00E94523D4A
:103000006F8564FD1DC063E0CE010E94C41684E993
:1030100091E10E94DF3C63E0CE010E94C41684E986
:1030200091E10E94DF3C63E0CE010E94C41686E974
:1030300090E00E94DF3C62E0CE010E94C41616C000
:103040006062CE010E94551784E991E10E94DF3C45
:103050006F856062CE010E94551786E990E00E945C
:10306000DF3C6F856062CE010E9455176F856062FC
:10307000CE010E94551784E0888BCE010E94A117D3
:10308000CE010E94D61782E0898B66E0CE01DF91E7
:10309000CF910C9455176F927F928F92AF92CF92EF
:1030A000EF920F931F93CF93DF93CDB7DEB73C0121
:1030B000162F842F5D854E853F859889F301848383
:1030C00025830683E782C086A1868286538744874C
:1030D0003587968761E00E941A3DF30185818F3F15
:1030E00019F061E00E941A3D61E0F30186810E94BF
:1030F0001A3D112319F0F301178603C080E1F30193
:10310000878720E041E060E1C301DF91CF911F910B
:103110000F91EF90CF90AF908F907F906F900C9425
:10312000DD178F92AF92CF92EF920F93DC0113963F
:103130001C921E921297ECE9F0E0ED93FC931F9223
:103140001F921F921F928C2CAE2CC02EE22E042FA9
:103150002FEF462F61E00E944B180F900F900F90B9
:103160000F900F91EF90CF90AF908F900895FC014A
:1031700027818085E22FF82FE60FF11DE60FF11D64
:1031800025913491C9010C94E4130F931F93CF93AD
:10319000DF93EC018B01CB010E942D2D682FCE0116
:1031A0000E94281984EA90E09983888318870F8306
:1031B000DF91CF911F910F910895DF92EF92FF92CF
:1031C0000F931F93CF93DF93EC01F62E69871A8636
:1031D00081E08D8382E0D82EEE24E3948E01075F98
:1031E0001F4F0E94EA11482F823011F0843061F4A1
:1031F000E881F9810280F381E02D6F2DCE010995E0
:10320000F986DA86ED8204C0813089F0883079F061
:10321000C8010E94362E8111ED828D81882319F01C
:10322000CE010E9455198A858F5F8A87DACF8FEF8A
:10323000898781E08E838D83483009F080E0DF91BB
:10324000CF911F910F91FF90EF90DF900895089517
:10325000FC018AEA90E09183808312821382648366
:1032600081E0858386830895FC012281211103C0BA
:1032700081E082830895438130E0240F311D8481F1
:1032800090E001972817390714F44F5F438308959E
:10329000FC018281882319F0815082830895838103
:1032A000882311F08150838308951F93CF93DF9378
:1032B000EC0110E0612F80E00E949B1280E20E94EE
:1032C0003E14E881F9816B81610F0190F081E02D5E
:1032D000CE0109950E9495141F5F123059F76A813B
:1032E00080E00E949B128EE30E943E146A818FE070
:1032F0000E949B128CE30E943E141D82DF91CF91AD
:103300001F9108950F931F93CF93DF93EC010E94B9
:10331000EA11182F0E944536882321F081E08D8321
:103320001FE71BC00B818A81080F123031F0143067
:1033300039F4CE010E94341903C0CE010E9448190D
:103340008B819A81890F081711F081E08D838D811F
:10335000882319F0CE010E945519812FDF91CF915A
:103360001F910F910895EF92FF921F93CF93DF93D8
:103370001F92CDB7DEB77C0181E0F701858311E0B4
:10338000C70169830E9482196981811102C0F70116
:103390001682F7019681911108C0883031F481E0DE
:1033A000868383819281890F09C0662311F0F7011A
:1033B0001583813029F79111E3CF8FEF0F90DF91C3
:1033C000CF911F91FF90EF9008950F931F93CF938C
:1033D000DF93EC018B0150E00E9401134AE3B80136
:1033E000CE01DF91CF911F910F910C94AD12EF920E
:1033F000FF920F931F93CF93DF9300D01F92CDB70F
:10340000DEB78C01462F0B969A8389838EE08B83DF
:10341000D801EC91F0E0EE0FFF1FEE54FE4FE59067
:10342000F490BE016D5F7F4FCE0101960E94E519B9
:10343000A701BE016D5F7F4FCE0101960E94C812A9
:1034400040E2BE016D5F7F4FCE0101960E94AD123A
:10345000F80141815281BE016D5F7F4FCE0101961F
:103460000E9401134FE2BE016D5F7F4FCE010196B6
:103470000E94AD12D80117964D915C911897BE012C
:103480006D5F7F4FCE0101960E9401130F900F9048
:103490000F90DF91CF911F910F91FF90EF900895C2
:1034A00029E1289FB001299F700D112464577F4F97
:1034B00049E150E088E892E00C94743E29E1289FAD
:1034C000B001299F700D112464577F4F49E150E0EE
:1034D00088E892E00C94923EDC01EC91B6E0EB9F20
:1034E000F0011124E60FF11DEE0FFF1FEC53FE4F0C
:1034F00025913491C9010895CF93DF93EC010E9487
:103500006C1A4F815885849F9001859F300D949F40
:10351000300D1124C901DF91CF9108950F931F93AE
:10352000FC01A181B2812091A0033091A1030E94EE
:10353000B23D24E630E040E050E00E94003E8901C8
:103540009A01093EFDEF1F072105310520F008EE25
:103550001DEF20E030E0C8011F910F910895FC019C
:10356000818592850895FC012081213029F42091E4
:103570009A0330919B0309C0223029F420919803CB
:103580003091990302C020E030E0FC0187819085F2
:10359000289FA001299F500D389F500D1124CA016A
:1035A0000895E6E9F3E0808191810895FC0160814E
:1035B000FBE06F9FB0011124605D7D4F4BE050E058
:1035C0000C94443EDC01EC91F0E0EE0FFF1FEE5452
:1035D000FE4F25913491C9010C94B21360E170E063
:1035E0000C94E21ACF93DF93EC01888160E08111A3
:1035F00008C0CE010E947C1A67E00E949B1687E0FB
:1036000011C0CE010E947C1A65E00E949B168FE2D9
:103610000E943E148F8198850E94551383E40E9476
:103620003E1488E0DF91CF91089566E0FC0183812C
:1036300094810E949F1686E0089566E0FC018581D2
:1036400096810E949F1686E00895FC0181859285EF
:10365000883EF3E09F0719F483E992E004C00E94DA
:1036600055138DE992E00E94E41386E00895FC0171
:1036700081819281883EFDEF9F0729F482EA92E0E2
:103680000E94E41303C067E00E94A31688E0089537
:1036900049E1489F9001499F300D112429563F4F21
:1036A000C90108950F931F93CF93DF93CDB7DEB772
:1036B000A6970FB6F894DEBF0FBECDBF8C01AB014D
:1036C000BC01CE0101960E94161DCE0101960E94FA
:1036D000841D89E1FE013C96D80101900D928A95E6
:1036E000E1F7A6960FB6F894DEBF0FBECDBFDF910F
:1036F000CF911F910F910895FC012081260F293051
:1037000010F4208302C0FC0110820C94D61A0F938F
:103710001F9361E00E947C1A9C0140E050E060E849
:1037200070EF8AEF92E00E94003E89019A01013712
:1037300087E118072105310520F000E717E120E0B7
:1037400030E0C8011F910F9108950F931F9361E01E
:103750000E947C1A9C0140E050E060E876E988E92C
:1037600090E00E94003E89019A01013D87E0180720
:103770002105310520F000ED17E020E030E0C80120
:103780001F910F9108950F931F93CF93DF9300D054
:10379000CDB7DEB78C0169837A830E94871B20E056
:1037A000AC0169817A81C80103960F900F90DF9177
:1037B000CF911F910F910C94C42D0F931F93CF9312
:1037C000DF9300D0CDB7DEB78C0169837A830E9486
:1037D000A51B20E0AC0169817A81C80105960F9094
:1037E0000F90DF91CF911F910F910C94C42D48EE53
:1037F00053E009960C94A62D61E00E946C1ABC015E
:1038000084ED92E60E94EC3DCB0108950F931F9347
:10381000CF93DF9300D0CDB7DEB78C0169837A8375
:103820000E94FC1B21E0F801308169817A8131110D
:1038300020E0AC01C80107960F900F90DF91CF9167
:103840001F910F910C94C42DCF93DF93EC010E9434
:10385000FC1B2F8138858217930710F498878F837C
:10386000CE010E94871B2B813C818217930710F4A5
:103870009C838B83CE010E94A51B2D813E818217E4
:10388000930710F49E838D83DF91CF910895CF939A
:10389000DF93EC0120E048EE5DEF01960E94C42D1D
:1038A00089819A819C838B832881233039F49C0100
:1038B00036952795369527953C832B839E838D835C
:1038C000CE01DF91CF910C94241CDF92EF92FF92F6
:1038D0000F931F93CF93DF9300D01F92CDB7DEB726
:1038E0004BE050E062E772E088E892E00E94443EDC
:1038F00088E892E00E94241C00E010E05EE0D52EF3
:1039000063E9E62E62E0F62EDB82FA82E982402F3E
:103910004F5FBE016D5F7F4FCE0101960E94E5199A
:10392000C8010E945E1A0F5F1F4F0032110561F738
:103930000F900F900F90DF91CF911F910F91FF90FB
:10394000EF90DF90089508950895262F443019F0E0
:103950006FEF7FEF02C061E070E0223091F028F459
:10396000222349F02130C9F409C0243081F060F0ED
:10397000253099F40FC00B960C947C1B0B960C947D
:10398000061C0B960C94471C0B960C94C31B0B96B1
:103990000C94DD1B0B960C94F71B08951F93CF938B
:1039A000DF93EC01162F0E94B718CE0109960E94F2
:1039B0002B2E882311F0298501C02FEF332727FDF7
:1039C0003095812F90E02817390759F11230B1F066
:1039D00028F4112349F0113021F50BC01430C1F047
:1039E00090F01530F1F419C0CE010B960E94EE1A3A
:1039F00018C0CE010B960E94F21A13C0CE010B968E
:103A00000E94371B0EC0CE010B960E94151B09C0E9
:103A1000CE010B960E941D1B04C0CE010B960E9486
:103A2000251B80E0DF91CF911F910895EF92FF92C7
:103A30000F931F93CF93DF93EC018B017A016BED12
:103A400072E00E94C5188FEF898780EB90E0998320
:103A5000888389E1F801DE011B9601900D928A9519
:103A6000E1F7FDA2ECA2DF91CF911F910F91FF90A2
:103A7000EF9008950F931F93CF93DF93CDB7DEB7E9
:103A800028970FB6F894DEBF0FBECDBF8C01BC01E6
:103A90006A5E7F4F2DEE32E04EE050E0CE0101969F
:103AA0000E946B11CE0101960E94761181E0F8010F
:103AB000858328960FB6F894DEBF0FBECDBFDF9189
:103AC000CF911F910F910895CF93DF93EC016CA1DB
:103AD0007DA16F5F7F4F0B960E94F7190E94A9127C
:103AE0000E94A11288EF92E00E94E4130E94A512A6
:103AF0006EE0CE0146960E9480130E94222E83E043
:103B0000DF91CF910C946F36DF92EF92FF920F937B
:103B10001F93CF93DF93CDB7DEB769970FB6F894B5
:103B2000DEBF0FBECDBF8C0189E1D82E9BE0E92E10
:103B3000F12CE00EF11E60E0C8010E94B31987FD70
:103B40002BC0863019F0873049F404C0C8010E94A8
:103B5000641DF1CFC8010E943A1DEDCFF701DE01CF
:103B600011969D2D01900D929A95E1F7682FC8014D
:103B70000E94DD18811109C0FE013196D7018D2DFB
:103B800001900D928A95E1F7D6CF83E00E946F36BF
:103B9000C7010E94241CCFCF69960FB6F894DEBFF0
:103BA0000FBECDBFDF91CF911F910F91FF90EF908E
:103BB000DF9008958091920390919303892BA1F057
:103BC0008CE10E94D30865E02AE0AC01249FC0018B
:103BD000259F900D11240E9430168DE60E943E1400
:103BE00083E40E943E1404C08EED93E00E94E4132F
:103BF0000C9495148AE10E94D30865E00E94301667
:103C00008DE60E943E1486E50E943E140C949514A5
:103C1000CF93DF9300D0CDB7DEB789839A830E941C
:103C2000A11289819A810E94E4130E94A5128091B9
:103C3000F9029091FA020E944D3E892B51F08FECCF
:103C400093E00E94E4138091F9029091FA020E949D
:103C5000E4130F900F90DF91CF910C94951490E0A6
:103C6000880F991F62E0865C9C4F0C94B2130F93EF
:103C70001F93CF93DF9361E088E892E00E947C1A63
:103C80008C0165E088E892E00E947C1AEC0183E1F7
:103C90000E94D30880179107B8F4C817D907B0F469
:103CA0009C012C1B3D0BC8018C1B9D0B64E670E036
:103CB0000E94EC3DC9010E94EC3DCB0164367105C8
:103CC00030F083E690E003C083E601C080E0DF913E
:103CD000CF911F910F910895613011F40C94C50D8F
:103CE0000C94532ACF93DF93D82FC62F825E0E9465
:103CF0006909882351F06C2F8D2F0E946C1E46E0BD
:103D00006C2FDF91CF910C94571689E593E0DF91EA
:103D1000CF910C94E4130F931F93CF93DF93C82F8D
:103D2000162F0E94A1128091D302882319F01092BD
:103D3000D30203C081E08093D3020E948F0D8111D2
:103D400008C083E090E00E949C0E882341F080E24E
:103D500009C080915D02882321F082E403C08DE6D2
:103D600001C082E60E943E1480917702811117C043
:103D700022C080917802D81761F080917702802369
:103D800031F08091D302882321F082E003C081E0EA
:103D900001C080E00E943E14000FDF5F02C0D0E04F
:103DA00001E00E948C0DD81720F30E948C0D97E043
:103DB000981B892F01C087E00E948614DC2FDF5FEB
:103DC0008D2F0E9498148AE30E943E14C1112FC0C7
:103DD0000E94D126882359F10E94E026892B11F5F3
:103DE00026C00E9495140E94A5120C2F0E5F802FF2
:103DF0000E9498148AE30E943E14612F8D2F0E9426
:103E0000721E8C2F8D5F0E9498148AE30E943E14CC
:103E1000612F802F0E94721EDF91CF911F910F9111
:103E20000C94951480E693E00E94E413DACF612F9E
:103E30008C2F0E94721ED5CF88E10E94D30868E0C3
:103E40000E94A31680E20C943E140E94A11288E8FE
:103E500092E00E948E1A68E00E94A31680E20E94FF
:103E60003E140E943C2A67E00E949F160E9495140F
:103E70000E94A51285E693E00E94E41367E080911A
:103E80008203909183030E949B160C9495140F93C8
:103E90001F936091DE027091DF028091E0029091A9
:103EA000E1022091A102222371F00E94FA2C0091DC
:103EB000DE021091DF022091E0023091E102601BEE
:103EC000710B820B930B28EE33E040E050E00E9430
:103ED000003EC9011F910F910895CF930E947B2648
:103EE000811110C00E94D126882331F00E947B26C8
:103EF00081110AC0C4E40BC00E948F0D811106C05D
:103F0000CEE405C0C3E403C0C5E401C0C2E40E941E
:103F100078268111C7E58C2F0E943E1480E20E9412
:103F20003E140E94471F0E94191680E2CF910C9404
:103F30003E140E94A1120E941C1F67E086E10E94AD
:103F4000730D0E9495140E94A5120E946D1F67E0D8
:103F500083E10E94730D0C9495140E94FA2C6093D7
:103F6000DE027093DF028093E0029093E1021092F0
:103F7000DA021092DB021092DC021092DD02109243
:103F8000D6021092D7021092D8021092D90281E084
:103F90008093A10208950F931F930E94FA2C009121
:103FA000DE021091DF022091E0023091E102601BFD
:103FB000710B820B930B6093DE027093DF02809390
:103FC000E0029093E1021092A1021F910F910895D7
:103FD0000E94812681111DC00E94D726811119C01F
:103FE0000E948F0D882351F18091DA029091DB02BB
:103FF000A091DC02B091DD0280599F4FAF4FBF4FBF
:104000008093DA029093DB02A093DC02B093DD028E
:1040100008958091D6029091D702A091D802B091D4
:10402000D90280599F4FAF4FBF4F8093D6029093D4
:10403000D702A093D802B093D902D2CF089560914D
:10404000D6027091D7028091D8029091D90220E6D1
:104050003AEE40E050E00E94003EC9010895CF9240
:10406000DF92EF92FF920E94A1128EE693E00E94EF
:10407000E4130E94471F0E9419160E94A51289E7A7
:1040800093E00E94E4136091DA027091DB02809168
:10409000DC029091DD0238EEC32E33E0D32EE12C0A
:1040A000F12CA70196010E94003EC9010E94191639
:1040B0008CE793E00E94E4136091D6027091D702DE
:1040C0008091D8029091D902A70196010E94003EEA
:1040D000C901FF90EF90DF90CF900C9419160E94C9
:1040E000A1128FE793E00E94E4130E945D2A68E02A
:1040F0000E9497160E9495140E94A51282E10E94C8
:104100006909882349F088E893E00E94E4130E943B
:10411000632A68E00E9497160C9495140E94A112DD
:1041200081E993E00E94E41367E086E00E94730D4A
:104130000E9495140E94A51289E993E00E94E4135D
:1041400047E061E08091A2039091A3030E9457167B
:104150000C9495140E94A11281EA93E00E94E4134A
:1041600067E080E00E94730D0E9495140E94A512E2
:1041700088EA93E00E94E41367E082E10E94730DF5
:104180000C9495140E94A1128FEA93E00E94E4130C
:104190008091920390919303892B29F065E087E049
:1041A0000E94730D04C085EB93E00E94E4130E940B
:1041B00095140E94A5120C9495140F931F93CF93FE
:1041C000DF9300D0CDB7DEB78B0189839A830E943D
:1041D000A9120E94A11289819A810E94E4130E946F
:1041E000A512C8010F900F90DF91CF911F910F91F1
:1041F0000C94E41387EB93E00E94081E0E94A51222
:1042000088EC93E00E94E4130E94471F0C94191657
:1042100088ED93E00C94081E0E94A1120E941C1FBE
:104220000E94DA1D0E94A5120E946D1F0C94FA1DB7
:104230000E94A11287EE93E00E94E41367E08BE1F5
:104240000E94730D0E9495140E94A51280EF93E0C6
:104250000E94E4130C94FA1D0E94A1128AE094E0DB
:104260000E94E4138091920390919303892B41F073
:1042700069E080912801909129010E943B1604C0B9
:1042800080E194E00E94E4130E9495140E94A5121C
:1042900089E194E00E94E4130C94DA1D60E070E080
:1042A00083E294E00C94DD200E944E210C94222E97
:1042B00068E374E087E294E00E94DD2088E893E1FF
:1042C0000C94102D0E94A11283E494E00C94E4134A
:1042D00084EF91E00E94AB0860E674E084E594E02E
:1042E0000E94DD2084E893E00E94AB086FE774E051
:1042F00081E794E00E94DD2084E893E00C94AB0811
:104300006AE974E08EE894E00E94DD2080E49FE199
:104310000C94AB081092CF021092CE021092CD02F4
:104320001092CC028091D0028093D1021092CB02E5
:104330001092CA020895CF930E948A210E94A1126E
:1043400064E070E088E892E00E94E21A80E20E9455
:104350003E1488E892E00E94F21A80E20E943E1425
:104360008091FB020E942F1E0E94A5120E94371E00
:104370008093D00262E090E00E94161680EA94E0FA
:104380000E94E41384ED92E00E942B2E882319F002
:10439000C091D40201C0CFEFC0FF05C065E080E04E
:1043A0000E94730D03C085E00E94861480E20E9483
:1043B0003E148091880284508530A8F4C1FF05C066
:1043C00065E082E10E94730D03C085E00E948614BF
:1043D000C2FF05C00E948B09CF910C94981480E213
:1043E000CF910C943E1466E08091890290918A02EC
:1043F0000E94A316CF910C9495140E94371E8093AF
:10440000D0029091D102981728F58093D1020E9492
:10441000471F2091CC023091CD02821B930B9093C9
:10442000CF028093CE020E94471F9093CD028093CB
:10443000CC028091CE029091CF022091CA0230919D
:10444000CB022817390710F0232B21F49093CB02CD
:104450008093CA020895CF93DF930E94FD210E94AA
:104460008B09811116C082E10E94D308EC0180E023
:104470000E94D308C817D90728F49C012C1B3D0BB8
:10448000E90102C0C81BD90BC53FD14010F024E69A
:1044900001C029E630E08091D102281B31098091CA
:1044A000CA029091CB02289FA001299F500D389FEE
:1044B000500D1124CA01DF91CF9108958091D2024D
:1044C0008F5F853118F48093D20202C01092D2021D
:1044D0000E94FD218091D2028A3088F40E94A112AC
:1044E0000E941C1F67E086E10E94730D0E949514D4
:1044F0000E94A5120E946D1F8AEF93E018C00E94CF
:10450000A11268E087E10E94730D8CEF93E00E9496
:10451000E41367E086E10E94730D0E9495140E94E7
:10452000A51268E089E10E94730D8EEF93E00E946E
:10453000E4138091D2028A3068F40E947B268111B4
:1045400015C008C00E942B220C94191681E094E03B
:104550000C94E41364E08091D00290E00E9416165F
:1045600088E094E00E94E4130C9495148091CA02B0
:104570009091CB02459730F7E9CFCF93DF930E941C
:104580004828C82F0E944A28EC2FF0E0EF59FF4F2F
:1045900080830E944828C82FD0E0CC0FDD1FCE5565
:1045A000DD4F6091D6027091D7028091D802909130
:1045B000D90228EE33E040E050E00E94003E39830B
:1045C00028830E944828C82F88E10E94D308EC2F36
:1045D000F0E0EE0FFF1FEA54FD4F91838083DF91DF
:1045E000CF9108950F931F93CF93DF930E94BD2225
:1045F0008091D2028F5F863018F48093D20202C07D
:104600001092D2028091D202853091F420916B00F9
:104610002F5F20936B0030E080919C0390919D036D
:10462000880F991F8217930718F481E080936B001D
:1046300000916B0001500E94A11262E080916B001A
:1046400090E00E94161681E00E94861410E0E801B6
:10465000CF59DF4F88810E943E1481E00E9486146A
:10466000000F111FF801EE55FD4F808191810E94CE
:1046700019160E9495140E94A51281E00E948614CA
:1046800088818354823040F4F801EA54FD4F68E099
:10469000808191810E94A316DF91CF911F910F918C
:1046A0000C9495149091D5029F5F9093D50290E061
:1046B000FC013197E131F10548F5E65DFF4F0C94BF
:1046C0003E3E0C94991F0C94251F0C942F200C94A3
:1046D000C22061E005C061E083E00C948B1E66E0BF
:1046E00080E0FBCF66E0F8CF0C949B210C946F2008
:1046F0000C94AA200C948E200C945E220C94182109
:104700000C942C210C940C210C94F22208958FEF20
:104710008093D40208950F931F93CF93DF930E9449
:104720009D26C0918B02D0918C0261E088E892E0D6
:104730000E947C1A8C01CE0165E070E00E94EC3D85
:104740008FE00E94130DEC0140E0BC01C8010E9403
:10475000BF2A8FE00E94E72ACE01DF91CF911F91FF
:104760000F910C948F2681E00C94AF260E94CB0908
:10477000882321F00E948A260C948F2B0895109292
:10478000E2020C948B23CF93DF930E94B6230E9406
:10479000C609EC018091E202811111C062E088E853
:1047A00092E00E947C1A8C179D0748F481E0809368
:1047B000E20280918B0290918C020E9497260E94C7
:1047C000CB098823D9F164E088E892E00E947C1A42
:1047D0008C179D0758F132C08091E302882389F03D
:1047E0008AE10E94D308EC0188E892E00E94B31AA3
:1047F000D195C195D1098C179D071CF481EB94E0EC
:1048000017C08091E402811101C00EC08CE10E94AA
:10481000D308EC0188E892E00E94D11A8C179D071A
:104820001CF485EB94E004C082E00FC089EA94E0B8
:104830009093FA028093F90281E007C080913401DD
:1048400090913501029740F6EFCFDF91CF91089517
:104850008093E4026093E30208957093E80260930A
:10486000E7029093E6028093E50208950F931F9369
:10487000CF93DF93C091E502D091E602CE010E9472
:10488000D50F8C010E94C609C817D90738F4C80192
:10489000DF91CF911F910F910C94B70F81E0DF91C1
:1048A000CF911F910F9108950F931F93CF93DF9393
:1048B0000E943624182F0E94E026EC010E94CB09AA
:1048C000882311F001E001C0012F8091E9028823C3
:1048D00029F0BE01812F0E943F2B01C0812F882328
:1048E00029F081E00E94182781E00DC0011101C06C
:1048F00009C0BE01812F0E945E2C8C179D0711F00C
:104900000E94FC2682E0DF91CF911F910F910895C4
:104910000E940A270E94240E1092E90280E10C9462
:10492000E72A81E00E9418270C941F0EBC0180E149
:104930000E94130D0C942A2A0F931F93CF93DF9399
:104940008C01EB010E942D24BE0180E10E94130D19
:1049500040E0BC01C8010E94BF2ACE016AE070E0BD
:104960000E94EC3DCB01DF91CF911F910F910C94F0
:1049700096240E94240E0E949D268FE00C94E72A24
:1049800081E00E94AF260C941F0E0F931F93CF93CC
:10499000DF931F92CDB7DEB78C018FE049830E9471
:1049A000130D4981BC01C8010F90DF91CF911F9178
:1049B0000F910C94BF2A0F931F93CF93DF931F92F5
:1049C000CDB7DEB78C018FE049830E94130D49817A
:1049D000BC01C8010F90DF91CF911F910F910C94F2
:1049E000D32ABC018FE00E94130D0C942A2A0F9346
:1049F0001F93CF93DF93C0918203D0918303CE01A5
:104A00000E94D50F8C010E94C6098C179D0738F4AF
:104A1000C801DF91CF911F910F910C94990F81E004
:104A2000DF91CF911F910F9108951F93CF93DF9343
:104A30000E94F724182F0E948A26EC01BC01812FC6
:104A40000E943F2B882329F081E00E94AF2681E05D
:104A50001BC00E94CB0981110BC0111109C0CE01EE
:104A60000E94442A811104C00EC00E948F260BC0F0
:104A70000E948F0D811107C0BE01812F0E945E2C04
:104A80008C179D0791F782E0DF91CF911F910895D8
:104A90000E94C0240E9491240C941F0ECF93DF9398
:104AA0001F92CDB7DEB79091EB02913039F018F03C
:104AB000923081F406C00E9415250CC00E94542437
:104AC00009C00E946A0F823089F089830E944825BC
:104AD00089810CC0813051F49091EA02992331F020
:104AE00082E08093EB020E94240E82E00F90DF911F
:104AF000CF9108950E94240E8091EC029091ED02D6
:104B00000E94D50F0E94B70F882329F00E94B92474
:104B10001092EB0208950E94882481E08093E902BC
:104B20008093EB0208958093EA0208950F931F93F8
:104B3000CF93DF93EC018A019093ED028093EC0216
:104B400040E00E94C524B801CE01DF91CF911F91B2
:104B50000F910C949C240E940A2787E08093D40232
:104B600082E08093D5020E94683683E08093EF0252
:104B7000089581E00E9418278FEF8093D40288E087
:104B80000C946F36FF920F931F93CF93DF9380E0C7
:104B90000E946909FF24F394F8268091EE0288238D
:104BA00079F00E948B0990918F0201E0981301C067
:104BB00000E011E0811110E0913021F4112311F097
:104BC00010E000E00E948B09811129C0112339F106
:104BD00082E10E94D308EC0180E00E94D308C8174C
:104BE000D90728F49C012C1B3D0BE90102C0C81B0E
:104BF000D90BC53FD14008F065C011C08091FB02C0
:104C0000882331F0843021F0853011F0863039F47A
:104C10000E94682181E00E946F3610E000E082E18E
:104C20000E9469098823B1F082E10E94D308EC0157
:104C300080E00E94D308C817D90728F49C012C1BD8
:104C40003D0BE90102C0C81BD90BC53FD14010F094
:104C5000FF24F394011102C087E001C083E0809338
:104C6000D402112329F08091D40282508093D4027F
:104C7000FF2029F08091D40281508093D402011149
:104C800004C0111102C0FF2011F081E001C088E0D2
:104C90000E946F360E94BD11811102C01092EF0276
:104CA000011108C0111106C0F11004C00E94BD110D
:104CB000883079F08091EF02823011F481E00FC0EA
:104CC00082E00DC0809188028450853008F496CF30
:104CD000A6CF8091EF028F5F8093EF02EBCFDF9141
:104CE000CF911F910F91FF9008958093EE02089548
:104CF0008091F002089581E09091F302911180E09B
:104D0000089581E02091F1023091F202232B09F401
:104D100080E008958091F1029091F20208959093BD
:104D2000F2028093F1020E94C3060C941A0BBC019C
:104D30008FE00E94130D0C948F268091F30288233C
:104D400069F01092F2021092F10280E090E00E946D
:104D50008F2681E00E94DE061092F3020895CF9321
:104D6000C82F8091F30281110FC0CC2369F080E03D
:104D700090E00E948F261092F2021092F10280E0E1
:104D80000E94DE06C093F302CF9108951092F202C2
:104D90001092F10280E090E00E948F2681E00C9456
:104DA000AF2681E09091F802911180E0089581E0B2
:104DB0002091F6023091F702232B09F480E0089548
:104DC0008091F6029091F7020895482F8091F402A5
:104DD0009091F5022091F6023091F7028217930725
:104DE00011F4442341F09093F7028093F6020E945D
:104DF0008A070C941A0B08959C01213080E438072F
:104E000010F020E030E43093F5022093F40281E0CA
:104E10000C94E5268091F802882349F080E090E028
:104E20000E94FC2681E00E94D1061092F8020895AB
:104E3000CF93C82F8091F80281110BC0CC2349F089
:104E400080E090E00E94FC2680E00E94D106C093A2
:104E5000F802CF91089580E090E00E94FC2681E066
:104E60000C941827089580918802883051F0982F6B
:104E70009450953048F08150823048F42EE033E071
:104E800008C02CEF32E005C025E033E002C027E186
:104E900033E0C90108958DEC94E090937B028093F8
:104EA0007A0290918802945081E0953008F080E079
:104EB0000E94752661E083ED94E00E94341091E039
:104EC000813009F090E0892F08950F931F93CF93BD
:104ED000DF930E94932500918D0210918E02C09164
:104EE0008B02D0918C0263E088E892E00E947C1AE9
:104EF000A801BE010E94962587EC94E090937B0266
:104F000080937A0260E089ED94E0DF91CF911F9168
:104F10000F910C943410EF92FF920F931F93CF9345
:104F2000DF938C01CBE8D2E0E880F98061E088E88B
:104F300092E00E947C1A40E0B7010E94C52488815B
:104F40009981B8010E94EC3DCB010E94F12481ECD3
:104F500094E090937B0280937A0260E086EE94E086
:104F6000DF91CF911F910F91FF90EF900C9434102F
:104F7000CF93DF93C0918B02D0918C0261E088E8DF
:104F800092E00E947C1A41E0BE010E94C52481EC9F
:104F900094E090937B0280937A0260E086EE94E046
:104FA000DF91CF910C943410CF93DF93C0918B029B
:104FB000D0918C0261E088E892E00E947C1A41E086
:104FC000BE010E94DB2481EC94E090937B028093ED
:104FD0007A0260E086EE94E0DF91CF910C94341079
:104FE00081E02091920330919303232B09F480E018
:104FF00061E00E94282483EA94E090937B028093EE
:105000007A0260E083EF94E00C94341062E088E868
:1050100092E00E947C1A60918D0270918E02E09164
:105020008F02F09190024091A4035091A503E49F58
:105030009001E59F300DF49F300D1124820F931FD6
:105040000E949C248BEB94E090937B0280937A02E5
:1050500060E080E095E00C943410CF93DF93C09132
:105060008D02D0918E0262E088E892E00E947C1A64
:10507000BE010E949C248BEB94E090937B02809372
:105080007A0260E08DE095E0DF91CF910C943410CE
:1050900080E008958DE208958EE491E090937B0284
:1050A00080937A0260E088E195E00C943410CF930D
:1050B000C82F8093FB022EE135E03093FA02209353
:1050C000F9028E3030F4E82FF0E0E454FF4F808195
:1050D00001C080E080936C000E94CA370E943D0BA3
:1050E0000E944B27882309F441C084E00E946F3658
:1050F000C63041F160F4C230A1F128F4CC23A1F014
:10510000C13091F52BC0C430A9F0B8F410C0CC3038
:1051100030F4CA3058F5C830D9F0E8F415C0CC30B6
:1051200061F0CD3009F506C08AE090E008C00E9429
:105130004C281CC00E94062819C085E090E00E94FF
:105140008B2714C080E001C081E00E9465270EC05B
:105150000E94F0270BC00E942D2808C00E94B8278B
:1051600005C00E94D42702C00E9454210E944C0B0B
:10517000CF910C94DA370F931F93CF93DF93EC0109
:105180000E94501A0E9433278C0160E0C8010E94DF
:10519000B31987FD29C090918802E82FFF27E7FD0A
:1051A000F095983019F4E15EFA4F0FC0892F8450C2
:1051B000853018F4EA5DFA4F08C09150923018F427
:1051C000E15DFA4F02C0EC5CFA4F84918E3049F4F5
:1051D000BE0188E892E00E94521BCE010E945E1A36
:1051E000D1CF0E945728D1CFDF91CF911F910F913E
:1051F000089567E375E085E093E00E94C5186BE4CD
:1052000075E08EE093E00E94C51867E575E08CEFCD
:1052100092E00E94C51867E675E087E193E00C9480
:10522000C518FC01428153814115510589F0A081C7
:10523000B181B7FF03C0B195A195B10928EE33E064
:105240000E94BE3D9A0140E050E00E94003E02C034
:1052500020E030E0C90108950F931F93CF93DF93AF
:1052600000D000D0CDB7DEB78C01862FF801628167
:1052700073810E94670B9C838B83F80180819181ED
:105280009A838983CE0101960E9411290F900F9075
:105290000F900F90DF91CF911F910F9108950F9371
:1052A000FC01CA01002341F06417750708F4CB0123
:1052B0004617570748F409C04617570708F4CB01AB
:1052C0006417750708F401C0BA0197838683918338
:1052D0008083138212821582148233872287681B8F
:1052E000790B718760870F910895FC019B0140E065
:1052F00050E086819781281B390B41095109A2850D
:10530000B3850E94C53D20853185442737FD4095F2
:10531000542F0E94223E2115310581E04807510596
:105320001CF457FD04C005C02FEF3FEF02C020E082
:1053300030E0C9010895DF92EF92FF920F931F931F
:10534000CF93DF93EC012A813B812417350720F4AA
:10535000FA01E21BF30B03C0F901E41BF50B8C818E
:105360009D81969587958E179F0788F588819981ED
:105370008617970720F4FB01E81BF90B03C0FC011B
:10538000E61BF70BEF2BF9F422C08A01021B130B6B
:105390007B01E81AF90A06C07C01E61AF70A8901BE
:1053A000041B150BC7010E94472DD82E88859985AF
:1053B0000E94472DD8120BC01D830C83F986E88606
:1053C0001B870A8704C024173507F8F2E5CFDF9161
:1053D000CF911F910F91FF90EF90DF9008950F9361
:1053E0001F93CF93DF93EC018B019A01A885B985B8
:1053F0000E94BE3D2A853B8540E050E00E94223E4F
:10540000C801A0E0B0E082179307A407B5071CF419
:105410001F821E8204C0021B130B1F830E83DF91A9
:10542000CF911F910F910895EF92FF920F931F93C9
:10543000CF93DF93EC018B017A010E949B29A70196
:10544000B801CE01DF91CF911F910F91FF90EF90A6
:105450000C94EF2990938903809388030895809199
:105460002203813029F4209188033091890302C0FE
:1054700020E030E0C90108956091840370918503B4
:10548000809124030C94670B20912703213041F075
:1054900041E020918803309189038217930708F037
:1054A00040E0842F08952CE0829FC0011124609178
:1054B0002403805D9C4F0C942C296091240388E781
:1054C00093E00C942C290F931F93CF93DF9300D07C
:1054D00000D0CDB7DEB70E947B26811126C00E9486
:1054E000D126811122C037C000916D0010916E004D
:1054F000CE0101960E9411298017910740F4CE0138
:1055000001960E94112990936E0080936D00209166
:105510006D0030916E002F3F8FEF380709F421C0E6
:1055200030937D0320937C0320C080E00E94D30849
:105530009A83898382E10E94D30829813A81281BBA
:10554000390B3A83298386E10E94D3089C838B839D
:10555000892BE9F2C9CF8FEF9FEF90936E00809374
:105560006D0020917C0330917D03C9010F900F9055
:105570000F900F90DF91CF911F910F91089590930D
:105580008303809382037093850360938403CB012C
:105590006AE070E00E94EC3D709389036093880399
:1055A0004093230308959093830380938203709321
:1055B000850360938403CB0164E170E00E94EC3DBD
:1055C0007093890360938803409323030895EF92B7
:1055D000FF920F931F93CF93DF9391E09093220359
:1055E000FF24F3948F3009F0F12C8093240368ECAE
:1055F00070E00E94130D90938703809386030E94AE
:10560000C60920918803309189034091820350910B
:1056100083030F2DBC0180E793E00E944F290E9475
:105620008C0D8093250380918203909183030E94C7
:10563000D50FEC0110E08CE0E82E12C0812F0E9403
:10564000C50DBC012091880330918903E19EC00102
:1056500011240F2DAE01885D9C4F0E944F291F5FC2
:1056600080912503181750F31092270310922603F8
:10567000DF91CF911F910F91FF90EF9008950F93BD
:105680001F93CF93DF93082FEB018091230388238F
:10569000C9F040918603509187032091880330918F
:1056A00089032417350708F49A012C173D0710F4D5
:1056B0001092760280912703813021F00E946A0FB8
:1056C0008093220380912203813019F58091270372
:1056D000823041F411E02091880330918903C21790
:1056E000D30708F010E00E942F2A8C179D0778F04E
:1056F000111103C0011101C00AC090912603892F26
:105700008F5F8093260381E09A3020F402C01092CC
:10571000260380E0DF91CF911F910F9108950F93A1
:105720001F93CF93DF93EC010E94C609AE01BC0129
:1057300080E793E00E94142A10E00CE00DC0812F56
:105740000E94C50DBC01019FC0011124AE01885DFE
:105750009C4F0E94142A1F5F80912503181778F32D
:10576000DF91CF911F910F910895CF92DF92EF9229
:10577000FF920F931F93CF93DF93609182037091F9
:10578000830380E793E00E947529EC0180918203F6
:10579000909183030E94D50F7C01D12C9CE0C92EEF
:1057A00012C0CD9C80011124085D1C4FB701C801B7
:1057B0000E947529C817D90728F0B701C8010E94AF
:1057C0007529EC01D39480912503D81650F3CE01AE
:1057D000DF91CF911F910F91FF90EF90DF90CF90CD
:1057E00008950F931F93CF93DF938B0180938003D2
:1057F000909381032091840330918503EC01281755
:10580000390708F4E9010E942F2A9C018C179D0793
:1058100008F49E010217130719F1809127038230C3
:10582000A9F42017310790F08091880390918903A3
:1058300080179107A0F040917E0350917F038091E3
:105840005302909154024817590749F0809153022E
:105850009091540290937F0380937E0301C098013E
:10586000C901DF91CF911F910F9108950F931F935D
:10587000CF93DF93EC010E94C6099093710380934C
:105880007003D0937303C093720310E00CE00DC05B
:10589000812F0E94C50D019FF0011124E85DFC4F8E
:1058A00091838083D383C2831F5F80912503181760
:1058B00078F3DF91CF911F910F9108951F93CF93AC
:1058C000DF93182FEB01CB010E948F2BCE010E949A
:1058D000362C0E94B52B9093210380932003BE01A8
:1058E0000E94F12B9C0180912703811110C011238C
:1058F00089F080912303882321F00E94180E1092D2
:10590000760281E08093270320E030E003C082E04C
:1059100080932703C901DF91CF911F9108950F93C1
:105920001F9300918A0310918B0320918C03309177
:105930008D03B801C9011F910F91089512BE8DE723
:105940008CBF88E083BF83B7836083BF89B78260E1
:1059500089BF089580918A0390918B03A0918C0355
:10596000B0918D030196A11DB11D80938A03909380
:105970008B03A0938C03B0938D0308950E94AA2CEF
:105980000E9448370E94452E0E94340580916F0086
:10599000815019F080936F00089581EE80936F001D
:1059A0000E9432270E9499090C94E81F1F920F92BF
:1059B0000FB60F9211242F933F934F935F936F93E2
:1059C0007F938F939F93AF93BF93EF93FF930E9427
:1059D000BE2CFF91EF91BF91AF919F918F917F91DD
:1059E0006F915F914F913F912F910F900FBE0F904C
:1059F0001F9018950F931F938FB7F89400918A0307
:105A000010918B0320918C0330918D038FBF3695BD
:105A1000279517950795B801C9011F910F91089512
:105A2000CF92DF92EF92FF92CF93DF93EC010E942F
:105A3000FA2C6B017C01CC0EDD1EE11CF11C0E94D6
:105A4000FA2C6C157D058E059F05C8F3DF91CF916B
:105A5000FF90EF90DF90CF9008959C0180E001C00F
:105A60008F5FF901459154912E5F3F4F452BC1F750
:105A7000089521E030E09AE006C0A901949F9001CA
:105A8000959F300D11248150C0F7C901089597FDED
:105A900002C081E008958FEF0895CF92DF92EF92D8
:105AA000FF92CF939B01AC016115710581059105B2
:105AB00021F421E030E040E050E0C0E08AE0C82E70
:105AC000D12CE12CF12CCF5FCA01B901A7019601BD
:105AD0000E94003E2115310541055105A1F78C2F8B
