:100000000C94A5040C94CD040C94CD040C94CD0454
:100010000C94CD040C94CD040C94CD040C94CD041C
:100020000C94CD040C94C0050C94812A0C94333AA2
:100030000C94CD040C94F0370C942E380C94CD0411
:100040000C94CD040C94CD040C94CD040C94CD04EC
:100050000C94CD040000000040D5066200000000B2
:10006000F567E6307A013200A42AE803B71B3200B4
:100070003EA82C010000000000000000000000006D
:1000800000000000000000008DBBD636C24CA40B5F
:100090000C4970170000000043BFA80E00000000CC
:1000A00015D65110000000009BD9C82000000000A8
:1000B000CAD863100000000007D8571000000000E5
:1000C00040D85F1000000000A5CF58107C0132001E
:1000D000A82AE803320A3200EA3D2C010006080093
:1000E00001FF010100000106090001FF03020100F8
:1000F00002060A0001FF0000000006060E0000FFD5
:100100000302010005060D0000FF020300000406C3
:100110000C0000FF0302010003060B0000FF0406B1
:1001200000000706070000FF03020100190E140E6D
:100130005F0F2020436865616C6943686172676581
:100140007200202020207665723A20302E33326DE6
:1001500000204D6F646465642076657273696F6E0C
:10016000002020464F522054455354494E470073B7
:100170000100006F7074696F6E730001000100016F
:1001800000010001000A00640001000200040010E8
:100190000040000001000401000300080007000700
:1001A0000014000700496E660079657300206E6FC9
:1001B000006D560076027E02830288028C02910254
:1001C00096029B02010001000100010000000100F5
:1001D000B0041C075203000008071405B0044006D1
:1001E000E803000008071405D0079209D6060000AE
:1001F00000006C07E40C100ED007E40C0000B80BF4
:10020000100E0410C409A60E0000AC0D740E681088
:10021000B80B0A0F0000890C40066C071405400655
:100220000000DC0500980898086C07102701980862
:1002300098086C07010002980898086C07010003F1
:100240009808DC006C07060004980898086C0703FF
:100250000005980898086C07030006980898086C31
:1002600007030007980898086C070300756E6C690F
:100270006D6974656400556E6B6E6F776E004E69C4
:100280004364004E694D480050623F004C6966650A
:10029000004C696C6F004C69706F004E695A6E00BB
:1002A000C102C802CD02D202D702DC02EA0200007B
:1002B00045646974206E616D653A004E616D653A02
:1002C000004261743A202000563A20200043683AE8
:1002D000200049633A200049643A200020206372DC
:1002E00065617465206E616D65002020206564691C
:1002F00074206E616D6500436843425342426C4412
:1003000069464353745342436844694379435943AC
:1003100068446945420020202D2D2020006E2E616A
:100320002E004C696D6974733A200074696D653AEA
:1003300020202020200062200020200062617474B0
:100340002E20523D00776972657320523D00566938
:100350006E7075743D00206C696D69743D00566F58
:100360007574203D005662616C2E3D0054657874B2
:100370003D002D0070726F6772616D20636F6D704C
:100380006C6574650054696D653A20202020007208
:100390006561736F6E3A20006D6F6E69746F7220C5
:1003A0006572726F72006E6F742075736564006D94
:1003B0006178566F75743D0064656C746120563DBC
:1003C000200020002020002500546578743D006E38
:1003D0006F7420757365640064656C746120543DAE
:1003E000200046756E6374696F6E206E6F740069CD
:1003F0006D706C656D656E746564207965740070F0
:100400006C656173652063616C696272617465001B
:100410006265666F72652075736500524556455278
:10042000534520504F4C4152495459002A2A2A2AF8
:100430005741524E494E472A2A2A2A2A0042616CC5
:10044000616E636572206E6F742E636F6E00202084
:10045000686F6C6420627574746F6E2020200020B9
:100460002020746F2053746172742020202020009B
:1004700046554C2000252000B221A621B621562049
:100480006C696D6974002D64560064542F647400A7
:100490007B2284224722AC22B32208236D233B23F4
:1004A00041239E23AC23B5230106070D0500020658
:1004B0000708090B0C0D04050300021006070809C4
:1004C0000B0C0D0405030002100A0E0F0B0C0D049B
:1004D0000503000210060708090B0C0D04050300B4
:1004E00002100F0B0C0D040503000607040D050098
:1004F000000001020304050E0001020304050607C3
:100500000E08090A0B0E0C0D0E410548055705662D
:10051000056E05780584058C059B05000041056E78
:1005200005A805B2059B050000410548055705666D
:10053000056E0578059B05000041056E059B0500CD
:1005400000636861726765006368617267652B624A
:10055000616C616E6365007375706572636861726A
:1005600067652B622E0062616C616E636500646971
:1005700073636861726765006661737420636861A4
:100580007267650073746F726167650073746F7270
:100590006167652B62616C616E63006564697420DC
:1005A0006261747465727900633E64206379636C80
:1005B0006500643E63206379636C6500626174204A
:1005C0006469736300696E707574205600636170AE
:1005D00020434F4646006578742054434F460043FD
:1005E0006F6E6E6563742042617474657279210068
:1005F0007C0685068E06000008090A08090A970687
:100600009D06A306A906AF06B506BB06C106C7062A
:100610000000061E1F20212223120006090A0B0CCF
:100620000D0E76616C75653A2000496F75743A203D
:100630002000CD06D2060000CD06D9060000436199
:100640006C6962726174696F6E004552524F52005C
:1006500043616C6962726174696F6E004552524FFA
:100660005200DF06E6060000ED06F6060000FF0673
:10067000070710071C072807340700005662307070
:10068000696E3A200056623170696E3A20005662F7
:100690003270696E3A200056696E3A200056623117
:1006A0003A20005662323A20005662333A20005611
:1006B00062343A20005662353A20005662363A20BB
:1006C0000056312D363A00566F75743A0035306D4C
:1006D0004100313030306D41003330306D410074B5
:1006E000656D703A200076616C75653A00706F69CF
:1006F0006E7420312E00706F696E7420322E007679
:100700006F6C74616765004920636861726765009A
:1007100049206469736368617267650074656D7010
:100720002065787465726E0063616C69622D3E5558
:10073000415254006578706572742044414E4745BB
:100740005221004B0754075E0700007365747469FB
:100750006E67730063616C696272617465007265D3
:100760007365742064656661756C74008025000093
:10077000004B00000096000000E1000000C20100F4
:1007800000007017640007000C0005007800581B7B
:100790000000080000000300C207CE07D907E007E9
:1007A000EA07F40700080A0815081E0828082F0899
:1007B00037080000432F6D004008490850085608CC
:1007C0005F08657874726E20543A202020006578A6
:1007D00074726E2054434F3A0064542F64743A008C
:1007E0004E694D48202D64563A004E694364202DD1
:1007F00064563A00432F44206379636C65733A0072
:1008000063617020434F66663A00696E70757420AC
:100810006C6F773A006469736368202B3A006261F9
:100820006C2E206572723A00554152543A20007382
:10083000706565643A20002020207265736574003D
:1008400064697361626C6564006E6F726D616C00E7
:100850006465627567006578742E20646562006562
:1008600078742E20416463001316181719070506C3
:100870001E1F202122237265736574696E672065CF
:100880006570726F6D3A00763A2039392E39392EFB
:10089000393920006300640073000000000000008C
:1008A000000000000000000403000500000000003C
:1008B0000000000000000000000000000000000038
:1008C0000000000001000000204080000000000047
:1008D00001020408102040800000010204081020DA
:1008E0004080000000804020100804020100000148
:1008F00002040810000202020000000000040404C8
:1009000004040404040000030303030303030300BB
:1009100000000101010101010101000002020202C7
:10092000020000390036003300300000003B003880
:10093000003500320000003A00370034003100007A
:10094000AD05D5107A21DC26203911241FBECFE554
:10095000D8E0DEBFCDBF10E0A0E6B0E0E2EBF8E704
:1009600002C005900D92AE3EB107D9F714E0AEEE8D
:10097000B0E001C01D92A93AB107E1F719E0CAE45D
:10098000D9E004C02297FE010E94DE3BC034D107AB
:10099000C9F70E94DC390C94573C0C940000CF93AB
:1009A00088E20E94273BC1E0892B09F0C0E089E280
:1009B0000E94273B892B11F080E001C082E0C82B08
:1009C0008AE20E94273B892B11F080E001C084E07D
:1009D000C82B8BE20E94273B892B11F080E001C0DD
:1009E00088E08C2BCF910895CF93C82F682F89E191
:1009F0000E94B83A6C2F8AE10E94B83A6C2F80E2CC
:100A00000E94B83A6C2F89E00E94B83A6C2F8BE0B4
:100A10000E94B83A6C2F80E1CF910C94B83ACF93F2
:100A2000DF93EC0111C061E08CE20E94F03A8CE8A7
:100A300090E00E947D3A60E08CE20E94F03A88E209
:100A400090E00E947D3A2197209769F7DF91CF913E
:100A50000895089580910301882331F08091040165
:100A60008F5F8093040102C0109204018091030102
:100A70008A3010F480E001C088E090910301943145
:100A800008F084E0909103019E3108F082E06091CB
:100A9000040168238CE20C94F03A809303010895DA
:100AA00061E068278CE00C94F03A80E00E94303AD4
:100AB00061E08CE00E94B83A61E08EE00E94B83AB2
:100AC00061E08EE10E94B83A61E08CE20E94B83A9F
:100AD00061E08DE00E94B83A61E08EE00E94B83A91
:100AE00061E08FE00E94B83A80E00E9450051092C9
:100AF000030120E042E060E18EEE90E00E944F179B
:100B00000E94492A0E94AE240E940F250E943006AE
:100B10000E94FC070C94660DCF93C82F682F61705C
:100B200089E10E94F03A6C2F62708AE10E94F03AEB
:100B30006C2F647080E20E94F03A6C2F687089E03C
:100B40000E94F03A6C2F60718BE00E94F03A6C2F9B
:100B5000607280E1CF910C94F03ACF92EF920F93B4
:100B600083E1C82E94E1E92E05E126E147E168E141
:100B70008EEE90E00E9403180F91EF90CF900895B1
:100B80001F920F920FB60F9211242F933F934F9302
:100B90005F936F937F938F939F93AF93BF93EF93E5
:100BA000FF932091080130910901809106019091F5
:100BB0000701820F931F9093070180930601809194
:100BC00006019091070126E0969587952A95E1F711
:100BD0002091060130910701AC0166E0440F551FDA
:100BE0006A95E1F7241B350B30930701209306012A
:100BF0002FB7F894309105013E3011F49BBD8ABDAA
:100C0000309105013D3021F02FBF0E942A0503C01D
:100C100099BD88BDF9CFFF91EF91BF91AF919F91A1
:100C20008F917F916F915F914F913F912F910F9095
:100C30000FBE0F901F9018959FB7F89470930901FD
:100C400060930801809305018E3019F48FB5806898
:100C500004C08D3019F48FB580628FBD9FBF089599
:100C60001FBC80E18EBD2FB7F89480E091E097BD66
:100C700086BD2FBF8EB5887F8EBD8EB581608EBD3F
:100C800089B7846089BF08958E3019F48FB58F7746
:100C900004C08D3019F48FB58F7D8FBD08954091BC
:100CA0000B0150910C0160910D0170910E01452FC7
:100CB000562F672F772767FD7A95CA0108951092FE
:100CC0001201109211018617970768F480E090E4F2
:100CD000A0E0B0E080930B0190930C01A0930D0174
:100CE000B0930E0108C010920B0110920C011092EB
:100CF0000D0110920E0180910B0190910C01A091B9
:100D00000D01B0910E01BA2FA92F982F882780933B
:100D10000B0190930C01A0930D01B0930E0181E0A3
:100D200080930A010895CF93DF93EC01C13080E6F0
:100D3000D80770F4C13080E4D80760F48EE00E94D8
:100D4000440660E08EE00E94F03ABE018DE00CC0E7
:100D5000C0E0D0E68DE00E94440661E08DE00E9494
:100D6000F03ABE0170548EE0DF91CF910C941C06D6
:100D700090931201809311016CEB76E680E00E9463
:100D8000080D9093100180930F010895CF93C82F01
:100D9000882319F080E00E94D30661E06C278EE181
:100DA000CF910C94F03ACF93DF93C82F882319F09A
:100DB00080E00E94C6068DE00E94440660E08DE05F
:100DC0000E94F03A8EE00E94440660E08EE00E94AD
:100DD000F03A10920A0161E06C278FE00E94F03A2D
:100DE000CC2361F080E00E94C808EC0186E00E94FC
:100DF000C808BE01DF91CF910C945F06DF91CF91BF
:100E000008950F931F9380910A01882309F474C0F9
:100E100080E00E94D10820910F0130911001281725
:100E2000390730F480E00E94D30610920A0164C0B2
:100E300082E00E94D108409111015091120160E0BE
:100E400070E000910B0110910C0120910D01309187
:100E50000E01481B590B61097109E4E0440F551F4D
:100E6000661F771FEA95D1F7040F151F261F371F3E
:100E700000930B0110930C0120930D0130930E0190
:100E800080910B0190910C01A0910D01B0910E0188
:100E9000B7FF08C010920B0110920C0110920D01C7
:100EA00010920E0180910B0190910C01A0910D0107
:100EB000B0910E010197A046B10560F080E090E08E
:100EC000A0E6B0E080930B0190930C01A0930D017C
:100ED000B0930E0180910B0190910C01A0910D0136
:100EE000B0910E01892F9A2FAB2FBB27A7FDBA9582
:100EF0001F910F910C9493061F910F910895BC01BF
:100F00008EE00C941C068770806287B90895CF9399
:100F1000DF9390916000891721F180936000C8B33E
:100F200090E2899F90011124CF71C22B98B3E6EE15
:100F3000F8E0E4912AB3DE2FD095D2232AB3815072
:100F4000823050F0892F8F71806C88BBE22BEABB16
:100F50008AE090E00E947D3A8FB7F894C8BBDABB74
:100F60008FBFDF91CF91089595E0899FF001112403
:100F7000E052FF4FE49181E0E11101C080E008956B
:100F800095E0899FF0011124E152FF4FE49181E047
:100F9000E11101C080E0089524B135B195E0899F49
:100FA000F0011124E252FF4FE491F0E0EE0FFF1F39
:100FB000E454FE4F932F80E0822B91838083089529
:100FC00010921301EDEDF0E084910E948307ECEDA7
:100FD000F0E084910C948707369A08950E947A2451
:100FE0009093DB018093DA010E94C4249093DD0189
:100FF0008093DC010C94D40C60E08FE10E94F03A05
:1010000060E08FE10E94B83A61E081E00E94B83A66
:1010100061E082E00E94B83A61E083E00E94B83A61
:1010200087E886B90C94E007CF93DF93D091130142
:101030008D2F0E94B407882321F0C0914402C17013
:1010400001C0C0E085E0D89FF0011124E452FF4FB9
:101050008491C11109C02091630330916403232B53
:1010600021F0873011F4C1E085E00E948707E0910C
:101070001301EF5F85E0E89FF0011124E352FF4F79
:1010800084910E9483078CE390E00E947D3A0E9445
:10109000EC073699FECFD09113018D2F8F5F0E9400
:1010A000CC0785E0D89FF0011124E352FF4F8491D3
:1010B0000E9483078CE390E00E947D3A0E94EC0737
:1010C0003699FECFC11104C0809113010E94CC0754
:1010D000809113018F5F0E94C00781110E94010758
:1010E000809113018E5F803118F48093130102C048
:1010F000109213010E94DA08882341F080911301B5
:10110000811104C0DF91CF910C94EE07DF91CF9154
:1011100008950C94E007CF93DF930E94C80AC09112
:101120002A01D0912B0102C00E94140880912A014B
:1011300090912B01C817D907B9F3DF91CF9108958A
:10114000CF92DF92EF92FF92CF93DF93EC010E9458
:10115000A52A6B017C01CC0EDD1EE11CF11C0E9456
:1011600014080E94A52A6C157D058E059F05B8F30D
:10117000DF91CF91FF90EF90DF90CF900895E82F0F
:10118000F0E0EE0FFF1FE252FE4F80819181089543
:10119000E82FF0E0EE0FFF1FEC58FE4F80819181A9
:1011A0000895E82FF0E0EE0FFF1FE454FE4F80811A
:1011B0009181089580914602089580912A0190912D
:1011C0002B010895E82FF0E0EE0FFF1FE45DFE4FC6
:1011D000808191810895613110F4423040F021E026
:1011E00030E0FC0133832283318320830895242F50
:1011F00030E0260F311D260F311D220F331F220F25
:10120000331F2E5F3F4F44E050E0B9010C94123C75
:10121000282FCA01213188F4623078F470E0620F1F
:10122000711D620F711D660F771F660F771F6E5F4E
:101230007F4F44E050E00C94303C0895FF920F93B0
:101240001F93CF93DF9300D000D0CDB7DEB7F12C42
:1012500088E0F89E80011124F801EC5AFF4F459177
:1012600055916591749149835A836B837C83AE0158
:101270004F5F5F4F60E08F2D0E940809F801E85A28
:10128000FF4F459155916591749149835A836B83C2
:101290007C83AE014F5F5F4F61E08F2D0E94080994
:1012A000F39481E1F812D4CF0F900F900F900F902C
:1012B000DF91CF911F910F91FF900895E82FF0E0FB
:1012C000EE0FFF1FEC58FE4F20813181E82FE250D6
:1012D000E83170F4F0E0E359FF4F8081882319F082
:1012E000813061F405C081E02333310540F404C04E
:1012F00081E0293E334018F480E0089581E00895AC
:10130000CF93C0E08C2F825E0E945E09882319F083
:10131000CF5FC630B9F78C2FCF9108952091A001EF
:101320003091A1018091140190911501A0911601B5
:10133000B0911701820F931FA11DB11D809314015D
:1013400090931501A0931601B09317010895609131
:1013500014017091150180911601909117012DE7EC
:1013600030E040E050E00E949E3B7727652F542FED
:10137000432FCA010895EAE9F1E08081918108953F
:101380008091520190915301039750F08091580140
:1013900090915901039720F083E090E00C94910E16
:1013A00080E0089590E0880F991FFC01EC58FE4FF3
:1013B000208131816217730718F4261B370B04C094
:1013C000AB01421B530B9A01FC01E45DFE4F273039
:1013D000310518F01182108206C0208131812F5F03
:1013E0003F4F31832083FC01EC58FE4F71836083B3
:1013F0000895CF92DF92EF92FF920F931F93CF93B6
:10140000DF93C0917401D091750160918401709156
:10141000850180918601909187016817790728F4EA
:101420009C01261B370BB90102C0681B790B8EE1AA
:101430000E94D20960918601709187018091880194
:10144000909189016817790728F49C01261B370BB6
:10145000B90102C0681B790B8FE10E94D20960912B
:101460008A0170918B0180E20E94D20960918C0107
:1014700070918D0181E20E94D20960918E0170917C
:101480008F0182E20E94D2096091900170919101D6
:1014900083E20E94D2090E948009F82E80E000E0D9
:1014A00010E00CC0E82FE25EF0E0EE0FFF1FEC58FA
:1014B000FE4F20813181020F131F8F5F8F11F2CFFA
:1014C000B80182E10E94D2090115110549F00C17FB
:1014D0001D0748F49E01201B310B293E334018F0B4
:1014E00010E0F12C02C0E80112E1BE0183E10E948C
:1014F000D2096F2D70E085E10E94D209612F70E062
:1015000084E10E94D2090E94A7098C010E94B5249F
:10151000882329F0E0907A01F0907B010BC00E94B3
:101520006B24882329F0E0907801F090790102C0C3
:10153000E12CF12CB70186E10E94D209B80188E1C3
:101540000E94D2099701DE010E94503B30E1C32E78
:1015500037E2D32EE12CF12CA70196010E949E3B8D
:10156000B90187E10E94D2099801DE010E94503B37
:10157000A70196010E949E3BB90189E1DF91CF91BD
:101580001F910F91FF90EF90DF90CF900C94D209B4
:10159000109245021092440280E094E0899FF0018D
:1015A0001124E050FE4F10821182128213828F5F4D
:1015B000813199F708951092270110922601109217
:1015C0002201109223011092240110922501109201
:1015D0001E0110921F011092200110922101109201
:1015E00029011092280110921D0110921C010E94E5
:1015F000A52A609318017093190180931A019093A2
:101600001B01089580E0E82FF0E0EE0FFF1FE45D7E
:10161000FE4F118210828F5F8432A9F708950E94D5
:10162000C80A0C94020B10922B0110922A011092FE
:1016300014011092150110921601109217010E94C8
:1016400089080E940F0B0E94DB0A80E0E82FF0E07F
:10165000EE0FFF1FEC58FE4F118210828F5F843215
:10166000A9F708958091460281110AC081E00E9485
:1016700050050E94130B81E0809346020C948B0866
:1016800008951092460280E00C9450052091BE010E
:101690003091BF018091BC019091BD0182179307E9
:1016A00018F4281B390B02C020E030E081E0293E0D
:1016B000334008F480E008958F929F92AF92BF92DA
:1016C000CF92DF92EF92FF92CF93DF93CDB7DEB749
:1016D00028970FB6F894DEBF0FBECDBFF82E5B0182
:1016E00040E0682FCE0105960E94EB0841E06F2D87
:1016F000CE0101960E94EB082B813C8140E050E036
:10170000CF80D884E12CF12C2C193D094E095F09BA
:10171000B50180E090E08D809E80A12CB12C6819ED
:1017200079098A099B090E946E3B29813A8140E030
:1017300050E0281939094A095B090E94C03B2C0D69
:101740003D1D4E1D5F1D57FF03C020E030E0A90185
:10175000C90128960FB6F894DEBF0FBECDBFDF914A
:10176000CF91FF90EF90DF90CF90BF90AF909F9080
:101770008F9008951F93CF93DF9380912A019091CA
:101780002B01019690932B0180932A0110E0C12F29
:10179000D0E0FE01EE0FFF1FEE0FFF1FE050FE4FE7
:1017A000209144023091450240E050E06081718117
:1017B000828193810E949E3BCC0FDD1FC252DE4F7F
:1017C00039832883B901812F0E945C0BBC01812FD2
:1017D0000E94D2091F5F1131D1F60E94F9090E94BF
:1017E000B136DF91CF911F910C94C80A0F931F93CC
:1017F000CF93DF93C1E020919C0130919D018091B6
:10180000220190912301A0912401B0912501223160
:10181000310531F0C0E02091BC013091BD0104C020
:1018200020919A0130919B01820F931FA11DB11D40
:101830008093220190932301A0932401B09325016A
:101840002091CA013091CB0180911E0190911F011E
:10185000A0912001B0912101820F931FA11DB11D04
:1018600080931E0190931F01A0932001B09321014A
:1018700080912601909127010196909327018093F2
:1018800026010E94A52A00911801109119012091AA
:101890001A0130911B01601B710B820B930B613697
:1018A0007A4E8105910508F47AC0809128019091C3
:1018B0002901019690932901809328012091260106
:1018C0003091270140E050E06091220170912301A6
:1018D00080912401909125010E949E3B109222014B
:1018E000109223011092240110922501C11106C00B
:1018F000B90180E00E945C0B8C0101C08901C0919C
:10190000AA01D091AB010C171D0720F0B8018BE1A3
:101910000E94D209B8016C1B7D0B8AE10E94D2099A
:10192000209126013091270140E050E060911E0196
:1019300070911F0180912001909121010E949E3B96
:1019400010921E0110921F0110922001109221018D
:10195000B90187E00E945C0B20911C0130911D01B0
:1019600090931D0180931C01BC01621B730B8CE1E1
:101970000E94D20960912601709127018DE10E9499
:10198000D20910922701109226010E94A52A609385
:1019900018017093190180931A0190931B01DF9134
:1019A000CF911F910F91089540E0A42FB0E0FD0169
:1019B000EE0FFF1FEE0FFF1FE050FE4FAA0FBB1FE1
:1019C000A454BE4F2D913C9180819181A281B3811D
:1019D000820F931FA11DB11D80839183A283B383C6
:1019E0004F5F413111F78091440290914502019679
:1019F00090934502809344020E94F60B809144022A
:101A0000909145028436910511F40C94BA0B089517
:101A10008F929F92AF92BF92CF92DF92EF92FF92FE
:101A2000CF93DF93CDB7DEB728970FB6F894DEBF1C
:101A30000FBECDBFF82E5B0140E0682FCE010596AA
:101A40000E94EB0841E06F2DCE0101960E94EB0849
:101A500029813A8140E050E0CD80DE80E12CF12CFC
:101A60002C193D094E095F09B50180E090E08F8097
:101A70009884A12CB12C681979098A099B090E94C4
:101A80006E3B2B813C8140E050E0281939094A091E
:101A90005B090E94C03B2C0D3D1D4E1D5F1D57FF75
:101AA00003C020E030E0A901C90128960FB6F894E0
:101AB000DEBF0FBECDBFDF91CF91FF90EF90DF90E3
:101AC000CF90BF90AF909F908F9008950C94130B80
:101AD000462FE82FF0E0EE0FFF1FEC58FE4F20815D
:101AE00031818250883130F4E82FF0E0E359FF4F24
:101AF000608101C061E0C9010C940316825E0C9400
:101B0000C80880916D02089580916B02811112C006
:101B10000E94DA08882381F00E94DD0820914702A4
:101B200030914802821B930B9C0181E025303105E6
:101B300020F002C081E0089580E008950F931F9384
:101B4000CF93DF9310E0CFEFDFEF00E009C0812FEC
:101B50000E947E0D8C179D0710F4EC01012F1F5F72
:101B600080916D02181798F3802FDF91CF911F910C
:101B70000F910895CF93DF9390916B02911104C060
:101B8000DF91CF910C947E0D90915102C82FD0E03F
:101B9000992391F00E947E0DCC0FDD1FFE01EE5ABD
:101BA000FD4FC25ADD4F2081318148815981241B6C
:101BB000350B280F391F07C0FE01EE0FFF1FEE5A2D
:101BC000FD4F20813181C901DF91CF910895CF93DD
:101BD000C82F80916B02882341F0C11106C00E947A
:101BE000DD089093480280934702C0936B020E94E5
:101BF000A52A6093490270934A0280934B02909306
:101C00004C020E94020B80916A02811104C08C2F49
:101C1000CF910C948C05CF91089580E00E94E70D40
:101C200081E080936A0208950E940D0E80E00C947A
:101C3000F404EF92FF920F931F93CF93DF9381E011
:101C40000E94F40485E10E94C80880936D020EE5AD
:101C500012E032E5E32E32E0F32EC0E0D0E00CC01B
:101C60008C2F0E947E0DF801819391938F01F701D3
:101C7000819391937F01219680916D0290E0C81726
:101C8000D90774F310926B0210926A0280E00E94EE
:101C9000E70D1092480210924702109249021092EA
:101CA0004A0210924B0210924C02DF91CF911F9189
:101CB0000F91FF90EF900895FF920F931F93CF9392
:101CC000DF9380916C020E94BA0DEC01F12C01E0CF
:101CD00010E01CC08F2D0E94BA0DAC0180916B02E8
:101CE000802321F0C417D50778F40DC0209161033B
:101CF000309162032F5F3F4F369527952C0F3D1F84
:101D00002417350708F4102B000FF39480916D020F
:101D1000F81600F3812FDF91CF911F910F91FF9063
:101D200008951F93CF93DF93EC0110E008C0812F3B
:101D3000825E0E94E2088C179D0738F01F5F809139
:101D40006D021817A0F381E001C080E0DF91CF9110
:101D50001F910895BF92CF92DF92EF92FF920F935F
:101D60001F93CF93DF938AE090E00E94910E882327
:101D700009F461C00E949E0D80936C020E947E0D4A
:101D80008C0162E08CE792E00E94DE1908171907C7
:101D900050F172E5E72E72E0F72EEEE5CE2EE2E08E
:101DA000DE2EC0E0D0E0BB24B39416C08C2F0E947E
:101DB0007E0DF701819391937F01F60181939193B9
:101DC0006F01801B910B20916103309162032817F2
:101DD000390708F4B12C219680916D0290E0C81764
:101DE000D90724F302C0BB24B394109251020E947D
:101DF000A52A60934D0270934E0280934F029093F8
:101E00005002BB2059F0DF91CF911F910F91FF90AD
:101E1000EF90DF90CF90BF900C940D0E0E945C0E5F
:101E2000DF91CF911F910F91FF90EF90DF90CF90B6
:101E3000BF900C94E70DDF91CF911F910F91FF9010
:101E4000EF90DF90CF90BF900895CF938091510293
:101E5000811119C081E08093510280916C020E942F
:101E60007E0DC0E00CC08C2F0E947E0DEC2FF0E0A8
:101E7000EE0FFF1FE25AFD4F91838083CF5F809169
:101E80006D02C81780F3CF9108950F931F930E949E
:101E9000A52A00914D0210914E0220914F023091DF
:101EA0005002601B710B820B930B28EE33E040E075
:101EB00050E00E949E3BC9011F910F91089583E05D
:101EC00090E00E94910E8823C9F080916B028111ED
:101ED00003C00E94AA0E12C00E94250F0E945C0E31
:101EE00090E08095909520916B0230E082239323BF
:101EF000892B81F40E94450F4F9760F40E94840D56
:101F0000882311F082E0089580916A028823D1F33A
:101F100081E0089580E00E94E70DF0CF1F93CF93FA
:101F2000DF93EC0110E00FC0812F0E947E0D8C1713
:101F30009D0710F081E00CC0812F0E94BA0D8C1714
:101F40009D07C0F71F5F80916D02181768F380E04E
:101F5000DF91CF911F9108951F93CF93DF93EC01F1
:101F600010E00FC0812F0E947E0DC817D90710F016
:101F700081E00CC0812F0E94BA0DC817D907C0F7A5
:101F80001F5F80916D02181768F380E0DF91CF9199
:101F90001F91089560916D02662321F070E00E9408
:101FA0008A3B02C060E070E0CB0108950E945512A8
:101FB0000E9414200E9404340E949D2B88E00C94FF
:101FC0001A340E9455120E94222086E00E941A3480
:101FD0000E949D2B88E00C941A34E0916E02F091DF
:101FE0006F0285919491FC010994E0916E02F09149
:101FF0006F02329685919491FC010994E0916E02F2
:10200000F0916F02349685919491FC010994CF93DD
:10201000DF931F92CDB7DEB7811107C00E94F51E76
:102020000E94F50F0E94E10F0FC0813059F46983BF
:102030000E94F51E0E94F50F6981611105C00E9482
:10204000D60F02C081E001C080E00F90DF91CF91F8
:102050000895BF92CF92DF92EF92FF920F931F935A
:10206000CF93DF938C01C62E0E94ED0F0E94D71EE6
:102070000E94C22B0E945512F12C82E0D82EC0E0A3
:10208000D0E0EE24E3940E94F033811106C0F80101
:10209000EF0DF11D84910E9432210E94E311B82EB0
:1020A00084E0B81209C0EF2DF0E03196E00FF11F87
:1020B000E491E11123C005C082E0B81202C0F11022
:1020C000FA94EE2081F00E94CC2BD82E6C2D0E9429
:1020D0000710E82E882339F00E94DD08C817D907B9
:1020E00079F4E11003C0C11016C0E12C81E0B812F0
:1020F000CACF0E94F51E0E94F50F0DC0F394E1CFE8
:102100000E94DD08EC010E94FE0FD82E6C2D0E946B
:102110000710E82EE6CF8D2DDF91CF911F910F9103
:10212000FF90EF90DF90CF90BF900895FC01248145
:102130002052621710F40C942918862F90E0821B0D
:1021400091090E94A41A6EE00C94931360E080E75A
:1021500092E00E94251987FD0AC0811102C00C94EB
:102160004D31992787FD909501970C949E260895EF
:102170000E9455050E940C350E94993162E471E07D
:1021800082E391E00E94F71F88EE93E00E94A0088E
:1021900061E671E081E591E00E94F71F88EE93E02F
:1021A0000E94A00880E00C9490396FE671E080E70F
:1021B00092E00E94371889E890E090937102809332
:1021C0007002E4E7F2E08081805E80830895CF931F
:1021D000DF93EC010E944D128B819C810E94901331
:1021E0000E9451126A8188819981DF91CF910C946C
:1021F0002C13FC0187818F3118F48F5F878308953A
:1022000086818F5F86830895FC018781882319F07A
:1022100081508783089586818150868308951F9316
:10222000CF93DF93FC01C681D0E06D2F80E00E9448
:1022300047121C2F105F8C2FCF5F0E94EA138C2F48
:10224000C113FACFDF5FD23081F7DF91CF911F91B9
:1022500008951F93CF93DF93EC018EEE90E00E94E0
:1022600004171FEF8E81181721F0CE010E940F1165
:102270001E818F81682F70E094E0759567959A951F
:10228000E1F78F700E9447120E94E311823049F0FB
:10229000843019F0813049F413C0CE010E94F91046
:1022A000E1CFCE010E940411DDCF8830D9F68D81B7
:1022B000E881F981E80FF11D8F819E81890F80836C
:1022C000DF91CF911F910895FC0171836083428358
:1022D00034832383158280E2868317820895CF9307
:1022E000DF93EC018EEE90E00E9404170E945512DD
:1022F000CE010E94E71061E08D810E9447120E948A
:10230000E3118230B1F0843041F08130C1F48EEEBF
:1023100090E00E940C1780E026C04D81242F30E011
:102320008A8190E00197281739072CF74F5F4D837A
:10233000E2CF8D818823F9F281508D83DCCF883004
:10234000D1F682E00E943612823048F083E00E948B
:102350001A348EEE90E00E940C1781E004C0CE018A
:102360000E942911C3CFDF91CF9108950C94CF041F
:10237000E0917A02F0E0EE0FFF1FE558FE4F259145
:102380003491C9010895CF93DF93D82F0E94CF04D1
:1023900007C082E390E00E94A0080E94CF04DC2FD7
:1023A000C82F8D13F6CF10927A0210927902809383
:1023B0007B02882319F080E00E94263480917B0202
:1023C000DF91CF910895FF920F931F93CF93DF93E7
:1023D000C0E0D0E0F12C0AEF10E015C00E94CF045D
:1023E000F82E81E090E00E94A00880917B02F81214
:1023F00002C0219608C08F2DDF91CF911F910F91C0
:10240000FF900C94C31140917A02242F30E0220FE8
:10241000331FF901E757FE4F65917491C8010E947F
:102420008A3B6F5F7F4FC617D707C0F2FF20B1F01E
:10243000509179025F5F50937902F901E956FE4F9E
:1024400085919491252F30E02817390738F04630D0
:1024500018F44F5F40937A021092790280917B02C8
:10246000DF91CF911F910F91FF900895CF93DF934C
:10247000D82FC0917B020E94E31190917A029D17A0
:1024800011F08C17C1F3892FDF91CF910895462F5A
:10249000682F8EEE90E00C941B1760E080E00C94A7
:1024A000471261E080E00C9447128EEE90E00C94AD
:1024B0004817CF93DF93FC01DB018C91882389F0CF
:1024C000C081D181488380819181019691838083ED
:1024D0008C9181508C93882321F00190F081E02D24
:1024E0001082DF91CF910895BF92CF92DF92EF9249
:1024F000FF920F931F93CF93DF93EC018B017A012F
:102500004115510501F1CA010E94EB3BF801908190
:10251000B82E981708F4B92ECB2CD12CA601B701F0
:10252000888199810E94F43B288139812C0D3D1DC1
:1025300039832883F80180818B198083882319F0DF
:10254000E881F9811082DF91CF911F910F91FF9067
:10255000EF90DF90CF90BF900895EF92FF921F937E
:10256000CF93DF9300D000D0CDB7DEB77C01CA0196
:102570004B835C8369837A830E94212B182F6981A6
:102580007A81DB018C914B815C81811768F44FE388
:10259000C7010F900F900F900F90DF91CF911F9177
:1025A000FF90EF900C945912F70120813181210F97
:1025B000311D31832083DB018C91811B8C93882317
:1025C00021F00190F081E02D1082F9012AE030E045
:1025D0000CC0CA01B9010E948A3B405DBAE06B9F02
:1025E0004019112442931150AB011111F2CF0F90F9
:1025F0000F900F900F90DF91CF911F91FF90EF9070
:1026000008950F931F93CF93DF93CDB7DEB72B972A
:102610000FB6F894DEBF0FBECDBF8E010F5F1F4F08
:102620001A87098727E02B87AC01BE01655F7F4FC2
:10263000CE0109960E94AD12B8018EEE90E00E9484
:10264000273A2B960FB6F894DEBF0FBECDBFDF91B1
:10265000CF911F910F9108951F93CF93DF93CDB723
:10266000DEB761970FB6F894DEBF0FBECDBF0097FF
:10267000D1F0162F613108F010E1412F50E0BC017C
:10268000CE0101960E94033CE1E0F0E0EC0FFD1F5B
:10269000E10FF11D1082BE016F5F7F4F8EEE90E063
:1026A0000E94273A01C080E061960FB6F894DEBF21
:1026B0000FBECDBFDF91CF911F9108951F93CF9390
:1026C000DF93CDB7DEB761970FB6F894DEBF0FBECC
:1026D000CDBF0097D1F0162F613108F010E1412FE6
:1026E00050E0BC01CE0101960E94F43BE1E0F0E035
:1026F000EC0FFD1FE10FF11D1082BE016F5F7F4FD8
:102700008EEE90E00E94273A01C080E061960FB6FD
:10271000F894DEBF0FBECDBFDF91CF911F9108951A
:1027200060E10C945E13CF92DF92EF92FF920F93D1
:102730001F93CF93DF93CDB7DEB762970FB6F894B0
:10274000DEBF0FBECDBF009761F1613108F060E1DF
:102750007C01CC24C394D12CCC0EDD1E86011CC080
:10276000C7016A8B0E94223CF80181938F01FFEF21
:10277000EF1AFF0A6A8981110FC0E1E0F0E0EC0F67
:10278000FD1FE60FF11D1082BE016F5F7F4F8EEEC1
:1027900090E00E94273A06C0802F8C19861700F31C
:1027A000ECCF80E062960FB6F894DEBF0FBECDBFCF
:1027B000DF91CF911F910F91FF90EF90DF90CF901D
:1027C0000895882319F089EA91E002C08DEA91E02A
:1027D0000C949013682F8EEE90E00C94293ACF93CE
:1027E000DF931F92CDB7DEB7682F06C080E2698302
:1027F0000E94EA13698161506430C4F785EA91E070
:102800000F90DF91CF910C945E130F931F93CF9392
:10281000DF93062F142F64E670E00E948A3BEB01E1
:1028200080E20E94EA1380E20E94EA13C436D105D6
:1028300048F480E20E94EA13CA30D10518F480E21D
:102840000E94EA13CE010E940113802F0E94EA1316
:10285000812F0E94EA1380E2DF91CF911F910F91A7
:102860000C94EA13CF93DF93D82FC0E004C080E22A
:102870000E94EA13CF5FCD13FACF8C2FDF91CF9157
:10288000089580E10C9432146AE00E947E3B892F07
:10289000805D0C94EA13DF92EF92FF920F931F93E7
:1028A000CF93DF93EC01162F16160CF059C064E697
:1028B00070E00E948A3BD62EE72ECB010E94212B8E
:1028C000082F23E0F22EF80E04C080E20E94EA13E3
:1028D0001150F116D4F3412F552747FD50952F2D58
:1028E000332727FD3095235031094217530754F4FD
:1028F000812FDF91CF911F910F91FF90EF90DF908B
:102900000C94EF138D2D9E2D0E940113CE0164E6D1
:1029100070E00E948A3BEC01101B012F0150111640
:102920001CF48EE20E94EA13102F1150101644F48A
:10293000CE016AE070E00E948A3B862F0E94441418
:10294000111674F4CE016AE070E00E948A3BDF91B8
:10295000CF911F910F91FF90EF90DF900C94441452
:10296000DF91CF911F910F91FF90EF90DF9008952D
:10297000CF92DF92EF92FF920F931F93CF93DF934B
:10298000EC01162FC42E16160CF088C068EE73E00A
:102990000E948A3BD62EE72ECB010E94212BF82ED7
:1029A000082F0C5F04C080E20E94EA131150011747
:1029B000D4F31017DCF0C11019C0CE010E94212BF6
:1029C000082F03C080E20E94EA1311500117D4F3CC
:1029D000CE010E9401138DE6DF91CF911F910F91DF
:1029E000FF90EF90DF90CF900C94EA13412F552782
:1029F00047FD5095202F332727FD3095245031096E
:102A0000421753075CF4812FDF91CF911F910F91F3
:102A1000FF90EF90DF90CF900C94EF138D2D9E2DB3
:102A20000E940113CE0168EE73E00E948A3BEC0124
:102A30001F19012F015011161CF48EE20E94EA1397
:102A4000102F1150101644F4CE0164E670E00E947D
:102A50008A3B862F0E944414CE0164E670E00E94F7
:102A60008A3BEC01012F015011163CF46AE070E042
:102A70000E948A3B862F0E94441410167CF4CE01DB
:102A80006AE070E00E948A3BDF91CF911F910F9125
:102A9000FF90EF90DF90CF900C944414DF91CF9192
:102AA0001F910F91FF90EF90DF90CF9008956F925C
:102AB0007F928F929F92AF92BF92CF92DF92EF92CE
:102AC000FF920F931F93CF93DF937C01962E742E6A
:102AD000822E16160CF044C021119A94C7010E9450
:102AE000212BC0E0D0E0082F10E0A92CBB24A7FCCC
:102AF000B09404C0872D0E94EA132196692C6C1AA9
:102B00006501CC1ADD0A0C151D05A4F3882019F007
:102B10008DE20E94EA13C016D1068CF4862DDF9157
:102B2000CF911F910F91FF90EF90DF90CF90BF90CA
:102B3000AF909F908F907F906F900C94EF13C70190
:102B4000DF91CF911F910F91FF90EF90DF90CF9089
:102B5000BF90AF909F908F907F906F900C940113D7
:102B6000DF91CF911F910F91FF90EF90DF90CF9069
:102B7000BF90AF909F908F907F906F90089520E0CE
:102B80000C94571540E20C94BF15CF93DF936CE380
:102B900070E00E948A3B9B01EC0140E363E0C901C5
:102BA0000E94BF158AE30E94EA1340E362E0CE016F
:102BB000DF91CF910C94BF15292F221F2227221FAE
:102BC00019F091958195910940E20C9457151616CC
:102BD00034F461500E944B1483E40C94EA1308957A
:102BE000161634F461500E94C21585E20C94EA1363
:102BF000089563303CF062500E94C21581EB91E071
:102C00000C9490130895CF93DF93C62F1416C4F538
:102C1000642F6150C33079F020F4C13091F048F452
:102C20001EC0C530D9F078F0C63091F0C730D1F46D
:102C300011C040E201C048E667E5DF91CF910C94F6
:102C40000514D6E510C0642FDF91CF910C94E715E1
:102C5000D4EF06C00E94DC1585E50EC06150D1E4BA
:102C600040E002C0D5E541E00E94B8148D2F0E94DB
:102C7000EA13C53029F488E6DF91CF910C94EA136A
:102C8000DF91CF910895462F66E00C940316462FEE
:102C900061E00C940316462F60E00C940316462F57
:102CA00065E00C940316CF93DF93EC0160E08E8116
:102CB0000E94F03A81E090E00E947D3A61E08E81CE
:102CC0000E94F03A81E090E00E947D3A60E08E81BF
:102CD0000E94F03A84E690E0DF91CF910C947D3A27
:102CE000CF92DF92EF92FF920F931F93CF93DF93D8
:102CF0007C01C0E0D0E0C62ED12C87010C0F1D1F37
:102D000061E0F80187810E94B83AB6010C2E02C03A
:102D1000759567950A94E2F761707727F8018781C6
:102D20000E94F03A2196C430D10539F7C701DF91EE
:102D3000CF911F910F91FF90EF90DF90CF900C9467
:102D40005316CF92DF92EF92FF920F931F93CF9380
:102D5000DF937C01C0E0D0E0C62ED12C87010C0FA0
:102D60001D1F61E0F80187810E94B83AB6010C2E60
:102D700002C0759567950A94E2F761707727F801AC
:102D800087810E94F03A2196C830D10539F7C701F2
:102D9000DF91CF911F910F91FF90EF90DF90CF9037
:102DA0000C9453161F93CF93DF93EC01162F642FCF
:102DB0008C810E94F03A8D818F3F19F060E00E9473
:102DC000F03A8F85612F84FF06C0CE01DF91CF914D
:102DD0001F910C94A11670E084E0759567958A9513
:102DE000E1F7CE010E947016612FCE01DF91CF91E5
:102DF0001F910C94701641E00E94D21681E090E081
:102E0000089540E00C94D216FC016089262F2160C1
:102E1000208B69600C940117FC0160896E7F608BC8
:102E200068600C940117FC016089262F2460208BB8
:102E30006C600C940117CF93DF93CDB7DEB7289762
:102E40000FB6F894DEBF0FBECDBF28E0E5E6F0E098
:102E5000DE01119601900D922A95E1F7FC0123897C
:102E6000421710F0422F4150FE013196E40FF11D40
:102E7000E40FF11D2081260F2068622F28960FB6DF
:102E8000F894DEBF0FBECDBFDF91CF910C94011738
:102E900061E00E94011780ED97E00C947D3ACF939A
:102EA000DF93EC01423018F08F8588608F874B8B61
:102EB0001C8A222329F0413019F48F8584608F8782
:102EC00080E593EC0E947D3A60E08C810E94F03AAC
:102ED00060E08E810E94F03A8D818F3F19F060E0B2
:102EE0000E94F03A6F8564FD1DC063E0CE010E9430
:102EF000701684E991E10E947D3A63E0CE010E9460
:102F0000701684E991E10E947D3A63E0CE010E944F
:102F1000701686E990E00E947D3A62E0CE010E9440
:102F2000701616C06062CE010E94011784E991E11B
:102F30000E947D3A6F856062CE010E94011786E98A
:102F400090E00E947D3A6F856062CE010E94011779
:102F50006F856062CE010E94011784E0888BCE01EC
:102F60000E941317CE010E94481782E0898B66E009
:102F7000CE01DF91CF910C9401176F927F928F92C7
:102F8000AF92CF92EF920F931F93CF93DF93CDB772
:102F9000DEB73C01162F842F5D854E853F859889CD
:102FA000F301848325830683E782C086A186828617
:102FB000538744873587968761E00E94B83AF301CA
:102FC00085818F3F19F061E00E94B83A61E0F3011A
:102FD00086810E94B83A112319F0F301178603C0C5
:102FE00080E1F301878720E041E060E1C301DF91E8
:102FF000CF911F910F91EF90CF90AF908F907F90D6
:103000006F900C944F178F92AF92CF92EF920F93D5
:10301000DC0113961C921E921297EFE8F0E0ED93FC
:10302000FC931F921F921F921F928C2CAE2CC02ECD
:10303000E22E042F2FEF462F61E00E94BD170F9064
:103040000F900F900F900F91EF90CF90AF908F90C7
:103050000895FC0127818085E22FF82FE60FF11DEE
:10306000E60FF11D25913491C9010C9490130F9333
:103070001F93CF93DF93EC018B01CB010E94D82AE1
:10308000682FCE010E949A1887E990E0998388837F
:1030900018870F83DF91CF911F910F910895DF92D1
:1030A000EF92FF920F931F93CF93DF93EC01F62ED5
:1030B00069871A8681E08D8382E0D82EEE24E3941E
:1030C0008E01075F1F4F0E94E311482F823011F0DD
:1030D000843061F4E881F9810280F381E02D6F2D65
:1030E000CE010995F986DA86ED8204C0813089F037
:1030F000883079F0C8010E94B12B8111ED828D8159
:10310000882319F0CE010E94C7188A858F5F8A87AD
:10311000DACF8FEF898781E08E838D83483009F085
:1031200080E0DF91CF911F910F91FF90EF90DF90A2
:1031300008950895FC018DE990E0918380831282C7
:103140001382648381E0858386830895FC01228154
:10315000211103C081E082830895438130E0240F70
:10316000311D848190E001972817390714F44F5FCF
:1031700043830895FC018281882319F08150828362
:1031800008958381882311F08150838308951F93CC
:10319000CF93DF93EC0110E0612F80E00E94471293
:1031A00080E20E94EA13E881F9816B81610F01904E
:1031B000F081E02DCE0109950E9441141F5F12306D
:1031C00059F76A8180E00E9447128EE30E94EA1359
:1031D0006A818FE00E9447128CE30E94EA131D82ED
:1031E000DF91CF911F9108950F931F93CF93DF939A
:1031F000EC010E94E311182F0E94F033882321F084
:1032000081E08D831FE71BC00B818A81080F12307C
:1032100031F0143039F4CE010E94A61803C0CE015B
:103220000E94BA188B819A81890F081711F081E0EA
:103230008D838D81882319F0CE010E94C718812FBC
:10324000DF91CF911F910F910895EF92FF921F93FD
:10325000CF93DF931F92CDB7DEB77C0181E0F701FA
:10326000858311E0C70169830E94F4186981811187
:1032700002C0F7011682F7019681911108C08830CB
:1032800031F481E0868383819281890F09C06623AE
:1032900011F0F7011583813029F79111E3CF8FEFFA
:1032A0000F90DF91CF911F91FF90EF9008950F93B2
:1032B0001F93CF93DF93EC018B0150E00E94AD127E
:1032C0004AE3B801CE01DF91CF911F910F910C9489
:1032D0005912EF92FF920F931F93CF93DF9300D079
:1032E0001F92CDB7DEB78C01462F09969A8389834A
:1032F0008EE08B83D801EC91F0E0EE0FFF1FEC54D1
:10330000FE4FE590F490BE016D5F7F4FCE010196B8
:103310000E945719A701BE016D5F7F4FCE01019634
:103320000E94741240E2BE016D5F7F4FCE01019694
:103330000E945912F80141815281BE016D5F7F4F99
:10334000CE0101960E94AD124FE2BE016D5F7F4F2C
:10335000CE0101960E945912D80117964D915C91A9
:103360001897BE016D5F7F4FCE0101960E94AD128E
:103370000F900F900F90DF91CF911F910F91FF90C1
:10338000EF90089527E1289FB001299F700D112427
:1033900064577F4F47E150E08CE792E00C94123C79
:1033A00027E1289FB001299F700D112464577F4F9A
:1033B00047E150E08CE792E00C94303CDC01EC916A
:1033C000B6E0EB9FF0011124E60FF11DEE0FFF1F99
:1033D000EC53FE4F25913491C9010895CF93DF93AB
:1033E000EC010E94DE194F815885849F9001859FD2
:1033F000300D949F300D1124C901DF91CF910895B4
:103400000F931F93FC01A181B28120915B03309146
:103410005C030E94503B24E630E040E050E00E9414
:103420009E3B89019A01093EFDEF1F0721053105E9
:1034300020F008EE1DEF20E030E0C8011F910F9151
:103440000895FC012081213029F420915703309107
:10345000580309C0223029F42091550330915603B6
:1034600002C020E030E0FC0187819085289FA00108
:10347000299F500D389F500D1124CA010895E3E58E
:10348000F3E0808191810895FC016081F9E06F9FF4
:10349000B00111246C5D7D4F49E050E00C94E23B9B
:1034A000DC01EC91F0E0EE0FFF1FEC54FE4F259194
:1034B0003491C9010C945E1360E170E00C94501AD1
:1034C000CF93DF93EC01888160E0811108C0CE01C9
:1034D0000E94EE1967E00E94471687E011C0CE01F6
:1034E0000E94EE1965E00E9447168FE20E94EA13DF
:1034F0008F8198850E94011383E40E94EA1388E07B
:10350000DF91CF91089566E0FC01838194810E9450
:103510004B1686E0089566E0FC01858196810E9445
:103520004B1686E00895FC0181819281883EFDEF73
:103530009F0729F48CE692E00E94901303C067E095
:103540000E944F1688E0089547E1489F9001499FE7
:10355000300D11242B563F4FC90108950F931F932F
:10356000CF93DF93CDB7DEB7A4970FB6F894DEBF45
:103570000FBECDBF8C01AB01BC01CE0101960E94F4
:103580005B1CCE0101960E94C91C87E1FE013C969E
:10359000D80101900D928A95E1F7A4960FB6F894A0
:1035A000DEBF0FBECDBFDF91CF911F910F91089568
:1035B000FC012081260F283010F4208302C0FC017A
:1035C00010820C94441A0F931F9361E00E94EE192D
:1035D0009C0140E050E060E870EF8AEF92E00E94CA
:1035E0009E3B89019A01013787E1180721053105C2
:1035F00020F000E717E120E030E0C8011F910F91B3
:1036000008950F931F9361E00E94EE199C0140E022
:1036100050E060E876E988E990E00E949E3B8901ED
:103620009A01013D87E018072105310520F000EDE2
:1036300017E020E030E0C8011F910F9108950F932B
:103640001F93CF93DF9300D0CDB7DEB78C01698392
:103650007A830E94E31AAC0169817A81C8010396DA
:103660000F900F90DF91CF911F910F910C94512BE0
:103670000F931F93CF93DF9300D0CDB7DEB78C01AC
:1036800069837A830E94011BAC0169817A81C80138
:1036900005960F900F90DF91CF911F910F910C9491
:1036A000512B61E00E94DE19BC0184ED92E60E947C
:1036B0008A3BCB0108950F931F93CF93DF9300D0E4
:1036C000CDB7DEB78C0169837A830E94511BAC01B0
:1036D00069817A81C80107960F900F90DF91CF9191
:1036E0001F910F910C94512BCF93DF93EC010E940B
:1036F000511B2F8138858217930710F498878F8389
:10370000CE010E94E31A2B813C818217930710F4AB
:103710009C838B83CE010E94011B2D813E818217E9
:10372000930710F49E838D83DF91CF910895CF93FB
:10373000DF93EC0148EE5DEF01960E94512B8981E9
:103740009A819C838B832881233039F49C013695A0
:103750002795369527953C832B839E838D83CE01B9
:10376000DF91CF910C94741BDF92EF92FF920F9335
:103770001F93CF93DF9300D01F92CDB7DEB749E000
:1037800050E06AE572E08CE792E00E94E23B8CE751
:1037900092E00E94741B00E010E05EE0D52E65E828
:1037A000E62E62E0F62EDB82FA82E982402F4F5F3E
:1037B000BE016D5F7F4FCE0101960E945719C8016F
:1037C0000E94D0190F5F1F4F0032110561F70F9053
:1037D0000F900F90DF91CF911F910F91FF90EF907D
:1037E000DF90089508950895262F443019F06FEF63
:1037F0007FEF02C061E070E0223089F028F42223DC
:1038000041F02130A9F408C0233061F0243081F464
:103810000CC00B960C94D81A0B960C945B1B0B9651
:103820000C94971B0B960C941F1B0B960C94381B37
:1038300008951F93CF93DF93EC01162F0E94291850
:10384000CE0109960E94A62B882311F0298501C07C
:103850002FEF332727FD3095812F90E02817390768
:1038600029F11230A9F028F4112341F01130F1F4BC
:103870000AC0133091F01430C9F414C0CE010B9675
:103880000E945C1A13C0CE010B960E94601A0EC0F3
:10389000CE010B960E94931A09C0CE010B960E948E
:1038A000831A04C0CE010B960E948B1A80E0DF9130
:1038B000CF911F910895EF92FF920F931F93CF9393
:1038C000DF93EC018B017A0160EA72E00E94371805
:1038D0008FEF898783EA90E09983888387E1F801F5
:1038E000DE011B9601900D928A95E1F7FBA2EAA2F8
:1038F000DF91CF911F910F91FF90EF9008950F935B
:103900001F93CF93DF93CDB7DEB728970FB6F89408
:10391000DEBF0FBECDBF8C01BC016C5E7F4F20EBC4
:1039200032E04EE050E0CE0101960E946411CE01DB
:1039300001960E946F1181E0F801858328960FB6E9
:10394000F894DEBF0FBECDBFDF91CF911F910F91D5
:103950000895CF93DF93EC016AA17BA16F5F7F4F46
:103960000B960E9469190E9455120E944D128BEB12
:1039700092E00E9490130E9451126EE0CE01449694
:103980000E942C130E949D2B83E0DF91CF910C9419
:103990001A34DF92EF92FF920F931F93CF93DF932E
:1039A000CDB7DEB767970FB6F894DEBF0FBECDBFB9
:1039B0008C0187E1D82E9BE0E92EF12CE00EF11E60
:1039C00060E0C8010E94251987FD2BC0853019F0E1
:1039D000863049F404C0C8010E94A91CF1CFC80177
:1039E0000E947F1CEDCFF701DE0111969D2D019005
:1039F0000D929A95E1F7682FC8010E944F18811126
:103A000009C0FE013196D7018D2D01900D928A9546
:103A1000E1F7D6CF83E00E941A34C7010E94741BDD
:103A2000CFCF67960FB6F894DEBF0FBECDBFDF9144
:103A3000CF911F910F91FF90EF90DF9008958091AB
:103A40004F0390915003892BA1F08CE10E94C8088C
:103A500065E02AE0AC01249FC001259F900D112450
:103A60000E94DC158DE60E94EA1383E40E94EA13AB
:103A700004C086EA93E00E9490130C9441148AE1FA
:103A80000E94C80865E00E94DC158DE60E94EA13DA
:103A900086E50E94EA130C944114CF93DF9300D083
:103AA000CDB7DEB789839A830E944D1289819A81AE
:103AB0000E9490130E9451128091B8029091B90215
:103AC0000E94EB3B892B51F08FE893E00E9490130A
:103AD0008091B8029091B9020E9490130F900F90BC
:103AE000DF91CF910C94411490E0880F991F62E010
:103AF00089509D4F0C945E130F931F93CF93DF93C8
:103B000061E08CE792E00E94EE198C0165E08CE7A1
:103B100092E00E94EE19EC0183E10E94C808801730
:103B20009107B8F4C817D907B0F49C012C1B3D0BC2
:103B3000C8018C1B9D0B64E670E00E948A3BC901A2
:103B40000E948A3BCB016436710530F083E690E039
:103B500003C084E601C080E0DF91CF911F910F91F7
:103B60000895613011F40C94BA0D0C943628CF935B
:103B7000DF93D82FC62F825E0E945E09882351F002
:103B80006C2F8D2F0E94B11D46E06C2FDF91CF91DD
:103B90000C94031686E193E0DF91CF910C9490137F
:103BA0000F931F93CF93DF93C82F162F0E944D12B0
:103BB0000E94840D811108C083E090E00E94910E64
:103BC000882341F080E209C080915102882321F0CE
:103BD00082E403C08DE601C082E60E94EA13809170
:103BE0006B028823C9F0D0E001E080916C02D81705
:103BF00031F080916B02802321F081E303C08FE5D7
:103C000001C080E30E94EA13000FDF5FD63069F73E
:103C100080E20E94EA1303C087E00E943214DC2F86
:103C2000DF5F8D2F0E9444148AE30E94EA13C111C2
:103C30002AC00E94B524882331F10E94C424892B14
:103C400039F521C00E9441140E9451120C2F0E5FC1
:103C5000802F0E9444148AE30E94EA13612F8D2F63
:103C60000E94B71D8C2F8D5F0E9444148AE30E942E
:103C7000EA13612F802F0E94B71DDF91CF911F9112
:103C80000F910C944114612F8C2F0E94B71DDACF35
:103C90008DE193E00E949013D5CF88E10E94C8087F
:103CA00068E00E944F1680E20C94EA130E944D12C5
:103CB0008CE792E00E94001A68E00E944F1680E2B2
:103CC0000E94EA130E941F2867E00E944B160E9480
:103CD00041140E94511282E293E00E94901367E027
:103CE00080913F03909140030E9447160C94411429
:103CF0000F931F9360919E0270919F028091A0028A
:103D00009091A10220919302222371F00E94A52A92
:103D100000919E0210919F022091A0023091A10279
:103D2000601B710B820B930B28EE33E040E050E0F8
:103D30000E949E3BC9011F910F9108950E946B2420
:103D4000811110C00E94B524882331F00E946B2499
:103D500081110AC084E40BC00E94840D811106C049
:103D60008EE405C083E403C085E401C082E40E94C0
:103D7000EA1380E20E94EA130E94781E0E94C51591
:103D800080E20C94EA130E944D120E944D1E67E0DF
:103D900086E10E94680D0E9441140E9451120E9407
:103DA0009E1E67E083E10E94680D0C9441140E94FE
:103DB000A52A60939E0270939F028093A002909325
:103DC000A10210929A0210929B0210929C021092F1
:103DD0009D021092960210929702109298021092F1
:103DE000990281E08093930208950F931F930E949C
:103DF000A52A00919E0210919F022091A00230916D
:103E0000A102601B710B820B930B60939E02709357
:103E10009F028093A0029093A102109293021F919F
:103E20000F9108950E94712481111DC00E94BB242E
:103E3000811119C00E94840D882351F180919A024A
:103E400090919B02A0919C02B0919D0280599F4F3E
:103E5000AF4FBF4F80939A0290939B02A0939C0216
:103E6000B0939D0208958091960290919702A0913F
:103E70009802B091990280599F4FAF4FBF4F8093E6
:103E8000960290939702A0939802B0939902D2CF92
:103E90000895CF92DF92EF92FF920E944D128BE233
:103EA00093E00E9490130E94781E0E94C5150E9404
:103EB000511286E393E00E94901360919A027091F0
:103EC0009B0280919C0290919D0238EEC32E33E0BC
:103ED000D32EE12CF12CA70196010E949E3BC90133
:103EE0000E94C51589E393E00E94901360919602A9
:103EF000709197028091980290919902A701960182
:103F00000E949E3BC901FF90EF90DF90CF900C94F0
:103F1000C5150E944D128CE393E00E9490130E94FD
:103F2000402868E00E9443160E9441140E945112EA
:103F300082E10E945E09882349F085E493E00E94B3
:103F400090130E94462868E00E9443160C94411486
:103F50000E944D128EE493E00E94901367E086E089
:103F60000E94680D0E9441140E94511286E593E060
:103F70000E94901347E061E080915D0390915E03A1
:103F80000E9403160C9441140E944D128EE593E09A
:103F90000E94901367E080E00E94680D0E94411427
:103FA0000E94511285E693E00E94901367E082E13F
:103FB0000E94680D0C9441140E944D128CE693E00F
:103FC0000E94901380914F0390915003892B29F008
:103FD00065E087E00E94680D04C082E793E00E94DC
:103FE00090130E9441140E9451120C9441140F939B
:103FF0001F93CF93DF9300D0CDB7DEB78B018983BA
:104000009A830E9455120E944D1289819A810E94C2
:1040100090130E945112C8010F900F90DF91CF9121
:104020001F910F910C94901384E793E00E944D1D13
:104030000E94511285E893E00E9490130E94781E1E
:104040000C94C51588E993E00C944D1D0E944D1207
:104050000E944D1E0E941F1D0E9451120E949E1E12
:104060000C943F1D0E944D128FEA93E00E94901322
:1040700067E08BE10E94680D0E9441140E9451127A
:1040800088EB93E00E9490130C943F1DCF930E9405
:104090007C1DC82F0E944D1268E087E10E94680DC8
:1040A00082EC93E00E94901367E086E10E94680D25
:1040B0000E9441140E94511268E089E10E94680D3B
:1040C00084EC93E00E94901364E08C2F90E00E94B7
:1040D000C21587EC93E00E949013CF910C94411489
:1040E0000E944D1289EC93E00E94901380914F033F
:1040F00090915003892B41F069E080911C019091CF
:104100001D010E94E71504C08FEC93E00E949013FC
:104110000E9441140E94511288ED93E00E94901376
:104120000C941F1D6FEE73E082EE93E00C94F71F6A
:104130000E9492200C949D2B60E174E08FEF93E03D
:104140000E94F71F88E893E10C94BB2A0E944D124D
:104150008BE194E00C94901384EF91E00E94BB2AD1
:104160006DE374E08CE294E00E94F71F84EF91E02D
:104170000E94BB2A6FE574E08EE494E00E94F71F72
:1041800084EF91E00C94BB2ACF930E944D1264E01F
:1041900070E08CE792E00E94501A80E20E94EA13DD
:1041A0008CE792E00E94601A80E20E94EA138091FC
:1041B000BA020E94741D0E9451120E947C1D90E060
:1041C0008436910569F484E992E00E94A62B882345
:1041D00021F084E00E9432140AC080E794E005C018
:1041E00062E00E94C21585E794E00E94901384E982
:1041F00092E00E94A62B882319F0C091940201C07E
:10420000CFEFC0FF05C065E080E00E94680D03C0ED
:1042100085E00E94321480E20E94EA1380917C02C1
:1042200084508430A8F4C1FF05C065E082E10E949B
:10423000680D03C085E00E943214C2FF05C00E94D1
:104240008009CF910C94441480E2CF910C94EA132E
:1042500066E080917D0290917E020E944F16CF9180
:104260000C944114909195029F5F90939502883031
:1042700059F168F48430F1F030F48230B9F0C0F4D0
:104280008130B9F526C08630C9F0D0F415C08C3025
:1042900021F120F48A3059F1F0F419C08E3019F16F
:1042A000F0F08F3011F1803121F51BC00C94C31E4A
:1042B0000C94561E0C94491F0C94DC1F61E005C041
:1042C00061E083E00C94D01D66E080E0FBCF66E007
:1042D000F8CF0C94C4200C94891F0C94C41F0C9428
:1042E000A81F0C9446200C9432200C9470200C943F
:1042F000262008958FEF8093940208950F931F93C3
:10430000CF93DF930E948D24C0917F02D0918002D1
:1043100061E08CE792E00E94EE198C01CE0165E02D
:1043200070E00E948A3B8FE00E94080DEC0140E0A3
:10433000BC01C8010E946A288FE00E949228CE0129
:10434000DF91CF911F910F910C947F2481E00C9409
:104350009B240E94C009882321F00E947A240C9497
:104360003A2908951092A2020C947E21CF93DF93F4
:104370000E94A9210E94BB09EC018091A202811137
:1043800011C062E08CE792E00E94EE198C179D0745
:1043900048F481E08093A20280917F029091800294
:1043A0000E9487240E94C0098823D9F164E08CE729
:1043B00092E00E94EE198C179D0758F132C080914F
:1043C000A302882389F08AE10E94C808EC018CE7E7
:1043D00092E00E94211AD195C195D1098C179D07B1
:1043E0001CF486E894E017C08091A402811101C0FA
:1043F0000EC08CE10E94C808EC018CE792E00E949C
:104400003F1A8C179D071CF48AE894E004C082E0F0
:104410000FC08EE794E09093B9028093B80281E0D8
:1044200007C08091280190912901029740F6EFCFB3
:10443000DF91CF9108958093A4026093A302089521
:104440007093A8026093A7029093A6028093A5029E
:1044500008950F931F93CF93DF93C091A502D0913E
:10446000A602CE010E94CA0F8C010E94BB09C81788
:10447000D90738F4C801DF91CF911F910F910C94A7
:10448000AC0F81E0DF91CF911F910F9108950F93B1
:104490001F93CF93DF930E942922182F0E94C424D8
:1044A000EC010E94C009882311F001E001C0012F36
:1044B0008091A902882329F0BE01812F0E94EA2859
:1044C00001C0812F882329F081E00E94FC2481E033
:1044D0000DC0011101C009C0BE01812F0E94092A2F
:1044E0008C179D0711F00E94E02482E0DF91CF91AC
:1044F0001F910F9108950E94EE240E94190E1092B0
:10450000A90280E10C94922881E00E94FC240C9482
:10451000140EBC0180E10E94080D0C940D280F932D
:104520001F93CF93DF938C01EB010E942022BE01E9
:1045300080E10E94080D40E0BC01C8010E946A2889
:10454000CE016AE070E00E948A3BCB01DF91CF91FF
:104550001F910F910C9489220E94190E0E948D24A4
:104560008FE00C94922881E00E949B240C94140EFE
:104570000F931F93CF93DF931F92CDB7DEB78C01BC
:104580008FE049830E94080D4981BC01C8010F904A
:10459000DF91CF911F910F910C946A280F931F9375
:1045A000CF93DF931F92CDB7DEB78C018FE04983A5
:1045B0000E94080D4981BC01C8010F90DF91CF9185
:1045C0001F910F910C947E28BC018FE00E94080D72
:1045D0000C940D280F931F93CF93DF93C0913F034B
:1045E000D0914003CE010E94CA0F8C010E94BB09EA
:1045F0008C179D0738F4C801DF91CF911F910F915F
:104600000C948E0F81E0DF91CF911F910F9108954F
:104610001F93CF93DF930E94EA22182F0E947A24DF
:10462000EC01BC01812F0E94EA28882329F081E057
:104630000E949B2481E01BC00E94C00981110BC015
:10464000111109C0CE010E942728811104C00EC09B
:104650000E947F240BC00E94840D811107C0BE01FF
:10466000812F0E94092A8C179D0791F782E0DF9124
:10467000CF911F9108950E94B3220E9484220C942E
:10468000140ECF93DF931F92CDB7DEB79091AB029C
:10469000913039F018F0923081F406C00E9408235E
:1046A0000CC00E94472209C00E945F0F823089F02F
:1046B00089830E943B2389810CC0813051F4909101
:1046C000AA02992331F082E08093AB020E94190E76
:1046D00082E00F90DF91CF9108950E94190E809192
:1046E000AC029091AD020E94CA0F0E94AC0F8823C9
:1046F00029F00E94AC221092AB0208950E947B2206
:1047000081E08093A9028093AB0208958093AA026E
:1047100008950F931F93CF93DF93EC018A01909339
:10472000AD028093AC0240E00E94B822B801CE01F5
:10473000DF91CF911F910F910C948F220E94EE2454
:1047400087E08093940282E0809395020E94133464
:1047500083E08093AF02089581E00E94FC248FEFF4
:104760008093940288E00C941A34FF920F931F9365
:10477000CF93DF9380E00E945E09FF24F394F82634
:104780008091AE02882379F00E9480099091830283
:1047900001E0981301C000E011E0811110E09130B8
:1047A00021F4112311F010E000E00E948009811132
:1047B00029C0112339F182E10E94C808EC0180E090
:1047C0000E94C808C817D90728F49C012C1B3D0B70
:1047D000E90102C0C81BD90BC53FD14008F065C034
:1047E00011C08091BA02882331F0843021F08530E5
:1047F00011F0863039F40E94AC2081E00E941A3416
:1048000010E000E082E10E945E098823B1F082E1BD
:104810000E94C808EC0180E00E94C808C817D907A8
:1048200028F49C012C1B3D0BE90102C0C81BD90BCD
:10483000C53FD14010F0FF24F394011102C087E07E
:1048400001C083E080939402112329F080919402A7
:10485000825080939402FF2029F08091940281502D
:1048600080939402011104C0111102C0FF2011F0C5
:1048700081E001C088E00E941A340E94B6118111C3
:1048800002C01092AF02011108C0111106C0F11050
:1048900004C00E94B611883079F08091AF02823056
:1048A00011F481E00FC082E00DC080917C02845041
:1048B000843008F496CFA6CF8091AF028F5F8093AB
:1048C000AF02EBCFDF91CF911F910F91FF90089531
:1048D0008093AE02089581E09091B202911180E040
:1048E000089581E02091B0023091B102232B09F4A8
:1048F00080E008958091B0029091B1020895909364
:10490000B1028093B0020E94B8060C940F0BBC0158
:104910008FE00E94080D0C947F248091B2028823BE
:1049200049F080E090E00E947F2481E00E94D3065D
:104930001092B2020895CF93C82F8091B2028111D4
:104940000BC0CC2349F080E090E00E947F2480E0FF
:104950000E94D306C093B202CF91089580E090E008
:104960000E947F2481E00C949B2481E09091B70207
:10497000911180E0089581E02091B5023091B60256
:10498000232B09F480E008958091B5029091B6023E
:104990000895482F8091B3029091B4022091B502FE
:1049A0003091B6028217930711F4442341F090939B
:1049B000B6028093B5020E947F070C940F0B0895F6
:1049C0009C01213080E4380710F020E030E430937F
:1049D000B4022093B30281E00C94C9248091B70201
:1049E000882349F080E090E00E94E02481E00E946A
:1049F000C6061092B7020895CF93C82F8091B702D0
:104A000081110BC0CC2349F080E090E00E94E024AB
:104A100080E00E94C606C093B702CF91089580E05F
:104A200090E00E94E02481E00C94FC2408958091A1
:104A30007C02873051F0982F9450943048F0815088
:104A4000823048F42DEC32E008C02BEB32E005C098
:104A500024EC32E002C026ED32E0C901089582EA7A
:104A600094E090936F0280936E0290917C02945038
:104A700081E0943008F080E00E94682461E088EAD8
:104A800094E00E94291091E0813009F090E0892F94
:104A900008950F931F93CF93DF930E948623009175
:104AA000810210918202C0917F02D091800263E066
:104AB0008CE792E00E94EE19A801BE010E948923B2
:104AC0008CE994E090936F0280936E0260E08EEA2E
:104AD00094E0DF91CF911F910F910C942910EF92E8
:104AE000FF920F931F93CF93DF938C01CFE7D2E018
:104AF000E880F98061E08CE792E00E94EE1940E0E6
:104B0000B7010E94B82288819981B8010E948A3B2E
:104B1000CB010E94E42286E994E090936F02809397
:104B20006E0260E08AEB94E0DF91CF911F910F91CC
:104B3000FF90EF900C942910CF93DF93C0917F02E8
:104B4000D091800261E08CE792E00E94EE1941E092
:104B5000BE010E94B82286E994E090936F02809390
:104B60006E0260E08AEB94E0DF91CF910C94291003
:104B7000CF93DF93C0917F02D091800261E08CE7F8
:104B800092E00E94EE1941E0BE010E94CE2286E929
:104B900094E090936F0280936E0260E08AEB94E061
:104BA000DF91CF910C94291081E020914F03309137
:104BB0005003232B09F480E061E00E941B2288E768
:104BC00094E090936F0280936E0260E087EC94E033
:104BD0000C94291062E08CE792E00E94EE1960913B
:104BE000810270918202E0918302F09184024091EF
:104BF0005F0350916003E49F9001E59F300DF49FA7
:104C0000300D1124820F931F0E948F2280E994E0BF
:104C100090936F0280936E0260E083ED94E00C94B9
:104C20002910CF93DF93C0918102D091820262E07C
:104C30008CE792E00E94EE19BE010E948F2280E96B
:104C400094E090936F0280936E0260E080EE94E0B7
:104C5000DF91CF910C9429108CE291E090936F0238
:104C600080936E0260E08AEE94E00C942910CF935A
:104C7000C82F8093BA0220EF34E03093B90220931A
:104C8000B8028E3030F4E82FF0E0E155FF4F80811C
:104C900001C080E0809361000E9475350E94320B54
:104CA0000E942F25882309F444C084E00E941A340E
:104CB000C53031F168F4C230B9F128F4CC23B9F031
:104CC000C130A9F52EC0C330A9F0C43081F515C09C
:104CD000C83009F128F4C630C1F0C73041F517C01B
:104CE000CC3071F0CD3049F0C93009F517C08AE0F9
:104CF00090E008C00E942C261CC00E94EA2519C022
:104D000085E090E00E946F2514C080E001C081E042
:104D10000E9449250EC00E94D4250BC00E94112676
:104D200008C00E949C2505C00E94B82502C00E94B0
:104D300098200E94410BCF910C9485350F931F93BF
:104D4000CF93DF93EC010E94C2190E9417258C01BA
:104D500060E0C8010E94251987FD29C090917C025E
:104D6000E82FFF27E7FDF095973019F4EF50FB4F40
:104D70000FC0892F8450843018F4E850FB4F08C0CE
:104D80009150923018F4EF5FFA4F02C0EA5FFA4F89
:104D900084918E3049F4BE018CE792E00E94AE1AF5
:104DA000CE010E94D019D1CF0E943726D1CFDF91FA
:104DB000CF911F910F91089569E075E084EC92E026
:104DC0000E9437186DE175E08DEC92E00E94371873
:104DD00069E275E08BEB92E00E94371869E375E0B9
:104DE00086ED92E00C943718FC0142815381411505
:104DF000510589F0A081B181B7FF03C0B195A1959C
:104E0000B10928EE33E00E945C3B9A0140E050E09B
:104E10000E949E3B02C020E030E0C90108950F933C
:104E20001F93CF93DF9300D000D0CDB7DEB78C01B6
:104E3000862FF801628173810E945C0B9C838B83B7
:104E4000F801808191819A838983CE0101960E9425
:104E5000F4260F900F900F900F90DF91CF911F913C
:104E60000F9108950F93FC01CA01002341F06417CC
:104E7000750708F4CB014617570748F409C04617D1
:104E8000570708F4CB016417750708F401C0BA018D
:104E90009783868391838083138212821582148282
:104EA00033872287681B790B718760870F9108957C
:104EB000FC019B0140E050E086819781281B390B63
:104EC00041095109A285B3850E94633B2085318544
:104ED000442737FD4095542F0E94C03B21153105D2
:104EE00081E0480751051CF457FD04C005C02FEFB1
:104EF0003FEF02C020E030E0C9010895DF92EF9259
:104F0000FF920F931F93CF93DF93EC012A813B8194
:104F10002417350720F4FA01E21BF30B03C0F90153
:104F2000E41BF50B8C819D81969587958E179F07C5
:104F300088F5888199818617970720F4FB01E81B83
:104F4000F90B03C0FC01E61BF70BEF2BF9F422C0B1
:104F50008A01021B130B7B01E81AF90A06C07C01C7
:104F6000E61AF70A8901041B150BC7010E94F22AF1
:104F7000D82E888599850E94F22AD8120BC01D83ED
:104F80000C83F986E8861B870A8704C02417350737
:104F9000F8F2E5CFDF91CF911F910F91FF90EF9045
:104FA000DF9008950F931F93CF93DF93EC018B0154
:104FB0009A01A885B9850E945C3B2A853B8540E023
:104FC00050E00E94C03BC801A0E0B0E08217930708
:104FD000A407B5071CF41F821E8204C0021B130B1A
:104FE0001F830E83DF91CF911F910F910895EF9250
:104FF000FF920F931F93CF93DF93EC018B017A0104
:105000000E947E27A701B801CE01DF91CF911F91A9
:105010000F91FF90EF900C94D227909346038093CA
:10502000450308958091E102813029F420914503E0
:105030003091460302C020E030E0C901089560913C
:105040004103709142038091E3020C945C0B209128
:10505000E602213041F041E02091450330914603C2
:105060008217930708F040E0842F08952CE0829F78
:10507000C00111246091E30281519D4F0C940F27D0
:105080006091E30287E393E00C940F27CF93DF93C3
:1050900000D000D0CDB7DEB780E00E94C8089A8368
:1050A000898382E10E94C80829813A81281B390B33
:1050B0003A83298386E10E94C8089C838B83CE01B2
:1050C00001960E94F4260F900F900F900F90DF91A1
:1050D000CF9108959093400380933F0370934203D0
:1050E00060934103CB016AE070E00E948A3B7093B9
:1050F0004603609345034093E20208959093400372
:1051000080933F037093420360934103CB0164E1BA
:1051100070E00E948A3B709346036093450340937E
:10512000E2020895EF92FF920F931F93CF93DF93C4
:1051300091E09093E102FF24F3948F3009F0F12C79
:105140008093E30268EC70E00E94080D90934403A2
:10515000809343030E94BB0920914503309146038D
:1051600040913F03509140030F2DBC018FE293E02B
:105170000E9432270E94810D8093E40280913F03B8
:10518000909140030E94CA0FEC0110E08CE0E82EE1
:1051900012C0812F0E94BA0DBC01209145033091AD
:1051A0004603E19EC00111240F2DAE0189519D4F90
:1051B0000E9432271F5F8091E402181750F310926B
:1051C000E6021092E502DF91CF911F910F91FF90BF
:1051D000EF9008950F931F93CF93DF93082FEB0168
:1051E0008091E2028823C9F0409143035091440327
:1051F00020914503309146032417350708F49A019E
:105200002C173D0710F410926A028091E60281305B
:1052100021F00E945F0F8093E1028091E1028130D2
:1052200019F58091E602823041F411E020914503A6
:1052300030914603C217D30708F010E00E941228ED
:105240008C179D0778F0111103C0011101C00AC02D
:105250009091E502892F8F5F8093E50281E09A307B
:1052600020F402C01092E50280E0DF91CF911F91FF
:105270000F9108950F931F93CF93DF93EC010E943A
:10528000BB09AE01BC018FE293E00E94F72710E05A
:105290000CE00DC0812F0E94BA0DBC01019FC0011E
:1052A0001124AE0189519D4F0E94F7271F5F809105
:1052B000E402181778F3DF91CF911F910F910895B1
:1052C000CF92DF92EF92FF920F931F93CF93DF93D2
:1052D00060913F03709140038FE293E00E94582752
:1052E000EC0180913F03909140030E94CA0F7C0122
:1052F000D12C9CE0C92E12C0CD9C800111240951F3
:105300001D4FB701C8010E945827C817D90728F0B8
:10531000B701C8010E945827EC01D3948091E402A0
:10532000D81650F3CE01DF91CF911F910F91FF90CE
:10533000EF90DF90CF9008950F931F93CF93DF935B
:105340008B0180933D0390933E0320914103309164
:105350004203EC012817390708F4E9010E941228DA
:105360009C018C179D0708F49E010217130719F181
:105370008091E6028230A9F42017310790F08091E5
:1053800045039091460380179107A0F040913B039D
:1053900050913C0380914702909148024817590769
:1053A00049F0809147029091480290933C0380938A
:1053B0003B0301C09801C901DF91CF911F910F916B
:1053C00008950F931F93CF93DF93EC010E94BB09C5
:1053D0009093300380932F03D0933203C093310313
:1053E00010E00CE00DC0812F0E94BA0D019FF0016A
:1053F0001124E951FD4F91838083D383C2831F5FC2
:105400008091E402181778F3DF91CF911F910F91EB
:1054100008951F93CF93DF93182FEB01CB010E94C8
:105420003A29CE010E94E1290E9460299093E0026E
:105430008093DF02BE010E949C299C018091E602BC
:10544000811110C0112389F08091E202882321F09C
:105450000E940D0E10926A0281E08093E60220E025
:1054600030E003C082E08093E602C901DF91CF9172
:105470001F9108950F931F930091470310914803C4
:105480002091490330914A03B801C9011F910F913E
:10549000089512BE8DE78CBF88E083BF83B7836019
:1054A00083BF89B7826089BF089580914703909137
:1054B0004803A0914903B0914A030196A11DB11D73
:1054C0008093470390934803A0934903B0934A0302
:1054D00008950E94552A0E94F3340E94C02B0E9416
:1054E000290580916200815019F08093620008952F
:1054F00081EE809362000E9416250E948E090C9412
:10550000121F1F920F920FB60F9211242F933F93E9
:105510004F935F936F937F938F939F93AF93BF93BB
:10552000EF93FF930E94692AFF91EF91BF91AF9192
:105530009F918F917F916F915F914F913F912F91AB
:105540000F900FBE0F901F9018950F931F938FB75A
:10555000F89400914703109148032091490330913A
:105560004A038FBF3695279517950795B801C9014E
:105570001F910F910895CF92DF92EF92FF92CF93F8
:10558000DF93EC010E94A52A6B017C01CC0EDD1E8D
:10559000E11CF11C0E94A52A6C157D058E059F0556
:1055A000C8F3DF91CF91FF90EF90DF90CF900895F7
:1055B0009C0180E001C08F5FF901459154912E5FFD
:1055C0003F4F452BC1F7089521E030E09AE006C037
:1055D000A901949F9001959F300D11248150C0F72F
:1055E000C901089597FD02C081E008958FEF0895E5
:1055F000CF92DF92EF92FF92CF939B01AC016115A6
:1056000071058105910521F421E030E040E050E092
:10561000C0E08AE0C82ED12CE12CF12CCF5FCA016A
:10562000B901A70196010E949E3B21153105410554
:105630005105A1F78C2FCF91FF90EF90DF90CF9085
:105640000895BC0180E090E00C94F82AFC01808170
:105650009181860F971F97FF03C0118210820895D2
:10566000242F30E0281739071CF440831182089555
:10567000918380830895FC0180819181860F971F1B
:10568000181619061CF081E090E008C0242F30E0C5
:10569000281739071CF44083118208959183808371
:1056A0000895DF92EF92FF920F931F93CF93DF93B2
:1056B000EC018A01DD24D394161617060CF0D12CC8
:1056C000E880F980B70180E090E00E94F82A8230FB
:1056D00028F082500E94E42A9C0102C021E030E0C0
:1056E000C701B9010E948A3B009739F0DD2019F00B
:1056F000281B390B04C09C010EC0DD2061F0C801DD
:10570000821B930BE816F90618F489010E0D1F1D74
:10571000198308830AC02E153F0518F4E21AF30A0C
:1057200002C0E12CF12CF982E882DF91CF911F9128
:105730000F91FF90EF90DF9008950E94E311811187
:10574000FCCF0E94E3118823E1F30895FC0120813E
:1057500027FD05C0818186958F5F8170089580E067
:105760000895FC01208127FD09C08181982F915067
:105770009695282F269581E0921301C080E0089528
:10578000089508956CE87EE680E00E94080D9093ED
:105790004C0380934B030895CF93DF9380E00E94E6
:1057A000D10820914B0330914C032817390718F486
:1057B0008CEB95E033C086E00E94C808EC0186E0DF
:1057C0000E945E09882381F180915D0390915E03C0
:1057D000C817D90708F128C08C179D0740F48DEC35
:1057E00095E09093B9028093B80281E02AC080913D
:1057F0004F0390915003892B11F482E022C087E07F
:105800000E94C8082091510330915203281739078C
:10581000A0F786ED95E002C085EC95E09093B90283
:105820008093B80280E00DC088E10E94C808EC01B6
:105830008CE792E00E94001A883E2DEF920761F6F5
:10584000D6CFDF91CF9108950F931F93CF93DF931E
:105850008C01443019F0CFEFDFEF02C0C1E0D0E09F
:105860000E94B811D8011B96EC91F0E0EE0FFF1FDB
:10587000EC58FE4F9C01C29FC001C39F900DD29F68
:10588000900D112420813181820F931F9183808399
:10589000DF91CF911F910F910895EF92FF920F9397
:1058A0001F93CF93DF931F92CDB7DEB78C014430A7
:1058B00021F0EE24EA94FE2C03C0EE24E394F12CB4
:1058C00069830E94B811D8011B96ED91FC911C9739
:1058D0006981E60FF11DE491F0E0EE0FFF1FEC5837
:1058E000FE4F9C01E29EC001E39E900DF29E900D42
:1058F000112420813181280F391F318320830F909B
:10590000DF91CF911F910F91FF90EF9008951F931A
:10591000CF93DF93EC01162F0E942918CE01099630
:105920000E94A62B882311F0298501C02FEF332771
:1059300027FD3095812F90E02817390769F0111164
:1059400005C067E08B850E94680D06C08B850E94AC
:10595000BF0867E00E94C215DF91CF911F910895A3
:105960001F93CF93DF93EC01162F0E942918CE01CD
:1059700009960E94A62B882311F0898501C08FEF1C
:10598000992787FD9095612F70E08617970741F062
:10599000EB85FC85E60FF71F84916D850E94680DED
:1059A000DF91CF911F910895CF93DF93EC010E9477
:1059B00037188FEF89878BEA90E099838883DF918E
:1059C000CF910895CF93DF9300D000D0CDB7DEB74D
:1059D00080E00E94BF089A83898382E10E94C80800
:1059E0009C838B83AE014F5F5F4F61E080E00E943C
:1059F00008090F900F900F900F90DF91CF910895AD
:105A00000F931F93CF93DF93CDB7DEB728970FB6D1
:105A1000F894DEBF0FBECDBF8C0189E00E94BF08A5
:105A20009E838D8388E00E94C808800F911F98870D
:105A30008F838AE00E94BF089A8389830F8118852B
:105A40008FE10E94C808800F911F9C838B83AE0159
:105A50004B5F5F4F61E089E00E940809AE014F5F34
:105A60005F4F61E08AE00E94080928960FB6F8941B
:105A7000DEBF0FBECDBFDF91CF911F910F91089573
:105A80000F931F93CF93DF9300D000D0CDB7DEB735
:105A90008C018AE00E94BF089A83898389E00E9472
:105AA000C808800F911F9C838B83AE014F5F5F4FAF
:105AB00061E08AE00E9408090F900F900F900F900C
:105AC000DF91CF911F910F91089560E070E08FED0D
:105AD00095E00E94F71F80E00E945E09811106C0D8
