:100000000C94B0040C94D8040C94D8040C94D80428
:100010000C94D8040C94D8040C94D8040C94D804F0
:100020000C94D8040C94CB050C94302D0C94EF3C1C
:100030000C94D8040C94AC3A0C94EA3A0C94D8047E
:100040000C94D8040C94D8040C94D8040C94D804C0
:100050000C94D804FA22E722E922EB22ED22EF22C7
:10006000F122F522F8220823FC22FE220023042399
:10007000062302230A23000000003ED73562000059
:100080000000F567E63007033200482BE803E1077C
:100090003200C32E2C010000000000000000000010
:1000A00000000000000000000000BDBBDF36C24CB5
:1000B000A40B0C4970170000000043BFA80E0000FD
:1000C000000008D75B1000000000B8DBBA20000079
:1000D000000003DB5F100000000000D6611000008C
:1000E00000001ED764100000000000DA61100C034D
:1000F0003200482BE803DA0232003A112C010006E4
:10010000080001FF010100000106090001FF0302D0
:10011000010002060A0001FF0000000006060E00B2
:1001200000FF0302010005060D0000FF02030000AE
:1001300004060C0000FF0302010003060B0000FF91
:10014000040600000706070000FF03020100240E5A
:100150001F0E6A0F436865616C6943686172676569
:1001600072007665723A20302E33326D00710100D4
:10017000006F7074696F6E7300010001000100016F
:100180000001000A006400010002000400100040A9
:10019000000001000401000300080007000700142C
:1001A000000700496E660079657300206E6F006D70
:1001B0005600AC02B402B902BE02C202C702CC02AF
:1001C000D102D6020100010001000100000001007F
:1001D000B0041C075203000008071405B0044006D1
:1001E000E803000008071405D0079209D6060000AE
:1001F00000006C07E40C100ED007E40C0000B80BF4
:10020000100E0410C409A60E0000AC0D740E681088
:10021000B80B0A0F0000890C740EFE10B80B0A0F01
:100220000000ED0C40066C07140540060000DC05DC
:1002300000980898086C0710275802019808980839
:100240006C070100E00102980898086C070100E0C3
:1002500001039808DC006C070600E0010498089888
:10026000086C070300780005980898086C070300DD
:10027000780006980898086C07030078000798082B
:1002800098086C070300780008980898086C070322
:10029000007800756E6C696D69746564006D696ED7
:1002A0002E00756E6C696D6974656400556E6B6EB9
:1002B0006F776E004E694364004E694D480050628E
:1002C0003F004C696665004C696C6F004C69706F4B
:1002D000004C693433004E695A6E00FE0205030A71
:1002E000030F03140319031F032D03000045646962
:1002F00074206E616D653A004E616D653A00426131
:10030000743A202000563A20200043683A200049E1
:10031000633A200049643A2000546C696D3A002029
:1003200020637265617465206E616D650020202018
:1003300065646974206E616D650043684342536271
:10034000426C446946435374534243684469435979
:100350004368446945420020202D2D2020006E2E48
:10036000612E004C696D6974733A200074696D6583
:100370003A202020202000622000202000626174AA
:10038000742E20523D00776972657320523D0056ED
:10039000696E7075743D00206C696D69743D00561E
:1003A0006F7574203D005662616C2E3D0054657877
:1003B000743D002D0070726F6772616D20636F6D08
:1003C000706C6574650054696D653A2000726561F2
:1003D000736F6E3A20004572726F72006E6F7420F8
:1003E000757365640020202057414954006D617881
:1003F000566F75743D0064656C746120563D200035
:1004000020002000202000202D2D3A2D2D00250039
:10041000546578743D006E6F742075736564006474
:10042000656C746120543D20004E2F4100706C6556
:100430006173652063616C696272617465006265F5
:10044000666F726520757365005245564552534577
:1004500020504F4C415249545900202020205741F0
:10046000524E494E470042616C616E636572206E68
:100470006F742E636F6E002020686F6C642062754D
:1004800074746F6E0020746F2053746172742F73D4
:10049000746F700043616C6962726174696F6E00A1
:1004A0004552524F520025200045233923492356F7
:1004B000206C696D6974002D64560064542F647457
:1004C000000E241724DA233F2446249B240025CE43
:1004D00024D42431253F2548252326FE25FF250148
:1004E00006070D05000210060708090B0C0D040590
:1004F00003000210060708090B0C0D040503000297
:10050000100A0E0F0B0C0D04050311000210060754
:1005100008090B0C0D0405030002100F0B0C0D0451
:10052000050311000607040D050000000102030485
:10053000050D00010203040506070D08090A0D0B4D
:100540000C0D78057F058E059D05A505AF05BB053E
:10055000C305D20500007805A505DF05D20500001A
:1005600078057F058E059D05A505AF05D205000020
:100570007805A505D20500006368617267650063B0
:1005800068617267652B62616C616E63650073758B
:100590007065726368617267652B622E0062616CC0
:1005A000616E6365006469736368617267650066A4
:1005B000617374206368617267650073746F726140
:1005C00067650073746F726167652B62616C616E41
:1005D0006300656469742062617474657279006493
:1005E0003E63206379636C650062617420646973A3
:1005F0006300696E70757420560063617020434F0C
:10060000464600542E206C696D697400657874202C
:1006100054434F4600436F6E6E65637420426174AD
:100620007421008B0694069D06000008090A08093B
:100630000AA606AC06B206B806BE06C406CA06D0AE
:1006400006D6060000061E1F2021222312000609DE
:100650000A0B0C0D0E76616C75653A2000496F75BA
:10066000743A202000DC06E1060000DC06E8060003
:1006700000EE06F5060000FC06050700000E071355
:10068000071C07280731073D0700005662307069D4
:100690006E3A200056623170696E3A20005662321E
:1006A00070696E3A200056696E3A20005662313AFF
:1006B00020005662323A20005662333A20005662D9
:1006C000343A20005662353A20005662363A20000D
:1006D00056312D363A00566F75743A0035306D41FB
:1006E00000313030306D41003330306D4100746581
:1006F0006D703A200076616C75653A00706F696EB6
:100700007420312E00706F696E7420322E00766F67
:100710006C740049206368617267650049206469F0
:10072000736368617267650074656D7020657874C5
:100730000063616C69622D3E5541525400657870CA
:100740006572742044414E474552210054075D07AD
:100750006707000073657474696E67730063616C8A
:1007600069627261746500726573657420646566A0
:1007700061756C740080250000004B00000096003D
:100780000000E1000000C2010000007017640007D3
:10079000000C0005001E007800581B000008000037
:1007A000000300CF07DB07E607ED07F70701080D99
:1007B00008190823082E083708410848085008007F
:1007C00000432F6D005908620869086F08780865B2
:1007D0007874726E20543A20202000657874726E0E
:1007E0002054434F3A0064542F64743A004E694DCC
:1007F00048202D64563A004E694364202D64563AD1
:1008000000432F44206379636C65733A007761730A
:10081000746520542E3A20200063617020434F6697
:10082000663A00696E707574206C6F773A0064697F
:10083000736368202B3A0062616C2E206572723AF5
:1008400000554152543A200073706565643A2000A7
:1008500020202072657365740064697361626C6541
:1008600064006E6F726D616C00646562756700652F
:1008700078742E20646562006578742E204164636C
:100880000013161817190705061E1F2021222372B0
:1008900065736574696E6720656570726F6D3A0087
:1008A000763A20312E312E3120006300640073002F
:1008B0000000000000000000000000000004030031
:1008C0000500000000000000000000000000000023
:1008D00000000000000000000000010000002040B7
:1008E0008000000000000102040810204080000089
:1008F0000102040810204080000000804020100801
:1009000004020100000102040810000202020000BB
:1009100000000004040404040404040000030303AE
:1009200003030303030000000101010101010101B0
:1009300000000202020202000039003600330030DB
:100940000000003B0038003500320000003A00375C
:10095000003400310000B805DA100D235329DC3BC8
:1009600011241FBECFE5D8E0DEBFCDBF10E0A0E66A
:10097000B0E0EAE2FEE702C005900D92AA3FB1079F
:10098000D9F714E0AAEFB0E001C01D92A33FB10770
:10099000E1F719E0C0E6D9E004C02297FE010E9409
:1009A0009A3EC635D107C9F70E94983C0C94133F74
:1009B0000C940000CF9388E20E94E33DC1E0892BB4
:1009C00009F0C0E089E20E94E33D892B11F080E04C
:1009D00001C082E0C82B8AE20E94E33D892B11F01E
:1009E00080E001C084E0C82B8BE20E94E33D892BAC
:1009F00011F080E001C088E08C2BCF910895CF9357
:100A0000C82F682F89E10E94743D6C2F8AE10E94F3
:100A1000743D6C2F80E20E94743D6C2F89E00E942F
:100A2000743D6C2F8BE00E94743D6C2F80E1CF9160
:100A30000C94743DCF93DF93EC0111C061E08CE224
:100A40000E94AC3D8CE890E00E94393D60E08CE271
:100A50000E94AC3D88E290E00E94393D21972097AA
:100A600069F7DF91CF910895089580910F01882350
:100A700031F0809110018F5F8093100102C01092BD
:100A8000100180910F018A3010F480E001C088E0ED
:100A900090910F01943108F084E090910F019E3104
:100AA00008F082E06091100168238CE20C94AC3D68
:100AB00080930F01089561E068278CE00C94AC3DB1
:100AC00080E00E94EC3C61E08CE00E94743D61E0BB
:100AD0008EE00E94743D61E08EE10E94743D61E011
:100AE0008CE20E94743D61E08DE00E94743D61E003
:100AF0008EE00E94743D61E08FE00E94743D80E0D2
:100B00000E945B0510920F0120E042E060E18AEF55
:100B100090E00E9454170E94F82C0E9493260E9495
:100B2000F8260E943B060E9407080C94710DCF9393
:100B3000C82F682F617089E10E94AC3D6C2F6270F4
:100B40008AE10E94AC3D6C2F647080E20E94AC3D53
:100B50006C2F687089E00E94AC3D6C2F60718BE057
:100B60000E94AC3D6C2F607280E1CF910C94AC3D43
:100B7000CF92EF920F9383E1C82E94E1E92E05E125
:100B800026E147E168E18AEF90E00E9408180F91A2
:100B9000EF90CF9008951F920F920FB60F921124ED
:100BA0002F933F934F935F936F937F938F939F9375
:100BB000AF93BF93EF93FF932091140130911501F0
:100BC0008091120190911301820F931F9093130152
:100BD00080931201809112019091130126E0969565
:100BE00087952A95E1F72091120130911301AC010C
:100BF00066E0440F551F6A95E1F7241B350B3093CF
:100C00001301209312012FB7F894309111013E3057
:100C100011F49BBD8ABD309111013D3021F02FBFF1
:100C20000E94350503C099BD88BDF9CFFF91EF91B2
:100C3000BF91AF919F918F917F916F915F914F91F4
:100C40003F912F910F900FBE0F901F9018959FB757
:100C5000F8947093150160931401809311018E3004
:100C600019F48FB5806804C08D3019F48FB5806297
:100C70008FBD9FBF08951FBC80E18EBD2FB7F89434
:100C800080E091E097BD86BD2FBF8EB5887F8EBD79
:100C90008EB581608EBD89B7846089BF08958E301E
:100CA00019F48FB58F7704C08D3019F48FB58F7D0F
:100CB0008FBD08954091170150911801609119015D
:100CC00070911A01452F562F672F772767FD7A9568
:100CD000CA01089510921E0110921D0186179707F0
:100CE00068F480E090E4A0E0B0E080931701909376
:100CF0001801A0931901B0931A0108C010921701AE
:100D0000109218011092190110921A018091170186
:100D100090911801A0911901B0911A01BA2FA92F31
:100D2000982F88278093170190931801A093190199
:100D3000B0931A0181E0809316010895CF93DF9359
:100D4000EC01C13080E6D80770F4C13080E4D807E8
:100D500060F48EE00E944F0660E08EE00E94AC3DA1
:100D6000BE018DE00CC0C0E0D0E68DE00E944F06D1
:100D700061E08DE00E94AC3DBE0170548EE0DF91D9
:100D8000CF910C94270690931E0180931D016CEB6C
:100D900076E680E00E94130D90931C0180931B0166
:100DA0000895CF93C82F882319F080E00E94DE06B3
:100DB00061E06C278EE1CF910C94AC3DCF93DF9333
:100DC000C82F882319F080E00E94D1068DE00E9490
:100DD0004F0660E08DE00E94AC3D8EE00E944F0621
:100DE00060E08EE00E94AC3D1092160161E06C273D
:100DF0008FE00E94AC3DCC2361F080E00E94D308DC
:100E0000EC0186E00E94D308BE01DF91CF910C94E3
:100E10006A06DF91CF9108950F931F938091160179
:100E2000882309F474C080E00E94DC0820911B0133
:100E300030911C012817390730F480E00E94DE064B
:100E40001092160164C082E00E94DC0840911D01EE
:100E500050911E0160E070E000911701109118019F
:100E60002091190130911A01481B590B6109710930
:100E7000E4E0440F551F661F771FEA95D1F7040F72
:100E8000151F261F371F0093170110931801209379
:100E9000190130931A018091170190911801A091C6
:100EA0001901B0911A01B7FF08C0109217011092F2
:100EB00018011092190110921A0180911701909156
:100EC0001801A0911901B0911A010197A046B1052E
:100ED00060F080E090E0A0E6B0E08093170190938E
:100EE0001801A0931901B0931A01809117019091F4
:100EF0001801A0911901B0911A01892F9A2FAB2FD7
:100F0000BB27A7FDBA951F910F910C949E061F91C8
:100F10000F910895BC018EE00C94270687708062C3
:100F200087B90895CF93DF9390916000891721F1DD
:100F300080936000C8B390E2899F90011124CF7123
:100F4000C22B98B3ECEFF8E0E4912AB3DE2FD095F2
:100F5000D2232AB38150823050F0892F8F71806C58
:100F600088BBE22BEABB8AE090E00E94393D8FB754
:100F7000F894C8BBDABB8FBFDF91CF91089595E09D
:100F8000899FF0011124EE5FFE4FE49181E0E111B1
:100F900001C080E0089595E0899FF0011124EF5F82
:100FA000FE4FE49181E0E11101C080E0089524B199
:100FB00035B195E0899FF0011124E050FF4FE49195
:100FC000F0E0EE0FFF1FE853FE4F932F80E0822BDF
:100FD00091838083089510921F01EFEFF0E08491D8
:100FE0000E948E07EEEFF0E084910C949207369AFF
:100FF00008950E944F269093E7018093E6010E9496
:10100000AD269093E9018093E8010C94DF0C60E039
:101010008FE10E94AC3D60E08FE10E94743D61E091
:1010200081E00E94743D61E082E00E94743D61E0D5
:1010300083E00E94743D87E886B90C94EB07CF9358
:10104000DF93D0911F018D2F0E94BF07882321F0CD
:10105000C0915002C17001C0C0E085E0D89FF0018E
:101060001124E250FF4F8491C11109C02091AD03BA
:101070003091AE03232B21F0873011F4C1E085E0DD
:101080000E949207E0911F01EF5F85E0E89FF00169
:101090001124E150FF4F84910E948E078CE390E071
:1010A0000E94393D0E94F7073699FECFD0911F016B
:1010B0008D2F8F5F0E94D70785E0D89FF001112404
:1010C000E150FF4F84910E948E078CE390E00E94D4
:1010D000393D0E94F7073699FECFC11104C08091B7
:1010E0001F010E94D70780911F018F5F0E94CB07CD
:1010F00081110E940C0780911F018E5F803118F4CE
:1011000080931F0102C010921F010E94E5088823EE
:1011100041F080911F01811104C0DF91CF910C94A7
:10112000F907DF91CF9108950C94EB07CF93DF93EC
:101130000E94D30AC0913601D091370102C00E94AB
:101140001F088091360190913701C817D907B9F36C
:10115000DF91CF910895CF92DF92EF92FF92CF93DC
:10116000DF93EC010E94542D6B017C01CC0EDD1E3F
:10117000E11CF11C0E941F080E94542D6C157D0576
:101180008E059F05B8F3DF91CF91FF90EF90DF9030
:10119000CF900895E82FF0E0EE0FFF1FE651FE4FCD
:1011A000808191810895E82FF0E0EE0FFF1FE05855
:1011B000FE4F808191810895E82FF0E0EE0FFF1F30
:1011C000E853FE4F808191810895809152020895E5
:1011D00080913601909137010895E82FF0E0EE0FED
:1011E000FF1FE85CFE4F808191810895613110F40A
:1011F000423040F021E030E0FC0133832283318330
:1012000020830895242F30E0260F311D260F311D35
:10121000220F331F220F331F2E5F3F4F44E050E059
:10122000B9010C94CE3E282FCA01213188F46230D6
:1012300078F470E0620F711D620F711D660F771FE9
:10124000660F771F6E5F7F4F44E050E00C94EC3EDA
:101250000895FF920F931F93CF93DF9300D000D098
:10126000CDB7DEB7F12C88E0F89E80011124F8019B
:10127000EA58FF4F459155916591749149835A837E
:101280006B837C83AE014F5F5F4F60E08F2D0E94C8
:101290001309F801E658FF4F4591559165917491F6
:1012A00049835A836B837C83AE014F5F5F4F61E05C
:1012B0008F2D0E941309F39481E1F812D4CF0F907F
:1012C0000F900F900F90DF91CF911F910F91FF9092
:1012D0000895E82FF0E0EE0FFF1FE058FE4F208149
:1012E0003181E82FE250E83170F4F0E0E558FF4F2B
:1012F0008081882319F0813061F405C081E02333B7
:10130000310540F404C081E0293E334018F480E008
:10131000089581E00895CF93C0E08C2F825E0E94F3
:101320006909882319F0CF5FC630B9F78C2FCF91A8
:1013300008952091AC013091AD01809120019091F0
:101340002101A0912201B0912301820F931FA11DC1
:10135000B11D8093200190932101A0932201B093AD
:101360002301089560912001709121018091220153
:10137000909123012DE730E040E050E00E945A3E7A
:101380007727652F542F432FCA010895E6EAF1E02D
:1013900080819181089580915E0190915F01039712
:1013A00050F08091640190916501039720F083E0F3
:1013B00090E00C949C0E80E0089590E0880F991FB7
:1013C000FC01E058FE4F208131816217730718F449
:1013D000261B370B04C0AB01421B530B9A01FC01C7
:1013E000E85CFE4F2730310518F01182108206C0EC
:1013F000208131812F5F3F4F31832083FC01E058F2
:10140000FE4F718360830895CF92DF92EF92FF9237
:101410000F931F93CF93DF93C0918001D0918101EF
:10142000609190017091910180919201909193014E
:101430006817790728F49C01261B370BB90102C0F5
:10144000681B790B8EE10E94DD0960919201709119
:10145000930180919401909195016817790728F480
:101460009C01261B370BB90102C0681B790B8FE169
:101470000E94DD09609196017091970180E20E94BF
:10148000DD09609198017091990181E20E94DD0966
:1014900060919A0170919B0182E20E94DD09609146
:1014A0009C0170919D0183E20E94DD090E948B09DD
:1014B000F82E80E000E010E00CC0E82FE25EF0E0E3
:1014C000EE0FFF1FE058FE4F20813181020F131FE6
:1014D0008F5F8F11F2CFB80182E10E94DD09011503
:1014E000110549F00C171D0748F49E01201B310B14
:1014F000293E334018F010E0F12C02C0E80112E15F
:10150000BE0183E10E94DD096F2D70E085E10E943C
:10151000DD09612F70E084E10E94DD090E94B209BB
:101520008C010E949E26882329F0E0908601F0908D
:1015300087010BC00E944026882329F0E090840197
:10154000F090850102C0E12CF12CB70186E10E94E8
:10155000DD09B80188E10E94DD099701DE010E94E2
:101560000C3E30E1C32E37E2D32EE12CF12CA70143
:1015700096010E945A3EB90187E10E94DD09980157
:10158000DE010E940C3EA70196010E945A3EB9015D
:1015900089E1DF91CF911F910F91FF90EF90DF9044
:1015A000CF900C94DD09109251021092500280E00D
:1015B00094E0899FF0011124E45FFD4F10821182B5
:1015C000128213828F5F813199F70895109233014F
:1015D0001092320110922E0110922F0110923001C0
:1015E0001092310110922A0110922B0110922C01BD
:1015F00010922D01109235011092340110922901A0
:10160000109228010E94542D6093240170932501AB
:101610008093260190932701089580E0E82FF0E061
:10162000EE0FFF1FE85CFE4F118210828F5F843245
:10163000A9F708950E94D30A0C940D0B109237015C
:101640001092360110922001109221011092220175
:10165000109223010E9494080E941A0B0E94E60A2D
:1016600080E0E82FF0E0EE0FFF1FE058FE4F118200
:1016700010828F5F8432A9F7089580915202811100
:101680000AC081E00E945B050E941E0B81E08093EE
:1016900052020C94960808951092520280E00C9425
:1016A0005B052091CA013091CB018091C8019091D6
:1016B000C9018217930718F4281B390B02C020E0D8
:1016C00030E081E0293E334008F480E008958F92B5
:1016D0009F92AF92BF92CF92DF92EF92FF92CF9301
:1016E000DF93CDB7DEB728970FB6F894DEBF0FBEF5
:1016F000CDBFF82E5B0140E0682FCE0105960E9419
:10170000F60841E06F2DCE0101960E94F6082B816C
:101710003C8140E050E0CF80D884E12CF12C2C19A2
:101720003D094E095F09B50180E090E08D809E8003
:10173000A12CB12C681979098A099B090E942A3EBB
:1017400029813A8140E050E0281939094A095B09AA
:101750000E947C3E2C0D3D1D4E1D5F1D57FF03C09A
:1017600020E030E0A901C90128960FB6F894DEBF49
:101770000FBECDBFDF91CF91FF90EF90DF90CF9064
:10178000BF90AF909F908F9008951F93CF93DF935A
:1017900080913601909137010196909337018093A3
:1017A000360110E0C12FD0E0FE01EE0FFF1FEE0F5B
:1017B000FF1FE45FFD4F209150023091510240E045
:1017C00050E060817181828193810E945A3ECC0FEA
:1017D000DD1FC651DE4F39832883B901812F0E9456
:1017E000670BBC01812F0E94DD091F5F1131D1F60B
:1017F0000E94040A0E946D39DF91CF911F910C94D1
:10180000D30A0F931F93CF93DF93C1E02091A801D8
:101810003091A90180912E0190912F01A09130016A
:10182000B09131012231310531F0C0E02091C80181
:101830003091C90104C02091A6013091A701820F07
:10184000931FA11DB11D80932E0190932F01A09392
:101850003001B09331012091D6013091D7018091B0
:101860002A0190912B01A0912C01B0912D01820FA2
:10187000931FA11DB11D80932A0190932B01A0936A
:101880002C01B0932D01809132019091330101968A
:1018900090933301809332010E94542D00912401D2
:1018A000109125012091260130912701601B710BB9
:1018B000820B930B61367A4E8105910508F47AC04C
:1018C0008091340190913501019690933501809378
:1018D0003401209132013091330140E050E06091B9
:1018E0002E0170912F0180913001909131010E9461
:1018F0005A3E10922E0110922F0110923001109238
:101900003101C11106C0B90180E00E94670B8C0152
:1019100001C08901C091B601D091B7010C171D0714
:1019200020F0B8018BE10E94DD09B8016C1B7D0B32
:101930008AE10E94DD09209132013091330140E0BB
:1019400050E060912A0170912B0180912C019091BF
:101950002D010E945A3E10922A0110922B011092E2
:101960002C0110922D01B90187E00E94670B209194
:101970002801309129019093290180932801BC010D
:10198000621B730B8CE10E94DD0960913201709142
:1019900033018DE10E94DD09109233011092320172
:1019A0000E94542D60932401709325018093260199
:1019B00090932701DF91CF911F910F91089540E0FF
:1019C000A42FB0E0FD01EE0FFF1FEE0FFF1FE45F3D
:1019D000FD4FAA0FBB1FA853BE4F2D913C91808194
:1019E0009181A281B381820F931FA11DB11D8083BC
:1019F0009183A283B3834F5F413111F780915002ED
:101A000090915102019690935102809350020E944E
:101A1000010C80915002909151028436910511F48D
:101A20000C94C50B08958F929F92AF92BF92CF9264
:101A3000DF92EF92FF92CF93DF93CDB7DEB7289777
:101A40000FB6F894DEBF0FBECDBFF82E5B0140E0AD
:101A5000682FCE0105960E94F60841E06F2DCE0159
:101A600001960E94F60829813A8140E050E0CD803D
:101A7000DE80E12CF12C2C193D094E095F09B501DE
:101A800080E090E08F809884A12CB12C68197909AE
:101A90008A099B090E942A3E2B813C8140E050E04C
:101AA000281939094A095B090E947C3E2C0D3D1D0D
:101AB0004E1D5F1D57FF03C020E030E0A901C901A2
:101AC00028960FB6F894DEBF0FBECDBFDF91CF9141
:101AD000FF90EF90DF90CF90BF90AF909F908F904E
:101AE00008950C941E0B462FE82FF0E0EE0FFF1F19
:101AF000E058FE4F208131818250883130F4E82F48
:101B0000F0E0E558FF4F608101C061E0C9010C942D
:101B10000816825E0C94D308809179020895809112
:101B20007702811112C00E94E508882381F00E948B
:101B3000E8082091530230915402821B930B9C01C0
:101B400081E02530310520F002C081E0089580E079
:101B500008950F931F93CF93DF9310E0CFEFDFEF44
:101B600000E009C0812F0E94890D8C179D0710F499
:101B7000EC01012F1F5F80917902181798F3802FD5
:101B8000DF91CF911F910F910895CF93DF939091A3
:101B90007702911104C0DF91CF910C94890D90913F
:101BA0005D02C82FD0E0992391F00E94890DCC0FDF
:101BB000DD1FFE01E25AFD4FC659DD4F2081318104
:101BC00048815981241B350B280F391F07C0FE019E
:101BD000EE0FFF1FE25AFD4F20813181C901DF91D5
:101BE000CF910895CF93C82F80917702882341F039
:101BF000C11106C00E94E8089093540280935302DA
:101C0000C09377020E94542D609355027093560240
:101C100080935702909358020E940D0B8091760298
:101C2000811104C08C2FCF910C949705CF9108950A
:101C300080E00E94F20D81E08093760208950E9478
:101C4000180E80E00C94FF04EF92FF920F931F9305
:101C5000CF93DF9381E00E94FF0485E10E94D308C7
:101C6000809379020AE612E03EE5E32E32E0F32E9D
:101C7000C0E0D0E00CC08C2F0E94890DF801819348
:101C800091938F01F701819391937F012196809128
:101C9000790290E0C817D90774F310927702109276
:101CA000760280E00E94F20D1092540210925302CC
:101CB000109255021092560210925702109258023A
:101CC000DF91CF911F910F91FF90EF900895FF92B8
:101CD0000F931F93CF93DF93809178020E94C50DDD
:101CE000EC01F12C01E010E01CC08F2D0E94C50D0D
:101CF000AC0180917702802321F0C417D50778F4D6
:101D00000DC02091AB033091AC032F5F3F4F369550
:101D100027952C0F3D1F2417350708F4102B000FB3
:101D2000F39480917902F81600F3812FDF91CF911F
:101D30001F910F91FF9008951F93CF93DF93EC01B4
:101D400010E008C0812F825E0E94ED088C179D076D
:101D500038F01F5F809179021817A0F381E001C06D
:101D600080E0DF91CF911F910895BF92CF92DF92D3
:101D7000EF92FF920F931F93CF93DF938AE090E04F
:101D80000E949C0E882309F461C00E94A90D8093D3
:101D900078020E94890D8C0162E088E892E00E943E
:101DA000E3190817190750F17EE5E72E72E0F72EC8
:101DB000EAE6CE2EE2E0DE2EC0E0D0E0BB24B39413
:101DC00016C08C2F0E94890DF701819391937F019A
:101DD000F601819391936F01801B910B2091AB03CE
:101DE0003091AC032817390708F4B12C2196809163
:101DF000790290E0C817D90724F302C0BB24B3943A
:101E000010925D020E94542D6093590270935A0201
:101E100080935B0290935C02BB2059F0DF91CF91DD
:101E20001F910F91FF90EF90DF90CF90BF900C9497
:101E3000180E0E94670EDF91CF911F910F91FF90B6
:101E4000EF90DF90CF90BF900C94F20DDF91CF9187
:101E50001F910F91FF90EF90DF90CF90BF9008956A
:101E6000CF9380915D02811119C081E080935D0262
:101E7000809178020E94890DC0E00CC08C2F0E94D6
:101E8000890DEC2FF0E0EE0FFF1FE659FD4F918317
:101E90008083CF5F80917902C81780F3CF91089536
:101EA0000F931F930E94542D0091590210915A02D2
:101EB00020915B0230915C02601B710B820B930BD3
:101EC00028EE33E040E050E00E945A3EC9011F91E5
:101ED0000F91089583E090E00E949C0E8823C9F042
:101EE00080917702811103C00E94B50E12C00E943A
:101EF000300F0E94670E90E08095909520917702B8
:101F000030E082239323892B81F40E94500F4F9756
:101F100060F40E948F0D882311F082E00895809173
:101F200076028823D1F381E0089580E00E94F20DCB
:101F3000F0CF1F93CF93DF93EC0110E00FC0812F00
:101F40000E94890D8C179D0710F081E00CC0812F35
:101F50000E94C50D8C179D07C0F71F5F8091790205
:101F6000181768F380E0DF91CF911F9108951F93B8
:101F7000CF93DF93EC0110E00FC0812F0E94890DF9
:101F8000C817D90710F081E00CC0812F0E94C50D41
:101F9000C817D907C0F71F5F80917902181768F337
:101FA00080E0DF91CF911F910895609179026623BF
:101FB00021F070E00E94463E02C060E070E0CB017C
:101FC00008950E945A120E9471200E94B3360E9406
:101FD0007C2E88E00C94C9360E945A120E947F2001
:101FE00086E00E94C9360E947C2E88E00C94C93697
:101FF000E0917A02F0917B0285919491FC01099421
:10200000E0917A02F0917B02329685919491FC01E5
:102010000994E0917A02F0917B0234968591949133
:10202000FC010994CF93DF931F92CDB7DEB78111E6
:1020300007C00E94421F0E9400100E94EC0F0FC0B8
:10204000813059F469830E94421F0E940010698107
:10205000611105C00E94E10F02C081E001C080E073
:102060000F90DF91CF910895BF92CF92DF92EF92C0
:10207000FF920F931F93CF93DF938C01C62E0E9484
:10208000F80F0E94241F0E94A12E0E945A12F12CC8
:1020900082E0D82EC0E0D0E0EE24E3940E949F3688
:1020A000811106C0F801EF0DF11D84910E94D82224
:1020B0000E94E811B82E84E0B81209C0EF2DF0E0BC
:1020C0003196E00FF11FE491E11123C005C082E0D9
:1020D000B81202C0F110FA94EE2081F00E94AB2EEB
:1020E000D82E6C2D0E941210E82E882339F00E9401
:1020F000E808C817D90779F4E11003C0C11016C069
:10210000E12C81E0B812CACF0E94421F0E94001049
:102110000DC0F394E1CF0E94E808EC010E94091081
:10212000D82E6C2D0E941210E82EE6CF8D2DDF9157
:10213000CF911F910F91FF90EF90DF90CF90BF90C4
:102140000895FC0124812052621710F40C942E187B
:10215000862F90E0821B91090E94BF1A6EE00C94BA
:10216000981360E08CE792E00E942A1987FD0AC06C
:10217000811102C00C94F633992787FD9095019741
:102180000C94152908950E94600584EF91E00E9447
:10219000AB080E94BB370E94423462E671E084E5DE
:1021A00091E00E94542088EE93E00E94AB0880E00A
:1021B0000C944C3C6DE671E08CE792E00E943C1878
:1021C00087E990E090937D0280937C02E0E8F2E062
:1021D0008081805E80830895CF93DF93EC010E941D
:1021E00052128B819C810E9495130E9456126A8123
:1021F00088819981DF91CF910C943113FC01878103
:102200008F3118F48F5F8783089586818F5F86836F
:102210000895FC018781882319F0815087830895F0
:1022200086818150868308951F93CF93DF93FC01AD
:10223000C681D0E06D2F80E00E944C121C2F105FF1
:102240008C2FCF5F0E94EF138C2FC113FACFDF5F6B
:10225000D23081F7DF91CF911F9108951F93CF93D3
:10226000DF93EC018AEF90E00E9409171FEF8E8147
:10227000181721F0CE010E9414111E818F81682F42
:1022800070E094E0759567959A95E1F78F700E94DC
:102290004C120E94E811823049F0843019F08130EC
:1022A00049F413C0CE010E94FE10E1CFCE010E947E
:1022B0000911DDCF8830D9F68D81E881F981E80FE9
:1022C000F11D8F819E81890F8083DF91CF911F91B6
:1022D0000895FC01718360834283348323831582D4
:1022E00080E2868317820895CF93DF93EC018AEF13
:1022F00090E00E9409170E945A12CE010E94EC1031
:1023000061E08D810E944C120E94E8118230B1F090
:10231000843041F08130C1F48AEF90E00E941117BF
:1023200080E026C04D81242F30E08A8190E0019723
:10233000281739072CF74F5F4D83E2CF8D81882313
:10234000F9F281508D83DCCF8830D1F682E00E9493
:102350003B12823048F083E00E94C9368AEF90E059
:102360000E94111781E004C0CE010E942E11C3CF3C
:10237000DF91CF9108950C94DA04E0918602F0E0A9
:10238000EE0FFF1FE758FE4F25913491C9010895C4
:10239000CF93DF93D82F0E94DA0407C082E390E046
:1023A0000E94AB080E94DA04DC2FC82F8D13F6CFF1
:1023B000109286021092850280938702882319F07A
:1023C00080E00E94D53680918702DF91CF910895F9
:1023D000FF920F931F93CF93DF93C0E0D0E0F12CD7
:1023E0000AEF10E015C00E94DA04F82E81E090E0B8
:1023F0000E94AB0880918702F81202C0219608C0A3
:102400008F2DDF91CF911F910F91FF900C94C811E8
:1024100040918602242F30E0220F331FF901E95743
:10242000FE4F65917491C8010E94463E6F5F7F4FD9
:10243000C617D707C0F2FF20B1F0509185025F5F49
:1024400050938502F901EB56FE4F85919491252F0B
:1024500030E02817390738F0463018F44F5F4093C2
:1024600086021092850280918702DF91CF911F91A1
:102470000F91FF900895CF93DF93D82FC0918702DB
:102480000E94E811909186029D1711F08C17C1F3FC
:10249000892FDF91CF910895462F682F8AEF90E022
:1024A0000C94201760E080E00C944C1261E080E016
:1024B0000C944C128AEF90E00C944D17CF93DF935D
:1024C000FC01DB018C91882389F0C081D181488394
:1024D000808191810196918380838C9181508C932E
:1024E000882321F00190F081E02D1082DF91CF91BF
:1024F0000895BF92CF92DF92EF92FF920F931F93B6
:10250000CF93DF93EC018B017A014115510501F165
:10251000CA010E94A73EF8019081B82E981708F4CE
:10252000B92ECB2CD12CA601B701888199810E94AC
:10253000B03E288139812C0D3D1D39832883F80157
:1025400080818B198083882319F0E881F9811082BA
:10255000DF91CF911F910F91FF90EF90DF90CF907F
:10256000BF900895EF92FF921F93CF93DF9300D017
:1025700000D0CDB7DEB77C01CA014B835C83698391
:102580007A830E94D02D182F69817A81DB018C918A
:102590004B815C81811768F44FE3C7010F900F9066
:1025A0000F900F90DF91CF911F91FF90EF900C94BF
:1025B0005E12F70120813181210F311D318320838B
:1025C000DB018C91811B8C93882321F00190F08199
:1025D000E02D1082F9012AE030E00CC0CA01B901F7
:1025E0000E94463E405DBAE06B9F40191124429321
:1025F0001150AB011111F2CF0F900F900F900F906F
:10260000DF91CF911F91FF90EF9008950F931F934B
:10261000CF93DF93CDB7DEB72B970FB6F894DEBF1D
:102620000FBECDBF8E010F5F1F4F1A87098727E0AE
:102630002B87AC01BE01655F7F4FCE0109960E94DA
:10264000B212B8018AEF90E00E94E33C2B960FB6DD
:10265000F894DEBF0FBECDBFDF91CF911F910F91D8
:1026600008951F93CF93DF93CDB7DEB761970FB671
:10267000F894DEBF0FBECDBF0097D1F0162F6131A9
:1026800008F010E1412F50E0BC01CE0101960E94FC
:10269000BF3EE1E0F0E0EC0FFD1FE10FF11D108205
:1026A000BE016F5F7F4F8AEF90E00E94E33C01C064
:1026B00080E061960FB6F894DEBF0FBECDBFDF910C
:1026C000CF911F9108951F93CF93DF93CDB7DEB7BE
:1026D00061970FB6F894DEBF0FBECDBF0097D1F063
:1026E000162F613108F010E1412F50E0BC01CE01FE
:1026F00001960E94B03EE1E0F0E0EC0FFD1FE10F1B
:10270000F11D1082BE016F5F7F4F8AEF90E00E9443
:10271000E33C01C080E061960FB6F894DEBF0FBEC7
:10272000CDBFDF91CF911F91089560E10C946313A9
:10273000CF92DF92EF92FF920F931F93CF93DF938D
:10274000CDB7DEB762970FB6F894DEBF0FBECDBF30
:10275000009761F1613108F060E17C01CC24C39401
:10276000D12CCC0EDD1E86011CC0C7016A8B0E94D5
:10277000DE3EF80181938F01FFEFEF1AFF0A6A89AD
:1027800081110FC0E1E0F0E0EC0FFD1FE60FF11D3D
:102790001082BE016F5F7F4F8AEF90E00E94E33CA2
:1027A00006C0802F8C19861700F3ECCF80E062966C
:1027B0000FB6F894DEBF0FBECDBFDF91CF911F9152
:1027C0000F91FF90EF90DF90CF900895882319F03C
:1027D00087EA91E002C08BEA91E00C949513682F90
:1027E0008AEF90E00C94E53CCF93DF931F92CDB736
:1027F000DEB7682F06C080E269830E94EF1369810B
:1028000061506430C4F783EA91E00F90DF91CF917B
:102810000C9463130F931F93CF93DF93062F142F02
:1028200064E670E00E94463EEB0180E20E94EF13F6
:1028300080E20E94EF13C436D10548F480E20E9482
:10284000EF13CA30D10518F480E20E94EF13CE01D5
:102850000E940613802F0E94EF13812F0E94EF1316
:1028600080E2DF91CF911F910F910C94EF13CF93E2
:10287000DF93D82FC0E004C080E20E94EF13CF5F47
:10288000CD13FACF8C2FDF91CF91089580E10C9476
:1028900037146AE00E943A3E892F805D0C94EF1352
:1028A000DF92EF92FF920F931F93CF93DF93EC0190
:1028B000162F16160CF059C064E670E00E94463ED2
:1028C000D62EE72ECB010E94D02D082F23E0F22E2A
:1028D000F80E04C080E20E94EF131150F116D4F3F9
:1028E000412F552747FD50952F2D332727FD309534
:1028F000235031094217530754F4812FDF91CF91B0
:102900001F910F91FF90EF90DF900C94F4138D2D99
:102910009E2D0E940613CE0164E670E00E94463EA2
:10292000EC01101B012F015011161CF48EE20E94C5
:10293000EF13102F1150101644F4CE016AE070E02E
:102940000E94463E862F0E944914111674F4CE014F
:102950006AE070E00E94463EDF91CF911F910F9197
:10296000FF90EF90DF900C944914DF91CF911F916D
:102970000F91FF90EF90DF900895CF92DF92EF924A
:10298000FF920F931F93CF93DF93EC01162FC42E6A
:1029900016160CF088C068EE73E00E94463ED62EF4
:1029A000E72ECB010E94D02DF82E082F0C5F04C01B
:1029B00080E20E94EF1311500117D4F31017DCF0DE
:1029C000C11019C0CE010E94D02D082F03C080E293
:1029D0000E94EF1311500117D4F3CE010E94061389
:1029E0008DE6DF91CF911F910F91FF90EF90DF90D7
:1029F000CF900C94EF13412F552747FD5095202F72
:102A0000332727FD309524503109421753075CF4D2
:102A1000812FDF91CF911F910F91FF90EF90DF9069
:102A2000CF900C94F4138D2D9E2D0E940613CE0191
:102A300068EE73E00E94463EEC011F19012F015021
:102A400011161CF48EE20E94EF13102F1150101675
:102A500044F4CE0164E670E00E94463E862F0E9458
:102A60004914CE0164E670E00E94463EEC01012F5D
:102A7000015011163CF46AE070E00E94463E862F39
:102A80000E94491410167CF4CE016AE070E00E94A6
:102A9000463EDF91CF911F910F91FF90EF90DF9015
:102AA000CF900C944914DF91CF911F910F91FF901B
:102AB000EF90DF90CF9008956F927F928F929F92C8
:102AC000AF92BF92CF92DF92EF92FF920F931F933C
:102AD000CF93DF937C01962E742E822E16160CF067
:102AE00044C021119A94C7010E94D02DC0E0D0E0CB
:102AF000082F10E0A92CBB24A7FCB09404C0872D9C
:102B00000E94EF132196692C6C1A6501CC1ADD0A1C
:102B10000C151D05A4F3882019F08DE20E94EF1317
:102B2000C016D1068CF4862DDF91CF911F910F91A5
:102B3000FF90EF90DF90CF90BF90AF909F908F90DD
:102B40007F906F900C94F413C701DF91CF911F9188
:102B50000F91FF90EF90DF90CF90BF90AF909F903C
:102B60008F907F906F900C940613DF91CF911F91FF
:102B70000F91FF90EF90DF90CF90BF90AF909F901C
:102B80008F907F906F90089520E00C945C1540E248
:102B90000C94C415CF93DF936CE370E00E94463E23
:102BA0009B01EC0140E363E0C9010E94C4158AE384
:102BB0000E94EF1340E362E0CE01DF91CF910C94CD
:102BC000C415292F221F2227221F19F091958195C4
:102BD000910940E20C945C15161634F461500E9481
:102BE000501483E40C94EF130895161634F46150D6
:102BF0000E94C71585E20C94EF13089563303CF0F2
:102C000062500E94C7158FEA91E00C9495130895C5
:102C1000CF93DF93C62F1416C4F5642F6150C330D1
:102C200079F020F4C13091F048F41EC0C530D9F0DD
:102C300078F0C63091F0C730D1F411C040E201C045
:102C400048E667E5DF91CF910C940A14D6E510C0F1
:102C5000642FDF91CF910C94EC15D4EF06C00E9445
:102C6000E11585E50EC06150D1E440E002C0D5E534
:102C700041E00E94BD148D2F0E94EF13C53029F44E
:102C800088E6DF91CF910C94EF13DF91CF910895F7
:102C9000462F66E00C940816462F61E00C94081647
:102CA000462F60E00C940816462F65E00C94081639
:102CB000CF93DF93EC0160E08E810E94AC3D81E018
:102CC00090E00E94393D61E08E810E94AC3D81E040
:102CD00090E00E94393D60E08E810E94AC3D84E628
:102CE00090E0DF91CF910C94393DCF92DF92EF923B
:102CF000FF920F931F93CF93DF937C01C0E0D0E04E
:102D0000C62ED12C87010C0F1D1F61E0F8018781B1
:102D10000E94743DB6010C2E02C0759567950A9409
:102D2000E2F761707727F80187810E94AC3D219618
:102D3000C430D10539F7C701DF91CF911F910F91B1
:102D4000FF90EF90DF90CF900C945816CF92DF92C7
:102D5000EF92FF920F931F93CF93DF937C01C0E01C
:102D6000D0E0C62ED12C87010C0F1D1F61E0F801A9
:102D700087810E94743DB6010C2E02C0759567953F
:102D80000A94E2F761707727F80187810E94AC3DD1
:102D90002196C830D10539F7C701DF91CF911F9136
:102DA0000F91FF90EF90DF90CF900C9458161F93E7
:102DB000CF93DF93EC01162F642F8C810E94AC3DE2
:102DC0008D818F3F19F060E00E94AC3D8F85612FAF
:102DD00084FF06C0CE01DF91CF911F910C94A616FF
:102DE00070E084E0759567958A95E1F7CE010E94C1
:102DF0007516612FCE01DF91CF911F910C9475163E
:102E000041E00E94D71681E090E0089540E00C94E4
:102E1000D716FC016089262F2160208B69600C94F5
:102E20000617FC0160896E7F608B68600C94061742
:102E3000FC016089262F2460208B6C600C9406179F
:102E4000CF93DF93CDB7DEB728970FB6F894DEBFE8
:102E50000FBECDBF28E0E3E7F0E0DE011196019060
:102E60000D922A95E1F7FC012389421710F0422FB9
:102E70004150FE013196E40FF11DE40FF11D208158
:102E8000260F2068622F28960FB6F894DEBF0FBE7B
:102E9000CDBFDF91CF910C94061761E00E94061719
:102EA00080ED97E00C94393DCF93DF93EC014230F5
:102EB00018F08F8588608F874B8B1C8A222329F01E
:102EC000413019F48F8584608F8780E593EC0E94F0
:102ED000393D60E08C810E94AC3D60E08E810E94B3
:102EE000AC3D8D818F3F19F060E00E94AC3D6F8555
:102EF00064FD1DC063E0CE010E94751684E991E176
:102F00000E94393D63E0CE010E94751684E991E18B
:102F10000E94393D63E0CE010E94751686E990E07B
:102F20000E94393D62E0CE010E94751616C06062B3
:102F3000CE010E94061784E991E10E94393D6F8518
:102F40006062CE010E94061786E990E00E94393D3A
:102F50006F856062CE010E9406176F856062CE01A8
:102F60000E94061784E0888BCE010E941817CE01BC
:102F70000E944D1782E0898B66E0CE01DF91CF91F0
:102F80000C9406176F927F928F92AF92CF92EF922E
:102F90000F931F93CF93DF93CDB7DEB73C01162F6E
:102FA000842F5D854E853F859889F3018483258331
:102FB0000683E782C086A186828653874487358749
:102FC000968761E00E94743DF30185818F3F19F07F
:102FD00061E00E94743D61E0F30186810E94743DCE
:102FE000112319F0F301178603C080E1F3018787ED
:102FF00020E041E060E1C301DF91CF911F910F918B
:10300000EF90CF90AF908F907F906F900C9454176B
:103010008F92AF92CF92EF920F93DC0113961C9296
:103020001E921297EDE9F0E0ED93FC931F921F9230
:103030001F921F928C2CAE2CC02EE22E042F2FEF4D
:10304000462F61E00E94C2170F900F900F900F90D3
:103050000F91EF90CF90AF908F900895FC01278152
:103060008085E22FF82FE60FF11DE60FF11D259167
:103070003491C9010C9495130F931F93CF93DF9351
:10308000EC018B01CB010E94872D682FCE010E949D
:103090009F1885EA90E09983888318870F83DF91D2
:1030A000CF911F910F910895DF92EF92FF920F93AE
:1030B0001F93CF93DF93EC01F62E69871A8681E088
:1030C0008D8382E0D82EEE24E3948E01075F1F4F9C
:1030D0000E94E811482F823011F0843061F4E881B9
:1030E000F9810280F381E02D6F2DCE010995F986DB
:1030F000DA86ED8204C0813089F0883079F0C80129
:103100000E94902E8111ED828D81882319F0CE01CD
:103110000E94CC188A858F5F8A87DACF8FEF8987E4
:1031200081E08E838D83483009F080E0DF91CF917C
:103130001F910F91FF90EF90DF9008950895FC018B
:103140008BEA90E09183808312821382648381E012
:10315000858386830895FC012281211103C081E0CB
:1031600082830895438130E0240F311D848190E0F3
:1031700001972817390714F44F5F43830895FC0122
:103180008281882319F08150828308958381882366
:1031900011F08150838308951F93CF93DF93EC0147
:1031A00010E0612F80E00E944C1280E20E94EF1339
:1031B000E881F9816B81610F0190F081E02DCE01F2
:1031C00009950E9446141F5F123059F76A8180E00A
:1031D0000E944C128EE30E94EF136A818FE00E94DE
:1031E0004C128CE30E94EF131D82DF91CF911F914F
:1031F00008950F931F93CF93DF93EC010E94E81182
:10320000182F0E949F36882321F081E08D831FE7CD
:103210001BC00B818A81080F123031F0143039F451
:10322000CE010E94AB1803C0CE010E94BF188B8153
:103230009A81890F081711F081E08D838D81882391
:1032400019F0CE010E94CC18812FDF91CF911F91F0
:103250000F910895EF92FF921F93CF93DF931F92E8
:10326000CDB7DEB77C0181E0F701858311E0C701AE
:1032700069830E94F9186981811102C0F7011682E1
:10328000F7019681911108C0883031F481E086837E
:1032900083819281890F09C0662311F0F70115839C
:1032A000813029F79111E3CF8FEF0F90DF91CF910C
:1032B0001F91FF90EF9008950F931F93CF93DF938B
:1032C000EC018B0150E00E94B2124AE3B801CE013A
:1032D000DF91CF911F910F910C945E12EF92FF92AC
:1032E0000F931F93CF93DF9300D01F92CDB7DEB71C
:1032F0008C01462F0B969A8389838EE08B83D801AD
:10330000EC91F0E0EE0FFF1FEE54FE4FE590F490CD
:10331000BE016D5F7F4FCE0101960E945C19A7012F
:10332000BE016D5F7F4FCE0101960E94791240E28F
:10333000BE016D5F7F4FCE0101960E945E12F801C3
:1033400041815281BE016D5F7F4FCE0101960E9487
:10335000B2124FE2BE016D5F7F4FCE0101960E9417
:103360005E12D80117964D915C911897BE016D5F62
:103370007F4FCE0101960E94B2120F900F900F90D6
:10338000DF91CF911F910F91FF90EF90089529E168
:10339000289FB001299F700D112464577F4F49E188
:1033A00050E088E892E00C94CE3E29E1289FB001DD
:1033B000299F700D112464577F4F49E150E088E840
:1033C00092E00C94EC3EDC01EC91B6E0EB9FF00156
:1033D0001124E60FF11DEE0FFF1FEC53FE4F259158
:1033E0003491C9010895CF93DF93EC010E94E31952
:1033F0004F815885849F9001859F300D949F300D9B
:103400001124C901DF91CF9108950F931F93FC01FF
:10341000A181B2812091A5033091A6030E940C3EA8
:1034200024E630E040E050E00E945A3E89019A01D3
:10343000093EFDEF1F072105310520F008EE1DEFC5
:1034400020E030E0C8011F910F910895FC018185B3
:1034500092850895FC012081213029F420919F0359
:103460003091A00309C0223029F420919D033091AE
:103470009E0302C020E030E0FC0187819085289FF8
:10348000A001299F500D389F500D1124CA010895A5
:10349000EBE9F3E0808191810895FC016081FBE01C
:1034A0006F9FB0011124605D7D4F4BE050E00C94A4
:1034B0009E3EDC01EC91F0E0EE0FFF1FEE54FE4F5C
:1034C00025913491C9010C94631360E170E00C9470
:1034D000591ACF93DF93EC01888160E0811108C015
:1034E000CE010E94F31967E00E944C1687E011C0DC
:1034F000CE010E94F31965E00E944C168FE20E94F3
:10350000EF138F8198850E94061383E40E94EF13C6
:1035100088E0DF91CF91089566E0FC01838194817A
:103520000E94501686E0089566E0FC018581968130
:103530000E94501686E00895FC0181859285883EA0
:10354000F3E09F0719F483E992E004C00E94061398
:103550008DE992E00E94951386E00895FC01818137
:103560009281883EFDEF9F0729F482EA92E00E9453
:10357000951303C067E00E94541688E0089549E15E
:10358000489F9001499F300D112429563F4FC90192
:1035900008950F931F93CF93DF93CDB7DEB7A69710
:1035A0000FB6F894DEBF0FBECDBF8C01AB01BC01DE
:1035B000CE0101960E948D1CCE0101960E94FB1C3B
:1035C00089E1FE013C96D80101900D928A95E1F7C0
:1035D000A6960FB6F894DEBF0FBECDBFDF91CF9198
:1035E0001F910F910895FC012081260F293010F4BE
:1035F000208302C0FC0110820C944D1A0F931F937C
:1036000061E00E94F3199C0140E050E060E870EF37
:103610008AEF92E00E945A3E89019A01093883E1BB
:1036200018072105310520F008E813E120E030E01B
:10363000C8011F910F9108950F931F9361E00E949D
:10364000F3199C0140E050E060E47BE48CE490E0FE
:103650000E945A3E89019A01013D87E01807210521
:10366000310520F000ED17E020E030E0C8011F91A7
:103670000F9108950F931F93CF93DF9300D0CDB791
:10368000DEB78C0169837A830E94FE1A20E0AC01C8
:1036900069817A81C80103960F900F90DF91CF91D5
:1036A0001F910F910C941E2E0F931F93CF93DF93B6
:1036B00000D0CDB7DEB78C0169837A830E941C1BD2
:1036C00020E0AC0169817A81C80105960F900F90C6
:1036D000DF91CF911F910F910C941E2E48EE53E075
:1036E00009960C94002E61E00E94E319BC0184ED60
:1036F00092E60E94463ECB0108950F931F93CF930D
:10370000DF9300D0CDB7DEB78C0169837A830E9446
:10371000731B21E0F801308169817A81311120E049
:10372000AC01C80107960F900F90DF91CF911F91C8
:103730000F910C941E2ECF93DF93EC010E94731B0C
:103740002F8138858217930710F498878F83CE01D5
:103750000E94FE1A2B813C818217930710F49C83F0
:103760008B83CE010E941C1B2D813E818217930703
:1037700010F49E838D83DF91CF910895CF93DF93D3
:10378000EC0120E048EE5DEF01960E941E2E89813B
:103790009A819C838B832881233039F49C01369550
:1037A0002795369527953C832B839E838D83CE0169
:1037B000DF91CF910C949B1BDF92EF92FF920F93BE
:1037C0001F93CF93DF9300D01F92CDB7DEB74BE0AE
:1037D00050E062E772E088E892E00E949E3E88E84E
:1037E00092E00E949B1B00E010E05EE0D52E63E9B2
:1037F000E62E62E0F62EDB82FA82E982402F4F5FEE
:10380000BE016D5F7F4FCE0101960E945C19C80119
:103810000E94D5190F5F1F4F0032110561F70F90FD
:103820000F900F90DF91CF911F910F91FF90EF902C
:10383000DF90089508950895262F443019F06FEF12
:103840007FEF02C061E070E0223091F028F4222383
:1038500049F02130C9F409C0243081F060F02530EE
:1038600099F40FC00B960C94F31A0B960C947D1BD5
:103870000B960C94BE1B0B960C943A1B0B960C9457
:10388000541B0B960C946E1B08951F93CF93DF93DC
:10389000EC01162F0E942E18CE0109960E94852E4B
:1038A000882311F0298501C02FEF332727FD30959C
:1038B000812F90E02817390759F11230B1F028F420
:1038C000112349F0113021F50BC01430C1F090F0F4
:1038D0001530F1F419C0CE010B960E94651A18C07C
:1038E000CE010B960E94691A13C0CE010B960E945E
:1038F000AE1A0EC0CE010B960E948C1A09C0CE01E2
:103900000B960E94941A04C0CE010B960E949C1A3A
:1039100080E0DF91CF911F910895EF92FF920F9376
:103920001F93CF93DF93EC018B017A016BED72E073
:103930000E943C188FEF898781EB90E09983888300
:1039400089E1F801DE011B9601900D928A95E1F75D
:10395000FDA2ECA2DF91CF911F910F91FF90EF900C
:1039600008950F931F93CF93DF93CDB7DEB72897BA
:103970000FB6F894DEBF0FBECDBF8C01BC016A5EEE
:103980007F4F2DEE32E04EE050E0CE0101960E94D6
:103990006911CE0101960E94741181E0F8018583BE
:1039A00028960FB6F894DEBF0FBECDBFDF91CF9142
:1039B0001F910F910895CF93DF93EC016CA17DA12E
:1039C0006F5F7F4F0B960E946E190E945A120E94E1
:1039D000521288EF92E00E9495130E9456126EE0F8
:1039E000CE0146960E9431130E947C2E83E0DF9127
:1039F000CF910C94C936DF92EF92FF920F931F93F1
:103A0000CF93DF93CDB7DEB769970FB6F894DEBFDB
:103A10000FBECDBF8C0189E1D82E9BE0E92EF12CA1
:103A2000E00EF11E60E0C8010E942A1987FD2BC03C
:103A3000863019F0873049F404C0C8010E94DB1CAD
:103A4000F1CFC8010E94B11CEDCFF701DE01119644
:103A50009D2D01900D929A95E1F7682FC8010E9463
:103A60005418811109C0FE013196D7018D2D0190A6
:103A70000D928A95E1F7D6CF83E00E94C936C7013F
:103A80000E949B1BCFCF69960FB6F894DEBF0FBE86
:103A9000CDBFDF91CF911F910F91FF90EF90DF90FD
:103AA00008958091970390919803892BA1F08CE160
:103AB0000E94D30865E02AE0AC01249FC001259F45
:103AC000900D11240E94E1158DE60E94EF1383E40E
:103AD0000E94EF1304C08CED93E00E9495130C94A8
:103AE00046148AE10E94D30865E00E94E1158DE644
:103AF0000E94EF1386E50E94EF130C944614CF93B7
:103B0000DF9300D0CDB7DEB789839A830E9452122B
:103B100089819A810E9495130E9456128091FD021C
:103B20009091FE020E94A73E892B51F08DEC93E00C
:103B30000E9495138091FD029091FE020E949513C0
:103B40000F900F90DF91CF910C94461490E0880F66
:103B5000991F62E0865C9C4F0C9463130F931F9334
:103B6000CF93DF9361E088E892E00E94F3198C0123
:103B700065E088E892E00E94F319EC0183E10E947D
:103B8000D30880179107B8F4C817D907B0F49C017F
:103B90002C1B3D0BC8018C1B9D0B64E670E00E9442
:103BA000463EC9010E94463ECB016436710530F0A5
:103BB00083E690E003C083E601C080E0DF91CF910F
:103BC0001F910F910895613011F40C94C50D0C9460
:103BD000AD2ACF93DF93D82FC62F825E0E9469094A
:103BE000882351F06C2F8D2F0E94E31D46E06C2F2F
:103BF000DF91CF910C94081687E593E0DF91CF9188
:103C00000C9495130F931F93CF93DF93C82F162F08
:103C10000E9452128091D302882319F01092D3028D
:103C200003C081E08093D3020E948F0D811108C0F0
:103C300083E090E00E949C0E882341F080E209C05E
:103C400080915D02882321F082E403C08DE601C0EB
:103C500082E60E94EF1380917702811117C022C083
:103C600080917802D81761F080917702802331F03B
:103C70008091D302882321F08FEF03C08DE201C031
:103C80008FE50E94EF13000FDF5F02C0D0E001E07C
:103C90000E948C0DD81720F30E948C0D97E0981B82
:103CA000892F01C087E00E943714DC2FDF5F8D2F42
:103CB0000E9449148AE30E94EF13C1112FC00E9491
:103CC0009E26882359F10E94AD26892B11F526C026
:103CD0000E9446140E9456120C2F0E5F802F0E94E5
:103CE00049148AE30E94EF13612F8D2F0E94E91D72
:103CF0008C2F8D5F0E9449148AE30E94EF13612F7D
:103D0000802F0E94E91DDF91CF911F910F910C949C
:103D100046148EE593E00E949513DACF612F8C2F25
:103D20000E94E91DD5CF88E10E94D30868E00E9477
:103D3000541680E20C94EF130E94521288E892E02D
:103D40000E94051A68E00E94541680E20E94EF1358
:103D50000E94962A67E00E9450160E9446140E9414
:103D6000561283E693E00E94951367E080918703E3
:103D7000909188030E944C160C9446140F931F9345
:103D80006091DE027091DF028091E0029091E10289
:103D90002091A102222371F00E94542D0091DE0295
:103DA0001091DF022091E0023091E102601B710B63
:103DB000820B930B28EE33E040E050E00E945A3E25
:103DC000C9011F910F910895CF930E944026811140
:103DD00010C00E949E26882331F00E944026811147
:103DE0000AC0C4E40BC00E948F0D811106C0CEE44E
:103DF00005C0C3E403C0C5E401C0C2E40E9430268C
:103E00008111C7E58C2F0E94EF1380E20E94EF130F
:103E10000E94BE1E0E94CA1580E2CF910C94EF133F
:103E20000E9452120E94931E67E086E10E94730D69
:103E30000E9446140E9456120E94E41E67E083E12D
:103E40000E94730D0C9446140E94542D6093DE0260
:103E50007093DF028093E0029093E1021092DA0205
:103E60001092DB021092DC021092DD021092D60258
:103E70001092D7021092D8021092D90281E080935A
:103E8000A10208950F931F930E94542D0091DE020A
:103E90001091DF022091E0023091E102601B710B72
:103EA000820B930B6093DE027093DF028093E0023B
:103EB0009093E1021092A1021F910F9108950E9428
:103EC000462681111DC00E94A426811119C00E949E
:103ED0008F0D882351F18091DA029091DB02A0913D
:103EE000DC02B091DD0280599F4FAF4FBF4F8093EE
:103EF000DA029093DB02A093DC02B093DD02089516
:103F00008091D6029091D702A091D802B091D902A7
:103F100080599F4FAF4FBF4F8093D6029093D702E7
:103F2000A093D802B093D902D2CF08956091D6025F
:103F30007091D7028091D8029091D90220E63AEE92
:103F400040E050E00E945A3EC9010895CF92DF92AE
:103F5000EF92FF920E9452128CE693E00E9495131A
:103F60000E94BE1E0E94CA150E94561287E793E067
:103F70000E9495136091DA027091DB028091DC025D
:103F80009091DD0238EEC32E33E0D32EE12CF12CDC
:103F9000A70196010E945A3EC9010E94CA158AE7EC
:103FA00093E00E9495136091D6027091D7028091A0
:103FB000D8029091D902A70196010E945A3EC901E8
:103FC000FF90EF90DF90CF900C94CA150E94521290
:103FD0008DE793E00E9495130E94B72A68E00E9443
:103FE00048160E9446140E94561282E10E946909F6
:103FF000882349F086E893E00E9495130E94BD2A29
:1040000068E00E9448160C9446140E9452128FE8F1
:1040100093E00E94951367E086E00E94730D0E9472
:1040200046140E94561287E993E00E94951347E0D8
:1040300061E08091A7039091A8030E9408160C9458
:1040400046140E9452128FE993E00E94951367E094
:1040500080E00E94730D0E9446140E94561286EA68
:1040600093E00E94951367E082E10E94730D0C9427
:1040700046140E9452128DEA93E00E94951380919B
:10408000970390919803892B29F065E087E00E94BF
:10409000730D04C083EB93E00E9495130E944614B5
:1040A0000E9456120C9446140F931F93CF93DF93E4
:1040B00000D0CDB7DEB78B0189839A830E945A1254
:1040C0000E94521289819A810E9495130E94561271
:1040D000C8010F900F90DF91CF911F910F910C9419
:1040E000951385EB93E00E947F1D0E94561286EC8B
:1040F00093E00E9495130E94BE1E0C94CA1586ED93
:1041000093E00C947F1D0E9452120E94931E0E9405
:10411000511D0E9456120E94E41E0C94711D0E94B3
:1041200052128DEE93E00E94951367E08BE10E949E
:10413000730D0E9446140E94561286EF93E00E946F
:1041400095130C94711D0E94521280E194E00E941C
:1041500095138091970390919803892B41F069E022
:1041600080912801909129010E94EC1504C086E1FC
:1041700094E00E9495130E9446140E9456128FE10B
:1041800094E00E9495130C94511D60E070E089E268
:1041900094E00C9454200E94C5200C947C2E6EE375
:1041A00074E08DE294E00E94542088E893E10C943E
:1041B0006A2D0E94521289E494E00C94951384EFC6
:1041C00091E00E94AB0866E674E08AE594E00E9404
:1041D000542084E893E00E94AB0865E874E087E728
:1041E00094E00E94542084E893E00C94AB0860EAC9
:1041F00074E084E994E00E94542080E49FE10C94F0
:10420000AB081092CF021092CE021092CD02109203
:10421000CC028091D0028093D1021092CB021092F6
:10422000CA020895CF930E9401210E94521264E0B5
:1042300070E088E892E00E94591A80E20E94EF1331
:1042400088E892E00E94691A80E20E94EF13809150
:10425000FF020E94A61D0E9456120E94AE1D80936E
:10426000D00262E090E00E94C71586EA94E00E94C6
:10427000951384ED92E00E94852E882319F0C09159
:10428000D40201C0CFEFC0FF05C065E080E00E940E
:10429000730D03C085E00E94371480E20E94EF1383
:1042A0008091880284508530A8F4C1FF05C065E084
:1042B00082E10E94730D03C085E00E943714C2FFA3
:1042C00005C00E948B09CF910C94491480E2CF91D4
:1042D0000C94EF1366E08091890290918A020E940B
:1042E0005416CF910C9446140E94AE1D8093D002B8
:1042F0009091D102981728F58093D1020E94BE1E9A
:104300002091CC023091CD02821B930B9093CF026F
:104310008093CE020E94BE1E9093CD028093CC0269
:104320008091CE029091CF022091CA023091CB02AF
:104330002817390710F0232B21F49093CB02809398
:10434000CA020895CF93DF930E9474210E948B09C3
:10435000811116C082E10E94D308EC0180E00E9426
:10436000D308C817D90728F49C012C1B3D0BE90181
:1043700002C0C81BD90BC53FD14010F024E601C0D4
:1043800029E630E08091D102281B31098091CA02D0
:104390009091CB02289FA001299F500D389F500D6E
:1043A0001124CA01DF91CF9108958091D2028F5FCD
:1043B000853118F48093D20202C01092D2020E947A
:1043C00074218091D2028A3088F40E9452120E9495
:1043D000931E67E086E10E94730D0E9446140E94BE
:1043E00056120E94E41E80E094E018C00E9452120F
:1043F00068E087E10E94730D82E094E00E949513CB
:1044000067E086E10E94730D0E9446140E945612D6
:1044100068E089E10E94730D84E094E00E949513A6
:104420008091D2028A3068F40E944026811115C022
:1044300008C00E94A2210C94CA1587E094E00C9455
:10444000951364E08091D00290E00E94C7158EE041
:1044500094E00E9495130C9446148091CA029091A6
:10446000CB02459730F7E9CFCF93DF930E9418280E
:10447000873581F10E941528C82F0E941828EC2F3B
:10448000F0E0EF59FF4F80830E941528C82FD0E03D
:10449000CC0FDD1FCE55DD4F6091D6027091D70253
:1044A0008091D8029091D90228EE33E040E050E0AC
:1044B0000E945A3E398328830E941528C82F88E11C
:1044C0000E94D308EC2FF0E0EE0FFF1FEA54FD4FDF
:1044D00091838083DF91CF9108950F931F93CF93A2
:1044E000DF930E9434228091D2028F5F863018F4CD
:1044F0008093D20202C01092D2028091D202853003
:1045000091F4C0916B00CF5FC0936B000E9415289F
:104510002C2F30E090E0880F991F821793071CF42E
:1045200081E080936B0000916B0001500E94521259
:1045300062E080916B0090E00E94C71581E00E94CC
:10454000371410E0E801CF59DF4F88810E94EF1344
:1045500081E00E943714000F111FF801EE55FD4F46
:10456000808191810E94CA150E9446140E945612B1
:1045700081E00E9437148881982F9354923010F074
:10458000873541F4F801EA54FD4F68E0808191815C
:104590000E9454160E941828873521F485EE93E076
:1045A0000E949513DF91CF911F910F910C944614A7
:1045B0009091D5029F5F9093D50290E0FC013197D6
:1045C000E131F10548F5E65DFF4F0C94983E0C94FF
:1045D000101F0C949C1E0C94A61F0C94392061E0B3
:1045E00005C061E083E00C94021E66E080E0FBCF32
:1045F00066E0F8CF0C9412210C94E61F0C94212055
:104600000C9405200C94D5210C948F200C94A3209D
:104610000C9483200C946D2208958FEF8093D40224
:1046200008950F931F93CF93DF930E946A26C09142
:104630008B02D0918C0261E088E892E00E94F3192D
:104640008C01CE0165E070E00E94463E8FE00E9442
:10465000130DEC0140E0BC01C8010E94192B8FE052
:104660000E94412BCE01DF91CF911F910F910C94AD
:10467000542681E00C947C260E94CB09882321F0EB
:104680000E944F260C94E92B08951092E2020C949C
:104690001123CF93DF930E943C230E94C609EC01B3
:1046A0008091E202811111C062E088E892E00E94EC
:1046B000F3198C179D0748F481E08093E202809102
:1046C0008B0290918C020E9464260E94CB09882361
:1046D000D9F164E088E892E00E94F3198C179D07F5
:1046E00058F132C08091E302882389F08AE10E9468
:1046F000D308EC0188E892E00E942A1AD195C1956E
:10470000D1098C179D071CF487EB94E017C08091AA
:10471000E402811101C00EC08CE10E94D308EC01BB
:1047200088E892E00E94481A8C179D071CF48BEBD6
:1047300094E004C082E00FC08FEA94E09093FE0200
:104740008093FD0281E007C0809134019091350192
:10475000029740F6EFCFDF91CF9108958093E40266
:104760006093E30208957093E8026093E7029093E8
:10477000E6028093E50208950F931F93CF93DF9392
:10478000C091E502D091E602CE010E94D50F8C01C6
:104790000E94C609C817D90738F4C801DF91CF9124
:1047A0001F910F910C94B70F81E0DF91CF911F9172
:1047B0000F9108950F931F93CF93DF930E94BC2313
:1047C000182F0E94AD26EC010E94CB09882311F01E
:1047D00001E001C0012F8091E902882329F0BE0188
:1047E000812F0E94992B01C0812F882329F081E01D
:1047F0000E94E52681E00DC0011101C009C0BE0183
:10480000812F0E94B82C8C179D0711F00E94C92699
:1048100082E0DF91CF911F910F9108950E94D726DA
:104820000E94240E1092E90280E10C94412B81E059
:104830000E94E5260C941F0EBC0180E10E94130D1E
:104840000C94842A0F931F93CF93DF938C01EB0179
:104850000E94B323BE0180E10E94130D40E0BC0121
:10486000C8010E94192BCE016AE070E00E94463E0A
:10487000CB01DF91CF911F910F910C941C240E94CA
:10488000240E0E946A268FE00C94412B81E00E9446
:104890007C260C941F0E0F931F93CF93DF931F92D0
:1048A000CDB7DEB78C018FE049830E94130D49819B
:1048B000BC01C8010F90DF91CF911F910F910C9413
:1048C000192B0F931F93CF93DF931F92CDB7DEB7B2
:1048D0008C018FE049830E94130D4981BC01C801FE
:1048E0000F90DF91CF911F910F910C942D2BBC0154
:1048F0008FE00E94130D0C94842A0F931F93CF9383
:10490000DF93C0918703D0918803CE010E94D50F19
:104910008C010E94C6098C179D0738F4C801DF91ED
:10492000CF911F910F910C94990F81E0DF91CF915E
:104930001F910F9108951F93CF93DF930E947D24C1
:10494000182F0E944F26EC01BC01812F0E94992B49
:10495000882329F081E00E947C2681E01BC00E9410
:10496000CB0981110BC0111109C0CE010E949E2AF2
:10497000811104C00EC00E9454260BC00E948F0DEE
:10498000811107C0BE01812F0E94B82C8C179D0792
:1049900091F782E0DF91CF911F9108950E94462404
:1049A0000E9417240C941F0ECF93DF931F92CDB754
:1049B000DEB79091EB02913039F018F0923081F42B
:1049C00006C00E949B240CC00E94DA2309C00E94EA
:1049D0006A0F823089F089830E94CE2489810CC0BD
:1049E000813051F49091EA02992331F082E0809372
:1049F000EB020E94240E82E00F90DF91CF91089588
:104A00000E94240E8091EC029091ED020E94D50F3D
:104A10000E94B70F882329F00E943F241092EB02D6
:104A200008950E940E2481E08093E9028093EB02B6
:104A300008958093EA0208950F931F93CF93DF9315
:104A4000EC018A019093ED028093EC0240E00E9419
:104A50004B24B801CE01DF91CF911F910F910C949F
:104A600022240E94D72687E08093D40282E080939C
:104A7000D5020E94C23683E08093EF02089581E060
:104A80000E94E5268FEF8093D40288E00C94C9360B
:104A9000FF920F931F93CF93DF9380E00E946909E9
:104AA000FF24F394F8268091EE02882379F00E9487
:104AB0008B0990918F0201E0981301C000E011E092
:104AC000811110E0913021F4112311F010E000E089
:104AD0000E948B09811129C0112339F182E10E94C2
:104AE000D308EC0180E00E94D308C817D90728F446
:104AF0009C012C1B3D0BE90102C0C81BD90BC53F13
:104B0000D14008F065C011C08091FF02882331F0C8
:104B1000843021F0853011F0863039F40E94DF2096
:104B200081E00E94C93610E000E082E10E9469093C
:104B30008823B1F082E10E94D308EC0180E00E945A
:104B4000D308C817D90728F49C012C1B3D0BE90199
:104B500002C0C81BD90BC53FD14010F0FF24F3940D
:104B6000011102C087E001C083E08093D4021123C9
:104B700029F08091D40282508093D402FF2029F042
:104B80008091D40281508093D402011104C011118C
:104B900002C0FF2011F081E001C088E00E94C93608
:104BA0000E94BB11811102C01092EF02011108C0D6
:104BB000111106C0F11004C00E94BB11883079F0B9
:104BC0008091EF02823011F481E00FC082E00DC0CD
:104BD000809188028450853008F496CFA6CF8091CA
:104BE000EF028F5F8093EF02EBCFDF91CF911F91A8
:104BF0000F91FF9008958093EE02089508950E940A
:104C0000542D28EE33E040E050E00E945A3E80915F
:104C1000F2029091F3026091F0027091F102860F1E
:104C2000971FAA2797FDA095BA2F82179307A4076D
:104C3000B50728F081E08093F40282E00895109295
:104C4000F40281E008950E94542D28EE33E040E004
:104C500050E00E945A3E3093F3022093F2020895EE
:104C60008091F40208952CE3AC01249FC001259F9C
:104C7000900D11249093F1028093F0020C9423265E
:104C800081E09091F702911180E0089581E02091F8
:104C9000F5023091F602232B09F480E0089580910B
:104CA000F5029091F60208959C01293E8DEF380798
:104CB00010F028EE3DEF3093F6022093F502C90183
:104CC0000E94C3060C941A0BBC018FE00E94130DC6
:104CD0000C9454268091F702882369F01092F60212
:104CE0001092F50280E090E00E94542681E00E943C
:104CF000DE061092F7020895CF93C82F8091F70235
:104D000081110FC0CC2369F080E090E00E9454260E
:104D10001092F6021092F50280E00E94DE06C09327
:104D2000F702CF9108951092F6021092F50280E0FA
:104D300090E00E94542681E00C947C2681E09091C2
:104D4000FC02911180E0089581E02091FA023091F7
:104D5000FB02232B09F480E008958091FA029091E0
:104D6000FB020895482F8091F8029091F90220915A
:104D7000FA023091FB028217930711F4442341F0A9
:104D80009093FB028093FA020E948A070C941A0BFC
:104D900008959C01213080E4380710F020E030E4D1
:104DA0003093F9022093F80281E00C94B2268091AE
:104DB000FC02882349F080E090E00E94C92681E04F
:104DC0000E94D1061092FC020895CF93C82F8091C3
:104DD000FC0281110BC0CC2349F080E090E00E94DE
:104DE000C92680E00E94D106C093FC02CF910895AD
:104DF00080E090E00E94C92681E00C94E5260895A9
:104E000080918802883051F0982F9450953048F066
:104E10008150823048F423E133E008C021E033E0E0
:104E200005C02AE033E002C02CE133E0C901089557
:104E300083ED94E090937B0280937A0290918802B4
:104E4000945081E0953008F080E00E94FB2561E0FD
:104E50008FED94E00E94341091E0813009F090E0F1
:104E6000892F08950F931F93CF93DF930E941925E5
:104E700000918D0210918E02C0918B02D0918C0214
:104E800063E088E892E00E94F319A801BE010E9445
:104E90001C258DEC94E090937B0280937A0260E075
:104EA00085EE94E0DF91CF911F910F910C94341017
:104EB000EF92FF920F931F93CF93DF938C01CBE878
:104EC000D2E0E880F98061E088E892E00E94F3197E
:104ED00040E0B7010E944B2488819981B8010E946B
:104EE000463ECB010E94772487EC94E090937B02AE
:104EF00080937A0260E082EF94E0DF91CF911F917E
:104F00000F91FF90EF900C943410CF93DF93C091EA
:104F10008B02D0918C0261E088E892E00E94F31944
:104F200041E0BE010E944B2487EC94E090937B0209
:104F300080937A0260E082EF94E0DF91CF910C944D
:104F40003410CF93DF93C0918B02D0918C0261E03B
:104F500088E892E00E94F31941E0BE010E946124BA
:104F600087EC94E090937B0280937A0260E082EF7A
:104F700094E0DF91CF910C94341081E0209197035D
:104F800030919803232B09F480E061E00E94AE2366
:104F900089EA94E090937B0280937A0260E08FEF3D
:104FA00094E00C94341062E088E892E00E94F319D7
:104FB00060918D0270918E02E0918F02F0919002CB
:104FC0004091A9035091AA03E49F9001E59F300D01
:104FD000F49F300D1124820F931F0E94222481EC34
:104FE00094E090937B0280937A0260E08CE095E0FD
:104FF0000C943410CF93DF93C0918D02D0918E0228
:1050000062E088E892E00E94F319BE010E94222427
:1050100081EC94E090937B0280937A0260E089E1D6
:1050200095E0DF91CF910C943410809100030895A6
:1050300080916D000895AF92BF92CF92DF92EF9270
:10504000FF920F931F93CF93DF93C0918D02D09166
:105050008E0262E088E892E00E94F319BE010E948D
:10506000222481E02091970330919803232B09F4A7
:1050700080E061E00E94AE238091A3039091A4039D
:105080000E94332610920003C1ECD4E084E4C82EC1
:1050900009EA14E093E4B92E29EDE22E24E0F22E81
:1050A00037E5A32E35C040FF07C010937B02009365
:1050B0007A02B0926D0006C0D0937B02C0937A0250
:1050C000C0926D0061E08FEF94E00E943410D82E02
:1050D00083E00E94C93681E0D81228C0F0927B029A
:1050E000E0927A0283E00E94C936A0926D0061E0EE
:1050F0008FEF94E00E943410D82E83E00E94C936CE
:1051000081E0D81213C0809100038F5F8093000369
:1051100040910003242F30E08091A1039091A203DD
:105120008217930708F0BFCFDD24D3948D2DDF9134
:10513000CF911F910F91FF90EF90DF90CF90BF9094
:10514000AF9008958EE491E090937B0280937A0271
:1051500060E084E295E00C943410CF93C82F8093E4
:10516000FF022AE235E03093FE022093FD028D30EB
:1051700030F4E82FF0E0E354FF4F808101C080E07D
:1051800080936C000E9424380E943D0B0E941827D7
:10519000882309F445C084E00E94C936C63049F12D
:1051A00060F4C230C1F128F4CC23A9F0C130B1F5CC
:1051B0002FC0C430B1F0C0F411C0C93019F128F4C7
:1051C000C730C9F0C83051F51AC0CB3069F0E8F0EB
:1051D000CC3021F506C08AE090E008C00E94A228E9
:1051E0001FC00E94D3271CC085E090E00E94582772
:1051F00017C080E001C081E00E94322711C00E94E8
:10520000BD270EC00E94FA270BC00E941B2808C0B1
:105210000E94852705C00E94A12702C00E94CB20C2
:105220000E944C0BCF910C9434380F931F93CF9363
:10523000DF93EC010E94C7190E9400278C0160E0F7
:10524000C8010E942A1987FD29C090918802E82F81
:10525000FF27E7FDF095983019F4E55DFA4F0FC090
:10526000892F8450853018F4EE5CFA4F08C09150B5
:10527000923018F4E55CFA4F02C0E15CFA4F849179
:105280008D3049F4BE0188E892E00E94C91ACE012F
:105290000E94D519D1CF0E94AD28D1CFDF91CF91F7
:1052A0001F910F91089562E475E08AE093E00E94F7
:1052B0003C1866E575E083E193E00E943C1860E6E7
:1052C00075E081E093E00E943C1860E775E08CE1B6
:1052D00093E00C943C18FC01428153814115510527
:1052E00089F0A081B181B7FF03C0B195A195B10943
:1052F00028EE33E00E94183E9A0140E050E00E9400
:105300005A3E02C020E030E0C90108950F931F9378
:10531000CF93DF9300D000D0CDB7DEB78C01862FBE
:10532000F801628173810E94670B9C838B83F80173
:10533000808191819A838983CE0101960E946B2995
:105340000F900F900F900F90DF91CF911F910F91C1
:1053500008950F93FC01CA01002341F064177507FB
:1053600008F4CB014617570748F409C046175707FA
:1053700008F4CB016417750708F401C0BA019783DC
:1053800086839183808313821282158214823387ED
:105390002287681B790B718760870F910895FC0144
:1053A0009B0140E050E086819781281B390B410921
:1053B0005109A285B3850E941F3E2085318544276F
:1053C00037FD4095542F0E947C3E2115310581E028
:1053D000480751051CF457FD04C005C02FEF3FEFEF
:1053E00002C020E030E0C9010895DF92EF92FF9201
:1053F0000F931F93CF93DF93EC012A813B812417F6
:10540000350720F4FA01E21BF30B03C0F901E41B9A
:10541000F50B8C819D81969587958E179F0788F552
:10542000888199818617970720F4FB01E81BF90B07
:1054300003C0FC01E61BF70BEF2BF9F422C08A0135
:10544000021B130B7B01E81AF90A06C07C01E61A5D
:10545000F70A8901041B150BC7010E94A12DD82E44
:10546000888599850E94A12DD8120BC01D830C83BD
:10547000F986E8861B870A8704C024173507F8F2E7
:10548000E5CFDF91CF911F910F91FF90EF90DF90CB
:1054900008950F931F93CF93DF93EC018B019A0133
:1054A000A885B9850E94183E2A853B8540E050E0DA
:1054B0000E947C3EC801A0E0B0E082179307A407D9
:1054C000B5071CF41F821E8204C0021B130B1F832E
:1054D0000E83DF91CF911F910F910895EF92FF926C
:1054E0000F931F93CF93DF93EC018B017A010E94FE
:1054F000F529A701B801CE01DF91CF911F910F913E
:10550000FF90EF900C94492A90938E0380938D0323
:10551000089580912703813029F420918D033091E3
:105520008E0302C020E030E0C90108956091890334
:1055300070918A03809129030C94670B20912C03AE
:10554000213041F041E020918D0330918E0382178C
:10555000930708F040E0842F08952CE0829FC0015B
:105560001124609129038B5C9C4F0C9486296091D7
:1055700029038DE793E00C9486290F931F93CF9313
:10558000DF9300D000D0CDB7DEB70E944026811156
:1055900026C00E949E26811122C037C000916E0055
:1055A00010916F00CE0101960E946B298017910720
:1055B00040F4CE0101960E946B2990936F00809376
:1055C0006E0020916E0030916F002F3F8FEF3807F3
:1055D00009F421C0309382032093810320C080E02E
:1055E0000E94D3089A83898382E10E94D30829818B
:1055F0003A81281B390B3A83298386E10E94D3081C
:105600009C838B83892BE9F2C9CF8FEF9FEF909317
:105610006F0080936E002091810330918203C90155
:105620000F900F900F900F90DF91CF911F910F91DE
:105630000895909388038093870370938A036093FF
:105640008903CB016AE070E00E94463E70938E03AE
:1056500060938D034093280308959093880380936B
:10566000870370938A0360938903CB0164E170E040
:105670000E94463E70938E0360938D0340932803EF
:105680000895EF92FF920F931F93CF93DF9391E0D2
:1056900090932703FF24F3948F3009F0F12C80932B
:1056A000290368EC70E00E94130D90938C038093A3
:1056B0008B030E94C60920918D0330918E03409187
:1056C0008703509188030F2DBC0185E793E00E946A
:1056D000A9290E948C0D80932A03809187039091C1
:1056E00088030E94D50FEC0110E08CE0E82E12C078
:1056F000812F0E94C50DBC0120918D0330918E0336
:10570000E19EC00111240F2DAE01835D9C4F0E94CC
:10571000A9291F5F80912A03181750F310922C03B8
:1057200010922B03DF91CF911F910F91FF90EF907B
:1057300008950F931F93CF93DF93082FEB01809170
:1057400028038823C9F040918B0350918C0320914A
:105750008D0330918E032417350708F49A012C1716
:105760003D0710F41092760280912C03813021F0D5
:105770000E946A0F8093270380912703813019F5D7
:1057800080912C03823041F411E020918D033091FF
:105790008E03C217D30708F010E00E94892A8C17E5
:1057A0009D0778F0111103C0011101C00AC090914A
:1057B0002B03892F8F5F80932B0381E09A3020F495
:1057C00002C010922B0380E0DF91CF911F910F91C7
:1057D00008950F931F93CF93DF93EC010E94C609A6
:1057E000AE01BC0185E793E00E946E2A10E00CE058
:1057F0000DC0812F0E94C50DBC01019FC001112465
:10580000AE01835D9C4F0E946E2A1F5F80912A0328
:10581000181778F3DF91CF911F910F910895CF92D0
:10582000DF92EF92FF920F931F93CF93DF936091DC
:1058300087037091880385E793E00E94CF29EC01EC
:1058400080918703909188030E94D50F7C01D12C11
:105850009CE0C92E12C0CD9C80011124035D1C4F19
:10586000B701C8010E94CF29C817D90728F0B7018E
:10587000C8010E94CF29EC01D39480912A03D81645
:1058800050F3CE01DF91CF911F910F91FF90EF90D8
:10589000DF90CF9008950F931F93CF93DF938B01E9
:1058A00080938503909386032091890330918A0326
:1058B000EC012817390708F4E9010E94892A9C01A4
:1058C0008C179D0708F49E010217130719F18091A8
:1058D0002C038230A9F42017310790F080918D03BA
:1058E00090918E0380179107A0F04091830350910F
:1058F000840380915302909154024817590749F04C
:105900008091530290915402909384038093830377
:1059100001C09801C901DF91CF911F910F910895A6
:105920000F931F93CF93DF93EC010E94C6099093CE
:10593000760380937503D0937803C093770310E0C8
:105940000CE00DC0812F0E94C50D019FF0011124B4
:10595000E35DFC4F91838083D383C2831F5F80917B
:105960002A03181778F3DF91CF911F910F910895B3
:105970001F93CF93DF93182FEB01CB010E94E92BEC
:10598000CE010E94902C0E940F2C909326038093AE
:105990002503BE010E944B2C9C0180912C03811198
:1059A00010C0112389F080912803882321F00E94E0
:1059B000180E1092760281E080932C0320E030E0F4
:1059C00003C082E080932C03C901DF91CF911F9126
:1059D00008950F931F9300918F03109190032091CE
:1059E000910330919203B801C9011F910F9108955D
:1059F00012BE8DE78CBF88E083BF83B7836083BF0F
:105A000089B7826089BF089580918F039091900338
:105A1000A0919103B09192030196A11DB11D8093B5
:105A20008F0390939003A0939103B09392030895F2
:105A30000E94042D0E94A2370E949F2E0E943405CE
:105A400080917000815019F080937000089581EE6C
:105A5000809370000E94FF260E9499090C945F1F9A
:105A60001F920F920FB60F9211242F933F934F93D3
:105A70005F936F937F938F939F93AF93BF93EF93B6
:105A8000FF930E94182DFF91EF91BF91AF919F91CD
:105A90008F917F916F915F914F913F912F910F90D7
:105AA0000FBE0F901F9018950F931F938FB7F89408
:105AB00000918F03109190032091910330919203F4
:105AC0008FBF3695279517950795B801C9011F9186
:105AD0000F910895CF92DF92EF92FF92CF93DF93D1
