:100000000C94AA040C94D2040C94D2040C94D20440
:100010000C94D5330C94D2040C94D2040C94D204D6
:100020000C94D2040C9411340C941C060C94D2043D
:100030000C94D2040C94A8340C94DD340C94D204A7
:100040000C9440060C94D2040C94D2040C94D20468
:100050000C94D204341F1C1F1E1F201F221F241F9C
:10006000261F2A1F2C1F2F1F311F401F361F381F0E
:100070003A1F3C1F3E1F4A2F4E2F512F562F582FED
:100080005B2F602F622F662F6A2F702F762F7B2FAA
:100090007F2F812F852F8B2F8F2F1A301C301E30F2
:1000A00021302430263029302C302F30323035307A
:1000B00039303C304130443047304A304D30000018
:1000C000000080C64E5A000000007C6B0831000121
:1000D00033000028D007800133004023E8030000EC
:1000E0000000C0AE4E5AFC5350143FA0540B000009
:1000F000000000BBC43680186009DC3770170000B0
:100100000000000000000000000044C4FA0E0000DF
:10011000000000C4FB0E0000000068C4FD0E0000DB
:100120000000AAC5160F0000000040C6190F00000D
:10013000000040C72D0F0000000040C6190F00004E
:10014000000040C72D0FB00032006001E8034F01EE
:1001500032009E022C01FF00000000050400000494
:100160000900FF0101000105050001040A00FF026A
:1001700002000205060002040B00FF030300030552
:10018000070003040C00FF00000004051302040430
:100190000D00FF0101000505130405040E00FF0218
:1001A00002000605130106040F00FF030300070504
:1001B000130807041000EB0CE60C310E20204368F6
:1001C00065616C6943686172676572002020202058
:1001D0007665723A20302E333300DE0100006F70F6
:1001E00074696F6E730001000100010001000100DD
:1001F0000A00640001000200040010004000000139
:1002000000040100030008000700070014000700B5
:10021000496E660079657300206E6F006D5600FBB5
:1002200002030308030D03110316031B0320032617
:10023000032C0301000100010001000000B0041CB8
:1002400007520300000807B0044006E80300000856
:1002500007D0079209D60600000000E40C100ED06B
:1002600007E40C0000100E0410C409A60E00007470
:100270000E6810B80B0A0F0000740ECC10B80B0AF1
:100280000F0000740EFE10B80B0A0F000040066C41
:100290000714054006000000980898086C0710270E
:1002A00001980898086C07010002980898086C07E4
:1002B0000100039808DC006C070600049808980801
:1002C0006C07030005980898086C07030006980857
:1002D00098086C07030007980898086C0703000843
:1002E000980898086C07030009980898086C070399
:1002F00000756E6C696D6974656400556E6B6E6F28
:10030000776E004E694364004E694D480050623F6D
:10031000004C696665004C696C6F004C69706F0039
:100320004C69343330004C69343335004E695A6EB1
:100330000054035B03600365036A036F037D038A54
:1003400003000045646974206E616D653A004E617A
:100350006D653A004261743A202000563A20200030
:1003600043683A200049633A200049643A2000205B
:1003700020637265617465206E616D6500202020C8
:1003800065646974206E616D65002020207265735C
:100390006574206E616D650043684342426C446938
:1003A000464353745342436844694379435943680D
:1003B000446945420020202D2D2020004C696D69A4
:1003C00074733A200074696D653A20202020200063
:1003D000622000202000626174742E20523D00775C
:1003E0006972657320523D0056696E7075743D00E8
:1003F000206C696D69743D00566F7574203D005620
:1004000062616C2E3D00546578743D002D00546986
:100410006E743D0070726F6772616D20636F6D70F6
:100420006C65746500726561736F6E3A20006D6F64
:100430006E69746F72206572726F72006E6F2064E5
:10044000542F74006D6178566F75743D0064656C4F
:10045000746120563D2000546578743D006E6F74C1
:1004600020757365640064656C746120543D2000E0
:1004700046756E6374696F6E206E6F7400696D707F
:100480006C656D656E7465642079657400706C656B
:100490006173652063616C69627261746500626595
:1004A000666F726520757365005245564552534517
:1004B00020504F4C41524954590046554C2000257C
:1004C00020007B1F6F1F7F1F56206C696D697400B1
:1004D0002D64560064542F647400422053200E2073
:1004E0007B208220C1202621F420FA20E321EF2165
:1004F000572101060708050002060708090A0B0D27
:100500000E0F0405030002060708090A0B0D0E0F63
:1005100004050300020C10110D0E0F040503000268
:10052000060708090A0B0D0E0F0405030002110D42
:100530000E0F040503000607080405000000010271
:1005400003040D000102030405060D0708090A0D46
:100550000B0C0D87058E059D05A505AF05BB05C3D5
:1005600005D20500008705A505DF05E905D20500D0
:100570000087058E059D05A505AF05D205000087FE
:1005800005A505D2050000636861726765006368B0
:10059000617267652B62616C616E63650062616C9C
:1005A000616E6365006469736368617267650066A4
:1005B000617374206368617267650073746F726140
:1005C00067650073746F726167652B62616C616E41
:1005D0006300656469742062617474657279006394
:1005E0003E64206379636C6500643E6320637963D5
:1005F0006C6500696E7465726E20540062617420CF
:100600006469736300696E7075742056006361706D
:1006100020434F4646006578742054434F460043BC
:100620006F6E6E6563742042617474657279210027
:10063000AB06B106B706BD06C306C906CF06D5068A
:10064000DB06E106E70600000621222324252627F3
:1006500028151406090A0B0C0D0E0F10ED06F506F1
:100660000000000120436F6E6E6563742042617468
:100670007465727900FD06050700000D071207007A
:10068000001907200700002707300700003907413D
:10069000074A07560762076E077A0700003200E82C
:1006A0000389078E07000032002C0156696E3A203C
:1006B000005662313A20005662323A2000566233C8
:1006C0003A20005662343A20005662353A200056ED
:1006D00062363A20005662373A20005662383A2095
:1006E0000056312D383A00566F75743A0056706CCA
:1006F00075733A2000566D696E75733A0076616CB9
:1007000075653A2000496F75743A20200035306DC8
:100710004100313030306D410074656D703A200019
:1007200076616C75653A00706F696E7420312E00C9
:10073000706F696E7420322E00766F6C746167651D
:1007400000492063686172676500492064697363CA
:1007500068617267650074656D7020657874657294
:100760006E0074656D7020696E7465726E006361F1
:100770006C69622D3E554152540065787065727403
:100780002044414E474552210035306D4100333001
:10079000306D41009C07A507AF07000073657474B6
:1007A000696E67730063616C69627261746500727F
:1007B000657365742064656661756C7400802500DE
:1007C00000004B00000096000000E1000000C201A4
:1007D00000460088137017010070176400010005BF
:1007E000000C0005007800581B0000000001000804
:1007F00000000003002B08360841084C0858086325
:10080000086A08760880088A089608A008AB08B429
:1008100008C008CC08D608DD08E5080000432F6DA5
:1008200000EE08F708FE0804090D096261636B6CAD
:10083000696768743A0066616E206F6E3A20202006
:10084000006469736368206F66663A006578747245
:100850006E20543A20202000657874726E20544334
:100860004F3A0064542F64743A00656E6162202D23
:1008700064563A2020004E694D48202D64563A00B7
:100880004E694364202D64563A00432F4420637917
:10089000636C65733A0063617020434F66663A008B
:1008A000696E707574206C6F773A00646973636861
:1008B000202B3A006469732061677265733A2000E7
:1008C000666F7263652062616C3A200062616C2E13
:1008D000206572723A00554152543A200073706597
:1008E00065643A2000202020726573657400646995
:1008F0007361626C6564006E6F726D616C0064653B
:10090000627567006578742E20646562006578748E
:100910002E204164630016191B1A1C0705062122AC
:100920002324252627287265736574696E67206500
:100930006570726F6D3A00763A20382E312E352070
:10094000006320006420007320007605AC0F431F75
:100950006824143611241FBECFE5D8E0DEBFCDBF1A
:1009600010E0A0E6B0E0E0EAFFE602C005900D92DC
:10097000AC3DB107D9F714E0ACEDB0E001C01D9279
:10098000A53CB107E1F719E0C4E5D9E004C022971E
:10099000FE010E945537CA34D107C9F70E94A70F3C
:1009A0000C94CE370C940000CF92DF92EF92FF921E
:1009B000482F282F30E0A0E0BDE70E94C7366B012A
:1009C0007C01A4E6B0E0A41BB10924E630E00E945B
:1009D000D3366C0D7D1D8E1D9F1D24E630E040E05A
:1009E00050E00E941537B9018DE0FF90EF90DF9045
:1009F000CF900C947E34882311F0909A08959098AB
:100A00000895089580FF02C0979A089597980895D1
:100A1000811103C0939AC49808959398C49A089535
:100A2000811102C0969A089596980895811102C086
:100A3000929A089592980895BC018EE00C947E34A9
:100A4000BC018EE00C947E3480FF02C0C09A01C0CD
:100A5000C09881FF02C0C19A01C0C19882FF02C044
:100A6000C29A01C0C29883FF02C0C39A01C0C39852
:100A700084FF02C0DE9A01C0DE9885FF02C0DF9AC3
:100A800001C0DF9886FF02C0AE9A01C0AE9887FF12
:100A900002C0AF9A0895AF9808958C9A8B9A889A5D
:100AA0008F9AB89AB99ABA9ABB9AD69AD79AA69AAE
:100AB000A79ABC9A8D9A8E9A8D9A8A9A80E00E9403
:100AC000080580E00E94FB0480E00E94020580E0AF
:100AD0000E94240520E042E060E18CED90E00E945D
:100AE00091150E9494340C947A0508958CED90E051
:100AF0000C94E215D598D498DD98DC98BF9ABE9AEC
:100B0000BD9A80B7806680BF8FEA86B91092E200F6
:100B10000C94053487FD21C0682F772767FD7095F9
:100B20004091600050E064177507B9F08093600051
:100B300098B3282F217030E0220F331F220F331F6C
:100B400082FB332730F9232B8270282B80E2289FE9
:100B5000900111249F71922B98BB089534B125B157
:100B60008091E20044E0849FC0011124FC01E85A16
:100B7000FE4FE491E33171F04FB7F894F0E0EE0FDF
:100B8000FF1FE253FE4F922F80E0832B91838083DF
:100B90004FBF0895FC01E75AFE4F84919091E30006
:100BA00027FD02C0892B02C0809589238093E30032
:100BB00008951092E20008950E9407229093F10197
:100BC0008093F0010E9459229093F3018093F201E7
:100BD0000C94BF09E091E200EF5FE83108F0E0E03B
:100BE00084E0E89FF0011124EA5AFE4F84910C94AE
:100BF0008A05CF93C091E20081E0C11101C080E07D
:100C00000E94AE058C2F8F5F883108F080E08093C2
:100C1000E20094E0899FF0011124E95AFE4FE4912B
:100C2000E062E7B9811103C0CF910C94DC05CF914C
:100C300008958091E30008951F920F920FB60F92CE
:100C400011242F933F934F935F936F937F938F93D1
:100C50009F93AF93BF93EF93FF930E94EA05FF9199
:100C6000EF91BF91AF919F918F917F916F915F9124
:100C70004F913F912F910F900FBE0F901F9018959D
:100C80001F920F920FB60F9211242F933F934F9301
:100C90005F936F937F938F939F93AF93BF93EF93E4
:100CA000FF930E94F905FF91EF91BF91AF919F9142
:100CB0008F917F916F915F914F913F912F910F9005
:100CC0000FBE0F901F9018950F931F938FB7F89436
:100CD0000091E4001091E5002091E6003091E700DA
:100CE0008FBFB801C9011F910F9108950E94CA28B2
:100CF0000E94D8320E94C8220E943E310C944C0CB3
:100D00008091E4009091E500A091E600B091E700A9
:100D10000196A11DB11D8093E4009093E500A0937E
:100D2000E600B093E70080916100815019F0809354
:100D30006100089581EE809361000E94A6090C94E1
:100D4000331D0F931F930E9464068B019C013695FF
:100D5000279517950795B801C9011F910F9108951F
:100D6000CF92DF92EF92FF92CF93DF93EC010E943C
:100D7000A1066B017C01CC0EDD1EE11CF11C0E9462
:100D8000A1066C157D058E059F05C8F3DF91CF91F7
:100D9000FF90EF90DF90CF900895CF92DF92EF9287
:100DA000FF92CF93DF93EC010E94A1066B017C01BF
:100DB000CC0EDD1EE11CF11C02C00E9476060E94D2
:100DC000A1066C157D058E059F05B8F3DF91CF91C7
:100DD000FF90EF90DF90CF900895E82FF0E0EE0FB6
:100DE000FF1FE855FE4F808191810895E82FF0E0C4
:100DF000EE0FFF1FEA5AFE4F8081918108952FB7B1
:100E0000F894E82FF0E0EE0FFF1FE253FE4F8081D1
:100E100091812FBF0895809142020895809102012F
:100E20009091030108958091F0009091F100089550
:100E30008091F2009091F3000895E82FF0E0EE0F1A
:100E4000FF1FEC5FFE4F808191810895262F633153
:100E500010F4423040F021E030E0FC013383228383
:100E6000318320830895642F70E0F2E02F9F600D9E
:100E7000711D1124660F771F660F771F665F7F4F06
:100E800044E050E00C948937282FCA01233190F4B4
:100E9000623080F470E032E0239F600D711D1124F8
:100EA000660F771F660F771F665F7F4F44E050E045
:100EB0000C94A7370895FF920F931F93CF93DF935E
:100EC00000D000D0CDB7DEB7F12C88E0F89E8001CD
:100ED0001124F801E254FF4F4591559165917491A9
:100EE00049835A836B837C83AE014F5F5F4F60E021
:100EF0008F2D0E944407F801EE53FF4F4591559105
:100F00006591749149835A836B837C83AE014F5FF3
:100F10005F4F61E08F2D0E944407F39483E1F81244
:100F2000D4CF0F900F900F900F90DF91CF911F9122
:100F30000F91FF900895E2E8F1E08081918108959A
:100F4000E8E8F1E0808191810895809130019091ED
:100F50003101039750F0809136019091370103974A
:100F600020F083E090E00C94630D80E008959FB73B
:100F7000F89480E024E0829FF0011124EC50FE4FB1
:100F800010821182128213828F5F833199F710923F
:100F90004102109240029FBF0895CF93CFB7F894BB
:100FA00010920101109200011092FC001092FD00BD
:100FB0001092FE001092FF001092F8001092F900BB
:100FC0001092FA001092FB001092F4001092F500BB
:100FD0001092F6001092F7000E94A1066093EC00B8
:100FE0007093ED008093EE009093EF00CFBFCF9110
:100FF0000895CF93DF930E94B7070E94CD07C09159
:101000000201D091030104C08AE090E00E94CD0665
:101010008091020190910301C817D907A9F3DF91CC
:10102000CF9108950E94CD071092F3001092F20024
:101030001092F1001092F000089580E0E82FF0E0A7
:10104000EE0FFF1FEC5FFE4F118210828F5F89321F
:10105000A9F708950E94B7070E94CD070C941D08B8
:101060008FB7F8941092E8001092E9001092EA000D
:101070001092EB008FBF10920301109202010E94A8
:10108000D9050E942A080E94120880E0E82FF0E0AB
:10109000EE0FFF1FEA5AFE4F118210828F5F8932D6
:1010A000A9F708958091420281110AC081E00E944F
:1010B00008050E94300881E0809342020C94F907F1
:1010C00008951092420280E00C940805CF93DF93BC
:1010D00081E00E94FF06EC0180E00E94FF068C1771
:1010E0009D0718F4C81BD90B02C0C0E0D0E081E016
:1010F000C93ED34008F480E0DF91CF9108958F92EC
:101100009F92AF92BF92CF92DF92EF92FF92CF93D6
:10111000DF93CDB7DEB728970FB6F894DEBF0FBECA
:10112000CDBFF82E5B0140E0682FCE0105960E94EE
:10113000260741E06F2DCE0101960E9426072B81E4
:101140003C8140E050E0CF80D884E12CF12C2C1978
:101150003D094E095F09B50180E090E08D809E80D9
:10116000A12CB12C681979098A099B090E94E536DE
:1011700029813A8140E050E0281939094A095B0980
:101180000E9437372C0D3D1D4E1D5F1D57FF03C0BC
:1011900020E030E0A901C90128960FB6F894DEBF1F
:1011A0000FBECDBFDF91CF91FF90EF90DF90CF903A
:1011B000BF90AF909F908F9008958F929F92AF9223
:1011C000BF92CF92DF92EF92FF92CF93DF93CDB792
:1011D000DEB728970FB6F894DEBF0FBECDBFF82E4E
:1011E0005B0140E0682FCE0105960E94260741E092
:1011F0006F2DCE0101960E94260729813A8140E099
:1012000050E0CD80DE80E12CF12C2C193D094E09F7
:101210005F09B50180E090E08F809884A12CB12C0B
:10122000681979098A099B090E94E5362B813C815E
:1012300040E050E0281939094A095B090E94373714
:101240002C0D3D1D4E1D5F1D57FF03C020E030E0FB
:10125000A901C90128960FB6F894DEBF0FBECDBF15
:10126000DF91CF91FF90EF90DF90CF90BF90AF9044
:101270009F908F9008950C9430088250883130F4FC
:10128000E82FF0E0E359FF4F8081089581E0089551
:10129000CF93DF93E82FF0E0EE0FFF1FEA5AFE4FE7
:1012A000C081D1810E943D09882319F0813059F411
:1012B00004C081E0E39740F404C081E0C935D24026
:1012C00018F480E001C081E0DF91CF910895CF93C1
:1012D000C0E08C2F8F5D0E944809882319F0CF5FF2
:1012E000C830B9F78C2FCF9108951F93CF93DF9318
:1012F0001F92CDB7DEB7182F69830E943D09E12FF9
:10130000F0E0EE0FFF1FEA5AFE4F4981682F8081FF
:1013100091810F90DF91CF911F910C94B5142FB74D
:10132000F8946091E8007091E9008091EA00909152
:10133000EB002FBF2DE730E040E050E00E94153772
:101340007727652F542F432FCA01089520918801D4
:10135000309189018091E8009091E900A091EA0024
:10136000B091EB00820F931FA11DB11D8093E80087
:101370009093E900A093EA00B093EB000895809168
:101380004202882309F47DC020914002309141023D
:101390002436310528F560E0A62FB0E0FD01EE0F00
:1013A000FF1FEE0FFF1FEC50FE4FAA0FBB1FA253F3
:1013B000BE4F4D915C9180819181A281B381840F58
:1013C000951FA11DB11D80839183A283B3836F5F9D
:1013D000633111F72F5F3F4F30934102209340025A
:1013E0002091CE013091CF018091FC009091FD00C1
:1013F000A091FE00B091FF00820F931FA11DB11DAF
:101400008093FC009093FD00A093FE00B093FF003A
:101410002091D0013091D1018091F8009091F90094
:10142000A091FA00B091FB00820F931FA11DB11D86
:101430008093F8009093F900A093FA00B093FB001A
:101440002091DC013091DD018091F4009091F50054
:10145000A091F600B091F700820F931FA11DB11D5E
:101460008093F4009093F500A093F600B093F700FA
:101470008091000190910101019690930101809368
:101480000001089590E0880F991FFC01EA5AFE4F71
:10149000208131816217730718F4261B370B04C0B3
:1014A000AB01421B530B9A01FC01EC5FFE4F27304E
:1014B000310518F01182108206C0208131812F5F22
:1014C0003F4F31832083FC01EA5AFE4F71836083D2
:1014D0000895AF92BF92CF92DF92EF92FF920F9357
:1014E0001F93CF93DF931F92CDB7DEB7A090560125
:1014F000B090570180915801909159018A159B0530
:1015000018F4A81AB90A02C0A12CB12CB50184E1C3
:101510000E94420A08E611E091E2F801619171919E
:101520008F01892F99830E94420A99819F5F993286
:10153000A1F70E946709182F80E0E12CF12C0CC064
:10154000E82FEF5DF0E0EE0FFF1FEA5AFE4F20811B
:101550003181E20EF31E8F5F8113F2CFB70185E177
:101560000E94420AE114F10481F0EA14FB0420F421
:1015700095012E193F0903C097012A193B09293EFD
:10158000334018F4570105E102C004E110E0B50151
:1015900086E10E94420A612F70E088E10E94420ABF
:1015A000602F70E087E10E94420A0E948F098C013F
:1015B0000E944A22882329F0E0905C01F0905D01AE
:1015C0000BC00E94F821882329F0E0905A01F09086
:1015D0005B0102C0E12CF12CB70189E10E94420AB3
:1015E000B8018BE10E94420A9701D5010E94C736DB
:1015F000E0E1CE2EE7E2DE2EE12CF12CA7019601F0
:101600000E941537B9018AE10E94420A9801D5016A
:101610000E94C736A70196010E941537B9018CE1D7
:101620000F90DF91CF911F910F91FF90EF90DF907E
:10163000CF90BF90AF900C94420A2F923F924F925E
:101640005F926F927F928F929F92AF92BF92CF9252
:10165000DF92EF92FF920F931F93CF93DF9300D00F
:1016600000D0CDB7DEB70E94A106C090EC00D090AC
:10167000ED00E090EE00F090EF006C197D098E090E
:101680009F09613375478105910508F498C02FB70C
:10169000F89400910001109101014090FC005090DD
:1016A000FD006090FE007090FF006091F800709166
:1016B000F9008091FA009091FB008090F4009090E6
:1016C000F500A090F600B090F7002FBF69837A83F1
:1016D0008B839C830E94CD072091F2003091F30010
:1016E0002F5F3F4F3093F3002093F2006801E12C0D
:1016F000F12C69817A818B819C81A70196010E94DE
:1017000015371901C301B201A70196010E941537CF
:10171000B90180E00E947F083C01B10181E00E9494
:101720007F088615970520F42301481A590A02C03C
:10173000412C512C609092017090930146145704F3
:1017400020F0B2018EE10E94420AB20166197709C7
:101750008DE10E94420AC501B401A70196010E94D1
:101760001537B90187E00E947F082091F000309181
:10177000F1009093F1008093F000BC01621B730BA9
:10178000660F771F8FE10E94420AB80180E20F9036
:101790000F900F900F90DF91CF911F910F91FF90BD
:1017A000EF90DF90CF90BF90AF909F908F907F9001
:1017B0006F905F904F903F902F900C94420A0F9043
:1017C0000F900F900F90DF91CF911F910F91FF908D
:1017D000EF90DF90CF90BF90AF909F908F907F90D1
:1017E0006F905F904F903F902F900895CF92DF922F
:1017F000EF92FF921F93CF93DF932FB7F8948091CE
:101800004002909141022FBF84369105E9F5809105
:1018100002019091030101969093030180930201CC
:1018200010E024E6C22ED12CE12CF12CC12FD0E007
:10183000FE01EE0FFF1FEE0FFF1FEC50FE4F608109
:10184000718182819381A70196010E941537FE0163
:10185000EE0FFF1FE855FE4F31832083B901812F22
:101860000E947F08BC01812F0E94420A1F5F133132
:10187000E9F60E94690ADF91CF911F91FF90EF90E6
:10188000DF90CF900C94B707DF91CF911F91FF901D
:10189000EF90DF90CF9008950E94F60B0C941D0BF3
:1018A00080917102089580916F02811112C00E948F
:1018B0000B07882381F00E940E072091430230918C
:1018C0004402821B930B9C0181E02530310520F0FE
:1018D00002C081E0089580E008958F5D0C94F606C3
:1018E0000F931F93CF93DF9310E0CFEFDFEF00E074
:1018F00009C0812F0E946D0C8C179D0710F4EC011C
:10190000012F1F5F80917102181798F3802FDF91CC
:10191000CF911F910F910895CF93DF9390916F0214
:10192000911104C0DF91CF910C946D0C90914D02F8
:10193000C82FD0E0992391F00E946D0CCC0FDD1FD1
:10194000FE01E25BFD4FC25ADD4F208131814881AB
:101950005981241B350B280F391F07C0FE01EE0FDC
:10196000FF1FE25BFD4F20813181C901DF91CF91E3
:101970000895CF93C82F80916F02882341F0C11141
:1019800006C00E940E079093440280934302C093C6
:101990006F020E94A10660934502709346028093F5
:1019A0004702909348020E941D0880916E028111A7
:1019B00004C08C2FCF910C942405CF91089580E022
:1019C0000E94B90C81E080936E0208950E94DF0CA2
:1019D00080E00C947505EF92FF920F931F93CF93C5
:1019E000DF9381E00E94750588E10E94F6068093EE
:1019F00071020EE512E03EE4E32E32E0F32EC0E089
:101A0000D0E00CC08C2F0E946D0CF8018193919353
:101A10008F01F701819391937F012196809171024B
:101A200090E0C817D90774F310926F0210926E02FB
:101A300080E00E94B90C109244021092430210926E
:101A40004502109246021092470210924802DF911E
:101A5000CF911F910F91FF90EF900895FF920F93F8
:101A60001F93CF93DF93809170020E948C0CEC0146
:101A7000F12C01E010E01CC08F2D0E948C0CAC01F9
:101A800080916F02802321F0C417D50778F40DC030
:101A900020918803309189032F5F3F4F369527951A
:101AA0002C0F3D1F2417350708F4102B000FF3945B
:101AB00080917102F81600F3812FDF91CF911F9171
:101AC0000F91FF9008951F93CF93DF93EC0110E0E7
:101AD00008C0812F8F5D0E941D078C179D0738F06D
:101AE0001F5F809171021817A0F381E001C080E0B0
:101AF000DF91CF911F910895BF92CF92DF92EF9225
:101B0000FF920F931F93CF93DF938AE090E00E94A0
:101B1000630D882309F461C00E94700C80937002E9
:101B20000E946D0C8C0162E080E892E00E94E51753
:101B30000817190750F17EE4E72E72E0F72EEEE564
:101B4000CE2EE2E0DE2EC0E0D0E0BB24B39416C07F
:101B50008C2F0E946D0CF701819391937F01F60108
:101B6000819391936F01801B910B20918803309199
:101B700089032817390708F4B12C21968091710246
:101B800090E0C817D90724F302C0BB24B394109285
:101B90004D020E94A1066093490270934A0280930D
:101BA0004B0290934C02BB2059F0DF91CF911F91D3
:101BB0000F91FF90EF90DF90CF90BF900C94DF0CCF
:101BC0000E942E0DDF91CF911F910F91FF90EF900A
:101BD000DF90CF90BF900C94B90CDF91CF911F9103
:101BE0000F91FF90EF90DF90CF90BF900895CF932B
:101BF00080914D02811119C081E080934D02809146
:101C000070020E946D0CC0E00CC08C2F0E946D0C05
:101C1000EC2FF0E0EE0FFF1FE25AFD4F918380831F
:101C2000CF5F80917102C81780F3CF9108950F9311
:101C30001F930E94A1060091490210914A0220912F
:101C40004B0230914C02601B710B820B930B28EE00
:101C500033E040E050E00E941537C9011F910F9119
:101C6000089583E090E00E94630D8823C9F080917D
:101C70006F02811103C00E947C0D12C00E94F70DFB
:101C80000E942E0D90E08095909520916F0230E09B
:101C900082239323892B81F40E94170E4F9760F4BF
:101CA0000E94530C882311F082E0089580916E0207
:101CB0008823D1F381E0089580E00E94B90CF0CF31
:101CC0001F93CF93DF93EC0110E00FC0812F0E9490
:101CD0006D0C8C179D0710F081E00CC0812F0E94C5
:101CE0008C0C8C179D07C0F71F5F8091710218172D
:101CF00068F380E0DF91CF911F9108951F93CF93F8
:101D0000DF93EC0110E00FC0812F0E946D0CC8170B
:101D1000D90710F081E00CC0812F0E948C0CC817ED
:101D2000D907C0F71F5F80917102181768F380E030
:101D3000DF91CF911F91089560917102662321F088
:101D400070E00E94013702C060E070E0CB010895AE
:101D50000E9430110E943D1E85E00E9473300E9457
:101D6000A72888E00C9473300E9430110E94411E15
:101D700086E00E9473300E94A72888E00C9473309C
:101D8000E0917202F091730285919491FC010994A3
:101D9000E0917202F0917302329685919491FC0168
:101DA0000994E0917202F0917302349685919491B6
:101DB000FC010994CF93DF931F92CDB7DEB7811159
:101DC00007C00E94161D0E94C80E0E94B40E0FC0CC
:101DD000813059F469830E94161D0E94C80E6981E2
:101DE000611105C00E94A80E02C081E001C080E020
:101DF0000F90DF91CF910895BF92CF92DF92EF9233
:101E0000FF920F931F93CF93DF938C01C62E0E94F6
:101E1000C00E0E94F81C0E94FC280E943011F12C78
:101E200082E0D82EC0E0D0E0EE24E3940E9452304D
:101E3000811106C0F801EF0DF11D84910E940D1F64
:101E40000E94BA10B82E84E0B81209C0EF2DF0E05D
:101E50003196E00FF11FE491E11123C005C082E04B
:101E6000B81202C0F110FA94EE2081F00E941029FD
:101E7000D82E6C2D0E94DA0EE82E882339F00E94AD
:101E80000E07C817D90779F4E11003C0C11016C0B6
:101E9000E12C81E0B812CACF0E94161D0E94C80E24
:101EA0000DC0F394E1CF0E940E07EC010E94D10E09
:101EB000D82E6C2D0E94DA0EE82EE6CF8D2DDF9104
:101EC000CF911F910F91FF90EF90DF90CF90BF9037
:101ED0000895FC0124812052621710F40C94151609
:101EE000862F90E0821B91090E94AB186EE00C9443
:101EF0006F1260E084E792E00E94131787FD0AC02A
:101F0000811102C00C94A82D992787FD9095019707
:101F10000C942A24089578940E944D050E94F93368
:101F20000E9443220E94C1220E943B090E94503617
:101F30000E940B2E6CEC71E08CEB91E00E94201E55
:101F400088EE93E00E94B00680E00C9489330E94F2
:101F50008B0F0E94790FFDCF6AED71E084E792E06C
:101F60000E94241689E890E0909375028093740291
:101F7000E8E7F2E08081805E80830895CF93DF936D
:101F8000EC010E9428118B819C810E946C120E949E
:101F90002C116A8188819981DF91CF910C9408126C
:101FA000FC0187818F3118F48F5F878308958681C4
:101FB0008F5F86830895FC018781882319F0815003
:101FC0008783089586818150868308951F93CF93D8
:101FD000DF93FC01C681D0E06D2F80E00E942211CA
:101FE0001C2F105F8C2FCF5F0E94C6128C2FC11345
:101FF000FACFDF5FD23081F7DF91CF911F91089543
:102000001F93CF93DF93EC018CED90E00E9443157A
:102010001FEF8E81181721F0CE010E94E60F1E815E
:102020008F81682F70E094E0759567959A95E1F738
:102030008F700E9422110E94BA10823049F08430C1
:1020400019F0813049F413C0CE010E94D00FE1CFC6
:10205000CE010E94DB0FDDCF8830D9F68D81E8817B
:10206000F981E80FF11D8F819E81890F8083DF91B7
:10207000CF911F910895FC01718360834283348363
:102080002383158280E2868317820895CF93DF939E
:10209000EC018CED90E00E9443150E943011CE01BE
:1020A0000E94BE0F61E08D810E9422110E94BA1031
:1020B0008230B1F0843041F08130C1F48CED90E099
:1020C0000E944B1580E026C04D81242F30E08A818C
:1020D00090E00197281739072CF74F5F4D83E2CF27
:1020E0008D818823F9F281508D83DCCF8830D1F641
:1020F00082E00E941111823048F083E00E94733028
:102100008CED90E00E944B1581E004C0CE010E944E
:102110000010C3CFDF91CF9108950C941906E09180
:102120007E02F0E0EE0FFF1FEA51FE4F2591349141
:10213000C9010895CF93DF93D82F0E94190607C0D5
:1021400082E390E00E94CD060E941906DC2FC82F82
:102150008D13F6CF10927E0210927D0280937F0243
:10216000882319F080E00E94833080917F02DF9104
:10217000CF910895EF92FF920F931F93CF93DF9328
:10218000C0E0D0E0F12C0AEF10E016C00E94190662
:10219000F82E81E090E00E94CD0680917F02F81237
:1021A00002C0219609C08F2DDF91CF911F910F9111
:1021B000FF90EF900C949A10E0907E022E2D30E06C
:1021C000220F331FF901EC50FE4F65917491C80145
:1021D0000E9401376F5F7F4FC617D707B8F2FF2005
:1021E000B9F040917D024F5F40937D02F901EE5FAF
:1021F000FD4F85919491242F30E02817390740F046
:1022000085E08E1518F0E394E0927E0210927D0234
:1022100080917F02DF91CF911F910F91FF90EF90FE
:102220000895CF93DF93D82FC0917F020E94BA10F8
:1022300090917E029D1711F08C17C1F3892FDF91C9
:10224000CF910895462F682F8CED90E00C945A158D
:1022500060E080E00C94221161E080E00C94221197
:102260008CED90E00C948A15CF93DF93FC01DB0199
:102270008C91882389F0C081D181488380819181AC
:102280000196918380838C9181508C93882321F0D7
:102290000190F081E02D1082DF91CF910895BF92DF
:1022A000CF92DF92EF92FF920F931F93CF93DF9322
:1022B000EC018B017A014115510501F1CA010E941F
:1022C0006237F8019081B82E981708F4B92ECB2CFC
:1022D000D12CA601B701888199810E946B37288192
:1022E00039812C0D3D1D39832883F80180818B199C
:1022F0008083882319F0E881F9811082DF91CF91E2
:102300001F910F91FF90EF90DF90CF90BF900895B5
:10231000CF92DF92FF920F931F93CF93DF9300D062
:10232000CDB7DEB76C018B01BA0180E090E0498344
:102330005A830E94FA27F82ED8018C9149815A813C
:102340008F1570F44FE3B801C6010F900F90DF9125
:10235000CF911F910F91FF90DF90CF900C9434118B
:10236000F601208131812F0D311D31832083D80169
:102370008C918F198C93882321F00190F081E02DAE
:102380001082F9012AE030E00CC0CA01B9010E94B4
:102390000137405DBAE06B9F401911244293FA94D3
:1023A000AB01F110F2CF0F900F90DF91CF911F9101
:1023B0000F91FF90DF90CF9008950F931F93CF93CD
:1023C000DF93CDB7DEB72B970FB6F894DEBF0FBE05
:1023D000CDBF8E010F5F1F4F1A87098727E02B871C
:1023E000AC01BE01655F7F4FCE0109960E94881146
:1023F000B8018CED90E00E9405162B960FB6F8946C
:10240000DEBF0FBECDBFDF91CF911F910F91089519
:102410001F93CF93DF93CDB7DEB761970FB6F894D4
:10242000DEBF0FBECDBF0097D1F0162F613108F08F
:1024300010E1412F50E0BC01CE0101960E947A3795
:10244000E1E0F0E0EC0FFD1FE10FF11D1082BE0195
:102450006F5F7F4F8CED90E00E94051601C080E019
:1024600061960FB6F894DEBF0FBECDBFDF91CF915E
:102470001F9108951F93CF93DF93CDB7DEB7619778
:102480000FB6F894DEBF0FBECDBF0097D1F0162F68
:10249000613108F010E1412F50E0BC01CE010196FE
:1024A0000E946B37E1E0F0E0EC0FFD1FE10FF11D42
:1024B0001082BE016F5F7F4F8CED90E00E94051689
:1024C00001C080E061960FB6F894DEBF0FBECDBFAD
:1024D000DF91CF911F91089560E10C943A12CF9251
:1024E000DF92EF92FF920F931F93CF93DF93CDB7BD
:1024F000DEB762970FB6F894DEBF0FBECDBF009770
:1025000061F1613108F060E17C01CC24C394D12CED
:10251000CC0EDD1E86011CC0C7016A8B0E94993754
:10252000F80181938F01FFEFEF1AFF0A6A89811189
:102530000FC0E1E0F0E0EC0FFD1FE60FF11D10828F
:10254000BE016F5F7F4F8CED90E00E94051606C0C4
:10255000802F8C19861700F3ECCF80E062960FB6BF
:10256000F894DEBF0FBECDBFDF91CF911F910F91C9
:10257000FF90EF90DF90CF900895882319F084E1C9
:1025800092E002C088E192E00C946C12682F8CED0E
:1025900090E00C94E415CF93DF931F92CDB7DEB794
:1025A000682F06C080E269830E94C612698161506B
:1025B0006430C4F780E192E00F90DF91CF910C94EA
:1025C0003A12CF93DF93D82FC0E004C080E20E947C
:1025D000C612CF5FCD13FACF8C2FDF91CF91089524
:1025E00080E10C94E1126AE00E94F536892F805D4B
:1025F0000C94C612DF92EF92FF920F931F93CF932A
:10260000DF93EC01F62E16160CF058C064E670E06D
:102610000E9401378B0180E090E00E94FA27E82EAB
:1026200023E0D22ED80E04C080E20E94C612FA9493
:10263000DF14D4F34F2D552747FD50952D2D33270B
:1026400027FD3095235031094217530754F48F2D3D
:10265000DF91CF911F910F91FF90EF90DF900C943D
:10266000CB12C8010E94DD11CE0164E670E00E9429
:102670000137EC01FE181F2D11501F141CF48EE2BF
:102680000E94C612012F0150111644F4CE016AE0D7
:1026900070E00E940137862F0E94F312101674F426
:1026A000CE016AE070E00E940137DF91CF911F9167
:1026B0000F91FF90EF90DF900C94F312DF91CF9188
:1026C0001F910F91FF90EF90DF900895CF92DF92CE
:1026D000EF92FF920F931F93CF93DF93EC01F62EAF
:1026E000C42E16160CF08AC068EE73E00E94013703
:1026F0008B0180E090E00E94FA27D82E34E0E32E90
:10270000E80E04C080E20E94C612FA94EF14D4F3DB
:10271000FE14ECF0C1101BC0BE0180E090E00E94EE
:10272000FA27182F03C080E20E94C612FA941F15E0
:10273000D4F3CE010E94DD118DE6DF91CF911F9180
:102740000F91FF90EF90DF90CF900C94C6124F2D19
:10275000552747FD50952E2D332727FD30952450C2
:102760003109421753075CF48F2DDF91CF911F91F0
:102770000F91FF90EF90DF90CF900C94CB12C80197
:102780000E94DD11CE0168EE73E00E940137EC017A
:10279000FD180F2D01501F141CF48EE20E94C6126A
:1027A000102F1150101644F4CE0164E670E00E9420
:1027B0000137862F0E94F312CE0164E670E00E947A
:1027C0000137EC01012F015011163CF46AE070E072
:1027D0000E940137862F0E94F31210167CF4CE015E
:1027E0006AE070E00E940137DF91CF911F910F9155
:1027F000FF90EF90DF90CF900C94F312DF91CF9188
:102800001F910F91FF90EF90DF90CF9008956F92FE
:102810007F928F929F92AF92BF92CF92DF92EF9270
:10282000FF920F931F93CF93DF937C01962E742E0C
:10283000822E16160CF046C021119A94B70180E042
:1028400090E00E94FA27C0E0D0E0082F10E0A92C09
:10285000BB24A7FCB09404C0872D0E94C612219609
:10286000692C6C1A6501CC1ADD0A0C151D05A4F340
:10287000882019F08DE20E94C612C016D1068CF491
:10288000862DDF91CF911F910F91FF90EF90DF90F8
:10289000CF90BF90AF909F908F907F906F900C944F
:1028A000CB12C701DF91CF911F910F91FF90EF9055
:1028B000DF90CF90BF90AF909F908F907F906F9060
:1028C0000C94DD11DF91CF911F910F91FF90EF904C
:1028D000DF90CF90BF90AF909F908F907F906F9040
:1028E000089520E00C94071440E20C947114CF93E7
:1028F000DF936CE370E00E9401379B01EC0140E341
:1029000063E0C9010E9471148AE30E94C61240E389
:1029100062E0CE01DF91CF910C947114292F221F18
:102920002227221F19F091958195910940E20C947C
:102930000714161634F461500E94FA1283E40C94C2
:10294000C6120895161634F461500E94741485E27C
:102950000C94C612089563303CF062500E947414C7
:102960008CE192E00C946C120895CF93DF93C62F04
:1029700014167CF5642F6150C23071F028F4CC231A
:10298000B9F0C130C1F406C0C43059F080F0C53090
:1029900091F409C0D6E510C0642FDF91CF910C945B
:1029A0009914D4EF06C00E948E1485E50EC06150C4
:1029B000D1E440E002C0D5E541E00E9466138D2FCE
:1029C0000E94C612C33029F488E6DF91CF910C949F
:1029D000C612DF91CF910895462F64E00C94B51490
:1029E000462F61E00C94B514462F60E00C94B514AA
:1029F000462F63E00C94B514AC9881E090E00E94FF
:102A0000C036AC9A81E090E00E94C036AC9884E673
:102A100090E00C94C036A09AA19AA29AA39A60FF63
:102A200002C0A89A01C0A89861FF02C0A99A01C07B
:102A3000A99862FF02C0AA9A01C0AA9863FF02C0C7
:102A4000AB9A01C0AB980C94FC141F93CF93DF9307
:102A5000EC01162F442311F0AD9A01C0AD98612FFF
:102A600070E084E0759567958A95E1F7CE010E9444
:102A70000B15612FCE01DF91CF911F910C940B1597
:102A800040E00C942515FC016181262F21602183F3
:102A900069600C944015FC0161816E7F6183686000
:102AA0000C944015FC016181262F246021836C6009
:102AB0000C944015CF93DF93CDB7DEB728970FB6B0
:102AC000F894DEBF0FBECDBF28E0E5E6F0E0DE0102
:102AD000119601900D922A95E1F7FC01248142178D
:102AE00010F0422F4150E1E0F0E0EC0FFD1F22E03A
:102AF000429FE00DF11D11242081260F2068622FD6
:102B000028960FB6F894DEBF0FBECDBFDF91CF91F0
:102B10000C94401561E00E94401580ED97E00C9404
:102B2000C036CF93DF93EC01423018F08881886083
:102B300088834C831D82222329F0413019F4888137
:102B40008460888380E593EC0E94C036AD98AC9891
:102B500063E0CE010E940B1584E991E10E94C0362A
:102B600063E0CE010E940B1584E991E10E94C0361A
:102B700063E0CE010E940B1586E990E00E94C0360A
:102B800062E0CE010E940B1568816062CE010E9456
:102B9000401584E08983CE010E945215CE010E9427
:102BA0008A1582E08A8366E0CE01DF91CF910C9492
:102BB0004015A59AA49AFC01108220E041E060E152
:102BC0000C9491150C94D91541E00E94251581E0D3
:102BD0000895EF92FF920F931F93CF93DF938C0191
:102BE000F42EC62FD72FE42EE60E05C0699141E0E2
:102BF000C8010E942515EC12F9CF8F2DDF91CF91DE
:102C00001F910F91FF90EF9008956115710559F094
:102C1000DB010D900020E9F7AD0141505109461B41
:102C2000570B0C94E91580E00895DC011796ED919F
:102C3000FC911897B2E06B9FE00DF11D11242591D6
:102C40003491C9010C946C120F931F93CF93DF93AF
:102C5000EC018B01CB010E94BA27682FCE010E94A4
:102C600087168FE890E09983888318870F83DF9118
:102C7000CF911F910F910895DF92EF92FF920F93E2
:102C80001F93CF93DF93EC01F62E69871A8681E0BC
:102C90008D8382E0D82EEE24E3948E01075F1F4FD0
:102CA0000E94BA10482F823011F0843061F4E8811C
:102CB000F9810280F381E02D6F2DCE010995F9860F
:102CC000DA86ED8204C0813089F0883079F0C8015D
:102CD0000E94BB288111ED828D81882319F0CE01DD
:102CE0000E94B5168A858F5F8A87DACF8FEF898732
:102CF00081E08E838D83483009F080E0DF91CF91B1
:102D00001F910F91FF90EF90DF9008950895FC01BF
:102D100085E990E09183808312821382648381E04D
:102D2000858386830895FC018281811103C081E03F
:102D300082830895438190E0840F911D248130E0C7
:102D4000215031098217930714F44F5F438308958C
:102D5000FC018281882319F0815082830895838148
:102D6000882311F08150838308951F93CF93DF93BD
:102D7000EC0110E0612F80E00E94221180E20E94AD
:102D8000C612E881F9816B81610F0190F081E02D1D
:102D9000CE0109950E94F0121F5F123059F76A8127
:102DA00080E00E9422118EE30E94C6126A818FE0A9
:102DB0000E9422118CE30E94C6121D82DF91CF91E6
:102DC0001F9108950F931F93CF93DF93EC010E94FF
:102DD000BA10182F0E945230882321F081E08D8391
:102DE0001FE71BC00B818A81080F123031F01430AD
:102DF00039F4CE010E94931603C0CE010E94A8169A
:102E00008B819A81890F081711F081E08D838D8164
:102E1000882319F0CE010E94B516812FDF91CF9142
:102E20001F910F910895EF92FF921F93CF93DF931D
:102E30001F92CDB7DEB77C0181E0F701858311E0F9
:102E4000C70169830E94E2166981811102C0F701FE
:102E50001682F7019681911108C0883031F481E023
:102E6000868383819281890F09C0662311F0F7015F
:102E70001583813029F79111E3CF8FEF0F90DF9108
:102E8000CF911F91FF90EF9008950F931F93CF93D1
:102E9000DF93EC018B0150E00E9488114AE3B801F6
:102EA000CE01DF91CF911F910F910C943411EF92CD
:102EB000FF920F931F93CF93DF9300D01F92CDB754
:102EC000DEB78C01462F09969A8389838EE08B8327
:102ED000D801EC91F0E0EE0FFF1FE15EFD4FE590B1
:102EE000F490BE016D5F7F4FCE0101960E944517A1
:102EF000A701BE016D5F7F4FCE0101960E944F1169
:102F000040E2BE016D5F7F4FCE0101960E943411F9
:102F1000F80141815281BE016D5F7F4FCE01019664
:102F20000E9488114FE2BE016D5F7F4FCE01019676
:102F30000E943411D80117964D915C911897BE01EB
:102F40006D5F7F4FCE0101960E9488110F900F9008
:102F50000F90DF91CF911F910F91FF90EF90089507
:102F6000CF93DF9300D01F92CDB7DEB7462F2EE070
:102F70002B8309969A838983BE016D5F7F4FCE01B3
:102F800001960E9445170F900F900F90DF91CF91FF
:102F9000089527E1289FB001299F700D11246E55D7
:102FA0007F4F47E150E080E892E00C94893727E1B9
:102FB000289FB001299F700D11246E557F4F47E166
:102FC00050E080E892E00C94A737DC01EC91B5E08A
:102FD000EB9FF0011124E60FF11DEE0FFF1FED5CDA
:102FE000FD4F25913491C9010895CF93DF93EC01F2
:102FF0000E94E5174F815885849F9001859F300D71
:10300000949F300D1124C901DF91CF9108950F9342
:103010001F93FC01A181B28120917E0330917F0337
:103020000E94C73624E630E040E050E00E941537A9
:1030300089019A01093EFDEF1F072105310520F0A6
:1030400008EE1DEF20E030E0C8011F910F910895B8
:10305000FC012081213029F420917A0330917B03F7
:1030600009C0223029F4209178033091790302C0FD
:1030700020E030E0FC0187819085289FA001299FF6
:10308000500D389F500D1124CA010895E4E7F3E074
:10309000808191810895FC016081F9E06F9FB0010A
:1030A000112469567D4F49E050E00C945937DC01FA
:1030B000EC91F0E0EE0FFF1FE15EFD4F25913491A2
:1030C000C9010C943A1260E170E00C945718CF9348
:1030D000DF93EC01888160E0811108C0CE010E947D
:1030E000F51767E00E94F01487E011C0CE010E943E
:1030F000F51765E00E94F0148FE20E94C6128F81DE
:1031000098850E94DD1183E40E94C61288E0DF9159
:10311000CF91089566E0FC01838194810E94F414AC
:1031200086E0089566E0FC01858196810E94F41492
:1031300086E00895FC0181819281883EFDEF9F0722
:1031400029F481EF92E00E946C1203C067E00E94B4
:10315000F81488E0089547E1489F9001499F300D99
:10316000112425553F4FC90108950F931F93CF9305
:10317000DF93CDB7DEB7A4970FB6F894DEBF0FBECE
:10318000CDBF8C01AB01BC01CE0101960E94591A42
:10319000CE0101960E94DE1A87E1FE013C96D8011D
:1031A00001900D928A95E1F7A4960FB6F894DEBFD0
:1031B0000FBECDBFDF91CF911F910F910895FC01FC
:1031C0002081260F2A3008F408C0161617061CF4B2
:1031D000FC01108203C029E0FC0120830C944B18F1
:1031E0000F931F9361E00E94F5179C0140E050E0AF
:1031F00060E871ED80EF98E00E94153789019A012F
:1032000009358BE118072105310520F008E51BE1A0
:1032100020E030E0C8011F910F9108950F931F9394
:1032200061E00E94F5179C0140E050E060E478E71F
:103230008DE791E00E94153789019A01093883E1F1
:1032400018072105310520F008E813E120E030E0FF
:10325000C8011F910F9108950F931F93CF93DF9390
:1032600000D0CDB7DEB78C0169837A830E94F01855
:10327000AC0169817A81C80103960F900F90DF91AC
:10328000CF911F910F910C94A3280F931F93CF936D
:10329000DF9300D0CDB7DEB78C0169837A830E94BB
:1032A0000E19AC0169817A81C80105960F900F90C3
:1032B000DF91CF911F910F910C94A32861E00E94A0
:1032C000E517BC018CEC9DE80E940137CB01089505
:1032D0000F931F93CF93DF9300D0CDB7DEB78C0150
:1032E00069837A830E945E19F801208169817A815D
:1032F000211103C022E330E002C020E030E0AC0145
:10330000C80107960F900F90DF91CF911F910F91F9
:103310000C944E28CF93DF93EC010E945E192F810D
:1033200038858217930710F498878F83CE010E9407
:10333000F0182B813C818217930710F49C838B83B8
:10334000CE010E940E192D813E818217930710F441
:103350009E838D83DF91CF910895CF93DF93EC010E
:1033600048EE5DEF01960E94A32889819A819C8393
:103370008B832881233039F49C0136952795369527
:1033800027953C832B839E838D83CE01DF91CF9144
:103390000C948A190F931F93CF93DF9349E050E069
:1033A0006DEC72E080E892E00E94593780E892E08C
:1033B0000E948A19C0E0D0E08E010F5F1F4FB80154
:1033C00080E892E00E94B017CE010E94D717E80172
:1033D0000032110589F7DF91CF911F910F91089568
:1033E00008950895262F443019F06FEF7FEF02C043
:1033F00061E070E0223089F028F4222341F021308E
:10340000A9F408C0233061F0243081F40CC00B967D
:103410000C94DF180B960C9468190B960C94AD194C
:103420000B960C942C190B960C94451908951F9328
:10343000CF93DF93EC01162F0E941516CE0109964B
:103440000E94B028882311F0298501C02FEF33276F
:1034500027FD3095812F90E02817390729F1123088
:10346000A9F028F4112341F01130F1F40AC013300F
:1034700091F01430C9F414C0CE010B960E94631869
:1034800013C0CE010B960E9467180EC0CE010B969A
:103490000E949A1809C0CE010B960E948A1804C097
:1034A000CE010B960E94921880E0DF91CF911F9180
:1034B0000895EF92FF920F931F93CF93DF93EC0148
:1034C0008B017A0161E373E00E9424168FEF8987F4
:1034D0008BE990E09983888387E1F801DE011B96F0
:1034E00001900D928A95E1F7FBA2EAA2DF91CF91BC
:1034F0001F910F91FF90EF9008950F931F93CF931B
:10350000DF93CDB7DEB728970FB6F894DEBF0FBEB6
:10351000CDBF8C01BC016C5E7F4F23E433E04EE0F5
:1035200050E0CE0101960E943B10CE0101960E9410
:10353000461081E0F801858328960FB6F894DEBF27
:103540000FBECDBFDF91CF911F910F910895CF9303
:10355000DF93EC010E9430110E9428118EE493E069
:103560000E946C120E942C116EE0CE0144960E94C3
:1035700008120E94A72883E0DF91CF910C9473304A
:10358000CF93DF93EC016AA17BA16F5F7F4F0B9616
:103590000E94B017CE01DF91CF910C94A71ACF9360
:1035A000DF93EC016AA17BA16F5F7F4F0B960E94B6
:1035B0005717CE01DF91CF910C94A71ADF92EF92AB
:1035C000FF920F931F93CF93DF93CDB7DEB767972B
:1035D0000FB6F894DEBF0FBECDBF8C0187E1D82EA9
:1035E0009BE0E92EF12CE00EF11E60E0C8010E9484
:1035F000131787FD30C0863041F0873051F0853099
:1036000061F4C8010E94CF1AF0CFC8010E947D1A50
:10361000ECCFC8010E94C01AE8CFF701DE01119675
:103620009D2D01900D929A95E1F7682FC8010E9497
:103630003C16811109C0FE013196D7018D2D0190F4
:103640000D928A95E1F7D1CF83E00E947330C701D4
:103650000E948A19CACF67960FB6F894DEBF0FBED4
:10366000CDBFDF91CF911F910F91FF90EF90DF9031
:1036700008958091700390917103892BA1F08FE1DF
:103680000E94F60665E02AE0AC01249FC001259F58
:10369000900D11240E948E148DE60E94C61283E4C0
:1036A0000E94C61204C08CE394E00E946C120C9439
:1036B000F0128DE10E94F60665E00E948E148DE600
:1036C0000E94C61286E50E94C6120C94F012CF9397
:1036D000DF9300D0CDB7DEB789839A830E9428118B
:1036E00089819A810E946C120E942C118091BB02E8
:1036F0009091BC020E946237892B51F085E294E0E0
:103700000E946C128091BB029091BC020E946C12CC
:103710000F900F90DF91CF910C94F01290E0880FF2
:10372000991F62E088569C4F0C943A120F931F9396
:10373000CF93DF9361E080E892E00E94F5178C015F
:1037400062E080E892E00E94F517EC0186E10E94B9
:10375000F6068017910790F4C817D90788F49C01E2
:103760002C1B3D0BC8018C1B9D0B64E670E00E9476
:103770000137C9010E940137862F03C084E601C0CA
:1037800080E0DF91CF911F910F910895613011F486
:103790000C948C0C0C94CA25CF93DF93D82FC62F92
:1037A0008F5D0E944809882351F06C2F8D2F0E9455
:1037B000C61B46E06C2FDF91CF910C94B51485EBBE
:1037C00093E0DF91CF910C946C12EF92FF920F93E4
:1037D0001F93CF93DF93082FE62E0E9428110E949B
:1037E000530C811108C083E090E00E94630D882390
:1037F00041F080E209C080914D02882321F082E4EB
:1038000003C08DE601C082E60E94C61280916F025D
:10381000882371F1063018F480E011E002C086E0E0
:1038200010E4F82EC82FD0E0259619C080917002C0
:10383000F81641F0112341F080916F02812331F09D
:1038400081E305C08FE503C080E201C080E30E94F0
:10385000C612103811F0110F01C010E0F3942F2D93
:1038600030E0C217D30714F780E20E94C61203C0EB
:1038700087E00E94E112D02FDF5F8D2F0E94F312AC
:103880008AE30E94C6126E2D802F0E94CC1B0E94DC
:10389000F0120E942C11D830C8F4C02FCE5F8C2FAC
:1038A0000E94F3128AE30E94C6126E2D8D2F0E9491
:1038B000CC1BC83058F4802F8D5F0E94F3128AE32E
:1038C0000E94C6126E2D8C2F0E94CC1BDF91CF91CF
:1038D0001F910F91FF90EF900C94F0128BE10E94DA
:1038E000F60668E00E94F81480E20C94C6120E946A
:1038F000281180E892E00E94071868E00E94F814FE
:1039000080E20E94C6120E94B32567E00E94F41470
:103910000E94F0120E942C118CEB93E00E946C121A
:1039200067E080915A0390915B030E94F0140C941D
:10393000F0120F931F936091A2027091A3028091E5
:10394000A4029091A50220919702222371F00E9477
:10395000A1060091A2021091A3022091A40230912D
:10396000A502601B710B820B930B28EE33E040E045
:1039700050E00E941537C9011F910F9108950E94D0
:10398000F821811110C00E944A22882331F00E9440
:10399000F82181110AC084E40BC00E94530C8111EC
:1039A00006C08EE405C083E403C085E401C082E460
:1039B0000E94C61280E20E94C6120E94991C0E94B8
:1039C000771480E20C94C6120E9428110E946E1C8B
:1039D00067E089E10E9475090E94F0120E942C1193
:1039E0000E94BF1C67E086E10E9475090C94F012EA
:1039F0000E94A1066093A2027093A3028093A40286
:103A00009093A50210929E0210929F021092A00223
:103A10001092A10210929A0210929B0210929C02A4
:103A200010929D0281E08093970208950F931F9357
:103A30000E94A1060091A2021091A3022091A4026B
:103A40003091A502601B710B820B930B6093A20255
:103A50007093A3028093A4029093A5021092970200
:103A60001F910F9108950E94FE2181111DC00E9497
:103A70005022811119C00E94530C882351F180916A
:103A80009E0290919F02A091A002B091A102805944
:103A90009F4FAF4FBF4F80939E0290939F02A09382
:103AA000A002B093A102089580919A0290919B0286
:103AB000A0919C02B0919D0280599F4FAF4FBF4F84
:103AC00080939A0290939B02A0939C02B0939D02D4
:103AD000D2CF0895CF92DF92EF92FF920E942811E9
:103AE00085EC93E00E946C120E94991C0E9477144E
:103AF0000E942C1180ED93E00E946C1260919E0256
:103B000070919F028091A0029091A10238EEC32E85
:103B100033E0D32EE12CF12CA70196010E9415373A
:103B2000C9010E94771483ED93E00E946C126091AA
:103B30009A0270919B0280919C0290919D02A70134
:103B400096010E941537C901FF90EF90DF90CF904A
:103B50000C9477140E94281186ED93E00E946C1259
:103B60000E94D42568E00E94EC140E94F0120E948A
:103B70002C1185E10E944809882349F08FED93E0DC
:103B80000E946C120E94DA2568E00E94EC140C94EA
:103B9000F0120E94281188EE93E00E946C1267E0F8
:103BA00086E00E9475090E94F0120E942C1180EF9D
:103BB00093E00E946C1247E061E080918003909155
:103BC00081030E94B5140C94F0120E94281188EF12
:103BD00093E00E946C1267E084E10E9475090E94E4
:103BE000F0120E942C118FEF93E00E946C1267E09C
:103BF00085E10E9475090C94F0120E94281186E05C
:103C000094E00E946C128091700390917103892B53
:103C100029F065E087E00E94750904C08CE094E01B
:103C20000E946C120E94F0120E942C118EE094E00F
:103C30000E946C1265E085E00E9475090C94F012F8
:103C40000F931F93CF93DF9300D0CDB7DEB78B01D7
:103C500089839A830E9430110E94281189819A8158
:103C60000E946C120E942C11C8010F900F90DF91DE
:103C7000CF911F910F910C946C1284E194E00C94FD
:103C8000671B8EE294E00C94671B0E9428110E942F
:103C90006E1C0E94391B0E942C110E94BF1C0C94A8
:103CA000591B0E94281184E494E00E946C1267E082
:103CB0008EE10E9475090E94F0120E942C118DE481
:103CC00094E00E946C120C94591B0E94281187E505
:103CD00094E00E946C128091700390917103892B83
:103CE00031F00E94130769E00E94991404C08DE529
:103CF00094E00E946C120E94F0120E942C1186E641
:103D000094E00E946C120C94391B6DE774E080E71C
:103D100094E00C94201E0E94851E0C94A7286EE946
:103D200074E08DE894E00E94201E88E893E10C94F2
:103D3000B00660E070E089EA94E00C94201ECF9316
:103D40000E94281164E070E080E892E00E94571819
:103D500080E20E94C61280E892E00E94671880E22A
:103D60000E94C6128091BD020E948E1B0E942C11DF
:103D70000E94961B90E08436910569F488E992E0F0
:103D80000E94B028882321F084E00E94E1120AC03A
:103D90008AEB94E005C062E00E9474148FEB94E01B
:103DA0000E946C1288E992E00E94B028882319F0E2
:103DB000C091980201C0CFEFC0FF05C065E084E16B
:103DC0000E94750903C085E00E94E11280E20E9412
:103DD000C6128091800284508630A8F4C1FF05C0CD
:103DE00065E085E10E94750903C085E00E94E1124B
:103DF000C2FF05C00E946709CF910C94F31280E2C4
:103E0000CF910C94C61266E080918102909182025B
:103E10000E94F814CF910C94F012909199029F5F38
:103E20009093990290E0FC013197E131F10550F552
:103E3000E65DFF4F0C9453370C94E41C0C94771CF4
:103E40000C946A1D0C94FD1D61E007C061E083E0E5
:103E50000C94E51B61E006C064E080E0F9CF64E00B
:103E6000F6CF64E086E0F4CF0C949F1E0C94AA1D5C
:103E70000C94E51D0C94C91D0C94511E0C94651EE8
:103E80000C94451E08958FEF8093980208950F9328
:103E90001F93CF93DF930E942222C0918302D0917F
:103EA000840261E080E892E00E94F5178C01CE0167
:103EB00065E070E00E94013781E10E94DD08EC01BD
:103EC00040E0BC01C8010E94FE2581E10E9412264B
:103ED000CE01DF91CF911F910F910C940C2281E0C4
:103EE0000C9430220E94A507882321F00E9407220B
:103EF0000C94BA2608951092A6020C94471FCF93F3
:103F0000DF930E94721F0E949B07EC018091A60222
:103F1000811111C062E080E892E00E94F5178C17D1
:103F20009D0748F481E08093A602809183029091DE
:103F300084020E941C220E94A507882309F43FC026
:103F400064E080E892E00E94F5178C179D0778F1F5
:103F500036C08091760390917703892B89F08DE1AB
:103F60000E94F606EC0180E892E00E942818D195A4
:103F7000C195D1098C179D071CF480ED94E019C000
:103F80008091700390917103892B09F40EC08FE129
:103F90000E94F606EC0180E892E00E9446188C1719
:103FA0009D071CF484ED94E004C082E00DC088EC11
:103FB00094E09093BC028093BB0281E005C00E9414
:103FC0001807029730F6F1CFDF91CF9108957093E3
:103FD000AA026093A9029093A8028093A702089571
:103FE0000F931F93CF93DF93C091A702D091A802A4
:103FF000CE010E949C0E8C010E949B07C817D90716
:1040000038F4C801DF91CF911F910F910C947E0E6F
:1040100081E0DF91CF911F910F9108950F931F932E
:10402000CF93DF930E94F01F182F0E945922EC01BA
:104030000E94A507882311F001E001C0012F8091A3
:10404000AB02882329F0BE01812F0E946A2601C09D
:10405000812F882329F081E00E94AE2281E00DC0EB
:10406000011101C009C0BE01812F0E9489278C1750
:104070009D0711F00E94922282E0DF91CF911F9163
:104080000F9108950E94A0220E94EB0C21E08091E4
:10409000840390918503892B09F420E02093AB02DF
:1040A00082E10C94122681E00E94AE220C94E60C70
:1040B000BC0182E10E94DD080C94A1250F931F939F
:1040C000CF93DF938C01EB010E94E71FBE0182E1D9
:1040D0000E94DD0840E0BC01C8010E94FE25CE011F
:1040E0006AE070E00E940137CB01DF91CF911F9110
:1040F0000F910C9458200E94EB0C0E94222281E127
:104100000C94122681E00E9430220C94E60C0F934E
:104110001F93CF93DF931F92CDB7DEB78C0181E160
:1041200049830E94DD084981BC01C8010F90DF91DD
:10413000CF911F910F910C94FE25BC0181E10E944B
:10414000DD080C94A1250F931F93CF93DF93C091AB
:104150005A03D0915B03CE010E949C0E8C010E94F9
:104160009B078C179D0738F4C801DF91CF911F91F1
:104170000F910C94600E81E0DF91CF911F910F9110
:1041800008951F93CF93DF930E94A320182F0E94BE
:104190000722EC01BC01812F0E946A26882329F0A6
:1041A00081E00E94302281E01BC00E94A50781119E
:1041B0000BC0111109C0CE010E94BB25811104C0A2
:1041C0000EC00E940C220BC00E94530C811107C02C
:1041D000BE01812F0E9489278C179D0791F782E0ED
:1041E000DF91CF911F9108950E9482200E94532059
:1041F0000C94E60CCF93DF931F92CDB7DEB790916E
:10420000AD02913039F018F0923081F406C00E946E
:10421000C1200CC00E940E2009C00E94310E8230C5
:1042200089F089830E94F42089810CC0813051F487
:104230009091AC02992331F082E08093AD020E940C
:10424000EB0C82E00F90DF91CF9108950E94EB0C70
:104250008091AE029091AF020E949C0E0E947E0E51
:10426000882329F00E947B201092AD0208950E94BD
:10427000422081E08093AB028093AD020895809349
:10428000AC0208950F931F93CF93DF93EC018A0143
:104290009093AF028093AE0240E00E948720B80165
:1042A000CE01DF91CF911F910F910C945E20FF9270
:1042B0000F931F93CF93DF9384E10E94480901E09D
:1042C00008278091B002882381F00E9467099091AD
:1042D0008702FF24F394981301C0F12C11E081119F
:1042E00010E0913021F4112311F010E0F12C85E160
:1042F0000E9448098823A9F085E10E94F606EC0196
:1043000084E10E94F606C817D90728F49C012C1BEB
:104310003D0BE90102C0C81BD90BC53FD14008F0D5
:1043200001E0F11002C087E001C083E080939802B1
:10433000112329F0809198028250809398020023E3
:1043400029F080919802815080939802F11004C066
:10435000111102C0002331F081E00E94733011116D
:1043600007C004C088E00E94733008C0FF2031F00D
:104370002091860330918703232B11F4C0E001C004
:10438000C1E00E948D10811102C01092B102C111D2
:1043900006C0011104C00E948D10883041F0809148
:1043A000B102823011F481E008C082E006C0809141
:1043B000B1028F5F8093B102F2CFDF91CF911F9155
:1043C0000F91FF90089587E08093980282E0809398
:1043D00099020E946C3083E08093B10208958FEFC0
:1043E0008093980288E00C9473308093B002089513
:1043F00081E09091B402911180E0089581E02091D4
:10440000B2023091B302232B09F480E00895809129
:10441000B2029091B30208959C01213080E83807E0
:1044200010F020E030E83093B3022093B202C901CB
:104430000E941C050C942A08BC0181E10E94DD0841
:104440000C940C228091B402882349F080E090E023
:104450000E940C2281E00E9410051092B40208957F
:10446000CF93C82F8091B40281110BC0CC2349F0A7
:1044700080E090E00E940C2280E00E941005C09332
:10448000B402CF91089580E090E00E940C2281E078
:104490000C94302281E09091B902911180E008954E
:1044A00081E02091B7023091B802232B09F480E01B
:1044B00008958091B7029091B8020895CF93DF9349
:1044C000EC0140916E0350916F03BA01645F71403B
:1044D0008AEB92E00E94C6278091BA02882311F0ED
:1044E000C0E0D0E0CE01DF91CF910895CF93C82FE7
:1044F0008091B5029091B6020E945E222091B7028F
:104500003091B8028217930711F4CC2349F09093AD
:10451000B8028093B7020E942005CF910C942A081C
:10452000CF9108959C01213080E8380710F020E0F9
:1045300030E83093B6022093B50281E00C947622E5
:104540008091B902882349F080E090E00E94922295
:1045500081E00E9416051092B9020895CF93C82FEA
:104560008091B90281110BC0CC2349F080E090E02A
:104570000E94922280E00E941605C093B902CF915A
:10458000089580E090E00E94922281E00C94AE2297
:104590008091B902811102C00C9476220895809115
:1045A0008002893051F0982F9450963048F0815015
:1045B000823048F420ED32E008C02EEB32E005C036
:1045C00027EC32E002C029ED32E0C90108958CEEFB
:1045D00094E09093730280937202909180029450C1
:1045E00081E0963008F080E00E94F52161E082EFE2
:1045F00094E00E94FC0E91E0813009F090E0892F58
:1046000008950F931F93CF93DF930E943F21009152
:10461000850210918602C0918302D091840263E0EA
:1046200080E892E00E94F517A801BE010E94422195
:1046300086EE94E0909373028093720260E088EFBC
:1046400094E0DF91CF911F910F910C94FC0EEF92AB
:10465000FF920F931F93CF93DF938C01C3E8D2E0B7
:10466000E880F98061E080E892E00E94F51740E080
:10467000B7010E94872088819981B8010E94013783
:10468000CB010E949D2080EE94E090937302809372
:10469000720260E086E095E0DF91CF911F910F916B
:1046A000FF90EF900C94FC0ECF93DF93C0918302A8
:1046B000D091840261E080E892E00E94F51741E029
:1046C000BE010E94872080EE94E090937302809355
:1046D000720260E086E095E0DF91CF910C94FC0ED1
:1046E00082EC94E0909373028093720260E084E124
:1046F00095E00C94FC0E62E080E892E00E94F517D1
:104700006091850270918602E0918702F0918802A3
:104710004091820350918303E49F9001E59F300D07
:10472000F49F300D1124820F931F0E945E208AEDAA
:1047300094E0909373028093720260E08FE195E0C1
:104740000C94FC0ECF93DF93C0918502D09186022A
:1047500062E080E892E00E94F517BE010E945E20B0
:104760008AED94E0909373028093720260E08DE290
:1047700095E0DF91CF910C94FC0E86EB91E0909345
:1047800073028093720260E086E395E00C94FC0E65
:10479000CF93C82F8093BD022CE335E03093BC0249
:1047A0002093BB028D3030F4E82FF0E0E955FF4F45
:1047B000808101C080E0809362000E947B310E9472
:1047C00052080E94E722882309F43FC084E00E9437
:1047D0007330C53049F168F4C230D9F028F4CC23E5
:1047E000A9F0C13081F52CC0C330B1F0C43059F507
:1047F00016C0C83011F128F4C630C1F0C73019F521
:1048000019C0CB3061F0CC30F1F406C08AE090E002
:1048100008C00E94BD2319C00E947B2316C085E0FA
:1048200090E00E94272311C080E001C081E00E9437
:1048300001230BC00E94702308C00E94A22305C060
:104840000E94542302C00E948B1E0E946108CF91D7
:104850000C948B310F931F93CF93DF93EC010E9445
:10486000C9170E94CF228C0160E0C8010E94131773
:1048700087FD29C090918002E82FFF27E7FDF09582
:10488000993019F4E35CFA4F0FC0892F84508630B9
:1048900018F4ED5BFA4F08C09150923018F4E55BC4
:1048A000FA4F02C0E05BFA4F84918D3049F4BE01AB
:1048B00080E892E00E94B518CE010E94D717D1CFB0
:1048C0000E94C823D1CFDF91CF911F910F910895FE
:1048D00063E575E087EC92E00E94241665E675E0DA
:1048E00080ED92E00E94241661E775E08EEB92E085
:1048F0000E9424166FE775E089ED92E00C9424166F
:10490000FC01428153814115510589F0A081B1819B
:10491000B7FF03C0B195A195B10928EE33E00E941D
:10492000D3369A0140E050E00E94153702C020E0E3
:1049300030E0C90108950F931F93CF93DF9300D008
:1049400000D0CDB7DEB78C01862FF801628173816C
:104950000E947F089C838B83F801808191819A83D8
:104960008983CE0101960E9480240F900F900F90B2
:104970000F90DF91CF911F910F9108950F93FC013C
:10498000CA01002341F06417750708F4CB014617EC
:10499000570748F409C04617570708F4CB016417B6
:1049A000750708F401C0BA019783868391838083D9
:1049B000138212821582148233872287681B790B37
:1049C000718760870F910895FC019B0140E050E0E2
:1049D00086819781281B390B41095109A285B3852E
:1049E0000E94DA3620853185442737FD4095542FC3
:1049F0000E9437372115310581E0480751051CF425
:104A000057FD04C005C02FEF3FEF02C020E030E0AB
:104A1000C9010895DF92EF92FF920F931F93CF93F6
:104A2000DF93EC012A813B812417350720F4FA013A
:104A3000E21BF30B03C0F901E41BF50B8C819D8194
:104A4000969587958E179F0788F588819981861797
:104A5000970720F4FB01E81BF90B03C0FC01E61BE0
:104A6000F70BEF2BF9F422C08A01021B130B7B0119
:104A7000E81AF90A06C07C01E61AF70A8901041B44
:104A8000150BC7010E94F427D82E888599850E94AE
:104A9000F427D8120BC01D830C83F986E8861B8788
:104AA0000A8704C024173507F8F2E5CFDF91CF91CC
:104AB0001F910F91FF90EF90DF900895CF92DF92BA
:104AC000EF92FF920F931F93CF93DF93EC018B0133
:104AD0009A01A885B9850E94D3362A853B8540E096
:104AE00050E00E9437376801E12CF12CC216D30642
:104AF000E406F5061CF41F821E8204C0021B130B81
:104B00001F830E83DF91CF911F910F91FF90EF9044
:104B1000DF90CF900895EF92FF920F931F93CF9362
:104B2000DF93EC018B017A010E940A25A701B801ED
:104B3000CE01DF91CF911F910F91FF90EF900C94D8
:104B40005E25909361038093600308958091E40251
:104B5000813029F4209160033091610302C020E08C
:104B600030E0C901089560915C0370915D0380910C
:104B7000E6020C947F082091E902213041F041E0E7
:104B800020916003309161038217930708F040E0A1
:104B9000842F08952CE0829FC00111246091E602C9
:104BA0008E509D4F0C949B246091E60282E593E029
:104BB0000C949B24CF93DF9300D000D0CDB7DEB709
:104BC00084E10E94F6069A83898385E10E94F606B5
:104BD00029813A81281B390B3A83298389E10E9474
:104BE000F6069C838B83CE0101960E9480240F9051
:104BF0000F900F900F90DF91CF91089590935B03EA
:104C000080935A0370935D0360935C03CB016AE069
:104C100070E00E94013770936103609360034093DA
:104C2000E5020895EF92FF920F931F93CF93DF93C6
:104C300091E09093E402FF24F394813109F0F12C88
:104C40008093E60268EC70E00E94DD0890935F03B9
:104C500080935E030E949B07209160033091610363
:104C600040915A0350915B030F2DBC018AE493E0FD
:104C70000E94BE240E94500C8093E70280915A0348
:104C800090915B030E949C0EEC0110E08CE0E82EFA
:104C900012C0812F0E948C0CBC01209160033091C6
:104CA0006103E19EC00111240F2DAE0186519D4F7D
:104CB0000E94BE241F5F8091E702181750F31092E4
:104CC000E9021092E802DF91CF911F910F91FF90BE
:104CD000EF9008950F931F93CF93DF93082FEB016D
:104CE0008091E5028823C9F040915E0350915F03F3
:104CF00020916003309161032417350708F49A016D
:104D00002C173D0710F410926E028091E902813059
:104D100021F00E94310E8093E4028091E402813000
:104D200019F58091E902823041F411E0209160038D
:104D300030916103C217D30708F010E00E94A62546
:104D40008C179D0778F0111103C0011101C00AC032
:104D50009091E802892F8F5F8093E80281E09A307A
:104D600020F402C01092E80280E0DF91CF911F9101
:104D70000F9108950F931F93CF93DF93EC010E943F
:104D80009B07AE01BC018AE493E00E948B2510E0F2
:104D90000CE00DC0812F0E948C0CBC01019FC00152
:104DA0001124AE0186519D4F0E948B251F5F80917B
:104DB000E702181778F3DF91CF911F910F910895B3
:104DC000CF92DF92EF92FF920F931F93CF93DF93D7
:104DD00060915A0370915B038AE493E00E94E4249B
:104DE000EC0180915A0390915B030E949C0E7C0120
:104DF000D12C9CE0C92E12C0CD9C800111240651FB
:104E00001D4FB701C8010E94E424C817D90728F034
:104E1000B701C8010E94E424EC01D3948091E70219
:104E2000D81650F3CE01DF91CF911F910F91FF90D3
:104E3000EF90DF90CF9008950F931F93CF93DF9360
:104E40008B01809358039093590320915C03309118
:104E50005D03EC012817390708F4E9010E94A62533
:104E60009C018C179D0708F49E010217130719F186
:104E70008091E9028230A9F42017310790F08091E7
:104E800060039091610380179107A0F04091560351
:104E9000509157038091430290914402481759075B
:104EA00049F080914302909144029093570380937C
:104EB000560301C09801C901DF91CF911F910F9155
:104EC00008950F931F93CF93DF93EC010E949B07EC
:104ED00090934B0380934A03D0934D03C0934C03AC
:104EE00010E00CE00DC0812F0E948C0C019FF0019E
:104EF0001124E651FD4F91838083D383C2831F5FCA
:104F00008091E702181778F3DF91CF911F910F91ED
:104F100008951F93CF93DF93182FEB01CB010E94CD
:104F2000BA26CE010E9461270E94E0269093E302F8
:104F30008093E202BE010E941C279C018091E9023D
:104F4000811110C0112389F08091E502882321F09E
:104F50000E94DF0C10926E0281E08093E90220E053
:104F600030E003C082E08093E902C901DF91CF9174
:104F70001F9108959C0180E001C08F5FF901459168
:104F800054912E5F3F4F452BC1F70895EF92FF924A
:104F90000F931F93CF93DF93EC017B018A0185E090
:104FA0000E94F6068E159F0518F4188281E007C04E
:104FB0000817190718F481E0888301C080E0DF91A9
:104FC000CF911F910F91FF90EF90089521E030E075
:104FD0009AE006C0A901949F9001959F300D11247D
:104FE0008150C0F7C901089597FD02C081E008957E
:104FF0008FEF0895CF92DF92EF92FF92CF939B01B4
:10500000AC01611571058105910521F421E030E0C5
:1050100040E050E0C0E08AE0C82ED12CE12CF12C19
:10502000CF5FCA01B901A70196010E94153721156A
:10503000310541055105A1F78C2FCF91FF90EF90DD
:10504000DF90CF900895FC0180819181860F971F9A
:1050500097FF03C0118210820895242F30E0281793
:1050600039071CF440831182089591838083089549
:10507000FC0180819181860F971F181619061CF07C
:1050800081E090E008C0242F30E0281739071CF495
:10509000408311820895918380830895AF92BF92D7
:1050A000CF92DF92EF92FF920F931F93CF93DF93F4
:1050B0007C015B016A01E901FC0100811181B801F9
:1050C00080E090E00E94FA27209749F4823028F08F
:1050D00082500E94E627EC0102C0C1E0D0E0C80186
:1050E000BE010E940137009741F01A141B041CF402
:1050F000C81BD90B05C0EC0110C01A141B046CF4BA
:10510000C6018C1B9D0B0817190718F46E01C00E01
:10511000D11EF701D182C0820BC0C017D10718F48D
:105120000C1B1D0B02C000E010E0F701118300838F
:10513000DF91CF911F910F91FF90EF90DF90CF9073
:10514000BF90AF90089520E030E00C944E280E946C
:10515000BA108111FCCF0E94BA108823E1F30895A0
:10516000FC01208127FD05C0818186958F5F8170BC
:10517000089580E00895FC01208127FD09C0818108
:10518000982F91509695282F269581E0921301C073
:1051900080E0089585E00E94FF062091620330912F
:1051A00063032817390710F480E008C020916403D6
:1051B000309165038217930718F481E00C94FB0487
:1051C0000895CF93DF93CCE6D3E068817981645F63
:1051D000714085E00E94DD08909363038093620331
:1051E0006881798185E00E94DD0890936503809352
:1051F0006403DF91CF91089564E879E980E00E942B
:10520000DD08909369038093680368E572E080E0AD
:105210000E94DD0890936703809366030C94E12855
:10522000CF93DF9385E00E94F60620916E033091C4
:105230006F032C503E4F2817390718F483EF95E081
:105240004DC080E00E94FF06209168033091690301
:1052500028173907A0F12091660330916703821760
:10526000930780F50E944A22811129C02BC08091AA
:10527000800390918103C817D90770F135C08C174E
:105280009D0718F48DE096E014C080917003909112
:105290007103892B11F482E035C087E00E94F60685
:1052A000209172033091730328173907A0F786E124
:1052B00096E09093BC028093BB0281E023C08CEF08
:1052C00095E00CC086E00E94F606EC0186E00E94A4
:1052D00048098111CCCF08C085E096E09093BC02CC
:1052E0008093BB0280E00EC08BE10E94F606EC01C9
:1052F00080E892E00E940718883E2DEF920709F09F
:10530000BECFC3CFDF91CF9108950F931F93CF935B
:10531000DF938C01443019F0CFEFDFEF02C0C1E022
:10532000D0E00E948F10D8011B96EC91F0E0EE0FB8
:10533000FF1FEA5AFE4F9C01C29FC001C39F900D00
:10534000D29F900D112420813181820F931F918370
:105350008083DF91CF911F910F910895EF92FF927B
:105360000F931F93CF93DF931F92CDB7DEB78C01BE
:10537000443021F0EE24EA94FE2C03C0EE24E394A2
:10538000F12C69830E948F10D8011B96ED91FC913E
:105390001C976981E60FF11DE491F0E0EE0FFF1F0D
:1053A000EA5AFE4F9C01E29EC001E39E900DF29EE0
:1053B000900D112420813181280F391F31832083E2
:1053C0000F90DF91CF911F910F91FF90EF90089573
:1053D000CF93DF93EC010E94B028882311F08881DD
:1053E00001C08FEFDF91CF9108951F93CF93DF938B
:1053F000EC01162F0E941516CE0109960E94E8298D
:10540000992787FD9095212F30E08217930769F047
:10541000111105C067E08B850E94750906C08B8558
:105420000E94ED0667E00E947414DF91CF911F91F6
:1054300008951F93CF93DF93EC01162F84E10E9410
:10544000480981110DC060E070E084E696E00E949A
:10545000201E8B85823109F581E00E94AE221DC09D
:10546000612FCE010E941516CE0109960E94E829EF
:10547000992787FD9095212F30E08217930769F0D7
:10548000111106C065E08D859E850E94741405C0CB
:105490000E94A00767E00E94F414DF91CF911F9152
:1054A00008951F93CF93DF93EC01162F0E941516DA
:1054B000CE0109960E94E829992787FD9095612FD2
:1054C00070E08617970741F0EB85FC85E60FF71F24
:1054D00084916D850E947509DF91CF911F91089588
:1054E000CF93DF93EC010E9424168FEF898783EA24
:1054F00090E099838883DF91CF910895CF93DF93D4
:1055000000D000D0CDB7DEB780E00E94ED069A83D0
:10551000898385E10E94F6069C838B83AE014F5FF1
:105520005F4F61E080E00E944407AE014F5F5F4F34
:1055300061E081E00E9444070F900F900F900F9060
:10554000DF91CF91089560E070E08FE196E00E94D6
:10555000201E84E10E944809811106C00E94BA10F1
:105560008130B9F780E0089581E00895CF93DF930B
:1055700000D000D0CDB7DEB7862F5A8349833C8355
:105580002B83AE014F5F5F4F61E00E9444070F9095
:105590000F900F900F90DF91CF910895FF920F938E
:1055A0001F93CF93DF93F82E162F042F83E00E94D2
:1055B0007330812F0E94F606EC01802F0E94ED06C9
:1055C000AC019E01602F812F0E94B62A81E080935A
:1055D00042020E94F907FF2039F0DF91CF911F911D
:1055E0000F91FF900C947E2ADF91CF911F910F9124
:1055F000FF900895CF92DF92EF92FF920F931F9347
:10560000CF93DF93CDB7DEB72E970FB6F894DEBFFA
:105610000FBECDBF0E94A32A882309F443C060E3D4
:1056200076E08E010F5F1F4FC8010E94702A88EB41
:1056300090E09A83898388E496E09D878C8789E04F
:105640008E87E02ED12E61E08E2D9D2D0E941317A6
:10565000F82E87FD27C0082F112707FD1095F801A8
:10566000E85BF94FC49088E08F156CF38C2D0E9495
:105670004809882341F30E94F907109242026F2DD6
:105680008E2D9D2D0E943C16882341F0F801ED5A85
:10569000F94F44916C2D81E00E94CE2A81E08093E5
:1056A0004202D1CF2E960FB6F894DEBF0FBECDBF0B
:1056B000DF91CF911F910F91FF90EF90DF90CF90EE
:1056C0000895EF92FF920F931F93CF93DF93CDB77F
:1056D000DEB72E970FB6F894DEBF0FBECDBF109287
:1056E00063006CE576E08E010F5F1F4FC8010E94DA
:1056F000702A88EB90E09A83898382E696E09D8702
:105700008C8787E08E87F02EE12E61E08F2D9E2D15
:105710000E941317082F87FD20C0E82FFF27E7FD01
:10572000F095EE59F94F1491812F0E944809882372
:1057300061F30E94F90710924202602F8F2D9E2D77
:105740000E943C16882329F0412F612F80E00E949F
:10575000CE2A81E080934202D8CF81E0809363001B
:105760002E960FB6F894DEBF0FBECDBFDF91CF915E
:105770001F910F91FF90EF900895813119F4CB01A3
:105780000C940C22CB010C949222CF93DF93EC016A
:10579000443019F06FEF7FEF02C061E070E04F8599
:1057A000588921E030E0CE010D960E944E286D858B
:1057B0007E858B85DF91CF910C94BD2BAF92BF92EC
:1057C000CF92DF92EF92FF920F931F93CF93DF93CD
:1057D000CDB7DEB765970FB6F894DEBF0FBECDBF6D
:1057E000A82EB62E7A010E94A32A882309F467C046
:1057F000AA2039F00E94222272E0C72EE1E1DE2EBB
:1058000006C00E94A02253E0C52E62E1D62E65E7B5
:1058100076E08E010F5F1F4FC8010E94702A20ECB6
:1058200030E03A832983DC86BD8620E030E8398B7E
:10583000288B4D856C85CE0142960E9426072A89C9
:105840003B893F872E8761E0C8010E94131787FDBF
:105850002EC08111EECF6E857F858D2D0E94BD2BD0
:1058600060E0C8010E943C168823D9F00E94F90725
:10587000FD8AEC8A2E853F853B8B2A8BAE014E5EDE
:105880005F4F6B2D8D2D0E9444078C2D0E94ED06DD
:105890009B8B8A8BAE014E5E5F4F6B2D8C2D0E94D1
:1058A000440760E070E08D2D0E94BD2BC2CF81E0E7
:1058B000AA2019F00E94302202C00E94AE226596F2
:1058C0000FB6F894DEBF0FBECDBFDF91CF911F9111
:1058D0000F91FF90EF90DF90CF90BF90AF90089521
:1058E000CF92DF92EF92FF920F931F93CF93DF93AC
:1058F000CDB7DEB729970FB6F894DEBF0FBECDBF88
:105900007C016B01BC018E010F5F1F4FC8010E941B
:10591000241660E0C8010E941317682F87FD12C08B
:10592000E82FEE0FFF0BEC0DFD1D25913491A90121
:1059300081E09BE7E91696E0F90609F080E00E9415
:10594000DE2BE7CF29960FB6F894DEBF0FBECDBF92
:10595000DF91CF911F910F91FF90EF90DF90CF904B
:1059600008951F93CF93DF9300D000D01F92CDB73F
:10597000DEB7182F6D830E94ED069A838983812FED
:105980000E94F6069C838B83AE014F5F5F4F6D8153
:10599000812F0E9444070F900F900F900F900F904F
:1059A000DF91CF911F910895EF92FF920F931F9374
:1059B000CF93DF93CDB7DEB72C970FB6F894DEBF49
:1059C0000FBECDBFF82EE62E61E876E08E010F5FA8
:1059D0001F4FC8010E94702A28EC30E03A832983C7
:1059E000FC8661E0C8010E94131787FD12C0811177
:1059F000F8CF1092420260E0C8010E943C16882352
:105A000021F06E2D8F2D0E94B12C81E080934202F7
:105A1000E8CF2C960FB6F894DEBF0FBECDBFDF9156
:105A2000CF911F910F91FF90EF900895FF920F93E8
:105A30001F93CF93DF93CDB7DEB729970FB6F894B6
:105A4000DEBF0FBECDBFF82E67E876E08E010F5F98
:105A50001F4FC8010E94241660E0C8010E9413175E
:105A6000682F87FD04C08F2D0E94D42CF5CF299676
:105A70000FB6F894DEBF0FBECDBFDF91CF911F915F
:105A80000F91FF900895FF920F931F93CF93DF9391
:105A9000CDB7DEB729970FB6F894DEBF0FBECDBFE6
:105AA00082E0809362006DE876E08E010F5F1F4F09
:105AB000C8010E942416F12E60E0802F9F2D0E94C5
:105AC0001317182F87FD32C00E947B310E945208A5
:105AD0001330E1F034F4113069F08CF4112339F013
