:100000000C9401050C9429050C9429050C942905E0
:100010000C94853A0C9429050C9429050C94290517
:100020000C9429050C94C13A0C949A060C94290559
:100030000C9429050C94583B0C948D3B0C94290589
:100040000C94BE060C9429050C9429050C942905E2
:100050000C9429050923F122F322F522F722F92233
:10006000FB22FF2201230423062317230B230D2346
:100070000F23132315231123192399359D35A035FB
:10008000A535A735AA35AF35B135B535B935BF3545
:10009000C335C535C935CF35D435D835DA35DE3534
:1000A000E435E83590369236943697369A369C3653
:1000B0009F36A236A536A836AB36AE36B136B43644
:1000C000B836BB36C036C336C636C936CC36000065
:1000D000000080C64E5A000000007C6B0831000111
:1000E00033000028D007800133004023E8030000DC
:1000F0000000C0AE4E5AFC5350143FA0540B0000F9
:10010000000000BBC43680186009DC37701700009F
:100110000000000000000000000044C4FA0E0000CF
:10012000000000C4FB0E0000000068C4FD0E0000CB
:100130000000AAC5160F0000000040C6190F0000FD
:10014000000040C72D0F0000000040C6190F00003E
:10015000000040C72D0FB00032006001E8034F01DE
:1001600032009E022C01FF00000000050400000484
:100170000900FF0101000105050001040A00FF025A
:1001800002000205060002040B00FF030300030542
:10019000070003040C00FF00000004051302040420
:1001A0000D00FF0101000505130405040E00FF0208
:1001B00002000605130106040F00FF0303000705F4
:1001C0001308070410007C0D770DC20E43686561AB
:1001D0006C692D43686172676572206D0076302E00
:1001E00033336D5F323031343037323500F1010056
:1001F000006F7074696F6E730001000100010001EF
:100200000001000A0064000100020004000600086A
:10021000000A000C0001000300080009000A000B9E
:10022000000C00496E660079657300206E6F006DEA
:100230005600430348034D03520357035C03610315
:1002400066036B0370030100010001000100000060
:100250000100B0041C075203000008075203B00459
:100260004006E80300000807E803D0079209D60615
:10027000000000006C07E40C100ED007E40C000036
:10028000B80B100E0410C409A60E0000AC0D740EBD
:100290006810B80B0A0F0000890C740ECC10B80B54
:1002A0000A0F0000890C740EFE10B80B0A0F000034
:1002B000890C40066C07140540060000780500987C
:1002C0000898086C0710275802019808F4016C0779
:1002D0000100E001029808F4016C070100E001034D
:1002E0009808DC006C070600E00104980898086C88
:1002F000070300780005980898086C070300780049
:1003000006980898086C0703007800079808980872
:100310006C070300780008980898086C07030078B9
:100320000009980898086C0703007800756E6C69DE
:100330006D6974656400756E6C696D6974006D69D2
:100340006E2E00556E6B6E004E694364004E694D13
:10035000480050622020004C696665004C696C6F53
:10036000004C69706F004C343330004C343335002E
:100370004E695A6E009A03A103A603AB03B003B5FE
:1003800003BC03C803D203000045646974206E6196
:100390006D653A004E616D653A004261743A202005
:1003A00000563A20200043683A200049633A200072
:1003B00049643A2000546C696D3A200043726561CB
:1003C0007465206E616D650045646974206E616DB1
:1003D00065005265736574206E616D650043684306
:1003E00042426C44694643537453424368446943F0
:1003F0005963794368446946504350454200202080
:100400002D2D2020004C696D6974733A20007469A9
:100410006D653A202020202000622000202000620C
:100420006174742E20523D00776972657320523DCD
:100430000056696E7075743D00206C696D69743D7D
:1004400000566F7574203D005662616C2E3D00545D
:100450006578743D002D0054696E743D0070726FB4
:100460006772616D20636F6D706C657465005469AF
:100470006D653A20004572726F723A006E6F2064AB
:10048000542F74006D6178566F75743D0064656C0F
:10049000746120563D2000546578743D004E2F4114
:1004A0000064656C746120543D20004E2F41007043
:1004B0006C656173652063616C2E00524556455230
:1004C000534520504F4C415249545900252000209B
:1004D000002000202000202D2D3A2D2D0025004346
:1004E000616C2E6572722E2020463A0054234823F8
:1004F000582356206C696D6974002D64560064544D
:100500002F6474001B242C24E72354245B249A2496
:10051000FF24CD24D324C725D3253B250526DC2560
:10052000DF25010607080F05000212060708090A61
:100530000B0D0E0F0405000212060708090A0B0D29
:100540000E0F040513030002120C10110D0E0F0400
:10055000051303000212060708090A0B0D0E0F040B
:10056000051303000212110D0E0F040513030006FC
:100570000708040F0500004E45454420666F72636E
:10058000652062616C2E007365742E202D2D3E2037
:10059000594553000001020304090F00010203043E
:1005A0000506090F07080A0F0B0C0D0E0FE705EEE5
:1005B00005FD0505060F061B06230632063D06004F
:1005C00000E705050632063D060000E705EE05FDDD
:1005D0000505060F0632063D060000E70505060F75
:1005E0000632063D06000063686172676500636855
:1005F000617267652B62616C616E63650062616C3C
:10060000616E636500646973636861726765006643
:10061000617374206368617267650073746F7261DF
:1006200067650073746F726167652B62616C616EE0
:100630006300443E4320666F726D617400656469B7
:1006400074206261747465727900494E54205400BC
:1006500042415420646973630042414C20627265D8
:10066000616B004F5645524C4F41442065727200F9
:100670004857204641494C55524500494E50555423
:1006800020560043415020434F46460054206C6999
:100690006D6974004558542054434F4600436F6EB3
:1006A0006E65637420426174746572792100290754
:1006B0002F0735073B07410747074D0753075907E2
:1006C0005F07650700000621222324252627281519
:1006D0001406090A0B0C0D0E0F106B0773070000B0
:1006E000000120436F6E6E6563742042617474650F
:1006F0007279007B07830700008B07900700009743
:10070000079E070000A507AE070000B707BF07C890
:1007100007D407E007EC07F80700003200E80307FA
:10072000080C08000032002C0156696E3A20005671
:1007300062313A20005662323A20005662333A2043
:10074000005662343A20005662353A20005662362E
:100750003A20005662373A20005662383A20005656
:10076000312D383A00566F75743A0056706C7573B7
:100770003A2000566D696E75733A0076616C756546
:100780003A2000444154413A20200035306D410068
:10079000313030306D410074656D703A2000766103
:1007A0006C75653A00706F696E7420312E00706F41
:1007B000696E7420322E00766F6C74616765004933
:1007C00020636861726765004920646973636861CA
:1007D0007267650074656D702065787465726E006F
:1007E00074656D7020696E7465726E0063616C690A
:1007F000622D3E55415254006578706572742044F4
:10080000414E474552210035306D41003330306D47
:1008100041001A0823082D08000073657474696E7E
:1008200067730063616C69627261746500726573FD
:1008300065742064656661756C7400802500000035
:100840004B00000096000000E1000000C2010046DD
:100850000088137017000070176400010005000F76
:100860000005001E0001000A007800581B0000016E
:10087000000100080000000000000000000000BBB4
:1008800008C608D108DC08E808F308FA08060910C9
:10089000091A09260932093E094B095509600969F7
:1008A00009750981098B0992099A090000432F6D86
:1008B00000A309AC09B309B909C2096261636B6C91
:1008C000696768743A0066616E206F6E3A20202076
:1008D000006469736368206F66663A0065787472B5
:1008E0006E20543A20202000657874726E205443A4
:1008F0004F3A0064542F64743A00656E6162202D93
:1009000064563A2020004E694D48202D64563A0026
:100910004E694364202D64563A00442F4320637986
:10092000636C65733A00776173746520542E3A20C6
:100930002000626565703A202020202020006D692B
:100940006E2E492049203D20492F006361702043CD
:100950004F66663A00696E707574206C6F773A0066
:100960006469736368202B3A00646973206167725D
:1009700065733A2000666F7263652062616C3A208D
:100980000062616C2E206572723A00554152543AF1
:10099000200073706565643A200020202072657322
:1009A00065740064697361626C6564006E6F726D7A
:1009B000616C006465627567006578742E206465FB
:1009C00062006578742E204164630016191B1A1C9E
:1009D00007050621222324252627287265736574BE
:1009E000696E6720656570726F6D3A00763A2038DF
:1009F0002E35312E35362000F4054F101C23862964
:100A0000C43C11241FBECFE5D8E0DEBFCDBF10E04F
:100A1000A0E6B0E0E0E0FDE702C005900D92A23F45
:100A2000B107D9F715E0A2EFB0E001C01D92A033E5
:100A3000B107E1F719E0C2E0DAE004C02297FE0155
:100A40000E94053EC83FD107C9F70E944A100C9486
:100A50007E3E0C940000CF92DF92EF92FF92482FDF
:100A6000282F30E0A0E0BDE70E94773D6B017C01BC
:100A7000A4E6B0E0A41BB10924E630E00E94833D67
:100A80006C0D7D1D8E1D9F1D24E630E040E050E082
:100A90000E94C53DB9018DE0FF90EF90DF90CF90AF
:100AA0000C942E3B882311F0909A08959098089505
:100AB0008091F800882331F08091F9008F5F809356
:100AC000F90002C01092F9008091F8008A3010F409
:100AD00080E001C084E09091F800943108F082E059
:100AE0009091F8009E3108F081E09091F9009823F0
:100AF00011F0979A0895979808952091DF03309107
:100B0000E003232B11F08093F8000895811103C0B6
:100B1000939AC49808959398C49A0895811102C035
:100B2000969A089596980895811102C0929A089510
:100B300092980895BC018EE00C942E3BBC018EE08F
:100B40000C942E3B80FF02C0C09A01C0C09881FF68
:100B500002C0C19A01C0C19882FF02C0C29A01C0FE
:100B6000C29883FF02C0C39A01C0C39884FF02C029
:100B7000DE9A01C0DE9885FF02C0DF9A01C0DF98CF
:100B800086FF02C0AE9A01C0AE9887FF02C0AF9A3E
:100B90000895AF9808958C9A8B9A889A8F9AB89AEC
:100BA000B99ABA9ABB9AD69AD79AA69AA79ABC9A91
:100BB0008D9A8E9A8D9A8A9A80E00E94860580E0AE
:100BC0000E94520580E00E947D0580E00E94A205FF
:100BD00020E042E060E182EF90E00E94E4160E9493
:100BE000443B0C94F805089582EF90E00C9435177F
:100BF000D598D498DD98DC98BF9ABE9ABD9A80B7F4
:100C0000806680BF8FEA86B91092FA000C94B53ADC
:100C100087FD21C0682F772767FD709540916000A0
:100C200050E064177507B9F08093600098B3282FDF
:100C3000217030E0220F331F220F331F82FB332736
:100C400030F9232B8270282B80E2289F90011124F9
:100C50009F71922B98BB089534B125B18091FA0011
:100C600044E0849FC0011124FC01E859FE4FE49147
:100C7000E33171F04FB7F894F0E0EE0FFF1FEA5147
:100C8000FE4F922F80E0832B918380834FBF089586
:100C9000FC01E759FE4F84919091FB0027FD02C0B3
:100CA000892B02C0809589238093FB0008951092C0
:100CB000FA0008950E943526909309028093080255
:100CC0000E94972690930B0280930A020C94470A85
:100CD000E091FA00EF5FE83108F0E0E084E0E89F9F
:100CE000F0011124EA59FE4F84910C940806CF9329
:100CF000C091FA0081E0C11101C080E00E942C0681
:100D00008C2F8F5F883108F080E08093FA0094E0A8
:100D1000899FF0011124E959FE4FE491E062E7B99F
:100D2000811103C0CF910C945A06CF910895809100
:100D3000FB0008951F920F920FB60F9211242F936C
:100D40003F934F935F936F937F938F939F93AF9353
:100D5000BF93EF93FF930E946806FF91EF91BF91BD
:100D6000AF919F918F917F916F915F914F913F9143
:100D70002F910F900FBE0F901F9018951F920F92FA
:100D80000FB60F9211242F933F934F935F936F935E
:100D90007F938F939F93AF93BF93EF93FF930E94A3
:100DA0007706FF91EF91BF91AF919F918F917F91C6
:100DB0006F915F914F913F912F910F900FBE0F90C8
:100DC0001F9018950F931F938FB7F8940091FC0014
:100DD0001091FD002091FE003091FF008FBFB801FF
:100DE000C9011F910F9108950E940D2E0E94643930
:100DF0000E940B270E94BD370C94D30C8091FC00FD
:100E00009091FD00A091FE00B091FF000196A11D00
:100E1000B11D8093FC009093FD00A093FE00B09361
:100E2000FF0080916100815019F080936100089566
:100E300081EE809361000E942E0A0C9439220F9358
:100E40001F930E94E2068B019C013695279517950A
:100E50000795B801C9011F910F910895CF92DF92B4
:100E6000EF92FF92CF93DF93EC010E941F076B017B
:100E70007C01CC0EDD1EE11CF11C0E941F076C15CD
:100E80007D058E059F05C8F3DF91CF91FF90EF9010
:100E9000DF90CF900895CF92DF92EF92FF92CF93A1
:100EA000DF93EC010E941F076B017C01CC0EDD1E5D
:100EB000E11CF11C02C00E94F4060E941F076C1581
:100EC0007D058E059F05B8F3DF91CF91FF90EF90E0
:100ED000DF90CF900895E82FF0E0EE0FFF1FE05471
:100EE000FE4F808191810895E82FF0E0EE0FFF1F03
:100EF000E259FE4F8081918108952FB7F894E82F31
:100F0000F0E0EE0FFF1FEA51FE4F808191812FBF6D
:100F1000089580915A02089580911A0190911B01C1
:100F200008958091080190910901089580910A0126
:100F300090910B010895E82FF0E0EE0FFF1FE45EA3
:100F4000FE4F808191810895633110F4423040F06A
:100F500021E030E0FC013383228331832083089534
:100F6000242F30E0260F311D260F311D220F331F95
:100F7000220F331F265F3F4F44E050E0B9010C942D
:100F8000393E282FCA01233188F4623078F470E0AA
:100F9000620F711D620F711D660F771F660F771F3D
:100FA000665F7F4F44E050E00C94573E0895FF92F7
:100FB0000F931F93CF93DF9300D000D0CDB7DEB750
:100FC000F12C88E0F89E80011124F801E253FF4FD4
:100FD000459155916591749149835A836B837C83C4
:100FE000AE014F5F5F4F60E08F2D0E94C107F80197
:100FF000EE52FF4F459155916591749149835A8303
:101000006B837C83AE014F5F5F4F61E08F2D0E9449
:10101000C107F39483E1F812D4CF0F900F900F9093
:101020000F90DF91CF911F910F91FF900895EAE902
:10103000F1E0808191810895E0EAF1E08081918181
:1010400008958091480190914901039750F0809153
:101050004E0190914F01039720F083E090E00C94B3
:10106000F40D80E008959FB7F89480E024E0829F1B
:10107000F0011124E45FFD4F10821182128213826D
:101080008F5F833199F710925902109258029FBFD7
:101090000895CF93CFB7F8941092190110921801C8
:1010A000109214011092150110921601109217015E
:1010B000109210011092110110921201109213015E
:1010C00010920C0110920D0110920E0110920F015E
:1010D0000E941F076093040170930501809306012D
:1010E00090930701CFBFCF910895CF93DF930E94D4
:1010F00033080E944908C0911A01D0911B0104C015
:101100008AE090E00E944B0780911A0190911B01A8
:10111000C817D907A9F3DF91CF9108950E94490814
:1011200010920B0110920A0110920901109208010D
:10113000089580E0E82FF0E0EE0FFF1FE45EFE4F21
:10114000118210828F5F8932A9F708950E943308B7
:101150000E9449080C9499088FB7F89410920001E6
:101160001092010110920201109203018FBF1092A0
:101170001B0110921A010E9457060E94A6080E94A5
:101180008E0880E0E82FF0E0EE0FFF1FE259FE4FDF
:10119000118210828F5F8932A9F7089580915A02D7
:1011A00081110AC081E00E9486050E94AC0881E09E
:1011B00080935A020C947508089510925A0280E0A8
:1011C0000C948605CF93DF9381E00E947D07EC01AC
:1011D00080E00E947D078C179D0718F4C81BD90B6F
:1011E00002C0C0E0D0E081E0C93ED34008F480E016
:1011F000DF91CF9108958F929F92AF92BF92CF923D
:10120000DF92EF92FF92CF93DF93CDB7DEB72897AF
:101210000FB6F894DEBF0FBECDBFF82E5B0161158F
:101220007105C9F140E0682FCE0105960E94A40720
:1012300041E06F2DCE0101960E94A4072B813C81D5
:1012400040E050E0CF80D884E12CF12C2C193D09EE
:101250004E095F09B50180E090E08D809E80A12C51
:10126000B12C681979098A099B090E94953D298149
:101270003A8140E050E0281939094A095B090E9487
:10128000E73D2C0D3D1D4E1D5F1D57FF06C020E0A4
:1012900030E0A90102C020E030E0C90128960FB675
:1012A000F894DEBF0FBECDBFDF91CF91FF90EF90DE
:1012B000DF90CF90BF90AF909F908F9008958F92C6
:1012C0009F92AF92BF92CF92DF92EF92FF92CF9315
:1012D000DF93CDB7DEB728970FB6F894DEBF0FBE09
:1012E000CDBFF82E5B0161157105C9F140E0682F93
:1012F000CE0105960E94A40741E06F2DCE01019614
:101300000E94A40729813A8140E050E0CD80DE8030
:10131000E12CF12C2C193D094E095F09B50180E043
:1013200090E08F809884A12CB12C681979098A09E2
:101330009B090E94953D2B813C8140E050E028199B
:1013400039094A095B090E94E73D2C0D3D1D4E1DE0
:101350005F1D57FF06C020E030E0A90102C020E079
:1013600030E0C90128960FB6F894DEBF0FBECDBF9E
:10137000DF91CF91FF90EF90DF90CF90BF90AF9033
:101380009F908F9008950C94AC0882508B3130F46C
:10139000E82FF0E0EC58FF4F8081089581E0089538
:1013A000CF93DF93E82FF0E0EE0FFF1FE259FE4FDF
:1013B000C081D1810E94C509882319F0813059F478
:1013C00004C081E0E39740F404C081E0C935D24015
:1013D00018F480E001C081E0DF91CF910895CF93B0
:1013E000C0E08C2F8F5D0E94D009882319F0CF5F59
:1013F000C830B9F78C2FCF9108951F93CF93DF9307
:101400001F92CDB7DEB7182F69830E94C509E12F5F
:10141000F0E0EE0FFF1FE259FE4F4981682F8081F7
:1014200091810F90DF91CF911F910C94CE152FB722
:10143000F8946091000170910101809102019091F6
:1014400003012FBF2DE730E040E050E00E94C53D92
:101450007727652F542F432FCA0108952091A001AB
:101460003091A1018091000190910101A0910201B0
:10147000B0910301820F931FA11DB11D8093000144
:1014800090930101A0930201B0930301089580910C
:101490005A02882309F47DC02091580230915902E4
:1014A0002436310528F560E0A62FB0E0FD01EE0FEF
:1014B000FF1FEE0FFF1FE45FFD4FAA0FBB1FAA51D6
:1014C000BE4F4D915C9180819181A281B381840F47
:1014D000951FA11DB11D80839183A283B3836F5F8C
:1014E000633111F72F5F3F4F309359022093580219
:1014F0002091E6013091E70180911401909115014E
:10150000A0911601B0911701820F931FA11DB11D6B
:101510008093140190931501A0931601B0931701C5
:101520002091E8013091E901809110019091110121
:10153000A0911201B0911301820F931FA11DB11D43
:101540008093100190931101A0931201B0931301A5
:101550002091F4013091F50180910C0190910D01E1
:10156000A0910E01B0910F01820F931FA11DB11D1B
:1015700080930C0190930D01A0930E01B0930F0185
:10158000809118019091190101969093190180930F
:101590001801089590E0880F991FFC01E259FE4F51
:1015A000208131816217730718F4261B370B04C0A2
:1015B000AB01421B530B9A01FC01E45EFE4F273046
:1015C000310518F01182108206C0208131812F5F11
:1015D0003F4F31832083FC01E259FE4F71836083CA
:1015E0000895AF92BF92CF92DF92EF92FF920F9346
:1015F0001F93CF93DF931F92CDB7DEB7A0906E01FC
:10160000B0906F0180917001909171018A159B05D6
:1016100018F4A81AB90A02C0A12CB12CB50184E1B2
:101620000E94CA0A00E811E091E2F801619171910B
:101630008F01892F99830E94CA0A99819F5F9932ED
:10164000A1F70E94EF09F82E80E000E010E00CC046
:10165000E82FEF5DF0E0EE0FFF1FE259FE4F208113
:101660003181020F131F8F5F8F11F2CFB80185E117
:101670000E94CA0A0115110581F00A151B0520F404
:101680009501201B310B03C098012A193B09293E03
:10169000334018F4580115E102C014E1F12CB501F2
:1016A00086E10E94CA0A6F2D70E088E10E94CA0A92
:1016B000612F70E087E10E94CA0A0E94170A8C011C
:1016C0000E948826882329F0E0907401F09075012B
:1016D0000BC00E942626882329F0E0907201F0902A
:1016E000730102C0E12CF12CB70189E10E94CA0A02
:1016F000B8018BE10E94CA0A9701D5010E94773D8B
:10170000E0E1CE2EE7E2DE2EE12CF12CA7019601DE
:101710000E94C53DB9018AE10E94CA0A9801D5011B
:101720000E94773DA70196010E94C53DB9018CE159
:101730000F90DF91CF911F910F91FF90EF90DF906D
:10174000CF90BF90AF900C94CA0A2F923F924F92C5
:101750005F926F927F928F929F92AF92BF92CF9241
:10176000DF92EF92FF920F931F93CF93DF9300D0FE
:1017700000D0CDB7DEB70E941F0700910401109181
:1017800005012091060130910701601B710B820B4E
:10179000930B613375478105910508F498C02FB705
:1017A000F894209018013090190140901401509045
:1017B00015016090160170901701609110017091F1
:1017C0001101809112019091130180900C01909071
:1017D0000D01A0900E01B0900F012FBF69837A8395
:1017E0008B839C830E94490820910A0130910B0150
:1017F0002F5F3F4F30930B0120930A016101E12CD1
:10180000F12C69817A818B819C81A70196010E94CC
:10181000C53D8901C301B201A70196010E94C53DE2
:10182000B90180E00E94FB083C01B80181E00E9400
:10183000FB088615970520F48301081B190B02C0CD
:1018400000E010E06090AA017090AB01061517054A
:1018500020F0B8018EE10E94CA0AB8016619770922
:101860008DE10E94CA0AC501B401A70196010E9438
:10187000C53DB90187E00E94FB0820910801309125
:1018800009019093090180930801BC01621B730B4D
:10189000660F771F8FE10E94CA0AB10180E20F90A4
:1018A0000F900F900F90DF91CF911F910F91FF90AC
:1018B000EF90DF90CF90BF90AF909F908F907F90F0
:1018C0006F905F904F903F902F900C94CA0A0F90AA
:1018D0000F900F900F90DF91CF911F910F91FF907C
:1018E000EF90DF90CF90BF90AF909F908F907F90C0
:1018F0006F905F904F903F902F900895CF92DF921E
:10190000EF92FF921F93CF93DF932FB7F8948091BC
:101910005802909159022FBF84369105E1F58091CC
:101920001A0190911B01019690931B0180931A015B
:1019300010E024E6C22ED12CE12CF12CC12FD0E0F6
:10194000FE01EE0FFF1FEE0FFF1FE45FFD4F6081F2
:10195000718182819381A70196010E94C53DCC0FC0
:10196000DD1FC054DE4F39832883B901812F0E94C7
:10197000FB08BC01812F0E94CA0A1F5F1331F1F6D8
:101980000E94F10ADF91CF911F91FF90EF90DF90BD
:10199000CF900C943308DF91CF911F91FF90EF907F
:1019A000DF90CF9008950E947E0C0C94A50B1092AE
:1019B00000011092010110920201109203010C9497
:1019C000A60880918902089580918702811112C032
:1019D0000E948907882381F00E948C0720915B0276
:1019E00030915C02821B930B9C0181E02530310514
:1019F00020F002C081E0089580E008958F5D0C948E
:101A000074070F931F93CF93DF9310E0CFEFDFEFB7
:101A100000E009C0812F0E94FE0C8C179D0710F476
:101A2000EC01012F1F5F80918902181798F3802F16
:101A3000DF91CF911F910F910895CF93DF939091F4
:101A40008702911104C0DF91CF910C94FE0C90910C
:101A50006502C82FD0E0992391F00E94FE0CCC0FB4
:101A6000DD1FFE01EA59FD4FCA58DD4F208131814B
:101A700048815981241B350B280F391F07C0FE01EF
:101A8000EE0FFF1FEA59FD4F20813181C901DF911F
:101A9000CF910895CF93C82F80918702882341F07A
:101AA000C11106C00E948C0790935C0280935B0278
:101AB000C09387020E941F0760935D0270935E02CD
:101AC00080935F02909360020E9499088091860241
:101AD000811104C08C2FCF910C94A205CF91089551
:101AE00080E00E944A0D81E08093860208950E9462
:101AF000700D80E00C94F305EF92FF920F931F930B
:101B0000CF93DF9381E00E94F30588E10E94740780
:101B10008093890206E712E036E6E32E32E0F32EE8
:101B2000C0E0D0E00CC08C2F0E94FE0CF801819325
:101B300091938F01F701819391937F012196809179
:101B4000890290E0C817D90774F3109287021092A7
:101B5000860280E00E944A0D10925C0210925B02A5
:101B600010925D0210925E0210925F02109260026B
:101B7000DF91CF911F910F91FF90EF900895FF9209
:101B80000F931F93CF93DF93809188020E941D0DC6
:101B9000EC01F12C01E010E01CC08F2D0E941D0D06
:101BA000AC0180918702802321F0C417D50778F417
:101BB0000DC02091ED033091EE032F5F3F4F36951E
:101BC00027952C0F3D1F2417350708F4102B000F05
:101BD000F39480918902F81600F3812FDF91CF9161
:101BE0001F910F91FF9008951F93CF93DF93EC0106
:101BF00010E008C0812F8F5D0E949B078C179D0706
:101C000038F01F5F809189021817A0F381E001C0AE
:101C100080E0DF91CF911F910895BF92CF92DF9224
:101C2000EF92FF920F931F93CF93DF938AE090E0A0
:101C30000E94F40D882309F461C00E94010D809375
:101C400088020E94FE0C8C0162E088E992E00E940A
:101C500036190817190750F176E6E72E72E0F72ECD
:101C6000E6E7CE2EE2E0DE2EC0E0D0E0BB24B39467
:101C700016C08C2F0E94FE0CF701819391937F0177
:101C8000F601819391936F01801B910B2091ED03DD
:101C90003091EE032817390708F4B12C2196809172
:101CA000890290E0C817D90724F302C0BB24B3947B
:101CB000109265020E941F07609361027093620296
:101CC0008093630290936402BB2059F0DF91CF911F
:101CD0001F910F91FF90EF90DF90CF90BF900C94E9
:101CE000700D0E94BF0DDF91CF911F910F91FF905A
:101CF000EF90DF90CF90BF900C944A0DDF91CF9181
:101D00001F910F91FF90EF90DF90CF90BF900895BB
:101D1000CF9380916502811119C081E080936502A3
:101D2000809188020E94FE0CC0E00CC08C2F0E94A3
:101D3000FE0CEC2FF0E0EE0FFF1FEA58FD4F9183F1
:101D40008083CF5F80918902C81780F3CF91089577
:101D50000F931F930E941F0700916102109162026E
:101D60002091630230916402601B710B820B930B14
:101D700028EE33E040E050E00E94C53DC9011F91CC
:101D80000F91089583E090E00E94F40D8823C9F03C
:101D900080918702811103C00E940D0E12C00E9423
:101DA000880E0E94BF0D90E080959095209187024B
:101DB00030E082239323892B81F40E94A80E4F9751
:101DC00060F40E94E40C882311F082E00895809171
:101DD00086028823D1F381E0089580E00E944A0DB5
:101DE000F0CF1F93CF93DF93EC0110E00FC0812F52
:101DF0000E94FE0C8C179D0710F081E00CC0812F13
:101E00000E941D0D8C179D07C0F71F5F80918902EE
:101E1000181768F380E0DF91CF911F9108951F9309
:101E2000CF93DF93EC0110E00FC0812F0E94FE0CD6
:101E3000C817D90710F081E00CC0812F0E941D0D3A
:101E4000C817D907C0F71F5F80918902181768F378
:101E500080E0DF91CF911F91089560918902662300
:101E600021F070E00E94B13D02C060E070E0CB0163
:101E700008950E94CF110E94D81F85E00E94F2367B
:101E80000E94EA2D88E00C94F2360E94CF110E9445
:101E9000E61F86E00E94F2360E94EA2D88E00C944C
:101EA000F236E0918A02F0918B0285919491FC01C7
:101EB0000994E0918A02F0918B0232968591949177
:101EC000FC010994E0918A02F0918B02349685918D
:101ED0009491FC010994CF93DF931F92CDB7DEB7A5
:101EE000811109C00E94E81E0E94590F0E94DD085E
:101EF0000E94450F0FC0813059F469830E94E81E8B
:101F00000E94590F6981611105C00E94390F02C0FA
:101F100081E001C080E00F90DF91CF910895BF92E2
:101F2000CF92DF92EF92FF920F931F93CF93DF93A5
:101F30008C01C62E0E94510F0E94CA1E0E943F2E85
:101F40000E94CF11F12C82E0D82EC0E0D0E0EE2428
:101F5000E3940E94D136811106C0F801EF0DF11D06
:101F600084910E94E2220E945D11B82E84E0B81292
:101F700009C0EF2DF0E03196E00FF11FE491E1117F
:101F800026C008C082E0B81205C0FF2019F00E94E8
:101F9000AC20FA94EE2081F00E94532ED82E6C2DA6
:101FA0000E946B0FE82E882339F00E948C07C81717
:101FB000D90789F4E11003C0C11018C0E12C81E0F9
:101FC000B812C7CF0E94E81E0E94590F0FC00E948E
:101FD000AC20F394DFCF0E948C07EC010E94620FCB
:101FE000D82E6C2D0E946B0FE82EE4CF8D2DDF9143
:101FF000CF911F910F91FF90EF90DF90CF90BF9006
:102000000895FC0124812052621710F40C94681783
:10201000862F90E0821B91090E94FC196EE00C94BF
:102020000E1360E08CE892E00E94641887FD0AC0FD
:10203000811102C00C94F733992787FD9095019781
:102040000C944829089578940E94CB050E94A93ADF
:102050000E947D260E9404270E94C3090E94003D21
:102060000E945A346DED71E08CEC91E00E94BB1F30
:1020700088EE93E00E942E0780E00E94333A0E948F
:1020800054158091F3039091F403079710F40C9486
:10209000342008950E9423100E941110FDCF6DEE90
:1020A00071E08CE892E00E94761783E990E09093CB
:1020B0008D0280938C02E0E9F2E08081805E808373
:1020C0000895CF93DF93EC010E94C7118B819C810F
:1020D0000E940B130E94CB116A8188819981DF9144
:1020E000CF910C94A712FC0187818F3118F48F5F78
:1020F0008783089586818F5F86830895FC01878199
:10210000882319F0815087830895868181508683C2
:1021100008951F93CF93DF93FC01C681D0E06D2F0C
:1021200080E00E94C1111C2F105F8C2FCF5F0E9496
:1021300065138C2FC113FACFDF5FD23081F7DF91A7
:10214000CF911F9108951F93CF93DF93EC0182EFFE
:1021500090E00E9499161FEF8E81181721F0CE0192
:102160000E9489101E818F81682F70E094E0759520
:1021700067959A95E1F78F700E94C1110E945D11D9
:10218000823049F0843019F0813049F413C0CE0117
:102190000E947310E1CFCE010E947E10DDCF883007
:1021A000D9F68D81E881F981E80FF11D8F819E813B
:1021B000890F8083DF91CF911F910895FC01718376
:1021C0006083428334832383158280E2868317826F
:1021D0000895CF93DF93EC0182EF90E00E9499166F
:1021E0000E94CF11CE010E94611061E08D810E949A
:1021F000C1110E945D118230B1F0843041F0813014
:10220000C1F482EF90E00E94A11680E026C04D81CB
:10221000242F30E08A8190E00197281739072CF7A6
:102220004F5F4D83E2CF8D818823F9F281508D83FA
:10223000DCCF8830D1F682E00E94B011823048F0C5
:1022400083E00E94F23682EF90E00E94A11681E0C6
:1022500004C0CE010E94A310C3CFDF91CF91089597
:102260000C949706E0919602F0E0EE0FFF1FE75006
:10227000FE4F25913491C9010895CF93DF93D82F54
:102280000E94970607C082E390E00E944B070E94DD
:102290009706DC2FC82F8D13F6CF1092960210925E
:1022A000950280939702882319F080E00E940237FC
:1022B00080919702DF91CF910895FF920F931F9322
:1022C000CF93DF93C0E0D0E0F12C0AEF10E015C00F
:1022D0000E949706F82E81E090E00E944B078091C3
:1022E0009702F81202C0219608C08F2DDF91CF917E
:1022F0001F910F91FF900C943D1140919602242F55
:1023000030E0220F331FF901E95FFD4F65917491B1
:10231000C8010E94B13D6F5F7F4FC617D707C0F25B
:10232000FF20B1F0509195025F5F50939502F90143
:10233000EB5EFD4F85919491252F30E028173907EA
:1023400038F0463018F44F5F409396021092950291
:1023500080919702DF91CF911F910F91FF90089587
:10236000CF93DF93D82FC09197020E945D11909177
:1023700096029D1711F08C17C1F3892FDF91CF9131
:102380000895462F682F82EF90E00C94B01660E01D
:1023900080E00C94C11161E080E00C94C11182EFE7
:1023A00090E00C94DD16CF93DF93FC01DB018C9160
:1023B000882389F0C081D1814883808191810196F1
:1023C000918380838C9181508C93882321F001909C
:1023D000F081E02D1082DF91CF910895BF92CF92CE
:1023E000DF92EF92FF920F931F93CF93DF93EC0155
:1023F0008B017A014115510501F1CA010E94123E7B
:10240000F8019081B82E981708F4B92ECB2CD12C56
:10241000A601B701888199810E941B3E28813981DC
:102420002C0D3D1D39832883F80180818B19808311
:10243000882319F0E881F9811082DF91CF911F91F3
:102440000F91FF90EF90DF90CF90BF900895CF92C3
:10245000DF92FF920F931F93CF93DF9300D0CDB7FE
:10246000DEB76C018B01BA0180E090E049835A83AA
:102470000E942A2DF82ED8018C9149815A818F15FE
:1024800070F44FE3B801C6010F900F90DF91CF9128
:102490001F910F91FF90DF90CF900C94D311F60114
:1024A000208131812F0D311D31832083D8018C9102
:1024B0008F198C93882321F00190F081E02D1082F8
:1024C000F9012AE030E00CC0CA01B9010E94B13D17
:1024D000405DBAE06B9F401911244293FA94AB011E
:1024E000F110F2CF0F900F90DF91CF911F910F91CC
:1024F000FF90DF90CF9008950F931F93CF93DF93BA
:10250000CDB7DEB72B970FB6F894DEBF0FBECDBFA9
:102510008E010F5F1F4F1A87098727E02B87AC01B9
:10252000BE01655F7F4FCE0109960E942712B80158
:1025300082EF90E00E9458172B960FB6F894DEBFFA
:102540000FBECDBFDF91CF911F910F9108951F93C3
:10255000CF93DF93CDB7DEB761970FB6F894DEBFA8
:102560000FBECDBF0097D1F0162F613108F010E1FA
:10257000412F50E0BC01CE0101960E942A3EE1E0CD
:10258000F0E0EC0FFD1FE10FF11D1082BE016F5F47
:102590007F4F82EF90E00E94581701C080E0619663
:1025A0000FB6F894DEBF0FBECDBFDF91CF911F9164
:1025B00008951F93CF93DF93CDB7DEB761970FB622
:1025C000F894DEBF0FBECDBF0097D1F0162F61315A
:1025D00008F010E1412F50E0BC01CE0101960E94AD
:1025E0001B3EE1E0F0E0EC0FFD1FE10FF11D10825A
:1025F000BE016F5F7F4F82EF90E00E94581701C0CD
:1026000080E061960FB6F894DEBF0FBECDBFDF91BC
:10261000CF911F91089560E10C94D912CF92DF926F
:10262000EF92FF920F931F93CF93DF93CDB7DEB757
:1026300062970FB6F894DEBF0FBECDBF009761F171
:10264000613108F060E17C01CC24C394D12CCC0E24
:10265000DD1E86011CC0C7016A8B0E94493EF8013D
:1026600081938F01FFEFEF1AFF0A6A8981110FC072
:10267000E1E0F0E0EC0FFD1FE60FF11D1082BE015E
:102680006F5F7F4F82EF90E00E94581706C0802F47
:102690008C19861700F3ECCF80E062960FB6F894A1
:1026A000DEBF0FBECDBFDF91CF911F910F91FF9085
:1026B000EF90DF90CF900895882319F087E292E0A1
:1026C00002C08BE292E00C940B13682F82EF90E033
:1026D0000C943717CF93DF931F92CDB7DEB7682FD7
:1026E00006C080E269830E9465136981615064308D
:1026F000C4F783E292E00F90DF91CF910C94D9124E
:10270000CF93DF93D82FC0E004C080E20E9465130E
:10271000CF5FCD13FACF8C2FDF91CF91089580E159
:102720000C9480136AE00E94A53D892F805D0C9473
:102730006513DF92EF92FF920F931F93CF93DF9376
:10274000EC01F62E16160CF058C064E670E00E94FC
:10275000B13D8B0180E090E00E942A2DE82E23E01D
:10276000D22ED80E04C080E20E946513FA94DF14C2
:10277000D4F34F2D552747FD50952D2D332727FD99
:102780003095235031094217530754F48F2DDF91B0
:10279000CF911F910F91FF90EF90DF900C946A13EF
:1027A000C8010E947C12CE0164E670E00E94B13D37
:1027B000EC01FE181F2D11501F141CF48EE20E9414
:1027C0006513012F0150111644F4CE016AE070E048
:1027D0000E94B13D862F0E949213101674F4CE0110
:1027E0006AE070E00E94B13DDF91CF911F910F919F
:1027F000FF90EF90DF900C949213DF91CF911F9197
:102800000F91FF90EF90DF900895CF92DF92EF92BB
:10281000FF920F931F93CF93DF93EC01F62EC42EFC
:1028200016160CF08AC068EE73E00E94B13D8B0171
:1028300080E090E00E942A2DD82E34E0E32EE80EAE
:1028400004C080E20E946513FA94EF14D4F3FE14DE
:10285000ECF0C1101BC0BE0180E090E00E942A2D68
:10286000182F03C080E20E946513FA941F15D4F359
:10287000CE010E947C128DE6DF91CF911F910F91C6
:10288000FF90EF90DF90CF900C9465134F2D55275C
:1028900047FD50952E2D332727FD309524503109C3
:1028A000421753075CF48F2DDF91CF911F910F9149
:1028B000FF90EF90DF90CF900C946A13C8010E94B4
:1028C0007C12CE0168EE73E00E94B13DEC01FD1870
:1028D0000F2D01501F141CF48EE20E946513102F5F
:1028E0001150101644F4CE0164E670E00E94B13D30
:1028F000862F0E949213CE0164E670E00E94B13DE3
:10290000EC01012F015011163CF46AE070E00E94C6
:10291000B13D862F0E94921310167CF4CE016AE01E
:1029200070E00E94B13DDF91CF911F910F91FF9018
:10293000EF90DF90CF900C949213DF91CF911F9185
:102940000F91FF90EF90DF90CF9008956F927F925C
:102950008F929F92AF92BF92CF92DF92EF92FF92AF
:102960000F931F93CF93DF937C01962E742E822EAC
:1029700016160CF046C021119A94B70180E090E041
:102980000E942A2DC0E0D0E0082F10E0A92CBB2423
:10299000A7FCB09404C0872D0E9465132196692C72
:1029A0006C1A6501CC1ADD0A0C151D05A4F38820EC
:1029B00019F08DE20E946513C016D1068CF4862DA5
:1029C000DF91CF911F910F91FF90EF90DF90CF900B
:1029D000BF90AF909F908F907F906F900C946A13F0
:1029E000C701DF91CF911F910F91FF90EF90DF9082
:1029F000CF90BF90AF909F908F907F906F900C94EE
:102A00007C12DF91CF911F910F91FF90EF90DF909B
:102A1000CF90BF90AF909F908F907F906F900895D0
:102A200020E00C94A61440E20C941015CF93DF9391
:102A30006CE370E00E94B13D9B01EC0140E363E078
:102A4000C9010E9410158AE30E94651340E362E009
:102A5000CE01DF91CF910C941015292F221F222730
:102A6000221F19F091958195910940E20C94A614CA
:102A7000161634F461500E94991383E40C94651384
:102A80000895161634F461500E94131585E20C94D3
:102A90006513089563303CF062500E9413158FE275
:102AA00092E00C940B130895FF920F931F93CF9312
:102AB000DF93CDB7DEB728970FB6F894DEBF0FBE11
:102AC000CDBF4EE0F42EF9821FE11A8301E10B83A2
:102AD0000C830D830E830F831887AE014F5F5F4F0A
:102AE00060E082EF90E00E946516F9821A830B8302
:102AF0000C831D831E831F831887AE014F5F5F4FBA
:102B000061E082EF90E00E946516F9821A831B83D0
:102B10001C831D831E831F831887AE014F5F5F4F89
:102B200062E082EF90E00E94651628960FB6F89456
:102B3000DEBF0FBECDBFDF91CF911F910F91FF90F0
:102B400008950F931F93CF93DF93062F142F64E6FE
:102B500070E00E94B13DEB0180E20E94651380E2CB
:102B60000E946513C436D10548F480E20E946513C3
:102B7000CA30D10518F480E20E946513CE010E948C
:102B80007C12802F0E946513812F0E94651380E2C2
:102B9000DF91CF911F910F910C946513CF93DF9329
:102BA000C62F1416C4F5642F6150C33089F020F489
:102BB000C13051F058F41EC0C530D9F078F0C6309D
:102BC00091F0C730D1F411C0D6E518C040E201C081
:102BD00048E667E5DF91CF910C94A115642FDF9152
:102BE000CF910C943815D4EF06C00E942D1585E5C1
:102BF0000EC06150D1E440E002C0D5E541E00E9442
:102C000005148D2F0E946513C53029F488E6DF91E5
:102C1000CF910C946513DF91CF910895462F66E014
:102C20000C94CE15462F61E00C94CE15462F60E033
:102C30000C94CE15462F65E00C94CE15AC9881E02F
:102C400090E00E94703DAC9A81E090E00E94703D5F
:102C5000AC9884E690E00C94703DA09AA19AA29A58
:102C6000A39A60FF02C0A89A01C0A89861FF02C0A1
:102C7000A99A01C0A99862FF02C0AA9A01C0AA98A5
:102C800063FF02C0AB9A01C0AB980C941E161F9351
:102C9000CF93DF93EC01162F442311F0AD9A01C0BE
:102CA000AD98612F70E084E0759567958A95E1F79E
:102CB000CE010E942D16612FCE01DF91CF911F9181
:102CC0000C942D1640E00C944716CF92DF92EF92B1
:102CD000FF920F931F93CF93DF9300D0CDB7DEB752
:102CE0007C01677088E0689FB00111246064C701AF
:102CF00049835A830E9462164981C42E5A81D52E77
:102D000000E010E0F60161916F0141E0C7010E940F
:102D100047160F5F1F4F08301105A1F70F900F9056
:102D2000DF91CF911F910F91FF90EF90DF90CF90A7
:102D30000895FC016181262F2160218369600C9434
:102D40006216FC0161816E7F618368600C9462167B
:102D5000FC016181262F246021836C600C94621633
:102D6000CF93DF93CDB7DEB728970FB6F894DEBFC9
:102D70000FBECDBF28E0ECE6F0E0DE011196019039
:102D80000D922A95E1F7FC012481421710F0422FA1
:102D90004150FE013196E40FF11DE40FF11D208139
:102DA000260F2068622F28960FB6F894DEBF0FBE5C
:102DB000CDBFDF91CF910C94621661E00E94621644
:102DC00080ED97E00C94703DCF93DF93EC0142309F
:102DD00018F08881886088834C831D82222329F023
:102DE000413019F488818460888380E593EC0E94E7
:102DF000703DAD98AC9863E0CE010E942D1684E939
:102E000091E10E94703D63E0CE010E942D1684E99D
:102E100091E10E94703D63E0CE010E942D1686E98B
:102E200090E00E94703D62E0CE010E942D16688104
:102E30006062CE010E94621684E08983CE010E9406
:102E4000A816CE010E94DD1682E08A8366E0CE01DC
:102E5000DF91CF910C946216A59AA49AFC0110827E
:102E600020E041E060E10C94E4160C942C1741E062
:102E70000E94471681E00895EF92FF920F931F93EF
:102E8000CF93DF938C01F42EC62FD72FE42EE60EBE
:102E900005C0699141E0C8010E944716EC12F9CFC4
:102EA0008F2DDF91CF911F910F91FF90EF9008959B
:102EB0006115710559F0DB010D900020E9F7AD01B6
:102EC00041505109461B570B0C943C1780E0089564
:102ED000FC0127818085E22FF82FE60FF11DE60F18
:102EE000F11D25913491C9010C940B130F931F937D
:102EF000CF93DF93EC018B01CB010E94EA2C682F6A
:102F0000CE010E94D91789E990E0998388831887B8
:102F10000F83DF91CF911F910F910895DF92EF9270
:102F2000FF920F931F93CF93DF93EC01F62E6987E7
:102F30001A8681E08D8382E0D82EEE24E3948E0100
:102F4000075F1F4F0E945D11482F823011F08430BF
:102F500061F4E881F9810280F381E02D6F2DCE01CB
:102F60000995F986DA86ED8204C0813089F08830CF
:102F700079F0C8010E94FE2D8111ED828D81882398
:102F800019F0CE010E9406188A858F5F8A87DACFF2
:102F90008FEF898781E08E838D83483009F080E050
:102FA000DF91CF911F910F91FF90EF90DF900895E7
:102FB0000895FC018FE990E091838083128213824F
:102FC000648381E0858386830895FC012281211139
:102FD00003C081E082830895438130E0240F311DD6
:102FE000848190E001972817390714F44F5F4383D9
:102FF0000895FC018281882319F08150828308950D
:103000008381882311F08150838308951F93CF9388
:10301000DF93EC0110E0612F80E00E94C11180E29B
:103020000E946513E881F9816B81610F0190F08145
:10303000E02DCE0109950E948F131F5F123059F7C2
:103040006A8180E00E94C1118EE30E9465136A814B
:103050008FE00E94C1118CE30E9465131D82DF91F5
:10306000CF911F9108950F931F93CF93DF93EC019E
:103070000E945D11182F0E94D136882321F081E033
:103080008D831FE71BC00B818A81080F123031F03E
:10309000143039F4CE010E94E51703C0CE010E941E
:1030A000F9178B819A81890F081711F081E08D83C0
:1030B0008D81882319F0CE010E940618812FDF919F
:1030C000CF911F910F910895EF92FF921F93CF938D
:1030D000DF931F92CDB7DEB77C0181E0F7018583D6
:1030E00011E0C70169830E9433186981811102C010
:1030F000F7011682F7019681911108C0883031F4EA
:1031000081E0868383819281890F09C0662311F053
:10311000F7011583813029F79111E3CF8FEF0F90DD
:10312000DF91CF911F91FF90EF9008950F931F9320
:10313000CF93DF93EC018B0150E00E9427124AE30A
:10314000B801CE01DF91CF911F910F910C94D31153
:10315000EF92FF920F931F93CF93DF9300D01F92B4
:10316000CDB7DEB78C01462F0B969A8389838EE00C
:103170008B83D801EC91F0E0EE0FFF1FEE5CFD4F6A
:10318000E590F490BE016D5F7F4FCE0101960E94E5
:103190009618A701BE016D5F7F4FCE0101960E9478
:1031A000EE1140E2BE016D5F7F4FCE0101960E949D
:1031B000D311F80141815281BE016D5F7F4FCE0175
:1031C00001960E9427124FE2BE016D5F7F4FCE0134
:1031D00001960E94D311D80117964D915C911897D2
:1031E000BE016D5F7F4FCE0101960E9427120F90A6
:1031F0000F900F90DF91CF911F910F91FF90EF9063
:103200000895CF93DF9300D01F92CDB7DEB7462F3E
:103210002EE02B830B969A838983BE016D5F7F4FCF
:10322000CE0101960E9496180F900F900F90DF919B
:10323000CF91089529E1289FB001299F700D112495
:103240006E557F4F49E150E088E992E00C94393E99
:1032500029E1289FB001299F700D11246E557F4FE1
:1032600049E150E088E992E00C94573EDC01EC9192
:10327000B6E0EB9FF0011124E60FF11DEE0FFF1FEA
:10328000EA5BFD4F25913491C9010895CF93DF93F7
:10329000EC010E9436194F815885849F9001859FCB
:1032A000300D949F300D1124C901DF91CF91089505
:1032B0000F931F93FC01A181B2812091E303309110
:1032C000E4030E94773D24E630E040E050E00E94B5
:1032D000C53D89019A01093EFDEF1F072105310512
:1032E00020F008EE1DEF20E030E0C8011F910F91A3
:1032F0000895FC012081213029F42091D9033091D7
:10330000DA0309C0223029F42091D7033091D80381
:1033100002C020E030E0FC0187819085289FA00159
:10332000299F500D389F500D1124CA010895E3EDD7
:10333000F3E0808191810895FC016081FBE06F9F43
:10334000B001112462547D4F4BE050E00C94093ED3
:10335000DC01EC91F0E0EE0FFF1FEE5CFD4F2591DC
:103360003491C9010C94D91260E170E00C94A81951
:10337000CF93DF93EC01888160E0811108C0CE011A
:103380000E94461967E00E94121687E011C0CE0124
:103390000E94461965E00E9412168FE20E94651392
:1033A0008F8198850E947C1283E40E94651388E0D7
:1033B000DF91CF91089566E0FC01838194810E94A2
:1033C000161686E0089566E0FC01858196810E94CC
:1033D000161686E00895FC0181819281883EFDEFFA
:1033E0009F0729F48CE293E00E940B1303C067E06F
:1033F0000E941A1688E0089549E1489F9001499F6C
:10340000300D112423553F4FC90108950F931F9389
:10341000CF93DF93CDB7DEB7A6970FB6F894DEBF94
:103420000FBECDBF8C01AB01BC01CE0101960E9445
:10343000DE1BCE0101960E94631C89E1FE013C96D1
:10344000D80101900D928A95E1F7A6960FB6F894EF
:10345000DEBF0FBECDBFDF91CF911F910F910895B9
:10346000FC012081260F2A3008F408C01616170622
:103470001CF4FC01108203C029E0FC0120830C94A1
:103480009C190F931F9361E00E9446199C0140E034
:1034900050E060E871ED80EF98E00E94C53D890141
:1034A0009A0109358BE118072105310520F008E55F
:1034B0001BE120E030E0C8011F910F9108950F93A8
:1034C0001F9361E00E9446199C0140E050E060E4D7
:1034D00078E78DE791E00E94C53D89019A0109389E
:1034E00083E118072105310520F008E813E120E009
:1034F00030E0C8011F910F9108950F931F93CF9350
:10350000DF9300D0CDB7DEB78C0169837A830E9448
:10351000411AAC0169817A81C80103960F900F901E
:10352000DF91CF911F910F910C94DA2D0F931F9380
:10353000CF93DF9300D0CDB7DEB78C0169837A8358
:103540000E945F1AAC0169817A81C80105960F90CB
:103550000F90DF91CF911F910F910C94DA2D61E0C4
:103560000E943619BC018CEC9DE80E94B13DCB0154
:103570000895EF92FF920F93CF93DF9300D0CDB7D2
:10358000DEB77C0169837A830E94AF1AF70120813C
:1035900069817A81211103C022E330E002C020E07A
:1035A00030E001E0AC01C70107960E947E2D0F902C
:1035B0000F90DF91CF910F91FF90EF900895CF93EF
:1035C000DF93EC010E94AF1A2F8138858217930791
:1035D00010F498878F83CE010E94411A2B813C8181
:1035E0008217930710F49C838B83CE010E945F1A8D
:1035F0002D813E818217930710F49E838D83DF9186
:10360000CF9108950F93CF93DF93EC0104E620E070
:1036100030E048EE5DEF01960E947E2D89819A810F
:103620009C838B832881233039F49C013695279520
:10363000369527953C832B839E838D83CE01DF9126
:10364000CF910F910C94DF1A0F931F93CF93DF93B9
:103650004BE050E060E073E088E992E00E94093EB0
:1036600088E992E00E94DF1AC0E0D0E08E010F5F8F
:103670001F4FB80188E992E00E940119CE010E9413
:103680002819E8010032110589F7DF91CF911F91C8
:103690000F910895FC01818592850895FC01818533
:1036A0009285883EF3E09F0719F486E393E004C017
:1036B0000E947C128EE393E00E940B1386E0089533
:1036C0000F9301E020E030E048EE53E009960E94BD
:1036D0007E2D0F91089508950895262F443019F0F6
:1036E0006FEF7FEF02C061E070E0223091F028F4CC
:1036F000222349F02130C9F409C0243081F060F060
:10370000253099F40FC00B960C94301A0B960C943C
:10371000B91A0B960C94021B0B960C947D1A0B96FF
:103720000C94961A0B960C94601B08951F93CF93DC
:10373000DF93EC01162F0E946817CE0109960E94B4
:10374000F32D882311F0298501C02FEF332727FDA2
:103750003095812F90E02817390759F11230B1F0D8
:1037600028F4112349F0113021F50BC01430C1F0B9
:1037700090F01530F1F419C0CE010B960E94B419E7
:1037800018C0CE010B960E94B81913C0CE010B963B
:103790000E94EB190EC0CE010B960E94DB1909C0E6
:1037A000CE010B960E94E31904C0CE010B960E9435
:1037B0004E1B80E0DF91CF911F910895EF92FF9211
:1037C0000F931F93CF93DF93EC018B017A0165E791
:1037D00073E00E9476178FEF898785EA90E09983DE
:1037E000888389E1F801DE011B9601900D928A958C
:1037F000E1F7FDA2ECA2DF91CF911F910F91FF9015
:10380000EF9008950F931F93CF93DF93CDB7DEB75B
:1038100028970FB6F894DEBF0FBECDBF8C01BC0158
:103820006A5E7F4F29E833E04EE050E0CE0101961A
:103830000E94DE10CE0101960E94E91081E0F8019D
:10384000858328960FB6F894DEBF0FBECDBFDF91FB
:10385000CF911F910F910895CF93DF93EC010E94B8
:10386000CF110E94C71184E993E00E940B130E94BC
:10387000CB116EE0CE0146960E94A7120E94EA2D5F
:1038800083E0DF91CF910C94F236CF93DF93EC017C
:103890006CA17DA16F5F7F4F0B960E940119CE0135
:1038A000DF91CF910C942C1CCF93DF93EC016CA192
:1038B0007DA16F5F7F4F0B960E94A818CE01DF910C
:1038C000CF910C942C1CDF92EF92FF920F931F93D9
:1038D000CF93DF93CDB7DEB769970FB6F894DEBF0D
:1038E0000FBECDBF8C0189E1D82E9BE0E92EF12CD3
:1038F000E00EF11E60E0C8010E94641887FD30C030
:10390000873041F0883051F0863061F4C8010E9460
:10391000541CF0CFC8010E94021CECCFC8010E94C9
:10392000451CE8CFF701DE0111969D2D01900D9207
:103930009A95E1F7682FC8010E948E17811109C07E
:10394000FE013196D7018D2D01900D928A95E1F7F8
:10395000D1CF83E00E94F236C7010E94DF1ACACF9E
:1039600069960FB6F894DEBF0FBECDBFDF91CF9141
:103970001F910F91FF90EF90DF9008958091CF03FA
:103980009091D003892BA1F08FE10E94740765E02C
:103990002AE0AC01249FC001259F900D11240E94B4
:1039A0002D158DE60E94651383E40E94651304C003
:1039B0008CE794E00E940B130C948F138DE10E940E
:1039C000740765E00E942D158DE60E94651386E55B
:1039D0000E9465130C948F130F931F93CF93DF9363
:1039E00000D0CDB7DEB789839A830E94C711898141
:1039F0009A810E940B130E94CB1100911703109122
:103A00001803C8010E94123E892B19F0C8010E94B8
:103A10000B130F900F90DF91CF911F910F910C948A
:103A20008F1390E0880F991F62E083529C4F0C9493
:103A3000D9120F931F93CF93DF9361E088E992E04F
:103A40000E9446198C0165E088E992E00E944619BF
:103A5000EC0186E10E94740780179107B8F4C8173B
:103A6000D907B0F49C012C1B3D0BC8018C1B9D0B8E
:103A700064E670E00E94B13DC9010E94B13DCB01F6
:103A80006436710530F083E690E003C083E601C040
:103A900080E0DF91CF911F910F910895613011F473
:103AA0000C941D0D0C94E52ACF93DF93D82FC62FCD
:103AB0008F5D0E94D009882351F06C2F8D2F0E94BA
:103AC0004E1D46E06C2FDF91CF910C94CE158EEFFA
:103AD00093E0DF91CF910C940B13FF920F931F9300
:103AE000CF93DF93182F062F0E94C7118091E80211
:103AF000882319F01092E80203C081E08093E80265
:103B00009091E6028091E702992311F08F5F01C046
:103B100081508093E7028091E70286301CF010927A
:103B2000E60205C082301CF481E08093E602109228
:103B3000B2020E94E40C811108C083E090E00E9470
:103B4000F40D882341F0C0E209C08091650288230A
:103B500021F0C2E403C0CDE601C0C2E68091870235
:103B6000811103C08C2F0E946513809187028111FF
:103B70001BC026C080918802D81761F0809187020F
:103B80008C2331F08091E802882321F082E003C089
:103B900081E001C080E00E946513C03811F0CC0FB5
:103BA00001C0C0E0DF5F02C0D0E0C1E00E94E10CD4
:103BB000D81700F30E94E10C98E0981B892F25C0CC
:103BC0008091E602882319F04EE3F42E02C03CE314
:103BD000F32ECD3611F0C032B9F4C1E0D0E020911F
:103BE000E702332727FD30952C173D0711F48F2D61
:103BF00001C080E20E9465132196C730D10579F794
:103C000080E20E94651303C087E00E948013D12FD9
:103C1000DF5F8D2F0E9492138AE30E946513602F4D
:103C2000812F0E94541D0E948F130E94CB11D83007
:103C3000C8F4C12FCE5F8C2F0E9492138AE30E949A
:103C40006513602F8D2F0E94541DC83058F4812FAA
:103C50008D5F0E9492138AE30E946513602F8C2F60
:103C60000E94541DDF91CF911F910F91FF900C94F2
:103C70008F138BE10E94740768E00E941A1680E29D
:103C80000C9465130E94C71188E992E00E945819AC
:103C900068E00E941A1680E20E9465130E94CE2AF4
:103CA00067E00E9416160E948F130E94CB1185E0D8
:103CB00094E00E940B1367E08091B7039091B803E2
:103CC0000E9412160C948F130F931F936091F302AE
:103CD0007091F4028091F5029091F6022091B10268
:103CE000222371F00E941F070091F3021091F40249
:103CF0002091F5023091F602601B710B820B930B41
:103D000028EE33E040E050E00E94C53DC9011F911C
:103D10000F910895CF930E942626811110C00E9412
:103D20008826882331F00E94262681110AC0C4E427
:103D30000BC00E94E40C811106C0CEE405C0C3E4B0
:103D400003C0C5E401C0C2E40E9416268111C7E584
:103D50008C2F0E94651380E20E9465130E94641EEE
:103D60000E94161580E2CF910C9465130E94C71132
:103D70000E94391E67E089E10E94FD090E948F13AD
:103D80000E94CB110E948A1E67E086E10E94FD0915
:103D90000C948F130E941F076093F3027093F40238
:103DA0008093F5029093F6021092EF021092F002C7
:103DB0001092F1021092F2021092EB021092EC02B9
:103DC0001092ED021092EE0281E08093B10208950C
:103DD0000F931F930E941F070091F3021091F402AA
:103DE0002091F5023091F602601B710B820B930B50
:103DF0006093F3027093F4028093F5029093F602BD
:103E00001092B1021F910F910895CF92DF92EF921D
:103E1000FF920E94C7118EE094E00E940B130E9453
:103E2000641E0E9416150E94CB1189E194E00E9445
:103E30000B136091EF027091F0028091F10290916A
:103E4000F20258EEC52E53E0D52EE12CF12CA7013D
:103E500096010E94C53DC9010E9416158CE194E0AF
:103E60000E940B136091EB027091EC028091ED02C5
:103E70009091EE02A70196010E94C53DC901FF90F5
:103E8000EF90DF90CF900C9416150E94C7118FE130
:103E900094E00E940B130E94EF2A68E00E940E1625
:103EA0000E948F130E94CB1185E10E94D0098823C4
:103EB00049F088E294E00E940B130E94F52A68E022
:103EC0000E940E160C948F130E94C71181E394E098
:103ED0000E940B1367E086E00E94FD090E948F1389
:103EE0000E94CB1189E394E00E940B1347E061E04C
:103EF0008091E5039091E6030E94CE150C948F13F8
:103F00000E94C71181E494E00E940B1367E084E1F2
:103F10000E94FD090E948F130E94CB1188E494E057
:103F20000E940B1367E085E10E94FD090C948F133A
:103F30000E94C7118FE494E00E940B138091CF037D
:103F40009091D003892B29F065E087E00E94FD095C
:103F500004C085E594E00E940B130E948F130E9419
:103F6000CB1187E594E00E940B1365E085E00E9489
:103F7000FD090C948F130F931F93CF93DF9300D001
:103F8000CDB7DEB78B0189839A830E94CF110E943F
:103F9000C71189819A810E940B130E94CB11C8011D
:103FA0000F900F90DF91CF911F910F910C940B13F5
:103FB0008DE594E00E94EC1C0E94CB118EE694E00B
:103FC0000E940B130E94641E0C94161585E794E062
:103FD0000C94EC1C0E94C7110E94391E0E94BE1C4A
:103FE0000E94CB110E948A1E0C94DE1C0E94C711F5
:103FF00084E894E00E940B1367E08EE10E94FD09C3
:104000000E948F130E94CB118DE894E00E940B1345
:104010000C94DE1C0E94C71187E994E00E940B13E8
:104020008091CF039091D003892B31F00E949107AA
:1040300069E00E94381504C08DE994E00E940B13DA
:104040000E948F130E94CB1181EA94E00E940B130F
:104050000C94BE1C60E070E08BEA94E00C94BB1FF3
:104060000E942A200C94EA2D60E070E08FEA94E030
:104070000E94BB1F88E893E10C942E0760E070E07B
:104080008BEB94E00C94BB1F6091EB027091EC02FF
:104090008091ED029091EE0220E63AEE40E050E091
:1040A0000E94C53DC9010895CF93DF938091E50239
:1040B0008F5F843018F48093E50202C01092E5020D
:1040C0008091E502833061F4C0916700CF5FC093B7
:1040D00067000E9428288C1718F481E080936700FD
:1040E000C0916700C1500E94C71161E080916700D4
:1040F00090E00E94131580E00E946513D0E0CC0F81
:10410000DD1FFE01EB54FD4F808191810E94161549
:1041100081E00E94801382E00E946513FE01E15459
:10412000FD4F808191810E9416150E948F130E947D
:10413000CB11FE01E753FD4F68E0808191810E9421
:104140001A16CD52DD4F68E0888199810E941A16B7
:10415000DF91CF910C948F13CF93DF93C0E0DFE01A
:1041600061E08D2F8C1B0E94C1118FEF0E9465139F
:1041700060E08C2F0E94C1118FEF0E9465138AE0CE
:1041800090E00E942E07CF5FC03151F78AE090E0A7
:10419000DF91CF910C942E07CF93C82F0E94CF119F
:1041A0000E94C7118FED94E00E940B1362E08C2FE8
:1041B00090E00E94131580E49FE1CF910C942E07AC
:1041C0001092E2021092E1021092E0021092DF02DD
:1041D0008091E3028093E4021092DE021092DD02ED
:1041E0000895CF93DF9322E630E08FEB92E0C5EBAA
:1041F000D2E0A3EDB2E069EC72E045E05DE2F901E6
:1042000051939F01FC0111921192CF0119921992C1
:104210001D921D92FB0111921192BF01415079F73D
:10422000DF91CF910895CF930E94E0200E94F1206A
:104230000E94C71164E070E088E992E00E94A8192A
:1042400080E20E94651388E992E00E94B81980E23A
:104250000E946513809119030E94111D0E94CB11C9
:104260000E94191D8093E30262E090E00E94131502
:104270008CEC94E00E940B1389EE92E00E94F32DE7
:10428000882319F0C091E90201C0CFEFC0FF05C03B
:1042900065E084E10E94FD0903C085E00E9480136F
:1042A00080E20E9465138091980284508630A8F4C1
:1042B000C1FF05C065E085E10E94FD0903C085E0FE
:1042C0000E948013C2FF05C00E94EF09CF910C9499
:1042D000921380E2CF910C94651366E0809199026D
:1042E00090919A020E941A16CF910C948F130E94FB
:1042F000191D8093E3029091E402981728F58093AA
:10430000E4020E94641E2091DF023091E002821BD1
:10431000930B9093E2028093E1020E94641E9093BB
:10432000E0028093DF028091E1029091E20220910D
:10433000DD023091DE022817390710F0232B21F41B
:104340009093DE028093DD020895CF93DF930E9465
:1043500077210E94EF09811116C085E10E94740740
:10436000EC0184E10E947407C817D90728F49C0166
:104370002C1B3D0BE90102C0C81BD90BC53FD14026
:1043800010F024E601C029E630E08091E402281B09
:1043900031098091DD029091DE02289FA001299FC2
:1043A000500D389F500D1124CA01DF91CF9108950F
:1043B000FF920F931F93CF93DF930E942828F82E2C
:1043C000FA940E942B28833429F50F2D112707FD1D
:1043D0001095F801EE59FF4F8083000F111FE8017F
:1043E000C154DD4F6091EB027091EC028091ED02BF
:1043F0009091EE0228EE33E040E050E00E94C53D8F
:10440000398328838BE10E947407F801ED52FD4F38
:10441000918380830E942B28843429F5CF2DDD27BA
:10442000C7FDD095FE01EE59FF4F8083CC0FDD1FF5
:104430008E010B541D4F6091EB027091EC02809144
:10444000ED029091EE0228EE33E040E050E00E9451
:10445000C53DF801318320838BE10E947407C75367
:10446000DD4F99838883DF91CF911F910F91FF904A
:1044700008950E942C2681112FC00E948E26811142
:104480002BC00E94E40C8823A1F08091EF02909150
:10449000F002A091F102B091F20280599F4FAF4F0C
:1044A000BF4F8093EF029093F002A093F102B0937C
:1044B000F2020E94D8210E94A5219093B402809319
:1044C000B3028091E5028F5F893218F48093E50290
:1044D00008951092E50208958091EB029091EC020C
:1044E000A091ED02B091EE0280599F4FAF4FBF4FA8
:1044F0008093EB029093EC02A093ED02B093EE0256
:10450000C0CF81E09091E502953108F080E00895F8
:104510000E9477210E9481228823B9F00E94C7114E
:104520000E94391E67E089E10E94FD090E948F13F5
:104530000E94CB110E948A1E8FEC94E00E940B1304
:104540000E94262681111CC031C00E94C71168E05C
:104550008AE10E94FD0981ED94E00E940B1367E05F
:1045600089E10E94FD090E948F130E94CB1168E02F
:104570008CE10E94FD0983ED94E00E940B1316C0AC
:104580008091E302833658F011C08091B30290917C
:10459000B4020C94161586ED94E00C940B138091E4
:1045A000DD029091DE02459780F7F5CF64E08091BF
:1045B000E30290E00E9413158DED94E00E940B132E
:1045C0000C948F139091EA029F5F9093EA0290E01F
:1045D000FC013197E331F10570F5E65DFF4F0C9476
:1045E000033E0C94B61E0C94421E0C94051F0C94B2
:1045F000981F61E007C061E083E00C946D1D61E0ED
:1046000006C066E080E0F9CF66E0F6CF66E086E0BF
:10461000F4CF0C9413210C94451F0C94801F0C9420
:10462000641F0C9488220C94F61F0C940A200C949E
:10463000EA1F0C94542008958FEF8093E9020895A7
:104640000F931F93CF93DF930E945426C0919B0238
:10465000D0919C0261E088E992E00E9446198C01A9
:10466000CE0165E070E00E94B13D81E10E945F09EA
:10467000EC0140E0BC01C8010E94192B81E10E94BD
:10468000422BCE01DF91CF911F910F910C943A26CE
:1046900081E00C9466260E942108882321F00E9464
:1046A00035260C94EA2B08951092F7020C942023DF
:1046B000CF93DF930E944B230E941708EC01809157
:1046C000F702811111C062E088E992E00E94461968
:1046D0008C179D0748F481E08093F70280919B023C
:1046E00090919C020E944E260E942108882309F482
:1046F0003FC064E088E992E00E9446198C179D074C
:1047000078F136C08091D5039091D603892B89F03A
:104710008DE10E947407EC0188E992E00E9479190A
:10472000D195C195D1098C179D071CF48AEF94E0AF
:1047300019C08091CF039091D003892B09F40EC04A
:104740008FE10E947407EC0188E992E00E949719BA
:104750008C179D071CF48EEF94E004C082E00DC01E
:1047600082EF94E0909318038093170381E005C0D3
:104770000E949607029730F6F1CFDF91CF9108950E
:104780007093FB026093FA029093F9028093F8020F
:1047900008950F931F93CF93DF93C091F802D091A8
:1047A000F902CE010E942D0F8C010E941708C81734
:1047B000D90738F4C801DF91CF911F910F910C9464
:1047C0000F0F81E0DF91CF911F910F9108950F930B
:1047D0001F93CF93DF930E94C923182F0E9497261F
:1047E000EC010E942108882311F001E001C0012F93
:1047F0008091FC02882329F0BE01812F0E949A2B10
:1048000001C0812F882329F081E00E94F12681E0F8
:104810000DC0011101C009C0BE01812F0E94B92C39
:104820008C179D0711F00E94D02682E0DF91CF9176
:104830001F910F9108950E94E3260E947C0D21E0B4
:104840008091E9039091EA03892B09F420E02093F9
:10485000FC0282E10C94422B81E00E94F1260C9430
:10486000770DBC0182E10E945F090C94B72A0F9377
:104870001F93CF93DF938C01EB010E94C023BE01F5
:1048800082E10E945F0940E0BC01C8010E94192B2F
:10489000CE016AE070E00E94B13DCB01DF91CF9183
:1048A0001F910F910C9431240E947C0D0E9454267C
:1048B00081E10C94422B81E00E9466260C94770DD6
:1048C0000F931F93CF93DF931F92CDB7DEB78C0169
:1048D00081E149830E945F094981BC01C8010F90B1
:1048E000DF91CF911F910F910C94192BBC0181E1A5
:1048F0000E945F090C94B72A0F931F93CF93DF9305
:10490000C091B703D091B803CE010E942D0F8C0146
:104910000E9417088C179D0738F4C801DF91CF91CA
:104920001F910F910C94F10E81E0DF91CF911F91B7
:104930000F9108951F93CF93DF930E947C24182F2B
:104940000E943526EC01BC01812F0E949A2B8823FE
:1049500029F081E00E94662681E01BC00E942108A8
:1049600081110BC0111109C0CE010E94D62A8111FC
:1049700004C00EC00E943A260BC00E94E40C8111B4
:1049800007C0BE01812F0E94B92C8C179D0791F79B
:1049900082E0DF91CF911F9108950E945B240E94D5
:1049A0002C240C94770DCF93DF931F92CDB7DEB7F5
:1049B0009091FE02913039F018F0923081F406C0E7
:1049C0000E949A240CC00E94E72309C00E94C20ED4
:1049D000823089F089830E94CD2489810CC0813086
:1049E00051F49091FD02992331F082E08093FE0210
:1049F0000E947C0D82E00F90DF91CF9108950E947C
:104A00007C0D80910303909104030E942D0F0E945E
:104A10000F0F2091030330910403882369F0609104
:104A200001037091020340E0C9010E9460240E94CA
:104A300054241092FE0208956091FF0270910003C9
:104A4000C9010E9437240E941B2481E08093FC024C
:104A50008093FE0208958093FD02089590930403CD
:104A60008093030370930203609301035093000348
:104A70004093FF020895FF920F931F93CF93DF930C
:104A800084E10E94D00901E0082780910503882372
:104A900081F00E94EF0990919F02FF24F3949813F4
:104AA00001C0F12C11E0811110E0913021F41123AB
:104AB00011F010E0F12C85E10E94D0098823A9F0C3
:104AC00085E10E947407EC0184E10E947407C81715
:104AD000D90728F49C012C1B3D0BE90102C0C81B1F
:104AE000D90BC53FD14008F001E0F11002C087E0CA
:104AF00001C083E08093E902112329F08091E9024B
:104B000082508093E902002329F08091E9028150CC
:104B10008093E902F11004C0111102C0002331F0AA
:104B200081E00E94F236111107C004C088E00E94A3
:104B3000F23608C0FF2031F02091EB033091EC03F6
:104B4000232B11F4C0E001C0C1E00E94301181119B
:104B500002C010920603C11106C0011104C00E94D8
:104B60003011883041F080910603823011F481E0E9
:104B700008C082E006C0809106038F5F8093060321
:104B8000F2CFDF91CF911F910F91FF90089587E0B1
:104B90008093E90282E08093EA020E94EB3683E090
:104BA0008093060308958FEF8093E90288E00C94C8
:104BB000F23680930503089510920D0308950E9424
:104BC0001F0728EE33E040E050E00E94C53D6091B1
:104BD0000703709108038091090390910A03A09143
:104BE0000B03B0910C03860F971FA11DB11D8217F7
:104BF0009307A407B50728F081E080930D0382E0B6
:104C0000089510920D0381E008950E941F0728EE79
:104C100033E040E050E00E94C53D2093090330930B
:104C20000A0340930B0350930C03089580910D03E6
:104C300008952CE3AC01249FC001259F900D112401
:104C400090930803809307030C94052681E09091CC
:104C50001003911180E0089581E020910E033091BE
:104C60000F03232B09F480E0089580910E039091A7
:104C70000F03089520916800223041F02091F50340
:104C80003091F6032817390708F4C90190930F03F0
:104C900080930E030E949A050C94A608BC0181E142
:104CA0000E945F090C943A2680911003882369F0D2
:104CB00010920F0310920E0380E090E00E943A26BB
:104CC00081E00E948E05109210030895CF93C82FA3
:104CD0008091100381110FC0CC2369F080E090E037
:104CE0000E943A2610920F0310920E0380E00E9459
:104CF0008E05C0931003CF91089510920F03109268
:104D00000E0380E090E00E943A2681E00C94662633
:104D100081E090911503911180E0089581E0209148
:104D2000130330911403232B09F480E0089580913C
:104D30001303909114030895CF93DF93EC014091F6
:104D4000CD035091CE03BA01645F714086E193E0D8
:104D50000E94F62C80911603882311F0C0E0D0E069
:104D6000CE01DF91CF910895CF93C82F8091110389
:104D7000909112030E949C262091130330911403FA
:104D80008217930711F4CC2349F090931403809376
:104D900013030E949E05CF910C94A608CF9108950D
:104DA00020916800223041F02091F7033091F80300
:104DB0002817390708F4C90190931203809311034F
:104DC00081E00C94B42680911503882349F080E09B
:104DD00090E00E94D02681E00E9494051092150375
:104DE0000895CF93C82F8091150381110BC0CC2358
:104DF00049F080E090E00E94D02680E00E94940577
:104E0000C0931503CF91089580E090E00E94D026D2
:104E100081E00C94F12680911503811102C00C945D
:104E2000B426089580919802893051F0982F9450BB
:104E3000963048F08150823048F42DE233E008C0CB
:104E40002BE133E005C024E233E002C026E333E087
:104E5000C901089586E195E090938B0280938A02C0
:104E600090919802945081E0963008F080E00E9482
:104E7000D92561E082E295E00E948F0F91E08130B8
:104E800009F090E0892F08950F931F93CF93DF933C
:104E90000E942B2500919D0210919E02C0919B02C1
:104EA000D0919C0263E088E992E00E944619A80133
:104EB000BE010E942E2580E195E090938B028093A5
:104EC0008A0260E089E295E0DF91CF911F910F9116
:104ED0000C948F0FDF92EF92FF920F931F93CF935B
:104EE000DF938C01D62ECBE9D2E0E880F98061E037
:104EF00088E992E00E94461940E0B7010E946024D0
:104F000088819981B8010E94B13DCB010E9476242D
:104F10008AE095E090938B0280938A026D2D87E35F
:104F200095E0DF91CF911F910F91FF90EF90DF906F
:104F30000C948F0F1F93CF93DF93182FC0919B0278
:104F4000D0919C0261E088E992E00E94461941E01C
:104F5000BE010E9460242AE035E030938B0220934A
:104F60008A02612F87E395E0DF91CF911F910C9426
:104F70008F0F2CEE34E030938B0220938A02682F3F
:104F800087E495E00C948F0FCF93C82F62E088E9F7
:104F900092E00E94461960919D0270919E02A0913C
:104FA0009F02B091A002E091E703F091E803AE9F69
:104FB0009001AF9F300DBE9F300D1124820F931FC3
:104FC0000E94372424E035E030938B0220938A023C
:104FD0006C2F84E595E0CF910C948F0F1F93CF93A6
:104FE000DF93182FC0919D02D0919E0262E088E964
:104FF00092E00E944619BE010E94372424E035E069
:1050000030938B0220938A02612F84E695E0DF9132
:10501000CF911F910C948F0F86EC91E090938B02AF
:1050200080938A0260E08FE695E00C948F0F809168
:10503000DD039091DE030E9419268CE195E09093A8
:105040008B0280938A0261E084E595E00C948F0FD7
:1050500080911A030895809169000895813009F4C0
:1050600008C0811103C081E00C94EE27823019F44E
:1050700081E00C94C42780E00895982F862F4091FA
:105080001A0350E02091DB033091DC0342175307F1
:1050900049F0913009F409C0911101C00BC0923060
:1050A000A1F40DC0913019F480E00C949A2791116D
:1050B00003C080E00C94B927923039F460E080910D
:1050C000E1039091E2030C946A2780E008950F9326
:1050D0001F93CF93DF93C82F81E080931A0314E4CA
:1050E000D7E503E43FC00E94D70C109369008C2FD2
:1050F0000E942E28813009F041C0D09369000E949F
:1051000017288130D9F50E94E0200E94D70C009327
:10511000690040911A0350E02091DB033091DC03D9
:105120004217530711F061E001C060E08C2F0E942C
:105130003D28813019F5D093690040911A0350E061
:105140002091DB033091DC034217530731F4809147
:105150001A038F5F80931A0305C00E9417288130BD
:10516000B1F30CC040911A0350E02091DB03309161
:10517000DC032417350708F0B6CF81E0DF91CF912B
:105180001F910F910895CF93C82F8093190326E79D
:1051900035E030931803209317038F3030F4E82F55
:1051A000F0E0EF54FF4F808101C080E08093680001
:1051B0000E94FA370E94CE080E942A27882309F409
:1051C00062C084E00E94F236C730B1F160F4C330AF
:1051D00009F128F4C13009F450C0C8F412C0C53038
:1051E00019F128F51BC0CB3061F020F4C93061F112
:1051F000F0F526C0CD3091F068F0CE3009F041C016
:1052000038C060E08091E1039091E2030AC00E94FF
:105210000C2839C080E00E94C42735C060E085E0DA
:1052200090E00E946A272FC060E080E002C060E04A
:1052300081E00E94442727C080E00E94B92723C054
:1052400080E00E94EE271FC08091EB039091EC0359
:10525000892B11F081E00EC067E875E087E795E0E3
:105260000E94BB1F80ED97E00E942E070CC080E0DB
:1052700001C082E00E94672806C080E00E949A2751
:1052800002C00E9430200E94DD08CF910C940A38A1
:105290000F931F93CF93DF93EC010E941A190E9482
:1052A00012278C0160E0C8010E94641887FD29C0A4
:1052B00090919802E82FFF27E7FDF095993019F4B7
:1052C000EC56FA4F0FC0892F8450863018F4E556FB
:1052D000FA4F08C09150923018F4EC55FA4F02C0C2
:1052E000E855FA4F84918F3049F4BE0188E992E085
:1052F0000E94061ACE010E942819D1CF0E94C3280D
:10530000D1CFDF91CF911F910F9108956DEA75E094
:1053100084E293E00E94761761EC75E08DE293E001
:105320000E9476176BEC75E08BE193E00E94761794
:105330006BED75E086E393E00C947617FC014281F7
:1053400053814115510589F0A081B181B7FF03C098
:10535000B195A195B10928EE33E00E94833D9A01F1
:1053600040E050E00E94C53D02C020E030E0C901AD
:1053700008950F931F93CF93DF9300D000D0CDB744
:10538000DEB78C01862FF801628173810E94FB08D1
:105390009C838B83F801808191819A838983CE01DC
:1053A00001960E949E290F900F900F900F90DF9111
:1053B000CF911F910F9108950F93FC01CA01002313
:1053C00041F06417750708F4CB014617570748F4F6
:1053D00009C04617570708F4CB016417750708F48E
:1053E00001C0BA01978386839183808313821282DE
:1053F0001582148233872287681B790B7187608737
:105400000F910895FC019B0140E050E08681978157
:10541000281B390B41095109A285B3850E948A3D99
:1054200020853185442737FD4095542F0E94E73D64
:105430002115310581E0480751051CF457FD04C0D2
:1054400005C02FEF3FEF02C020E030E0C901089512
:10545000DF92EF92FF920F931F93CF93DF93EC01B4
:105460002A813B812417350720F4FA01E21BF30B54
:1054700003C0F901E41BF50B8C819D8196958795FE
:105480008E179F0788F5888199818617970720F4E2
:10549000FB01E81BF90B03C0FC01E61BF70BEF2B2C
:1054A000F9F422C08A01021B130B7B01E81AF90AE6
:1054B00006C07C01E61AF70A8901041B150BC70117
:1054C0000E94242DD82E888599850E94242DD812DB
:1054D0000BC01D830C83F986E8861B870A8704C0EE
:1054E00024173507F8F2E5CFDF91CF911F910F9187
:1054F000FF90EF90DF9008950F931F93CF93DF936A
:10550000EC018B019A01A885B9850E94833D2A850B
:105510003B8540E050E00E94E73DC801A0E0B0E0DC
:1055200082179307A407B5071CF41F821E8204C0CC
:10553000021B130B1F830E83DF91CF911F910F91DD
:105540000895EF92FF920F931F93CF93DF93EC0197
:105550008B017A010E94282AA701B801CE01DF91B0
:10556000CF911F910F91FF90EF900C947C2A823382
:10557000910510F482E390E09093BE038093BD0305
:10558000089580914103813029F42091BD03309129
:10559000BE0302C020E030E0C90108956091B90364
:1055A0007091BA03809143030C94FB082091460349
:1055B000213041F041E02091BD033091BE038217BC
:1055C000930708F040E0842F08952CE0829FC001EB
:1055D000112460914303815B9C4F0C94B929609125
:1055E00043038FEA93E00C94B929CF93DF9300D063
:1055F00000D0CDB7DEB784E10E9474079A83898317
:1056000085E10E94740729813A81281B390B3A836E
:10561000298389E10E9474079C838B83CE010196C4
:105620000E949E290F900F900F900F90DF91CF91C5
:1056300008959B019093B8038093B7037093BA03C6
:105640006093B9036091E1037091E203C9010E9484
:10565000B13D7093BE036093BD032233310530F436
:1056600082E390E09093BA038093B90362337105AB
:1056700030F482E390E09093BE038093BD034093A7
:1056800042030895EF92FF920F931F93CF93DF93FE
:1056900091E090934103FF24F394813109F0F12CC0
:1056A0008093430360EA70E00E945F099093BC031B
:1056B0008093BB030E9417082091BD033091BE0365
:1056C0004091B7035091B8030F2DBC0187EA93E0D6
:1056D0000E94DC290E94E10C809344038091B7036F
:1056E0009091B8030E942D0FEC0110E08CE0E82EA1
:1056F00012C0812F0E941D0DBC012091BD0330916D
:10570000BE03E19EC00111240F2DAE01895B9C4FA9
:105710000E94DC291F5F80914403181750F31092F8
:10572000460310924503DF91CF911F910F91FF9097
:10573000EF9008950F931F93CF93DF93082FEB0102
:10574000809142038823C9F04091BB035091BC0370
:105750002091BD033091BE032417350708F49A0148
:105760002C173D0710F41092860280914603813079
:1057700021F00E94C20E8093410380914103813049
:1057800019F580914603823041F411E02091BD0368
:105790003091BE03C217D30708F010E00E94C12A5F
:1057A0008C179D0778F0111103C0011101C00AC0C8
:1057B00090914503892F8F5F8093450381E09A3054
:1057C00020F402C01092450380E0DF91CF911F9139
:1057D0000F9108950F931F93CF93DF93EC010E94D5
:1057E0001708AE01BC0187EA93E00E94A12A10E0ED
:1057F0000CE00DC0812F0E941D0DBC01019FC00156
:105800001124AE01895B9C4F0E94A12A1F5F8091E9
:105810004403181778F3DF91CF911F910F910895EA
:10582000CF92DF92EF92FF920F931F93CF93DF936C
:105830006091B7037091B80387EA93E00E94022A4F
:10584000EC018091B7039091B8030E942D0F7C0169
:10585000D12C9CE0C92E12C0CD9C80011124095B83
:105860001C4FB701C8010E94022AC817D90728F0A7
:10587000B701C8010E94022AEC01D394809144032D
:10588000D81650F3CE01DF91CF911F910F91FF9069
:10589000EF90DF90CF9008950F931F93CF93DF93F6
:1058A0008B018093B5039093B6032091B903309197
:1058B000BA03EC012817390708F4E9010E94C12A4C
:1058C0009C018C179D0708F49E010217130719F11C
:1058D000809146038230A9F42017310790F080911F
:1058E000BD039091BE0380179107A0F04091B303D0
:1058F0005091B40380915B0290915C024817590764
:1059000049F080915B0290915C029093B403809384
:10591000B30301C09801C901DF91CF911F910F918D
:1059200008950F931F93CF93DF93EC010E94170804
:105930009093A8038093A703D093AA03C093A903CD
:1059400010E00CE00DC0812F0E941D0D019FF001A1
:105950001124E95BFC4F91838083D383C2831F5F53
:1059600080914403181778F3DF91CF911F910F9125
:1059700008951F93CF93DF93182FEB01CB010E9463
:10598000EA2BCE010E94912C0E94102C9093400390
:1059900080933F03BE010E944C2C9C0180914603E2
:1059A000811110C0112389F080914203882321F0D6
:1059B0000E94700D1092860281E08093460320E0E1
:1059C00030E003C082E080934603C901DF91CF91AC
:1059D0001F9108959C0180E001C08F5FF9014591FE
:1059E00054912E5F3F4F452BC1F70895EF92FF92E0
:1059F0000F931F93CF93DF93EC017B018A0185E026
:105A00000E9474078E159F0518F4188281E007C064
:105A10000817190718F481E0888301C080E0DF913E
:105A2000CF911F910F91FF90EF90089521E030E00A
:105A30009AE006C0A901949F9001959F300D112412
:105A40008150C0F7C901089597FD02C081E0089513
:105A50008FEF0895CF92DF92EF92FF92CF939B0149
:105A6000AC01611571058105910521F421E030E05B
:105A700040E050E0C0E08AE0C82ED12CE12CF12CAF
:105A8000CF5FCA01B901A70196010E94C53D21154A
:105A9000310541055105A1F78C2FCF91FF90EF9073
:105AA000DF90CF900895FC0180819181860F971F30
:105AB00097FF03C0118210820895242F30E0281729
:105AC00039071CF4408311820895918380830895DF
:105AD000FC0180819181860F971F181619061CF012
